:020000041000EA
:1000000000B50C4B00219960042159610A4919601F
:100010000A490B480160002159600121996001BC27
:10002000002800D0004707480749086003C880F34C
:10003000088808470000001800031F00180200038A
:10004000F40000180001001008ED00E000000000BE
:1000500000000000000000000000000000000000A0
:100060000000000000000000000000000000000090
:100070000000000000000000000000000000000080
:100080000000000000000000000000000000000070
:100090000000000000000000000000000000000060
:1000A0000000000000000000000000000000000050
:1000B0000000000000000000000000000000000040
:1000C0000000000000000000000000000000000030
:1000D0000000000000000000000000000000000020
:1000E0000000000000000000000000000000000010
:1000F0000000000000000000000000002CEC210DBA
:1001000000200420F7010010C3010010C5010010F9
:10011000C1010010C1010010C1010010C101001097
:10012000C1010010C1010010C1010010C701001081
:10013000C1010010C1010010C9010010CB01001065
:10014000CD010010CD010010CD010010CD01001037
:10015000CD010010CD010010CD010010CD01001027
:10016000CD010010CD010010CD010010CD01001017
:10017000CD010010CD010010CD010010CD01001007
:10018000CD010010CD010010CD010010CD010010F7
:10019000CD010010CD010010CD010010CD010010E7
:1001A000CD010010CD010010CD010010CD010010D7
:1001B000CD010010CD010010CD010010CD010010C7
:1001C00000BE00BE00BE00BE00BE00BE00F04BF888
:1001D000103800BEF2EB88715C8F0110808F011027
:1001E0003402001090A31AE700202149086006C8D5
:1001F00081F3088810471F48006800282FD10DA4FC
:100200000ECC002902D000F012F8F9E71A491B4A77
:10021000002000E001C19142FCD1194988471949E9
:1002200088471949884700BEFDE701C901C29A42C3
:10023000FBD37047808F0110C0000020CC1D002030
:100240008CAC011000000420000004208CAC0110D4
:1002500000100420001004200000000070470B482C
:1002600006F07AFD0047EFF30580C0B2704700004A
:1002700008ED00E0000000D0D01D0020CC2E0020B2
:10028000A551001061200010CD52001057560000FB
:1002900006005250ABB36053586201100600525032
:1002A000861C030274620110060052505422A29D63
:1002B0008062011005005250DE65F4688CAC0110BC
:1002C000F8B5C04610B5064C2378002B07D1054B76
:1002D000002B02D0044800E000BF0123237010BDB2
:1002E000D81F002000000000505B0110044B10B527
:1002F000002B03D00349044800E000BF10BDC046F6
:1003000000000000DC1F0020505B011030B5436886
:1003100089B0002B01D109B030BD00220023049226
:10032000059300233A4904AA069300F077F9059D46
:10033000049C2B1B302B29D9206813F097FC059BBC
:10034000049A019345B29B1A182B41D9906913F076
:100350008DFC059B049A019344B29B1A302B30D933
:10036000106B13F083FC2B4B02AA13802A4BD07125
:100370005380002310001371557194710AF02CFA08
:100380004020002104F070FA049C059DAC420CD082
:1003900023002068083398420FD0A3681834591CF2
:1003A0000BF0B0F8AC42F3D1049D002DB3D0069908
:1003B0002800491B0BF0A6F8ADE71834AC42E7D192
:1003C000F2E7164ADB1002215A4315480CF0E0F917
:1003D000124ADB1001215A4311480CF0D9F9049C50
:1003E000059DA54208D104980699091A002801D054
:1003F0000BF088F80BF02EF92300206808339842A0
:1004000003D0A368591C0BF07DF81834E9E7C04607
:10041000687B0110E407000006050000ABAAAAAA49
:10042000505B011010B50AF0BBF910BD10B5040007
:100430000AF028FA200010BD10B51C00431A0298DB
:10044000511A001B584306F0B9FC001910BDC046F4
:100450000368F0B54E46994657464546DE461400B9
:100460004A464368E0B50F00991AC9108A0052182D
:1004700098461301D2181302D2181304D3185B0044
:10048000624A5B18824683B0934200D1BBE00122EE
:10049000002B03D05A00934200D9A9E04B46FD1A25
:1004A000002A00D093E01823009300239B46019379
:1004B0005D44280026002368083008362860B342CF
:1004C00000D19BE02B60A368AB60636826606B6023
:1004D000002363602372B9452ED04E465C464D46DC
:1004E000083609E02360AB681836A3606B681835DE
:1004F00063601834BD4210D02000083020602B68A3
:10050000B342EFD13100102207F0D6F86B681835EE
:10051000636018361834BD42EED13B004A46183BA2
:100520009B1ADA083A4B5343DB00DB0802335A00CC
:10053000D318DB005B440093B84530D03E003D004B
:10054000009C083609E02360AB681836A3606B682E
:10055000183563601834454510D020002B680830EA
:100560002060B342EFD13100102207F0A5F86B688C
:1005700018356360183618344545EED14346DF1B05
:10058000183F234BFF087B43DB00DB0801335A0095
:10059000D318009ADB0094469C44634600934B4674
:1005A000002B06D053464A469B684846991A0AF0E3
:1005B000A9FF53465A461A60009A5A60019A9A60F7
:1005C00003B0F0BCBB46B246A946A046F0BD0F4BF7
:1005D0009A4211D85600B618F60030000BF0EAFD2A
:1005E000330083465B44019318235B4400935FE729
:1005F0004B46084EFD1AF0E71A00EBE710223100D7
:1006000007F05AF861E704480CF0AAF8555555056B
:10061000ABAAAA0AF8FFFF7F9C5B0110F0B5C646A3
:1006200000B500688AB08846150014F06FFB06AE6E
:10063000071E23D153E0012855D13A7802A90A7444
:10064000320000210593D1546C68AB689C4233D0D2
:10065000200008302060049BB34249D02360069BF1
:100660000193A360059B636001936B6818336B6013
:100670004146002014F04AFB071E30D03800049693
:1006800014F0DCFA0400030003900F28D3D90022F1
:1006900003A904A80CF06AF9039B049006932200B6
:1006A000390007F009F80021039B049A0593D154FF
:1006B0006C68AB689C42CBD12100280004AAFFF7EC
:1006C000C7FE0498B042D3D0069B591C01930AF090
:1006D00019FF4146002014F019FB071ECED10AB0C5
:1006E00080BCB846F0BD32000028AAD03000D6E762
:1006F0001022310006F0E0FFB4E70498B04203D0C6
:10070000069901310AF0FEFE0AF0A4FF10B50400BC
:100710002300C0692433984203D0636A591C0AF04D
:10072000F1FE230060680C33984203D0E368591C43
:100730000AF0E8FE200010BDF0B5030045469046E3
:10074000020057464E46DE460C332432E0B5436085
:10075000C261002324228360037303628354A9B01F
:1007600003700B680CAD040099464F680A95002B86
:100770003ED022970F2F2BD8012F00D02EE1282119
:100780001B7802AA521813702A0000230B97D35526
:100790000B9B002203935F23039900930AA85E3BFF
:1007A0000CF0BAF94346002B03D00B9B0393022BAA
:1007B00024D80A98A84203D00C9901310AF0A2FE6D
:1007C000200029B0F0BCBB46B246A946A046F0BD09
:1007D00022AE002231000AA80CF0C8F8229B0A9031
:1007E0000C933A00494606F067FF229F0A9ACCE72D
:1007F0002A00002FC9D0D8480BF09AFF002200230E
:10080000069207930023D54906AA0AA80893FFF782
:1008100005FF079B069E0393991BC81083001B18B6
:100820001A019B181A029B181A049A1852001218DF
:10083000302900D8A0E0002A00D148E112AB109383
:100840009846336877689946002B00D10AE12297D1
:100850000F2F00D9B2E0012F00D017E140211B7803
:1008600002AA52181370424600231197D355079BD2
:10087000069A03939B1A182B00D821E118AB9946CE
:1008800016939369D7699A46002B00D1F1E022971D
:100890000F2F00D9C7E0012F00D0F1E058211B78BD
:1008A00002AA521813704A4600231797D355079B84
:1008B000069A03939B1A302B00D8FAE01EAB9A4697
:1008C0001C93136B576B9B46002B00D1BBE0229708
:1008D0000F2F00D997E0012F00D0DDE070211B78A9
:1008E00002AA52181370524622AE00231D97D35508
:1008F00024AB9B462293109B119F0393002B00D1A6
:10090000A9E005970F2F6FD8012F00D0CBE05A46F2
:100910001B78337200237760D355179B30001A0081
:10092000169903930CF016FA2298584503D0B16833
:1009300001310AF0E7FD0123201D237010A90CF0FE
:1009400057F8200016A91C300CF052F81C9850459E
:1009500003D01E9901310AF0D5FD1698484503D001
:10096000189901310AF0CEFD1098404508D012992F
:1009700001310AF0C7FD03E00A99794807F048F908
:10098000069E079FBE420CD0330030680833984261
:1009900010D0B3681836591C0AF0B4FDB742F3D131
:1009A000069F002F00D104E708993800C91B0AF000
:1009B000A9FDFEE61836B742E6D1F1E722AE0022E5
:1009C000310010A80BF0D2FF229B109012933A0036
:1009D000494606F071FE229F109A45E72A00002F33
:1009E00000D1D2E62800FCE60022300005A90BF079
:1009F000BDFF059B2290B3603A00039906F05CFEB0
:100A0000059F229A86E722AE002231001CA80BF037
:100A1000ADFF229B1C901E933A00594606F04CFEF7
:100A2000229F1C9A61E722AE0022310016A80BF02B
:100A30009DFF229B169018933A00514606F03CFE0B
:100A4000229F169A30E7524622AE002F00D14CE783
:100A500041480BF06DFE5A46002F00D15AE73E4840
:100A60000BF066FE4246002F00D1FDE63A480BF03F
:100A70005FFE4A46002F00D116E737480BF058FEBC
:100A80004A46002F00D10FE74846D5E74246002FDF
:100A900000D1E9E640469AE7524622AE002F00D147
:100AA00023E75046B8E75A46002F00D132E75846B0
:100AB000A2E72C4ADB1002215A432B480BF068FEB8
:100AC000284ADB1001215A4327480BF061FE110030
:100AD00025480BF05DFE069E079FB74230D1069871
:100AE0000899091A002801D00AF00CFD0A98A842BA
:100AF00003D00C9901310AF005FD2000FFF706FE36
:100B00000AF0A8FD1C98504503D01E9901310AF047
:100B1000F9FC1698484503D0189901310AF0F2FC07
:100B200010984045D7D0129901310AF0EBFCD2E77A
:100B300022985845E6D0B16801310AF0E3FCE1E7BC
:100B4000330030680833984203D0B368591C0AF068
:100B5000D9FC1836C1E7E3E7B85B0110E45B01108C
:100B6000E85B0110ABAAAAAA505B0110C5E7BDE77C
:100B7000CFE7C046F0B54E464546DE465746E0B59F
:100B800097B005AB9846039300238146102503AE2A
:100B9000554C337273606421534804F0F1FA071E18
:100BA00029D0A3691D42FCD12768FFB20A2F49D082
:100BB00073689B4601235B449A463368434518D0CB
:100BC000B26892450BD85A469F54534651467360BB
:100BD000002332680120535403F05EFEDBE701235B
:100BE000002200935946002330000BF03BFF33688E
:100BF000E9E70F22E5E7242209AB187398544B4626
:100C0000187048460C305860143A0CA906F054FD90
:100C100048464B4624309F60D861102212A906F046
:100C20004BFD4B461F620398404503D0B16801312C
:100C30000AF068FC484617B0F0BCBB46B246A9466D
:100C4000A046F0BD294B2A48196806F0E1FF039F32
:100C50000BAD74680995002F29D002940F2C17D87A
:100C6000012C2AD16A462C213B78521813702B0094
:100C700000220A9448461A5509A90132FFF75CFD83
:100C80000998A842CFD00B9901310AF03BFCCAE782
:100C9000002202A909A80BF069FE029B09900B93A0
:100CA0002200390006F008FD029C099BE0E72B00BA
:100CB000002CDDD00F480BF03BFD2B00002CD7D0D3
:100CC0002800EDE70398404503D0B16801310AF0F0
:100CD00019FC0AF0BFFC0998A842F3D00B99013126
:100CE0000AF010FCEEE7C046004003401820002048
:100CF000105C0110B85B0110962110B5094C8901F8
:100D0000200004F0CDF90221002002F073FE022140
:100D1000012002F06FFE1023E26A9343024A13603F
:100D200010BDC046004003402C500340F0B5DE46E5
:100D300057464E464546E0B50768AFB00CAB0600D7
:100D40000D009B4644680A93002F00D1F3E12894DC
:100D50000F2C00D9BAE1012C00D016E228213B78F3
:100D600002AA521813705B4600220B941A550B9A74
:100D7000CC4B03929A4200D11EE2CB4B01221900C8
:100D80000AA898460BF0E6FF6A6829680AA80BF0E3
:100D9000E1FF070012AB1093036808370400BB4261
:100DA00000D1DBE1109383681293636811930023F1
:100DB0006360119A2372BB4B276003929A4200D161
:100DC000FDE10122414610A80BF0C4FF070018AB5B
:100DD00016939A46036808370400BB4200D1B7E176
:100DE0001693836818936368179300232760237210
:100DF000376863601EAB74681C93002F00D194E1C8
:100E000028940F2C00D981E1012C00D0C2E170217F
:100E10003B7802AA521813701EAB00221D941A557B
:100E20001CA806CD0BF096FF1D9C002C00D1A9E15B
:100E300001211C9D9D4B9E4E2C192A781000584074
:100E40005B08014201D073409BB2500858405B08D8
:100E5000014201D073409BB2900858405B080142A8
:100E600001D073409BB2D00858405B08014201D0CA
:100E700073409BB2100958405B08014201D0734097
:100E80009BB2500958405B08014201D073409BB2AD
:100E9000900958405B08014201D073409BB2D209CF
:100EA0005A405B08114201D073409BB20135A54204
:100EB000C3D1DC4364BAA4B2092C00D862E1632C2C
:100EC00000D870E1FA239B009C4200D268E1794B84
:100ED000042605219C4200D868E124AB2D2222A8DB
:100EE00022930BF061FD229B0393632C1BD99C463C
:100EF000714B013E98466F4B664499462000642131
:100F000005F084FF20004D00642105F07FFF43467B
:100F10005B195B782700737043465B5D0400337098
:100F2000023E4F45EAD8092C00D8DEE0624B64004F
:100F30001A1952781C5D0399039B4A701C70179C08
:100F4000239A169BA018534500D1D9E018998842DE
:100F500000D8D9E0229924ADA94200D110E1249D06
:100F6000A84200D8EDE016A80BF0F4FE06002AAF68
:100F7000289703680836040028ADB34200D1F9E091
:100F800028938368AB6063686B600023636023729F
:100F90006A68444B26609A4200D10AE10122280087
:100FA00046490BF0D7FE0822904606AE0496036829
:100FB00080440400434500D1D6E00493836806933F
:100FC0006368059343462360002323722898636077
:100FD000B84203D0A96801310AF094FA229824ABF0
:100FE000984203D0249901310AF08CFA1C981EAB68
:100FF000984203D01E9901310AF084FA16985045A0
:1010000003D0189901310AF07DFA109812AB98427A
:1010100003D0129901310AF075FA0A98584503D0A5
:101020000C9901310AF06EFA0499254806F0F0FD9A
:1010300004980778002F1BD0224B0D2100255D5FFF
:10104000002398468C460400202241461E4B00296E
:101050001BD1BD4220D099690A42FCD11F60217882
:1010600001340D394F4279412778C9B2002FEED1B2
:10107000B04203D0069901310AF044FA2FB0F0BC17
:10108000BB46B246A946A046F0BD99690A42E5D0E2
:1010900099690A42F9D1E1E799690A42FCD16146AE
:1010A0001960D8E7FFFFFF3FE45B0110FFFF00007E
:1010B0000884FFFF0F270000405C01100468011046
:1010C0003C5C0110A82E002000400340002228A90B
:1010D0000AA80BF04BFC289B0A900C9322003900C5
:1010E00006F0EAFA289C0A9B3EE6039B3034E4B201
:1010F0001C70179C239A169BA018534500D025E717
:101100000F21884200D925E722992CE7002228A93F
:101110001CA80BF02BFC289B1C901E93220039006E
:1011200006F0CAFA289C1C9B77E6002C00D174E6D6
:1011300043480BF0FDFA002C00D115E640480BF0B7
:10114000F7FA00220021009422A80BF03FFD0DE7E2
:1011500010223900504606F0AFFA44E6102239005A
:1011600012A806F0A9FA20E641463000083206F03F
:10117000A3FA25E710223100380006F09DFA02E7B5
:101180000F25EDE600260121A7E6002C00D1EBE5B6
:101190001800A3E71EAB002C00D13EE61800BDE707
:1011A0000226032199E60126022196E6013E013935
:1011B00093E624480BF0D4FA22480BF0D1FA2148E8
:1011C0000BF0CEFA2898B84203D0A96801310AF092
:1011D00099F9229824AB984203D0249901310AF05E
:1011E00091F91C981EAB984203D01E9901310AF068
:1011F00089F91698504503D0189901310AF082F9FF
:10120000109812AB984203D0129901310AF07AF982
:101210000A98584503D00C9901310AF073F90AF085
:1012200019FAF5E7F4E7D4E7DBE7E9E70498B04219
:10123000F5D0069901310AF065F9F0E7D1E7D8E772
:10124000B85B0110245C0110F0B5DE4645465746F8
:101250004E46E0B5B7B00391B82132AB059230935A
:1012600004AAA94B5218138002233193002304AA25
:10127000023152181370C30F9B46C317C5185D4047
:10128000092D00D869E2632D00D86CE2FA239B0097
:101290009D4200D275E29D4B9D4200D86BE29C4B73
:1012A000280098469B4B012499469B4B9B4F9A469E
:1012B00008E0464500D812E24E4500D811E25645F6
:1012C00000D826E29649060005F0A0FD230004346C
:1012D000BE42EED808AB06935B462D22191906A82C
:1012E0000BF062FB069B9C46E344632D1AD98D4E9E
:1012F000864BB0469946023C5C442800642105F0C8
:1013000085FD28004F00642105F080FD4346DB1970
:101310005B782E0063704346DB5D05002370023C62
:101320004E45EAD8092D00D9BEE13035EDB25B4615
:101330001D70079A7C4B04929A4200D123E27B4BAA
:101340000122190006A89A460BF004FD05000EAB19
:101350000C93036808350400AB4200D1DFE10C9325
:1013600083680E9363680D93002363602372039B6D
:101370002560DA0F0392DA179D185540092D00D821
:10138000E9E1632D00D8F0E1FA239B009D4200D2F1
:10139000EDE15E4B9D4200D8EBE15D4B28009846A5
:1013A0005C4B012499465C4B5C4F9B4608E04645EC
:1013B00000D892E14E4500D895E15E4500D8A4E101
:1013C0005749060005F022FD23000434BE42EED842
:1013D000039E14AB2D22311912A812930BF0E4FADC
:1013E000129B9C466644B146632D1AD94D4E474B1D
:1013F000B0469B46023C4C442800642105F006FDA3
:1014000028004F00642105F001FD4346DB195B789D
:101410002E0063704346DB5D05002370023C5E4591
:10142000EAD8092D00D947E13035EDB24B461D70A1
:101430000D9C139A0C9B0EA9A0188B4200D16AE157
:101440000E99884200D844E1129914ADA94200D106
:101450007DE1149DA84200D84EE10CA80BF07AFC67
:10146000050018AB9B461AAB189304930368083524
:101470000400AB4200D164E118935B4682689A6035
:101480005B4662685A6000235A4663602372526862
:10149000254B25609A4200D178E1012251465846F9
:1014A0000BF058FC050020AB1E93036808350400C0
:1014B000AB4200D13FE11E938368209363681F9382
:1014C000002363602372059B2560DA0F0392DA170D
:1014D0009D185540092D00D841E1632D00D840E109
:1014E000FA239B009D4200D247E1084B9D4200D861
:1014F00045E1074B28009846064B01249946064BC8
:10150000064F9A461DE0C046637400000F27000096
:101510003F420F007F969800FFE0F5059F8601008F
:1015200010270000405C0110FFFFFF3F687B0110A7
:10153000464500D8CFE04E4500D8E4E0564500D8F7
:10154000E5E0B849060005F061FC23000434BE4222
:10155000EED8039E26AB2D22311924A89946249358
:101560000BF022FA249B9C4666440396632D1BD9FC
:10157000B446AD4BAD4E9A46B046023C644428009A
:10158000642105F043FC28004F00642105F03EFC77
:101590004346DB195B782E0063704346DB5D050034
:1015A0002370023C5645EAD8092D00D88CE09F4BA9
:1015B0006D005A19527803995D5D4A70039B20A90A
:1015C0001D701F9C259A1E9BA0188B4200D1A4E081
:1015D0002099884200D87AE02499494500D1B8E0A2
:1015E000269DA84200D880E01EA80BF0B3FB0700A0
:1015F0002CAE2A960368083704002AADBB4200D1FE
:1016000093E02A938368AB60636829006B600023D2
:1016100027606360237230A8FFF788FB2A98B042E6
:1016200003D0A968013109F06DFF2498484503D023
:101630002699013109F066FF1E9820AB984203D02D
:101640002099013109F05EFF1898049B984204D05C
:101650005B469968013109F055FF129814AB984226
:1016600003D01499013109F04DFF0C980EAB98424C
:1016700003D00E99013109F045FF069808AB984256
:1016800003D00899013109F03DFF309832AB984200
:1016900003D03299013109F035FF37B0F0BCBB46B9
:1016A000B246A946A046F0BD5A46604E6D00731979
:1016B0005B78755D53703AE64A465C4E6D0073196F
:1016C0005B78755D5370B1E63035EDB276E72499FD
:1016D0008AE71299C1E65C1D3BE75C1D78E65C1D5C
:1016E000F8E59C1DF6E59C1D72E6002200210094A1
:1016F00024A80BF06BFA7AE700220021009412A8CC
:101700000BF064FAACE69C1D23E7DC1D60E6DC1DF3
:101710001FE7DC1DDEE50F2193E60F2159E71022BC
:1017200029000EA805F0C8FF1CE610223900300081
:1017300005F0C2FF68E71022290020A805F0BCFFD1
:10174000BCE610222900049805F0B6FF98E60F25A4
:1017500080E60F2545E701243AE60124BAE5012495
:10176000F7E60224F5E60224B4E5022430E6032479
:101770002EE604242CE60424ACE50324E9E6042444
:10178000E7E60324A6E52A480AF0EAFF28480AF01B
:10179000E7FF069808AB984203D00899013109F099
:1017A000B1FE309832AB984203D03299013109F042
:1017B000A9FE09F04FFF2A98B04203D0A968013171
:1017C00009F0A0FE2498484503D02699013109F07C
:1017D00099FE1E9820AB984203D02099013109F060
:1017E00091FE1898049B984204D05B469968013199
:1017F00009F088FE129814AB984203D01499013175
:1018000009F080FE0C980EAB9842C2D00E990131BF
:1018100009F078FEBDE7C4E7DBE7F3E7D2E7E9E7E5
:10182000DFE7C046102700000F270000405C0110D2
:10183000245C0110F0B5DE46454657464E46E0B5FD
:101840008FB008AB9B460AAB0893544B02AA138493
:1018500002235A46536000239372C30F0193C317A8
:10186000C5185D40092D00D87CE0632D00D87BE0D1
:10187000FA239B009D4200D27AE0494B9D4200D85A
:1018800074E0484B28009846474B01249946474B43
:10189000474F9A4605E046455ED94E455ED95645C6
:1018A0005ED94449060005F0B1FA23000434BE4273
:1018B000F1D8019E04AB2D22311902A802930BF03E
:1018C00073F8029B9C466644B246632D1AD93A4B84
:1018D000023C9846324B544499462800642105F056
:1018E00095FA28004E00642105F090FA43469B19B2
:1018F0005B782F00637043469B5D05002370023CBC
:101900004F45EAD8092D1FD83035EDB25346584619
:101910001D7002A9FFF70AFA029804AB984203D09F
:101920000499013109F0EEFD08980AAB984204D001
:101930005B469968013109F0E5FD0FB0F0BCBB468C
:10194000B246A946A046F0BD51461B4B6D005A1940
:1019500052785D5D4A70D9E75C1DAAE79C1DA8E737
:10196000DC1DA6E70124A4E70224A2E70424A0E7E3
:1019700003249EE7029804AB984203D004990131F6
:1019800009F0C0FD08980AAB984204D05B469968FC
:10199000013109F0B7FD09F05DFEF3E76362000075
:1019A0000F2700003F420F007F969800FFE0F505EB
:1019B0009F86010010270000405C0110034B1A00B5
:1019C00008321A6000225A601A72704718200020EC
:1019D0007047C046C06810B5002802D00368DB69B4
:1019E000984710BD0020704710B50400102109F081
:1019F00089FD200010BDC04610B5102109F082FD00
:101A000010BDC04610B50400024B036009F092FF00
:101A1000200010BD0C5F011010B50400044B0360E2
:101A200009F088FF2000042109F06CFD200010BDA2
:101A30000C5F011010B50400024B036009F074FB49
:101A4000200010BDE45E011010B50400044B0360DB
:101A500009F06AFB2000202109F054FD200010BD90
:101A6000E45E011070B5041E1FD02600E068FFF789
:101A7000F9FFB569A468002D11D06B68013B6B605C
:101A8000002B0CD12B6828009B689847AB68013B62
:101A9000AB60002B03D12B682800DB6898471C2122
:101AA000300009F02FFD002CDFD170BDF0B5C64627
:101AB00000B5244E84B02449300008F067FF0321AC
:101AC000022001F097FF0321032001F093FF002281
:101AD0000121022001F0A6FF00220121032001F0D4
:101AE000A1FF1A4B012500249846194F07E05C2CF2
:101AF0001AD0682C1FD0802D20D0013401357823D6
:101B00001A0022402342F6D0782AF4D000230F2274
:101B100000933000E1B201336A4408F0C9FF0028A5
:101B200004DCE8D1232CE2D13C60E6E7210009483F
:101B300006F06EF8F6E743461C60DEE704B080BCB2
:101B4000B846F0BD28150020A086010040140020F2
:101B50003C1400200C5D0110F0B5184E85B03168C2
:101B6000002927DB01250023154F03AC2370220039
:101B7000C9B201333800009508F032FF31780123F3
:101B8000220025703800009508F02AFF07233178DD
:101B900023702200063B3800009508F021FF132334
:101BA00031782370220038000095123B08F018FFAE
:101BB00005B0F0BD034806F02BF8F9E73C1400200F
:101BC00028150020205D011070B5294C294D23688F
:101BD000294E9A002868925984B0821A2A60274AAE
:101BE000116800291FDB002303AA00932448023355
:101BF000C9B208F05DFF6B466A461B7B527B00282A
:101C00002FDD1802801805F0D5FB1E4A1E4B05F08B
:101C10004AFB05F0E7FB23689A0000281CDB905183
:101C20002A6894466044013328601D2B00DD0023A0
:101C30001E21236005F0C2F8FF2314220093002127
:101C4000FA3BFEF7F9FB052802DA052004B070BD67
:101C5000FF28FBDDFF20F9E790592A68944660448D
:101C6000E1E723689A0090592A6894466044DAE7CD
:101C7000042D002038270020082D00203C140020CF
:101C8000281500203333333333330340F0B5C646D1
:101C90000022002300B586B00292039300230700C0
:101CA00002AA08004D490493FEF7B8FC029B0026E7
:101CB0009846039B00250193434563D0802138005B
:101CC00009F038F9039B02990193581AC010830058
:101CD0001B181A019B181A029B181A049A18520012
:101CE0001218AA425ED900241DE00B680022195D7B
:101CF00038000023303901F07DFDFA20800002F029
:101D0000CBFD039B029901935B1ADB109A00D2185A
:101D10001001121810021218100412185200D218D2
:101D20000134AA423ED989194B68A342DDD80A2161
:101D3000380009F0FFF8FA20C00002F0ADFD039B67
:101D4000029C98461A1BD21093009B1819015B182D
:101D500019025B1819045B185B0001359B181836D3
:101D6000AB42ABD844450DD02300206808339842DD
:101D700014D0A3681834591C09F0C4FBA045F3D152
:101D8000029B98464346002B04D004994046C91A4A
:101D900009F0B8FB06B080BCB846F0BD1834A045C9
:101DA000E2D1EDE729000E480AF0F2FC029C039D07
:101DB000A54208D102980499091A002801D009F017
:101DC000A1FB09F047FC230020680833984203D0A8
:101DD000A368591C09F096FB1834E9E70482011046
:101DE000505B01100023F0B5036043608360154B26
:101DF00004000E0083B0D5009D4217D8002D0FD0EF
:101E000028000AF0D7F947192060A760002D0BD0F1
:101E10002A00310005F050FC2000676003B0F0BDDF
:101E2000002705608560F7E70700F5E706480AF038
:101E300097FC2068A168091A002801D009F062FB0C
:101E400009F008FCF8FFFF7F345D0110F0B546464D
:101E50004F46D6468468031DC0B58846060099469D
:101E6000002C67D04D460B6803E02500A468002CC9
:101E700005D022699342F8D9E468002CF9D1A9452C
:101E800058D02A6993422DD22C200AF093F9434668
:101E90001B6884620361984603001833036243623F
:101EA0002B6907009A460476C461434521D9F3683B
:101EB0009A46AB420BD028000AF04CFB03690400A1
:101EC000434500D38BE0C368002B00D176E02C00A3
:101ED0003D0001204B46220029000AF057FB7369A0
:101EE0000133736128001430E0BCBA46B146A846FD
:101EF000F0BDC24516D23369AB4209D028000AF0C2
:101F000013FB0369040043455AD9EB68002BDFD16A
:101F10002C003D002AE02300002945D190453ED801
:101F20002F0025000020FFF79DFD2C21380009F02F
:101F3000E9FAD7E72C200AF03DF943461B68020076
:101F40009846036100230376C36183627369183284
:101F5000050002624262002B0CD0346923694345BC
:101F600008D20120A145B5D023699A46D0458041C9
:101F70004042AFE7B468002C05D114E00121A3680A
:101F8000002BC8D01C0022694245F7D80021E36825
:101F9000F6E72B00002932D19045C3D93D00002B34
:101FA00041D01C00DDE74C46F368A342D9D02000A5
:101FB0000AF0D0FA230002690400AFE73D00D0E741
:101FC000B568002D05D12CE00121AB68002B1FD096
:101FD0001D002A699045F7D30021EB68F6E7B56844
:101FE000002D05D10AE00121AB68002BD1D01D00E6
:101FF0002A694245F7D80021EB68F6E74D46AA4525
:102000000CD028000AF0A6FA2B0002690500C3E7ED
:102010002B000029C0D0F368AB42F2D12B003D0069
:10202000BDE74D46F7E72F0000257BE770B5046854
:102030000500002C11D06368013B6360002B0CD1BC
:10204000236820009B689847A368013BA360002B8E
:1020500003D123682000DB689847280070BDC04684
:10206000F0B5DE46454657464E46E0B5A3B005F00E
:10207000DBFD192001F0EEFCD02380221B06920428
:102080005A625A61FEF738FEFA20C00002F004FCE2
:1020900016ADD24805F0BCFDFEF7C4F92A00D04BBE
:1020A000149503CB03C208231593002314AC20001E
:1020B0002374FEF72BF91498A84203D0A368591C87
:1020C00009F020FAFFF7F2FCFFF746FD0023C54FA9
:1020D00009AD290038000993FFF7B8FE8368061D93
:1020E000002B09D01A009B68002BFBD1964203D02D
:1020F0001369002B00D16FE129003800FFF7A6FE1D
:102100000430864200D020E220200AF053F8002359
:10211000049303330393023B02930133019371331E
:1021200000930022B049633B060009F091F80023B8
:1021300010200E960F930AF03DF801234360836050
:10214000AA4BC66003600F9029003800FFF77EFE9F
:102150008368021D07009146002B00D193E11E0009
:102160009B68002BFBD1B14502D03369002B14D002
:102170001C200AF01FF8002380460361436183613D
:102180004E4500D159E13369002B00D042E1404671
:10219000B0461C2109F0B6F946460E9BB76973613B
:1021A0000F9B9846BB4218D0002B03D042465B6879
:1021B00001335360002F0ED07B68013B7B60002B06
:1021C00009D13B6838009B689847BB68013BBB60FE
:1021D000002B00D141E14346B3610F9B0E990F9A4A
:1021E00014911592002B02D05A6801325A602100D6
:1021F0000BA808F079FE15A8FFF718FF0FA8FFF746
:1022000015FFD02380221B0692049A61784B794FE8
:102210009846794B99462800FEF708F90523EB56B6
:1022200006269B460723EB56AE579A463B689A45CF
:1022300006D05346320059460BA83B6001F0DAFA4B
:1022400043461B68B34206D04346524631005846C7
:102250001E60FEF7F9FF4B461868002856D0674B02
:10226000674E1A683060824206D01860FFF7E2FAC3
:1022700031780BA808F05EFE2000FEF77BFC237887
:10228000002B2CD0E26961685E4805F0C1FC5E4914
:1022900015A80AF089FD00283BD110AB9A460E9391
:1022A000E369266A9B46002B75D008960F2E63D8EB
:1022B000012E00D08AE038211B7802AA5218137030
:1022C000524600230F960EA89355FEF71FF80E985E
:1022D000504504D0109B591C079309F013F9642052
:1022E00002F0DAFAE0691DAB984203D0636A591C28
:1022F00009F008F9606817AB98428CD0E368591C64
:1023000009F000F92800FEF791F887E7FFF75CFC79
:10231000A5E73E4915A80AF047FD00280AD1E06963
:1023200011F0A4FC00283BDBFF2800DDFF204B461A
:102330001860D4E7364915A80AF036FD0028CED13A
:1023400010AB9A460E93E369266A9B46002B38D061
:1023500008960F2E26D8012E00D08EE038211B784B
:1023600002AA52181370524600230F960EA99355D5
:102370000BA8FFF78BFCAAE7002208A90EA80AF019
:10238000F5FA089B0E9010933200594605F094F927
:10239000089E0E9A95E7002E00D095E0524690E7F1
:1023A0000020C4E7002208A90EA80AF0DFFA089B63
:1023B0000E9010933200594605F07EF9089E0E9A51
:1023C000D2E7002E00D07CE05246CDE75246002EE8
:1023D00000D176E75046D7E716008DE6685D01101C
:1023E000705D01107421002000002050205F01105A
:1023F000441400204814002068280020E42C002009
:10240000381400207C5D0110588001108C5D011093
:10241000905D0110F9688E4224D001224E46944608
:10242000BB6803E0624698681E000300002B37D0AB
:102430001A69002AF6D1D868F6E7BE689E423ED0F7
:10244000012104E00A00B368002B1ED01E0033698E
:10245000002BF7D10022F368F6E73B683800DB6811
:102460009847B8E601204B46320041460AF08EF804
:102470007B69464601337B618FE65246002E00D1D0
:1024800072E7504696E7160072E6002A00D17EE613
:10249000FB68B3420CD030000AF05CF8060076E628
:1024A000002A00D173E6B142F5D1002E00D16EE6CC
:1024B000B145D7D03069431E9841C0B2D3E74E46EC
:1024C000E6E72E480AF034F92C480AF031F90E9864
:1024D000504503D01099013109F014F8E0691DABA3
:1024E000984203D0636A591C09F00CF8606817AB76
:1024F000984209D10BA808F003FD09F0ABF80FA82A
:10250000FFF794FD09F0A6F8E168013108F0FAFF41
:10251000F0E71498A842F0D0A168013108F0F2FF6A
:10252000EBE709F085F93000FFF78EFA09F00AFEB3
:1025300009F0B8F909F08EF82021300008F0E2FF28
:1025400009F088F8C3E7C9E7D4E7042009F044F8A4
:102550000400042009F02EFE094B206003600022D5
:102560002000084909F0D4FD15A8FFF75FFDC6E774
:10257000200009F047F809F06DF8C046B85B01107B
:102580000C5F0110785E011000226F4B70B51A715C
:102590009A605A616D4A191DD9601961136890B02B
:1025A00001331360012B01D010B070BD0022002355
:1025B0000C920D9301220023654C0CAD0E920F93EB
:1025C0002900013220000AAB04950592FFF70AFCAE
:1025D0000023E36023616361A361E36123626362BB
:1025E000A362E36223636363A363E36323646364BB
:1025F000A364E36423656365A365E365236663669B
:10260000A366E36623676367012300225B420C92A3
:102610000D93290001324F480AAB06950792FFF748
:10262000E1FB01230C225B420C920D9329000B3A33
:1026300049480AAB08950992FFF7D4FB01236522AC
:102640005B4202AE0C920D932900643A330043487A
:102650000A950B92FFF7C6FB012371225B4202929F
:102660000393703A0C9631003D486A6001ABFFF766
:10267000B9FB0023A822A3500432A3500432A35074
:102680000432A3500432A3500432A3500432A350A6
:102690000432A3500432A3500432A3500432A35096
:1026A0000432A3500432A3500432A3500432A35086
:1026B0000432A3500432A3500432A3500432A35076
:1026C0000432A3500432A3500432A3500432A35066
:1026D0000432A3500432A3500432A3500432A35056
:1026E0000432A3500432A3500432A3500432A35046
:1026F0000432A3500432A3500432A3500432A35036
:102700000432A3500432A3500432A3500432A35025
:102710004AE71A231A25EB1A0E3D5D436519A542B7
:1027200009D108F097FF1023F4E70E23F2E70D23F9
:10273000F0E70F23EEE70C3D2868AB68191A002874
:10274000EDD008F0DFFEEAE774210020F41F00203E
:1027500030200020A8200020B4200020C02000202D
:10276000CC20002010B52B2182B0040004F04EFBD9
:10277000C2B28006801A8000801880008018800015
:1027800080180019FF244300C3185B00DBB2190254
:10279000C91A0912611A0802E31A401A1902CB1A5F
:1027A0001B12E31A1902CB1A00121B12C0B2DBB2C1
:1027B000042A36D81E4992008A5897460023FF21E2
:1027C00001AA137050709170D3705378107891787B
:1027D0001B021843D37809041B060843184302B0B0
:1027E00010BD01AAFF211370002391705370D370A4
:1027F000EBE701AAFF215370002311709370D3708F
:10280000E3E7FF2301AA5370002310709370D37085
:10281000DBE70021FF2001AA117050709370D17086
:10282000D3E7002301AA147053709070D370CCE7E3
:10283000345F0110F0B557464546DE464E46204B04
:10284000E0B598464F007F18BB009B4643465B446B
:1028500082465E68100043465A469D5883B0AE4299
:1028600010D03C2104F0AAFA8900CBB2994600248A
:10287000E300EB185F687B1C0BD0731B0134DB108B
:10288000A342F5D803B0F0BCBB46B246A946A04669
:10289000F0BD4846FFF766FF390002000090019046
:1028A000504608F04DFB43465B445E685A4643463B
:1028B0009D580134731BDB109C42D9D3E2E7C0461C
:1028C00030200020F0B5DE464E46454657461400FF
:1028D000E0B5CBB0804699460291019208F0F8FB32
:1028E0002000052104F06AFAC54C0391002900DD9F
:1028F00022E2636826689A46B34213D03C214846D8
:1029000004F05CFA8900CBB29B4600255246EB00EE
:10291000F3185F687B1C00D14CE1931B0135DB1081
:10292000AB42F4D82369E6689A46B34213D03C21FF
:10293000484604F043FA8900CBB29B460025524634
:10294000EB00F3185F687B1C00D146E1931B013557
:10295000DB109D42F4D3019B1E2B05DD029818214C
:10296000013004F02BFA0291029B002B00D19AE077
:102970000C2B00D197E0012B00D1A1E10D2B00D150
:102980009EE1022B01D100F061FC0E2B01D100F081
:102990005DFC032B01D100F0CBFC0F2B01D100F02B
:1029A000C7FC042B01D100F0A5FC102B01D100F0D5
:1029B000A1FC052B01D100F09DFD112B01D100F0F0
:1029C00099FD062B01D100F039FE122B01D100F048
:1029D00035FE072B01D100F064FE132B01D100F06E
:1029E00060FE082B01D100F08FFE142B01D100F006
:1029F0008BFE092B01D100F0C5FE152B01D100F093
:102A0000C1FE0A2B01D100F0B6FE162B01D100F059
:102A1000B2FE029B0B2B01D0172B04D14A46182182
:102A20004046FFF707FF019B053B9B46132B00D851
:102A300074E0019B233B042B00D8E3E0019B193B8E
:102A4000042B00D85DE3019B283B122B00D89CE3AC
:102A5000019B042B00D8FDE2019B0F3B042B00D906
:102A6000E9E0E76CA66CBE4213D048463C2104F076
:102A7000A5F98900CBB2994600253A00EB00F3187E
:102A80005F687B1C00D129E3931B0135DB10AB424F
:102A9000F4D8404608F02EFB4BB0F0BCBB46B24623
:102AA000A946A046F0BD98235B00E3589A469623BA
:102AB0005B00E658B245B6D03C21484604F07EF9AA
:102AC0008900CBB29B4600255246EB00F3185F68A5
:102AD0007B1C09D0931B0135DB10AB42A3D9EB0063
:102AE000F3185F687B1CF5D15846FFF73BFE3900B1
:102AF000020010901190404608F022FA98235B00E3
:102B0000E258043BE6580135931BDB109D42DCD3B1
:102B1000019B053B9B46132B00D98AE7636E266E0B
:102B20009A46B34213D03C21484604F047F90025A9
:102B300052468900CBB20293EB00F3185F687B1C0E
:102B400000D1C2E1931B0135DB10AB42F4D85B46E8
:102B5000042B00D9CCE1A76A666ABE4299D04846E8
:102B60003C2104F02BF98900CBB2994600253A00AC
:102B7000EB00F3185F687B1C0AD0931B0135DB1058
:102B8000AB4200D885E7EB00F3185F687B1CF4D1FB
:102B90004846FFF7E7FD390002003090319040468B
:102BA00008F0CEF9A26A666A0135931BDB10AB42CE
:102BB000DED86EE75846FFF7D5FD390002000E90CB
:102BC0000F90404608F0BCF9626826680135931BF7
:102BD000DB109D4200D29AE6A4E65846FFF7C2FDFC
:102BE000390002000C900D90404608F0A9F92269C6
:102BF000E6680135931BDB109D4200D2A0E6AAE6F1
:102C000030200020636E266E9A46B34213D03C21DA
:102C1000484604F0D3F88900CBB29B4600255246C3
:102C2000EB00F3185F687B1C00D144E2931B013575
:102C3000DB10AB42F4D8019B143B042B00D8D5E247
:102C4000019B193B042B00D8BCE1019B1E3B042BCC
:102C500000D8A0E3019B233B042B00D8F3E3019BA6
:102C6000283B042B00D829E3019B2D3B042B01D8E2
:102C700000F073FC019B323B042B01D800F0B0FC48
:102C8000019A373A042A00D903E7A76A666ABE4266
:102C900000D1FEE648463C2104F090F88900CBB212
:102CA000994600253A00EB00F3185F687B1C01D1C0
:102CB00000F081FC931B0135DB10AB42F3D8E8E652
:102CC000019B042B00D948E19E235B00E3589A4600
:102CD0009C235B00E658B24500D1AFE63C21484654
:102CE00004F06CF88900CBB29B4600255246EB00FD
:102CF000F3185F687B1C0AD0931B0135DB10AB42D5
:102D000000D89BE6EB00F3185F687B1CF4D15846B3
:102D1000FFF728FD3900020012901390404608F09A
:102D20000FF99E235B00E258043BE6580135931BE4
:102D3000DB109D42DBD381E6E36FA66F9A46B34278
:102D400012D03C21484604F039F88900CBB29B46AA
:102D500000255246EB00F3185F687B1C79D0931B6B
:102D60000135DB10AB42F5D8039B012B00D1C0E548
:102D70008823E3589A468423E658B24512D03C2172
:102D8000484604F01BF88900CBB29B46002552460A
:102D9000EB00F3185F687B1C6ED0931B0135DB10D2
:102DA000AB42F5D8039B022B00D1A2E59423E35854
:102DB0009A469023E658B24512D03C21484603F08B
:102DC000FDFF8900CBB29B4600255246EB00F3186D
:102DD0005F687B1C65D0931B0135DB10AB42F5D8D7
:102DE000039B042B00D084E5A023E3589A469C2340
:102DF000E658B24500D17CE53C21484603F0DEFFB1
:102E00008900CBB29B4600255246EB00F3185F6861
:102E10007B1C0AD0931B0135DB10AB4200D868E560
:102E2000EB00F3185F687B1CF4D15846FFF79AFC5F
:102E3000390002000A900B90404608F081F8A02368
:102E4000E258043BE6580135931BDB109D42DCD36E
:102E50004FE55846FFF786FC3900020004900590C4
:102E6000404608F06DF8E26FA66F0135931BDB104A
:102E70009D4200D26EE777E75846FFF773FC3900B2
:102E8000020006900790404608F05AF88823E2585E
:102E9000043BE6580135931BDB109D4200D277E7D7
:102EA00080E75846FFF75EFC390002000890099061
:102EB000404608F045F89423E258043BE6580135B3
:102EC000931BDB109D4281D38AE70298FFF74AFCEF
:102ED0003900020026902790404608F031F8626ED3
:102EE000266E0135931BDB109D4200D224E62EE6B0
:102EF000019B0A3B042B00D9AEE5676B266BB742FA
:102F000000D1C6E548463C2103F058FF8900CBB20A
:102F1000994600253A00EB00F3185F687B1C0AD045
:102F2000931B0135DB10AB4200D8B2E5EB00F31880
:102F30005F687B1CF4D14846FFF714FC390002009F
:102F400032903390404607F0FBFF626B266B0135F1
:102F5000931BDB10AB42DED89BE5AC23E3589A46CB
:102F6000A823E658B24500D15DE53C21484603F070
:102F700025FF8900CBB29B4600255246EB00F31893
:102F80005F687B1C0AD0931B0135DB10AB4200D875
:102F900049E5EB00F3185F687B1CF4D15846FFF756
:102FA000E1FB3900020014901590404607F0C8FF7D
:102FB000AC23E258043BE6580135931BDB109D42DD
:102FC000DCD330E5A76A666ABE4213D03C2148468E
:102FD00003F0F4FE8900CBB29A4600253A00EB00DC
:102FE000F3185F687B1C00D1BCE0931B0135DB103C
:102FF000AB42F4D8276FE66EB74200D149E54846A8
:103000003C2103F0DBFE8900CBB2994600253A0053
:10301000EB00F3185F687B1C0AD0931B0135DB10B3
:10302000AB4200D835E5EB00F3185F687B1CF4D1A8
:103030004846FFF797FB3900020038903990404628
:1030400007F07EFF226FE66E0135931BDB10AB426B
:10305000DED81EE5E369A6699A46B34200D1EAE5E7
:103060003C21484603F0AAFE8900CBB29B460025CE
:103070005246EB00F3185F687B1C0AD0931B0135A6
:10308000DB10AB4200D8D6E5EB00F3185F687B1C81
:10309000F4D15846FFF766FB390002002E902F90BE
:1030A000404607F04DFFE269A6690135931BDB102E
:1030B0009D42DED3BFE55846FFF754FB39000200BE
:1030C00028902990404607F03BFF626E266E01353E
:1030D000931BDB109D4200D2A2E5ACE54846FFF70A
:1030E00041FB3900020034903590404607F028FF3C
:1030F000E26CA66C0135931BDB10AB4200D9BDE43A
:10310000C7E4A36D666D9A46B34200D193E53C21B6
:10311000484603F053FE8900CBB29B460025524639
:10312000EB00F3185F687B1C0AD0931B0135DB10A2
:10313000AB4200D87FE5EB00F3185F687B1CF4D14D
:103140005846FFF70FFB390002002A902B904046AB
:1031500007F0F6FEA26D666D0135931BDB109D42F4
:10316000DED368E55046FFF7FDFA390002003A90D9
:103170003B90404607F0E4FEA26A666A0135931B65
:10318000DB10AB4200D92AE734E7A36D666D9A469F
:10319000B34200D14FE53C21484603F00FFE8900C1
:1031A000CBB29B4600255246EB00F3185F687B1CB0
:1031B0000AD0931B0135DB10AB4200D83BE5EB0096
:1031C000F3185F687B1CF4D15846FFF7CBFA39003F
:1031D00002002C902D90404607F0B2FEA26D666D65
:1031E0000135931BDB109D42DED324E5276CE66B93
:1031F000B74200D14DE448463C2103F0DFFD890091
:10320000CBB2994600253200EB00D3185E68731CE0
:103210000AD0BB1A0135DB10AB4200D839E4EB0011
:10322000D3185E68731CF4D14846FFF79BFA31004F
:10323000020036903790404607F082FE276CE26B22
:103240000135BB1ADB10AB42DED822E4B823E358C9
:103250009A46B423E658B24501D1FFF7E4FB3C217E
:10326000484603F0ABFD8900CBB29B460025524691
:10327000EB00F3185F687B1C0BD0931B0135DB1050
:10328000AB4201D8FFF7CFFBEB00F3185F687B1C64
:10329000F3D15846FFF766FA3900020016901790EE
:1032A000404607F04DFEB823E258043BE65801358E
:1032B000931BDB109D42DBD3FFF7B5FB276CE66B5E
:1032C000BE4201D1FFF7E5FB48463C2103F076FD05
:1032D0008900CBB2994600253A00EB00F3185F68ED
:1032E0007B1C00D19BE0931B0135DB10AB42F4D873
:1032F000FFF7CFFBD023E3589A46CC23E658B245DC
:1033000001D1FFF790FB3C21484603F057FD8900AF
:10331000CBB29B4600255246EB00F3185F687B1C3E
:1033200067D0931B0135DB10AB42F5D8FFF77BFB71
:10333000C423E3589A46C023E658B24501D1FFF7AB
:1033400072FB3C21484603F039FD8900CBB29B4615
:1033500000255246EB00F3185F687B1C06D0931BD8
:103360000135DB10AB42F5D8FFF75DFB5846FFF7A0
:10337000F9F93900020018901990404607F0E0FD75
:10338000C423E258043BE6580135931BDB109D42F1
:10339000E0D3FFF748FB276FE66EBE4201D1FFF78F
:1033A00078FB48463C2103F009FD8900CBB29946E1
:1033B00000253A00EB00F3185F687B1C06D0931BD6
:1033C0000135DB10AB42F5D8FFF763FB4846FFF74A
:1033D000C9F9390002003C903D90404607F0B0FD2D
:1033E000226FE66E0135931BDB10AB42E2D8FFF78C
:1033F00050FB5846FFF7B6F9390002001A901B90AF
:10340000404607F09DFDD023E258043BE6580135C5
:10341000931BDB109D4200D27EE7FFF704FB48467A
:10342000FFF7A0F93900020042904390404607F0B0
:1034300087FD226CE66B0135931BDB109D4200D2A9
:103440004BE7FFF726FBA76A666ABE4212D03C2113
:10345000484603F0B3FC8900CBB29A4600253A00F7
:10346000EB00F3185F687B1C1FD0931B0135DB104A
:10347000AB42F5D8276FE66EB74201D1FFF709FBE3
:1034800048463C2103F09AFC8900CBB299460025BE
:103490003A00EB00F3185F687B1C18D0931B0135D2
:1034A000DB10AB42F5D8FFF7F4FA5046FFF75AF9B4
:1034B0003900020040904190404607F041FDA26A69
:1034C000666A0135931BDB109D42C9D3D2E748469B
:1034D000FFF748F9390002003E903F90404607F060
:1034E0002FFD226FE66E0135931BDB10AB42D0D867
:1034F000FFF7CFFADC23E3589A46D823E658B245C3
:1035000001D1FFF790FA3C21484603F057FC8900AF
:10351000CBB29B4600255246EB00F3185F687B1C3C
:1035200006D0931B0135DB10AB42F5D8FFF77BFAD1
:103530005846FFF717F9390002001C901D904046CD
:1035400007F0FEFCDC23E258043BE6580135931BF0
:10355000DB109D42E0D3FFF766FAE76CA66CBE4233
:1035600001D1FFF796FA48463C2103F027FC890079
:10357000CBB2994600253A00EB00F3185F687B1C3C
:1035800006D0931B0135DB10AB42F5D8FFF781FA6B
:103590004846FFF7E7F8390002004490459040465E
:1035A00007F0CEFCE26CA66C0135931BDB109D424C
:1035B000E2D3FFF76EFA4846FFF7D4F8390002006D
:1035C00048904990404607F0BBFCA26A666A013504
:1035D000931BDB109D4201D2FFF765FBFFF759FA01
:1035E000676B266BB74201D1FFF753FA48463C217F
:1035F00003F0E4FB8900CBB2994600253200EB00D2
:10360000D3185E68731C06D0BB1A0135DB10AB42C1
:10361000F5D8FFF73EFA4846FFF7A4F8310002005C
:1036200046904790404607F08BFC676B226B013554
:10363000BB1ADB109D42E2D3FFF72BFAE823E358D5
:103640009A46E423E658B24501D1FFF7ECF93C2154
:10365000484603F0B3FB8900CBB29B460025524697
:10366000EB00F3185F687B1C06D0931B0135DB1061
:10367000AB42F5D8FFF7D7F95846FFF773F8390092
:1036800002001E901F90404607F05AFCE823E258C3
:10369000043BE6580135931BDB109D42E0D3FFF756
:1036A000C2F9F423E3589A46F023E658B24501D113
:1036B000FFF7B9F93C21484603F080FB8900CBB203
:1036C0009B4600255246EB00F3185F687B1C06D032
:1036D000931B0135DB109D42F5D3FFF7A4F9584643
:1036E000FFF740F83900020020902190404607F093
:1036F00027FCF423E258043BE6580135931BDB100A
:103700009D42E0D3FFF78FF980235B009B46E7588B
:10371000043BE658B74201D1FFF785F93C21484602
:1037200003F04CFB8900CBB29A46002533002600FB
:10373000EA009A185468621C07D0FA1A0135D210B0
:103740009542F5D33400FFF76EF95046FFF70AF8BB
:103750002100020022902390404607F0F1FB5B46D7
:10376000F758FC23F3580135FA1AD2109542DFD3EB
:103770003400FFF758F94A4617214046FFF75AF838
:10378000FFF751F986235B00E758043BE6589B4658
:10379000B74201D1FFF747F93C21484603F00EFB41
:1037A0008900CBB29A46002533002600EA009A1819
:1037B0005468621C07D0FA1A0135D2109542F5D32D
:1037C0003400FFF730F95046FEF7CCFF210002002D
:1037D00024902590404607F0B3FB86235B00F75802
:1037E0005B46F3580135FA1AD2109542DED3340005
:1037F000FFF719F9F8B504000D0016001F0007F0D7
:1038000067FC3B00320029002000FFF75BF8200036
:1038100007F070FCF8BDC04600226F4B70B51A71FE
:103820009A605A616D4A191DD9601961136890B088
:1038300001331360012B01D010B070BD00220023B2
:103840000C920D9301220023654C0CAD0E920F9348
:103850002900013220000AAB04950592FEF7C2FA56
:103860000023E36023616361A361E3612362636218
:10387000A362E36223636363A363E3632364636418
:10388000A364E36423656365A365E36523666366F8
:10389000A366E36623676367012300225B420C9201
:1038A0000D93290001324F480AAB06950792FEF7A7
:1038B00099FA01230C225B420C920D9329000B3ADA
:1038C00049480AAB08950992FEF78CFA0123652254
:1038D0005B4202AE0C920D932900643A33004348D8
:1038E0000A950B92FEF77EFA012371225B42029247
:1038F0000393703A0C9631003D486A6001ABFEF7C5
:1039000071FA0023A822A3500432A3500432A3501A
:103910000432A3500432A3500432A3500432A35003
:103920000432A3500432A3500432A3500432A350F3
:103930000432A3500432A3500432A3500432A350E3
:103940000432A3500432A3500432A3500432A350D3
:103950000432A3500432A3500432A3500432A350C3
:103960000432A3500432A3500432A3500432A350B3
:103970000432A3500432A3500432A3500432A350A3
:103980000432A3500432A3500432A3500432A35093
:103990000432A3500432A3500432A3500432A35083
:1039A0004AE71A231A25EB1A0E3D5D436519A54215
:1039B00009D107F04FFE1023F4E70E23F2E70D23A1
:1039C000F0E70F23EEE70C3D2868AB68191A0028D2
:1039D000EDD007F097FDEAE78C210020F41F0020CE
:1039E00030200020A8200020B4200020C02000208B
:1039F000CC200020094A830094464022634410B53D
:103A00001C68C0006240C02414408022520113434D
:103A10001C60034B9C466044416010BD04C00140E3
:103A2000004001400A4B80009C460423604400296A
:103A300001D00C230821002A00D10B00026853405A
:103A40000C221A4080235B01184302607047C04675
:103A500004C001400123D022834012069362936187
:103A6000094A83009446402263441968C0004A40D2
:103A7000C02111408022520113431960034B9C4620
:103A8000052360444360704704C00140004001408A
:103A9000EFF3108072B6034A1368002BFCD0BFF31B
:103AA0005F8F70472C0100D0BFF35F8F0022024B65
:103AB0001A6080F3108870472C0100D070B5EFF3C6
:103AC000108C72B60D4D2B68002BFCD0BFF35F8FAE
:103AD0000724CB08C618C05C01230C40A3401C007F
:103AE0000440034207D103433370BFF35F8F2C6060
:103AF0008CF3108870BD100001F0EAFB2C0100D09F
:103B0000F8B54746CE46884680B5EFF3108C72B6BE
:103B1000214D2C68002CFCD0BFF35F8F9A422CD82B
:103B2000D4080727055D061901241740BC402C4224
:103B30001FD007210127894609E0D408055D061931
:103B40004C4639001440A1400C00294211D00132EA
:103B50009342F2D201204042BFF35F8F00220E4B0E
:103B60001A608CF3108800280FDBC0BCB946B04641
:103B7000F8BD2C4310003470EEE7BFF35F8F0023D5
:103B80002B608CF31088012040424346002BECD080
:103B9000089801F09DFBC0462C0100D0024B18682C
:103BA0008007C00F7047C04600C006400021044B8C
:103BB000044ABFF35F8F02C39342FAD17047C046F5
:103BC000000100D0800100D0044A1078431CDBB211
:103BD000172B00D9102313707047C0464C140020D7
:103BE00000B5054B83B00100009318221F23034842
:103BF000FFF786FF03B000BD485F01103C2800209E
:103C000001238340002904D0034A1360034A136050
:103C10007047034A1360FBE780E200E000E100E048
:103C200080E100E001238340014A13607047C046F1
:103C300000E200E0084B10309B688000C358002B66
:103C400007D0064A00209B1A2F229A424041C0B258
:103C500070470020FCE7C04600ED00E05014002053
:103C6000024B10309B688000C058704700ED00E0A8
:103C700070B50D00EFF3108672B60F4A1368002B73
:103C8000FCD0BFF35F8F0D4B10309B6884001B5935
:103C90000B4A934203D09D4201D001F031FB074B08
:103CA0009B681D51BFF35F8FBFF35F8F0022024BF4
:103CB0001A6086F3108870BD240100D000ED00E08A
:103CC000CD010010F0B557464E46DE464546E0B5FC
:103CD00085B0060002911700EFF3108B72B6674AA9
:103CE0001368002BFCD0BFF35F8F0025644B5D573A
:103CF0009A46002D00DAA5E06B00624C03935B1935
:103D00009B009846A146C1444B4652469B791036CB
:103D100013705D4BB2009B68019299580B1B2F2BBF
:103D200034D95A4B994200D0A5E0039B584A9C468F
:103D3000584B6544AD006353434602336519E4189C
:103D4000554B0121043B1B1B1B055B0D13436B8073
:103D5000524BEF71AB80FF23AB71029BAB604B46C4
:103D60000B431900484B019A9B689950BFF35F8F32
:103D7000BFF35F8F0022414B1A608BF3108805B0B0
:103D8000F0BCBB46B246A946A046F0BD01200A00E1
:103D90008243D379BB422FD845464E461300404953
:103DA0001B1B5B415943090D3A4B63533A4B023598
:103DB0006519043B5B1B1B05354D5B0D2B43738065
:103DC0000426B446E0444444131F1B1B4C46A17117
:103DD00002991B05A16049465B0D2B43A380314B23
:103DE000E77101431360BDE75800C0188000201838
:103DF000C679BE422CD902000623D356002BF3DA33
:103E0000101D8246BD200002804604267642B4463C
:103E1000E14450464E46361A3005400D824656461D
:103E20001B48957106439680039A944665441D4A43
:103E3000AD00641922604246A371029BA280E77123
:103E4000A3608FE701F05CFA002553465D5753E706
:103E5000101D824690884005001584464046D44493
:103E6000664604302018301AE0260005400D360260
:103E700030438046C9E701F043FA56E7240100D0F9
:103E8000C72E00205014002000ED00E0CD010010EE
:103E900000E0FFFF00A1FFFF8014002000BDFFFF36
:103EA000AAAA000001488047F0B5DE4657464E46B4
:103EB0004546E0B50C0083B0EFF3108A72B65A4A5B
:103EC0001368002BFCD0BFF35F8F10229146814412
:103ED0004A46564B96009B689D59554B98469D42C5
:103EE00005D0A54216D0534FEB1B2F2B14D94F4BA7
:103EF0009B689D51BFF35F8FBFF35F8F00224A4BDA
:103F00001A608AF3108803B0F0BCBB46B246A946DB
:103F1000A046F0BD1D00EAE7012383409B465A46B8
:103F2000454B1B681A4000925A46444B1A60BFF337
:103F30005F8FFCF798F90190002803D0814501D0EC
:103F400001F0DEF901232A009A4393689C4208D1CC
:103F50005FE04B005B189B00FB189968A14211D0F1
:103F60001A00062151560029F3DA009B002B05D0D8
:103F70005A46334B1A60304B1A60B8E75A462F4BFB
:103F80001A60B4E706215956002921DB4A0050186F
:103F900080003C188046A0689860E079D8710620BF
:103FA00020569871002824DBA488F81A640524158B
:103FB00044440019E0240005400D24022043988069
:103FC0005218204B9200BF181A781970BA71CCE7BA
:103FD0000199002910D1FF3191711B499180194934
:103FE0000A789A71194ADB1B5B415A43120D0A7019
:103FF000BBE7BD200002E2E7154A1649D21A083A8B
:104000005002400D01439980134952080A43DA8057
:10401000ABE70621515613000029B7DA019A002AAE
:10402000EAD14546DBE7C046240100D000ED00E0C0
:10403000CD0100105014002000E100E080E100E01C
:1040400080E200E0C72E002000BDFFFFAAAA00000A
:104050008A14002000F0FFFF00F8FFFFF8B50125EB
:1040600004000543FCF7FFF8EFF3108C72B6214A09
:104070001368002BFCD0BFF35F8F1F4E2100B76881
:104080001E4A1F4B891A49414B431B0D59B28300ED
:10409000F858A8421CD00623D3568B421CD01223BA
:1040A000D3568B4222D01E23D3568B4220D02A23B4
:1040B000D35603208B4210D0124B1A781970A2717C
:1040C000BFF35F8F00220B4B1A608CF31088F8BD92
:1040D000B2680D48D050EFE7002043001B189B004A
:1040E000D218FF239371094B9380E5E70120F4E791
:1040F0000220F2E7240100D000ED00E0501400207F
:10410000AAAA0000C72E0020CD01001000BDFFFFAD
:10411000054B064A1360064A136053609360D360F0
:1041200013615361936170478080808000E400E0F8
:1041300004E400E0D02300B51B061B68010007481B
:1041400083B0C018064B002200930523FFF7D8FC6C
:10415000002801DB1F23181A03B000BDC02E002069
:10416000645F0110024B9C46614489000160704706
:104170004000003483680B4810B5844661446244B3
:10418000090112019A18591854684B6801209C4281
:1041900001D802D00020C0B210BD12680B689A424C
:1041A000F9D8F7E7FFFFFF0F0A4B1968EFF310800C
:1041B00072B60A68002AFCD0BFF35F8F1B68BFF39A
:1041C0005F8F00221A6080F3108840BF002000211A
:1041D0007047C0468C2E0020F8B557464E464546DF
:1041E000DE46E0B599460CAB1C780DAB1B7806009B
:1041F00090469A460768002C11D1BC7B002C42D017
:1042000065003B682D19033D59194B78BB73002B92
:1042100000D1FB7300238B704B700B7004E06500C2
:104220003B682D19033D5919B2682A4B9446424602
:10423000E3181B0163441A604A465A600A9A9A605E
:104240000B9ADA6000238B704B700B707B7B9B4664
:10425000002B2BD022005946B8687B6898473A68F3
:10426000002816D05B4658465B005B445519033B5B
:10427000A870D118D35C002B00D06B705B460C701B
:104280007B73A34513D0F0BCBB46B246A946A046FB
:10429000F8BD5B465B005B44033BD3189C7051192F
:1042A000525D002A00D05A705B460B707C73424608
:1042B0004B46307D00F068FC051E06D05346002BAF
:1042C00003D12100306800F081FE0E9B002BDAD074
:1042D0001D70D8E7FFFFFF0FF0B5DE464E4657468C
:1042E00045460023E0B58DB00A936B4B8200D3584E
:1042F0000B90994600239B464B46079300F0BAFB70
:10430000079C06000F006268EFF3108572B6136811
:10431000002BFCD022000794BFF35F8F2468637BDF
:104320009946002B67D092685C4B90464B441B012A
:10433000984443461A685B6810001900801BB94115
:1043400000295FDD0B9800F01FFC00230026984633
:1043500000279A46079C6368BFF35F8F5A461A602E
:1043600085F310885346002B08D10028C6D10DB024
:10437000F0BCBB46B246A946A046F0BD0A9B4146EA
:1043800018024B461843D047089009916268EFF332
:10439000108572B61368002BFCD00794BFF35F8FB3
:1043A0000899099A002A48DB114303D0079B1B692F
:1043B000002B5DD1079B1B68D97B002907D04A00E1
:1043C000521819688C4649466244033A51704A466D
:1043D000DA734B46079A013BD168CA5C0132CA5472
:1043E0005B46079A13615368BFF35F8F5A461A60A2
:1043F00085F3108882E700230026984600279A4616
:104400000020A7E7002901D100289BD1002120002E
:1044100000F05EFD43461E685F689B68079A9A46F7
:104420004346DB689846D3684B44013B1B780A93AC
:104430001B020343136100208CE72369002BB9D0D2
:1044400033003C005B1A94411A002300A74219D89C
:104450009F421BD059460491012103914946029184
:1044600041460191514607980091FFF7B5FEB7E725
:1044700000F000FB089A099B06000F0092197B418F
:104480009942E5D901225242D317E3E79642E1D996
:1044900001225242D317DDE7F42C0020FFFFFF0F6B
:1044A000F8B557464E464546DE46E0B5404D814696
:1044B0008A466A68EFF3108872B61368002BFCD046
:1044C000BFF35F8F2E68B47B002C39D06700336850
:1044D0003F19033FDB195A78B273002A00D1F273F7
:1044E000A968344A8C464946A218120162441160F8
:1044F00051465160304991600021D16099705970E6
:104500001970737B9B46002B35D022001900B068D0
:10451000736898473268002820D05B4658465B0095
:104520005B44D719033BB870D118D35C002B00D083
:104530007B705B460C7073735C451DD0002626E0D3
:104540006B68BFF35F8F1C6088F3108801204042C6
:10455000F0BCBB46B246A946A046F8BD5B465B0030
:104560005B44033BD3189C70D119D25D002A00D064
:104570005A705B460B7074734A465346287D00F0B0
:1045800003FB061EDAD02100286800F01FFDEB684F
:104590001B19013B19786B68BFF35F8F00221A600B
:1045A00088F310880020002ED2D108022043CFE7E4
:1045B00098140020FFFFFF0FA941001010B5124C06
:1045C0006368002B04D00A211048FFF7CBFD10BD13
:1045D00023000F4A1021206800F098FB032000F010
:1045E0003DFA032000F040FB03200A4900F086FA60
:1045F000FFF7EAFA084B9C46032360442375074BF8
:1046000080006060DC60DEE7981400208C2E0020C3
:1046100075410010D942001040000034F42C0020F5
:104620000048704798140020F0B557464E4645465E
:10463000DE46E0B585B0019310AB1B78060003930E
:1046400000239A46984600927268EFF3108972B67A
:104650001368002BFCD0BFF35F8F3568AC7B002C58
:1046600049D067002B683F19033FDB195A78AA73BA
:10467000002A00D1EA73B1684F4A8C46009801992C
:10468000A21812016244106051600E9991600F9956
:10469000D16042469A705A701A706B7B9B46002B11
:1046A00045D022001900A8686B6898472A6800283E
:1046B00030D05B4658465B005B44D719033BB8706B
:1046C000D118D35C002B00D07B705B460C706B73F1
:1046D0005C452DD0F3681B19013B18787368BFF354
:1046E0005F8F42461A6089F310885346002B2CD105
:1046F0000002204307E07368BFF35F8F1C6089F3FB
:1047000010880120404205B0F0BCBB46B246A94625
:10471000A046F0BD5B465B005B44033BD3189C7036
:10472000D119D25D002A00D05A705B460B706C73B1
:10473000307D009A019B00F027FA82460028C9D0FC
:104740002100306800F042FCC4E7039B002B30D00E
:104750000E9B00200F999847030004000D000B43A7
:1047600027D000290DDA0098019902000B00121BD6
:10477000AB41994213D818D000920193039B9A46FB
:1047800062E700F077F902000B00A4185D41009485
:104790000195A94203D8F1D100998A42EED90123AB
:1047A0005B42DC1700930194E8E700999142E3D95A
:1047B000F5E70020A7E7C046FFFFFF0FF0B50400B4
:1047C0000D0006267642F717C64636196F4100B52A
:1047D0008F4213D810D000F04DF932003B00121A6E
:1047E0008B41002B14DC002B37D02900200000F077
:1047F00075F980BCB846F0BD8642ECD9002600278A
:1048000000F038F932003B00121A8B41002BEADD30
:1048100030003900FFF744FE0028E6DB002398460D
:10482000BC460F4A0F4F7B6A9C4504D8B96A8E423A
:10483000DBD99C45D9D11168EFF3108072B60B68B3
:10484000002BFCD0BFF35F8F1368BFF35F8F41462F
:10485000196080F3108820BFE5E7002AC5D0D7E7AC
:104860008C2E00200040054070B504000D0000F0C3
:1048700001F902000B0020002900801859418B42E9
:1048800005D802D0FFF79AFF70BD8242FAD9012005
:104890004042C117F6E7C04670B5060000F0EAF8DE
:1048A000FA2204000D00002330000021920002F0E3
:1048B0002DFE001969418D4205D802D0FFF77EFF19
:1048C00070BD8442FAD901204042C117F6E7C046C4
:1048D000F8B5CE46474680B506000C00FFF7E0FD70
:1048E00000280CDC2D4B0020596A8C4203D89B6AAF
:1048F0000130B34245D3C0BCB946B046F8BD20BF75
:10490000274D6A68EFF3108772B61368002BFCD04E
:10491000BFF35F8F2B68C1B29C465B7B8B4235D067
:10492000FF2303405A00914662461268994490461C
:104930004A464244033A9278002A1DD0EA68000AA7
:1049400090464344013B1B78C0B2834221D06B6840
:10495000BFF35F8F00221A6087F310880F4A002090
:10496000536A9C42C7D8926A0130B242C3D2E01A5D
:10497000421E9041C0B2BEE72B699842E7D12A613E
:10498000E5E7601A431E9841C0B2B4E7FF23034035
:10499000D4E7604600F01AFBD9E7C0460040054066
:1049A00098140020F0B5D6464F464646C0B5EFF302
:1049B00005833F22134018001038EFF3108C72B6B5
:1049C000204D2A68002AFCD0BFF35F8F012211001E
:1049D00081401D4C884661631C4917000E788A4649
:1049E0003100C1400F400A4209D1BFF35F8F2F60F1
:1049F0008CF31088E0BCBA46B146A846F0BD144915
:104A00008200646A51588C420FD3124BD2584346ED
:104A10009E4353461E70BFF35F8F00232B608CF3C1
:104A20001088002AE6D09047E4E70B4A9B009046A6
:104A300043441A681A60BFF35F8F00232B608CF326
:104A40001088D7E7280100D000400540CA2E00207A
:104A5000982E002028270020D03F054010B50100E7
:104A6000024A0348FFF72AF810BDC046885F0110CC
:104A7000C62E0020034B596A0A00986A596A8A4276
:104A8000FAD170470040054070B504000D00124A8D
:104A9000536A1900966A536A8B42FAD130001900A2
:104AA00024184D41AB4211D80ED02B000A494A6A56
:104AB0009A42FCD307D1084A02E0516A994202D1D6
:104AC000916AA142F9D370BDA642EED90123012417
:104AD0006442E5175B42E9E700400540064A536A35
:104AE0009942FCD807D1044B02E05A6A914202D1A4
:104AF0009A6A8242F9D370470040054070B50400BD
:104B00000D00EFF3108672B61A4A1368002BFCD022
:104B1000BFF35F8F002D1BD02000FFF7A1F81649CF
:104B200081420AD02000FFF7A3F801212000FFF7FF
:104B300067F80123A340114A1360114BA400E5500C
:104B4000BFF35F8F00220B4B1A6086F3108870BD95
:104B50000B4BA200D5500122A2400A4920000B783D
:104B600093430B700449FFF79FF900212000FFF7E2
:104B700047F8E5E7280100D0A54900103860054056
:104B800028270020CA2E0020F0B54F46D6464646BC
:104B9000C0B507002F4C616A0D00A66A616AA94280
:104BA000FAD18B4208D805D00120E0BCBA46B14604
:104BB000A846F0BDB242F7D9EFF3108A72B6264884
:104BC00001680029FCD0BFF35F8F0125BD40234958
:104BD000204C8846097889462943C9B28C4641460B
:104BE00060460870391D1E48890065630A51B90086
:104BF0000B50216A0020294219D0616A0800A66A78
:104C0000616A8142FAD18B4219D801D1B24216D8D9
:104C1000CC451DD00F4B1F201D625D630123074053
:104C2000BB40104A1E38136043464A461A70BFF311
:104C30005F8F0022084B1A608AF31088B5E70020C6
:104C4000BFF35F8F0022044B1A608AF31088ACE731
:104C50000120ECE700400540280100D0CA2E0020CA
:104C6000982E002080E200E0EFF3108C72B60A4923
:104C70000B68002BFCD0BFF35F8F01238340074AF2
:104C80000748136202789A430270BFF35F8F0023D4
:104C90000B608CF310887047280100D0004005405D
:104CA000CA2E002070B5050014001600002915D08A
:104CB0000C00002A12D080686B6898472968002889
:104CC0000ED073009B196200033B1219CB18033AF4
:104CD0009C7088188A5C002A15D10670200070BD6F
:104CE00063001B197200033B9219CB18033A9E70A4
:104CF00088188A5C002A02D104703400EEE75A70EA
:104D000004703400EAE75A700670E7E730B5836054
:104D10000023CCB243730133047342608373C473C2
:104D20000D000068012C06D9421C0133DBB2137060
:104D300003329C42F9D1FF2129404B00591800232E
:104D400040180338437030BDF8B5CE4647460600DC
:104D50000C0080B5002907D04D0003686D18033D95
:104D60005A195778002F04D12000C0BCB946B0466C
:104D7000F8BD7900C91903398846434459788946F2
:104D800000215970517073683A002100806898477B
:104D90003368002814D042469A18947059195B5D04
:104DA000002B00D053700F70270049463000FFF7EA
:104DB000CBFF390002003000FFF774FF0400D3E797
:104DC000424641465D19AF709A185B5C002B00D0DB
:104DD0006B701470E9E7C046F0B557464546DE46AD
:104DE0004E46E0B50D006B0001685B19DF1E040044
:104DF000C85D83B00192CA1900284CD043001B182B
:104E0000033BCB185E78B446002E16D1019E002ECF
:104E10003ED0E67B002E04D073009B19CB18033BD9
:104E20005D70E57300282FD10023537003B0F0BCF0
:104E3000BB46B246A946A046F0BD72006244033AA2
:104E400089184A78904600224A7091465A700100AB
:104E500032002000FFF726FF43468246002B07D092
:104E60005B0021684344033BCB185A78002A16D1D3
:104E7000424651462000FFF715FF2168019BCA19E1
:104E8000002BC6D10028CFD043001B18033BCB1802
:104E900000219970C8E7019B002BBAD1C4E75000EC
:104EA0008018033809184878834648464870587077
:104EB00041462000FFF7F6FE594680462000FFF7E6
:104EC00043FF414602002000FFF7ECFE8046CFE79B
:104ED000F0B557464546DE464E46E0B583B00191F3
:104EE000457B04006B0000685B19DF1EC15DC219C1
:104EF00000294ED04B005B18033BC3185E78B446C4
:104F0000002E18D1019E002E40D0E67B002E04D04A
:104F100073009B19C318033B5D70E573002931D101
:104F2000002328005370617303B0F0BCBB46B24647
:104F3000A946A046F0BD72006244033A8018427848
:104F400090460022427091465A7020003200FFF7CE
:104F5000A9FE43468246002B07D05B0021684344EC
:104F6000033BCB185A78002A17D1424651462000FD
:104F7000FFF798FE019B01002068C219002BC4D1E5
:104F80000029CDD04B005B18033BC318002098705C
:104F9000C6E7019B002BB8D1C2E750008018033848
:104FA00009184878834648464870587041462000A2
:104FB000FFF778FE594680462000FFF7C5FE4146C0
:104FC00002002000FFF76EFE8046CEE770B50400B9
:104FD00000292CD0437B8B422ED005684800401816
:104FE000033828188278002A21D053009B18033BED
:104FF000EA5CEE188A4202D11BE0002A08D0530076
:105000009B18033BEB185A788A42F6D142785A70C3
:1050100000230122837043702000FFF7DDFE617BD7
:1050200002002000FFF73EFE6073012000E0002038
:1050300070BD43783370EBE701221900FFF7CCFE17
:1050400060730120F4E7C04610B50400FEF7BCFD14
:1050500001002000FFF786F8FF232371BFF35F8F65
:1050600010BDC04610B50400FEF7AEFD01002000E3
:10507000FFF778F8FF23A380BFF35F8F10BDC04612
:1050800010B504000120FEF7ABFD044B9C466044C4
:1050900080002060BFF35F8F10BDC0464000003429
:1050A000F8B5040006200D0000F08EFA002844D068
:1050B0002A4B2B49E21853425A418023DB039C467A
:1050C0009205284B62441A60274B1A6010008B68C7
:1050D0009843FBD1214B8021E3185A425341234A84
:1050E0005B0049009952062000F06EFA2900C000CA
:1050F00001F08CFEC30921D1402701212600802523
:105100006162A36200232C36AD0135432B6006207B
:1051100000F05AFA3900800001F078FE6023E26A5C
:1051200053406E221A4080235B0133431A60104BB8
:10513000236310232B600D3BA364F8BD0D4A9342FB
:1051400003D900230C4F0D49D8E77F2210400130CE
:1051500040089F0119003F180300CFE70080FCBF03
:1051600000C0004000E0004000F00040A82E0020F9
:1051700001030000FEFF0000C0FF3F00FFFF000032
:10518000074A30B51024956A03E0936A5B1B8B4293
:1051900004D883691C42F8D1012030BD0020FCE70F
:1051A000004005402C4B2D4A70B51A602C4A2D4BFF
:1051B0002D491A6014008B689C43FBD12B4D2C4E5B
:1051C000B54208D2013E761BB60808CD98472300A9
:1051D0000134B342F9D100F099F8264A214B1A6004
:1051E000214A9368DB43DB01DD09002BF9D1402222
:1051F000214B224C224E9A675A671A67DA66B442EC
:1052000008D223682000002B20D00834FFF72AFFA3
:10521000B442F6D31B4E1C4CC022A168300002F0F1
:105220004BFAA660FEF7C2FCFEF772FFFFF7C6F965
:10523000164C174EB44208D2013E361BB60808CCB5
:1052400098472B0001359E42F9D170BD0834FFF715
:10525000FBFEB442D5D3DDE700E00040BFCDFBFE4E
:10526000FE7F3C0000F0004000C00040801D002098
:10527000901D0020FFFFFF0100F00140781D00207D
:10528000801D00200000002000ED00E0901D0020A7
:10529000CC1D002000BEFDE7094A0300106800286D
:1052A00005D00849C3188B4207D8136070470648D9
:1052B0000449C31810608B42F7D901204042F5E73A
:1052C000E028002000000420CC2E002000BEFDE7D6
:1052D0000FB400B5084883B002F056FB049B002BC6
:1052E00007D005A91800019101F016FD034802F04E
:1052F0004BFB00BEFDE7C046AC5F01100468011027
:1053000010B50148FFF7E4FFBC5F011030B50C2079
:1053100083B000F0B7F9FEF741FC00280ED0944BA3
:10532000944A1A605A609A60DA601A615A619A6106
:10533000DA611A62904A5A6203B030BD8F4CA0679E
:1053400000F0F4F901228E4B1A60636C012BFCD142
:1053500003228C4B1A60894A936B012BFCD10133D9
:105360000121894A89480093043300F033F9052369
:10537000874A00930121874800F02CF9864B5A6830
:10538000FF2A02D8802252005A608022784C7D4B3E
:1053900021691201804D1A60002905D0606901F071
:1053A00035FD01300138FDD1E0217B4B02201A6828
:1053B0001140802252012A4311601968484003219C
:1053C0000140116004219A681142FCD080228021A2
:1053D00092012A4309011160802252005A606F4BEA
:1053E00023616F4B5968FF2900D85A600321644A32
:1053F0006B4B116002399A681142FCD0E0201A68A8
:105400001040802252011A4310601868484003215E
:1054100001400220116062498A681042FCD080225B
:1054200092011343802212011A6080225D4B5200C8
:105430004A6063615C4B5968FF2900D85A6080223A
:105440005A4BE1691201584D1A60002905D0606974
:1054500001F0DCFC01300138FDD1E02252490B683B
:105460001A4080235B012B431A60802380229B011A
:105470002B4312011A6080223E4B52004A60E361C6
:105480004B4B5968FF2900D85A608022494B216A4A
:105490001201474D1A60002905D0606901F0B6FC81
:1054A00001300138FDD1E02241490B681A408023C8
:1054B0005B012B431A60802380229B012B43120146
:1054C0001A60802380225B004B602A4BD202236249
:1054D000394B5968914200D25A608022374B616A39
:1054E0001201354D1A60002905D0606901F08EFC6B
:1054F00001300138FDD1E0222F490B681A4080238A
:105500005B012B431A60802380229B012B431201F5
:105510001A608023DB024B60174B6362284B5A688A
:10552000FF2A02D8802252005A608022254BA169AE
:105530001201234D1A60002905D0606901F066FC54
:1055400001300138FDD1E0221D490B681A4080234B
:105550005B012B431A60802380229B012B431201A5
:105560001A6080235B004B600E4BA361E4E6C046EB
:1055700040280020006CDC021BB7000000800040C7
:105580003CB0004030B00040002F6859008002401D
:10559000008C864700C0024030800040001BB700EE
:1055A0003C800040405973075480004054B0004094
:1055B0006080004060B000406C8000406CB00040F3
:1055C0004880004048B00040014B8000C058704700
:1055D00040280020F0B5C646040000B50C209046D7
:1055E0001F000E0001F012FC4101091A8D01691A19
:1055F000C90009188901404601F008FC069B3F04D8
:105600001A0323681743002B22DB1A4B1A4DE218AA
:1056100053425A4180235B019C461203174B62445C
:105620001A60174B1A601100AB689943FBD1C02276
:10563000231D92011A4321232660A0601360236872
:10564000002BFCDA0823E760136080BCB846F0BD8D
:105650003F2322681340B342D7D1A3681B051B0D1B
:105660008342D2D1EE22E368D2021340BB42CCD1B6
:10567000EBE7C0460040FDBF00C0004000E0004036
:1056800000F000408023024A9B000343D36270472E
:105690000080054010B5140080221B4BD2051A6013
:1056A00000281AD00123194A1843194BDA61194A04
:1056B00042401A62596298628022134BD2051A60E6
:1056C0001549164A1160E022D2041A60002C07D155
:1056D0008022134B12061A6010BD0D4BD861EBE708
:1056E00063011B1B9A008023121912015B049A426A
:1056F00000D30C4A0C4B1A60054B5A608022084BB1
:10570000D2051A60E8E7C04600B00540D3C007B034
:10571000008005402D3FF84FFCFF010008200140AC
:1057200000A00540FFFFFF00EC2C0020AA23064A42
:105730001B0113602133FF33D3600449044B19600C
:105740005368002BFCDA70470040024000B0FA00BA
:10575000006002409A4200D2885470477047C046A9
:10576000F8B557464E464546DE46E0B599460A9B93
:1057700007009A460D9B8846934615000B9E9B0793
:1057800010D10C9B9E420DD29D1B14000E005D4457
:1057900022004B46013431002020B847A542F7D102
:1057A000B0460B9E002E27D0444675195346AA1BBF
:1057B000013E985D21004B46B847002EF6D12300EC
:1057C0002C0098460D9B9B070FD55B46E51A0C9B5A
:1057D000AB420AD94646984622004B46310020206B
:1057E0000135B8470134A845F6D82000F0BCBB46C7
:1057F000B246A946A046F8BD2C00E3E7F0B54F46F7
:105800004646D646C0B584B098460EAB1B78129F6C
:10581000994694460D9C109B119EBA0725D4002EE4
:105820004BD19C4200D3BFE001223A4092461F2C4C
:1058300000D9B8E00C9A551E302201E0202C03D08C
:1058400001342A55A342F9D85246002A0DD0A64267
:105850000BD9202C44D00C9A551E302201E0202C6C
:105860003ED001342A55B442F9D1FA064DD57A0515
:105870003FD4002C39D10F9B102B00D179E00F9B26
:10588000022B00D18AE030230C9A012413704B467E
:10589000002B3FD02D230C9A135501340C9B6246EC
:1058A00000930397434602960194FFF759FF04B013
:1058B000E0BCBA46B146A846F0BD012215003D4005
:1058C000AA463A422FD04A46002A02D10C323A4226
:1058D00000D0013E9C42BAD21F2CABD9202E27D932
:1058E0002024FA06DAD57A0503D4A3422DD0A642A5
:1058F0002BD00F9B102B32D0022B20D0202CCDD0C0
:1059000030220C9B1B191A700134202CC6D04B4638
:10591000002BBFD17B070DD43B07BFD520230C9AAA
:1059200013550134BAE79C429FD21F2C00D881E75F
:1059300020249AE72B230C9A13550134AEE7202C30
:10594000ACD00C9B1B1901343AE0631E012C92D0A1
:105950000F9A102A2AD0022A2FD01C00D0E7BB06AB
:105960000ED4202C9AD00C9B1A1901347823137072
:10597000C4E7BB060DD478230C9A01241370BFE74B
:10598000202C00D18AE758220C9B1B191A70013475
:10599000B4E758230C9A01241370B1E70C9A6033D2
:1059A00001241370ACE7202400265EE7023CBA060F
:1059B000E9D40C9A12191C00D8E70C9A9246534469
:1059C00062221A709AE7C04610B5002800D110BDB7
:1059D00001F08AFFFBE7C0460B0010B5002802D09B
:1059E00049681B68984710BDF0B5DE4657464E46DD
:1059F0004546E0B59BB09B46249B89469846259B2F
:105A00000B900C924046424619009A4601F0BFFCAA
:105A1000002800D0D8E0012240465146774B524240
:105A200001F0B0FC002800D0CEE0012240465146F3
:105A3000734B524201F090FC002800D0C4E00022D9
:105A400000234046514601F087FC002800D0B9E110
:105A5000424653460A9209938023289ADB001A4053
:105A60000E92289A1A4201D1062326930A9A099B7C
:105A70001600134300D0C7E0289B002500261B0515
:105A800000D49BE100230D93269A0D9B9A4200DCE3
:105A90009FE1D01A431E26938023289ADB001A43E5
:105AA0000023002728920D93279B0024BB4200D996
:105AB000DC1B0223289A1A400E92289A134203D024
:105AC0007B427B415B421C400D9B002B07D00A9818
:105AD00009992A00330001F0E6FB0A90099100229F
