:020000041000EA
:1000000000B50C4B00219960042159610A4919601F
:100010000A490B480160002159600121996001BC27
:10002000002800D0004707480749086003C880F34C
:10003000088808470000001800031F00180200038A
:10004000F40000180001001008ED00E000000000BE
:1000500000000000000000000000000000000000A0
:100060000000000000000000000000000000000090
:100070000000000000000000000000000000000080
:100080000000000000000000000000000000000070
:100090000000000000000000000000000000000060
:1000A0000000000000000000000000000000000050
:1000B0000000000000000000000000000000000040
:1000C0000000000000000000000000000000000030
:1000D0000000000000000000000000000000000020
:1000E0000000000000000000000000000000000010
:1000F0000000000000000000000000002CEC210DBA
:1001000000200420F7010010C3010010C5010010F9
:10011000C1010010C1010010C1010010C101001097
:10012000C1010010C1010010C1010010C701001081
:10013000C1010010C1010010C9010010CB01001065
:10014000CD010010CD010010CD010010CD01001037
:10015000CD010010CD010010CD010010CD01001027
:10016000CD010010CD010010CD010010CD01001017
:10017000CD010010CD010010CD010010CD01001007
:10018000CD010010CD010010CD010010CD010010F7
:10019000CD010010CD010010CD010010CD010010E7
:1001A000CD010010CD010010CD010010CD010010D7
:1001B000CD010010CD010010CD010010CD010010C7
:1001C00000BE00BE00BE00BE00BE00BE00F04BF888
:1001D000103800BEF2EB887198AD0110BCAD011073
:1001E0003402001090A31AE700202149086006C8D5
:1001F00081F3088810471F48006800282FD10DA4FC
:100200000ECC002902D000F012F8F9E71A491B4A77
:10021000002000E001C19142FCD1194988471949E9
:1002200088471949884700BEFDE701C901C29A42C3
:10023000FBD37047BCAD0110C00000200C22002091
:1002400008CF0110000004200000042008CF011096
:1002500000100420001004200000000070470B482C
:1002600008F0F4FC0047EFF30580C0B270470000CF
:1002700008ED00E0000000D010220020C431002072
:1002800099700010F91F0010C1710010575600003E
:1002900006005250ABB3605320810110060052504B
:1002A000861C03023C810110060052505422A29D7C
:1002B0004881011005005250DE65F46808CF011036
:1002C000F8B5C04610B5064C2378002B07D1054B76
:1002D000002B02D0044800E000BF0123237010BDB2
:1002E0001824002000000000487A0110044B10B5CB
:1002F000002B03D00349044800E000BF10BDC046F6
:10030000000000001C240020487A011030B543682A
:1003100089B0002B01D109B030BD00220023049226
:10032000059300233A4904AA069300F077F9059D46
:10033000049C2B1B302B29D9206815F011FC059B40
:10034000049A019345B29B1A182B41D9906915F074
:1003500007FC059B049A019344B29B1A302B30D9B9
:10036000106B15F0FDFB2B4B02AA13802A4BD071AA
:100370005380002310001371557194710CF0A6F98D
:100380004020002106F0EAF9049C059DAC420CD007
:1003900023002068083398420FD0A3681834591CF2
:1003A0000DF02AF8AC42F3D1049D002DB3D006998C
:1003B0002800491B0DF020F8ADE71834AC42E7D116
:1003C000F2E7164ADB1002215A4315480EF05AF99B
:1003D000124ADB1001215A4311480EF053F9049CD4
:1003E000059DA54208D104980699091A002801D054
:1003F0000DF002F80DF0A8F82300206808339842A9
:1004000003D0A368591C0CF0F7FF1834E9E7C04685
:10041000309A0110E407000006050000ABAAAAAA62
:10042000487A011010B50CF035F910BD10B5040074
:100430000CF0A2F9200010BD10B51C00431A029860
:10044000511A001B584308F033FC001910BDC04678
:100450000368F0B54E46994657464546DE461400B9
:100460004A464368E0B50F00991AC9108A0052182D
:1004700098461301D2181302D2181304D3185B0044
:10048000624A5B18824683B0934200D1BBE00122EE
:10049000002B03D05A00934200D9A9E04B46FD1A25
:1004A000002A00D093E01823009300239B46019379
:1004B0005D44280026002368083008362860B342CF
:1004C00000D19BE02B60A368AB60636826606B6023
:1004D000002363602372B9452ED04E465C464D46DC
:1004E000083609E02360AB681836A3606B681835DE
:1004F00063601834BD4210D02000083020602B68A3
:10050000B342EFD13100102209F050F86B68183572
:10051000636018361834BD42EED13B004A46183BA2
:100520009B1ADA083A4B5343DB00DB0802335A00CC
:10053000D318DB005B440093B84530D03E003D004B
:10054000009C083609E02360AB681836A3606B682E
:10055000183563601834454510D020002B680830EA
:100560002060B342EFD13100102209F01FF86B6810
:1005700018356360183618344545EED14346DF1B05
:10058000183F234BFF087B43DB00DB0801335A0095
:10059000D318009ADB0094469C44634600934B4674
:1005A000002B06D053464A469B684846991A0CF0E1
:1005B00023FF53465A461A60009A5A60019A9A607D
:1005C00003B0F0BCBB46B246A946A046F0BD0F4BF7
:1005D0009A4211D85600B618F60030000DF064FDAE
:1005E000330083465B44019318235B4400935FE729
:1005F0004B46084EFD1AF0E71A00EBE710223100D7
:1006000008F0D4FF61E704480EF024F8555555056D
:10061000ABAAAA0AF8FFFF7F947A0110F0B5C6468C
:1006200000B500688AB08846150016F0E9FA06AEF3
:10063000071E23D153E0012855D13A7802A90A7444
:10064000320000210593D1546C68AB689C4233D0D2
:10065000200008302060049BB34249D02360069BF1
:100660000193A360059B636001936B6818336B6013
:100670004146002016F0C4FA071E30D03800049618
:1006800016F056FA0400030003900F28D3D9002275
:1006900003A904A80EF0E4F8039B0490069322003B
:1006A000390008F083FF0021039B049A0593D1547D
:1006B0006C68AB689C42CBD12100280004AAFFF7EC
:1006C000C7FE0498B042D3D0069B591C01930CF08E
:1006D00093FE4146002016F093FA071ECED10AB0D1
:1006E00080BCB846F0BD32000028AAD03000D6E762
:1006F0001022310008F05AFFB4E70498B04203D04A
:10070000069901310CF078FE0CF01EFF10B50400C4
:100710002300C0692433984203D0636A591C0CF04B
:100720006BFE230060680C33984203D0E368591CC9
:100730000CF062FE200010BDF0B503004546904667
:10074000020057464E46DE460C332432E0B5436085
:10075000C261002324228360037303628354A9B01F
:1007600003700B680CAD040099464F680A95002B86
:100770003ED022970F2F2BD8012F00D02EE1282119
:100780001B7802AA521813702A0000230B97D35526
:100790000B9B002203935F23039900930AA85E3BFF
:1007A0000EF034F94346002B03D00B9B0393022B2E
:1007B00024D80A98A84203D00C9901310CF01CFEF1
:1007C000200029B0F0BCBB46B246A946A046F0BD09
:1007D00022AE002231000AA80EF042F8229B0A90B5
:1007E0000C933A00494608F0E1FE229F0A9ACCE7B2
:1007F0002A00002FC9D0D8480DF014FF0022002392
:10080000069207930023D54906AA0AA80893FFF782
:1008100005FF079B069E0393991BC81083001B18B6
:100820001A019B181A029B181A049A1852001218DF
:10083000302900D8A0E0002A00D148E112AB109383
:100840009846336877689946002B00D10AE12297D1
:100850000F2F00D9B2E0012F00D017E140211B7803
:1008600002AA52181370424600231197D355079BD2
:10087000069A03939B1A182B00D821E118AB9946CE
:1008800016939369D7699A46002B00D1F1E022971D
:100890000F2F00D9C7E0012F00D0F1E058211B78BD
:1008A00002AA521813704A4600231797D355079B84
:1008B000069A03939B1A302B00D8FAE01EAB9A4697
:1008C0001C93136B576B9B46002B00D1BBE0229708
:1008D0000F2F00D997E0012F00D0DDE070211B78A9
:1008E00002AA52181370524622AE00231D97D35508
:1008F00024AB9B462293109B119F0393002B00D1A6
:10090000A9E005970F2F6FD8012F00D0CBE05A46F2
:100910001B78337200237760D355179B30001A0081
:10092000169903930EF090F92298584503D0B168B8
:1009300001310CF061FD0123201D237010A90DF081
:10094000D1FF200016A91C300DF0CCFF1C9850459B
:1009500003D01E9901310CF04FFD1698484503D085
:10096000189901310CF048FD1098404508D01299B3
:1009700001310CF041FD03E00A99794809F0C2F811
:10098000069E079FBE420CD0330030680833984261
:1009900010D0B3681836591C0CF02EFDB742F3D1B5
:1009A000069F002F00D104E708993800C91B0CF0FE
:1009B00023FDFEE61836B742E6D1F1E722AE00226B
:1009C000310010A80DF04CFF229B109012933A00BA
:1009D000494608F0EBFD229F109A45E72A00002FB8
:1009E00000D1D2E62800FCE60022300005A90DF077
:1009F00037FF059B2290B3603A00039908F0D6FDBB
:100A0000059F229A86E722AE002231001CA80DF035
:100A100027FF229B1C901E933A00594608F0C6FD02
:100A2000229F1C9A61E722AE0022310016A80DF029
:100A300017FF229B169018933A00514608F0B6FD16
:100A4000229F169A30E7524622AE002F00D14CE783
:100A500041480DF0E7FD5A46002F00D15AE73E48C5
:100A60000DF0E0FD4246002F00D1FDE63A480DF0C2
:100A7000D9FD4A46002F00D116E737480DF0D2FDC8
:100A80004A46002F00D10FE74846D5E74246002FDF
:100A900000D1E9E640469AE7524622AE002F00D147
:100AA00023E75046B8E75A46002F00D132E75846B0
:100AB000A2E72C4ADB1002215A432B480DF0E2FD3D
:100AC000284ADB1001215A4327480DF0DBFD1100B5
:100AD00025480DF0D7FD069E079FB74230D10698F6
:100AE0000899091A002801D00CF086FC0A98A8423F
:100AF00003D00C9901310CF07FFC2000FFF706FEBB
:100B00000CF022FD1C98504503D01E9901310CF0C9
:100B100073FC1698484503D0189901310CF06CFC11
:100B200010984045D7D0129901310CF065FCD2E7FE
:100B300022985845E6D0B16801310CF05DFCE1E740
:100B4000330030680833984203D0B368591C0CF066
:100B500053FC1836C1E7E3E7B07A0110DC7A0110E4
:100B6000E07A0110ABAAAAAA487A0110C5E7BDE74E
:100B7000CFE7C046F0B54E464546DE465746E0B59F
:100B800097B005AB9846039300238146102503AE2A
:100B9000554C337273606421534806F06BFA071E9C
:100BA00029D0A3691D42FCD12768FFB20A2F49D082
:100BB00073689B4601235B449A463368434518D0CB
:100BC000B26892450BD85A469F54534651467360BB
:100BD000002332680120535405F0D8FDDBE70123E0
:100BE000002200935946002330000DF0B5FE336813
:100BF000E9E70F22E5E7242209AB187398544B4626
:100C0000187048460C305860143A0CA908F0CEFC15
:100C100048464B4624309F60D861102212A908F044
:100C2000C5FC4B461F620398404503D0B1680131B3
:100C30000CF0E2FB484617B0F0BCBB46B246A946F2
:100C4000A046F0BD294B2A48196808F05BFF039FB6
:100C50000BAD74680995002F29D002940F2C17D87A
:100C6000012C2AD16A462C213B78521813702B0094
:100C700000220A9448461A5509A90132FFF75CFD83
:100C80000998A842CFD00B9901310CF0B5FBCAE707
:100C9000002202A909A80DF0E3FD029B09900B9325
:100CA0002200390008F082FC029C099BE0E72B003F
:100CB000002CDDD00F480DF0B5FC2B00002CD7D058
:100CC0002800EDE70398404503D0B16801310CF0EE
:100CD00093FB0CF039FC0998A842F3D00B99013131
:100CE0000CF08AFBEEE7C04600400340542400208D
:100CF000087B0110B07A0110962110B5094C8901CA
:100D0000200006F047F90221002004F0EDFD022149
:100D1000012004F0E9FD1023E26A9343024A1360C4
:100D200010BDC046004003402C500340F0B5DE46E5
:100D300057464E464546E0B50768AFB00CAB0600D7
:100D40000D009B4644680A93002F00D1F3E12894DC
:100D50000F2C00D9BAE1012C00D016E228213B78F3
:100D600002AA521813705B4600220B941A550B9A74
:100D7000CC4B03929A4200D11EE2CB4B01221900C8
:100D80000AA898460DF060FF6A6829680AA80DF065
:100D90005BFF070012AB1093036808370400BB42E7
:100DA00000D1DBE1109383681293636811930023F1
:100DB0006360119A2372BB4B276003929A4200D161
:100DC000FDE10122414610A80DF03EFF070018ABDF
:100DD00016939A46036808370400BB4200D1B7E176
:100DE0001693836818936368179300232760237210
:100DF000376863601EAB74681C93002F00D194E1C8
:100E000028940F2C00D981E1012C00D0C2E170217F
:100E10003B7802AA521813701EAB00221D941A557B
:100E20001CA806CD0DF010FF1D9C002C00D1A9E1DF
:100E300001211C9D9D4B9E4E2C192A781000584074
:100E40005B08014201D073409BB2500858405B08D8
:100E5000014201D073409BB2900858405B080142A8
:100E600001D073409BB2D00858405B08014201D0CA
:100E700073409BB2100958405B08014201D0734097
:100E80009BB2500958405B08014201D073409BB2AD
:100E9000900958405B08014201D073409BB2D209CF
:100EA0005A405B08114201D073409BB20135A54204
:100EB000C3D1DC4364BAA4B2092C00D862E1632C2C
:100EC00000D870E1FA239B009C4200D268E1794B84
:100ED000042605219C4200D868E124AB2D2222A8DB
:100EE00022930DF0DBFC229B0393632C1BD99C46C1
:100EF000714B013E98466F4B664499462000642131
:100F000007F0FEFE20004D00642107F0F9FE434685
:100F10005B195B782700737043465B5D0400337098
:100F2000023E4F45EAD8092C00D8DEE0624B64004F
:100F30001A1952781C5D0399039B4A701C70179C08
:100F4000239A169BA018534500D1D9E018998842DE
:100F500000D8D9E0229924ADA94200D110E1249D06
:100F6000A84200D8EDE016A80DF06EFE06002AAFEC
:100F7000289703680836040028ADB34200D1F9E091
:100F800028938368AB6063686B600023636023729F
:100F90006A68444B26609A4200D10AE10122280087
:100FA00046490DF051FE0822904606AE04960368AD
:100FB00080440400434500D1D6E00493836806933F
:100FC0006368059343462360002323722898636077
:100FD000B84203D0A96801310CF00EFA229824AB74
:100FE000984203D0249901310CF006FA1C981EABEC
:100FF000984203D01E9901310CF0FEF91698504525
:1010000003D0189901310CF0F7F9109812AB9842FF
:1010100003D0129901310CF0EFF90A98584503D02A
:101020000C9901310CF0E8F90499254808F06AFDA3
:1010300004980778002F1BD0224B0D2100255D5FFF
:10104000002398468C460400202241461E4B00296E
:101050001BD1BD4220D099690A42FCD11F60217882
:1010600001340D394F4279412778C9B2002FEED1B2
:10107000B04203D0069901310CF0BEF92FB0F0BC9C
:10108000BB46B246A946A046F0BD99690A42E5D0E2
:1010900099690A42F9D1E1E799690A42FCD16146AE
:1010A0001960D8E7FFFFFF3FDC7A0110FFFF000067
:1010B0000884FFFF0F270000387B0110CC86011049
:1010C000347B0110A031002000400340002228A9F9
:1010D0000AA80DF0C5FB289B0A900C93220039004A
:1010E00008F064FA289C0A9B3EE6039B3034E4B285
:1010F0001C70179C239A169BA018534500D025E717
:101100000F21884200D925E722992CE7002228A93F
:101110001CA80DF0A5FB289B1C901E9322003900F3
:1011200008F044FA289C1C9B77E6002C00D174E65A
:1011300043480DF077FA002C00D115E640480DF039
:1011400071FA00220021009422A80DF0B9FC0DE7ED
:1011500010223900504608F029FA44E610223900DE
:1011600012A808F023FA20E641463000083208F0C1
:101170001DFA25E710223100380008F017FA02E7BF
:101180000F25EDE600260121A7E6002C00D1EBE5B6
:101190001800A3E71EAB002C00D13EE61800BDE707
:1011A0000226032199E60126022196E6013E013935
:1011B00093E624480DF04EFA22480DF04BFA2148F0
:1011C0000DF048FA2898B84203D0A96801310CF014
:1011D00013F9229824AB984203D0249901310CF0E2
:1011E0000BF91C981EAB984203D01E9901310CF0EC
:1011F00003F91698504503D0189901310CF0FCF80A
:10120000109812AB984203D0129901310CF0F4F807
:101210000A98584503D00C9901310CF0EDF80CF008
:1012200093F9F5E7F4E7D4E7DBE7E9E70498B042A0
:10123000F5D0069901310CF0DFF8F0E7D1E7D8E7F7
:10124000B07A01101C7B0110F0B5DE4645465746CA
:101250004E46E0B5B7B00391B82132AB059230935A
:1012600004AAA94B5218138002233193002304AA25
:10127000023152181370C30F9B46C317C5185D4047
:10128000092D00D869E2632D00D86CE2FA239B0097
:101290009D4200D275E29D4B9D4200D86BE29C4B73
:1012A000280098469B4B012499469B4B9B4F9A469E
:1012B00008E0464500D812E24E4500D811E25645F6
:1012C00000D826E29649060007F01AFD23000434F0
:1012D000BE42EED808AB06935B462D22191906A82C
:1012E0000DF0DCFA069B9C46E344632D1AD98D4E23
:1012F000864BB0469946023C5C442800642107F0C6
:10130000FFFC28004F00642107F0FAFC4346DB197C
:101310005B782E0063704346DB5D05002370023C62
:101320004E45EAD8092D00D9BEE13035EDB25B4615
:101330001D70079A7C4B04929A4200D123E27B4BAA
:101340000122190006A89A460DF07EFC05000EAB9E
:101350000C93036808350400AB4200D1DFE10C9325
:1013600083680E9363680D93002363602372039B6D
:101370002560DA0F0392DA179D185540092D00D821
:10138000E9E1632D00D8F0E1FA239B009D4200D2F1
:10139000EDE15E4B9D4200D8EBE15D4B28009846A5
:1013A0005C4B012499465C4B5C4F9B4608E04645EC
:1013B00000D892E14E4500D895E15E4500D8A4E101
:1013C0005749060007F09CFC23000434BE42EED8C7
:1013D000039E14AB2D22311912A812930DF05EFA60
:1013E000129B9C466644B146632D1AD94D4E474B1D
:1013F000B0469B46023C4C442800642107F080FC28
:1014000028004F00642107F07BFC4346DB195B7822
:101410002E0063704346DB5D05002370023C5E4591
:10142000EAD8092D00D947E13035EDB24B461D70A1
:101430000D9C139A0C9B0EA9A0188B4200D16AE157
:101440000E99884200D844E1129914ADA94200D106
:101450007DE1149DA84200D84EE10CA80DF0F4FBEC
:10146000050018AB9B461AAB189304930368083524
:101470000400AB4200D164E118935B4682689A6035
:101480005B4662685A6000235A4663602372526862
:10149000254B25609A4200D178E1012251465846F9
:1014A0000DF0D2FB050020AB1E9303680835040045
:1014B000AB4200D13FE11E938368209363681F9382
:1014C000002363602372059B2560DA0F0392DA170D
:1014D0009D185540092D00D841E1632D00D840E109
:1014E000FA239B009D4200D247E1084B9D4200D861
:1014F00045E1074B28009846064B01249946064BC8
:10150000064F9A461DE0C046637400000F27000096
:101510003F420F007F969800FFE0F5059F8601008F
:1015200010270000387B0110FFFFFF3F309A0110A9
:10153000464500D8CFE04E4500D8E4E0564500D8F7
:10154000E5E0B849060007F0DBFB23000434BE42A7
:10155000EED8039E26AB2D22311924A89946249358
:101560000DF09CF9249B9C4666440396632D1BD981
:10157000B446AD4BAD4E9A46B046023C644428009A
:10158000642107F0BDFB28004F00642107F0B8FB81
:101590004346DB195B782E0063704346DB5D050034
:1015A0002370023C5645EAD8092D00D88CE09F4BA9
:1015B0006D005A19527803995D5D4A70039B20A90A
:1015C0001D701F9C259A1E9BA0188B4200D1A4E081
:1015D0002099884200D87AE02499494500D1B8E0A2
:1015E000269DA84200D880E01EA80DF02DFB070024
:1015F0002CAE2A960368083704002AADBB4200D1FE
:1016000093E02A938368AB60636829006B600023D2
:1016100027606360237230A8FFF788FB2A98B042E6
:1016200003D0A96801310BF0E7FE2498484503D0A8
:10163000269901310BF0E0FE1E9820AB984203D0B2
:10164000209901310BF0D8FE1898049B984204D0E1
:101650005B46996801310BF0CFFE129814AB9842AB
:1016600003D0149901310BF0C7FE0C980EAB9842D1
:1016700003D00E9901310BF0BFFE069808AB9842DB
:1016800003D0089901310BF0B7FE309832AB984285
:1016900003D0329901310BF0AFFE37B0F0BCBB463E
:1016A000B246A946A046F0BD5A46604E6D00731979
:1016B0005B78755D53703AE64A465C4E6D0073196F
:1016C0005B78755D5370B1E63035EDB276E72499FD
:1016D0008AE71299C1E65C1D3BE75C1D78E65C1D5C
:1016E000F8E59C1DF6E59C1D72E6002200210094A1
:1016F00024A80DF0E5F97AE700220021009412A851
:101700000DF0DEF9ACE69C1D23E7DC1D60E6DC1D78
:101710001FE7DC1DDEE50F2193E60F2159E71022BC
:1017200029000EA807F042FF1CE610223900300005
:1017300007F03CFF68E71022290020A807F036FFD9
:10174000BCE610222900049807F030FF98E60F2528
:1017500080E60F2545E701243AE60124BAE5012495
:10176000F7E60224F5E60224B4E5022430E6032479
:101770002EE604242CE60424ACE50324E9E6042444
:10178000E7E60324A6E52A480CF064FF28480CF09D
:1017900061FF069808AB984203D0089901310BF01D
:1017A0002BFE309832AB984203D0329901310BF0C6
:1017B00023FE0BF0C9FE2A98B04203D0A96801317C
:1017C0000BF01AFE2498484503D0269901310BF0FE
:1017D00013FE1E9820AB984203D0209901310BF0E4
:1017E0000BFE1898049B984204D05B46996801311F
:1017F0000BF002FE129814AB984203D014990131F9
:101800000BF0FAFD0C980EAB9842C2D00E99013144
:101810000BF0F2FDBDE7C4E7DBE7F3E7D2E7E9E76A
:10182000DFE7C046102700000F270000387B0110BB
:101830001C7B0110F0B5DE46454657464E46E0B5E6
:101840008FB008AB9B460AAB0893544B02AA138493
:1018500002235A46536000239372C30F0193C317A8
:10186000C5185D40092D00D87CE0632D00D87BE0D1
:10187000FA239B009D4200D27AE0494B9D4200D85A
:1018800074E0484B28009846474B01249946474B43
:10189000474F9A4605E046455ED94E455ED95645C6
:1018A0005ED94449060007F02BFA23000434BE42F7
:1018B000F1D8019E04AB2D22311902A802930CF03D
:1018C000EDFF029B9C466644B246632D1AD93A4B03
:1018D000023C9846324B544499462800642107F054
:1018E0000FFA28004E00642107F00AFA43469B19BC
:1018F0005B782F00637043469B5D05002370023CBC
:101900004F45EAD8092D1FD83035EDB25346584619
:101910001D7002A9FFF70AFA029804AB984203D09F
:10192000049901310BF068FD08980AAB984204D085
:101930005B46996801310BF05FFD0FB0F0BCBB4610
:10194000B246A946A046F0BD51461B4B6D005A1940
:1019500052785D5D4A70D9E75C1DAAE79C1DA8E737
:10196000DC1DA6E70124A4E70224A2E70424A0E7E3
:1019700003249EE7029804AB984203D004990131F6
:101980000BF03AFD08980AAB984204D05B46996880
:1019900001310BF031FD0BF0D7FDF3E7636200007E
:1019A0000F2700003F420F007F969800FFE0F505EB
:1019B0009F86010010270000387B0110034B1A009E
:1019C00008321A6000225A601A72704754240020AC
:1019D0007047C046C06810B5002802D00368DB69B4
:1019E000984710BD0020704710B5040010210BF07F
:1019F00003FD200010BDC04610B510210BF0FCFC0B
:101A000010BDC04610B50400024B03600BF00CFF84
:101A1000200010BDD07D011010B50400044B036000
:101A20000BF002FF200004210BF0E6FC200010BDAB
:101A3000D07D011010B50400024B03600BF0EEFAEC
:101A4000200010BDA87D011010B50400044B0360F8
:101A50000BF0E4FA200020210BF0CEFC200010BD9A
:101A6000A87D011070B5041E1FD02600E068FFF7A6
:101A7000F9FFB569A468002D11D06B68013B6B605C
:101A8000002B0CD12B6828009B689847AB68013B62
:101A9000AB60002B03D12B682800DB6898471C2122
:101AA00030000BF0A9FC002CDFD170BDF0B5C646AC
:101AB00000B5244E84B0244930000AF0E1FE032131
:101AC000022003F011FF0321032003F00DFF002289
:101AD0000121022003F020FF00220121032003F056
:101AE0001BFF1A4B012500249846194F07E05C2C78
:101AF0001AD0682C1FD0802D20D0013401357823D6
:101B00001A0022402342F6D0782AF4D000230F2274
:101B100000933000E1B201336A440AF043FF002829
:101B200004DCE8D1232CE2D13C60E6E7210009483F
:101B300007F0E8FFF6E743461C60DEE704B080BC30
:101B4000B846F0BD68190020A086010040140020AE
:101B50003C140020047C0110F0B5184E85B03168AB
:101B6000002927DB01250023154F03AC2370220039
:101B7000C9B20133380000950AF0ACFE3178012378
:101B800022002570380000950AF0A4FE0723317862
:101B900023702200063B380000950AF09BFE1323B9
:101BA00031782370220038000095123B0AF092FE33
:101BB00005B0F0BD034807F0A5FFF9E73C1400208D
:101BC00068190020187C011070B5294C294D236834
:101BD000294E9A002868925984B0821A2A60274AAE
:101BE000116800291FDB002303AA00932448023355
:101BF000C9B20AF0D7FE6B466A461B7B527B0028AF
:101C00002FDD1802801807F04FFB1E4A1E4B07F00D
:101C1000C4FA07F061FB23689A0000281CDB90518E
:101C20002A6894466044013328601D2B00DD0023A0
:101C30001E21236007F03CF8FF23142200930021AB
:101C4000FA3BFEF7F9FB052802DA052004B070BD67
:101C5000FF28FBDDFF20F9E790592A68944660448D
:101C6000E1E723689A0090592A6894466044DAE7CD
:101C7000FC2F0020302A0020003000203C140020DF
:101C8000681900203333333333330340F0B5C6468D
:101C90000022002300B586B00292039300230700C0
:101CA00002AA08004D490493FEF7B8FC029B0026E7
:101CB0009846039B00250193434563D0802138005B
:101CC0000BF0B2F8039B02990193581AC0108300DD
:101CD0001B181A019B181A029B181A049A18520012
:101CE0001218AA425ED900241DE00B680022195D7B
:101CF00038000023303903F0D9FDFA20800004F0C9
:101D000045FD039B029901935B1ADB109A00D218E0
:101D10001001121810021218100412185200D218D2
:101D20000134AA423ED989194B68A342DDD80A2161
:101D300038000BF079F8FA20C00004F027FD039B6F
:101D4000029C98461A1BD21093009B1819015B182D
:101D500019025B1819045B185B0001359B181836D3
:101D6000AB42ABD844450DD02300206808339842DD
:101D700014D0A3681834591C0BF03EFBA045F3D1D6
:101D8000029B98464346002B04D004994046C91A4A
:101D90000BF032FB06B080BCB846F0BD1834A0454D
:101DA000E2D1EDE729000E480CF06CFC029C039D8B
:101DB000A54208D102980499091A002801D00BF015
:101DC0001BFB0BF0C1FB230020680833984203D0B3
:101DD000A368591C0BF010FB1834E9E7CCA00110E4
:101DE000487A0110F0B546464F46D6468468031D32
:101DF000C0B5884606009946002C67D04D460B6852
:101E000003E02500A468002C05D022699342F8D98C
:101E1000E468002CF9D1A94558D02A6993422DD203
:101E20002C200CF041F943461B68846203619846FC
:101E300003001833036243622B6907009A46047655
:101E4000C461434521D9F3689A46AB420BD02800C0
:101E50000CF0FAFA03690400434500D38BE0C36831
:101E6000002B00D176E02C003D0001204B462200E3
:101E700029000CF005FB73690133736128001430ED
:101E8000E0BCBA46B146A846F0BDC24516D2336999
:101E9000AB4209D028000CF0C1FA036904004345A5
:101EA0005AD9EB68002BDFD12C003D002AE023003B
:101EB000002945D190453ED82F0025000020FFF78E
:101EC000D1FD2C2138000BF097FAD7E72C200CF02D
:101ED000EBF843461B680200984603610023037633
:101EE000C361836273691832050002624262002B8B
:101EF0000CD034692369434508D20120A145B5D0EF
:101F000023699A46D04580414042AFE7B468002C2F
:101F100005D114E00121A368002BC8D01C00226960
:101F20004245F7D80021E368F6E72B00002932D1BB
:101F30009045C3D93D00002B41D01C00DDE74C4645
:101F4000F368A342D9D020000CF07EFA2300026986
:101F50000400AFE73D00D0E7B568002D05D12CE0C7
:101F60000121AB68002B1FD01D002A699045F7D3D3
:101F70000021EB68F6E7B568002D05D10AE00121E4
:101F8000AB68002BD1D01D002A694245F7D800214B
:101F9000EB68F6E74D46AA450CD028000CF054FA41
:101FA0002B0002690500C3E72B000029C0D0F368AD
:101FB000AB42F2D12B003D00BDE74D46F7E72F00C5
:101FC00000257BE770B504680500002C11D063681C
:101FD000013B6360002B0CD1236820009B6898476D
:101FE000A368013BA360002B03D123682000DB68BA
:101FF0009847280070BDC046F0B5DE4645465746B6
:102000004E46E0B5A3B007F089FD192003F09CFC13
:10201000D02380221B0692045A625A61FEF76CFE9E
:10202000FA20C00004F0B2FB16ADD24807F06AFDFA
:10203000FEF7F8F92A00D04B149503CB03C208230E
:102040001593002314AC20002374FEF75FF9149855
:10205000A84203D0A368591C0BF0CEF9FFF726FD68
:10206000FFF77AFD0023C54F09AD29003800099319
:10207000FFF7B8FE8368061D002B09D01A009B6885
:10208000002BFBD1964203D01369002B00D16FE1E6
:1020900029003800FFF7A6FE0430864200D020E277
:1020A00020200CF001F80023049303330393023B38
:1020B000029301330193713300930022B049633BD3
:1020C00006000BF03FF8002310200E960F930BF044
:1020D000EBFF012343608360AA4BC66003600F904F
:1020E00029003800FFF77EFE8368021D0700914635
:1020F000002B00D193E11E009B68002BFBD1B14562
:1021000002D03369002B14D01C200BF0CDFF00232C
:1021100080460361436183614E4500D159E13369D3
:10212000002B00D042E14046B0461C210BF064F980
:1021300046460E9BB76973610F9B9846BB4218D009
:10214000002B03D042465B6801335360002F0ED052
:102150007B68013B7B60002B09D13B6838009B68A2
:102160009847BB68013BBB60002B00D141E143466F
:10217000B3610F9B0E990F9A14911592002B02D008
:102180005A6801325A6021000BA80AF027FE15A8F0
:10219000FFF718FF0FA8FFF715FFD02380221B06BB
:1021A00092049A61784B794F9846794B994628006A
:1021B000FEF73CF90523EB5606269B460723EB5614
:1021C000AE579A463B689A4506D053463200594668
:1021D0000BA83B6003F06AFB43461B68B34206D082
:1021E00043465246310058461E60FFF72DF84B46D5
:1021F0001868002856D0674B674E1A6830608242D4
:1022000006D01860FFF716FB31780BA80AF00CFE19
:102210002000FEF7AFFC2378002B2CD0E269616828
:102220005E4807F06FFC5E4915A80CF037FD0028EA
:102230003BD110AB9A460E93E369266A9B46002B6E
:1022400075D008960F2E63D8012E00D08AE0382171
:102250001B7802AA52181370524600230F960EA83C
:102260009355FEF753F80E98504504D0109B591C17
:1022700007930BF0C1F8642004F088FAE0691DAB05
:10228000984203D0636A591C0BF0B6F8606817AB2C
:1022900098428CD0E368591C0BF0AEF82800FEF78A
:1022A000C5F887E7FFF790FCA5E73E4915A80CF0B5
:1022B000F5FC00280AD1E06913F052FC00283BDB52
:1022C000FF2800DDFF204B461860D4E7364915A8EB
:1022D0000CF0E4FC0028CED110AB9A460E93E369D3
:1022E000266A9B46002B38D008960F2E26D8012E42
:1022F00000D08EE038211B7802AA52181370524683
:1023000000230F960EA993550BA8FFF7BFFCAAE771
:10231000002208A90EA80CF0A3FA089B0E901093B7
:102320003200594607F042F9089E0E9A95E7002EB2
:1023300000D095E0524690E70020C4E7002208A9AB
:102340000EA80CF08DFA089B0E901093320059469F
:1023500007F02CF9089E0E9AD2E7002E00D07CE000
:102360005246CDE75246002E00D176E75046D7E7D9
:1023700016008DE62C7C0110347C01106C240020AA
:1023800000002050E47D0110441400204814002077
:10239000602B0020DC2F002038140020407C01102E
:1023A000209F0110507C0110547C0110F9688E426E
:1023B00024D001224E469446BB6803E062469868EA
:1023C0001E000300002B37D01A69002AF6D1D86806
:1023D000F6E7BE689E423ED0012104E00A00B368E1
:1023E000002B1ED01E003369002BF7D10022F368AA
:1023F000F6E73B683800DB689847B8E601204B46B3
:10240000320041460CF03CF87B69464601337B6163
:102410008FE65246002E00D172E7504696E716002E
:1024200072E6002A00D17EE6FB68B3420CD0300091
:102430000CF00AF8060076E6002A00D173E6B142F5
:10244000F5D1002E00D16EE6B145D7D03069431EDC
:102450009841C0B2D3E74E46E6E72E480CF0E2F8CA
:102460002C480CF0DFF80E98504503D0109901313C
:102470000AF0C2FFE0691DAB984203D0636A591CA1
:102480000AF0BAFF606817AB984209D10BA80AF0AE
:10249000B1FC0BF059F80FA8FFF794FD0BF054F8BE
:1024A000E16801310AF0A8FFF0E71498A842F0D0E3
:1024B000A16801310AF0A0FFEBE70BF033F930001F
:1024C000FFF7C2FA0BF0B8FD0BF066F90BF03CF821
:1024D000202130000AF090FF0BF036F8C3E7C9E77F
:1024E000D4E704200AF0F2FF040004200BF0DCFD26
:1024F000094B206003600022200008490BF082FD98
:1025000015A8FFF75FFDC6E720000AF0F5FF0BF006
:102510001BF8C046B07A0110D07D01103C7D01103F
:102520000022044B191D1A719A60D96019615A6111
:102530007047C0466C24002010B52B2182B00400E7
:1025400006F0DEFBC2B28006801A80008018800090
:102550008018800080180019FF244300C3185B0016
:10256000DBB21902C91A0912611A0802E31A401AE9
:102570001902CB1A1B12E31A1902CB1A00121B12F2
:10258000C0B2DBB2042A36D81E4992008A58974658
:102590000023FF2101AA137050709170D3705378FB
:1025A000107891781B021843D37809041B0608435E
:1025B000184302B010BD01AAFF21137000239170CF
:1025C0005370D370EBE701AAFF2153700023117001
:1025D0009370D370E3E7FF2301AA537000231070B8
:1025E0009370D370DBE70021FF2001AA11705070B7
:1025F0009370D170D3E7002301AA147053709070C8
:10260000D370CCE7F87D0110F0B5DE4657464E4654
:102610004546E0B50F008BB082463C21100099463C
:1026200006F046FBBB1EDBB200933B00093BDBB26E
:1026300001933B00173B8C00DBB203932300200087
:10264000B4213F33DBB27E3049009B4606F030FBBD
:10265000BE00CBB2F6190293E3B29846F3002F4EB8
:102660009C192836F61802E00434B44222D02568BA
:10267000002DF9DB4D44012F23D9152F21D0009BCC
:10268000062B29D85846FFF757FF010A030C07907D
:10269000C2B2C9B2DBB2000E09020A431B04000633
:1026A0001A43024329005046043405920AF0C2FB43
:1026B000B442DCD10BB0F0BCBB46B246A946A04642
:1026C000F0BD4046FFF738FF010A030C0690C2B286
:1026D000C9B2DBB2000EDFE7019B0D2B0DD9039BC6
:1026E000032B15D85846FFF727FF010A030C099062
:1026F000C2B2C9B2DBB2000ECEE70298FFF71CFFF0
:10270000010A030C0890C2B2C9B2DBB2000EC3E7E3
:102710008020802380218022BEE7C0464C14002008
:10272000F0B557464546DE464E46E0B588460500BC
:1027300005211000C7B091469A4606F0B9FA0F1E5F
:1027400001DD00F0A3FDDC4C3C21504606F0B0FA60
:1027500023688E009B46F7B2002B0ADB3800FFF798
:10276000EBFE594602000A900990013128000AF058
:1027700061FB63689B46002B0ADB3800FFF7DCFE39
:10278000594602000A900990013128000AF052FBD4
:10279000A3689B46002B0ADB3800FFF7CDFE5946A5
:1027A00002000A900990013128000AF043FBE36817
:1027B0009B46002B0ADB3800FFF7BEFE594602009D
:1027C0000A900990013128000AF034FB23699B46E6
:1027D000002B0ADB3800FFF7AFFE594602000A90D3
:1027E0000990013128000AF025FB63699B46002B04
:1027F0000ADB3800FFF7A0FE594602000A90099054
:10280000013128000AF016FBA3699B46002B0ADB66
:102810003800FFF791FE594602000A9009900131F5
:1028200028000AF007FBE3699B46002B0ADB38000F
:10283000FFF782FE594602000A90099001312800F4
:102840000AF0F8FA236A9B46002B0ADB3800FFF7F0
:1028500073FE594602000A900990013128000AF0DF
:10286000E9FA636A9B46002B0ADB3800FFF764FE37
:10287000594602000A900990013128000AF0DAFA5C
:10288000A36A9B46002B0ADB3800FFF755FE59462A
:1028900002000B900890013128000AF0CBFAE36A9D
:1028A0009B46002B0ADB3800FFF746FE5946020024
:1028B0000B900890013128000AF0BCFA236B9B466C
:1028C000002B0ADB3800FFF737FE594602000B9059
:1028D0000890013128000AF0ADFA636B9B46002B8B
:1028E0000ADB3800FFF728FE594602000B900890DB
:1028F000013128000AF09EFAA36B9B46002B0ADBED
:102900003800FFF719FE594602000B90089001317C
:1029100028000AF08FFAE36B9B46002B0ADB380095
:10292000FFF70AFE594602000B900890013128007B
:102930000AF080FA236C9B46002B0ADB3800FFF775
:10294000FBFD594602000B900890013128000AF067
:1029500071FA636C9B46002B0ADB3800FFF7ECFD35
:10296000594602000B900890013128000AF062FAE3
:10297000A36C9B46002B0ADB3800FFF7DDFD5946B0
:1029800002000B900890013128000AF053FAE36C22
:102990009B46002B0ADB3800FFF7CEFD59460200AC
:1029A0000B900890013128000AF044FA4B461E2B88
:1029B00005DD40461821013006F07AF98846434685
:1029C000002B00D10BE10C2B00D108E1012B00D131
:1029D000A1E30D2B00D19EE3022B01D101F046FDB6
:1029E0000E2B01D101F042FD032B01D102F06CF856
:1029F0000F2B01D102F068F8042B01D101F0AEFFDA
:102A0000102B01D101F0AAFF052B01D102F032FBFE
:102A1000112B01D102F02EFB062B01D102F066FC36
:102A2000122B01D102F062FC072B01D102F014FD40
:102A3000132B01D102F010FD082B01D102F0C2FDD1
:102A4000142B01D102F0BEFD092B01D102F070FE62
:102A5000152B01D102F06CFE0A2B01D102F01EFFF2
:102A6000162B01D102F01AFF0B2B01D0172B05D129
:102A70000123524614212800FFF7C6FD05235B42BF
:102A80004B449846132B00D809E14B46233B042BBB
:102A900000D841E24B46193B042B01D801F004FB5E
:102AA0004B46283B122B01D801F0ABFB4B46042BC5
:102AB00001D801F03BFA01E04C1400204B460F3BDB
:102AC000042B00D97BE2C823E7583F36F6B2002F2B
:102AD00009DB3000FFF730FD791C020031903090A7
:102AE00028000AF0A7F9CC23E758002F09DB3000B3
:102AF000FFF722FD791C02003190309028000AF087
:102B000099F9D023E758002F09DB3000FFF714FDB7
:102B1000791C02003190309028000AF08BF9D42300
:102B2000E758002F09DB3000FFF706FD791C020093
:102B30003190309028000AF07DF9D823E758002F13
:102B400009DB3000FFF7F8FC791C0200319030906F
:102B500028000AF06FF9DC23E758002F09DB30006A
:102B6000FFF7EAFC791C02003190309028000AF04F
:102B700061F9E023E758002F09DB3000FFF7DCFCA8
:102B8000791C02003190309028000AF053F9E423B8
:102B9000E758002F09DB3000FFF7CEFC791C02005C
:102BA0003190309028000AF045F9E823E758002FCB
:102BB00009DB3000FFF7C0FC791C02003190309037
:102BC00028000AF037F9EC23E458002C00DBA0E2DF
:102BD00047B0F0BCBB46B246A946A046F0BDB42102
:102BE000300049007E3006F063F8CBB29846B4233B
:102BF0009B00E3589A46002B00DB7AE1B5239B004B
:102C0000E3589A46002B00DB60E1B6239B00E358B3
:102C10009A46002B00DB46E1B7239B00E3589A4617
:102C2000002B00DB2CE1B8239B00E3589A46002BD5
:102C300000DB12E1B9239B00E3589A46002B00DB2E
:102C4000F8E0BA239B00E3589A46002B00DBDEE055
:102C5000BB239B00E3589A46002B00DBC4E0BC2357
:102C60009B00E3589A46002B00DBAAE0BD239B00A3
:102C7000E3589A46002B00DA00E74046FFF75CFC79
:102C8000514602000D900C90013128000AF0D2F854
:102C900005235B424B449846132B00D9F5E68C2361
:102CA00037005B00E3583F379A46FFB2002B01DB49
:102CB00000F006FE8E235B00E3589A46002B01DBF2
:102CC00000F0EAFD90235B00E3589A46002B01DBFD
:102CD00000F0CEFD92235B00E3589A46002B01DB07
:102CE00000F0B2FD94235B00E3589A46002B01DB11
:102CF00000F096FD96235B00E3589A46002B01DB1B
:102D000000F07AFD98235B00E3589A46002B01DB24
:102D100000F05EFD9A235B00E3589A46002B01DB2E
:102D200000F042FD9C235B00E3589A46002B01DB38
:102D300000F026FD9E235B00E3589A46002B01DB42
:102D400000F011FD4346042B01D900F0A2FC266DD2
:102D5000002E01DB00F0F7FC666D002E01DB00F0B9
:102D6000E2FCA66D002E01DB00F0ADFEE66D002E4C
:102D700001DB00F098FE266E002E01DB00F083FEE2
:102D8000666E002E01DB00F06EFEA66E002E01DBEB
:102D900000F0B9FEE66E002E01DB00F0A4FE266F07
:102DA000002E01DB00F0AEFC646F002C00DA0FE7B0
:102DB0003800FFF7C1FB611C020028000AF03AF856
:102DC00006E74046FFF7B8FB514602000D900C9015
:102DD000013128000AF02EF8BD239B00E3589A46E3
:102DE000002B00DA4AE648E74046FFF7A5FB5146CC
:102DF00002000D900C90013128000AF01BF8BC2352
:102E00009B00E3589A46002B00DA2FE7D9E74046AB
:102E1000FFF792FB514602000D900C900131280003
:102E20000AF008F8BB239B00E3589A46002B00DA0F
:102E300015E7D9E74046FFF77FFB514602000D90AA
:102E40000C900131280009F0F5FFBA239B00E358EC
:102E50009A46002B00DAFBE6D9E74046FFF76CFB09
:102E6000514602000D900C900131280009F0E2FF5C
:102E7000B9239B00E3589A46002B00DAE1E6D9E734
:102E80004046FFF759FB514602000D900C9001316E
:102E9000280009F0CFFFB8239B00E3589A46002B87
:102EA00000DAC7E6D9E74046FFF746FB5146020085
:102EB0000D900C900131280009F0BCFFB7239B0056
:102EC000E3589A46002B00DAADE6D9E74046FFF713
:102ED00033FB514602000D900C900131280009F09F
:102EE000A9FFB6239B00E3589A46002B00DA93E62D
:102EF000D9E74046FFF720FB514602000D900C90A9
:102F00000131280009F096FFB5239B00E3589A464B
:102F1000002B00DA79E6D9E78C2337005B00E35811
:102F20003F379846FFB2002B01DB00F0B9FE8E233D
:102F30005B00E3589846002B01DB00F0CBFE9023AA
:102F40005B00E3589846002B01DB00F0B6FE9223AD
:102F50005B00E3589846002B01DB00F016FF94233A
:102F60005B00E3589846002B01DB00F001FF96233D
:102F70005B00E3589846002B01DB00F0ECFE982341
:102F80005B00E3589846002B01DB00F0D7FE9A2344
:102F90005B00E3589846002B01DB00F0C2FE9C2347
:102FA0005B00E3589846002B01DB00F0ADFE9E234A
:102FB0005B00E3589846002B01DB00F098FE4B467F
:102FC000143B042B01D801F0C9F94B46193B042BE3
:102FD00001D800F0FFFF4B461E3B042B01D801F047
:102FE00029FE4B46233B042B01D801F0B0FE4B4693
:102FF000283B042B01D801F02FFC4B462D3B042B22
:1030000001D801F0B3FF4B46323B042B01D802F04C
:10301000E7F84A46373A042A00D9D9E5276D3F3602
:10302000F6B2002F09DB3000FFF786FA791C0200A8
:1030300045904490280009F0FDFE676D002F09DBE4
:103040003000FFF779FA791C02004590449028007F
:1030500009F0F0FEA76D002F09DB3000FFF76CFAD6
:10306000791C020045904490280009F0E3FEE76DCA
:10307000002F09DB3000FFF75FFA791C0200459052
:103080004490280009F0D6FE276E002F09DB30009F
:10309000FFF752FA791C020045904490280009F08D
:1030A000C9FE676E002F09DB3000FFF745FA791C77
:1030B000020045904490280009F0BCFEA76E002F46
:1030C00009DB3000FFF738FA791C02004590449084
:1030D000280009F0AFFEE76E002F09DB3000FFF794
:1030E0002BFA791C020045904490280009F0A2FEBA
:1030F000276F002F09DB3000FFF71EFA791C020052
:1031000045904490280009F095FE646F002C00DA89
:103110005EE530004DE6B42130004B4649007E307C
:10312000042B01D900F0FFFC05F0C2FDCBB298469C
:10313000DC239B00E3589A46002B0ADB4046FFF74E
:10314000FBF9514602000F900E900131280009F062
:1031500071FEDD239B00E3589A46002B0ADB4046B4
:10316000FFF7EAF9514602000F900E900131280056
:1031700009F060FEDE239B00E3589A46002B0ADB31
:103180004046FFF7D9F9514602000F900E900131E9
:10319000280009F04FFEDF239B00E3589A46002BDE
:1031A0000ADB4046FFF7C8F9514602000F900E9027
:1031B0000131280009F03EFEE0239B00E3589A46C7
:1031C000002B0ADB4046FFF7B7F9514602000F908B
:1031D0000E900131280009F02DFEE1239B00E358F9
:1031E0009A46002B0ADB4046FFF7A6F9514602003B
:1031F0000F900E900131280009F01CFEE2239B0085
:10320000E3589A46002B0ADB4046FFF795F95146F2
:1032100002000F900E900131280009F00BFEE3230D
:103220009B00E3589A46002B0ADB4046FFF784F9DF
:10323000514602000F900E900131280009F0FAFD6E
:10324000E4239B00E3589A46002B0ADB4046FFF735
:1032500073F9514602000F900E900131280009F0D9
:10326000E9FDE5239B00E3589A46002B01DAFFF7BE
:1032700011FC4046FFF760F9514602000F900E9096
:103280000131280009F0D6FDFFF704FC3C2150462F
:1032900005F00EFDE623E44C9B00E3588E003F361C
:1032A0009B46F6B2002B0ADB3000FFF745F9594682
:1032B0000200019000900131280009F0BBFDE723D6
:1032C0009B00E3589B46002B0ADB3000FFF734F9E4
:1032D00059460200019000900131280009F0AAFD32
:1032E000E8239B00E3589B46002B0ADB3000FFF7E6
:1032F00023F959460200019000900131280009F09D
:1033000099FDE9239B00E3589B46002B0ADB300024
:10331000FFF712F959460200019000900131280090
:1033200009F088FDEA239B00E3589B46002B0ADB4B
:103330003000FFF701F95946020001900090013179
:10334000280009F077FDEB239B00E3589B46002BF8
:103350000ADB3000FFF7F0F85946020001900090B8
:103360000131280009F066FDEC239B00E3589B46E1
:10337000002B0ADB3000FFF7DFF85946020001900E
:1033800000900131280009F055FDED239B00E35822
:103390009B46002B0ADB3000FFF7CEF859460200AF
:1033A000019000900131280009F044FDEE239B00BC
:1033B000E3589B46002B0ADB3000FFF7BDF8594667
:1033C0000200019000900131280009F033FDEF2345
:1033D0009B00E3589B46002B0ADB3000FFF7ACF85C
:1033E00059460200019000900131280009F022FDA9
:1033F000012F01D1FFF7A8F9F0239B00E3589B466A
:10340000002B0ADB3000FFF797F8594602000390C3
:1034100002900131280009F00DFDF1239B00E358D3
:103420009B46002B0ADB3000FFF786F85946020066
:10343000039002900131280009F0FCFCF2239B006C
:10344000E3589B46002B0ADB3000FFF775F859461E
:103450000200039002900131280009F0EBFCF323F5
:103460009B00E3589B46002B0ADB3000FFF764F813
:1034700059460200039002900131280009F0DAFC5D
:10348000F4239B00E3589B46002B0ADB3000FFF738
:1034900053F859460200039002900131280009F0C8
:1034A000C9FCF5239B00E3589B46002B0ADB300048
:1034B000FFF742F8594602000390029001312800BC
:1034C00009F0B8FCF6239B00E3589B46002B0ADB6F
:1034D0003000FFF731F859460200039002900131A5
:1034E000280009F0A7FCF7239B00E3589B46002B1C
:1034F0000ADB3000FFF720F85946020003900290E3
:103500000131280009F096FCF8239B00E3589B4604
:10351000002B0ADB3000FFF70FF85946020003903A
:1035200002900131280009F085FCF9239B00E35843
:103530009B46002B0ADB3000FEF7FEFF59460200D7
:10354000039002900131280009F074FC022F01D190
:10355000FFF7FAF8FA239B00E3589B46002B00DBA9
:103560006EE2FB239B00E3589B46002B00DB54E2FA
:10357000FC239B00E3589B46002B00DB3AE2FD2333
:103580009B00E3589B46002B00DB16E2FE239B00CA
:10359000E3589B46002B00DBFCE1FF239B00E35834
:1035A0009B46002B00DBE2E18023DB00E3589B46D7
:1035B000002B00DBC9E11D4BE3589B46002B00DBD1
:1035C000B0E18123DB00E3589B46002B00DB97E151
:1035D000174BE3589B46002B00DB85E1042F01D0FD
:1035E000FFF7B2F88223DB00E758002F01DB00F081
:1035F00061FC104BE758002F01DB00F04FFC8323E8
:10360000DB00E758002F01DB00F084FC0A4BE75891
:10361000002F01DB00F072FC8423DB00E758002F51
:1036200001DB00F05FFC09E04C1400200404000002
:103630000C040000140400001C040000E84BE758D0
:10364000002F01DB00F042FC8523DB00E758002F50
:1036500001DB00F017FCE34BE758002F01DB00F023
:1036600005FC8623DB00E758002F00DBF2E3DE4B8E
:10367000E758002F01DAFFF767F83000FEF75CFF2C
:10368000791C020007900690280009F0D3FBFFF791
:103690005BF84B460A3B042B01D9FFF70FFAA66FE4
:1036A000002E00DBF1E2E66F002E00DBC7E3802393
:1036B000E658002E00DBB7E38423E658002E00DB3B
:1036C000A7E38823E658002E00DB97E38C23E65817
:1036D000002E00DB87E39023E658002E00DB77E323
:1036E0009423E658002E00DB67E39823E658002E6B
:1036F00000DB57E39C23E458002C01DAFFF768FA5B
:10370000FFF756FB3800FEF717FF711C02002D90E3
:103710002C90280009F08EFB646F002C01DAFFF773
:1037200057FAFFF745FB3800FEF706FF711C020051
:103730002D902C90280009F07DFBA66D002E01DA5B
:10374000FFF714FBBFE13800FEF7F6FE711C020024
:103750002D902C90280009F06DFB666D002E01DA8B
:10376000FFF7FFFADFE73800FEF7E6FE51460200FA
:10377000239022900131280009F05CFBFFF7E2FA68
:103780003800FEF7D9FE5146020023902290013105
:10379000280009F04FFB9E235B00E3589A46002B5C
:1037A00001DAFFF7CFFADEE73800FEF7C5FE514633
:1037B0000200239022900131280009F03BFB9C235A
:1037C0005B00E3589A46002B01DAFFF7B3FAD7E71C
:1037D0003800FEF7B1FE51460200239022900131DD
:1037E000280009F027FB9A235B00E3589A46002B38
:1037F00001DAFFF797FAD7E73800FEF79DFE51464A
:103800000200239022900131280009F013FB982335
:103810005B00E3589A46002B01DAFFF77BFAD7E703
:103820003800FEF789FE51460200239022900131B4
:10383000280009F0FFFA96235B00E3589A46002B14
:1038400001DAFFF75FFAD7E73800FEF775FE514659
:103850000200239022900131280009F0EBFA942312
:103860005B00E3589A46002B01DAFFF743FAD7E7EB
:103870003800FEF761FE514602002390229001318C
:10388000280009F0D7FA92235B00E3589A46002BF0
:1038900001DAFFF727FAD7E73800FEF74DFE514669
:1038A0000200239022900131280009F0C3FA9023EE
:1038B0005B00E3589A46002B01DAFFF70BFAD7E7D3
:1038C0003800FEF739FE5146020023902290013164
:1038D000280009F0AFFA8E235B00E3589A46002BCC
:1038E00001DAFFF7EFF9D7E73000FEF725FE59467A
:1038F0000200059004900131280009F09BFA6DE662
:103900003000FEF719FE594602000590049001317F
:10391000280009F08FFA354BE3589B46002B00DA5C
:103920005CE6E1E73000FEF707FE5946020005902D
:1039300004900131280009F07DFA8123DB00E3586F
:103940009B46002B00DA43E6DAE73000FEF7F4FD91
:1039500059460200059004900131280009F06AFAE6
:10396000234BE3589B46002B00DA2AE6DAE73000C7
:10397000FEF7E2FD5946020005900490013128004F
:1039800009F058FA8023DB00E3589B46002B00DA4D
:1039900011E6DAE73000FEF7CFFD59460200059048
:1039A00004900131280009F045FAFF239B00E358F9
:1039B0009B46002B00DAF7E5D9E73000FEF7BCFDA7
:1039C00059460200059004900131280009F032FAAE
:1039D000FE239B00E3589B46002B00DADDE5D9E788
:1039E000240400002C040000340400000C04000037
:1039F000040400003000FEF79FFD594602000590C8
:103A000004900131280009F015FAFD239B00E358CA
:103A10009B46002B00DAB9E5CFE73000FEF78CFDBE
:103A200059460200059004900131280009F002FA7D
:103A3000FC239B00E3589B46002B00DA9FE5D9E767
:103A40003000FEF779FD59460200059004900131DF
:103A5000280009F0EFF9FB239B00E3589B46002B5D
:103A600000DA85E5D9E73800FEF766FD711C020033
:103A70002D902C90280009F0DDF9A66E002E01DAB9
:103A8000FFF788F93FE03800FEF756FD711C020091
:103A90002D902C90280009F0CDF9666E002E01DAE9
:103AA000FFF773F9DFE73800FEF746FD711C0200EF
:103AB0002D902C90280009F0BDF9266E002E01DA19
:103AC000FFF75EF9DFE73800FEF736FD711C0200F4
:103AD0002D902C90280009F0ADF9E66D002E01DA4A
:103AE000FFF749F9DFE73800FEF726FD711C0200F9
:103AF0002D902C90280009F09DF9266F002E01DAF8
:103B0000FFF752F9FEE53800FEF716FD711C0200C2
:103B10002D902C90280009F08DF9E66E002E01DA28
:103B2000FFF73DF9DFE705F0C3F8CBB29846DC2399
:103B30005B00E3589A46002B0ADB4046FEF7FCFC8C
:103B400051460200119010900131280009F072F9DD
:103B5000DE235B00E3589A46002B0ADB4046FEF763
:103B6000EBFC51460200119010900131280009F041
:103B700061F9E0235B00E3589A46002B0ADB4046DC
:103B8000FEF7DAFC51460200119010900131280036
:103B900009F050F9E2235B00E3589A46002B0ADB58
:103BA0004046FEF7C9FC51460200119010900131C9
:103BB000280009F03FF9E4235B00E3589A46002B04
:103BC0000ADB4046FEF7B8FC514602001190109007
:103BD0000131280009F02EF9E6235B00E3589A46EC
:103BE000002B0ADB4046FEF7A7FC5146020011906D
:103BF00010900131280009F01DF9E8235B00E3581B
:103C00009A46002B0ADB4046FEF796FC514602001E
:103C1000119010900131280009F00CF9EA235B00A3
:103C2000E3589A46002B0ADB4046FEF785FC5146D6
:103C30000200119010900131280009F0FBF8EC23EC
:103C40005B00E3589A46002B0ADB4046FEF774FC03
:103C500051460200119010900131280009F0EAF855
:103C6000EE235B00E3589A46002B01DAFEF706FFCD
:103C70004046FEF761FC5146020011901090013160
:103C8000280009F0D7F8FEF7F9FE3800FEF754FCDB
:103C9000711C02002F902E90280009F0CBF802E54D
:103CA0003800FEF749FC414602002590249001317E
:103CB000280009F0BFF8FFF73AF93800FEF73CFC9E
:103CC00041460200259024900131280009F0B2F805
:103CD000FFF73DF93800FEF72FFC41460200259022
:103CE00024900131280009F0A5F8FFF728F93800E1
:103CF000FEF722FC41460200259024900131280065
:103D000009F098F8FFF75BF93800FEF715FC41461B
:103D10000200259024900131280009F08BF8FFF76C
:103D200046F93800FEF708FC414602002590249031
:103D30000131280009F07EF8FFF731F93800FEF76D
:103D4000FBFB41460200259024900131280009F038
:103D500071F8FFF71CF93800FEF7EEFB4146020050
:103D6000259024900131280009F064F8FFF707F945
:103D70003800FEF7E1FB4146020025902490013116
:103D8000280009F057F8FFF7F2F83800FEF7D4FBE7
:103D900041460200259024900131280009F04AF89C
:103DA000FFF7DDF83800FEF7C7FB711C02002F900B
:103DB0002E90280009F03EF89CE43800FEF7BCFB8A
:103DC000711C02002F902E90280009F033F88CE42B
:103DD0003800FEF7B1FB711C02002F902E902800D6
:103DE00009F028F87CE43800FEF7A6FB711C0200FD
:103DF0002F902E90280009F01DF86CE43800FEF793
:103E00009BFB711C02002F902E90280009F012F8E5
:103E10005CE43800FEF790FB711C02002F902E909E
:103E2000280009F007F84CE43800FEF785FB711C08
:103E300002002F902E90280008F0FCFF3CE4380090
:103E4000FEF77AFB711C02002F902E90280008F0DC
:103E5000F1FF2CE43000FEF76FFB791C02000790A5
:103E60000690280008F0E6FFFFF701FC3000FEF79F
:103E700063FB791C020007900690280008F0DAFF27
:103E8000FFF7EFFB3000FEF757FB791C02000790AD
:103E90000690280008F0CEFFFFF7DDFB3000FEF7AC
:103EA0004BFB791C020007900690280008F0C2FF27
:103EB000FFF7A5FB3000FEF73FFB791C02000790DF
:103EC0000690280008F0B6FFFFF793FB3000FEF7DE
:103ED00033FB791C020007900690280008F0AAFF27
:103EE000FFF7B2FB3000FEF727FB791C02000790BA
:103EF0000690280008F09EFFFFF7A0FB3000FEF7B9
:103F00001BFB791C020007900690280008F092FF26
:103F1000FFF782FB3000FEF70FFB791C02000790D1
:103F20000690280008F086FFFFF770FBD2239B0065
:103F3000E3589846002B00DB4EE3D3239B00E35865
:103F40009846002B00DBFFE3D4239B00E358984600
:103F5000002B00DBECE3D5239B00E3589846002BB5
:103F600000DBD9E3D6239B00E3589846002B00DB07
:103F7000C6E3D7239B00E3589846002B00DBB3E34E
:103F8000D8239B00E3589846002B00DB48E3D92355
:103F90009B00E3589846002B00DB35E3DA239B00B7
:103FA000E3589846002B00DB22E3DB239B00E35819
:103FB0009846002B01DAFFF702F83800FEF7BCFA4A
:103FC000414602002B902A900131280008F032FF70
:103FD000FEF7F5FF276D3F36F6B2002F00DB78E3E2
:103FE000676D002F00DB69E3A76D002F00DB5AE34C
:103FF000E76D002F00DB4BE3276E002F00DB3CE377
:10400000676E002F00DB2DE3A76E002F00DB1EE3A1
:10401000E76E002F00DB0FE3276F002F01DB00F0BE
:104020000FFC676F002F00DBFEE3A0235B00E75867
:10403000002F00DBEDE3A2235B00E758002F00DB3D
:10404000DCE3A4235B00E758002F00DBCBE3A623CF
:104050005B00E758002F00DBBAE3A8235B00E758BA
:10406000002F00DBA9E3AA235B00E758002F00DB49
:1040700098E3AC235B00E758002F00DB87E3AE2317
:104080005B00E758002F00DB76E3B0235B00E758C6
:10409000002F00DB65E3B2235B00E458002C01DA5B
:1040A000FEF796FDFFF735F8F0233700E3583F376A
:1040B0009846FFB2002B0ADB3800FEF73DFA414676
:1040C0000200279026900131280008F0B3FEF42367
:1040D000E3589846002B0ADB3800FEF72DFA4146DC
:1040E0000200279026900131280008F0A3FEF82353
:1040F000E3589846002B0ADB3800FEF71DFA4146CC
:104100000200279026900131280008F093FEFC233E
:10411000E3589846002B0ADB3800FEF70DFA4146BB
:104120000200279026900131280008F083FE8023AA
:104130005B00E3589846002B0ADB3800FEF7FCF9D9
:1041400041460200279026900131280008F072FEB7
:1041500082235B00E3589846002B0ADB3800FEF709
:10416000EBF941460200279026900131280008F023
:1041700061FE84235B00E3589846002B0ADB38007D
:10418000FEF7DAF941460200279026900131280017
:1041900008F050FE86235B00E3589846002B0ADBAC
:1041A0003800FEF7C9F941460200279026900131F8
:1041B000280008F03FFE88235B00E3589846002B58
:1041C0000ADB3800FEF7B8F9414602002790269036
:1041D0000131280008F02EFE8A235B00E358984640
:1041E000002B01DAFEF7EBFE3800FEF7A5F9414699
:1041F0000200279026900131280008F01BFEFEF7F0
:10420000DEFEF0233700E3583F379846FFB2002B1D
:104210000ADB3800FEF790F9414602002990289009
:104220000131280008F006FEF423E3589846002BDD
:104230000ADB3800FEF780F94146020029902890F9
:104240000131280008F0F6FDF823E3589846002BCA
:104250000ADB3800FEF770F94146020029902890E9
:104260000131280008F0E6FDFC23E3589846002BB6
:104270000ADB3800FEF760F94146020029902890D9
:104280000131280008F0D6FD80235B00E3589846F2
:10429000002B0ADB3800FEF74FF941460200299057
:1042A00028900131280008F0C5FD82235B00E35807
:1042B0009846002B0ADB3800FEF73EF94146020023
:1042C000299028900131280008F0B4FD84235B0078
:1042D000E3589846002B0ADB3800FEF72DF94146DB
:1042E0000200299028900131280008F0A3FD8623C0
:1042F0005B00E3589846002B0ADB3800FEF71CF9F8
:1043000041460200299028900131280008F092FDD2
:1043100088235B00E3589846002B0ADB3800FEF741
:104320000BF941460200299028900131280008F03D
:1043300081FD8A235B00E3589846002B01DAFEF7E3
:104340003EFE3800FEF7F8F841460200299028901A
:104350000131280008F06EFDFEF731FEA023E7587A
:104360003F36F6B2002F09DB3000FEF7E5F8791C86
:10437000020033903290280008F05CFDA423E75837
:10438000002F09DB3000FEF7D7F8791C02003390CC
:104390003290280008F04EFDA823E758002F09DBD3
:1043A0003000FEF7C9F8791C0200339032902800E3
:1043B00008F040FDAC23E758002F09DB3000FEF782
:1043C000BBF8791C020033903290280008F032FDCF
:1043D000B023E758002F09DB3000FEF7ADF8791C59
:1043E000020033903290280008F024FDB423E758EF
:1043F000002F09DB3000FEF79FF8791C0200339094
:104400003290280008F016FDB823E758002F09DB8A
:104410003000FEF791F8791C0200339032902800AA
:1044200008F008FDBC23E758002F09DB3000FEF739
:1044300083F8791C020033903290280008F0FAFCCF
:10444000C023E758002F09DB3000FEF775F8791C10
:10445000020033903290280008F0ECFCC423E458AA
:10446000002C01DAFEF7B4FBFEF753FEB421300056
:1044700049007E3004F01CFCCBB29846F0235B0070
:10448000E3589A46002B0ADB4046FEF755F85146A2
:104490000200139012900131280008F0CBFCF223A7
:1044A0005B00E3589A46002B0ADB4046FEF744F8CF
:1044B00051460200139012900131280008F0BAFC16
:1044C000F4235B00E3589A46002B0ADB4046FEF7D4
:1044D00033F851460200139012900131280008F081
:1044E000A9FCF6235B00E3589A46002B0ADB404602
:1044F000FEF722F851460200139012900131280075
:1045000008F098FCF8235B00E3589A46002B0ADB7E
:104510004046FEF711F85146020013901290013107
:10452000280008F087FCFA235B00E3589A46002B2A
:104530000ADB4046FEF700F8514602001390129045
:104540000131280008F076FCFC235B00E3589A4612
:10455000002B0ADB4046FDF7EFFF514602001390A7
:1045600012900131280008F065FCFE235B00E3583F
:104570009A46002B0ADB4046FDF7DEFF514602005B
:10458000139012900131280008F054FC80239B0006
:10459000E3589A46002B0ADB4046FDF7CDFF514613
:1045A0000200139012900131280008F043FC81238F
:1045B0009B00E3589A46002B01DAFEF75FFA40466B
:1045C000FDF7BAFF51460200139012900131280006
:1045D00008F030FCFEF752FA3800FDF7ADFF414617
:1045E00002002B902A900131280008F023FCA4E45B
:1045F0003800FDF7A1FF414602002B902A900131BF
:10460000280008F017FCD0E43800FDF795FF41467C
:1046100002002B902A900131280008F00BFCBDE429
:104620003800FDF789FF414602002B902A900131A6
:10463000280008F0FFFBAAE43000FDF77DFF791C9D
:10464000020036903590280008F0F4FBE4E43000D6
:10465000FDF772FF791C020036903590280008F0B3
:10466000E9FBD5E43000FDF767FF791C02003690C6
:104670003590280008F0DEFBC6E43000FDF75CFF53
:10468000791C020036903590280008F0D3FBB7E47F
:104690003000FDF751FF791C02003690359028005C
:1046A00008F0C8FBA8E43000FDF746FF791C0200C3
:1046B00036903590280008F0BDFB99E43000FDF7F6
:1046C0003BFF791C020036903590280008F0B2FBC1
:1046D0008AE43000FDF730FF791C020036903590F7
:1046E000280008F0A7FB7BE43800FDF725FF4146D2
:1046F00002002B902A900131280008F09BFB3FE438
:104700003800FDF719FF414602002B902A90013135
:10471000280008F08FFB2CE43800FDF70DFF414620
:1047200002002B902A900131280008F083FB19E445
:104730003800FDF701FF414602002B902A9001311D
:10474000280008F077FB06E43800FDF7F5FE414647
:1047500002002B902A900131280008F06BFBFFF734
:10476000F3FB3000FDF7E8FE791C0200379034902F
:10477000280008F05FFB8EE43000FDF7DDFE791CB9
:10478000020037903490280008F054FB7DE430009C
:10479000FDF7D2FE791C020037903490280008F013
:1047A00049FB6CE43000FDF7C7FE791C020037902E
:1047B0003490280008F03EFB5BE43000FDF7BCFEBF
:1047C000791C020037903490280008F033FB4AE44B
:1047D0003000FDF7B1FE791C0200379034902800BC
:1047E00008F028FB39E43000FDF7A6FE791C020032
:1047F00037903490280008F01DFB28E43000FDF7C6
:104800009BFE791C020037903490280008F012FBC0
:1048100017E43000FDF790FE791C020037903490C9
:10482000280008F007FB06E43000FDF785FE791C40
:10483000020036903590280008F0FCFAFFF7F5FBEF
:104840003000FDF779FE791C020036903590280083
:1048500008F0F0FAFFF7E5FBA023E7583F36F6B281
:10486000002F09DB3000FDF767FE791C02003F9046
:104870003E90280008F0DEFAA423E758002F09DB59
:104880003000FDF759FE791C02003F903E90280051
:1048900008F0D0FAA823E758002F09DB3000FDF715
:1048A0004BFE791C02003F903E90280008F0C2FAAF
:1048B000AC23E758002F09DB3000FDF73DFE791CE3
:1048C00002003F903E90280008F0B4FAB023E75869
:1048D000002F09DB3000FDF72FFE791C02003F900E
:1048E0003E90280008F0A6FAB423E758002F09DB11
:1048F0003000FDF721FE791C02003F903E90280019
:1049000008F098FAB823E758002F09DB3000FDF7CC
:1049100013FE791C02003F903E90280008F08AFAAE
:10492000BC23E758002F09DB3000FDF705FE791C9A
:1049300002003F903E90280008F07CFAC023E75820
:10494000002F00DA8AE53000FDF7F6FD791C020041
:104950003F903E90280008F06DFA7FE5B4213000CA
:1049600049007E3004F0A4F9CBB298468C239B001A
:10497000E3589A46002B0ADB4046FDF7DDFD514621
:104980000200179016900131280008F053FA8D2389
:104990009B00E3589A46002B0ADB4046FDF7CCFD0E
:1049A00051460200179016900131280008F042FA93
:1049B0008E239B00E3589A46002B0ADB4046FDF706
:1049C000BBFD51460200179016900131280008F0F7
:1049D00031FA8F239B00E3589A46002B0ADB4046AE
:1049E000FDF7AAFD514602001790169001312800EC
:1049F00008F020FA90239B00E3589A46002B0ADB2C
:104A00004046FDF799FD514602001790169001317E
:104A1000280008F00FFA91239B00E3589A46002BD8
:104A20000ADB4046FDF788FD5146020017901690BC
:104A30000131280008F0FEF992239B00E3589A46C2
:104A4000002B0ADB4046FDF777FD51460200179028
:104A500016900131280008F0EDF993239B00E358EC
:104A60009A46002B0ADB4046FDF766FD51460200E0
:104A7000179016900131280008F0DCF994239B0070
:104A8000E3589A46002B0ADB4046FDF755FD514698
:104A90000200179016900131280008F0CBF99523F9
:104AA0009B00E3589A46002B01DAFDF7E7FF4046EA
:104AB000FDF742FD51460200179016900131280083
:104AC00008F0B8F9FDF7DAFFB421300049007E3074
:104AD00004F0EEF8CBB2984682239B00E3589A4646
:104AE000002B0ADB4046FDF727FD514602001590DA
:104AF00014900131280008F09DF983239B00E358AE
:104B00009A46002B0ADB4046FDF716FD514602008F
:104B1000159014900131280008F08CF984239B0033
:104B2000E3589A46002B0ADB4046FDF705FD514647
:104B30000200159014900131280008F07BF98523BC
:104B40009B00E3589A46002B0ADB4046FDF7F4FC35
:104B500051460200159014900131280008F06AF9BE
:104B600086239B00E3589A46002B0ADB4046FDF75C
:104B7000E3FC51460200159014900131280008F022
:104B800059F987239B00E3589A46002B0ADB4046DD
:104B9000FDF7D2FC51460200159014900131280017
:104BA00008F048F988239B00E3589A46002B0ADB5B
:104BB0004046FDF7C1FC51460200159014900131AA
:104BC000280008F037F989239B00E3589A46002B08
:104BD0000ADB4046FDF7B0FC5146020015901490E8
:104BE0000131280008F026F98A239B00E3589A46F1
:104BF000002B0ADB4046FDF79FFC51460200159052
:104C000014900131280008F015F98B239B00E3581C
:104C10009A46002B01DAFDF731FF4046FDF78CFC88
:104C200051460200159014900131280008F002F955
:104C3000FDF724FFA0235B00E7583F36F6B2002FB4
:104C400009DB3000FDF778FC791C020039903890C0
:104C5000280008F0EFF8A2235B00E758002F09DBDB
:104C60003000FDF769FC791C02003990389028006B
:104C700008F0E0F8A4235B00E758002F09DB3000C0
:104C8000FDF75AFC791C020039903890280008F092
:104C9000D1F8A6235B00E758002F09DB3000FDF7B1
:104CA0004BFC791C020039903890280008F0C2F8BB
:104CB000A8235B00E758002F09DB3000FDF73CFC20
:104CC000791C020039903890280008F0B3F8AA2324
:104CD0005B00E758002F09DB3000FDF72DFC791C45
:104CE000020039903890280008F0A4F8AC235B004B
:104CF000E758002F09DB3000FDF71EFC791C02008D
:104D000039903890280008F095F8AE235B00E758FA
:104D1000002F09DB3000FDF70FFC791C02003990F1
:104D20003890280008F086F8B0235B00E758002F81
:104D300001DAFFF7B0F93000FDF7FEFB791C020045
:104D400039903890280008F075F8FFF7A4F9276D1E
:104D50003F36F6B2002F09DB3000FDF7EDFB791C82
:104D600002003C903B90280008F064F8676D002F2B
:104D700009DB3000FDF7E0FB791C02003C903B9022
:104D8000280008F057F8A76D002F09DB3000FDF769
:104D9000D3FB791C02003C903B90280008F04AF8B5
:104DA000E76D002F09DB3000FDF7C6FB791C020020
:104DB0003C903B90280008F03DF8276E002F09DB5F
:104DC0003000FDF7B9FB791C02003C903B902800B5
:104DD00008F030F8676E002F09DB3000FDF7ACFB00
:104DE000791C02003C903B90280008F023F8A76E45
:104DF000002F09DB3000FDF79FFB791C02003C907F
:104E00003B90280008F016F8E76E002F09DB300011
:104E1000FDF792FB791C02003C903B90280008F0C3
:104E200009F8276F002F09DB3000FDF785FB791C9F
:104E300002003C903B90280007F0FCFF676F002FBA
:104E400009DB3000FDF778FB791C02003C903B90B9
:104E5000280007F0EFFFA0235B00E758002F09DBD5
:104E60003000FDF769FB791C02003D903A90280064
:104E700007F0E0FFA2235B00E758002F09DB3000BA
:104E8000FDF75AFB791C02003D903A90280007F08C
:104E9000D1FFA4235B00E758002F09DB3000FDF7AA
:104EA0004BFB791C02003D903A90280007F0C2FFAE
:104EB000A6235B00E758002F09DB3000FDF73CFB21
:104EC000791C02003D903A90280007F0B3FFA82318
:104ED0005B00E758002F09DB3000FDF72DFB791C44
:104EE00002003D903A90280007F0A4FFAA235B003F
:104EF000E758002F09DB3000FDF71EFB791C02008C
:104F00003D903A90280007F095FFAC235B00E758EE
:104F1000002F09DB3000FDF70FFB791C02003D90EC
:104F20003A90280007F086FFAE235B00E758002F79
:104F300009DB3000FDF700FB791C02003D903A9040
:104F4000280007F077FFB0235B00E758002F01DA55
:104F5000FFF7A1F83000FDF7EFFA791C02003D9051
:104F60003A90280007F066FFFFF795F8C823E75846
:104F70003F36F6B2002F09DB3000FDF7DDFA791C71
:104F8000020041904090280007F054FFCC23E758DE
:104F9000002F09DB3000FDF7CFFA791C02004190A9
:104FA0004090280007F046FFD023E758002F09DB88
:104FB0003000FDF7C1FA791C0200419040902800B2
:104FC00007F038FFD423E758002F09DB3000FDF746
:104FD000B3FA791C020041904090280007F02AFFA4
:104FE000D823E758002F09DB3000FDF7A5FA791C1C
:104FF000020041904090280007F01CFFDC23E75896
:10500000002F09DB3000FDF797FA791C0200419070
:105010004090280007F00EFFE023E758002F09DB3F
:105020003000FDF789FA791C020041904090280079
:1050300007F000FFE423E758002F09DB3000FDF7FD
:105040007BFA791C020041904090280007F0F2FEA4
:10505000E823E758002F01DAFDF7B5FD3000FDF732
:105060006BFA791C020041904090280007F0E2FEA4
:10507000FDF7A9FDB421300049007E3003F018FE91
:10508000CBB29846C8235B00E3589A46002B0ADB54
:105090004046FDF751FA514602001990189001312F
:1050A000280007F0C7FECA235B00E3589A46002B8E
:1050B0000ADB4046FDF740FA51460200199018906D
:1050C0000131280007F0B6FECC235B00E3589A4676
:1050D000002B0ADB4046FDF72FFA514602001990DB
:1050E00018900131280007F0A5FECE235B00E3589D
:1050F0009A46002B0ADB4046FDF71EFA5146020095
:10510000199018900131280007F094FED0235B001D
:10511000E3589A46002B0ADB4046FDF70DFA51464C
:105120000200199018900131280007F083FED22365
:105130005B00E3589A46002B0ADB4046FDF7FCF97A
:1051400051460200199018900131280007F072FEB4
:10515000D4235B00E3589A46002B0ADB4046FDF758
:10516000EBF951460200199018900131280007F020
:1051700061FED6235B00E3589A46002B0ADB4046CB
:10518000FDF7DAF951460200199018900131280014
:1051900007F050FED8235B00E3589A46002B0ADB49
:1051A0004046FDF7C9F951460200199018900131A7
:1051B000280007F03FFEDA235B00E3589A46002BF5
:1051C00001DAFDF75BFC4046FDF7B6F951460200F7
:1051D000199018900131280007F02CFEFDF74EFCC5
:1051E000A76F3F36F6B2002F09DB3000FDF7A4F9B8
:1051F000791C020043904290280007F01BFEE76FE5
:10520000002F09DB3000FDF797F9791C020043906D
:105210004290280007F00EFE8023E758002F09DB9C
:105220003000FDF789F9791C020043904290280074
:1052300007F000FE8423E758002F09DB3000FDF75C
:105240007BF9791C020043904290280007F0F2FDA0
:105250008823E758002F09DB3000FDF76DF9791C32
:10526000020043904290280007F0E4FD8C23E758A9
:10527000002F09DB3000FDF75FF9791C0200439035
:105280004290280007F0D6FD9023E758002F09DB55
:105290003000FDF751F9791C02004390429028003C
:1052A00007F0C8FD9423E758002F09DB3000FDF715
:1052B00043F9791C020043904290280007F0BAFDA0
:1052C0009823E758002F09DB3000FDF735F9791CEA
:1052D000020043904290280007F0ACFD9C23E45864
:1052E000002C01DAFDF774FCFDF713FFB421300048
:1052F00049007E3003F0DCFCCBB2984696239B003D
:10530000E3589A46002B0ADB4046FDF715F9514653
:1053100002001B901A900131280007F08BFD9723A3
:105320009B00E3589A46002B0ADB4046FDF704F940
:10533000514602001B901A900131280007F07AFDB7
:1053400098239B00E3589A46002B0ADB4046FDF762
:10535000F3F8514602001B901A900131280007F023
:1053600069FD99239B00E3589A46002B0ADB4046CF
:10537000FDF7E2F8514602001B901A900131280017
:1053800007F058FD9A239B00E3589A46002B0ADB4E
:105390004046FDF7D1F8514602001B901A900131AA
:1053A000280007F047FD9B239B00E3589A46002BFB
:1053B0000ADB4046FDF7C0F8514602001B901A90E8
:1053C0000131280007F036FD9C239B00E3589A46E4
:1053D000002B0ADB4046FDF7AFF8514602001B9058
:1053E0001A900131280007F025FD9D239B00E3580A
:1053F0009A46002B0ADB4046FDF79EF85146020014
:105400001B901A900131280007F014FD9E239B0089
:10541000E3589A46002B0ADB4046FDF78DF85146CB
:1054200002001B901A900131280007F003FD9F2312
:105430009B00E3589A46002B01DAFDF71FFB40461C
:10544000FDF77AF8514602001B901A9001312800AE
:1054500007F0F0FCFDF712FBB421300049007E306C
:1054600003F026FCCBB29846AA239B00E3589A4649
:10547000002B0ADB4046FDF75FF8514602001D9005
:105480001C900131280007F0D5FCAB239B00E358AA
:105490009A46002B0ADB4046FDF74EF851460200C3
:1054A0001D901C900131280007F0C4FCAC239B0028
:1054B000E3589A46002B0ADB4046FDF73DF851467B
:1054C00002001D901C900131280007F0B3FCAD23B1
:1054D0009B00E3589A46002B0ADB4046FDF72CF868
:1054E000514602001D901C900131280007F0A2FCDB
:1054F000AE239B00E3589A46002B0ADB4046FDF79B
:105500001BF8514602001D901C900131280007F045
:1055100091FCAF239B00E3589A46002B0ADB4046E0
:10552000FDF70AF8514602001D901C900131280039
:1055300007F080FCB0239B00E3589A46002B0ADB5F
:105540004046FCF7F9FF514602001D901C900131C6
:10555000280007F06FFCB1239B00E3589A46002B0C
:105560000ADB4046FCF7E8FF514602001D901C9004
:105570000131280007F05EFCB2239B00E3589A46F5
:10558000002B0ADB4046FCF7D7FF514602001D9076
:105590001C900131280007F04DFCB3239B00E35819
:1055A0009A46002B01DAFDF769FA4046FCF7C4FF82
:1055B000514602001D901C900131280007F03AFC72
:1055C000FDF75CFAB421300049007E3003F070FB37
:1055D000CBB29846A0239B00E3589A46002B0ADBE7
:1055E0004046FCF7A9FF514602001F901E90013172
:1055F000280007F01FFCA1239B00E3589A46002BCC
:105600000ADB4046FCF798FF514602001F901E90AF
:105610000131280007F00EFCA2239B00E3589A46B4
:10562000002B0ADB4046FCF787FF514602001F9023
:105630001E900131280007F0FDFBA3239B00E358D7
:105640009A46002B0ADB4046FCF776FF51460200E3
:105650001F901E900131280007F0ECFBA4239B0053
:10566000E3589A46002B0ADB4046FCF765FF51469B
:1056700002001F901E900131280007F0DBFBA523DC
:105680009B00E3589A46002B0ADB4046FCF754FF88
:10569000514602001F901E900131280007F0CAFBFE
:1056A000A6239B00E3589A46002B0ADB4046FCF7F2
:1056B00043FF514602001F901E900131280007F061
:1056C000B9FBA7239B00E3589A46002B0ADB404610
:1056D000FCF732FF514602001F901E900131280056
:1056E00007F0A8FBA8239B00E3589A46002B0ADB8F
:1056F0004046FCF721FF514602001F901E900131E9
:10570000280007F097FBA9239B00E3589A46002B3B
:1057100001DAFDF7B3F94046FCF70EFF51460200EF
:105720001F901E900131280007F084FBFDF7A6F9B9
:10573000B421300049007E3003F0BAFACBB298466B
:10574000B4235B00E3589A46002B0ADB4046FCF783
:10575000F3FE51460200219020900131280007F00D
:1057600069FBB6235B00E3589A46002B0ADB4046F0
:10577000FCF7E2FE51460200219020900131280002
:1057800007F058FBB8235B00E3589A46002B0ADB6E
:105790004046FCF7D1FE5146020021902090013195
:1057A000280007F047FBBA235B00E3589A46002B1A
:1057B0000ADB4046FCF7C0FE5146020021902090D3
:1057C0000131280007F036FBBC235B00E3589A4602
:1057D000002B0ADB4046FCF7AFFE51460200219049
:1057E00020900131280007F025FBBE235B00E35821
:1057F0009A46002B0ADB4046FCF79EFE514602000B
:10580000219020900131280007F014FBC0235B0099
:10581000E3589A46002B0ADB4046FCF78DFE5146C2
:105820000200219020900131280007F003FBC223E1
:105830005B00E3589A46002B0ADB4046FCF77CFEEF
:1058400051460200219020900131280007F0F2FA21
:10585000C4235B00E3589A46002B0ADB4046FCF762
:105860006BFE51460200219020900131280007F084
:10587000E1FAC6235B00E3589A46002B01DAFDF7F4
:10588000FDF84046FCF758FE51460200219020905A
:105890000131280007F0CEFAFDF7F0F80123524657
:1058A00013212800FCF7B0FEFDF7E8F8F8B5040076
:1058B0000D0016001F0007F085FB3B003200290099
:1058C0002000FCF72DFF200007F08EFBF8BDC0463E
:1058D0000022044B191D1A719A60D96019615A612E
:1058E0007047C04684240020094A83009446402221
:1058F000634410B51C68C0006240C024144080227C
:10590000520113431C60034B9C466044416010BD30
:1059100004C00140004001400A4B80009C46042323
:105920006044002901D00C230821002A00D10B007B
:10593000026853400C221A4080235B011843026026
:105940007047C04604C001400123D02283401206A4
:1059500093629361094A8300944640226344196824
:10596000C0004A40C02111408022520113431960F7
:10597000034B9C46052360444360704704C00140CC
:1059800000400140EFF3108072B6034A1368002B09
:10599000FCD0BFF35F8F70472C0100D0BFF35F8F47
:1059A0000022024B1A6080F3108870472C0100D04F
:1059B00070B5EFF3108C72B60D4D2B68002BFCD038
:1059C000BFF35F8F0724CB08C618C05C01230C40CF
:1059D000A3401C000440034207D103433370BFF3CC
:1059E0005F8F2C608CF3108870BD100001F0EAFB13
:1059F0002C0100D0F8B54746CE46884680B5EFF377
:105A0000108C72B6214D2C68002CFCD0BFF35F8F38
:105A10009A422CD8D4080727055D0619012417409F
:105A2000BC402C421FD007210127894609E0D40839
:105A3000055D06194C4639001440A1400C0029426E
:105A400011D001329342F2D201204042BFF35F8F66
:105A500000220E4B1A608CF3108800280FDBC0BCAC
:105A6000B946B046F8BD2C4310003470EEE7BFF3E2
:105A70005F8F00232B608CF3108801204042434647
:105A8000002BECD0089801F09DFBC0462C0100D003
:105A9000024B18688007C00F7047C04600C0064020
:105AA0000021044B044ABFF35F8F02C39342FAD133
:105AB0007047C046000100D0800100D0044A107831
:105AC000431CDBB2172B00D9102313707047C0465C
:105AD0008418002000B5054B83B001000093182204
