:020000041000EA
:1000000000B50C4B00219960042159610A4919601F
:100010000A490B480160002159600121996001BC27
:10002000002800D0004707480749086003C880F34C
:10003000088808470000001800031F00180200038A
:10004000F40000180001001008ED00E000000000BE
:1000500000000000000000000000000000000000A0
:100060000000000000000000000000000000000090
:100070000000000000000000000000000000000080
:100080000000000000000000000000000000000070
:100090000000000000000000000000000000000060
:1000A0000000000000000000000000000000000050
:1000B0000000000000000000000000000000000040
:1000C0000000000000000000000000000000000030
:1000D0000000000000000000000000000000000020
:1000E0000000000000000000000000000000000010
:1000F0000000000000000000000000002CEC210DBA
:1001000000200420F7010010C3010010C5010010F9
:10011000C1010010C1010010C1010010C101001097
:10012000C1010010C1010010C1010010C701001081
:10013000C1010010C1010010C9010010CB01001065
:10014000CD010010CD010010CD010010CD01001037
:10015000CD010010CD010010CD010010CD01001027
:10016000CD010010CD010010CD010010CD01001017
:10017000CD010010CD010010CD010010CD01001007
:10018000CD010010CD010010CD010010CD010010F7
:10019000CD010010CD010010CD010010CD010010E7
:1001A000CD010010CD010010CD010010CD010010D7
:1001B000CD010010CD010010CD010010CD010010C7
:1001C00000BE00BE00BE00BE00BE00BE00F04BF888
:1001D000103800BEF2EB887108B101102CB101108B
:1001E0003402001090A31AE700202149086006C8D5
:1001F00081F3088810471F48006800282FD10DA4FC
:100200000ECC002902D000F012F8F9E71A491B4A77
:10021000002000E001C19142FCD1194988471949E9
:1002200088471949884700BEFDE701C901C29A42C3
:10023000FBD370472CB10110C0000020D41D00205A
:1002400040CE0110000004200000042040CE011028
:1002500000100420001004200000000070470B482C
:1002600007F0B4FE0047EFF30580C0B2704700000E
:1002700008ED00E0000000D0D81D0020A4300020D0
:1002800019640010C5420010416500105756000067
:1002900006005250ABB36053288001100600525044
:1002A000861C030244800110060052505422A29D75
:1002B0005080011005005250DE65F46840CE0110F8
:1002C000F8B5C04610B5064C2378002B07D1054B76
:1002D000002B02D0044800E000BF0123237010BDB2
:1002E000E01F002000000000C86D0110044B10B595
:1002F000002B03D00349044800E000BF10BDC046F6
:1003000000000000E41F0020C86D01107047C046C7
:1003100010B503685B68984710BDC0460023F0B570
:10032000036043608360154B04000E0083B0D5006A
:100330009D4216D8002D0ED028000DF075F84719F3
:100340002060A760002D0AD02A00310008F0EEFAE4
:10035000676003B0F0BD002705608560F8E707001F
:10036000F6E707480DF036FB2068A168091A002857
:1003700001D00CF001FA0CF0A7FAC046F8FFFF7F9D
:10038000C86D0110F0B5C646040000B5002825D0A0
:100390001A4B1B4F98462600E068FFF7F3FFB5693C
:1003A000A468002D14D06B68013B6B60002B0FD14B
:1003B0002B689B68BB4214D1AB68013BAB60002B40
:1003C00006D12B68DA6842450ED128005B68984751
:1003D0001C2130000CF0D0F9002CDCD180BCB846D8
:1003E000F0BD28009847E7E7280090471C2130001F
:1003F0000CF0C2F9002CCED1F0E7C046110300107A
:100400000D030010F0B5DE4657464E464546E0B5B2
:10041000834685B0002800D199E05B46DB680193F4
:10042000002B00D186E0019BDB689946002B72D03F
:100430004B46DB689A46002B60D05346DC68002CA4
:1004400042D0E668002E27D0F3689846002B2FD0C4
:100450004346DD68002D44D0EF68002F10D0F868C7
:10046000FFF7D0FF3B00DA69BF68100002930392E8
:10047000FFF788FF2C2102980CF07EF9002FEED1B7
:10048000AF68E869FFF77EFF2C2128000CF074F9B3
:10049000002F26D03D00DFE7A568E069FFF772FF77
:1004A0002C2120000CF068F9002D0DD02C00C8E79D
:1004B000B568F069FFF766FF2C2130000CF05CF99D
:1004C000002DE9D02E00BFE753469C68D869FFF79E
:1004D00059FF2C2150460CF04FF9002C0ED0A246AB
:1004E000ABE743469D68D869FFF74CFF2C21404697
:1004F0000CF042F9002DDBD0A846A9E74B469C68DA
:10050000D869FFF73FFF2C2148460CF035F9002C45
:1005100001D0A1468CE7019DEB69AC6818000193FE
:10052000FFF730FF2C2128000CF026F9002C01D019
:10053000019478E75B469C68D869FFF723FF2C217C
:1005400058460CF019F9002C01D0A34665E705B018
:10055000F0BCBB46B246A946A046F0BDF0B5C646C3
:1005600000B5C8B001282BD0114A1368013B1360B5
:10057000002B14D10F4C104D206800280BD0A3681D
:10058000191A0CF0F9F823000C3BA54207D01C0007
:1005900020680028F3D123000C3BA542F7D1074B7C
:1005A0009868FFF72FFF48B080BCB846F0BDC04642
:1005B000002000200C23002074210020182300209C
:1005C0000022FB4B191DD96019611A719A605A619A
:1005D000F84B19684D1C1D60012DE4D1F64F002326
:1005E0003A607A60BA6000223A923B93012200237B
:1005F0003AAC3C923D9321000132F0483894399254
:10060000FFF78CFEEE4B98462300424643CA43C395
:1006100043CA43C303222100EA4836943792FFF7C6
:100620007DFE43462200183343CB43C243CB43C233
:1006300003222100E44834943592FFF76FFE4346CD
:100640002200303343CB43C243CB43C203CB03C26C
:1006500004222100DD4832943392FFF75FFE00232D
:10066000FB633B647B64BB64FB643B6543462200E5
:10067000503343CB43C243CB43C203CB03C2042218
:100680002100D34830943192FFF748FE46462200BD
:1006900070360BCE0BC20BCE0BC20ACE0AC204229E
:1006A0002100CC482E942F92FFF738FECA4E3822F4
:1006B00031002000103108F039F907222100C74825
:1006C0002C942D92FFF72AFE310038224831200069
:1006D00008F02CF907222100C1482A942B92FFF739
:1006E0001DFEC04B98462300424643CA43C343CA3B
:1006F00043C303222100BC4828942992FFF70EFE31
:1007000043462200183343CB43C243CB43C203CBFF
:1007100003C204222100B54826942792FFF7FEFD6C
:1007200043462200383343CB43C243CB43C203CBBF
:1007300003C204222100AE4824942592FFF7EEFD67
:1007400043462200583343CB43C243CB43C203CB7F
:1007500003C204222100A74822942392FFF7DEFD62
:10076000012300225B423A923B9321000132A248CE
:1007700020942192FFF7D2FD01230C225B423A9292
:100780003B9321000B3A9D481E941F92FFF7C6FD34
:10079000012365225B423A923B932100643A9848D8
:1007A0001C941D92FFF7BAFD012371225B423A921D
:1007B0003B932100703A93481A941B92FFF7AEFDC9
:1007C0000023E422BB500432BB500432BB5004323D
:1007D000BB500432BB5046460432BB502200783630
:1007E0000BCE0BC20BCE0BC20ACE0AC204222100D2
:1007F000854818941992FFF791FD2200834B984683
:10080000183343CB43C243CB43C203CB03C20422BE
:1008100021007F4816941792FFF780FD434622007F
:10082000383343CB43C243CB43C203CB03C204227E
:100830002100784814941592FFF770FD434622007A
:10084000583343CB43C243CB43C203CB03C204223E
:100850002100714812941392FFF760FD4646220072
:1008600078360BCE0BC20BCE0BC20ACE0AC20422C4
:1008700021006A4810941192FFF750FD2200684B46
:100880009846183343CB43C243CB43C243CB43C206
:100890001B6821001360052262480E940F92FFF737
:1008A0003DFD43462200403343CB43C243CB43C2CA
:1008B00043CB43C243CB43C2062221005A480C9487
:1008C0000D92FFF72BFD4646220070360BCE0BC271
:1008D0000BCE0BC20ACE0AC20422210053480A944E
:1008E0000B92FFF71BFD2200514B9846103343CB70
:1008F00043C243CB43C203CB03C2042221004D4871
:1009000008940992FFF70AFD43462200303343CB97
:1009100043C243CB43C203CB03C204222100464857
:1009200006940792FFF7FAFC43462200503343CB6C
:1009300043C243CB43C203222100404804940592A2
:10094000FFF7ECFC4646220068360BCE0BC20BCEFE
:100950000BC20BCE0BC2336821001360052238484E
:1009600002940392FFF7DAFC2200364B103343CB9C
:1009700043C243CB43C20322210033480094019277
:10098000FFF7CCFCCC2200235200BB500432BB50FA
:100990000432BB5007E621252224651B163C6C431C
:1009A0003C19BC4200D087E00BF08EFFF4E7C04654
:1009B0001823002000200020742100208021002026
:1009C000FC6D01108C21002098210020A421002022
:1009D000C8210020D42100207C6E0110E0210020DD
:1009E000EC210020FC6E0110F821002004220020E0
:1009F000102200201C220020282200203422002067
:100A0000402200204C220020702200207C6F011028
:100A10007C2200208822002094220020A022002096
:100A2000FC6F0110AC220020B8220020C42200205C
:100A30007C700110D0220020DC220020E82200205F
:100A4000F4220020FC700110002300200325A3E7FE
:100A50000425A1E702259FE705259DE709259BE7DA
:100A60000A2599E70B2597E70C2595E7072593E7D6
:100A7000082591E706258FE70D258DE710258BE7E3
:100A8000172589E7182587E7192585E71A2583E7BC
:100A90001B2581E71E257FE71F257DE720257BE7B6
:100AA000132579E7142577E7152575E7162573E7EC
:100AB000112571E712256FE70C3C2068A368191A0D
:100AC000002800D16DE70BF057FE6AE710B5012052
:100AD000FFF744FD10BDC04610B50400034B0833BA
:100AE000036003F093FE200010BDC0465073011058
:100AF00010B50400054B0833036003F087FE2000A7
:100B000004210BF039FE200010BDC04650730110C7
:100B1000F0B5C646040000B5002825D01A4B1B4F7F
:100B200098462600E068FFF7F3FFB569A468002D3A
:100B300014D06B68013B6B60002B0FD12B689B6856
:100B4000BB4214D1AB68013BAB60002B06D12B68D4
:100B5000DA6842450ED128005B6898471C213000B6
:100B60000BF00AFE002CDCD180BCB846F0BD28009A
:100B70009847E7E7280090471C2130000BF0FCFD68
:100B8000002CCED1F0E7C046110300100D03001079
:100B9000F0B5DE4657464E464546E0B5834685B03D
:100BA000002800D199E05B46DB680193002B00D15F
:100BB00086E0019BDB689946002B72D04B46DB68D0
:100BC0009A46002B60D05346DC68002C42D0E66881
:100BD000002E27D0F3689846002B2FD04346DD68BF
:100BE000002D44D0EF68002F10D0F868FFF7D0FF39
:100BF0003B00DA69BF68100002930392FFF788FF99
:100C00002C2102980BF0B8FD002FEED1AF68E869F7
:100C1000FFF77EFF2C2128000BF0AEFD002F26D021
:100C20003D00DFE7A568E069FFF772FF2C21200097
:100C30000BF0A2FD002D0DD02C00C8E7B568F069BF
:100C4000FFF766FF2C2130000BF096FD002DE9D058
:100C50002E00BFE753469C68D869FFF759FF2C2147
:100C600050460BF089FD002C0ED0A246ABE7434660
:100C70009D68D869FFF74CFF2C2140460BF07CFDA6
:100C8000002DDBD0A846A9E74B469C68D869FFF742
:100C90003FFF2C2148460BF06FFD002C01D0A146F0
:100CA0008CE7019DEB69AC6818000193FFF730FFFA
:100CB0002C2128000BF060FD002C01D0019478E776
:100CC0005B469C68D869FFF723FF2C2158460BF040
:100CD00053FD002C01D0A34665E705B0F0BCBB4630
:100CE000B246A946A046F0BD10B5040003F098FD39
:100CF000024B20000833236010BDC0465073011022
:100D0000F0B5DE4657464E4645468B460221E0B5D5
:100D10009846531E8246894687B0032B04D9013971
:100D2000D31F8946072B3DD853002A499B189B00A7
:100D30005D180020CB5800210290039100216A68C1
:100D40000491D41A9A4236D0234B9C4236D82000C4
:100D50000CF06AFB0ACD04190290039004949942A6
:100D600009D000225B1A84188D180832C0CDC0C487
:100D70009A42F8D1801843460390009359464B4657
:100D8000504602AA03F004FE0298002803D00499FA
:100D9000091A0BF0F1FC07B0F0BCBB46B246A946FD
:100DA000A046F0BD1100072311398B429B4103215E
:100DB00019408946B8E700240020CBE70CF0E2FD9B
:100DC00002980499091A002801D00BF0D5FC0BF009
:100DD0007BFDC0463C200020F8FFFF7F0023F0B5DC
:100DE000036043608360154B04000E0083B0D500A0
:100DF0009D4217D8002D0FD028000CF015FB471985
:100E00002060A760002D0BD02A00310007F08EFD76
:100E10002000676003B0F0BD002705608560F7E73C
:100E20000700F5E706480CF0D5FD2068A168091A0F
:100E3000002801D00BF0A0FC0BF046FDF8FFFF7F6F
:100E4000C86D0110F0B5C64600B5B2B0012822D079
:100E5000E34A1368013B1360002B14D1E14CE24DCF
:100E6000206800280BD0A368191A0BF085FC23001A
:100E70000C3BA54207D01C0020680028F3D12300BA
:100E80000C3BA542F7D1D94B9868FFF781FE32B0F1
:100E900080BCB846F0BD0022D44B191DD960196141
:100EA0001A719A605A61CE4B19684D1C1D60012D54
:100EB000EDD1CD4F01233A607A60BA6000225B42E7
:100EC0002AAC2A922B9321002A00C94826AB2894E9
:100ED0002995FFF783FF01230C225B422A922B9373
:100EE00021000B3AC34824AB26942792FFF776FFE4
:100EF000012365225B422A922B932100643ABE486B
:100F000022AB24942592FFF769FF012371225B42F3
:100F10002A922B932100703AB84820AB2294239256
:100F2000FFF75CFF0023FB633B647B64BB64FB64F3
:100F30003B65B34B98462300424643CA43C343CA6A
:100F400043C303CA03C304222100AE481EAB20944E
:100F50002192FFF743FF43462200203343CB43C295
:100F600043CB43C203CB03C204222100A6481CABDF
:100F70001E941F92FFF732FF43462200403343CBBB
:100F800043C243CB43C203CB03C2042221009F4888
:100F90001AAB1C941D92FFF721FF464622006036D3
:100FA0000BCE0BC20BCE0BC20ACE0AC2042221000A
:100FB000974818AB1A941B92FFF710FF954B984671
:100FC0002300424643CA43C343CA43C303CA03C3BD
:100FD00004222100904816AB18941992FFF7FEFEE8
:100FE00043462200203343CB43C243CB43C203CB0F
:100FF00003C204222100894814AB16941792FFF70C
:10100000EDFE43462200403343CB43C243CB43C2B1
:1010100003CB03C204222100814812AB1494159221
:10102000FFF7DCFE4646220060360BCE0BC20BCE2D
:101030000BC20ACE0AC2042221007A4810AB1294D5
:101040001392FFF7CBFE0023B422BB500432BB50F7
:101050000432BB500432BB500432BB500432BB508C
:10106000714B98462300424643CA43C343CA43C315
:1010700003CA03C3042221006C480EAB10941192E2
:10108000FFF7ACFE43462200203343CB43C243CBA1
:1010900043C203CB03C20422210065480CAB0E946B
:1010A0000F92FFF79BFE43462200403343CB43C2DF
:1010B00043CB43C203CB03C2042221005D480AABE9
:1010C0000C940D92FFF78AFE4646220060360BCE46
:1010D0000BC20BCE0BC20ACE0AC204222100564814
:1010E00008AB0A940B92FFF779FE544B9846230005
:1010F000424643CA43C343CA43C303CA03C3042289
:1011000021004F4806AB08940992FFF767FE43465B
:101110002200203343CB43C243CB43C203CB03C2A1
:1011200004222100474804AB06940792FFF756FEBD
:1011300043462200403343CB43C243CB43C203CB9D
:1011400003C204222100404802AB04940592FFF739
:1011500045FE4646220060360BCE0BC20BCE0BC2BC
:101160000ACE0AC204222100384801AB029403923D
:10117000FFF734FE962200235200BB500432BB50CE
:101180000432BB5083E618251924651B0D3C6C43C3
:101190003C19BC425ED10BF097FBF5E70225F3E763
:1011A0000325F1E70425EFE70525EDE70E25EBE73D
:1011B0000F25E9E71025E7E71125E5E71225E3E725
:1011C0001525E1E71625DFE71725DDE70825DBE72D
:1011D0000B25D9E70C25D7E70D25D5E70625D3E75D
:1011E000FC1F0020682100203C200020302300202C
:1011F0004820002054200020602000206C20002087
:1012000024710110902000209C200020A8200020A4
:10121000B4200020A4710110C0200020CC200020A8
:10122000D8200020E4200020247201100821002092
:1012300014210020202100202C210020A472011064
:101240003821002044210020502100205C21002072
:10125000072599E70C3C2068A368191A002898D044
:101260000BF08AFA95E7C04670B5040000680028C4
:101270000CD02369191A0BF07FFA002223002100F9
:10128000A260E260083321CB21C1226170BDC0465B
:10129000F0B5C64600B594B01A9E04000D001700C4
:1012A00098460A2E00DD71E04146684600F01AFBC0
:1012B0000A21404606F0BCFE010005A800F012FB22
:1012C00039000AA800F00EFB0A21380006F0B0FE33
:1012D00001000FA800F006FB009B1B68DA0700D591
:1012E000ECE09A0700D5E0E05A0700D5D4E01B07F0
:1012F00000D5CAE0059B1B68DA0700D5BCE09A0759
:1013000000D5B0E05A0700D5A4E01B0700D59AE04D
:101310000A9B1B68DA0700D58CE09A0700D580E0AD
:101320005A0700D574E01B076BD40F980368DA07DF
:101330005ED49A0753D45A0748D41B0721D53300EB
:10134000182229002000FFF7DBFC0F98002818D195
:101350000A98002803D00E99091A0BF00DFA059887
:10136000002803D00999091A0BF006FA0098002802
:1013700003D00499091A0BF0FFF914B080BCB846E9
:10138000F0BD1399091A0BF0F7F9E1E733000122D8
:10139000FFF7B6FC192E00DC86E733000222290095
:1013A0002000FFF7ADFC282E00DC7DE73300032290
:1013B00029002000FFF7A4FC372E00DC74E733007F
:1013C000042229002000FFF79BFC6DE73300172261
:1013D00029002000FFF794FC0F980368ADE7330065
:1013E000162229002000FFF78BFC0F980368A2E764
:1013F0003300152229002000FFF782FC0F980368B4
:1014000097E73300142229002000FFF779FC8CE7CE
:101410003300132229002000FFF772FC0A9B1B688F
:1014200081E73300122229002000FFF769FC0A9BA4
:101430001B6875E73300112229002000FFF760FCCC
:101440000A9B1B6869E733000E2229002000FFF782
:1014500057FC5DE733000D2229002000FFF750FC08
:10146000059B1B6851E733000C2229002000FFF781
:1014700047FC059B1B6845E733000B222900200031
:10148000FFF73EFC059B1B6839E733000A22290061
:101490002000FFF735FC2DE733000922290020004A
:1014A000FFF72EFC009B1B6821E733000822290070
:1014B0002000FFF725FC009B1B6815E7330007227F
:1014C00029002000FFF71CFC009B1B6809E70FA800
:1014D000FFF7CAFE0AA8FFF7C7FE05A8FFF7C4FE7C
:1014E0006846FFF7C1FE0BF0EFF9F3E7F5E7F7E722
:1014F00010B50120FFF7A6FC10BDC04630B543680B
:1015000089B0002B01D109B030BD00220023049224
:10151000059300233A4904AA069300F059FC059D5F
:10152000049C2B1B302B29D9206813F0D9FC059B78
:10153000049A019345B29B1A182B41D9906913F074
:10154000CFFC059B049A019344B29B1A302B30D9EF
:10155000106B13F0C5FC2B4B02AA13802A4BD071E1
:101560005380002310001371557194710AF06EFAC4
:101570004020002104F0B2FA049C059DAC420CD03E
:1015800023002068083398420FD0A3681834591CF0
:101590000BF0F2F8AC42F3D1049D002DB3D00699C4
:1015A0002800491B0BF0E8F8ADE71834AC42E7D14E
:1015B000F2E7164ADB1002215A4315480CF022FAD2
:1015C000124ADB1001215A4311480CF01BFA049C0B
:1015D000059DA54208D104980699091A002801D052
:1015E0000BF0CAF80BF070F923002068083398421A
:1015F00003D0A368591C0BF0BFF81834E9E7C046C4
:1016000038990110E407000006050000ABAAAAAA59
:101610006473011010B50AF0FDF910BD10B5040097
:101620000AF06AFA200010BD10B51C00431A029897
:10163000511A001B584306F0FBFC001910BDC046B0
:10164000F0B557464E46DE464546E0B587B00293B4
:10165000836881469C4603698A46049105920192FB
:101660009C4500D171E0C368591C9B461F231C0098
:101670008846CA1714404444D20E03916411891855
:10168000A4000B4064449B1A5CD462465146551A30
:101690005A460199ED00521AAD1867465E468846D3
:1016A000002D14DD002E33D00121013EB140002B6E
:1016B00034D00122013B9A403868084220D021688A
:1016C000013D0A432260002DECD1434601930123E2
:1016D000019A9340029A002A25D1524612689A43F1
:1016E0001300524613605B461F2B24D04B46039ACF
:1016F000DA6007B0F0BCBB46B246A946A046F0BDD2
:101700002168013D91432160002DDED0002ECBD118
:1017100080211F26043F0906002BCAD180221F23E7
:10172000043C1206C8E7524612681343524613603F
:101730005B461F2BDAD100234A46D360634604334D
:101740009360D6E72033043C9FE762460368D31AD0
:10175000C268DB009446604A6344934200D1B7E01C
:101760000122002B00D0A2E05B4B9A4200D91A0064
:101770001F3252099300180003930BF055FE4B469D
:101780001E68534683469C1BB24503D0220031009D
:1017900015F00AFB220001985A44011E00DC92E079
:1017A00055460023012780460DE014682043106051
:1017B0001F2B13D0581C9C1C3B00834001399C46B6
:1017C0000300002913D0380098402C680442ECD163
:1017D00014688443200010601F2BEBD101230139D2
:1017E0009C4601240023043504320029EBD14146F4
:1017F000150001911F2B01D10024151D029B002B08
:101800005DD0634611680B4313604B4652469B689C
:1018100001989A1A4B46DB68D2001B1AD218002A8C
:1018200028DDB446012156460CE047462B681F438D
:101830002F601F2814D001301F2C15D0013A01341D
:10184000002A16D00F000B00A7408340B846376827
:101850001F42EAD143462F689F432F601F28EAD1D9
:10186000002004361F2CE9D1013A00240435002A57
:10187000E8D16646002E0DD04B461B693000991BFF
:101880000AF07AFF00234A469360D3604B46083340
:1018900003CB03C24A46039B5B4413614B465A4643
:1018A0001A604A46002395605360D46021E75A00CD
:1018B000934200D858E7094B180003935DE761464F
:1018C00013688B43A0E7012315009C46012495E78C
:1018D00003480CF07FF8C046E0FFFF7FFCFFFF0FDE
:1018E000B0730110F0B5DE4657464E46454600231C
:1018F000E0B5036043608360C360036108339A46C8
:1019000083B0EB4682445E4653460D0006CB06C6C6
:1019100001235A46002152682B400400FFF790FE35
:10192000EB0FA2685B1921699B071700DB0F8A4246
:1019300000D114E1E06880461F2800D1F8E00130B2
:10194000E06001204646B040002B00D0A4E03B6898
:1019500083433B60EB1798460323464633405B19AD
:101960005B071000DB0F8A4200D1EBE0E668B1466E
:101970001F2E00D1C3E001264E44E66001264F46EB
:10198000BE40002B00D0B5E00368B34303600723DB
:10199000464633405B191B071000DB0F8A4200D11B
:1019A00011E1E668B1461F2E00D1BCE001264E448D
:1019B000E66001264F46BE40002B00D095E003684C
:1019C000B34303600F23464633405B19DB06100028
:1019D000DB0F8A4200D1E9E0E668B1461F2E00D154
:1019E0009CE001264E44E66001264F46BE40002B97
:1019F00000D075E00368B34303601F2346463340BD
:101A00005B199B061000DB0F8A4200D1C1E0E6683B
:101A1000B1461F2E00D17CE001264E44E66001262F
:101A20004F46BE40002B56D10368B34303603F23AB
:101A3000464633405B195B061000DB0F8A4200D13B
:101A40009AE0E668B1461F2E5ED001264E44E6605D
:101A500001264F46BE40002B26D10368B3430360E6
:101A60007F23404603405B191B06DB0F8A4227D0C9
:101A7000E0681F2861D0411CE16001218140002BFA
:101A80000ED0136819431160200003B0F0BCBB46B0
:101A9000B246A946A046F0BD3B681843386059E7F6
:101AA00013688B431360EFE733000668334303602A
:101AB0007F23404603405B191B06DB0F8A42D7D1C8
:101AC0005E46524603CA03C65A4620000099526831
:101AD000FFF7B6FDD8E73300066833430360A6E797
:101AE000330006683343036087E7330006683343F7
:101AF000036067E7330006683343036047E7002667
:101B00000432E660A26039E700260432E660A26093
:101B10009EE700260432E660A26080E700260432D9
:101B2000E660A26060E700260432E660A26040E75B
:101B300000200432E060A26003E70021E160111D93
:101B4000A1609AE75E46524603CA03C65A46200081
:101B500000995268FFF774FDA268216917E75E4695
:101B6000524603CA03C65A46390020005268FFF79E
:101B700067FDA2682169EDE65E46524603CA03C6C8
:101B80005A46200000995268FFF75AFDA268216961
:101B900066E75E46524603CA03C65A4620000099CD
:101BA0005268FFF74DFDA268216940E75E46524644
:101BB00003CA03C65A46200000995268FFF740FD49
:101BC000A268216919E75E46524603CA03C65A460F
:101BD000200000995268FFF733FDA2682169F1E601
:101BE000206800280BD02369191A0AF0C5FD0023CC
:101BF00022005146A360E36021C921C223610AF09B
:101C000063FEC0460368F0B54E46994657464546C2
:101C1000DE4614004A464368E0B50F00991AC91021
:101C20008A00521898461301D2181302D2181304CE
:101C3000D3185B00624A5B18824683B0934200D19E
:101C4000BBE00122002B03D05A00934200D9A9E047
:101C50004B46FD1A002A00D093E01823009300237E
:101C60009B4601935D44280026002368083008360F
:101C70002860B34200D19BE02B60A368AB6063682F
:101C800026606B60002363602372B9452ED04E46F8
:101C90005C464D46083609E02360AB681836A36001
:101CA0006B68183563601834BD4210D020000830CE
:101CB00020602B68B342EFD13100102206F036FECF
:101CC0006B681835636018361834BD42EED13B009E
:101CD0004A46183B9B1ADA083A4B5343DB00DB08B1
:101CE00002335A00D318DB005B440093B84530D070
:101CF0003E003D00009C083609E02360AB681836C2
:101D0000A3606B68183563601834454510D0200017
:101D10002B6808302060B342EFD13100102206F06A
:101D200005FE6B6818356360183618344545EED1EA
:101D30004346DF1B183F234BFF087B43DB00DB08D8
:101D400001335A00D318009ADB0094469C44634642
:101D500000934B46002B06D053464A469B684846A4
:101D6000991A0AF009FD53465A461A60009A5A60B9
:101D7000019A9A6003B0F0BCBB46B246A946A046A1
:101D8000F0BD0F4B9A4211D85600B618F60030003D
:101D90000BF04AFB330083465B44019318235B44FA
:101DA00000935FE74B46084EFD1AF0E71A00EBE799
:101DB0001022310006F0BAFD61E704480BF00AFE7C
:101DC00055555505ABAAAA0AF8FFFF7FCC73011041
:101DD000F0B5C64600B500688AB08846150014F014
:101DE000CFF806AE071E23D153E0012855D13A782B
:101DF00002A90A74320000210593D1546C68AB68C3
:101E00009C4233D0200008302060049BB34249D06C
:101E10002360069B0193A360059B636001936B683D
:101E200018336B604146002014F0AAF8071E30D02A
:101E30003800049614F03CF80400030003900F28C7
:101E4000D3D9002203A904A80BF0CAFE039B049077
:101E500006932200390006F069FD0021039B049AD5
:101E60000593D1546C68AB689C42CBD1210028000B
:101E700004AAFFF7C7FE0498B042D3D0069B591CB2
:101E800001930AF079FC4146002014F079F8071E0E
:101E9000CED10AB080BCB846F0BD32000028AAD02E
:101EA0003000D6E71022310006F040FDB4E7049878
:101EB000B04203D0069901310AF05EFC0AF004FD3D
:101EC00010B504002300C0692433984203D0636A2C
:101ED000591C0AF051FC230060680C33984203D06F
:101EE000E368591C0AF048FC200010BDF0B503005F
:101EF00045469046020057464E46DE460C33243295
:101F0000E0B54360C261002324228360037303624F
:101F10008354A9B003700B680CAD040099464F6858
:101F20000A95002B3ED022970F2F2BD8012F00D0DF
:101F30002EE128211B7802AA521813702A000023D0
:101F40000B97D3550B9B002203935F2303990093B8
:101F50000AA85E3B0BF01AFF4346002B03D00B9BF5
:101F60000393022B24D80A98A84203D00C9901317C
:101F70000AF002FC200029B0F0BCBB46B246A946DC
:101F8000A046F0BD22AE002231000AA80BF028FEC8
:101F9000229B0A900C933A00494606F0C7FC229F08
:101FA0000A9ACCE72A00002FC9D0D8480BF0FAFCD7
:101FB00000220023069207930023D54906AA0AA807
:101FC0000893FFF705FF079B069E0393991BC81014
:101FD00083001B181A019B181A029B181A049A18DE
:101FE00052001218302900D8A0E0002A00D148E1A0
:101FF00012AB10939846336877689946002B00D14E
:102000000AE122970F2F00D9B2E0012F00D017E18B
:1020100040211B7802AA52181370424600231197E0
:10202000D355079B069A03939B1A182B00D821E1DE
:1020300018AB994616939369D7699A46002B00D13D
:10204000F1E022970F2F00D9C7E0012F00D0F1E077
:1020500058211B7802AA521813704A46002317977A
:10206000D355079B069A03939B1A302B00D8FAE0AE
:102070001EAB9A461C93136B576B9B46002B00D1EB
:10208000BBE022970F2F00D997E0012F00D0DDE0B1
:1020900070211B7802AA52181370524622AE0023F8
:1020A0001D97D35524AB9B462293109B119F0393FE
:1020B000002B00D1A9E005970F2F6FD8012F00D07A
:1020C000CBE05A461B78337200237760D355179BB9
:1020D00030001A00169903930BF076FF22985845AA
:1020E00003D0B16801310AF047FB0123201D2370A2
:1020F00010A90BF0B7FD200016A91C300BF0B2FDA3
:102100001C98504503D01E9901310AF035FB1698F2
:10211000484503D0189901310AF02EFB109840452C
:1021200008D0129901310AF027FB03E00A99794897
:1021300006F0A8FE069E079FBE420CD03300306812
:102140000833984210D0B3681836591C0AF014FBB3
:10215000B742F3D1069F002F00D104E70899380059
:10216000C91B0AF009FBFEE61836B742E6D1F1E7D3
:1021700022AE0022310010A80BF032FD229B1090FD
:1021800012933A00494606F0D1FB229F109A45E788
:102190002A00002F00D1D2E62800FCE60022300001
:1021A00005A90BF01DFD059B2290B3603A00039931
:1021B00006F0BCFB059F229A86E722AE0022310082
:1021C0001CA80BF00DFD229B1C901E933A00594653
:1021D00006F0ACFB229F1C9A61E722AE0022310080
:1021E00016A80BF0FDFC229B169018933A0051465E
:1021F00006F09CFB229F169A30E7524622AE002F33
:1022000000D14CE741480BF0CDFB5A46002F00D1DE
:102210005AE73E480BF0C6FB4246002F00D1FDE6D0
:102220003A480BF0BFFB4A46002F00D116E737486B
:102230000BF0B8FB4A46002F00D10FE74846D5E720
:102240004246002F00D1E9E640469AE7524622AEC8
:10225000002F00D123E75046B8E75A46002F00D19F
:1022600032E75846A2E72C4ADB1002215A432B489A
:102270000BF0C8FB284ADB1001215A4327480BF01A
:10228000C1FB110025480BF0BDFB069E079FB7421E
:1022900030D106980899091A002801D00AF06CFA82
:1022A0000A98A84203D00C9901310AF065FA20007F
:1022B000FFF706FE0AF008FB1C98504503D01E9954
:1022C00001310AF059FA1698484503D0189901319E
:1022D0000AF052FA10984045D7D0129901310AF00D
:1022E0004BFAD2E722985845E6D0B16801310AF09E
:1022F00043FAE1E7330030680833984203D0B3680B
:10230000591C0AF039FA1836C1E7E3E7E8730110FF
:102310001474011018740110ABAAAAAA64730110F6
:10232000C5E7BDE7CFE7C046F0B54E464546DE46B9
:102330005746E0B597B005AB984603930023814616
:10234000102503AE554C337273606421534804F07A
:1023500051F8071E29D0A3691D42FCD12768FFB29E
:102360000A2F49D073689B4601235B449A46336821
:10237000434518D0B26892450BD85A469F545346ED
:1023800051467360002332680120535403F0BEFBB2
:10239000DBE70123002200935946002330000BF0B5
:1023A0009BFC3368E9E70F22E5E7242209AB1873A9
:1023B00098544B46187048460C305860143A0CA993
:1023C00006F0B4FA48464B4624309F60D86110228C
:1023D00012A906F0ABFA4B461F620398404503D0A2
:1023E000B16801310AF0C8F9484617B0F0BCBB46E5
:1023F000B246A946A046F0BD294B2A48196806F006
:1024000041FD039F0BAD74680995002F29D00294FC
:102410000F2C17D8012C2AD16A462C213B78521850
:1024200013702B0000220A9448461A5509A901325C
:10243000FFF75CFD0998A842CFD00B9901310AF053
:102440009BF9CAE7002202A909A80BF0C9FB029B6D
:1024500009900B932200390006F068FA029C099B50
:10246000E0E72B00002CDDD00F480BF09BFA2B008F
:10247000002CD7D02800EDE70398404503D0B16881
:1024800001310AF079F90AF01FFA0998A842F3D04D
:102490000B9901310AF070F9EEE7C04600400340A5
:1024A0002420002040740110E8730110962110B51B
:1024B000094C8901200003F02DFF0221002002F0C9
:1024C000D3FB0221012002F0CFFB1023E26A9343E9
:1024D000024A136010BDC046004003402C50034028
:1024E000F0B5DE4657464E464546E0B50768AFB004
:1024F0000CAB06000D009B4644680A93002F00D1E8
:10250000F3E128940F2C00D9BAE1012C00D016E297
:1025100028213B7802AA521813705B4600220B94C4
:102520001A550B9ACC4B03929A4200D11EE2CB4B28
:10253000012219000AA898460BF046FD6A6829682E
:102540000AA80BF041FD070012AB1093036808378F
:102550000400BB4200D1DBE11093836812936368EF
:10256000119300236360119A2372BB4B276003927F
:102570009A4200D1FDE10122414610A80BF024FD52
:10258000070018AB16939A46036808370400BB424D
:1025900000D1B7E1169383681893636817930023FB
:1025A00027602372376863601EAB74681C93002F2A
:1025B00000D194E128940F2C00D981E1012C00D0A6
:1025C000C2E170213B7802AA521813701EAB0022A0
:1025D0001D941A551CA806CD0BF0F6FC1D9C002C72
:1025E00000D1A9E101211C9D9D4B9E4E2C192A78FA
:1025F000100058405B08014201D073409BB2500864
:1026000058405B08014201D073409BB2900858408B
:102610005B08014201D073409BB2D00858405B0870
:10262000014201D073409BB2100958405B0801423F
:1026300001D073409BB2500958405B08014201D061
:1026400073409BB2900958405B08014201D073402F
:102650009BB2D2095A405B08114201D073409BB231
:102660000135A542C3D1DC4364BAA4B2092C00D819
:1026700062E1632C00D870E1FA239B009C4200D2F7
:1026800068E1794B042605219C4200D868E124AB1F
:102690002D2222A822930BF0C1FA229B0393632CD4
:1026A0001BD99C46714B013E98466F4B6644994638
:1026B0002000642105F0E4FC20004D00642105F0B9
:1026C000DFFC43465B195B782700737043465B5D14
:1026D00004003370023E4F45EAD8092C00D8DEE0F2
:1026E000624B64001A1952781C5D0399039B4A706F
:1026F0001C70179C239A169BA018534500D1D9E053
:102700001899884200D8D9E0229924ADA94200D175
:1027100010E1249DA84200D8EDE016A80BF054FC6F
:1027200006002AAF289703680836040028ADB34294
:1027300000D1F9E028938368AB6063686B60002385
:10274000636023726A68444B26609A4200D10AE1B2
:102750000122280046490BF037FC0822904606AEBD
:102760000496036880440400434500D1D6E00493F6
:1027700083680693636805934346236000232372AE
:1027800028986360B84203D0A968013109F0F4FFCA
:10279000229824AB984203D02499013109F0ECFF30
:1027A0001C981EAB984203D01E99013109F0E4FF3A
:1027B0001698504503D01899013109F0DDFF1098A3
:1027C00012AB984203D01299013109F0D5FF0A9853
:1027D000584503D00C99013109F0CEFF04992548E2
:1027E00006F050FB04980778002F1BD0224B0D21D8
:1027F00000255D5F002398468C4604002022414658
:102800001E4B00291BD1BD4220D099690A42FCD140
:102810001F60217801340D394F4279412778C9B2C0
:10282000002FEED1B04203D00699013109F0A4FF88
:102830002FB0F0BCBB46B246A946A046F0BD996990
:102840000A42E5D099690A42F9D1E1E799690A4259
:10285000FCD161461960D8E7FFFFFF3F14740110F7
:10286000FFFF00000884FFFF0F27000074740110B1
:10287000D48501106C7401108030002000400340AA
:10288000002228A90AA80BF0ABF9289B0A900C9308
:102890002200390006F04AF8289C0A9B3EE6039B7A
:1028A0003034E4B21C70179C239A169BA018534531
:1028B00000D025E70F21884200D925E722992CE78F
:1028C000002228A91CA80BF08BF9289B1C901E93B2
:1028D0002200390006F02AF8289C1C9B77E6002C81
:1028E00000D174E643480BF05DF8002C00D115E6EA
:1028F00040480BF057F800220021009422A80BF06A
:102900009FFA0DE710223900504606F00FF844E612
:102910001022390012A806F009F820E641463000DE
:10292000083206F003F825E710223100380005F0E0
:10293000FDFF02E70F25EDE600260121A7E6002CAA
:1029400000D1EBE51800A3E71EAB002C00D13EE65A
:102950001800BDE70226032199E60126022196E62A
:10296000013E013993E624480BF034F822480BF07D
:1029700031F821480BF02EF82898B84203D0A96806
:10298000013109F0F9FE229824AB984203D0249932
:10299000013109F0F1FE1C981EAB984203D01E993C
:1029A000013109F0E9FE1698504503D0189901311C
:1029B00009F0E2FE109812AB984203D0129901314F
:1029C00009F0DAFE0A98584503D00C99013109F054
:1029D000D3FE09F079FFF5E7F4E7D4E7DBE7E9E7B1
:1029E0000498B042F5D00699013109F0C5FEF0E730
:1029F000D1E7D8E7E873011054740110F0B5DE4652
:102A0000454657464E46E0B5B7B00391B82132ABC4
:102A10000592309304AAA94B5218138002233193D4
:102A2000002304AA023152181370C30F9B46C31728
:102A3000C5185D40092D00D869E2632D00D86CE20D
:102A4000FA239B009D4200D275E29D4B9D4200D827
:102A50006BE29C4B280098469B4B012499469B4B6C
:102A60009B4F9A4608E0464500D812E24E4500D8F2
:102A700011E2564500D826E29649060005F000FB13
:102A800023000434BE42EED808AB06935B462D22E9
:102A9000191906A80BF0C2F8069B9C46E344632D67
:102AA0001AD98D4E864BB0469946023C5C442800AC
:102AB000642105F0E5FA28004F00642105F0E0FAF2
:102AC0004346DB195B782E0063704346DB5D0500EF
:102AD0002370023C4E45EAD8092D00D9BEE13035BD
:102AE000EDB25B461D70079A7C4B04929A4200D16E
:102AF00023E27B4B0122190006A89A460BF064FAE8
:102B000005000EAB0C93036808350400AB4200D1FE
:102B1000DFE10C9383680E9363680D930023636079
:102B20002372039B2560DA0F0392DA179D18554034
:102B3000092D00D8E9E1632D00D8F0E1FA239B00CC
:102B40009D4200D2EDE15E4B9D4200D8EBE15D4B32
:102B5000280098465C4B012499465C4B5C4F9B4691
:102B600008E0464500D892E14E4500D895E15E4523
:102B700000D8A4E15749060005F082FA2300043486
:102B8000BE42EED8039E14AB2D22311912A8129327
:102B90000BF044F8129B9C466644B146632D1AD94B
:102BA0004D4E474BB0469B46023C4C4428006421A6
:102BB00005F066FA28004F00642105F061FA4346EB
:102BC000DB195B782E0063704346DB5D05002370E4
:102BD000023C5E45EAD8092D00D947E13035EDB217
:102BE0004B461D700D9C139A0C9B0EA9A0188B428E
:102BF00000D16AE10E99884200D844E1129914ADDF
:102C0000A94200D17DE1149DA84200D84EE10CA854
:102C10000BF0DAF9050018AB9B461AAB1893049336
:102C2000036808350400AB4200D164E118935B46A9
:102C300082689A605B4662685A6000235A46636005
:102C400023725268254B25609A4200D178E1012217
:102C5000514658460BF0B8F9050020AB1E930368A7
:102C600008350400AB4200D13FE11E9383682093F6
:102C700063681F93002363602372059B2560DA0F4E
:102C80000392DA179D185540092D00D841E1632DB4
:102C900000D840E1FA239B009D4200D247E1084B57
:102CA0009D4200D845E1074B28009846064B012479
:102CB0009946064B064F9A461DE0C04663740000D5
:102CC0000F2700003F420F007F969800FFE0F505B8
:102CD0009F8601001027000074740110FFFFFF3F62
:102CE00038990110464500D8CFE04E4500D8E4E0C1
:102CF000564500D8E5E0B849060005F0C1F92300C3
:102D00000434BE42EED8039E26AB2D22311924A8EE
:102D1000994624930AF082FF249B9C4666440396BE
:102D2000632D1BD9B446AD4BAD4E9A46B046023C1E
:102D300064442800642105F0A3F928004F006421B1
:102D400005F09EF94346DB195B782E00637043461D
:102D5000DB5D05002370023C5645EAD8092D00D8FA
:102D60008CE09F4B6D005A19527803995D5D4A7053
:102D7000039B20A91D701F9C259A1E9BA0188B42A7
:102D800000D1A4E02099884200D87AE024994945EE
:102D900000D1B8E0269DA84200D880E01EA80BF024
:102DA00013F907002CAE2A960368083704002AADF1
:102DB000BB4200D193E02A938368AB60636829002B
:102DC0006B60002327606360237230A8FFF788FBE5
:102DD0002A98B04203D0A968013109F0CDFC2498AB
:102DE000484503D02699013109F0C6FC1E9820AB56
:102DF000984203D02099013109F0BEFC1898049B39
:102E0000984204D05B469968013109F0B5FC1298EC
:102E100014AB984203D01499013109F0ADFC0C9821
:102E20000EAB984203D00E99013109F0A5FC06982B
:102E300008AB984203D00899013109F09DFC309805
:102E400032AB984203D03299013109F095FC37B08A
:102E5000F0BCBB46B246A946A046F0BD5A46604EFD
:102E60006D0073195B78755D53703AE64A465C4EA7
:102E70006D0073195B78755D5370B1E63035EDB256
:102E800076E724998AE71299C1E65C1D3BE75C1D51
:102E900078E65C1DF8E59C1DF6E59C1D72E60022B7
:102EA0000021009424A80AF0CBFF7AE70022002139
:102EB000009412A80AF0C4FFACE69C1D23E7DC1DB9
:102EC00060E6DC1D1FE7DC1DDEE50F2193E60F2128
:102ED00059E7102229000EA805F028FD1CE6102253
:102EE0003900300005F022FD68E71022290020A8F3
:102EF00005F01CFDBCE610222900049805F016FD23
:102F000098E60F2580E60F2545E701243AE60124DF
:102F1000BAE50124F7E60224F5E60224B4E502242A
:102F200030E603242EE604242CE60424ACE5032436
:102F3000E9E60424E7E60324A6E52A480AF04AFD68
:102F400028480AF047FD069808AB984203D0089934
:102F5000013109F011FC309832AB984203D032991C
:102F6000013109F009FC09F0AFFC2A98B04203D006
:102F7000A968013109F000FC2498484503D026993E
:102F8000013109F0F9FB1E9820AB984203D020993B
:102F9000013109F0F1FB1898049B984204D05B467C
:102FA0009968013109F0E8FB129814AB984203D0FC
:102FB0001499013109F0E0FB0C980EAB9842C2D095
:102FC0000E99013109F0D8FBBDE7C4E7DBE7F3E771
:102FD000D2E7E9E7DFE7C046102700000F2700002F
:102FE0007474011054740110F0B5DE46454657461E
:102FF0004E46E0B58FB008AB9B460AAB0893544BE6
:1030000002AA138402235A46536000239372C30F0B
:103010000193C317C5185D40092D00D87CE0632DCE
:1030200000D87BE0FA239B009D4200D27AE0494B16
:103030009D4200D874E0484B28009846474B012435
:103040009946474B474F9A4605E046455ED94E455F
:103050005ED956455ED94449060005F011F82300B3
:103060000434BE42F1D8019E04AB2D22311902A8CE
:1030700002930AF0D3FD029B9C466644B246632D40
:103080001AD93A4B023C9846324B54449946280090
:10309000642104F0F5FF28004E00642104F0F0FFE5
:1030A00043469B195B782F00637043469B5D050088
:1030B0002370023C4F45EAD8092D1FD83035EDB2B8
:1030C000534658461D7002A9FFF70AFA029804AB4E
:1030D000984203D00499013109F04EFB08980AABDD
:1030E000984204D05B469968013109F045FB0FB066
:1030F000F0BCBB46B246A946A046F0BD51461B4BAC
:103100006D005A1952785D5D4A70D9E75C1DAAE7D7
:103110009C1DA8E7DC1DA6E70124A4E70224A2E782
:103120000424A0E703249EE7029804AB984203D04E
:103130000499013109F020FB08980AAB984204D0A9
:103140005B469968013109F017FB09F0BDFBF3E715
:10315000636200000F2700003F420F007F96980037
:10316000FFE0F5059F860100102700007474011030
:10317000F0B5C64600B58EB004AC304B02941A8848
:1031800002AD22809B780AAEA37003236B600023FC
:103190000768EB720896002F3BD0380012F088FECB
:1031A000804601900F2825D801281ED16A46282183
:1031B0003B785218137033000022099008A91A5462
:1031C0002800FFF78DF90898B04203D00A99013121
:1031D00009F0D2FA0298A04203D0A968013109F09F
:1031E000CBFA0EB080BCB846F0BD33000028E3D067
:1031F000300007E0002201A908A80AF0F1FC019BB9
:1032000008900A934246390005F090FB0198089B0C
:10321000D2E70B480AF0C6FB0898B04203D00A99DF
:10322000013109F0A9FA0298A04203D0A96801313E
:1032300009F0A2FA09F048FBF5E7C04670740110E6
:10324000E8730110034B1A0008321A6000225A601A
:103250001A727047242000207047C046C06810B51D
:10326000002802D00368DB69984710BD0020704732
:1032700010B50400102109F07FFA200010BDC046EF
:1032800010B5102109F078FA10BDC04610B5040041
:10329000024B036009F088FC200010BD0C77011080
:1032A00010B50400044B036009F07EFC20000421EB
:1032B00009F062FA200010BD0C77011010B504006F
:1032C000024B036009F06AF8200010BDE47601109B
:1032D00010B50400044B036009F060F820002021C1
:1032E00009F04AFA200010BDE47601100023F0B581
:1032F000036043608360154B04000E0083B0D5006B
:103300009D4216D8002D0ED028000AF08DF84719DE
:103310002060A760002D0AD02A00310005F006FBCE
:10332000676003B0F0BD002705608560F8E707001F
:10333000F6E707480AF04EFB2068A168091A002842
:1033400001D009F019FA09F0BFFAC046F8FFFF7F73
:10335000C86D011070B5041E1FD02600E068FFF78D
:10336000F9FFB569A468002D11D06B68013B6B6053
:10337000002B0CD12B6828009B689847AB68013B59
:10338000AB60002B03D12B682800DB6898471C2119
:10339000300009F0F1F9002CDFD170BDF0B5C64660
:1033A000070000B500282ED0B846F868FFF7F6FFF2
:1033B0004346DC69BF68002C1FD02600E068FFF799
:1033C000C9FFB569A468002D11D06B68013B6B6023
:1033D000002B0CD12B6828009B689847AB68013BF9
:1033E000AB60002B03D12B682800DB6898471C21B9
:1033F000300009F0C1F9002CDFD12C21404609F042
:10340000BBF9002FD0D180BCB846F0BDF0B5C646A0
:1034100000B5F0B001283DD0D94A1368013B1360D4
:10342000002B14D1D74CD84D206800280BD0A368AE
:10343000191A09F0A1F923000C3BA54207D01C0082
:1034400020680028F3D123000C3BA542F7D1CF4AD6
:103450001368013B1360002B14D1CD4CCD4D206877
:1034600000280BD0A368191A09F086F923000C3B39
:10347000A54207D01C0020680028F3D123000C3B94
:10348000A542F7D1C44B9868FFF788FF70B080BCA5
:10349000B846F0BD0022C04B191DD96019611A71E0
:1034A0009A605A61B94B19684D1C1D60012D00D1FD
:1034B000A8E1B34B1A68571C1F60012F08D00420E5
:1034C00009F0B2FF0400FDF70FFCB44B1C60DDE710
:1034D0000023AD4E002233607360B360012362AC01
:1034E0005B426292639321003A00AD48269427978D
:1034F000FFF7FCFE01230C225B42629263932100E2
:103500000B3AA84824942592FFF7F0FE0123652288
:103510005B42629263932100643AA348229423920F
:10352000FFF7E4FE012371225B4262926393210064
:10353000703A9E4820942192FFF7D8FE0023220083
:10354000F36333647364B364F3643365984B9846F0
:10355000283323CB23C223CB23C203CB03C20422B1
:10356000210094481E941F92FFF7C0FE434622009C
:10357000483323CB23C223CB23C203CB03C2042271
:1035800021008D481C941D92FFF7B0FE4546220095
:1035900068350BCD0BC20BCD0BC20ACD0AC204227B
:1035A000210086481A941B92FFF7A0FE2200844B4C
:1035B0009846083323CB23C223CB23C203CB03C2B9
:1035C000042221007F4818941992FFF78FFE43468A
:1035D0002200283323CB23C223CB23C203CB03C235
:1035E00004222100784816941792FFF77FFE434685
:1035F0002200483323CB23C223CB23C203CB03C2F5
:1036000004222100714814941592FFF76FFE45467D
:10361000220068350BCD0BC20BCD0BC20ACD0AC2FE
:10362000042221006A4812941392FFF75FFE2200E1
:10363000684B9846083323CB23C223CB23C203CB4A
:1036400003C204222100644810941192FFF74EFE39
:103650000023B422B3500432B3500432B3500432C6
:10366000B3500432B3500432B350434622002833DF
:1036700023CB23C223CB23C203CB03C204222100CA
:1036800056480E940F92FFF731FE4346220048330E
:1036900023CB23C223CB23C203CB03C204222100AA
:1036A0004F480C940D92FFF721FE454622006835E5
:1036B0000BCD0BC20BCD0BC20ACD0AC204222100D6
:1036C00048480A940B92FFF711FE2200464B984699
:1036D000083323CB23C223CB23C203CB03C2042250
:1036E0002100424808940992FFF700FE4346220059
:1036F000283323CB23C223CB23C203CB03C2042210
:1037000021003B4806940792FFF7F0FD4346220054
:10371000483323CB23C223CB23C203CB03C20422CF
:103720002100344804940592FFF7E0FD454622004D
:1037300068350BCD0BC20BCD0BC20ACD0AC20422D9
:1037400021002D4802940392FFF7D0FD22002B4B5D
:10375000083323CB23C223CB23C203CB03C20422CF
:103760002100274800940192FFF7C0FD9622002314
:103770005200B3500432B3500432B3509FE6C046F7
:10378000FC1F0020682100203C2000200020002099
:103790000C2300207421002048230020B02A0020A0
:1037A0004820002054200020602000206C200020B1
:1037B000347A0110902000209C200020A8200020B6
:1037C000B47A0110B4200020C0200020CC200020BA
:1037D000D8200020347B0110E420002008210020A4
:1037E0001421002020210020B47B01102C21002076
:1037F000382100204421002050210020347C011079
:103800005C210020FA4F00233A607A60BA600022FF
:10381000629263930122002362AC6492659321005B
:103820000132F44860946192FFF760FDF24B9846D4
:103830002300424643CA43C343CA43C30322210071
:10384000EE485E945F92FFF751FD43462200183325
:1038500043CB43C243CB43C203222100E8485C94DC
:103860005D92FFF743FD43462200303343CB43C212
:1038700043CB43C203CB03C204222100E1485A9444
:103880005B92FFF733FD0023FB633B647B64BB6407
:10389000FB643B6543462200503343CB43C243CBDA
:1038A00043C203CB03C204222100D7485894599243
:1038B000FFF71CFD4646220070360BCE0BC20BCE26
:1038C0000BC20ACE0AC204222100D0485694579255
:1038D000FFF70CFDCE4E382231002000103105F0EC
:1038E00025F807222100CB4854945592FFF7FEFC9F
:1038F000310038224831200005F018F80722210055
:10390000C54852945392FFF7F1FCC44B98462300EC
:10391000424643CA43C343CA43C303222100C048AB
:1039200050945192FFF7E2FC43462200183343CBF8
:1039300043C243CB43C203CB03C204222100B94894
:103940004E944F92FFF7D2FC43462200383343CBCC
:1039500043C243CB43C203CB03C204222100B2487B
:103960004C944D92FFF7C2FC43462200583343CBA0
:1039700043C243CB43C203CB03C204222100AB4862
:103980004A944B92FFF7B2FC012300225B42629201
:10399000639321000132A64848944992FFF7A6FCA0
:1039A00001230C225B426292639321000B3AA148EF
:1039B00046944792FFF79AFC012365225B4262928C
:1039C00063932100643A9C4844944592FFF78EFC2F
:1039D000012371225B42629263932100703A9748FF
:1039E00042944392FFF782FC0023E422BB5004324E
:1039F000BB500432BB500432BB500432BB5046466D
:103A00000432BB50220078360BCE0BC20BCE0BC259
:103A10000ACE0AC204222100894840944192FFF74D
:103A200065FC2200874B9846183343CB43C243CBF7
:103A300043C203CB03C20422210083483E943F9239
:103A4000FFF754FC43462200383343CB43C243CBF9
:103A500043C203CB03C2042221007C483C943D9224
:103A6000FFF744FC43462200583343CB43C243CBC9
:103A700043C203CB03C20422210075483A943B920F
:103A8000FFF734FC4646220078360BCE0BC20BCE35
:103A90000BC20ACE0AC2042221006E483894399221
:103AA000FFF724FC22006C4B9846183343CB43C2EB
:103AB00043CB43C243CB43C21B68210013600522A2
:103AC000664836943792FFF711FC43462200403394
:103AD00043CB43C243CB43C243CB43C243CB43C29A
:103AE000062221005E4834943592FFF7FFFB4646DC
:103AF000220070360BCE0BC20BCE0BC20ACE0AC20E
:103B000004222100574832943392FFF7EFFB220042
:103B1000554B9846103343CB43C243CB43C203CBF0
:103B200003C204222100514830943192FFF7DEFB9A
:103B300043462200303343CB43C243CB43C203CB83
:103B400003C2042221004A482E942F92FFF7CEFB95
:103B500043462200503343CB43C243CB43C20322EC
:103B6000210044482C942D92FFF7C0FB46462200CA
:103B700068360BCE0BC20BCE0BC20BCE0BC233681A
:103B80002100136005223C482A942B92FFF7AEFBDC
:103B900022003A4B103343CB43C243CB43C20322F0
:103BA0002100374828942992FFF7A0FBCC2200235C
:103BB0005200BB500432BB500432BB5079E40421A4
:103BC000200008F0D9FD08F07FFE2224651B163C7A
:103BD0006C433C19BC42F6D00C3C2068A368191A0F
:103BE0000028F7D008F0C8FDF4E70225EDE7C0464D
:103BF0007421002080210020347701108C210020C6
:103C000098210020A4210020C8210020D4210020D8
:103C1000B4770110E0210020EC210020347801105D
:103C2000F821002004220020102200201C22002065
:103C30002822002034220020402200204C22002094
:103C400070220020B47801107C22002088220020FD
:103C500094220020A022002034790110AC22002000
:103C6000B8220020C4220020B4790110D022002004
:103C7000DC220020E8220020F4220020347A011007
:103C8000002300200A25A0E70B259EE70C259CE7D2
:103C90000D259AE7102598E7112596E7122594E758
:103CA000132592E7062590E707258EE708258CE780
:103CB00009258AE7042588E7052586E7032584E7A3
:103CC000142582E705271924E71B0D3C7C43341992
:103CD000B44200D177E70C3C2068A368191A002889
:103CE000F6D008F049FDF3E70627ECE70727EAE7F7
:103CF0000827E8E70B27E6E70D27E4E70E27E2E7CA
:103D00000C27E0E70F27DEE71527DCE71627DAE7C1
:103D10001727D8E71827D6E71127D4E71227D2E7C5
:103D20001027D0E71E2550E71F254EE720254CE73A
:103D300021254AE7C7E70227C5E70327C3E704278A
:103D4000C1E7182541E719253FE71A253DE71B255F
:103D50003BE7162539E7172537E7152535E7C04630
:103D6000F0B5C64600B5244E84B02449300007F0B3
:103D700047FF0321022000F077FF0321032000F01A
:103D800073FF00220121022000F086FF00220121A2
:103D9000032000F081FF1A4B012500249846194F9B
:103DA00007E05C2C1AD0682C1FD0802D20D0013465
:103DB000013578231A0022402342F6D0782AF4D025
:103DC00000230F2200933000E1B201336A4407F070
:103DD000A9FF002804DCE8D1232CE2D13C60E6E70F
:103DE0002100094805F04EF8F6E743461C60DEE77F
:103DF00004B080BCB846F0BD28150020A0860100A4
:103E0000401400203C14002040750110F0B5184EFD
:103E100085B03168002927DB01250023154F03AC4D
:103E200023702200C9B201333800009507F012FF59
:103E300031780123220025703800009507F00AFF31
:103E40000723317823702200063B3800009507F0E5
:103E500001FF132331782370220038000095123BB4
:103E600007F0F8FE05B0F0BD034805F00BF8F9E7E0
:103E70003C140020281500205475011070B5294C01
:103E8000294D2368294E9A002868925984B0821AD5
:103E90002A60274A116800291FDB002303AA009328
:103EA00024480233C9B207F03DFF6B466A461B7BCC
:103EB000527B00282FDD1802801804F0B5FB1E4A43
:103EC0001E4B04F02AFB04F0C7FB23689A0000286D
:103ED0001CDB90512A6894466044013328601D2BF6
:103EE00000DD00231E21236004F0A2F8FF2314222A
:103EF00000930021FA3BFDF797FB052802DA052025
:103F000004B070BDFF28FBDDFF20F9E790592A6857
:103F100094466044E1E723689A0090592A689446E1
:103F20006044DAE7DC2E00200C290020E02E00207F
:103F30003C1400202815002033333333333303403F
:103F4000F0B54746CE460022002380B589B00492E2
:103F500005930023804604AA080052490693FDF702
:103F600037FF049B00269946059B002503934B458C
:103F70006AD04D4F8021404608F016F9059A049BFF
:103F80000392D01AC010810009180A0189180A0288
:103F900089180A048A1852001218AA4265D9002208
:103FA0000024914621E03868002808D01B6841466B
:103FB0001A5D4B46303A0093002300F02DFEFA20A4
:103FC000800001F0A3FD059A049B0392D11AC91049
:103FD0008A00521810011218100212181004121838
:103FE000520052180134AA423FD99B195A68A24282
:103FF000D9D80A21404608F0D7F8FA20C00001F0CD
:1040000085FD059B049C99461A1BD21093009B18B2
:1040100019015B1819025B1819045B185B00013564
:104020009B181836AB42A5D84C450DD0230020680C
:104030000833984215D0A3681834591C08F09CFB2B
:10404000A145F3D1049B99464B46002B04D0069919
:104050004846C91A08F090FB09B0C0BCB946B04642
:10406000F0BD1834A145E1D1ECE729000F4809F073
:10407000C9FC049C059DA54208D104980699091A1B
:10408000002801D008F078FB08F01EFC230020680F
:104090000833984203D0A368591C08F06DFB18340C
:1040A000E9E7C046D49F0110B02A002064730110D4
:1040B000F0B546464F46D6468468031DC0B58846CF
:1040C00006009946002C67D04D460B6803E025009A
:1040D000A468002C05D022699342F8D9E468002C2A
:1040E000F9D1A94558D02A6993422DD22C2009F044
:1040F0009BF943461B6884620361984603001833AA
:10410000036243622B6907009A460476C461434503
:1041100021D9F3689A46AB420BD0280009F054FB32
:1041200003690400434500D38BE0C368002B00D132
:1041300076E02C003D0001204B462200290009F0CA
:104140005FFB73690133736128001430E0BCBA4629
:10415000B146A846F0BDC24516D23369AB4209D07C
:10416000280009F01BFB0369040043455AD9EB689A
:10417000002BDFD12C003D002AE02300002945D18F
:1041800090453ED82F0025000020FFF7E3F82C21B2
:10419000380008F0F1FAD7E72C2009F045F943463A
:1041A0001B6802009846036100230376C3618362A3
:1041B00073691832050002624262002B0CD0346928
:1041C0002369434508D20120A145B5D023699A4609
:1041D000D04580414042AFE7B468002C05D114E0DF
:1041E0000121A368002BC8D01C0022694245F7D8E2
:1041F0000021E368F6E72B00002932D19045C3D9AE
:104200003D00002B41D01C00DDE74C46F368A34283
:10421000D9D0200009F0D8FA230002690400AFE7E2
:104220003D00D0E7B568002D05D12CE00121AB6839
:10423000002B1FD01D002A699045F7D30021EB68A1
:10424000F6E7B568002D05D10AE00121AB68002B27
:10425000D1D01D002A694245F7D80021EB68F6E766
:104260004D46AA450CD0280009F0AEFA2B00026991
:104270000500C3E72B000029C0D0F368AB42F2D1A0
:104280002B003D00BDE74D46F7E72F0000257BE7FB
:1042900070B504680500002C11D06368013B6360B1
:1042A000002B0CD1236820009B689847A368013B32
:1042B000A360002B03D123682000DB689847280007
:1042C00070BDC046F0B5DE46454657464E46E0B5A1
:1042D000A3B004F0E3FD192000F0F6FCD023802207
:1042E0001B0692045A625A61FEF7E0F8FA20C000F9
:1042F00001F00CFC16ADD24804F0C4FDFDF78AF9BC
:104300002A00D04B149503CB03C208231593002336
:1043100014AC20002374FDF7F1F81498A84203D0E0
:10432000A368591C08F028FAFFF71AFDFFF76EFD85
:104330000023C54F09AD290038000993FFF7B8FEE7
:104340008368061D002B09D01A009B68002BFBD147
:10435000964203D01369002B00D195E12900380063
:10436000FFF7A6FE0430864200D02AE2202009F0A2
:104370005BF80023049303330393023B029301335E
:104380000193713300930022B049633B060008F0AB
:1043900099F8002310200E960F9309F045F8012399
:1043A00043608360AA4BC66003600F902900380009
:1043B000FFF77EFE8368021D07009146002B00D1A7
:1043C0009DE11E009B68002BFBD1B14502D03369F3
:1043D000002B14D01C2009F027F80023804603612D
:1043E000436183614E4500D163E13369002B00D006
:1043F0004CE14046B0461C2108F0BEF946460E9BF3
:10440000B76973610F9B9846BB4218D0002B03D04D
:1044100042465B6801335360002F0ED07B68013B3E
:104420007B60002B09D13B6838009B689847BB68CC
:10443000013BBB60002B00D14BE14346B3610F9BB6
:104440000E990F9A14911592002B02D05A680132DE
:104450005A6021000BA807F081FE15A8FFF718FF8E
:104460000FA8FFF715FFD02380221B0692049A6144
:10447000784B794F9946794B98462800FDF7CEF84E
:104480000523EB5607269B460623EB56AE579A4666
:104490003B689E420AD04B4618683E60002805D013
:1044A00053465A4600960BA900F0B6FB43461B68DC
:1044B000534507D05246434651461A60584632008B
:1044C000FEF79CFA664E3068002858D0654B18609D
:1044D0009A46654B1A68824207D01860FEF784FD41
:1044E00053460BA8197807F05FFE2000FDF71CFF6C
:1044F0002378002B2CD0E26961685C4804F0C2FC90
:104500005B4915A809F08AFD00283BD110AB9A46FB
:104510000E93E369266A9B46002B74D008960F2EF3
:1045200062D8012E00D0A9E038211B7802AA5218C7
:104530001370524600230F960EA89355FCF7DEFF2A
:104540000E98504504D0109B591C079308F014F99D
:10455000642001F0DBFAE0691DAB984203D0636A86
:10456000591C08F009F9606817AB984285D0E368D8
:10457000591C08F001F92800FDF750F880E7FFF713
:104580007DFCA3E73B4915A809F048FD002809D1A7
:10459000E06910F0A5FC00283ADBFF2800DDFF20D1
:1045A0003060D5E7344915A809F038FD0028CFD18F
:1045B00010AB9A460E93E369266A9B46002B39D0CE
:1045C00008960F2E27D8012E00D092E038211B78B4
:1045D00002AA52181370524600230F960EA9935543
:1045E0000BA8FFF7ADFCABE7002208A90EA809F065
:1045F000F7FA089B0E9010933200594604F096F992
:10460000089E0E9A96E7002E00D099E0524691E758
:10461000002030609CE7002208A90EA809F0E0FA0B
:10462000089B0E9010933200594604F07FF9089EC3
:104630000E9AD1E7002E00D07FE05246CCE7C0466C
:10464000687501107075011048230020000020508B
:1046500020770110B02A00204814002044140020C4
:104660003C2A002038140020BC2E00207C7501104C
:10467000289E01108C750110907501105246002E75
:1046800000D157E75046B7E7160067E6F9688E4253
:1046900024D001224E469446BB6803E062469868E7
:1046A0001E000300002B37D01A69002AF6D1D86803
:1046B000F6E7BE689E423ED0012104E00A00B368DE
:1046C000002B1ED01E003369002BF7D10022F368A7
:1046D000F6E73B683800DB689847AEE601204B46BA
:1046E0003200414609F08CF87B69464601337B6114
:1046F00085E65246002E00D16EE7504693E716003D
:1047000068E6002A00D174E6FB68B3420CD03000A2
:1047100009F05AF806006CE6002A00D169E6B142B9
:10472000F5D1002E00D164E6B145D7D03069431EE3
:104730009841C0B2D3E74E46E6E72E4809F032F979
:104740002C4809F02FF90E98504503D010990131EB
:1047500008F012F8E0691DAB984203D0636A591C57
:1047600008F00AF8606817AB984209D10BA807F067
:1047700001FD08F0A9F80FA8FFF78AFD08F0A4F8DA
:10478000E168013107F0F8FFF0E71498A842F0D093
:10479000A168013107F0F0FFEBE708F083F9300082
:1047A000FEF796FD08F008FE08F0B6F908F08CF860
:1047B0002021300007F0E0FF08F086F8C3E7C9E7E2
:1047C000D4E7042008F042F80400042008F02CFE8E
:1047D000094B2060036000222000084908F0D2FD48
:1047E00015A8FFF755FDC6E7200008F045F808F0CA
:1047F0006BF8C046E87301100C7701107876011051
:1048000010B50120FEF702FE10BDC0467047C0463D
:1048100010B50400042107F0AFFF200010BDC04612
:10482000014B083303607047047D011030B5100060
:104830000D0083B0032948D03C2103F0F9FB8C0024
:10484000A9006D1828012D186519EDB22B2128003B
:1048500003F016FCFF21C2B28006801A8000801887
:10486000800080188000801840194300C3185B0046
:10487000DBB21802C01A0012081ACB1A0402201A5E
:104880001C02E31A1B12CB1A1902C91A00120912D0
:10489000C0B2C9B2042A03D8154C9300E3589F460E
:1048A00002000021FF2001AB9A700022187059709D
:1048B000DA70597818789A780902DB78120408437C
:1048C0001B061043184303B030BD0A4B019301ABE4
:1048D000EFE70022FF21E6E70100FF220020E2E7E8
:1048E0000800FF220021DEE70A000020FF21DAE7AE
:1048F0005C7C01108080808010B50C6888B00A2C28
:104900001ADC4A68092A17DC93009B1858008018A3
:10491000D3070FD5001B0A30C343DB0F0A2800DD85
:104920000133622800DD01336D2800DD0133C0183A
:1049300008B010BD0019EFE71C23002201A904AC48
:1049400002A80193029409F04BF9019B1C220F4924
:104950000493029003F0EAFF0022019B0299039363
:1049600002A8CA54FEF704FC0298A04203D004999E
:10497000013107F001FF0020DAE70298A04203D0DE
:104980000499013107F0F8FE07F09EFF707C0110DA
:10499000F0B54E4645465746DE46E0B598461668A1
:1049A000536881468A46150089B09E4263D03C21F7
:1049B000129803F03DFB43469B00434418011B182B
:1049C0008C00E418E4B22B21200003F059FBC7B29D
:1049D000BC46FF218006C01B80006044800060440C
:1049E0008000604400194300C3185B00DBB21A0268
:1049F000D21A12128A1A1002821A1212CB1AD2B2C8
:104A000002921A02D31ABA00934600241B12C91A42
:104A10000B02591A0912CBB203932F4B01979B44F7
:104A2000E300F618736837685A1C3BD006A948465D
:104A300007930697FFF760FF4346411C032B42D0C4
:104A4000019B042B44D85B461B689F460020FF2235
:104A5000029B0026120200041A4302433606324328
:104A60005046059207F0A6FB2E686B6801349B1B2D
:104A7000DB10A342D4D809B0F0BCBB46B246A9466D
:104A8000A046F0BDFF230198039AE2E7FF20002231
:104A9000039BDEE7FF200023029ADAE7FF220023D0
:104AA0000398D6E7129A41464846FFF7BFFE7321A6
:104AB00006000490380003F0BBFA32005046013182
:104AC00007F078FBD0E78026802080228023C1E792
:104AD0000022FF230298BCE7907C0110F0B5D64677
:104AE00046464F464B4BC0B59A468AB002AD2B00A6
:104AF00052460F00060013CA13C313CA13C303CAD6
:104B000003C3202008F090FC20222900804603F0F7
:104B10000DFF002300220292039300232020AB60AC
:104B200008F082FC2023994681444B4620224146CE
:104B30000290AB6003F0FAFE4B466B60129B2A00BA
:104B40000093390000233000FFF722FF029800286D
:104B500003D0AB68191A07F00FFE54462A00203420
:104B60000BCC0BC20BCC0BC220200ACC0AC208F023
:104B70005BFC20222900040003F0D8FE0023002261
:104B80000292039300232020AB6008F04DFC202309
:104B9000994681444B46202221000290AB6003F0ED
:104BA000C5FE4B466B60129B2A000093390001231F
:104BB0003000FFF7EDFE0298002803D0A968091A1B
:104BC00007F0DAFD2000202107F0D6FD2021404625
:104BD00007F0D2FD0AB0E0BCBA46B146A846F0BD27
:104BE0002021404607F0C8FD07F06EFE0298A96834
:104BF000091A002801D007F0BFFD2021200007F08E
:104C0000BBFDEDE7F9E70298A968091A0028F6D17B
:104C1000E6E7C046A47C0110F0B5C64605000C00CE
:104C200016001F0000B5080082B007F08BFB089A41
:104C30002B6800921B683200984621003B00280038
:104C4000C047200007F090FB02B080BCB846F0BD22
:104C50000022044B191D1A719A60D96019615A61BA
:104C60007047C04660230020094A830094464022D2
:104C7000634410B51C68C0006240C0241440802208
:104C8000520113431C60034B9C466044416010BDBD
:104C900004C00140004001400A4B80009C460423B0
:104CA0006044002901D00C230821002A00D10B0008
:104CB000026853400C221A4080235B0118430260B3
:104CC0007047C04604C001400123D0228340120631
:104CD00093629361094A83009446402263441968B1
:104CE000C0004A40C0211140802252011343196084
:104CF000034B9C46052360444360704704C0014059
:104D000000400140EFF3108072B6034A1368002B95
:104D1000FCD0BFF35F8F70472C0100D0BFF35F8FD3
:104D20000022024B1A6080F3108870472C0100D0DB
:104D300070B5EFF3108C72B60D4D2B68002BFCD0C4
:104D4000BFF35F8F0724CB08C618C05C01230C405B
:104D5000A3401C000440034207D103433370BFF358
:104D60005F8F2C608CF3108870BD100001F0EAFB9F
:104D70002C0100D0F8B54746CE46884680B5EFF303
:104D8000108C72B6214D2C68002CFCD0BFF35F8FC5
:104D90009A422CD8D4080727055D0619012417402C
:104DA000BC402C421FD007210127894609E0D408C6
:104DB000055D06194C4639001440A1400C002942FB
:104DC00011D001329342F2D201204042BFF35F8FF3
:104DD00000220E4B1A608CF3108800280FDBC0BC39
:104DE000B946B046F8BD2C4310003470EEE7BFF36F
:104DF0005F8F00232B608CF31088012040424346D4
:104E0000002BECD0089801F09DFBC0462C0100D08F
:104E1000024B18688007C00F7047C04600C00640AC
:104E20000021044B044ABFF35F8F02C39342FAD1BF
:104E30007047C046000100D0800100D0044A1078BD
:104E4000431CDBB2172B00D9102313707047C046E8
:104E50004C14002000B5054B83B0010000931822CC
:104E60001F230348FFF786FF03B000BD187D011024
:104E7000102A002001238340002904D0034A136034
:104E8000034A13607047034A1360FBE780E200E0C7
:104E900000E100E080E100E001238340014A13606B
:104EA0007047C04600E200E0084B10309B6880006D
:104EB000C358002B07D0064A00209B1A2F229A4283
:104EC0004041C0B270470020FCE7C04600ED00E062
:104ED00050140020024B10309B688000C05870476F
:104EE00000ED00E070B50D00EFF3108672B60F4ACA
:104EF0001368002BFCD0BFF35F8F0D4B10309B6805
:104F000084001B590B4A934203D09D4201D001F00B
:104F100031FB074B9B681D51BFF35F8FBFF35F8F62
:104F20000022024B1A6086F3108870BD240100D065
:104F300000ED00E0CD010010F0B557464E46DE46CC
:104F40004546E0B585B0060002911700EFF3108BDF
:104F500072B6674A1368002BFCD0BFF35F8F002541
:104F6000644B5D579A46002D00DAA5E06B00624C59
:104F700003935B199B009846A146C1444B46524699
:104F80009B79103613705D4BB2009B680192995863
:104F90000B1B2F2B34D95A4B994200D0A5E0039B11
:104FA000584A9C46584B6544AD0063534346023310
:104FB0006519E418554B0121043B1B1B1B055B0DB8
:104FC00013436B80524BEF71AB80FF23AB71029B9D
:104FD000AB604B460B431900484B019A9B689950B4
:104FE000BFF35F8FBFF35F8F0022414B1A608BF3DB
:104FF000108805B0F0BCBB46B246A946A046F0BD3D
:1050000001200A008243D379BB422FD845464E4641
:10501000130040491B1B5B415943090D3A4B635335
:105020003A4B02356519043B5B1B1B05354D5B0D87
:105030002B4373800426B446E0444444131F1B1BD7
:105040004C46A17102991B05A16049465B0D2B439B
:10505000A380314BE77101431360BDE75800C018CE
:1050600080002018C679BE422CD902000623D356F0
:10507000002BF3DA101D8246BD2000028046042674
:105080007642B446E14450464E46361A3005400D4D
:10509000824656461B48957106439680039A94466D
:1050A00065441D4AAD00641922604246A371029B0B
:1050B000A280E771A3608FE701F05CFA00255346F8
:1050C0005D5753E7101D82469088400500158446C1
:1050D0004046D444664604302018301AE0260005C5
:1050E000400D360230438046C9E701F043FA56E7E7
:1050F000240100D09F3000205014002000ED00E07B
:10510000CD01001000E0FFFF00A1FFFF8014002090
:1051100000BDFFFFAAAA000001488047F0B5DE46A7
:1051200057464E464546E0B50C0083B0EFF3108A73
:1051300072B65A4A1368002BFCD0BFF35F8F10225F
:10514000914681444A46564B96009B689D59554B63
:1051500098469D4205D0A54216D0534FEB1B2F2BEE
:1051600014D94F4B9B689D51BFF35F8FBFF35F8F87
:1051700000224A4B1A608AF3108803B0F0BCBB4689
:10518000B246A946A046F0BD1D00EAE701238340D0
:105190009B465A46454B1B681A4000925A46444B60
:1051A0001A60BFF35F8FFBF75EF80190002803D011
:1051B000814501D001F0DEF901232A009A4393686A
:1051C0009C4208D15FE04B005B189B00FB1899687C
:1051D000A14211D01A00062151560029F3DA009B92
:1051E000002B05D05A46334B1A60304B1A60B8E793
:1051F0005A462F4B1A60B4E706215956002921DB85
:105200004A00501880003C188046A0689860E079F9
:10521000D871062020569871002824DBA488F81A3B
:105220006405241544440019E0240005400D2402BF
:10523000204398805218204B9200BF181A7819709A
:10524000BA71CCE70199002910D1FF3191711B4946
:10525000918019490A789A71194ADB1B5B415A43BC
:10526000120D0A70BBE7BD200002E2E7154A16499D
:10527000D21A083A5002400D01439980134952084E
:105280000A43DA80ABE70621515613000029B7DA4A
:10529000019A002AEAD14546DBE7C046240100D046
:1052A00000ED00E0CD0100105014002000E100E00E
:1052B00080E100E080E200E09F30002000BDFFFFC1
:1052C000AAAA00008A14002000F0FFFF00F8FFFFE8
:1052D000F8B5012504000543FAF7C5FFEFF3108C7C
:1052E00072B6214A1368002BFCD0BFF35F8F1F4EAC
:1052F0002100B7681E4A1F4B891A49414B431B0DB9
:1053000059B28300F858A8421CD00623D3568B42CA
:105310001CD01223D3568B4222D01E23D3568B424D
:1053200020D02A23D35603208B4210D0124B1A7858
:105330001970A271BFF35F8F00220B4B1A608CF3C0
:105340001088F8BDB2680D48D050EFE70020430048
:105350001B189B00D218FF239371094B9380E5E73C
:105360000120F4E70220F2E7240100D000ED00E084
:1053700050140020AAAA00009F300020CD01001088
:1053800000BDFFFF054B064A1360064A13605360D9
:105390009360D36013615361936170478080808014
:1053A00000E400E004E400E0D02300B51B061B6825
:1053B0000100074883B0C018064B00220093052364
:1053C000FFF7D8FC002801DB1F23181A03B000BD2B
:1053D00098300020347D0110024B9C4661448900C6
:1053E000016070474000003483680B4810B5844664
:1053F00061446244090112019A18591854684B68B3
:1054000001209C4201D802D00020C0B210BD126819
:105410000B689A42F9D8F7E7FFFFFF0F0A4B1968AC
:10542000EFF3108072B60A68002AFCD0BFF35F8FDA
:105430001B68BFF35F8F00221A6080F3108840BFA3
:10544000002000217047C04664300020F8B5574660
:105450004E464546DE46E0B599460CAB1C780DAB92
:105460001B78060090469A460768002C11D1BC7B39
:10547000002C42D065003B682D19033D59194B782B
:10548000BB73002B00D1FB7300238B704B700B7030
:1054900004E065003B682D19033D5919B2682A4B99
:1054A00094464246E3181B0163441A604A465A6018
:1054B0000A9A9A600B9ADA6000238B704B700B701B
:1054C0007B7B9B46002B2BD022005946B8687B681B
:1054D00098473A68002816D05B4658465B005B4404
:1054E0005519033BA870D118D35C002B00D06B700A
:1054F0005B460C707B73A34513D0F0BCBB46B24631
:10550000A946A046F8BD5B465B005B44033BD3184D
:105510009C705119525D002A00D05A705B460B7086
:105520007C7342464B46307D00F068FC051E06D079
:105530005346002B03D12100306800F081FE0E9B02
:10554000002BDAD01D70D8E7FFFFFF0FF0B5DE4665
:105550004E46574645460023E0B58DB00A936B4B47
:105560008200D3580B90994600239B464B460793E5
:1055700000F0BAFB079C06000F006268EFF310858D
:1055800072B61368002BFCD022000794BFF35F8F24
:105590002468637B9946002B67D092685C4B9046E9
:1055A0004B441B01984443461A685B68100019007D
:1055B000801BB94100295FDD0B9800F01FFC002320
:1055C0000026984600279A46079C6368BFF35F8FC2
:1055D0005A461A6085F310885346002B08D10028DC
:1055E000C6D10DB0F0BCBB46B246A946A046F0BD40
:1055F0000A9B414618024B461843D0470890099130
:105600006268EFF3108572B61368002BFCD0079424
:10561000BFF35F8F0899099A002A48DB114303D032
:10562000079B1B69002B5DD1079B1B68D97B002959
:1056300007D04A00521819688C4649466244033A1A
:1056400051704A46DA734B46079A013BD168CA5CEF
:105650000132CA545B46079A13615368BFF35F8FE8
:105660005A461A6085F3108882E700230026984680
:1056700000279A460020A7E7002901D100289BD1E6
:105680000021200000F05EFD43461E685F689B68B5
:10569000079A9A464346DB689846D3684B44013BD9
:1056A0001B780A931B020343136100208CE72369D4
:1056B000002BB9D033003C005B1A94411A00230040
:1056C000A74219D89F421BD059460491012103914A
:1056D0004946029141460191514607980091FFF7D2
:1056E000B5FEB7E700F000FB089A099B06000F0023
:1056F00092197B419942E5D901225242D317E3E73F
:105700009642E1D901225242D317DDE7CC2E002088
:10571000FFFFFF0FF8B557464E464546DE46E0B55B
:10572000404D81468A466A68EFF3108872B6136866
:10573000002BFCD0BFF35F8F2E68B47B002C39D0D8
:10574000670033683F19033FDB195A78B273002AA8
:1057500000D1F273A968344A8C464946A218120156
:105760006244116051465160304991600021D1601E
:10577000997059701970737B9B46002B35D02200AD
:105780001900B068736898473268002820D05B46DB
:1057900058465B005B44D719033BB870D118D35C03
:1057A000002B00D07B705B460C7073735C451DD082
:1057B000002626E06B68BFF35F8F1C6088F31088BB
:1057C00001204042F0BCBB46B246A946A046F8BD07
:1057D0005B465B005B44033BD3189C70D119D25DE0
:1057E000002A00D05A705B460B7074734A465346C9
:1057F000287D00F003FB061EDAD02100286800F0A7
:105800001FFDEB681B19013B19786B68BFF35F8FB5
:1058100000221A6088F310880020002ED2D10802DE
:105820002043CFE798140020FFFFFF0F1D54001006
:1058300010B5124C6368002B04D00A211048FFF702
:10584000CBFD10BD23000F4A1021206800F098FB0B
:10585000032000F03DFA032000F040FB03200A493A
:1058600000F086FAFFF7EAFA084B9C4603236044EF
:105870002375074B80006060DC60DEE79814002031
:1058800064300020E95300104D55001040000034F2
:10589000CC2E00200048704798140020F0B55746E1
:1058A0004E464546DE46E0B585B0019310AB1B7809
:1058B0000600039300239A46984600927268EFF31D
:1058C000108972B61368002BFCD0BFF35F8F356868
:1058D000AC7B002C49D067002B683F19033FDB19D4
:1058E0005A78AA73002A00D1EA73B1684F4A8C46ED
:1058F00000980199A21812016244106051600E993B
:1059000091600F99D16042469A705A701A706B7B01
:105910009B46002B45D022001900A8686B68984769
:105920002A68002830D05B4658465B005B44D71994
:10593000033BB870D118D35C002B00D07B705B4662
:105940000C706B735C452DD0F3681B19013B187804
:105950007368BFF35F8F42461A6089F3108853461D
:10596000002B2CD10002204307E07368BFF35F8F48
:105970001C6089F310880120404205B0F0BCBB4692
:10598000B246A946A046F0BD5B465B005B44033BC4
:10599000D3189C70D119D25D002A00D05A705B4692
:1059A0000B706C73307D009A019B00F027FA8246E1
:1059B0000028C9D02100306800F042FCC4E7039BF6
:1059C000002B30D00E9B00200F9998470300040055
:1059D0000D000B4327D000290DDA00980199020031
:1059E0000B00121BAB41994213D818D000920193BF
:1059F000039B9A4662E700F077F902000B00A418B7
:105A00005D4100940195A94203D8F1D100998A42E1
:105A1000EED901235B42DC1700930194E8E700997B
:105A20009142E3D9F5E70020A7E7C046FFFFFF0F4B
:105A3000F0B504000D0006267642F717C646361963
:105A40006F4100B58F4213D810D000F04DF93200ED
:105A50003B00121A8B41002B14DC002B37D029009D
:105A6000200000F075F980BCB846F0BD8642ECD944
:105A70000026002700F038F932003B00121A8B4153
:105A8000002BEADD30003900FFF744FE0028E6DB9A
:105A900000239846BC460F4A0F4F7B6A9C4504D8AA
:105AA000B96A8E42DBD99C45D9D11168EFF31080D9
:105AB00072B60B68002BFCD0BFF35F8F1368BFF387
:105AC0005F8F4146196080F3108820BFE5E7002A08
:105AD000C5D0D7E7643000200040054070B5040011
