:020000041000EA
:1000000000B50C4B00219960042159610A4919601F
:100010000A490B480160002159600121996001BC27
:10002000002800D0004707480749086003C880F34C
:10003000088808470000001800031F00180200038A
:10004000F40000180001001008ED00E000000000BE
:1000500000000000000000000000000000000000A0
:100060000000000000000000000000000000000090
:100070000000000000000000000000000000000080
:100080000000000000000000000000000000000070
:100090000000000000000000000000000000000060
:1000A0000000000000000000000000000000000050
:1000B0000000000000000000000000000000000040
:1000C0000000000000000000000000000000000030
:1000D0000000000000000000000000000000000020
:1000E0000000000000000000000000000000000010
:1000F0000000000000000000000000002CEC210DBA
:1001000000200420F7010010C3010010C5010010F9
:10011000C1010010C1010010C1010010C101001097
:10012000C1010010C1010010C1010010C701001081
:10013000C1010010C1010010C9010010CB01001065
:10014000CD010010CD010010CD010010CD01001037
:10015000CD010010CD010010CD010010CD01001027
:10016000CD010010CD010010CD010010CD01001017
:10017000CD010010CD010010CD010010CD01001007
:10018000CD010010CD010010CD010010CD010010F7
:10019000CD010010CD010010CD010010CD010010E7
:1001A000CD010010CD010010CD010010CD010010D7
:1001B000CD010010CD010010CD010010CD010010C7
:1001C00000BE00BE00BE00BE00BE00BE00F04BF888
:1001D000103800BEF2EB8871DCD3011000D401109E
:1001E0003402001090A31AE700202149086006C8D5
:1001F00081F3088810471F48006800282FD10DA4FC
:100200000ECC002902D000F012F8F9E71A491B4A77
:10021000002000E001C19142FCD1194988471949E9
:1002200088471949884700BEFDE701C901C29A42C3
:10023000FBD3704700D40110C0000020D81D00205F
:1002400018F10110000004200000042018F1011032
:1002500000100420001004200000000070470B482C
:1002600009F0CEF90047EFF30580C0B270470000F7
:1002700008ED00E0000000D0D81D0020E82D00208F
:100280004D7A0010C1580010757B001057560000C1
:1002900006005250ABB36053089C01100600525048
:1002A000861C0302249C0110060052505422A29D79
:1002B000309C011005005250DE65F46818F1011001
:1002C000F8B5C04610B5064C2378002B07D1054B76
:1002D000002B02D0044800E000BF0123237010BDB2
:1002E000E01F002000000000F8830110044B10B54F
:1002F000002B03D00349044800E000BF10BDC046F6
:1003000000000000E41F0020F88301107047C04681
:1003100010B503685B68984710BDC04610B504006F
:10032000034B0833036005F073FD200010BDC04689
:100330008087011010B50400054B0833036005F0F9
:1003400067FD200004210DF031FD200010BDC046E6
:10035000808701100023F0B5036043608360154B74
:1003600004000E0083B0D5009D4216D8002D0ED09B
:1003700028000EF073FB47192060A760002D0AD0FB
:100380002A00310009F0ECFD676003B0F0BD0027E2
:1003900005608560F8E70700F6E707480EF034FED1
:1003A0002068A168091A002801D00DF0FFFC0DF0AB
:1003B000A5FDC046F8FFFF7FF8830110F0B5C646E3
:1003C000040000B5002825D01A4B1B4F9846260084
:1003D000E068FFF7F3FFB569A468002D14D06B68DF
:1003E000013B6B60002B0FD12B689B68BB4214D183
:1003F000AB68013BAB60002B06D12B68DA68424545
:100400000ED128005B6898471C2130000DF0CEFC0F
:10041000002CDCD180BCB846F0BD28009847E7E747
:10042000280090471C2130000DF0C0FC002CCED1DC
:10043000F0E7C046110300100D030010F0B5DE46D2
:1004400057464E464546E0B5834685B0002800D164
:1004500099E05B46DB680193002B00D186E0019BAD
:10046000DB689946002B72D04B46DB689A46002B1E
:1004700060D05346DC68002C42D0E668002E27D0BE
:10048000F3689846002B2FD04346DD68002D44D0FA
:10049000EF68002F10D0F868FFF7D0FF3B00DA6953
:1004A000BF68100002930392FFF788FF2C21029887
:1004B0000DF07CFC002FEED1AF68E869FFF77EFFFE
:1004C0002C2128000DF072FC002F26D03D00DFE724
:1004D000A568E069FFF772FF2C2120000DF066FC93
:1004E000002D0DD02C00C8E7B568F069FFF766FF56
:1004F0002C2130000DF05AFC002DE9D02E00BFE772
:1005000053469C68D869FFF759FF2C2150460DF0DF
:100510004DFC002C0ED0A246ABE743469D68D8693F
:10052000FFF74CFF2C2140460DF040FC002DDBD0A6
:10053000A846A9E74B469C68D869FFF73FFF2C21E6
:1005400048460DF033FC002C01D0A1468CE7019DFC
:10055000EB69AC6818000193FFF730FF2C212800ED
:100560000DF024FC002C01D0019478E75B469C68D8
:10057000D869FFF723FF2C2158460DF017FC002CFB
:1005800001D0A34665E705B0F0BCBB46B246A9461C
:10059000A046F0BDF0B5C64600B5C8B001282BD0C6
:1005A000114A1368013B1360002B14D10F4C104DFE
:1005B000206800280BD0A368191A0DF0F7FB230060
:1005C0000C3BA54207D01C0020680028F3D1230073
:1005D0000C3BA542F7D1074B9868FFF72FFF48B0B7
:1005E00080BCB846F0BDC04604200020C8C1011040
:1005F00030C00110442000200022FA4B191DD960A0
:100600001961F9491A719A605A610B6801330B60DC
:10061000012B02D1F54B1A605A60F54B1A68551C34
:100620001D60012DDBD10023F24F00223B607B6077
:10063000BB6000233A923B93012200233AAC3C92E8
:100640003D9321000132EC4838943992FFF782FE45
:10065000EA4B98462300424643CA43C343CA43C3B6
:1006600003222100E64836943792FFF773FE434693
:100670002200183343CB43C243CB43C203222100A1
:10068000E04834943592FFF765FE4346220030334C
:1006900043CB43C243CB43C203CB03C2042221005A
:1006A000D94832943392FFF755FE0023FB633B6435
:1006B0007B64BB64FB643B6543462200503343CB01
:1006C00043C243CB43C203CB03C204222100CF4821
:1006D00030943192FFF73EFE4646220070360BCE34
:1006E0000BC20BCE0BC20ACE0AC204222100C8489C
:1006F0002E942F92FFF72EFEC64E38223100200096
:10070000103109F02DFC07222100C3482C942D92B2
:10071000FFF720FE310038224831200009F020FC8C
:1007200007222100BD482A942B92FFF713FEBC4BF1
:1007300098462300424643CA43C343CA43C30322E5
:100740002100B84828942992FFF704FE434622006E
:10075000183343CB43C243CB43C203CB03C204226F
:100760002100B14826942792FFF7F4FD434622006A
:10077000383343CB43C243CB43C203CB03C204222F
:100780002100AA4824942592FFF7E4FD4346220065
:10079000583343CB43C243CB43C203CB03C20422EF
:1007A0002100A34822942392FFF7D4FD01230022C5
:1007B0005B423A923B93210001329E482094219261
:1007C000FFF7C8FD01230C225B423A923B932100C4
:1007D0000B3A99481E941F92FFF7BCFD0123652236
:1007E0005B423A923B932100643A94481C941D92D8
:1007F000FFF7B0FD012371225B423A923B93210047
:10080000703A8F481A941B92FFF7A4FD0023E4224C
:10081000BB500432BB500432BB500432BB500432D4
:10082000BB5046460432BB50220078360BCE0BC27A
:100830000BCE0BC20ACE0AC20422210081481894B2
:100840001992FFF787FD22007F4B9846183343CB60
:1008500043C243CB43C203CB03C2042221007B48E3
:1008600016941792FFF776FD43462200383343CBA8
:1008700043C243CB43C203CB03C2042221007448CA
:1008800014941592FFF766FD43462200583343CB7C
:1008900043C243CB43C203CB03C2042221006D48B1
:1008A00012941392FFF756FD4646220078360BCE7F
:1008B0000BC20BCE0BC20ACE0AC20422210066482C
:1008C00010941192FFF746FD2200644B98461833AE
:1008D00043CB43C243CB43C243CB43C21B6821003B
:1008E000136005225E480E940F92FFF733FD4346D6
:1008F0002200403343CB43C243CB43C243CB43C22A
:1009000043CB43C20622210056480C940D92FFF7B8
:1009100021FD4646220070360BCE0BC20BCE0BC219
:100920000ACE0AC2042221004F480A940B92FFF714
:1009300011FD22004D4B9846103343CB43C243CBAD
:1009400043C203CB03C20422210049480894099200
:10095000FFF700FD43462200303343CB43C243CB75
:1009600043C203CB03C204222100424806940792EB
:10097000FFF7F0FC43462200503343CB43C243CB46
:1009800043C2032221003C4804940592FFF7E2FC95
:100990004646220068360BCE0BC20BCE0BC20BCEE6
:1009A0000BC233682100136005223448029403927D
:1009B000FFF7D0FC2200324B103343CB43C243CB72
:1009C00043C2032221002F4800940192FFF7C2FC8A
:1009D000CC2200235200BB500432BB500432BB5027
:1009E000FDE5C04644200020FC1F0020D4C10110BA
:1009F0000420002030C001103CC001102C840110E4
:100A000048C0011054C0011060C0011084C0011022
:100A100090C00110AC8401109CC00110A8C001104E
:100A20002C850110B4C00110C0C00110CCC0011051
:100A3000D8C00110E4C00110F0C00110FCC00110CA
:100A400008C101102CC10110AC85011038C1011082
:100A500044C1011050C101105CC101102C8601106D
:100A600068C1011074C1011080C10110AC86011071
:100A70008CC1011098C10110A4C10110B0C10110B6
:100A80002C870110BCC1011021252224651B163CB6
:100A90006C433C19BC4238D10DF030FAF5E7032520
:100AA000F3E70425F1E70225EFE70525EDE7092542
:100AB000EBE70A25E9E70B25E7E70C25E5E707253E
:100AC000E3E70825E1E70625DFE70D25DDE710254B
:100AD000DBE71725D9E71825D7E71925D5E71A2524
:100AE000D3E71B25D1E71E25CFE71F25CDE720251E
:100AF000CBE71325C9E71425C7E71525C5E7162554
:100B0000C3E71125C1E71225BFE70C3C2068A368A5
:100B1000191A0028BED00DF049F9BBE710B5040042
:100B200005F080F9024B20000833236010BDC04659
:100B300080870110F0B5DE4657464E4645468B4647
:100B40000221E0B59846531E8246894687B0032BA2
:100B500004D90139D31F89460B2B3DD853002A49AC
:100B60009B189B005D180020CB5800210290039138
:100B700000216A680491D41A9A4236D0234B9C42D1
:100B800036D820000DF06AFF0ACD041902900390B8
:100B90000494994209D000225B1A84188D180832F7
:100BA000C0CDC0C49A42F8D1801843460390009348
:100BB00059464B46504602AA05F0ECF90298002827
:100BC00003D00499091A0DF0F1F807B0F0BCBB4648
:100BD000B246A946A046F0BD11000C2315398B4240
:100BE0009B41032119408946B8E700240020CBE748
:100BF0000EF0E2F902980499091A002801D00DF0CC
:100C0000D5F80DF07BF9C04630C00110F8FFFF7F2A
:100C1000F8B5CE46474680B51F00089B04000D007E
:100C2000380005211600984608F01CFD8946002969
:100C300000DDC3E04346012229002000FFF77AFFD0
:100C40004346022229002000FFF774FF1E2F04DD17
:100C5000701C182108F006FD0E00002E48D00C2E46
:100C600046D0012E00D18CE00D2E00D189E0022E5D
:100C700000D1FFE00E2E00D1FCE0032E00D107E1F1
:100C80000F2E00D104E1042E00D1FAE0102E00D185
:100C9000F7E0052E00D109E1112E00D106E1062E64
:100CA00000D10AE1122E00D107E1072E00D10BE19D
:100CB000132E00D108E1082E00D10CE1142E00D132
:100CC00009E1092E00D10DE1152E00D10AE10A2E0D
:100CD00000D10EE1162E00D10BE10B2E01D0172E04
:100CE0000CD143461F2229002000FFF723FF05E017
:100CF0004346202229002000FFF71CFF7E1F132EF1
:100D000000D880E03B00233B042B10D93B00193B6B
:100D1000042B42D93B00283B122B3ED9042F42D84A
:100D20004346032229002000FFF704FF05E0434665
:100D30000C2229002000FFF7FDFE3B00143B042B92
:100D400000D890E03B00193B042B00D87EE03B002C
:100D50001E3B042B00D87FE03B00233B042B00D834
:100D600074E0053B042B00D87DE0053B042B00D844
:100D700095E03B00323B042B5BD9373F042F50D822
:100D800049E04346042F5BD8212229002000FFF7C9
:100D9000D1FE3B00193B042BBCD843460B22290053
:100DA0002000FFF7C7FE3B000F3B042BC5D843468E
:100DB0000A2229002000FFF7BDFE32E043460F2241
:100DC00029002000FFF7B6FE4B46012B00D131E78A
:100DD0004346102229002000FFF7ACFE4B46022BB1
:100DE00000D127E74346112229002000FFF7A2FE89
:100DF0004B46042B00D01DE7434612222900200059
:100E0000FFF798FE16E743460C2229002000FFF763
:100E100091FE042E09D84346072229002000FFF73F
:100E200089FEC0BCB946B046F8BD3B000A3B042B66
:100E3000B9D84346082229002000FFF77BFEF0E7DF
:100E4000152229002000FFF775FE57E743460722C9
:100E500029002000FFF76EFE43460D2229002000E6
:100E6000FFF768FEDDE74346092229002000FFF76F
:100E700061FED6E74346162229002000FFF75AFEFE
:100E80003CE74346182229002000FFF753FE35E7D0
:100E90004346172229002000FFF74CFE2EE7434669
:100EA0000E2229002000FFF745FE80E74346192265
:100EB00029002000FFF73EFE20E743461A222900C2
:100EC0002000FFF737FE19E743461B2229002000C8
:100ED000FFF730FE12E743461C2229002000FFF7EF
:100EE00029FE0BE743461D2229002000FFF722FEC2
:100EF00004E743461E2229002000FFF71BFEFDE603
:100F000010B50120FFF746FB10BDC04610B5040028
:100F1000034B0833036004F07BFF200010BDC04684
:100F2000A88A011010B50400054B0833036004F0D3
:100F30006FFF200004210CF039FF200010BDC046D7
:100F4000A88A01100023F0B5036043608360154B4D
:100F500004000E0083B0D5009D4216D8002D0ED09F
:100F600028000DF07BFD47192060A760002D0AD0F6
:100F70002A00310008F0F4FF676003B0F0BD0027DD
:100F800005608560F8E70700F6E707480EF03CF8D3
:100F90002068A168091A002801D00CF007FF0CF0A6
:100FA000ADFFC046F8FFFF7FF8830110F0B5C646DD
:100FB000040000B5002825D01A4B1B4F9846260088
:100FC000E068FFF7F3FFB569A468002D14D06B68E3
:100FD000013B6B60002B0FD12B689B68BB4214D187
:100FE000AB68013BAB60002B06D12B68DA68424549
:100FF0000ED128005B6898471C2130000CF0D6FE0B
:10100000002CDCD180BCB846F0BD28009847E7E74B
:10101000280090471C2130000CF0C8FE002CCED1D7
:10102000F0E7C046110300100D030010F0B5DE46D6
:1010300057464E464546E0B5834685B0002800D168
:1010400099E05B46DB680193002B00D186E0019BB1
:10105000DB689946002B72D04B46DB689A46002B22
:1010600060D05346DC68002C42D0E668002E27D0C2
:10107000F3689846002B2FD04346DD68002D44D0FE
:10108000EF68002F10D0F868FFF7D0FF3B00DA6957
:10109000BF68100002930392FFF788FF2C2102988B
:1010A0000CF084FE002FEED1AF68E869FFF77EFFF9
:1010B0002C2128000CF07AFE002F26D03D00DFE71F
:1010C000A568E069FFF772FF2C2120000CF06EFE8E
:1010D000002D0DD02C00C8E7B568F069FFF766FF5A
:1010E0002C2130000CF062FE002DE9D02E00BFE76D
:1010F00053469C68D869FFF759FF2C2150460CF0E5
:1011000055FE002C0ED0A246ABE743469D68D86939
:10111000FFF74CFF2C2140460CF048FE002DDBD0A1
:10112000A846A9E74B469C68D869FFF73FFF2C21EA
:1011300048460CF03BFE002C01D0A1468CE7019DF7
:10114000EB69AC6818000193FFF730FF2C212800F1
:101150000CF02CFE002C01D0019478E75B469C68D3
:10116000D869FFF723FF2C2158460CF01FFE002CF6
:1011700001D0A34665E705B0F0BCBB46B246A94620
:10118000A046F0BDF0B5C64600B5C6B001282BD0CC
:10119000114A1368013B1360002B14D10F4C104D02
:1011A000206800280BD0A368191A0CF0FFFD23005B
:1011B0000C3BA54207D01C0020680028F3D1230077
:1011C0000C3BA542F7D1074B9868FFF72FFF46B0BD
:1011D00080BCB846F0BDC0460820002068C301109E
:1011E000DCC101105C2000200022F94B191DD960E0
:1011F0001961F8491A719A605A610B6801330B60E2
:10120000012B02D1F44B1A605A60F44B1A68551C3A
:101210001D60012DDBD10023F14F00223B607B607C
:10122000BB600023389239930122002338AC3A92F4
:101230003B9321000132EB4836943792FFF782FE50
:10124000E94B98462300424643CA43C31268210033
:101250001A600222E54834943592FFF773FE434644
:101260002200103343CB43C243CB43C243CB43C2E0
:1012700043CB43C206222100DD4832943392FFF76C
:1012800061FE002341463822403120003B637B63EE
:10129000BB63FB633B647B6408F062FE07222100B2
:1012A000D44830943192FFF74DFE464622007836FE
:1012B0000BCE0BC20BCE0BC20BCE0BC20BCE0BC296
:1012C00006222100CC482E942F92FFF73BFE2200ED
:1012D000CA4B9846283343CB43C243CB43C203CBCC
:1012E00003C204222100C6482C942D92FFF72AFE47
:1012F00043462200483343CB43C243CB43C203227D
:101300002100C0482A942B92FFF71CFE434622007E
:10131000603343CB43C21B68210013600222BA48EA
:1013200028942992FFF70EFE4646220070360BCE17
:101330000BC20BCE0BC20ACE0AC204222100B34854
:1013400026942792FFF7FEFD2200B14B98461033FA
:1013500043CB43C243CB43C203CB03C2042221008D
:10136000AC4824942592FFF7EDFD012300225B4257
:101370003892399321000132A74822942392FFF733
:10138000E1FD01230C225B423892399321000B3A94
:10139000A24820942192FFF7D5FD012365225B42EC
:1013A000389239932100643A9D481E941F92FFF7AA
:1013B000C9FD012371225B42389239932100703AB2
:1013C00098481C941D92FFF7BDFD0023CC22BB5012
:1013D0000432BB500432BB500432BB500432BB5009
:1013E0000432BB5043462200303343CB43C243CB8D
:1013F00043C203CB03C2042221008B481A941B92E0
:10140000FFF7A0FD43462200503343CB43C243CBFA
:1014100043C203222100854818941992FFF792FDD8
:101420004646220068360BCE0BC20BCE0BC20322FF
:1014300021007F4816941792FFF784FD7D4B984654
:101440002300424643CA43C343CA43C343CA43C3B8
:10145000126821001A600522774814941592FFF74C
:1014600071FD43462200283343CB43C243CB43C2E2
:1014700003CB03C204222100704812941392FFF799
:1014800061FD43462200483343CB43C243CB43C2B2
:1014900003CB03C204222100694810941192FFF784
:1014A00051FD4646220068360BCE0BC20BCE0BC256
:1014B0000322210063480E940F92FFF743FD624B15
:1014C00098462300424643CA43C343CA43C343CA60
:1014D00043C3126821001A6005225C480C940D92E7
:1014E000FFF730FD43462200283343CB43C243CBB2
:1014F00043C243CB43C243CB43C2062221005448DC
:101500000A940B92FFF71EFD4646220058360BCE7A
:101510000BC20BCE0BC20BCE0BC233682100136083
:1015200005224C4808940992FFF70CFD4A4B984657
:101530002300424643CA43C343CA43C343CA43C3C7
:1015400043CA43C306222100444806940792FFF78A
:10155000F9FC43462200303343CB43C243CB43C262
:10156000032221003E4804940592FFF7EBFC43461A
:101570002200483343CB43C21B6821001360022280
:10158000384802940392FFF7DDFC464623005836A4
:1015900007CE07C3326821001A6002223248009445
:1015A0000192FFF7CFFCC62200235200BB50043249
:1015B000BB500432BB500AE620252124651B153C94
:1015C0006C433C19BC4265D10CF098FCF5E7C04671
:1015D0005C200020FC1F0020D4C101100820002046
:1015E000DCC10110E8C1011094870110F4C10110A1
:1015F00000C2011024C2011030C201101488011071
:101600003CC2011048C2011054C2011060C2011056
:10161000948801106CC2011078C2011084C20110BC
:1016200090C201109CC20110C0C20110CCC20110B6
:10163000D8C2011014890110E4C20110F0C20110D7
:10164000FCC2011008C301109489011014C30110D9
:1016500020C301102CC30110148A011038C30110DB
:1016600044C3011050C301105CC301100225A4E75C
:101670000325A2E70425A0E705259EE708259CE7AA
:1016800009259AE70A2598E70B2596E7062594E7AA
:10169000072592E70C3C2068A368191A002891D00E
:1016A0000CF084FB8EE70C2587E70D2585E70E25DA
:1016B00083E7112581E712257FE713257DE71425B0
:1016C0007BE7152579E7162577E7172575E71825B0
:1016D00073E7192571E71A256FE71B256DE71E25AE
:1016E0006BE71F2569E7C04610B5040004F09AFBBC
:1016F000024B20000833236010BDC046A88A0110A9
:10170000F0B5DE4657464E4645468B460221E0B5CB
:101710009846531E8246894687B0022B04D9013968
:10172000931F89460A2B3DD853002A499B189B00DA
:101730005D180020CB5800210290039100216A68B7
:101740000491D41A9A4236D0234B9C4236D82000BA
:101750000DF084F90ACD0419029003900494994283
:1017600009D000225B1A84188D180832C0CDC0C47D
:101770009A42F8D1801843460390009359464B464D
:10178000504602AA04F006FC0298002803D00499EF
:10179000091A0CF00BFB07B0F0BCBB46B246A946D9
:1017A000A046F0BD11000D2313398B429B4103214C
:1017B00019408946B8E700240020CBE70DF0FCFB78
:1017C00002980499091A002801D00CF0EFFA0CF0E5
:1017D00095FBC046DCC10110F8FFFF7FF8B5CE468F
:1017E000474680B51F00089B04000D003800052106
:1017F0001600984607F036FF8946002900DDC9E04B
:101800004346012229002000FFF77AFF43460222C7
:1018100029002000FFF774FF43460C2E31DD202203
:1018200029002000FFF76CFF1E2F32DD701C1821ED
:1018300007F018FF0E00002E02D00C2E00D0E0E0C2
:1018400043461D2229002000FFF75AFF7E1F132E5A
:1018500000D88DE03B00233B042B57D93B00193BBC
:10186000042B00D8BBE03B00283B122B00D8B6E08D
:10187000042F51D84346032229002000FFF740FFE0
:101880004AE01F2229002000FFF73AFF1E2FCDDC7F
:10189000D1E70D2E62D00E2E00D1B8E00F2E00D170
:1018A000E1E0042E00D1E5E0102E00D1E2E0052EAB
:1018B00000D1E6E0112E00D1E3E0062E00D1E7E0F2
:1018C000122E00D1E4E0072E00D1E8E0132E00D163
:1018D000E5E0082E00D1E9E0142E00D1E6E0092E63
:1018E00000D1EAE0152E00D1E7E00A2E00D1EBE0AE
:1018F000162E00D1E8E00B2E01D0172EA6D14346BC
:101900001B2229002000FFF7FBFE9FE743460C2225
:1019100029002000FFF7F4FE3B00143B042B00D805
:1019200089E03B00193B042B00D877E03B001E3BCD
:10193000042B00D88BE0053B042B00D86EE0053B60
:10194000042B00D877E0053B042B00D87FE0053B53
:10195000042B4FD9373F042F18D811E043461422E7
:10196000290020007E1FFFF7CBFE132E00D971E760
:1019700043460C2229002000FFF7C2FE042E35D872
:101980004346082229002000FFF7BAFEC0BCB94632
:10199000B046F8BD43460D2229002000FFF7B0FEF7
:1019A0004B46012B00D12BE743460E222900200095
:1019B000FFF7A6FE4B46022B00D121E743460F223C
:1019C00029002000FFF79CFE4B46042B00D017E7B0
:1019D0004346102229002000FFF792FE10E74346FD
:1019E0000A2229002000FFF78BFE95E73B000A3B07
:1019F000042B27D84346092229002000FFF780FE48
:101A0000C4E7012EAAD00D2EA8D0022E26D143461F
:101A1000192229002000FFF773FE17E7434629002B
:101A200020000822FFF76CFE43460B22290020000D
:101A3000FFF766FEAAE74346072229002000FFF7CA
:101A40005FFEA3E73B000F3B042B00D964E743464E
:101A5000062229002000FFF753FE97E70E2ED6D06E
:101A6000032E00D01AE74346162229002000FFF774
:101A700047FEEBE64346172229002000FFF740FE11
:101A8000E4E64346182229002000FFF739FEDDE690
:101A90004346152229002000FFF732FED6E64346D2
:101AA0001C2229002000FFF72BFECFE643461A2216
:101AB00029002000FFF724FEC8E643461322290030
:101AC0002000FFF71DFEC1E643461E22290020002C
:101AD000FFF716FEBAE6C04610B50120FFF752FB2D
:101AE00010BDC04610B50400034B0833036004F07A
:101AF0008FF9200010BDC046E88C011010B504001D
:101B0000054B0833036004F083F9200004210CF036
:101B10004DF9200010BDC046E88C0110F0B5C64656
:101B2000040000B5002825D01A4B1B4F984626000C
:101B3000E068FFF7F3FFB569A468002D14D06B6867
:101B4000013B6B60002B0FD12B689B68BB4214D10B
:101B5000AB68013BAB60002B06D12B68DA684245CD
:101B60000ED128005B6898471C2130000CF01EF94C
:101B7000002CDCD180BCB846F0BD28009847E7E7D0
:101B8000280090471C2130000CF010F9002CCED119
:101B9000F0E7C046110300100D030010F0B5DE465B
:101BA00057464E464546E0B5834685B0002800D1ED
:101BB00099E05B46DB680193002B00D186E0019B36
:101BC000DB689946002B72D04B46DB689A46002BA7
:101BD00060D05346DC68002C42D0E668002E27D047
:101BE000F3689846002B2FD04346DD68002D44D083
:101BF000EF68002F10D0F868FFF7D0FF3B00DA69DC
:101C0000BF68100002930392FFF788FF2C2102980F
:101C10000CF0CCF8002FEED1AF68E869FFF77EFF3B
:101C20002C2128000CF0C2F8002F26D03D00DFE761
:101C3000A568E069FFF772FF2C2120000CF0B6F8D0
:101C4000002D0DD02C00C8E7B568F069FFF766FFDE
:101C50002C2130000CF0AAF8002DE9D02E00BFE7AF
:101C600053469C68D869FFF759FF2C2150460CF069
:101C70009DF8002C0ED0A246ABE743469D68D8697C
:101C8000FFF74CFF2C2140460CF090F8002DDBD0E4
:101C9000A846A9E74B469C68D869FFF73FFF2C216F
:101CA00048460CF083F8002C01D0A1468CE7019D3A
:101CB000EB69AC6818000193FFF730FF2C21280076
:101CC0000CF074F8002C01D0019478E75B469C6816
:101CD000D869FFF723FF2C2158460CF067F8002C39
:101CE00001D0A34665E705B0F0BCBB46B246A946A5
:101CF000A046F0BD10B5040004F094F8024B20009B
:101D00000833236010BDC046E88C0110F0B5DE46F4
:101D100057464E4645468B460221E0B59846531E2F
:101D20008246894687B0032B04D90139D31F8946DF
:101D3000072B3DD853002A499B189B005D180020B3
:101D4000CB5800210290039100216A680491D41AB3
:101D50009A4236D0234B9C4236D820000CF07EFEAF
:101D60000ACD0419029003900494994209D00022EC
:101D70005B1A84188D180832C0CDC0C49A42F8D1BD
:101D8000801843460390009359464B46504602AA9A
:101D900004F000F90298002803D00499091A0CF005
:101DA00005F807B0F0BCBB46B246A946A046F0BD58
:101DB0001100072311398B429B41032119408946A9
:101DC000B8E700240020CBE70DF0F6F8029804995C
:101DD000091A002801D00BF0E9FF0CF08FF8C0467B
:101DE0007CC30110F8FFFF7F0023F0B50360436060
:101DF0008360154B04000E0083B0D5009D4217D8B8
:101E0000002D0FD028000CF029FE47192060A76094
:101E1000002D0BD02A00310008F0A2F820006760E6
:101E200003B0F0BD002705608560F7E70700F5E720
:101E300006480DF0E9F82068A168091A002801D0C9
:101E40000BF0B4FF0CF05AF8F8FFFF7FF883011095
:101E5000F0B5C64600B5B2B0012822D0E44A1368F6
:101E6000013B1360002B14D1E24CE34D20680028A5
:101E70000BD0A368191A0BF099FF23000C3BA54265
:101E800007D01C0020680028F3D123000C3BA5429A
:101E9000F7D1DA4B9868FFF781FE32B080BCB846C4
:101EA000F0BD0022D54B191DD9601961D4491A71B2
:101EB0009A605A610B6801330B60012B02D1D14B40
:101EC0001A605A60CA4B1A68551C1D60012DE4D176
:101ED0000023C94F00223B607B60BB6001232AAC1A
:101EE0005B422A922B9321002A00C74826AB2894F4
:101EF0002995FFF779FF01230C225B422A922B934D
:101F000021000B3AC14824AB26942792FFF76CFFBF
:101F1000012365225B422A922B932100643ABC483C
:101F200022AB24942592FFF75FFF012371225B42CD
:101F30002A922B932100703AB64820AB2294239228
:101F4000FFF752FF0023FB633B647B64BB64FB64CD
:101F50003B65B14B98462300424643CA43C343CA3C
:101F600043C303CA03C304222100AC481EAB209420
:101F70002192FFF739FF43462200203343CB43C26F
:101F800043CB43C203CB03C204222100A4481CABB1
:101F90001E941F92FFF728FF43462200403343CB95
:101FA00043C243CB43C203CB03C2042221009D485A
:101FB0001AAB1C941D92FFF717FF464622006036AD
:101FC0000BCE0BC20BCE0BC20ACE0AC204222100DA
:101FD000954818AB1A941B92FFF706FF934B98464F
:101FE0002300424643CA43C343CA43C303CA03C38D
:101FF000042221008E4816AB18941992FFF7F4FEC4
:1020000043462200203343CB43C243CB43C203CBDE
:1020100003C204222100874814AB16941792FFF7DD
:10202000E3FE43462200403343CB43C243CB43C28B
:1020300003CB03C2042221007F4812AB14941592F3
:10204000FFF7D2FE4646220060360BCE0BC20BCE07
:102050000BC20ACE0AC204222100784810AB1294A7
:102060001392FFF7C1FE0023B422BB500432BB50D1
:102070000432BB500432BB500432BB500432BB505C
:102080006F4B98462300424643CA43C343CA43C3E7
:1020900003CA03C3042221006A480EAB10941192B4
:1020A000FFF7A2FE43462200203343CB43C243CB7B
:1020B00043C203CB03C20422210063480CAB0E943D
:1020C0000F92FFF791FE43462200403343CB43C2B9
:1020D00043CB43C203CB03C2042221005B480AABBB
:1020E0000C940D92FFF780FE4646220060360BCE20
:1020F0000BC20BCE0BC20ACE0AC2042221005448E6
:1021000008AB0A940B92FFF76FFE524B98462300E0
:10211000424643CA43C343CA43C303CA03C3042258
:1021200021004D4806AB08940992FFF75DFE434637
:102130002200203343CB43C243CB43C203CB03C271
:1021400004222100454804AB06940792FFF74CFE99
:1021500043462200403343CB43C243CB43C203CB6D
:1021600003C2042221003E4802AB04940592FFF70B
:102170003BFE4646220060360BCE0BC20BCE0BC296
:102180000ACE0AC204222100364801AB029403920F
:10219000FFF72AFE962200235200BB500432BB50A8
:1021A0000432BB5079E618251924651B0D3C6C439D
:1021B0003C19BC4262D10BF0A1FEF5E70225F3E722
:1021C0000325F1E70425EFE70525EDE70E25EBE70D
:1021D0000F25E9E71025E7E71125E5E71225E3E7F5
:1021E0001525E1E71625DFE71725DDE70825DBE7FD
:1021F00000200020A8C401107CC30110742000201E
:10220000FC1F0020D4C1011088C3011094C3011029
:10221000A0C30110ACC30110BC8A0110D0C30110CF
:10222000DCC30110E8C30110F4C301103C8B0110A2
:1022300000C401100CC4011018C4011024C4011002
:10224000BC8B011048C4011054C4011060C40110BB
:102250006CC401103C8C011078C4011084C40110BE
:1022600090C401109CC401100B259DE70C259BE731
:102270000D2599E7062597E7072595E70C3C20688B
:10228000A368191A002894D00BF090FD91E7C0467E
:1022900070B50400006800280CD02369191A0BF0EF
:1022A00085FD002223002100A260E260083321CBDB
:1022B00021C1226170BDC046F0B5C64600B594B0DC
:1022C0001A9E04000D00170098460A2E00DD71E0EA
:1022D0004146684600F01AFB0A21404607F0C2F961
:1022E000010005A800F012FB39000AA800F00EFB5F
:1022F0000A21380007F0B6F901000FA800F006FB2C
:10230000009B1B68DA0700D5ECE09A0700D5E0E0F7
:102310005A0700D5D4E01B0700D5CAE0059B1B680F
:10232000DA0700D5BCE09A0700D5B0E05A0700D51F
:10233000A4E01B0700D59AE00A9B1B68DA0700D5CA
:102340008CE09A0700D580E05A0700D574E01B079F
:102350006BD40F980368DA075ED49A0753D45A07F0
:1023600048D41B0721D53300182229002000FFF78D
:10237000CDFC0F98002818D10A98002803D00E9998
:10238000091A0BF013FD0598002803D00999091AC2
:102390000BF00CFD0098002803D00499091A0BF0EB
:1023A00005FD14B080BCB846F0BD1399091A0BF0B6
:1023B000FDFCE1E733000122FFF7A8FC192E00DC49
:1023C00086E73300022229002000FFF79FFC282E19
:1023D00000DC7DE73300032229002000FFF796FC94
:1023E000372E00DC74E73300042229002000FFF7B9
:1023F0008DFC6DE73300172229002000FFF786FCD3
:102400000F980368ADE73300162229002000FFF77C
:102410007DFC0F980368A2E73300152229002000F5
:10242000FFF774FC0F98036897E733001422290024
:102430002000FFF76BFC8CE73300132229002000FB
:10244000FFF764FC0A9B1B6881E733001222290016
:102450002000FFF75BFC0A9B1B6875E73300112225
:1024600029002000FFF752FC0A9B1B6869E7330034
:102470000E2229002000FFF749FC5DE733000D2202
:1024800029002000FFF742FC059B1B6851E7330041
:102490000C2229002000FFF739FC059B1B6845E74B
:1024A00033000B2229002000FFF730FC059B1B683E
:1024B00039E733000A2229002000FFF727FC2DE727
:1024C0003300092229002000FFF720FC009B1B6835
:1024D00021E73300082229002000FFF717FC009BAA
:1024E0001B6815E73300072229002000FFF70EFCC8
:1024F000009B1B6809E70FA8FFF7CAFE0AA8FFF7B1
:10250000C7FE05A8FFF7C4FE6846FFF7C1FE0BF043
:10251000F5FCF3E7F5E7F7E710B50120FFF798FCC6
:1025200010BDC04630B5436889B0002B01D109B059
:1025300030BD002200230492059300233A4904AAE7
:10254000069300F059FC059D049C2B1B302B29D9C8
:10255000206813F0DFFF059B049A019345B29B1A94
:10256000182B41D9906913F0D5FF059B049A01936C
:1025700044B29B1A302B30D9106B13F0CBFF2B4B8E
:1025800002AA13802A4BD0715380002310001371CC
:10259000557194710AF074FD4020002104F0B8FDDB
:1025A000049C059DAC420CD023002068083398425F
:1025B0000FD0A3681834591C0BF0F8FBAC42F3D1D0
:1025C000049D002DB3D006992800491B0BF0EEFBAB
:1025D000ADE71834AC42E7D1F2E7164ADB1002212E
:1025E0005A4315480CF028FD124ADB1001215A43CA
:1025F00011480CF021FD049C059DA54208D10498CA
:102600000699091A002801D00BF0D0FB0BF076FCDC
:10261000230020680833984203D0A368591C0BF0AC
:10262000C5FB1834E9E7C04618B50110E4070000FF
:1026300006050000ABAAAAAAFC8C011010B50AF08E
:1026400003FD10BD10B504000AF070FD200010BDA0
:1026500010B51C00431A0298511A001B584307F08A
:1026600001F8001910BDC046F0B557464E46DE468B
:102670004546E0B587B00293836881469C4603696E
:102680008A460491059201929C4500D171E0C3688D
:10269000591C9B461F231C008846CA1714404444FB
:1026A000D20E039164118918A4000B4064449B1A54
:1026B0005CD462465146551A5A460199ED00521AA9
:1026C000AD1867465E468846002D14DD002E33D0D7
:1026D0000121013EB140002B34D00122013B9A4040
:1026E0003868084220D02168013D0A432260002D4D
:1026F000ECD1434601930123019A9340029A002AA8
:1027000025D1524612689A431300524613605B4625
:102710001F2B24D04B46039ADA6007B0F0BCBB46AF
:10272000B246A946A046F0BD2168013D9143216013
:10273000002DDED0002ECBD180211F26043F0906BC
:10274000002BCAD180221F23043C1206C8E7524640
:1027500012681343524613605B461F2BDAD10023E5
:102760004A46D360634604339360D6E72033043C83
:102770009FE762460368D31AC268DB009446604A4A
:102780006344934200D1B7E00122002B00D0A2E0C5
:102790005B4B9A4200D91A001F325209930018006D
:1027A00003930CF05BF94B461E68534683469C1B13
:1027B000B24503D02200310015F00EFE2200019830
:1027C0005A44011E00DC92E0554600230127804652
:1027D0000DE01468204310601F2B13D0581C9C1C64
:1027E0003B00834001399C460300002913D0380088
:1027F00098402C680442ECD1146884432000106097
:102800001F2BEBD1012301399C4601240023043501
:1028100004320029EBD14146150001911F2B01D153
:102820000024151D029B002B5DD0634611680B43ED
:1028300013604B4652469B6801989A1A4B46DB68D8
:10284000D2001B1AD218002A28DDB44601215646B0
:102850000CE047462B681F432F601F2814D001301F
:102860001F2C15D0013A0134002A16D00F000B009E
:10287000A7408340B84637681F42EAD143462F68D5
:102880009F432F601F28EAD1002004361F2CE9D176
:10289000013A00240435002AE8D16646002E0DD006
:1028A0004B461B693000991B0BF080FA00234A4607
:1028B0009360D3604B46083303CB03C24A46039B65
:1028C0005B4413614B465A461A604A4600239560A2
:1028D0005360D46021E75A00934200D858E7094B6F
:1028E000180003935DE7614613688B43A0E701235B
:1028F00015009C46012495E703480CF085FBC04673
:10290000E0FFFF7FFCFFFF0F488D0110F0B5DE46B2
:1029100057464E4645460023E0B50360436083605A
:10292000C360036108339A4683B0EB4682445E4637
:1029300053460D0006CB06C601235A4600215268B5
:102940002B400400FFF790FEEB0FA2685B19216992
:102950009B071700DB0F8A4200D114E1E068804634
:102960001F2800D1F8E00130E06001204646B04069
:10297000002B00D0A4E03B6883433B60EB179846F4
:102980000323464633405B195B071000DB0F8A4286
:1029900000D1EBE0E668B1461F2E00D1C3E001266E
:1029A0004E44E66001264F46BE40002B00D0B5E005
:1029B0000368B34303600723464633405B191B0794
:1029C0001000DB0F8A4200D111E1E668B1461F2EEC
:1029D00000D1BCE001264E44E66001264F46BE40D1
:1029E000002B00D095E00368B34303600F234646F5
:1029F00033405B19DB061000DB0F8A4200D1E9E0AF
:102A0000E668B1461F2E00D19CE001264E44E660E8
:102A100001264F46BE40002B00D075E00368B3434B
:102A200003601F23464633405B199B061000DB0FF3
:102A30008A4200D1C1E0E668B1461F2E00D17CE099
:102A400001264E44E66001264F46BE40002B56D17B
:102A50000368B34303603F23464633405B195B067C
:102A60001000DB0F8A4200D19AE0E668B1461F2EC3
:102A70005ED001264E44E66001264F46BE40002B44
:102A800026D10368B34303607F23404603405B19AC
:102A90001B06DB0F8A4227D0E0681F2861D0411C4B
:102AA000E16001218140002B0ED0136819431160B1
:102AB000200003B0F0BCBB46B246A946A046F0BD1C
:102AC0003B681843386059E713688B431360EFE79E
:102AD00033000668334303607F23404603405B199D
:102AE0001B06DB0F8A42D7D15E46524603CA03C695
:102AF0005A46200000995268FFF7B6FDD8E7330028
:102B0000066833430360A6E7330006683343036077
:102B100087E7330006683343036067E733000668DE
:102B20003343036047E700260432E660A26039E7DA
:102B300000260432E660A2609EE700260432E660CA
:102B4000A26080E700260432E660A26060E700260B
:102B50000432E660A26040E700200432E060A26038
:102B600003E70021E160111DA1609AE75E4652462D
:102B700003CA03C65A46200000995268FFF774FD45
:102B8000A268216917E75E46524603CA03C65A4641
:102B9000390020005268FFF767FDA2682169EDE661
:102BA0005E46524603CA03C65A4620000099526840
:102BB000FFF75AFDA268216966E75E46524603CADE
:102BC00003C65A46200000995268FFF74DFDA268DF
:102BD000216940E75E46524603CA03C65A462000B2
:102BE00000995268FFF740FDA268216919E75E4627
:102BF000524603CA03C65A46200000995268FFF79E
:102C000033FDA2682169F1E6206800280BD0236912
:102C1000191A0BF0CBF8002322005146A360E360A1
:102C200021C921C223610BF069F9C0460368F0B5E0
:102C30004E46994657464546DE4614004A46436886
:102C4000E0B50F00991AC9108A005218984613016E
:102C5000D2181302D2181304D3185B00624A5B180F
:102C6000824683B0934200D1BBE00122002B03D007
:102C70005A00934200D9A9E04B46FD1A002A00D021
:102C800093E01823009300239B4601935D442800A2
:102C900026002368083008362860B34200D19BE044
:102CA0002B60A368AB60636826606B600023636081
:102CB0002372B9452ED04E465C464D46083609E093
:102CC0002360AB681836A3606B68183563601834EE
:102CD000BD4210D02000083020602B68B342EFD1F5
:102CE0003100102207F03CF96B6818356360183624
:102CF0001834BD42EED13B004A46183B9B1ADA0815
:102D00003A4B5343DB00DB0802335A00D318DB0095
:102D10005B440093B84530D03E003D00009C08362F
:102D200009E02360AB681836A3606B6818356360F0
:102D30001834454510D020002B6808302060B3427D
:102D4000EFD13100102207F00BF96B681835636082
:102D5000183618344545EED14346DF1B183F234B48
:102D6000FF087B43DB00DB0801335A00D318009ACD
:102D7000DB0094469C44634600934B46002B06D0F0
:102D800053464A469B684846991A0BF00FF853463B
:102D90005A461A60009A5A60019A9A6003B0F0BCD1
:102DA000BB46B246A946A046F0BD0F4B9A4211D889
:102DB0005600B618F60030000BF050FE3300834684
:102DC0005B44019318235B4400935FE74B46084E36
:102DD000FD1AF0E71A00EBE71022310007F0C0F807
:102DE00061E704480CF010F955555505ABAAAA0A3D
:102DF000F8FFFF7F648D0110F0B5C64600B500688E
:102E00008AB08846150014F0D5FB06AE071E23D104
:102E100053E0012855D13A7802A90A743200002102
:102E20000593D1546C68AB689C4233D020000830C5
:102E30002060049BB34249D02360069B0193A360AA
:102E4000059B636001936B6818336B6041460020FB
:102E500014F0B0FB071E30D03800049614F042FB8B
:102E60000400030003900F28D3D9002203A904A86B
:102E70000CF0D0F9039B049006932200390007F070
:102E80006FF80021039B049A0593D1546C68AB68DA
:102E90009C42CBD12100280004AAFFF7C7FE04986A
:102EA000B042D3D0069B591C01930AF07FFF4146E4
:102EB000002014F07FFB071ECED10AB080BCB846BC
:102EC000F0BD32000028AAD03000D6E71022310031
:102ED00007F046F8B4E70498B04203D006990131F0
:102EE0000AF064FF0BF00AF810B504002300C06973
:102EF0002433984203D0636A591C0AF057FF230019
:102F000060680C33984203D0E368591C0AF04EFF06
:102F1000200010BDF0B5030045469046020057461C
:102F20004E46DE460C332432E0B54360C2610023D6
:102F300024228360037303628354A9B003700B6877
:102F40000CAD040099464F680A95002B3ED022979D
:102F50000F2F2BD8012F00D02EE128211B7802AA99
:102F6000521813702A0000230B97D3550B9B002295
:102F700003935F23039900930AA85E3B0CF020FAA9
:102F80004346002B03D00B9B0393022B24D80A98B3
:102F9000A84203D00C9901310AF008FF200029B0A3
:102FA000F0BCBB46B246A946A046F0BD22AE002208
:102FB00031000AA80CF02EF9229B0A900C933A00DB
:102FC000494606F0CDFF229F0A9ACCE72A00002F3F
:102FD000C9D0D8480CF000F80022002306920793CD
:102FE0000023D54906AA0AA80893FFF705FF079B07
:102FF000069E0393991BC81083001B181A019B1887
:103000001A029B181A049A1852001218302900D874
:10301000A0E0002A00D148E112AB10939846336833
:1030200077689946002B00D10AE122970F2F00D92B
:10303000B2E0012F00D017E140211B7802AA5218FC
:103040001370424600231197D355079B069A0393AA
:103050009B1A182B00D821E118AB99461693936957
:10306000D7699A46002B00D1F1E022970F2F00D9A3
:10307000C7E0012F00D0F1E058211B7802AA5218B6
:1030800013704A4600231797D355079B069A03935C
:103090009B1A302B00D8FAE01EAB9A461C93136B98
:1030A000576B9B46002B00D1BBE022970F2F00D916
:1030B00097E0012F00D0DDE070211B7802AA5218A2
:1030C0001370524622AE00231D97D35524AB9B4666
:1030D0002293109B119F0393002B00D1A9E0059729
:1030E0000F2F6FD8012F00D0CBE05A461B783372D8
:1030F00000237760D355179B30001A00169903936D
:103100000CF07CFA2298584503D0B16801310AF0DE
:103110004DFE0123201D237010A90CF0BDF82000E6
:1031200016A91C300CF0B8F81C98504503D01E9915
:1031300001310AF03BFE1698484503D01899013139
:103140000AF034FE1098404508D0129901310AF077
:103150002DFE03E00A99794807F0AEF9069E079F15
:10316000BE420CD0330030680833984210D0B368A8
:103170001836591C0AF01AFEB742F3D1069F002FE9
:1031800000D104E708993800C91B0AF00FFEFEE6DB
:103190001836B742E6D1F1E722AE0022310010A87E
:1031A0000CF038F8229B109012933A00494606F032
:1031B000D7FE229F109A45E72A00002F00D1D2E6C1
:1031C0002800FCE60022300005A90CF023F8059B3E
:1031D0002290B3603A00039906F0C2FE059F229A3E
:1031E00086E722AE002231001CA80CF013F8229BC7
:1031F0001C901E933A00594606F0B2FE229F1C9A7C
:1032000061E722AE0022310016A80CF003F8229BE1
:10321000169018933A00514606F0A2FE229F169A85
:1032200030E7524622AE002F00D14CE741480BF068
:10323000D3FE5A46002F00D15AE73E480BF0CCFE91
:103240004246002F00D1FDE63A480BF0C5FE4A4643
:10325000002F00D116E737480BF0BEFE4A46002F7C
:1032600000D10FE74846D5E74246002F00D1E9E6F6
:1032700040469AE7524622AE002F00D123E750463F
:10328000B8E75A46002F00D132E75846A2E72C4A49
:10329000DB1002215A432B480BF0CEFE284ADB10EC
:1032A00001215A4327480BF0C7FE110025480BF0B7
:1032B000C3FE069E079FB74230D106980899091AA7
:1032C000002801D00AF072FD0A98A84203D00C9998
:1032D00001310AF06BFD2000FFF706FE0AF00EFE3A
:1032E0001C98504503D01E9901310AF05FFD1698D5
:1032F000484503D0189901310AF058FD109840450F
:10330000D7D0129901310AF051FDD2E722985845E1
:10331000E6D0B16801310AF049FDE1E733003068D9
:103320000833984203D0B368591C0AF03FFD1836A1
:10333000C1E7E3E7808D0110AC8D0110B08D011065
:10334000ABAAAAAAFC8C0110C5E7BDE7CFE7C0462F
:10335000F0B54E464546DE465746E0B597B005AB5C
:103360009846039300238146102503AE554C3372D3
:1033700073606421534804F057FB071E29D0A369EA
:103380001D42FCD12768FFB20A2F49D073689B46C3
:1033900001235B449A463368434518D0B26892458E
:1033A0000BD85A469F5453465146736000233268E7
:1033B0000120535403F0C4FEDBE7012300220093F5
:1033C0005946002330000BF0A1FF3368E9E70F22D4
:1033D000E5E7242209AB187398544B461870484609
:1033E0000C305860143A0CA906F0BAFD48464B461A
:1033F00024309F60D861102212A906F0B1FD4B461F
:103400001F620398404503D0B16801310AF0CEFC39
:10341000484617B0F0BCBB46B246A946A046F0BD30
:10342000294B2A48196807F047F8039F0BAD7468C9
:103430000995002F29D002940F2C17D8012C2AD1DE
:103440006A462C213B78521813702B0000220A94F4
:1034500048461A5509A90132FFF75CFD0998A842B0
:10346000CFD00B9901310AF0A1FCCAE7002202A9D2
:1034700009A80BF0CFFE029B09900B9322003900A4
:1034800006F06EFD029C099BE0E72B00002CDDD0CE
:103490000F480BF0A1FD2B00002CD7D02800EDE742
:1034A0000398404503D0B16801310AF07FFC0AF06F
:1034B00025FD0998A842F3D00B9901310AF076FC5A
:1034C000EEE7C046004003402C200020D88D0110BC
:1034D000808D0110962110B5094C8901200004F05F
:1034E00033FA0221002002F0D9FE0221012002F06D
:1034F000D5FE1023E26A9343024A136010BDC04612
:10350000004003402C500340F0B5DE4657464E467F
:103510004546E0B50768AFB00CAB06000D009B4612
:1035200044680A93002F00D1F3E128940F2C00D9AE
:10353000BAE1012C00D016E228213B7802AA5218E9
:1035400013705B4600220B941A550B9ACC4B0392D6
:103550009A4200D11EE2CB4B012219000AA89846DC
:103560000CF04CF86A6829680AA80CF047F80700C4
:1035700012AB1093036808370400BB4200D1DBE1B3
:103580001093836812936368119300236360119A08
:103590002372BB4B276003929A4200D1FDE10122C6
:1035A000414610A80CF02AF8070018AB16939A466B
:1035B000036808370400BB4200D1B7E11693836863
:1035C000189363681793002327602372376863603A
:1035D0001EAB74681C93002F00D194E128940F2C2B
:1035E00000D981E1012C00D0C2E170213B7802AA10
:1035F000521813701EAB00221D941A551CA806CD3C
:103600000BF0FCFF1D9C002C00D1A9E101211C9DA9
:103610009D4B9E4E2C192A78100058405B080142A1
:1036200001D073409BB2500858405B08014201D062
:1036300073409BB2900858405B08014201D0734030
:103640009BB2D00858405B08014201D073409BB246
:10365000100958405B08014201D073409BB25009E9
:1036600058405B08014201D073409BB2900958401A
:103670005B08014201D073409BB2D2095A405B08FB
:10368000114201D073409BB20135A542C3D1DC4346
:1036900064BAA4B2092C00D862E1632C00D870E1AE
:1036A000FA239B009C4200D268E1794B0426052155
:1036B0009C4200D868E124AB2D2222A822930BF073
:1036C000C7FD229B0393632C1BD99C46714B013E83
:1036D00098466F4B664499462000642105F0EAFF46
:1036E00020004D00642105F0E5FF43465B195B783F
:1036F0002700737043465B5D04003370023E4F4504
:10370000EAD8092C00D8DEE0624B64001A1952781E
:103710001C5D0399039B4A701C70179C239A169B8F
:10372000A018534500D1D9E01899884200D8D9E0B3
:10373000229924ADA94200D110E1249DA84200D8CD
:10374000EDE016A80BF05AFF06002AAF2897036891
:103750000836040028ADB34200D1F9E0289383680D
:10376000AB6063686B600023636023726A68444BDC
:1037700026609A4200D10AE10122280046490BF056
:103780003DFF0822904606AE04960368804404007C
:10379000434500D1D6E0049383680693636805939C
:1037A000434623600023237228986360B84203D005
:1037B000A96801310AF0FAFA229824AB984203D0A2
:1037C000249901310AF0F2FA1C981EAB984203D0FA
:1037D0001E9901310AF0EAFA1698504503D018995B
:1037E00001310AF0E3FA109812AB984203D0129913
:1037F00001310AF0DBFA0A98584503D00C990131DF
:103800000AF0D4FA0499254806F056FE0498077881
:10381000002F1BD0224B0D2100255D5F0023984611
:103820008C460400202241461E4B00291BD1BD427C
:1038300020D099690A42FCD11F60217801340D39EA
:103840004F4279412778C9B2002FEED1B04203D060
:10385000069901310AF0AAFA2FB0F0BCBB46B24675
:10386000A946A046F0BD99690A42E5D099690A4285
:10387000F9D1E1E799690A42FCD161461960D8E7BC
:10388000FFFFFF3FAC8D0110FFFF00000884FFFF2A
:103890000F2700000C8E0110B4A10110048E01103E
:1038A000C42D002000400340002228A90AA80BF0E4
:1038B000B1FC289B0A900C932200390006F050FBC3
:1038C000289C0A9B3EE6039B3034E4B21C70179C94
:1038D000239A169BA018534500D025E70F21884254
:1038E00000D925E722992CE7002228A91CA80BF073
:1038F00091FC289B1C901E932200390006F030FB9F
:10390000289C1C9B77E6002C00D174E643480BF002
:1039100063FB002C00D115E640480BF05DFB002254
:103920000021009422A80BF0A5FD0DE7102239001C
:10393000504606F015FB44E61022390012A806F0A6
:103940000FFB20E641463000083206F009FB25E770
:1039500010223100380006F003FB02E70F25EDE6E8
:1039600000260121A7E6002C00D1EBE51800A3E713
:103970001EAB002C00D13EE61800BDE70226032155
:1039800099E60126022196E6013E013993E6244894
:103990000BF03AFB22480BF037FB21480BF034FBCD
:1039A0002898B84203D0A96801310AF0FFF922989B
:1039B00024AB984203D0249901310AF0F7F91C98FE
:1039C0001EAB984203D01E9901310AF0EFF9169808
:1039D000504503D0189901310AF0E8F9109812AB5C
:1039E000984203D0129901310AF0E0F90A9858453B
:1039F00003D00C9901310AF0D9F90AF07FFAF5E702
:103A0000F4E7D4E7DBE7E9E70498B042F5D006999C
:103A100001310AF0CBF9F0E7D1E7D8E7808D01104A
:103A2000EC8D0110F0B5DE46454657464E46E0B5F2
:103A3000B7B00391B82132AB0592309304AAA94BD9
:103A40005218138002233193002304AA0231521822
:103A50001370C30F9B46C317C5185D40092D00D8CE
:103A600069E2632D00D86CE2FA239B009D4200D2EC
:103A700075E29D4B9D4200D86BE29C4B2800984616
:103A80009B4B012499469B4B9B4F9A4608E0464529
:103A900000D812E24E4500D811E2564500D826E281
:103AA0009649060005F006FE23000434BE42EED817
:103AB00008AB06935B462D22191906A80BF0C8FB2C
:103AC000069B9C46E344632D1AD98D4E864BB04627
:103AD0009946023C5C442800642105F0EBFD280077
:103AE0004F00642105F0E6FD4346DB195B782E00AC
:103AF00063704346DB5D05002370023C4E45EAD807
:103B0000092D00D9BEE13035EDB25B461D70079A34
:103B10007C4B04929A4200D123E27B4B0122190094
:103B200006A89A460BF06AFD05000EAB0C930368DD
:103B300008350400AB4200D1DFE10C9383680E939B
:103B400063680D93002363602372039B2560DA0F83
:103B50000392DA179D185540092D00D8E9E1632D2D
:103B600000D8F0E1FA239B009D4200D2EDE15E4BCC
:103B70009D4200D8EBE15D4B280098465C4B012448
:103B800099465C4B5C4F9B4608E0464500D892E165
:103B90004E4500D895E15E4500D8A4E1574906009E
:103BA00005F088FD23000434BE42EED8039E14AB1A
:103BB0002D22311912A812930BF04AFB129B9C463E
:103BC0006644B146632D1AD94D4E474BB0469B46CD
:103BD000023C4C442800642105F06CFD28004F0095
:103BE000642105F067FD4346DB195B782E006370A6
:103BF0004346DB5D05002370023C5E45EAD8092D93
:103C000000D947E13035EDB24B461D700D9C139A3B
:103C10000C9B0EA9A0188B4200D16AE10E99884234
:103C200000D844E1129914ADA94200D17DE1149D60
:103C3000A84200D84EE10CA80BF0E0FC050018AB40
:103C40009B461AAB18930493036808350400AB42F3
:103C500000D164E118935B4682689A605B466268B3
:103C60005A6000235A46636023725268254B2560D0
:103C70009A4200D178E10122514658460BF0BEFC31
:103C8000050020AB1E93036808350400AB4200D149
:103C90003FE11E938368209363681F930023636052
:103CA0002372059B2560DA0F0392DA179D185540A1
:103CB000092D00D841E1632D00D840E1FA239B0093
:103CC0009D4200D247E1084B9D4200D845E1074B99
:103CD00028009846064B01249946064B064F9A4603
:103CE0001DE0C046637400000F2700003F420F0034
:103CF0007F969800FFE0F5059F86010010270000E1
:103D00000C8E0110FFFFFF3F18B50110464500D88B
:103D1000CFE04E4500D8E4E0564500D8E5E0B8498C
:103D2000060005F0C7FC23000434BE42EED8039E13
:103D300026AB2D22311924A8994624930BF088FA3A
:103D4000249B9C4666440396632D1BD9B446AD4B19
:103D5000AD4E9A46B046023C64442800642105F00A
:103D6000A9FC28004F00642105F0A4FC4346DB19A0
:103D70005B782E0063704346DB5D05002370023CD8
:103D80005645EAD8092D00D88CE09F4B6D005A1992
:103D9000527803995D5D4A70039B20A91D701F9C9A
:103DA000259A1E9BA0188B4200D1A4E0209988423E
:103DB00000D87AE02499494500D1B8E0269DA84270
:103DC00000D880E01EA80BF019FC07002CAE2A9644
:103DD0000368083704002AADBB4200D193E02A9360
:103DE0008368AB60636829006B60002327606360B1
:103DF000237230A8FFF788FB2A98B04203D0A96845
:103E0000013109F0D3FF2498484503D026990131A8
:103E100009F0CCFF1E9820AB984203D020990131C5
:103E200009F0C4FF1898049B984204D05B46996837
:103E3000013109F0BBFF129814AB984203D01499DA
:103E4000013109F0B3FF0C980EAB984203D00E99E4
:103E5000013109F0ABFF069808AB984203D00899EE
:103E6000013109F0A3FF309832AB984203D0329968
:103E7000013109F09BFF37B0F0BCBB46B246A94602
:103E8000A046F0BD5A46604E6D0073195B78755DB3
:103E900053703AE64A465C4E6D0073195B78755D67
:103EA0005370B1E63035EDB276E724998AE712997E
:103EB000C1E65C1D3BE75C1D78E65C1DF8E59C1DDA
:103EC000F6E59C1D72E600220021009424A80BF068
:103ED000D1FA7AE700220021009412A80BF0CAFA66
:103EE000ACE69C1D23E7DC1D60E6DC1D1FE7DC1D46
:103EF000DEE50F2193E60F2159E7102229000EA8D5
:103F000006F02EF81CE610223900300006F028F8E2
:103F100068E71022290020A806F022F8BCE610224B
:103F20002900049806F01CF898E60F2580E60F2576
:103F300045E701243AE60124BAE50124F7E6022424
:103F4000F5E60224B4E5022430E603242EE6042438
:103F50002CE60424ACE50324E9E60424E7E6032484
:103F6000A6E52A480BF050F828480BF04DF80698C3
:103F700008AB984203D00899013109F017FF309837
:103F800032AB984203D03299013109F00FFF09F0AA
:103F9000B5FF2A98B04203D0A968013109F006FFA5
:103FA0002498484503D02699013109F0FFFE1E9858
:103FB00020AB984203D02099013109F0F7FE189800
:103FC000049B984204D05B469968013109F0EEFEEB
:103FD000129814AB984203D01499013109F0E6FE0F
:103FE0000C980EAB9842C2D00E99013109F0DEFE5A
:103FF000BDE7C4E7DBE7F3E7D2E7E9E7DFE7C04681
:10400000102700000F2700000C8E0110EC8D01100E
:10401000F0B5DE46454657464E46E0B58FB008AB94
:104020009B460AAB0893544B02AA138402235A46B8
:10403000536000239372C30F0193C317C5185D40EB
:10404000092D00D87CE0632D00D87BE0FA239B008B
:104050009D4200D27AE0494B9D4200D874E0484B23
:1040600028009846474B01249946474B474F9A46AC
:1040700005E046455ED94E455ED956455ED9444970
:10408000060005F017FB23000434BE42F1D8019E60
:1040900004AB2D22311902A802930BF0D9F8029B30
:1040A0009C466644B246632D1AD93A4B023C984668
:1040B000324B544499462800642105F0FBFA28004D
:1040C0004E00642105F0F6FA43469B195B782F00F9
:1040D000637043469B5D05002370023C4F45EAD860
:1040E000092D1FD83035EDB2534658461D7002A930
:1040F000FFF70AFA029804AB984203D00499013101
:1041000009F054FE08980AAB984204D05B469968BF
:10411000013109F04BFE0FB0F0BCBB46B246A946D8
:10412000A046F0BD51461B4B6D005A1952785D5D9B
:104130004A70D9E75C1DAAE79C1DA8E7DC1DA6E72D
:104140000124A4E70224A2E70424A0E703249EE7B5
:10415000029804AB984203D00499013109F026FE7D
:1041600008980AAB984204D05B469968013109F07F
:104170001DFE09F0C3FEF3E7636200000F27000095
:104180003F420F007F969800FFE0F5059F860100F3
:10419000102700000C8E0110F0B5C64600B58EB099
:1041A00004AC304B02941A8802AD22809B780AAE90
:1041B000A37003236B6000230768EB720896002F3F
:1041C0003BD0380013F08EF9804601900F2825D897
:1041D00001281ED16A4628213B78521813703300FB
:1041E0000022099008A91A542800FFF78DF90898B1
:1041F000B04203D00A99013109F0D8FD0298A042DB
:1042000003D0A968013109F0D1FD0EB080BCB846D9
:10421000F0BD33000028E3D0300007E0002201A900
:1042200008A80AF0F7FF019B08900A93424639005C
:1042300005F096FE0198089BD2E70B480AF0CCFEE9
:104240000898B04203D00A99013109F0AFFD0298F5
:10425000A04203D0A968013109F0A8FD09F04EFE83
:10426000F5E7C046088E0110808D0110034B1A003F
:1042700008321A6000225A601A7270472C200020FF
:104280007047C046C06810B5002802D00368DB69DB
:10429000984710BD0020704710B50400102109F0A8
:1042A00085FD200010BDC04610B5102109F07EFD2F
:1042B00010BDC04610B50400024B036009F08EFF2C
:1042C000200010BDA490011010B50400044B036041
:1042D00009F084FF2000042109F068FD200010BDD2
:1042E000A490011010B50400024B036009F070FBAC
:1042F000200010BD7C90011010B50400044B036039
:1043000009F066FB2000202109F050FD200010BDBF
:104310007C9001100023F0B5036043608360154B6F
:1043200004000E0083B0D5009D4216D8002D0ED09B
:1043300028000AF093FB47192060A760002D0AD0DF
:104340002A00310005F00CFE676003B0F0BD0027C5
:1043500005608560F8E70700F6E707480AF054FEB5
:104360002068A168091A002801D009F01FFD09F092
:10437000C5FDC046F8FFFF7FF883011070B5041E2D
:104380001FD02600E068FFF7F9FFB569A468002D8B
:1043900011D06B68013B6B60002B0CD12B6828009F
:1043A0009B689847AB68013BAB60002B03D12B683F
:1043B0002800DB6898471C21300009F0F7FC002C2E
:1043C000DFD170BDF0B5C646070000B500282ED07D
:1043D000B846F868FFF7F6FF4346DC69BF68002C73
:1043E0001FD02600E068FFF7C9FFB569A468002D5B
:1043F00011D06B68013B6B60002B0CD12B6828003F
:104400009B689847AB68013BAB60002B03D12B68DE
:104410002800DB6898471C21300009F0C7FC002CFD
:10442000DFD12C21404609F0C1FC002FD0D180BC47
:10443000B846F0BDF0B5D6464F464646C0B5484CE6
:10444000A54401285ED0474A1368013B1360002B46
:1044500014D1454C454D206800280BD0A368191A8B
:1044600009F0A4FC23000C3BA54207D01C002068E7
:104470000028F3D123000C3BA542F7D13C4A136836
:10448000013B1360002B26D03A4A1368013B1360AE
:10449000002B14D1384C394D206800280BD0A3686C
:1044A000191A09F083FC23000C3BA54207D01C001D
:1044B00020680028F3D123000C3BA542F7D1304BF4
:1044C0009868FFF77FFFA8239B009D44E0BCBA4695
:1044D000B146A846F0BD2B4C2B4D206800280BD0D0
:1044E000A368191A09F062FC23000C3BA542CBD04B
:1044F0001C0020680028F3D123000C3BA542C3D048
:104500001C00F6E700221E4B191DD96019611F49D6
:104510001A719A605A610B6801330B60012B02D14A
:104520001B4B1A605A60134B1A68561C1E60012EF2
:1045300000D1D9E30E4B1A68561C1E60012E00D123
:10454000B6E1084B1A68561C1E60012E24D00420C8
:104550000AF084FA040001F065FC0E4B1C60B2E71F
:1045600060FDFFFF00200020A8C401107CC30110E3
:104570000820002004200020C8C1011030C0011014
:104580008C20002068C30110DCC10110FC1F00203A
:10459000D4C10110F42700200023AB4D00222B6072
:1045A0006B60AB6001239AAC5B429A929B932100B3
:1045B0003200A64826942796FFF7ACFE01230C2272
:1045C0005B429A929B9321000B3AA1482494259236
:1045D000FFF7A0FE012365225B429A929B93210084
:1045E000643A9C4822942392FFF794FE012371229F
:1045F0005B429A929B932100703A974820942192B3
:10460000FFF788FE00232200EB632B646B64AB642E
:10461000EB642B65914B703383CB83C283CB83C216
:1046200003CB03C2042221008D481E941F92FFF782
:1046300071FE22008B4B9846103383CB83C283CB11
:1046400083C203CB03C20422210087481C941D921D
:10465000FFF760FE43462200303383CB83C283CB17
:1046600083C203CB03C20422210080481A941B9208
:10467000FFF750FE43462200503383CB83C283CBE7
:1046800083C203CB03C204222100794818941992F3
:10469000FFF740FE4746220070370BCF0BC20BCF0F
:1046A0000BC20ACF0AC20422210072481694179244
:1046B000FFF730FE2200704B9846103383CB83C245
:1046C00083CB83C203CB03C2042221006B48149422
:1046D0001592FFF71FFE43462200303383CB83C27F
:1046E00083CB83C203CB03C204222100644812940B
:1046F0001392FFF70FFE43462200503383CB83C251
:1047000083CB83C203CB03C2042221005D481094F3
:104710001192FFF7FFFD0023B422AB500432AB50DF
:104720000432AB500432AB500432AB504746043233
:10473000AB50220070370BCF0BC20BCF0BC20ACF8E
:104740000AC20422210050480E940F92FFF7E2FDA6
:1047500022004E4B9846103383CB83C283CB83C257
:1047600003CB03C20422210049480C940D92FFF7A9
:10477000D1FD43462200303383CB83C283CB83C237
:1047800003CB03C20422210042480A940B92FFF794
:10479000C1FD43462200503383CB83C283CB83C207
:1047A00003CB03C2042221003B4808940992FFF77F
:1047B000B1FD4746220070370BCF0BC20BCF0BC2A7
:1047C0000ACF0AC204222100344806940792FFF758
:1047D000A1FD2200324B9846103383CB83C283CB9A
:1047E00083C203CB03C2042221002E480494059205
:1047F000FFF790FD43462200303383CB83C283CB47
:1048000083C203CB03C204222100274802940392EF
:10481000FFF780FD4746220050370BCF0BC20BCF6E
:104820000BC20ACF0AC20422210020480094019240
:10483000FFF770FD962200235200AB500432AB50BC
:104840000432AB5083E6C0467CC3011088C301101C
:1048500094C30110A0C30110ACC30110CC9501108A
:10486000D0C301104C960110DCC30110E8C3011045
:10487000F4C3011000C40110CC9601100CC4011047
:1048800018C4011024C4011048C401104C97011031
:1048900054C4011060C401106CC4011078C401102C
:1048A000CC97011084C4011090C401109CC4011065
:1048B0000023E84F00223B607B60BB6000239A929C
:1048C0009B93012200239AAC9C929D93210001327C
:1048D000E1485E945F92FFF71DFD2200DF4B994691
:1048E000283323CB23C21B68210013600222DC483B
:1048F0005C945D92FFF70EFD4B462200383323CBCC
:1049000023C223CB23C223CB23C223CB23C2062221
:104910002100D4485A945B92FFF7FCFC00234946DF
:104920003822683120003B637B63BB63FB633B64DD
:104930007B6405F015FB07222100CB48589459925F
:10494000FFF7E8FC2200C94B9846203323CB23C253
:1049500023CB23C223CB23C223CB23C20622210095
:10496000C34856945792FFF7D5FC43462200503374
:1049700023CB23C223CB23C203CB03C204222100B7
:10498000BC4854945592FFF7C5FC4546220070354B
:104990000BCD0BC20BCD0BC203222100B6485294A3
:1049A0005392FFF7B7FC2200B44B9846083323CB51
:1049B00023C21B68210013600222B1485094519217
:1049C000FFF7A8FC43462200183323CB23C223CB96
:1049D00023C203CB03C204222100AA484E944F9263
:1049E000FFF798FC2200A84B383323CB23C223CBFC
:1049F00023C203CB03C204222100A4484C944D924D
:104A0000FFF788FC012300225B429A929B932100CE
:104A100001329F484A944B92FFF77CFC01230C2201
:104A20005B429A929B9321000B3A9A484894499290
:104A3000FFF770FC012365225B429A929B93210051
:104A4000643A954846944792FFF764FC012371222B
:104A50005B429A929B932100703A9048449445920D
:104A6000FFF758FC0023CC22BB500432BB50043269
:104A7000BB500432BB500432BB500432BB50220046
:104A8000874B9A46783323CB23C223CB23C203CB55
:104A900003C204222100834842944392FFF73AFC68
:104AA0004B462200103323CB23C223CB23C2032245
:104AB00021007D4840944192FFF72CFC43462200A0
:104AC000383323CB23C223CB23C2032221007748D0
:104AD0003E943F92FFF71EFC43462200503323CB07
:104AE00023C223CB23C223CB23C21B682100136024
:104AF00005226F483C943D92FFF70CFC554622007E
:104B000038350BCD0BC20BCD0BC20ACD0AC2042225
:104B1000210068483A943B92FFF7FCFB4346220091
:104B2000783323CB23C223CB23C203CB03C204227B
:104B30002100614838943992FFF7ECFB22005F4B6B
:104B40009846183323CB23C223CB23C20322210050
:104B50005B4836943792FFF7DDFB2200594B183340
:104B600023CB23C223CB23C223CB23C21B68210028
:104B700013600522544834943592FFF7CBFB43462B
:104B80002200303323CB23C223CB23C223CB23C227
:104B900023CB23C2062221004C4832943392FFF7E4
:104BA000B9FB4546220060350BCD0BC20BCD0BC2C5
:104BB0000BCD0BC22B6821001360052244483094B2
:104BC0003192FFF7A7FB2200424B9846083323CBD4
:104BD00023C223CB23C223CB23C223CB23C206224F
:104BE00021003D482E942F92FFF794FB434622006C
:104BF000383323CB23C223CB23C2032221003748DF
:104C00002C942D92FFF786FB43462200503323CB92
:104C100023C21B6821001360022231482A942B9280
:104C2000FFF778FB4546220060350BCD0BC22B68A1
:104C30002100136002222B4828942992FFF76AFB77
:104C4000C62200235200BB500432BB500432BB507A
:104C500077E4C046DCC10110E8C10110CC9301101B
:104C6000F4C1011000C2011024C201104C940110C3
:104C700030C201103CC2011048C20110CC94011096
:104C800054C2011060C20110CC9101106CC201101D
:104C900078C2011084C2011090C201109CC20110A0
:104CA0004C920110C0C20110CCC20110D8C2011038
:104CB000E4C20110F0C20110FCC201104C950110B9
:104CC00008C30110CC92011014C3011020C30110BD
:104CD0002CC30110CC95011038C3011044C301103E
:104CE00050C301105CC301100023FB4F00223B6046
:104CF0007B60BB6000239A929B93012200239AACB5
:104D00009C929D9321000132F44898949992FFF768
:104D100001FBF34B98462300424623CA23C323CA10
:104D200023C303222100EF4896949792FFF7F2FAEB
:104D300043462200183323CB23C223CB23C20322B2
:104D40002100E94894949592FFF7E4FA4346220043
:104D5000303323CB23C223CB23C203CB03C2042291
:104D60002100E24892949392FFF7D4FA0023FB6368
:104D70003B647B64BB64FB643B6543462200503369
:104D800023CB23C223CB23C203CB03C204222100A3
:104D9000D74890949192FFF7BDFA454622007035AE
:104DA0000BCD0BC20BCD0BC20ACD0AC204222100CF
:104DB000D0488E948F92FFF7ADFACF4D382229005C
:104DC0002000103105F0CCF807222100CB488C944C
:104DD0008D92FFF79FFA290038224831200005F014
:104DE000BFF807222100C6488A948B92FFF792FAF7
:104DF000C44B98462300424623CA23C323CA23C375
:104E000003222100C04888948992FFF783FA434621
:104E10002200183323CB23C223CB23C203CB03C2EC
:104E200004222100B94886948792FFF773FA43461B
:104E30002200383323CB23C223CB23C203CB03C2AC
:104E400004222100B24884948592FFF763FA434616
:104E50002200583323CB23C223CB23C203CB03C26C
:104E600004222100AB4882948392FFF753FA012376
:104E700000225B429A929B9321000132A6488094C3
:104E80008192FFF747FA01230C225B429A929B938F
:104E900021000B3AA1487E947F92FFF73BFA012351
:104EA00065225B429A929B932100643A9C487C94D1
:104EB0007D92FFF72FFA012371225B429A929B9316
:104EC0002100703A97487A947B92FFF723FA0023E7
:104ED000E422BB500432BB500432BB500432BB50FE
:104EE0000432BB5045460432BB50220078350BCD0E
:104EF0000BC20BCD0BC20ACD0AC2042221008A4884
:104F000078947992FFF706FA2200884B9A46183374
:104F100023CB23C223CB23C203CB03C20422210011
:104F2000834876947792FFF7F5F953462200383399
:104F300023CB23C223CB23C203CB03C204222100F1
:104F40007C4874947592FFF7E5F953462200583374
:104F500023CB23C223CB23C203CB03C204222100D1
:104F6000754872947392FFF7D5F95546220078354B
:104F70000BCD0BC20BCD0BC20ACD0AC204222100FD
:104F80006E4870947192FFF7C5F922006C4B9846F9
:104F9000183323CB23C223CB23C223CB23C21B68CA
:104FA00021001360052267486E946F92FFF7B2F9F3
:104FB00043462200403323CB23C223CB23C223CB3F
:104FC00023C223CB23C2062221005F486C946D923A
:104FD000FFF7A0F94546220070350BCD0BC20BCD73
:104FE0000BC20ACD0AC20422210058486A946B926F
:104FF000FFF790F92200564B9846103323CB23C27B
:1050000023CB23C203CB03C204222100514868945E
:105010006992FFF77FF943462200303323CB23C246
:1050200023CB23C203CB03C2042221004A48669447
:105030006792FFF76FF943462200503323CB23C218
:1050400023CB23C203222100444864946592FFF7D6
:1050500061F94546220068350BCD0BC20BCD0BC262
:105060000BCD0BC22B682100136005223C486294D3
:105070006392FFF74FF922003A4B103323CB23C240
:1050800023CB23C203222100374860946192FFF7AB
:1050900041F9CC2200235200BB500432BB500432F1
:1050A000BB50FFF747FA0421200008F07FFE08F00C
:1050B00025FF2224A61B163C74433C19BC42F6D0A3
:1050C0000C3C2068A368191A0028F7D008F06EFE7F
:1050D000F4E70226EDE7C04630C001103CC00110E5
:1050E000CC90011048C0011054C0011060C00110E4
:1050F00084C0011090C001104C9101109CC001109F
:10510000A8C00110CC910110B4C00110C0C00110A2
:10511000CCC00110D8C00110E4C00110F0C00110D3
:10512000FCC0011008C101102CC101104C920110EB
:1051300038C1011044C1011050C101105CC10110FF
:10514000CC92011068C1011074C1011080C101101E
:105150004C9301108CC1011098C10110A4C1011021
:10516000B0C10110CC930110BCC101100426A0E70E
:1051700005269EE703269CE706269AE70A2698E777
:105180000B2696E70C2694E70D2692E7082690E773
:1051900009268EE707268CE710268AE711261924B0
:1051A000A61B0D3C74432C19AC4200D17FE70C3C8C
:1051B0002068A368191A0028F6D008F0F7FDF3E775
:1051C0001226ECE71526EAE71626E8E72124A61BB7
:1051D000153C74433C19BC4200D168E70C3C206884
:1051E000A368191A0028F6D008F0E0FDF3E70326BB
:1051F000ECE70226EAE70426E8E70526E6E70926C3
:10520000E4E70A26E2E70B26E0E70C26DEE70726BE
:10521000DCE70826DAE70626D8E70D26D6E71726C4
:10522000D4E71826D2E71926D0E71A26CEE71B26A0
:10523000CCE71E26CAE71F26C8E72026C6E71326A6
:10524000C4E71426C2E71526C0E71626BEE71126D6
:10525000BCE71226BAE70E26B8E703269FE7042626
:105260009DE705269BE7062699E798E7022696E73D
:10527000172694E7182692E7072690E708268EE778
:105280000B268CE70C268AE70D2688E70E2686E794
:105290000F2684E7102682E718260AE7192608E772
:1052A0001A2606E71B2604E71E2602E71F2600E74C
:1052B0002026FEE62126FCE61426FAE61526F8E668
:1052C0001626F6E61726F4E61226F2E61326F0E690
:1052D0001126EEE670B50C00002802D003689B682A
:1052E00098471D4D6C60022C14D00ADC002C21D094
:1052F000012C16D1042009F0B1FB0400FBF70EFCD1
:1053000070BD032C0DD1042009F0A8FB0400FCF7AC
:10531000F1FCF5E7042009F0A1FB0400FCF7E4F937
:10532000EEE7042009F09AFB040000F07BFD002367
:105330006B60E5E7042009F091FB040000F072FDCA
:10534000DEE70421200008F031FD08F0D7FDF8E782
:10535000F7E7F6E7F5E7C046D4C10110F0B5C64659
:1053600000B5244E84B02449300007F063FF0321C8
:10537000022000F093FF0321032000F08FFF0022A2
:105380000121022000F0A2FF00220121032000F0F1
:105390009DFF1A4B012500249846194F07E05C2C0D
:1053A0001AD0682C1FD0802D20D0013401357823ED
:1053B0001A0022402342F6D0782AF4D000230F228C
:1053C00000933000E1B201336A4407F0C5FF0028C2
:1053D00004DCE8D1232CE2D13C60E6E72100094857
:1053E00005F06AF8F6E743461C60DEE704B080BCCF
:1053F000B846F0BD28150020A0860100401400200A
:105400003C140020D88E0110F0B5184E85B03168DC
:10541000002927DB01250023154F03AC2370220050
:10542000C9B201333800009507F02EFF317801230F
:10543000220025703800009507F026FF07233178F9
:1054400023702200063B3800009507F01DFF132350
:1054500031782370220038000095123B07F014FFCA
:1054600005B0F0BD034805F027F8F9E73C1400202B
:1054700028150020EC8E011070B5294C294D2368A9
:10548000294E9A002868925984B0821A2A60274AC5
:10549000116800291FDB002303AA0093244802336C
:1054A000C9B207F059FF6B466A461B7B527B002846
:1054B0002FDD1802801804F0D1FB1E4A1E4B04F0A9
:1054C00046FB04F0E3FB23689A0000281CDB9051A4
:1054D0002A6894466044013328601D2B00DD0023B8
:1054E0001E21236004F0BEF8FF2314220093002144
:1054F000FA3BFDF7ADF8052802DA052004B070BDCF
:10550000FF28FBDDFF20F9E790592A6894466044A4
:10551000E1E723689A0090592A6894466044DAE7E4
:10552000202C002050260020242C00203C14002099
:10553000281500203333333333330340F0B5474667
:10554000CE460022002380B589B004920593002343
:10555000804604AA080052490693FDF74DFC049BBF
:1055600000269946059B002503934B456AD04D4F75
:105570008021404608F032F9059A049B0392D01A24
:10558000C010810009180A0189180A0289180A0442
:105590008A1852001218AA4265D9002200249146A6
:1055A00021E03868002808D01B6841461A5D4B4648
:1055B000303A0093002300F03DFEFA20800001F015
:1055C000BFFD059A049B0392D11AC9108A00521894
:1055D000100112181002121810041218520052185A
:1055E0000134AA423FD99B195A68A242D9D80A214C
:1055F000404608F0F3F8FA20C00001F0A1FD059B39
:10560000049C99461A1BD21093009B1819015B1831
:1056100019025B1819045B185B0001359B181836DA
:10562000AB42A5D84C450DD02300206808339842E2
:1056300015D0A3681834591C08F0B8FBA145F3D164
:10564000049B99464B46002B04D006994846C91A3C
:1056500008F0ACFB09B0C0BCB946B046F0BD183488
:10566000A145E1D1ECE729000F4809F0E5FC049CD5
:10567000059DA54208D104980699091A002801D071
:1056800008F094FB08F03AFC2300206808339842A5
:1056900003D0A368591C08F089FB1834E9E7C04619
:1056A000B4BB0110F4270020FC8C0110F0B5464675
:1056B0004F46D6468468031DC0B588460600994605
:1056C000002C67D04D460B6803E02500A468002C31
:1056D00005D022699342F8D9E468002CF9D1A94594
:1056E00058D02A6993422DD22C2009F0B7F94346AD
:1056F0001B688462036198460300183303624362A7
:105700002B6907009A460476C461434521D9F368A2
:105710009A46AB420BD0280009F070FB03690400E5
:10572000434500D38BE0C368002B00D176E02C000A
:105730003D0001204B462200290009F07BFB7369E4
:105740000133736128001430E0BCBA46B146A84664
:10575000F0BDC24516D23369AB4209D0280009F02A
:1057600037FB0369040043455AD9EB68002BDFD1AE
:105770002C003D002AE02300002945D190453ED869
:105780002F0025000020FEF7F9FD2C21380008F03D
:105790000DFBD7E72C2009F061F943461B68020096
:1057A0009846036100230376C361836273691832EC
:1057B000050002624262002B0CD034692369434524
:1057C00008D20120A145B5D023699A46D045804131
:1057D0004042AFE7B468002C05D114E00121A36872
:1057E000002BC8D01C0022694245F7D80021E3688D
:1057F000F6E72B00002932D19045C3D93D00002B9C
:1058000041D01C00DDE74C46F368A342D9D020000C
:1058100009F0F4FA230002690400AFE73D00D0E785
:10582000B568002D05D12CE00121AB68002B1FD0FD
:105830001D002A699045F7D30021EB68F6E7B568AB
:10584000002D05D10AE00121AB68002BD1D01D004D
:105850002A694245F7D80021EB68F6E74D46AA458C
:105860000CD0280009F0CAFA2B0002690500C3E732
:105870002B000029C0D0F368AB42F2D12B003D00D1
:10588000BDE74D46F7E72F0000257BE770B50468BC
:105890000500002C11D06368013B6360002B0CD124
:1058A000236820009B689847A368013BA360002BF6
:1058B00003D123682000DB689847280070BDC046EC
:1058C000F0B5DE46454657464E46E0B5A3B004F077
:1058D000FFFD192000F012FDD02380221B06920448
:1058E0005A625A61FDF7F6FDFA20C00001F028FC6B
:1058F00016ADD44804F0E0FDFCF7A0FE2A00D24B20
:10590000149503CB03C208231593002314AC200085
:105910002374FCF707FE1498A84203D0A368591C0F
:1059200008F044FAFFF71AFDFFF76EFD0023C74F9A
:1059300009AD290038000993FFF7B8FE8368061DFA
:10594000002B09D01A009B68002BFBD1964203D094
:105950001369002B00D199E129003800FFF7A6FE5A
:105960000430864200D02EE2202009F077F8002390
:10597000049303330393023B029301330193713386
:1059800000930022B249633B060008F0B5F80023FB
:1059900010200E960F9309F061F801234360836095
:1059A000AC4BC66003600F9029003800FFF77EFE05
:1059B0008368021D07009146002B00D1A1E11E0063
:1059C0009B68002BFBD1B14502D03369002B14D06A
:1059D0001C2009F043F80023804603614361836182
:1059E0004E4500D167E13369002B00D050E14046BD
:1059F000B0461C2108F0DAF946460E9BB769736180
:105A00000F9B9846BB4218D0002B03D042465B68E0
:105A100001335360002F0ED07B68013B7B60002B6D
:105A200009D13B6838009B689847BB68013BBB6065
:105A3000002B00D14FE14346B3610F9B0E990F9AA3
:105A400014911592002B02D05A6801325A6021003D
:105A50000BA807F09DFE15A8FFF718FF0FA8FFF78A
:105A600015FF7D4B02211B6818000793FFF732FCDE
:105A7000D02380221B0692049A61784B9946784B7A
:105A80009A46784B9B462800FCF7DCFD0523EB5635
:105A9000072698464B460627AE571B68EF579E428F
:105AA0000BD04B461E606C4B1868002805D03B009D
:105AB000424600960BA900F0BDFB53461B68BB4253
:105AC00006D053463200390040461F60FDF7AAFF5A
:105AD0005B461868002855D0634B644E1A683060E6
