:020000041000EA
:1000000000B50C4B00219960042159610A4919601F
:100010000A490B480160002159600121996001BC27
:10002000002800D0004707480749086003C880F34C
:10003000088808470000001800031F00180200038A
:10004000F40000180001001008ED00E000000000BE
:1000500000000000000000000000000000000000A0
:100060000000000000000000000000000000000090
:100070000000000000000000000000000000000080
:100080000000000000000000000000000000000070
:100090000000000000000000000000000000000060
:1000A0000000000000000000000000000000000050
:1000B0000000000000000000000000000000000040
:1000C0000000000000000000000000000000000030
:1000D0000000000000000000000000000000000020
:1000E0000000000000000000000000000000000010
:1000F0000000000000000000000000002CEC210DBA
:1001000000200420F7010010C3010010C5010010F9
:10011000C1010010C1010010C1010010C101001097
:10012000C1010010C1010010C1010010C701001081
:10013000C1010010C1010010C9010010CB01001065
:10014000CD010010CD010010CD010010CD01001037
:10015000CD010010CD010010CD010010CD01001027
:10016000CD010010CD010010CD010010CD01001017
:10017000CD010010CD010010CD010010CD01001007
:10018000CD010010CD010010CD010010CD010010F7
:10019000CD010010CD010010CD010010CD010010E7
:1001A000CD010010CD010010CD010010CD010010D7
:1001B000CD010010CD010010CD010010CD010010C7
:1001C00000BE00BE00BE00BE00BE00BE00F04BF888
:1001D000103800BEF2EB8871FCA6011020A70110B8
:1001E0003402001090A31AE700202149086006C8D5
:1001F00081F3088810471F48006800282FD10DA4FC
:100200000ECC002902D000F012F8F9E71A491B4A77
:10021000002000E001C19142FCD1194988471949E9
:1002200088471949884700BEFDE701C901C29A42C3
:10023000FBD3704720A70110C0000020D41D002070
:1002400034C40110000004200000042034C4011054
:1002500000100420001004200000000070470B482C
:1002600007F036FA0047EFF30580C0B27047000090
:1002700008ED00E0000000D0D81D0020B0300020C4
:100280001D5B001099390010455C001057560000A6
:1002900006005250ABB36053D076011006005250A6
:1002A000861C0302EC760110060052505422A29DD7
:1002B000F876011005005250DE65F46834C4011070
:1002C000F8B5C04610B5064C2378002B07D1054B76
:1002D000002B02D0044800E000BF0123237010BDB2
:1002E000E01F002000000000C8640110044B10B59E
:1002F000002B03D00349044800E000BF10BDC046F6
:1003000000000000E41F0020C86401107047C046D0
:1003100010B503685B68984710BDC0460023F0B570
:10032000036043608360154B04000E0083B0D5006A
:100330009D4216D8002D0ED028000CF0F7FB47196F
:100340002060A760002D0AD02A00310007F070FE5F
:10035000676003B0F0BD002705608560F8E707001F
:10036000F6E707480CF0B8FE2068A168091A0028D3
:1003700001D00BF083FD0BF029FEC046F8FFFF7F94
:10038000C8640110F0B5C646040000B5002825D0A9
:100390001A4B1B4F98462600E068FFF7F3FFB5693C
:1003A000A468002D14D06B68013B6B60002B0FD14B
:1003B0002B689B68BB4214D1AB68013BAB60002B40
:1003C00006D12B68DA6842450ED128005B68984751
:1003D0001C2130000BF052FD002CDCD180BCB84653
:1003E000F0BD28009847E7E7280090471C2130001F
:1003F0000BF044FD002CCED1F0E7C04611030010F5
:100400000D030010F0B5DE4657464E464546E0B5B2
:10041000834685B0002800D199E05B46DB680193F4
:10042000002B00D186E0019BDB689946002B72D03F
:100430004B46DB689A46002B60D05346DC68002CA4
:1004400042D0E668002E27D0F3689846002B2FD0C4
:100450004346DD68002D44D0EF68002F10D0F868C7
:10046000FFF7D0FF3B00DA69BF68100002930392E8
:10047000FFF788FF2C2102980BF000FD002FEED132
:10048000AF68E869FFF77EFF2C2128000BF0F6FC2F
:10049000002F26D03D00DFE7A568E069FFF772FF77
:1004A0002C2120000BF0EAFC002D0DD02C00C8E719
:1004B000B568F069FFF766FF2C2130000BF0DEFC19
:1004C000002DE9D02E00BFE753469C68D869FFF79E
:1004D00059FF2C2150460BF0D1FC002C0ED0A24627
:1004E000ABE743469D68D869FFF74CFF2C21404697
:1004F0000BF0C4FC002DDBD0A846A9E74B469C6856
:10050000D869FFF73FFF2C2148460BF0B7FC002CC1
:1005100001D0A1468CE7019DEB69AC6818000193FE
:10052000FFF730FF2C2128000BF0A8FC002C01D095
:10053000019478E75B469C68D869FFF723FF2C217C
:1005400058460BF09BFC002C01D0A34665E705B094
:10055000F0BCBB46B246A946A046F0BDF0B5C646C3
:1005600000B5C8B001282BD0114A1368013B1360B5
:10057000002B14D10F4C104D206800280BD0A3681D
:10058000191A0BF07BFC23000C3BA54207D01C0082
:1005900020680028F3D123000C3BA542F7D1074B7C
:1005A0009868FFF72FFF48B080BCB846F0BDC04642
:1005B0000420002018230020802100202423002074
:1005C0000022FA4B191DD9601961F9491A719A6014
:1005D0005A610B6801330B60012B02D1F54B1A6095
:1005E0005A60F54B1A68551C1D60012DDBD10023A4
:1005F000F24F00223B607B60BB6000233A923B934A
:10060000012200233AAC3C923D9321000132EC4898
:1006100038943992FFF782FEEA4B9846230042460F
:1006200043CA43C343CA43C303222100E648369466
:100630003792FFF773FE43462200183343CB43C281
:1006400043CB43C203222100E04834943592FFF7A4
:1006500065FE43462200303343CB43C243CB43C203
:1006600003CB03C204222100D94832943392FFF70E
:1006700055FE0023FB633B647B64BB64FB643B650A
:1006800043462200503343CB43C243CB43C203CB48
:1006900003C204222100CF4830943192FFF73EFE7E
:1006A0004646220070360BCE0BC20BCE0BC20ACED2
:1006B0000AC204222100C8482E942F92FFF72EFE72
:1006C000C64E382231002000103107F0B1FC07225D
:1006D0002100C3482C942D92FFF720FE31003822D0
:1006E0004831200007F0A4FC07222100BD482A94CD
:1006F0002B92FFF713FEBC4B98462300424643CA99
:1007000043C343CA43C303222100B8482894299213
:10071000FFF704FE43462200183343CB43C243CBCA
:1007200043C203CB03C204222100B148269427927E
:10073000FFF7F4FD43462200383343CB43C243CB9B
:1007400043C203CB03C204222100AA482494259269
:10075000FFF7E4FD43462200583343CB43C243CB6B
:1007600043C203CB03C204222100A3482294239254
:10077000FFF7D4FD012300225B423A923B93210014
:1007800001329E4820942192FFF7C8FD01230C22DC
:100790005B423A923B9321000B3A99481E941F9278
:1007A000FFF7BCFD012365225B423A923B93210097
:1007B000643A94481C941D92FFF7B0FD0123712206
:1007C0005B423A923B932100703A8F481A941B92F5
:1007D000FFF7A4FD0023E422BB500432BB500432D7
:1007E000BB500432BB500432BB5046460432BB50AF
:1007F000220078360BCE0BC20BCE0BC20ACE0AC239
:1008000004222100814818941992FFF787FD2200E5
:100810007F4B9846183343CB43C243CB43C203CBF1
:1008200003C2042221007B4816941792FFF776FD3D
:1008300043462200383343CB43C243CB43C203CBAE
:1008400003C204222100744814941592FFF766FD38
:1008500043462200583343CB43C243CB43C203CB6E
:1008600003C2042221006D4812941392FFF756FD33
:100870004646220078360BCE0BC20BCE0BC20ACEF8
:100880000AC204222100664810941192FFF746FD27
:100890002200644B9846183343CB43C243CB43C238
:1008A00043CB43C21B682100136005225E480E94AF
:1008B0000F92FFF733FD43462200403343CB43C240
:1008C00043CB43C243CB43C243CB43C206222100A6
:1008D00056480C940D92FFF721FD464622007036D3
:1008E0000BCE0BC20BCE0BC20ACE0AC204222100D1
:1008F0004F480A940B92FFF711FD22004D4B98468A
:10090000103343CB43C243CB43C203CB03C20422C5
:100910002100494808940992FFF700FD4346220050
:10092000303343CB43C243CB43C203CB03C2042285
:100930002100424806940792FFF7F0FC434622004C
:10094000503343CB43C243CB43C2032221003C4834
:1009500004940592FFF7E2FC4646220068360BCE6F
:100960000BC20BCE0BC20BCE0BC23368210013603F
:100970000522344802940392FFF7D0FC2200324B48
:10098000103343CB43C243CB43C2032221002F4841
:1009900000940192FFF7C2FCCC2200235200BB500E
:1009A0000432BB500432BB50FDE5C0462423002076
:1009B000FC1F002040200020042000208021002077
:1009C0008C210020FC64011098210020A42100202B
:1009D000B0210020D4210020E02100207C650110FE
:1009E000EC210020F8210020FC65011004220020E9
:1009F000102200201C220020282200203422002067
:100A0000402200204C220020582200207C2200207E
:100A10007C6601108822002094220020A022002061
:100A2000AC220020FC660110B8220020C422002065
:100A3000D02200207C670110DC220020E822002068
:100A4000F422002000230020FC6701100C2300206A
:100A500021252224651B163C6C433C19BC4238D12D
:100A60000BF0B4FAF5E70325F3E70425F1E70225D7
:100A7000EFE70525EDE70925EBE70A25E9E70B2573
:100A8000E7E70C25E5E70725E3E70825E1E7062585
:100A9000DFE70D25DDE71025DBE71725D9E718256A
:100AA000D7E71925D5E71A25D3E71B25D1E71E255A
:100AB000CFE71F25CDE72025CBE71325C9E7142570
:100AC000C7E71525C5E71625C3E71125C1E7122598
:100AD000BFE70C3C2068A368191A0028BED00BF0B1
:100AE000CDF9BBE710B50120FFF738FD10BDC046BA
:100AF000F0B5C646040000B5002825D01A4B1B4FA0
:100B000098462600E068FFF7F3FFB569A468002D5A
:100B100014D06B68013B6B60002B0FD12B689B6876
:100B2000BB4214D1AB68013BAB60002B06D12B68F4
:100B3000DA6842450ED128005B6898471C213000D6
:100B40000BF09CF9002CDCD180BCB846F0BD28002D
:100B50009847E7E7280090471C2130000BF08EF9FA
:100B6000002CCED1F0E7C046110300100D03001099
:100B7000F0B5DE4657464E464546E0B5834685B05D
:100B8000002800D199E05B46DB680193002B00D17F
:100B900086E0019BDB689946002B72D04B46DB68F0
:100BA0009A46002B60D05346DC68002C42D0E668A1
:100BB000002E27D0F3689846002B2FD04346DD68DF
:100BC000002D44D0EF68002F10D0F868FFF7D0FF59
:100BD0003B00DA69BF68100002930392FFF788FFB9
:100BE0002C2102980BF04AF9002FEED1AF68E8698A
:100BF000FFF77EFF2C2128000BF040F9002F26D0B4
:100C00003D00DFE7A568E069FFF772FF2C212000B7
:100C10000BF034F9002D0DD02C00C8E7B568F06951
:100C2000FFF766FF2C2130000BF028F9002DE9D0EA
:100C30002E00BFE753469C68D869FFF759FF2C2167
:100C400050460BF01BF9002C0ED0A246ABE74346F2
:100C50009D68D869FFF74CFF2C2140460BF00EF938
:100C6000002DDBD0A846A9E74B469C68D869FFF762
:100C70003FFF2C2148460BF001F9002C01D0A14682
:100C80008CE7019DEB69AC6818000193FFF730FF1A
:100C90002C2128000BF0F2F8002C01D0019478E709
:100CA0005B469C68D869FFF723FF2C2158460BF060
:100CB000E5F8002C01D0A34665E705B0F0BCBB46C3
:100CC000B246A946A046F0BD0023F0B503604360DC
:100CD0008360154B04000E0083B0D5009D4217D8E9
:100CE000002D0FD028000BF021FF47192060A760CE
:100CF000002D0BD02A00310007F09AF92000676020
:100D000003B0F0BD002705608560F7E70700F5E751
:100D100006480CF0E1F92068A168091A002801D002
:100D20000BF0ACF80BF052F9F8FFFF7FC86401102C
:100D3000F0B5C64600B5B2B0012822D0E44A136827
:100D4000013B1360002B14D1E24CE34D20680028D6
:100D50000BD0A368191A0BF091F823000C3BA542A5
:100D600007D01C0020680028F3D123000C3BA542CB
:100D7000F7D1DA4B9868FFF7FBFE32B080BCB8467B
:100D8000F0BD0022D54B191DD9601961D4491A71E3
:100D90009A605A610B6801330B60012B02D1D14B71
:100DA0001A605A60CA4B1A68551C1D60012DE4D1A7
:100DB0000023C94F00223B607B60BB6001232AAC4B
:100DC0005B422A922B9321002A00C74826AB289425
:100DD0002995FFF779FF01230C225B422A922B937E
:100DE00021000B3AC14824AB26942792FFF76CFFF1
:100DF000012365225B422A922B932100643ABC486E
:100E000022AB24942592FFF75FFF012371225B42FE
:100E10002A922B932100703AB64820AB2294239259
:100E2000FFF752FF0023FB633B647B64BB64FB64FE
:100E30003B65B14B98462300424643CA43C343CA6D
:100E400043C303CA03C304222100AC481EAB209451
:100E50002192FFF739FF43462200203343CB43C2A0
:100E600043CB43C203CB03C204222100A4481CABE2
:100E70001E941F92FFF728FF43462200403343CBC6
:100E800043C243CB43C203CB03C2042221009D488B
:100E90001AAB1C941D92FFF717FF464622006036DE
:100EA0000BCE0BC20BCE0BC20ACE0AC2042221000B
:100EB000954818AB1A941B92FFF706FF934B984680
:100EC0002300424643CA43C343CA43C303CA03C3BE
:100ED000042221008E4816AB18941992FFF7F4FEF5
:100EE00043462200203343CB43C243CB43C203CB10
:100EF00003C204222100874814AB16941792FFF70F
:100F0000E3FE43462200403343CB43C243CB43C2BC
:100F100003CB03C2042221007F4812AB1494159224
:100F2000FFF7D2FE4646220060360BCE0BC20BCE38
:100F30000BC20ACE0AC204222100784810AB1294D8
:100F40001392FFF7C1FE0023B422BB500432BB5002
:100F50000432BB500432BB500432BB500432BB508D
:100F60006F4B98462300424643CA43C343CA43C318
:100F700003CA03C3042221006A480EAB10941192E5
:100F8000FFF7A2FE43462200203343CB43C243CBAC
:100F900043C203CB03C20422210063480CAB0E946E
:100FA0000F92FFF791FE43462200403343CB43C2EA
:100FB00043CB43C203CB03C2042221005B480AABEC
:100FC0000C940D92FFF780FE4646220060360BCE51
:100FD0000BC20BCE0BC20ACE0AC204222100544817
:100FE00008AB0A940B92FFF76FFE524B9846230012
:100FF000424643CA43C343CA43C303CA03C304228A
:1010000021004D4806AB08940992FFF75DFE434668
:101010002200203343CB43C243CB43C203CB03C2A2
:1010200004222100454804AB06940792FFF74CFECA
:1010300043462200403343CB43C243CB43C203CB9E
:1010400003C2042221003E4802AB04940592FFF73C
:101050003BFE4646220060360BCE0BC20BCE0BC2C7
:101060000ACE0AC204222100364801AB0294039240
:10107000FFF72AFE962200235200BB500432BB50D9
:101080000432BB5079E618251924651B0D3C6C43CE
:101090003C19BC4262D10AF099FFF5E70225F3E75B
:1010A0000325F1E70425EFE70525EDE70E25EBE73E
:1010B0000F25E9E71025E7E71125E5E71225E3E726
:1010C0001525E1E71625DFE71725DDE70825DBE72E
:1010D0000020002074210020482000203C23002014
:1010E000FC1F002040200020542000206020002011
:1010F0006C20002078200020246801109C20002013
:10110000A8200020B4200020C0200020A4680110E6
:10111000CC200020D8200020E4200020F020002057
:101120002469011014210020202100202C210020FE
:1011300038210020A4690110442100205021002002
:101140005C210020682100200B259DE70C259BE7F2
:101150000D2599E7062597E7072595E70C3C2068BC
:10116000A368191A002894D00AF088FE91E7C046B7
:1011700010B50120FFF7DCFD10BDC04630B5436857
:1011800089B0002B01D109B030BD002200230492A8
:10119000059300233A4904AA069300F077F9059DC8
:1011A000049C2B1B302B29D9206813F01BFA059BBC
:1011B000049A019345B29B1A182B41D9906913F0F8
:1011C00011FA059B049A019344B29B1A302B30D933
:1011D000106B13F007FA2B4B02AA13802A4BD07125
:1011E00053800023100013715571947109F0B0FF02
:1011F0004020002103F0F4FF049C059DAC420CD07C
:1012000023002068083398420FD0A3681834591C73
:101210000AF034FEAC42F3D1049D002DB3D0069900
:101220002800491B0AF02AFEADE71834AC42E7D18A
:10123000F2E7164ADB1002215A4315480BF064FF0F
:10124000124ADB1001215A4311480BF05DFF049C48
:10125000059DA54208D104980699091A002801D0D5
:101260000AF00CFE0AF0B2FE230020680833984210
:1012700003D0A368591C0AF001FE1834E9E7C04600
:10128000E08F0110E407000006050000ABAAAAAA3F
:10129000246A011010B509F03FFF10BD10B504001D
:1012A00009F0ACFF200010BD10B51C00431A0298D5
:1012B000511A001B584306F03DFA001910BDC046F4
:1012C0000368F0B54E46994657464546DE4614003B
:1012D0004A464368E0B50F00991AC9108A005218AF
:1012E00098461301D2181302D2181304D3185B00C6
:1012F000624A5B18824683B0934200D1BBE0012270
:10130000002B03D05A00934200D9A9E04B46FD1AA6
:10131000002A00D093E01823009300239B460193FA
:101320005D44280026002368083008362860B34250
:1013300000D19BE02B60A368AB60636826606B60A4
:10134000002363602372B9452ED04E465C464D465D
:10135000083609E02360AB681836A3606B6818355F
:1013600063601834BD4210D02000083020602B6824
:10137000B342EFD13100102206F05AFE6B681835E7
:10138000636018361834BD42EED13B004A46183B24
:101390009B1ADA083A4B5343DB00DB0802335A004E
:1013A000D318DB005B440093B84530D03E003D00CD
:1013B000009C083609E02360AB681836A3606B68B0
:1013C000183563601834454510D020002B6808306C
:1013D0002060B342EFD13100102206F029FE6B6885
:1013E00018356360183618344545EED14346DF1B87
:1013F000183F234BFF087B43DB00DB0801335A0017
:10140000D318009ADB0094469C44634600934B46F5
:10141000002B06D053464A469B684846991A0AF064
:101420002DFD53465A461A60009A5A60019A9A60F6
:1014300003B0F0BCBB46B246A946A046F0BD0F4B78
:101440009A4211D85600B618F60030000BF06EFB29
:10145000330083465B44019318235B4400935FE7AA
:101460004B46084EFD1AF0E71A00EBE71022310058
:1014700006F0DEFD61E704480BF02EFE55555505DC
:10148000ABAAAA0AF8FFFF7F706A0110F0B5C64642
:1014900000B500688AB08846150014F0F3F806AE6F
:1014A000071E23D153E0012855D13A7802A90A74C6
:1014B000320000210593D1546C68AB689C4233D054
:1014C000200008302060049BB34249D02360069B73
:1014D0000193A360059B636001936B6818336B6095
:1014E0004146002014F0CEF8071E30D03800049694
:1014F00014F060F80400030003900F28D3D90022F1
:1015000003A904A80BF0EEFE039B049006932200AF
:10151000390006F08DFD0021039B049A0593D154F8
:101520006C68AB689C42CBD12100280004AAFFF76D
:10153000C7FE0498B042D3D0069B591C01930AF011
:101540009DFC4146002014F09DF8071ECED10AB044
:1015500080BCB846F0BD32000028AAD03000D6E7E3
:101560001022310006F064FDB4E70498B04203D0C5
:10157000069901310AF082FC0AF028FD10B504003A
:101580002300C0692433984203D0636A591C0AF0CF
:1015900075FC230060680C33984203D0E368591C43
:1015A0000AF06CFC200010BDF0B5030045469046E3
:1015B000020057464E46DE460C332432E0B5436007
:1015C000C261002324228360037303628354A9B0A1
:1015D00003700B680CAD040099464F680A95002B08
:1015E0003ED022970F2F2BD8012F00D02EE128219B
:1015F0001B7802AA521813702A0000230B97D355A8
:101600000B9B002203935F23039900930AA85E3B80
:101610000BF03EFF4346002B03D00B9B0393022BA2
:1016200024D80A98A84203D00C9901310AF026FC6C
:10163000200029B0F0BCBB46B246A946A046F0BD8A
:1016400022AE002231000AA80BF04CFE229B0A9029
:101650000C933A00494606F0EBFC229F0A9ACCE72D
:101660002A00002FC9D0D8480BF01EFD002200230D
:10167000069207930023D54906AA0AA80893FFF704
:1016800005FF079B069E0393991BC81083001B1838
:101690001A019B181A029B181A049A185200121861
:1016A000302900D8A0E0002A00D148E112AB109305
:1016B0009846336877689946002B00D10AE1229753
:1016C0000F2F00D9B2E0012F00D017E140211B7885
:1016D00002AA52181370424600231197D355079B54
:1016E000069A03939B1A182B00D821E118AB994650
:1016F00016939369D7699A46002B00D1F1E022979F
:101700000F2F00D9C7E0012F00D0F1E058211B783E
:1017100002AA521813704A4600231797D355079B05
:10172000069A03939B1A302B00D8FAE01EAB9A4618
:101730001C93136B576B9B46002B00D1BBE0229789
:101740000F2F00D997E0012F00D0DDE070211B782A
:1017500002AA52181370524622AE00231D97D35589
:1017600024AB9B462293109B119F0393002B00D127
:10177000A9E005970F2F6FD8012F00D0CBE05A4674
:101780001B78337200237760D355179B30001A0003
:10179000169903930BF09AFF2298584503D0B1682D
:1017A00001310AF06BFB0123201D237010A90BF0FF
:1017B000DBFD200016A91C300BF0D6FD1C9850450F
:1017C00003D01E9901310AF059FB1698484503D001
:1017D000189901310AF052FB1098404508D012992F
:1017E00001310AF04BFB03E00A99794806F0CCFE80
:1017F000069E079FBE420CD03300306808339842E3
:1018000010D0B3681836591C0AF038FBB742F3D130
:10181000069F002F00D104E708993800C91B0AF081
:101820002DFBFEE61836B742E6D1F1E722AE0022E4
:10183000310010A80BF056FD229B109012933A0035
:10184000494606F0F5FB229F109A45E72A00002F33
:1018500000D1D2E62800FCE60022300005A90BF0FA
:1018600041FD059B2290B3603A00039906F0E0FB2E
:10187000059F229A86E722AE002231001CA80BF0B9
:1018800031FD229B1C901E933A00594606F0D0FB76
:10189000229F1C9A61E722AE0022310016A80BF0AD
:1018A00021FD229B169018933A00514606F0C0FB8A
:1018B000229F169A30E7524622AE002F00D14CE705
:1018C00041480BF0F1FB5A46002F00D15AE73E4841
:1018D0000BF0EAFB4246002F00D1FDE63A480BF040
:1018E000E3FB4A46002F00D116E737480BF0DCFB3C
:1018F0004A46002F00D10FE74846D5E74246002F61
:1019000000D1E9E640469AE7524622AE002F00D1C8
:1019100023E75046B8E75A46002F00D132E7584631
:10192000A2E72C4ADB1002215A432B480BF0ECFBB8
:10193000284ADB1001215A4327480BF0E5FB110030
:1019400025480BF0E1FB069E079FB74230D1069871
:101950000899091A002801D00AF090FA0A98A842BA
:1019600003D00C9901310AF089FA2000FFF706FE36
:101970000AF02CFB1C98504503D01E9901310AF047
:101980007DFA1698484503D0189901310AF076FA85
:1019900010984045D7D0129901310AF06FFAD2E77A
:1019A00022985845E6D0B16801310AF067FAE1E7BC
:1019B000330030680833984203D0B368591C0AF0EA
:1019C0005DFA1836C1E7E3E78C6A0110B86A0110C6
:1019D000BC6A0110ABAAAAAA246A0110C5E7BDE738
:1019E000CFE7C046F0B54E464546DE465746E0B521
:1019F00097B005AB9846039300238146102503AEAC
:101A0000554C337273606421534804F075F8071E17
:101A100029D0A3691D42FCD12768FFB20A2F49D003
:101A200073689B4601235B449A463368434518D04C
:101A3000B26892450BD85A469F545346514673603C
:101A4000002332680120535403F0E2FBDBE701235B
:101A5000002200935946002330000BF0BFFC33688E
:101A6000E9E70F22E5E7242209AB187398544B46A7
:101A7000187048460C305860143A0CA906F0D8FA91
:101A800048464B4624309F60D861102212A906F0C8
:101A9000CFFA4B461F620398404503D0B16801312D
:101AA0000AF0ECF9484617B0F0BCBB46B246A9466E
:101AB000A046F0BD294B2A48196806F065FD039F32
:101AC0000BAD74680995002F29D002940F2C17D8FC
:101AD000012C2AD16A462C213B78521813702B0016
:101AE00000220A9448461A5509A90132FFF75CFD05
:101AF0000998A842CFD00B9901310AF0BFF9CAE783
:101B0000002202A909A80BF0EDFB029B09900B93A0
:101B10002200390006F08CFA029C099BE0E72B00BA
:101B2000002CDDD00F480BF0BFFA2B00002CD7D0D3
:101B30002800EDE70398404503D0B16801310AF071
:101B40009DF90AF043FA0998A842F3D00B990131A4
:101B50000AF094F9EEE7C046004003402820002038
:101B6000E46A01108C6A0110962110B5094C8901B4
:101B7000200003F051FF0221002002F0F7FB0221B8
:101B8000012002F0F3FB1023E26A9343024A136040
:101B900010BDC046004003402C500340F0B5DE4667
:101BA00057464E464546E0B50768AFB00CAB060059
:101BB0000D009B4644680A93002F00D1F3E128945E
:101BC0000F2C00D9BAE1012C00D016E228213B7875
:101BD00002AA521813705B4600220B941A550B9AF6
:101BE000CC4B03929A4200D11EE2CB4B012219004A
:101BF0000AA898460BF06AFD6A6829680AA80BF0E3
:101C000065FD070012AB1093036808370400BB4260
:101C100000D1DBE110938368129363681193002372
:101C20006360119A2372BB4B276003929A4200D1E2
:101C3000FDE10122414610A80BF048FD070018AB5A
:101C400016939A46036808370400BB4200D1B7E1F7
:101C50001693836818936368179300232760237291
:101C6000376863601EAB74681C93002F00D194E149
:101C700028940F2C00D981E1012C00D0C2E1702101
:101C80003B7802AA521813701EAB00221D941A55FD
:101C90001CA806CD0BF01AFD1D9C002C00D1A9E15B
:101CA00001211C9D9D4B9E4E2C192A7810005840F6
:101CB0005B08014201D073409BB2500858405B085A
:101CC000014201D073409BB2900858405B0801422A
:101CD00001D073409BB2D00858405B08014201D04C
:101CE00073409BB2100958405B08014201D0734019
:101CF0009BB2500958405B08014201D073409BB22F
:101D0000900958405B08014201D073409BB2D20950
:101D10005A405B08114201D073409BB20135A54285
:101D2000C3D1DC4364BAA4B2092C00D862E1632CAD
:101D300000D870E1FA239B009C4200D268E1794B05
:101D4000042605219C4200D868E124AB2D2222A85C
:101D500022930BF0E5FA229B0393632C1BD99C463C
:101D6000714B013E98466F4B6644994620006421B2
:101D700005F008FD20004D00642105F003FD4346F9
:101D80005B195B782700737043465B5D040033701A
:101D9000023E4F45EAD8092C00D8DEE0624B6400D1
:101DA0001A1952781C5D0399039B4A701C70179C8A
:101DB000239A169BA018534500D1D9E01899884260
:101DC00000D8D9E0229924ADA94200D110E1249D88
:101DD000A84200D8EDE016A80BF078FC06002AAF68
:101DE000289703680836040028ADB34200D1F9E013
:101DF00028938368AB6063686B6000236360237221
:101E00006A68444B26609A4200D10AE10122280008
:101E100046490BF05BFC0822904606AE0496036828
:101E200080440400434500D1D6E0049383680693C0
:101E300063680593434623600023237228986360F8
:101E4000B84203D0A96801310AF018F8229824ABEF
:101E5000984203D0249901310AF010F81C981EAB67
:101E6000984203D01E9901310AF008F8169850459F
:101E700003D0189901310AF001F8109812AB98427A
:101E800003D01299013109F0F9FF0A98584503D09F
:101E90000C99013109F0F2FF0499254806F074FB12
:101EA00004980778002F1BD0224B0D2100255D5F81
:101EB000002398468C460400202241461E4B0029F0
:101EC0001BD1BD4220D099690A42FCD11F60217804
:101ED00001340D394F4279412778C9B2002FEED134
:101EE000B04203D00699013109F0C8FF2FB0F0BC11
:101EF000BB46B246A946A046F0BD99690A42E5D064
:101F000099690A42F9D1E1E799690A42FCD161462F
:101F10001960D8E7FFFFFF3FB86A0110FFFF00001C
:101F20000884FFFF0F270000186B01107C7C011054
:101F3000106B01108C30002000400340002228A9C3
:101F40000AA80BF0CFF9289B0A900C9322003900C5
:101F500006F06EF8289C0A9B3EE6039B3034E4B200
:101F60001C70179C239A169BA018534500D025E798
:101F70000F21884200D925E722992CE7002228A9C1
:101F80001CA80BF0AFF9289B1C901E93220039006F
:101F900006F04EF8289C1C9B77E6002C00D174E6D6
:101FA00043480BF081F8002C00D115E640480BF0B7
:101FB0007BF800220021009422A80BF0C3FA0DE761
:101FC00010223900504606F033F844E6102239005A
:101FD00012A806F02DF820E641463000083206F03F
:101FE00027F825E710223100380006F021F802E733
:101FF0000F25EDE600260121A7E6002C00D1EBE538
:102000001800A3E71EAB002C00D13EE61800BDE788
:102010000226032199E60126022196E6013E0139B6
:1020200093E624480BF058F822480BF055F8214865
:102030000BF052F82898B84203D0A968013109F092
:102040001DFF229824AB984203D02499013109F056
:1020500015FF1C981EAB984203D01E99013109F060
:102060000DFF1698504503D01899013109F006FF6D
:10207000109812AB984203D01299013109F0FEFE7C
:102080000A98584503D00C99013109F0F7FE09F080
:102090009DFFF5E7F4E7D4E7DBE7E9E70498B04212
:1020A000F5D00699013109F0E9FEF0E7D1E7D8E76C
:1020B0008C6A0110F86A0110F0B5DE4645465746B5
:1020C0004E46E0B5B7B00391B82132AB05923093DC
:1020D00004AAA94B5218138002233193002304AAA7
:1020E000023152181370C30F9B46C317C5185D40C9
:1020F000092D00D869E2632D00D86CE2FA239B0019
:102100009D4200D275E29D4B9D4200D86BE29C4BF4
:10211000280098469B4B012499469B4B9B4F9A461F
:1021200008E0464500D812E24E4500D811E2564577
:1021300000D826E29649060005F024FB230004346B
:10214000BE42EED808AB06935B462D22191906A8AD
:102150000BF0E6F8069B9C46E344632D1AD98D4E9E
:10216000864BB0469946023C5C442800642105F049
:1021700009FB28004F00642105F004FB4346DB19EE
:102180005B782E0063704346DB5D05002370023CE4
:102190004E45EAD8092D00D9BEE13035EDB25B4697
:1021A0001D70079A7C4B04929A4200D123E27B4B2C
:1021B0000122190006A89A460BF088FA05000EAB1A
:1021C0000C93036808350400AB4200D1DFE10C93A7
:1021D00083680E9363680D93002363602372039BEF
:1021E0002560DA0F0392DA179D185540092D00D8A3
:1021F000E9E1632D00D8F0E1FA239B009D4200D273
:10220000EDE15E4B9D4200D8EBE15D4B2800984626
:102210005C4B012499465C4B5C4F9B4608E046456D
:1022200000D892E14E4500D895E15E4500D8A4E182
:102230005749060005F0A6FA23000434BE42EED842
:10224000039E14AB2D22311912A812930BF068F8DB
:10225000129B9C466644B146632D1AD94D4E474B9E
:10226000B0469B46023C4C442800642105F08AFAA3
:1022700028004F00642105F085FA4346DB195B789E
:102280002E0063704346DB5D05002370023C5E4513
:10229000EAD8092D00D947E13035EDB24B461D7023
:1022A0000D9C139A0C9B0EA9A0188B4200D16AE1D9
:1022B0000E99884200D844E1129914ADA94200D188
:1022C0007DE1149DA84200D84EE10CA80BF0FEF968
:1022D000050018AB9B461AAB1893049303680835A6
:1022E0000400AB4200D164E118935B4682689A60B7
:1022F0005B4662685A6000235A46636023725268E4
:10230000254B25609A4200D178E10122514658467A
:102310000BF0DCF9050020AB1E93036808350400C0
:10232000AB4200D13FE11E938368209363681F9303
:10233000002363602372059B2560DA0F0392DA178E
:102340009D185540092D00D841E1632D00D840E18A
:10235000FA239B009D4200D247E1084B9D4200D8E2
:1023600045E1074B28009846064B01249946064B49
:10237000064F9A461DE0C046637400000F27000018
:102380003F420F007F969800FFE0F5059F86010011
:1023900010270000186B0110FFFFFF3FE08F0110B6
:1023A000464500D8CFE04E4500D8E4E0564500D879
:1023B000E5E0B849060005F0E5F923000434BE4223
:1023C000EED8039E26AB2D22311924A899462493DA
:1023D0000AF0A6FF249B9C4666440396632D1BD9F6
:1023E000B446AD4BAD4E9A46B046023C644428001C
:1023F000642105F0C7F928004F00642105F0C2F9F7
:102400004346DB195B782E0063704346DB5D0500B5
:102410002370023C5645EAD8092D00D88CE09F4B2A
:102420006D005A19527803995D5D4A70039B20A98B
:102430001D701F9C259A1E9BA0188B4200D1A4E002
:102440002099884200D87AE02499494500D1B8E023
:10245000269DA84200D880E01EA80BF037F907009F
:102460002CAE2A960368083704002AADBB4200D17F
:1024700093E02A938368AB60636829006B60002354
:1024800027606360237230A8FFF788FB2A98B04268
:1024900003D0A968013109F0F1FC2498484503D024
:1024A0002699013109F0EAFC1E9820AB984203D02E
:1024B0002099013109F0E2FC1898049B984204D05D
:1024C0005B469968013109F0D9FC129814AB984227
:1024D00003D01499013109F0D1FC0C980EAB98424D
:1024E00003D00E99013109F0C9FC069808AB984257
:1024F00003D00899013109F0C1FC309832AB984201
:1025000003D03299013109F0B9FC37B0F0BCBB46B9
:10251000B246A946A046F0BD5A46604E6D007319FA
:102520005B78755D53703AE64A465C4E6D007319F0
:102530005B78755D5370B1E63035EDB276E724997E
:102540008AE71299C1E65C1D3BE75C1D78E65C1DDD
:10255000F8E59C1DF6E59C1D72E600220021009422
:1025600024A80AF0EFFF7AE700220021009412A8C5
:102570000AF0E8FFACE69C1D23E7DC1D60E6DC1DED
:102580001FE7DC1DDEE50F2193E60F2159E710223E
:1025900029000EA805F04CFD1CE610223900300081
:1025A00005F046FD68E71022290020A805F040FD4F
:1025B000BCE610222900049805F03AFD98E60F25A4
:1025C00080E60F2545E701243AE60124BAE5012417
:1025D000F7E60224F5E60224B4E5022430E60324FB
:1025E0002EE604242CE60424ACE50324E9E60424C6
:1025F000E7E60324A6E52A480AF06EFD28480AF01B
:102600006BFD069808AB984203D00899013109F098
:1026100035FC309832AB984203D03299013109F041
:102620002DFC09F0D3FC2A98B04203D0A9680131EF
:1026300009F024FC2498484503D02699013109F07B
:102640001DFC1E9820AB984203D02099013109F05F
:1026500015FC1898049B984204D05B469968013198
:1026600009F00CFC129814AB984203D01499013174
:1026700009F004FC0C980EAB9842C2D00E990131BF
:1026800009F0FCFBBDE7C4E7DBE7F3E7D2E7E9E7E6
:10269000DFE7C046102700000F270000186B01106D
:1026A000F86A0110F0B5DE46454657464E46E0B59D
:1026B0008FB008AB9B460AAB0893544B02AA138415
:1026C00002235A46536000239372C30F0193C3172A
:1026D000C5185D40092D00D87CE0632D00D87BE053
:1026E000FA239B009D4200D27AE0494B9D4200D8DC
:1026F00074E0484B28009846474B01249946474BC5
:10270000474F9A4605E046455ED94E455ED9564547
:102710005ED94449060005F035F823000434BE4272
:10272000F1D8019E04AB2D22311902A802930AF0C0
:10273000F7FD029B9C466644B246632D1AD93A4B7C
:10274000023C9846324B544499462800642105F0D7
:1027500019F828004E00642105F014F843469B192F
:102760005B782F00637043469B5D05002370023C3D
:102770004F45EAD8092D1FD83035EDB2534658469B
:102780001D7002A9FFF70AFA029804AB984203D021
:102790000499013109F072FB08980AAB984204D001
:1027A0005B469968013109F069FB0FB0F0BCBB468C
:1027B000B246A946A046F0BD51461B4B6D005A19C2
:1027C00052785D5D4A70D9E75C1DAAE79C1DA8E7B9
:1027D000DC1DA6E70124A4E70224A2E70424A0E765
:1027E00003249EE7029804AB984203D00499013178
:1027F00009F044FB08980AAB984204D05B469968FC
:10280000013109F03BFB09F0E1FBF3E763620000F3
:102810000F2700003F420F007F969800FFE0F5056C
:102820009F86010010270000186B0110F0B5C64606
:1028300000B58EB004AC304B02941A8802AD2280F1
:102840009B780AAEA37003236B6000230768EB72CA
:102850000896002F3BD0380012F0ACFE8046019065
:102860000F2825D801281ED16A4628213B78521806
:10287000137033000022099008A91A542800FFF7AA
:102880008DF90898B04203D00A99013109F0F6FA9F
:102890000298A04203D0A968013109F0EFFA0EB006
:1028A00080BCB846F0BD33000028E3D0300007E01C
:1028B000002201A908A80AF015FD019B08900A93BF
:1028C0004246390005F0B4FB0198089BD2E70B485B
:1028D0000AF0EAFB0898B04203D00A99013109F0E6
:1028E000CDFA0298A04203D0A968013109F0C6FAD6
:1028F00009F06CFBF5E7C046146B01108C6A0110FF
:10290000034B1A0008321A6000225A601A7270478C
:10291000282000207047C046C06810B5002802D0AB
:102920000368DB69984710BD0020704710B50400AC
:10293000102109F0A3FA200010BDC04610B51021E7
:1029400009F09CFA10BDC04610B50400024B0360AC
:1029500009F0ACFC200010BDB06D011010B50400F2
:10296000044B036009F0A2FC2000042109F086FA60
:10297000200010BDB06D011010B50400024B0360C3
:1029800009F08EF8200010BD886D011010B504000C
:10299000044B036009F084F82000202109F06EFA4E
:1029A000200010BD886D01100023F0B50360436066
:1029B0008360154B04000E0083B0D5009D4216D8ED
:1029C000002D0ED028000AF0B1F847192060A7604A
:1029D000002D0AD02A00310005F02AFB676003B001
:1029E000F0BD002705608560F8E70700F6E70748B7
:1029F0000AF072FB2068A168091A002801D009F0CA
:102A00003DFA09F0E3FAC046F8FFFF7FC864011001
:102A100070B5041E1FD02600E068FFF7F9FFB56906
:102A2000A468002D11D06B68013B6B60002B0CD1AA
:102A30002B6828009B689847AB68013BAB60002B74
:102A400003D12B682800DB6898471C21300009F06F
:102A500015FA002CDFD170BDF0B5C646070000B5F1
:102A600000282ED0B846F868FFF7F6FF4346DC6929
:102A7000BF68002C1FD02600E068FFF7C9FFB569CA
:102A8000A468002D11D06B68013B6B60002B0CD14A
:102A90002B6828009B689847AB68013BAB60002B14
:102AA00003D12B682800DB6898471C21300009F00F
:102AB000E5F9002CDFD12C21404609F0DFF9002F89
:102AC000D0D180BCB846F0BDF0B5C64600B5F0B078
:102AD00001283DD0DD4A1368013B1360002B14D15F
:102AE000DB4CDC4D206800280BD0A368191A09F0D4
:102AF000C5F923000C3BA54207D01C002068002824
:102B0000F3D123000C3BA542F7D1D34A1368013B14
:102B10001360002B14D1D14CD14D206800280BD06C
:102B2000A368191A09F0AAF923000C3BA54207D0A3
:102B30001C0020680028F3D123000C3BA542F7D1EC
:102B4000C84B9868FFF788FF70B080BCB846F0BDEE
:102B50000022C44B191DD9601961C3491A719A60CA
:102B60005A610B6801330B60012B02D1BF4B1A6015
:102B70005A60B94B1A68551C1D60012D00D1ABE19C
:102B8000B24B1A68571C1F60012F08D0042009F0AF
:102B9000CDFF040001F0AEF9B54B1C60D4E7002373
:102BA000AC4E002233607360B360012362AC5B42C1
:102BB0006292639321003A00AE4826942797FFF76C
:102BC000F3FE01230C225B426292639321000B3AD5
:102BD000A94824942592FFF7E7FE012365225B4272
:102BE000629263932100643AA44822942392FFF7EF
:102BF000DBFE012371225B42629263932100703AF3
:102C00009F4820942192FFF7CFFE00232200F36318
:102C100033647364B364F36433659A4B9846283322
:102C200023CB23C223CB23C203CB03C20422210024
:102C300095481E941F92FFF7B7FE43462200483383
:102C400023CB23C223CB23C203CB03C20422210004
:102C50008E481C941D92FFF7A7FE4546220068355A
:102C60000BCD0BC20BCD0BC20ACD0AC20422210030
:102C700087481A941B92FFF797FE2200854B9846CF
:102C8000083323CB23C223CB23C203CB03C20422AA
:102C90002100814818941992FFF786FE43462200CE
:102CA000283323CB23C223CB23C203CB03C204226A
:102CB00021007A4816941792FFF776FE43462200C9
:102CC000483323CB23C223CB23C203CB03C204222A
:102CD0002100734814941592FFF766FE45462200C2
:102CE00068350BCD0BC20BCD0BC20ACD0AC2042234
:102CF00021006C4812941392FFF756FE22006A4B93
:102D00009846083323CB23C223CB23C203CB03C271
:102D100004222100654810941192FFF745FE00231C
:102D2000B422B3500432B3500432B3500432B3501F
:102D30000432B3500432B35043462200283323CB2D
:102D400023C223CB23C203CB03C204222100584851
:102D50000E940F92FFF728FE43462200483323CB00
:102D600023C223CB23C203CB03C204222100514838
:102D70000C940D92FFF718FE4546220068350BCDE6
:102D80000BC20BCD0BC20ACD0AC2042221004A4855
:102D90000A940B92FFF708FE2200484B984608332E
:102DA00023CB23C223CB23C203CB03C204222100A3
:102DB000434808940992FFF7F7FD43462200283361
:102DC00023CB23C223CB23C203CB03C20422210083
:102DD0003C4806940792FFF7E7FD4346220048333C
:102DE00023CB23C223CB23C203CB03C20422210063
:102DF000354804940592FFF7D7FD45462200683513
:102E00000BCD0BC20BCD0BC20ACD0AC2042221008E
:102E10002E4802940392FFF7C7FD22002C4B083383
:102E200023CB23C223CB23C203CB03C20422210022
:102E3000284800940192FFF7B7FD96220023520024
:102E4000B3500432B3500432B3509FE60020002048
:102E50007421002048200020042000201823002096
:102E60008021002054230020FC1F0020402000204F
:102E7000BC2A002054200020602000206C2000206C
:102E800078200020D87001109C200020A82000206D
:102E9000B420002058710110C0200020CC20002058
:102EA000D8200020E4200020D8710110F02000205C
:102EB00014210020202100202C2100205872011014
:102EC0003821002044210020502100205C210020D6
:102ED000D8720110682100200023FA4F00223B60C5
:102EE0007B60BB600023629263930122002362AC8B
:102EF0006492659321000132F34860946192FFF778
:102F000053FDF24B98462300424643CA43C343CA8B
:102F100043C303222100EE485E945F92FFF744FD15
:102F200043462200183343CB43C243CB43C2032260
:102F30002100E8485C945D92FFF736FD434622008D
:102F4000303343CB43C243CB43C203CB03C204223F
:102F50002100E1485A945B92FFF726FD0023FB63B2
:102F60003B647B64BB64FB643B6543462200503397
:102F700043CB43C243CB43C203CB03C20422210051
:102F8000D64858945992FFF70FFD464622007036F6
:102F90000BCE0BC20BCE0BC20ACE0AC204222100FA
:102FA000CF4856945792FFF7FFFCCE4E382231009F
:102FB0002000103105F03CF807222100CA48549443
:102FC0005592FFF7F1FC310038224831200005F01E
:102FD0002FF807222100C54852945392FFF7E4FCD2
:102FE000C34B98462300424643CA43C343CA43C324
:102FF00003222100BF4850945192FFF7D5FC43466D
:103000002200183343CB43C243CB43C203CB03C29A
:1030100004222100B8484E944F92FFF7C5FC434666
:103020002200383343CB43C243CB43C203CB03C25A
:1030300004222100B1484C944D92FFF7B5FC434661
:103040002200583343CB43C243CB43C203CB03C21A
:1030500004222100AA484A944B92FFF7A5FC0123C1
:1030600000225B426292639321000132A54848949A
:103070004992FFF799FC01230C225B426292639311
:1030800021000B3AA04846944792FFF78DFC01239C
:1030900065225B42629263932100643A9B484494A8
:1030A0004592FFF781FC012371225B426292639398
:1030B0002100703A964842944392FFF775FC002332
:1030C000E422BB500432BB500432BB500432BB502C
:1030D0000432BB5046460432BB50220078360BCE39
:1030E0000BC20BCE0BC20ACE0AC2042221008948B1
:1030F00040944192FFF758FC2200874B98461833C2
:1031000043CB43C243CB43C203CB03C204222100BF
:1031100082483E943F92FFF747FC434622003833F3
:1031200043CB43C243CB43C203CB03C2042221009F
:103130007B483C943D92FFF737FC434622005833CE
:1031400043CB43C243CB43C203CB03C2042221007F
:1031500074483A943B92FFF727FC464622007836A3
:103160000BCE0BC20BCE0BC20ACE0AC20422210028
:103170006D4838943992FFF717FC22006B4B984644
:10318000183343CB43C243CB43C243CB43C21B6838
:10319000210013600522664836943792FFF704FC3D
:1031A00043462200403343CB43C243CB43C243CBCD
:1031B00043C243CB43C2062221005E483494359279
:1031C000FFF7F2FB4646220070360BCE0BC20BCE49
:1031D0000BC20ACE0AC2042221005748329433920D
:1031E000FFF7E2FB2200554B9846103343CB43C216
:1031F00043CB43C203CB03C2042221005048309486
:103200003192FFF7D1FB43462200303343CB43C218
:1032100043CB43C203CB03C20422210049482E946E
:103220002F92FFF7C1FB43462200503343CB43C2EA
:1032300043CB43C20322210043482C942D92FFF735
:10324000B3FB4646220068360BCE0BC20BCE0BC238
:103250000BCE0BC233682100136005223B482A9431
:103260002B92FFF7A1FB2200394B103343CB43C213
:1032700043CB43C203222100364828942992FFF70A
:1032800093FBCC2200235200BB500432BB500432CB
:10329000BB5075E40421200008F0F0FD08F096FE14
:1032A0002224651B163C6C433C19BC42F6D00C3CF6
:1032B0002068A368191A0028F7D008F0DFFDF4E7AA
:1032C0000225EDE7802100208C210020D86D01101F
:1032D00098210020A4210020B0210020D42100202A
:1032E000E0210020586E0110EC210020F821002080
:1032F000D86E011004220020102200201C22002081
:103300002822002034220020402200204C220020CD
:10331000582200207C220020586F011088220020B3
:1033200094220020A0220020AC220020D86F01109F
:10333000B8220020C4220020D022002058700110A2
:10334000DC220020E8220020F422002000230020BC
:10335000D87001100C2300200A25A1E70B259FE758
:103360000C259DE70D259BE7102599E7112597E78B
:10337000122595E7132593E7062591E707258FE7A3
:1033800008258DE709258BE7042589E7052587E7CB
:10339000032585E7142583E705271924E71B0D3C42
:1033A0007C433419B44200D178E70C3C2068A36810
:1033B000191A0028F6D008F061FDF3E70627ECE7BC
:1033C0000727EAE70827E8E70B27E6E70D27E4E702
:1033D0000E27E2E70C27E0E70F27DEE71527DCE7FB
:1033E0001627DAE71727D8E71827D6E71127D4E7F3
:1033F0001227D2E71027D0E71E2551E71F254FE7F8
:1034000020254DE721254BE7C7E70227C5E703271E
:10341000C3E70427C1E7182542E7192540E71A2525
:103420003EE71B253CE716253AE7172538E7152523
:1034300036E7C046F0B5C64600B5244E84B02449F0
:10344000300007F05FFF0321022000F08FFF03210F
:10345000032000F08BFF00220121022000F09EFFDC
:1034600000220121032000F099FF1A4B01250024BE
:103470009846194F07E05C2C1AD0682C1FD0802D7D
:1034800020D00134013578231A0022402342F6D09F
:10349000782AF4D000230F2200933000E1B20133E8
:1034A0006A4407F0C1FF002804DCE8D1232CE2D1F4
:1034B0003C60E6E72100094805F066F8F6E7434678
:1034C0001C60DEE704B080BCB846F0BD28150020C3
:1034D000A0860100401400203C140020E46B011081
:1034E000F0B5184E85B03168002927DB012500238F
:1034F000154F03AC23702200C9B201333800009588
:1035000007F02AFF3178012322002570380000954A
:1035100007F022FF0723317823702200063B380092
:10352000009507F019FF132331782370220038002B
:103530000095123B07F010FF05B0F0BD034805F001
:1035400023F8F9E73C14002028150020F86B01103F
:1035500070B5294C294D2368294E9A002868925944
:1035600084B0821A2A60274A116800291FDB0023D1
:1035700003AA009324480233C9B207F055FF6B46F3
:103580006A461B7B527B00282FDD1802801804F04E
:10359000CDFB1E4A1E4B04F042FB04F0DFFB236808
:1035A0009A0000281CDB90512A689446604401333D
:1035B00028601D2B00DD00231E21236004F0BAF8D3
:1035C000FF23142200930021FA3BFDF76DFE05282E
:1035D00002DA052004B070BDFF28FBDDFF20F9E70B
:1035E00090592A6894466044E1E723689A0090590C
:1035F0002A6894466044DAE7E82E00201829002063
:10360000EC2E00203C1400202815002033333333E7
:1036100033330340F0B54746CE460022002380B541
:1036200089B0049205930023804604AA08005249F9
:103630000693FDF72BFF049B00269946059B00256A
:1036400003934B456AD04D4F8021404608F02EF938
:10365000059A049B0392D01AC010810009180A0130
:1036600089180A0289180A048A1852001218AA42F4
:1036700065D900220024914621E03868002808D04E
:103680001B6841461A5D4B46303A0093002300F018
:1036900039FEFA20800001F0BBFD059A049B0392DD
:1036A000D11AC9108A0052181001121810021218EB
:1036B00010041218520052180134AA423FD99B1923
:1036C0005A68A242D9D80A21404608F0EFF8FA20F9
:1036D000C00001F09DFD059B049C99461A1BD21069
:1036E00093009B1819015B1819025B1819045B18E9
:1036F0005B0001359B181836AB42A5D84C450DD060
:10370000230020680833984215D0A3681834591C48
:1037100008F0B4FBA145F3D1049B99464B46002B1E
:1037200004D006994846C91A08F0A8FB09B0C0BCE5
:10373000B946B046F0BD1834A145E1D1ECE7290007
:103740000F4809F0E1FC049C059DA54208D10498AE
:103750000699091A002801D008F090FB08F036FC01
:10376000230020680833984203D0A368591C08F04E
:1037700085FB1834E9E7C0467C960110BC2A00207E
:10378000246A0110F0B546464F46D6468468031DAC
:10379000C0B5884606009946002C67D04D460B6898
:1037A00003E02500A468002C05D022699342F8D9D3
:1037B000E468002CF9D1A94558D02A6993422DD24A
:1037C0002C2009F0B3F943461B68846203619846D4
:1037D00003001833036243622B6907009A4604769C
:1037E000C461434521D9F3689A46AB420BD0280007
:1037F00009F06CFB03690400434500D38BE0C36808
:10380000002B00D176E02C003D0001204B46220029
:10381000290009F077FB73690133736128001430C4
:10382000E0BCBA46B146A846F0BDC24516D23369DF
:10383000AB4209D0280009F033FB0369040043457B
:103840005AD9EB68002BDFD12C003D002AE0230081
:10385000002945D190453ED82F0025000020FFF7D4
:10386000D7F82C21380008F009FBD7E72C2009F005
:103870005DF943461B680200984603610023037606
:10388000C361836273691832050002624262002BD1
:103890000CD034692369434508D20120A145B5D035
:1038A00023699A46D04580414042AFE7B468002C76
:1038B00005D114E00121A368002BC8D01C002269A7
:1038C0004245F7D80021E368F6E72B00002932D102
:1038D0009045C3D93D00002B41D01C00DDE74C468C
:1038E000F368A342D9D0200009F0F0FA230002695E
:1038F0000400AFE73D00D0E7B568002D05D12CE00E
:103900000121AB68002B1FD01D002A699045F7D319
:103910000021EB68F6E7B568002D05D10AE001212A
:10392000AB68002BD1D01D002A694245F7D8002191
:10393000EB68F6E74D46AA450CD0280009F0C6FA18
:103940002B0002690500C3E72B000029C0D0F368F3
:10395000AB42F2D12B003D00BDE74D46F7E72F000B
:1039600000257BE770B504680500002C11D0636862
:10397000013B6360002B0CD1236820009B689847B3
:10398000A368013BA360002B03D123682000DB6800
:103990009847280070BDC046F0B5DE4645465746FC
:1039A0004E46E0B5A3B004F0FBFD192000F00EFD7B
:1039B000D02380221B0692045A625A61FEF7D4F883
:1039C000FA20C00001F024FC16ADD24804F0DCFD62
:1039D000FDF760FC2A00D04B149503CB03C20823EB
:1039E0001593002314AC20002374FDF7C7FB149833
:1039F000A84203D0A368591C08F040FAFFF71AFD4B
:103A0000FFF76EFD0023C54F09AD2900380009936B
:103A1000FFF7B8FE8368061D002B09D01A009B68CB
:103A2000002BFBD1964203D01369002B00D195E106
:103A300029003800FFF7A6FE0430864200D02AE2B3
:103A4000202009F073F80023049303330393023B0F
:103A5000029301330193713300930022B049633B19
:103A6000060008F0B1F8002310200E960F9309F01D
:103A70005DF8012343608360AA4BC66003600F902A
:103A800029003800FFF77EFE8368021D070091467B
:103A9000002B00D19DE11E009B68002BFBD1B1459E
:103AA00002D03369002B14D01C2009F03FF800230A
:103AB00080460361436183614E4500D163E1336910
:103AC000002B00D04CE14046B0461C2108F0D6F94E
:103AD00046460E9BB76973610F9B9846BB4218D050
:103AE000002B03D042465B6801335360002F0ED099
:103AF0007B68013B7B60002B09D13B6838009B68E9
:103B00009847BB68013BBB60002B00D14BE14346AB
:103B1000B3610F9B0E990F9A14911592002B02D04E
:103B20005A6801325A6021000BA807F099FE15A8C7
:103B3000FFF718FF0FA8FFF715FFD02380221B0601
:103B400092049A61784B794F9946794B98462800B0
:103B5000FDF7A4FB0523EB5607269B460623EB56F1
:103B6000AE579A463B689E420AD04B4618683E6064
:103B7000002805D053465A4600960BA900F0C2FB18
:103B800043461B68534507D05246434651461A6088
:103B900058463200FEF790FA664E3068002858D03A
:103BA000654B18609A46654B1A68824207D01860C8
:103BB000FEF778FD53460BA8197807F077FE200032
:103BC000FDF710FF2378002B2CD0E26961685C4878
:103BD00004F0DAFC5B4915A809F0A2FD00283BD1EE
:103BE00010AB9A460E93E369266A9B46002B74D06D
:103BF00008960F2E62D8012E00D0A9E038211B783C
:103C000002AA52181370524600230F960EA893551D
:103C1000FDF7B4FA0E98504504D0109B591C079339
:103C200008F02CF9642001F0F3FAE0691DAB98422A
:103C300003D0636A591C08F021F9606817AB9842F9
:103C400085D0E368591C08F019F92800FDF726FB18
:103C500080E7FFF77DFCA3E73B4915A809F060FD6D
:103C6000002809D1E06910F0BDFC00283ADBFF28EC
:103C700000DDFF203060D5E7344915A809F050FD7C
:103C80000028CFD110AB9A460E93E369266A9B4673
:103C9000002B39D008960F2E27D8012E00D092E0A5
:103CA00038211B7802AA52181370524600230F962F
:103CB0000EA993550BA8FFF7ADFCABE7002208A9AE
:103CC0000EA809F00FFB089B0E9010933200594686
:103CD00004F0AEF9089E0E9A96E7002E00D099E007
:103CE000524691E7002030609CE7002208A90EA808
:103CF00009F0F8FA089B0E9010933200594604F030
:103D000097F9089E0E9AD1E7002E00D07FE0524628
:103D1000CCE7C0460C6C0110146C01105423002039
:103D200000002050C46D0110BC2A0020481400205F
:103D300044140020482A002038140020C82E0020F7
:103D4000206C0110D0940110306C0110346C011003
:103D50005246002E00D157E75046B7E7160067E6F7
:103D6000F9688E4224D001224E469446BB6803E097
:103D7000624698681E000300002B37D01A69002A9B
:103D8000F6D1D868F6E7BE689E423ED0012104E035
:103D90000A00B368002B1ED01E003369002BF7D138
:103DA0000022F368F6E73B683800DB689847AEE628
:103DB00001204B463200414609F0A4F87B69464693
:103DC00001337B6185E65246002E00D16EE75046F6
:103DD00093E7160068E6002A00D174E6FB68B34258
:103DE0000CD0300009F072F806006CE6002A00D111
:103DF00069E6B142F5D1002E00D164E6B145D7D0D5
:103E00003069431E9841C0B2D3E74E46E6E72E48DC
:103E100009F04AF92C4809F047F90E98504503D0AB
:103E20001099013108F02AF8E0691DAB984203D0DF
:103E3000636A591C08F022F8606817AB984209D1F0
:103E40000BA807F019FD08F0C1F80FA8FFF78AFDCD
:103E500008F0BCF8E168013108F010F8F0E71498B8
:103E6000A842F0D0A168013108F008F8EBE708F0AB
:103E70009BF93000FEF78AFD08F020FE08F0CEF92D
:103E800008F0A4F82021300007F0F8FF08F09EF8B1
:103E9000C3E7C9E7D4E7042008F05AF80400042077
:103EA00008F044FE094B206003600022200008490E
:103EB00008F0EAFD15A8FFF755FDC6E7200008F059
:103EC0005DF808F083F8C0468C6A0110B06D0110EF
:103ED0001C6D011010B50120FEF7F6FD10BDC046A7
:103EE0007047C04610B50400042107F0C7FF20004A
:103EF00010BDC046014B083303607047A873011022
:103F000030B510000D0083B0032948D03C2103F0E8
:103F100011FC8C00A9006D1828012D186519EDB24F
:103F20002B21280003F02EFCFF21C2B28006801A4C
:103F3000800080188000801880008018401943009D
:103F4000C3185B00DBB21802C01A0012081ACB1AA1
:103F50000402201A1C02E31A1B12CB1A1902C91AF6
:103F600000120912C0B2C9B2042A03D8154C93003A
:103F7000E3589F4602000021FF2001AB9A70002207
:103F800018705970DA70597818789A780902DB78C5
:103F9000120408431B061043184303B030BD0A4BFC
:103FA000019301ABEFE70022FF21E6E70100FF22CA
:103FB0000020E2E70800FF220021DEE70A000020DF
:103FC000FF21DAE7007301108080808010B50C6853
:103FD00088B00A2C1ADC4A68092A17DC93009B185F
:103FE00058008018D3070FD5001B0A30C343DB0FDE
:103FF0000A2800DD0133622800DD01336D2800DD71
:104000000133C01808B010BD0019EFE71C230022CF
:1040100001A904AC02A80193029409F063F9019B81
:104020001C220F490493029004F002F80022019B25
:104030000299039302A8CA54FEF7F8FB0298A04223
:1040400003D00499013107F019FF0020DAE7029844
:10405000A04203D00499013107F010FF07F0B6FF2A
:1040600014730110F0B54E4645465746DE46E0B59E
:104070001F001568536880468946160089B09D4226
:104080006CD03C21129803F055FBBB00FB181801C3
:104090001B188C00E418E4B22B21200003F072FB03
:1040A000C3B29A46FF218006C01A800050448000A7
:1040B00050448000504400194300C3185B00DBB239
:1040C0001A02D21A12128A1A1002821A1212D2B2CA
:1040D0000292CA1A13029B1A1B12CB1A1A02D31A83
:1040E0001B12DBB2039353469A009346344B0024D1
:1040F0009B443B0057469A46E300EB181D685B68FB
:104100005A1C47D02F4A1278002A03D00922D31A0A
:104110000132551B06A9404607930695FFF756FF47
:104120005346411C032B30D0042F44D85B461B68F8
:104130009F460020FF22029B0025120200041A4322
:1041400002432D062A434846059207F0B5FB356821
:10415000736801345B1BDB10A342CDD809B0F0BCFF
:10416000BB46B246A946A046F0BD3800FF23039ADD
:10417000E2E7FF200022039BDEE7FF200023029AF4
:10418000DAE7FF2200230398D6E7802580208022EB
:104190008023D2E7129A51464046FFF7B1FE7321C1
:1041A00001900490280003F0C5FA4846019A0131B5
:1041B00007F082FBCBE70022FF230298BCE7C04652
:1041C0003473011040200020F0B5D64646464F46D5
:1041D0004B4BC0B59A468AB002AD2B0052460F0039
:1041E000060013CA13C313CA13C303CA03C3202090
:1041F00008F09CFC20222900804603F019FF0023D0
:1042000000220292039300232020AB6008F08EFC72
:104210002023994681444B46202241460290AB60C0
:1042200003F006FF4B466B60129B2A000093390097
:1042300000233000FFF716FF0298002803D0AB6878
:10424000191A07F01BFE54462A0020340BCC0BC26F
:104250000BCC0BC220200ACC0AC208F067FC20223B
:104260002900040003F0E4FE0023002202920393DD
:1042700000232020AB6008F059FC2023994681449C
:104280004B46202221000290AB6003F0D1FE4B464A
:104290006B60129B2A000093390001233000FFF766
:1042A000E1FE0298002803D0A968091A07F0E6FD8C
:1042B0002000202107F0E2FD2021404607F0DEFD2E
:1042C0000AB0E0BCBA46B146A846F0BD202140463F
:1042D00007F0D4FD07F07AFE0298A968091A0028B1
:1042E00001D007F0CBFD2021200007F0C7FDEDE74E
:1042F000F9E70298A968091A0028F6D1E6E7C0464E
:1043000048730110F0B5C64605000C0016001F00EA
:1043100000B5080082B007F097FB089A2B6800925E
:104320001B683200984621003B002800C04720004F
:1043300007F09CFB02B080BCB846F0BD0022084BE1
:10434000191DD960196107491A719A605A610B6881
:1043500001330B60012B02D1034B1A605A60704786
:104360006C230020FC1F002040200020094A83000D
:1043700094464022634410B51C68C0006240C024CB
:1043800014408022520113431C60034B9C4660443E
:10439000416010BD04C00140004001400A4B800054
:1043A0009C4604236044002901D00C230821002AE4
:1043B00000D10B00026853400C221A4080235B019D
:1043C000184302607047C04604C001400123D02258
:1043D0008340120693629361094A83009446402207
:1043E00063441968C0004A40C02111408022520134
:1043F00013431960034B9C46052360444360704798
:1044000004C0014000400140EFF3108072B6034A3F
:104410001368002BFCD0BFF35F8F70472C0100D0D6
:10442000BFF35F8F0022024B1A6080F31088704741
:104430002C0100D070B5EFF3108C72B60D4D2B68C7
:10444000002BFCD0BFF35F8F0724CB08C618C05CDD
:1044500001230C40A3401C000440034207D1034346
:104460003370BFF35F8F2C608CF3108870BD100029
:1044700001F0EAFB2C0100D0F8B54746CE4688464D
:1044800080B5EFF3108C72B6214D2C68002CFCD057
:10449000BFF35F8F9A422CD8D4080727055D061911
:1044A00001241740BC402C421FD007210127894618
:1044B00009E0D408055D06194C4639001440A140B6
:1044C0000C00294211D001329342F2D20120404225
:1044D000BFF35F8F00220E4B1A608CF31088002808
:1044E0000FDBC0BCB946B046F8BD2C431000347099
:1044F000EEE7BFF35F8F00232B608CF31088012061
:1045000040424346002BECD0089801F09DFBC0468A
:104510002C0100D0024B18688007C00F7047C046BE
:1045200000C006400021044B044ABFF35F8F02C362
:104530009342FAD17047C046000100D0800100D0FC
:10454000044A1078431CDBB2172B00D910231370D8
:104550007047C0464C14002000B5054B83B00100E5
:10456000009318221F230348FFF786FF03B000BD06
:10457000BC7301101C2A002001238340002904D0B1
:10458000034A1360034A13607047034A1360FBE752
:1045900080E200E000E100E080E100E001238340F0
:1045A000014A13607047C04600E200E0084B10303B
:1045B0009B688000C358002B07D0064A00209B1A36
:1045C0002F229A424041C0B270470020FCE7C0460B
:1045D00000ED00E050140020024B10309B6880007A
:1045E000C058704700ED00E070B50D00EFF3108685
:1045F00072B60F4A1368002BFCD0BFF35F8F0D4BD0
:1046000010309B6884001B590B4A934203D09D4293
:1046100001D001F031FB074B9B681D51BFF35F8F49
:10462000BFF35F8F0022024B1A6086F3108870BDC3
:10463000240100D000ED00E0CD010010F0B5574698
:104640004E46DE464546E0B585B0060002911700AD
:10465000EFF3108B72B6674A1368002BFCD0BFF3E0
:104660005F8F0025644B5D579A46002D00DAA5E068
:104670006B00624C03935B199B009846A146C144B2
:104680004B4652469B79103613705D4BB2009B68C7
:10469000019299580B1B2F2B34D95A4B994200D0B9
:1046A000A5E0039B584A9C46584B6544AD006353B4
:1046B000434602336519E418554B0121043B1B1B8B
:1046C0001B055B0D13436B80524BEF71AB80FF23D7
:1046D000AB71029BAB604B460B431900484B019AF0
:1046E0009B689950BFF35F8FBFF35F8F0022414BF0
:1046F0001A608BF3108805B0F0BCBB46B246A946E1
:10470000A046F0BD01200A008243D379BB422FD8D6
:1047100045464E46130040491B1B5B415943090D5A
:104720003A4B63533A4B02356519043B5B1B1B053F
:10473000354D5B0D2B4373800426B446E04444445E
:10474000131F1B1B4C46A17102991B05A160494612
:104750005B0D2B43A380314BE77101431360BDE731
:104760005800C01880002018C679BE422CD902001B
:104770000623D356002BF3DA101D8246BD2000021B
:10478000804604267642B446E14450464E46361AE8
:104790003005400D824656461B489571064396806B
:1047A000039A944665441D4AAD006419226042464E
:1047B000A371029BA280E771A3608FE701F05CFA0E
:1047C000002553465D5753E7101D824690884005EB
:1047D000001584464046D444664604302018301AFA
:1047E000E0260005400D360230438046C9E701F05F
:1047F00043FA56E7240100D0AB30002050140020CB
:1048000000ED00E0CD01001000E0FFFF00A1FFFF80
:104810008014002000BDFFFFAAAA000001488047C5
:10482000F0B5DE4657464E464546E0B50C0083B02F
:10483000EFF3108A72B65A4A1368002BFCD0BFF30C
:104840005F8F1022914681444A46564B96009B68E2
:104850009D59554B98469D4205D0A54216D0534FC1
:10486000EB1B2F2B14D94F4B9B689D51BFF35F8FD0
:10487000BFF35F8F00224A4B1A608AF3108803B09F
:10488000F0BCBB46B246A946A046F0BD1D00EAE713
:10489000012383409B465A46454B1B681A400092B1
:1048A0005A46444B1A60BFF35F8FFBF7DCFC019064
:1048B000002803D0814501D001F0DEF901232A0050
:1048C0009A4393689C4208D15FE04B005B189B00C1
:1048D000FB189968A14211D01A00062151560029EF
:1048E000F3DA009B002B05D05A46334B1A60304B4D
:1048F0001A60B8E75A462F4B1A60B4E7062159569A
:10490000002921DB4A00501880003C188046A0682E
:104910009860E079D871062020569871002824DB31
:10492000A488F81A6405241544440019E0240005FD
:10493000400D2402204398805218204B9200BF184B
:104940001A781970BA71CCE70199002910D1FF319A
:1049500091711B49918019490A789A71194ADB1B98
:104960005B415A43120D0A70BBE7BD200002E2E72B
:10497000154A1649D21A083A5002400D014399804F
:10498000134952080A43DA80ABE706215156130057
:104990000029B7DA019A002AEAD14546DBE7C0468A
:1049A000240100D000ED00E0CD01001050140020E3
:1049B00000E100E080E100E080E200E0AB300020B8
:1049C00000BDFFFFAAAA00008A14002000F0FFFF2C
:1049D00000F8FFFFF8B5012504000543FBF743FC91
:1049E000EFF3108C72B6214A1368002BFCD0BFF392
:1049F0005F8F1F4E2100B7681E4A1F4B891A49411D
:104A00004B431B0D59B28300F858A8421CD0062313
:104A1000D3568B421CD01223D3568B4222D01E2356
:104A2000D3568B4220D02A23D35603208B4210D05A
:104A3000124B1A781970A271BFF35F8F00220B4BD3
:104A40001A608CF31088F8BDB2680D48D050EFE7BB
:104A5000002043001B189B00D218FF239371094BC1
:104A60009380E5E70120F4E70220F2E7240100D07B
:104A700000ED00E050140020AAAA0000AB30002096
:104A8000CD01001000BDFFFF054B064A1360064A2A
:104A9000136053609360D3601361536193617047F7
:104AA0008080808000E400E004E400E0D02300B5D2
:104AB0001B061B680100074883B0C018064B002284
:104AC00000930523FFF7D8FC002801DB1F23181AE9
:104AD00003B000BDA4300020D8730110024B9C46E7
:104AE00061448900016070474000003483680B48CE
:104AF00010B5844661446244090112019A1859189C
:104B000054684B6801209C4201D802D00020C0B2FA
:104B100010BD12680B689A42F9D8F7E7FFFFFF0F44
:104B20000A4B1968EFF3108072B60A68002AFCD0AD
:104B3000BFF35F8F1B68BFF35F8F00221A6080F3A3
:104B4000108840BF002000217047C0467030002010
:104B5000F8B557464E464546DE46E0B599460CAB9D
:104B60001C780DAB1B78060090469A460768002C0F
:104B700011D1BC7B002C42D065003B682D19033D50
:104B800059194B78BB73002B00D1FB7300238B703A
:104B90004B700B7004E065003B682D19033D5919FB
:104BA000B2682A4B94464246E3181B0163441A60DC
:104BB0004A465A600A9A9A600B9ADA6000238B7010
:104BC0004B700B707B7B9B46002B2BD022005946F1
:104BD000B8687B6898473A68002816D05B46584604
:104BE0005B005B445519033BA870D118D35C002BC4
:104BF00000D06B705B460C707B73A34513D0F0BC88
:104C0000BB46B246A946A046F8BD5B465B005B4486
:104C1000033BD3189C705119525D002A00D05A7082
:104C20005B460B707C7342464B46307D00F068FC5F
:104C3000051E06D05346002B03D12100306800F03A
:104C400081FE0E9B002BDAD01D70D8E7FFFFFF0F0F
:104C5000F0B5DE464E46574645460023E0B58DB0DA
:104C60000A936B4B8200D3580B90994600239B46C6
:104C70004B46079300F0BAFB079C06000F006268E2
:104C8000EFF3108572B61368002BFCD02200079456
:104C9000BFF35F8F2468637B9946002B67D09268CF
:104CA0005C4B90464B441B01984443461A685B6832
:104CB00010001900801BB94100295FDD0B9800F03E
:104CC0001FFC00230026984600279A46079C63682D
:104CD000BFF35F8F5A461A6085F310885346002B46
:104CE00008D10028C6D10DB0F0BCBB46B246A946DB
:104CF000A046F0BD0A9B414618024B461843D047D8
:104D0000089009916268EFF3108572B61368002B62
:104D1000FCD00794BFF35F8F0899099A002A48DBFB
:104D2000114303D0079B1B69002B5DD1079B1B68B8
:104D3000D97B002907D04A00521819688C46494689
:104D40006244033A51704A46DA734B46079A013B74
:104D5000D168CA5C0132CA545B46079A1361536832
:104D6000BFF35F8F5A461A6085F3108882E70023ED
:104D70000026984600279A460020A7E7002901D17F
:104D800000289BD10021200000F05EFD43461E68F4
:104D90005F689B68079A9A464346DB689846D368E3
:104DA0004B44013B1B780A931B0203431361002011
:104DB0008CE72369002BB9D033003C005B1A944187
:104DC0001A002300A74219D89F421BD059460491CC
:104DD00001210391494602914146019151460798AC
:104DE0000091FFF7B5FEB7E700F000FB089A099BBA
:104DF00006000F0092197B419942E5D901225242E7
:104E0000D317E3E79642E1D901225242D317DDE7F7
:104E1000D82E0020FFFFFF0FF8B557464E464546F7
:104E2000DE46E0B5404D81468A466A68EFF3108859
:104E300072B61368002BFCD0BFF35F8F2E68B47B73
:104E4000002C39D0670033683F19033FDB195A78CB
:104E5000B273002A00D1F273A968344A8C464946DD
:104E6000A2181201624411605146516030499160AC
:104E70000021D160997059701970737B9B46002B8B
:104E800035D022001900B06873689847326800284E
:104E900020D05B4658465B005B44D719033BB87093
:104EA000D118D35C002B00D07B705B460C70737301
:104EB0005C451DD0002626E06B68BFF35F8F1C6049
:104EC00088F3108801204042F0BCBB46B246A94698
:104ED000A046F8BD5B465B005B44033BD3189C7067
:104EE000D119D25D002A00D05A705B460B707473E2
:104EF0004A465346287D00F003FB061EDAD0210007
:104F0000286800F01FFDEB681B19013B19786B68DE
:104F1000BFF35F8F00221A6088F310880020002EF4
:104F2000D2D108022043CFE798140020FFFFFF0FE3
:104F3000214B001010B5124C6368002B04D00A21DD
:104F40001048FFF7CBFD10BD23000F4A1021206849
:104F500000F098FB032000F03DFA032000F040FB36
:104F600003200A4900F086FAFFF7EAFA084B9C464C
:104F7000032360442375074B80006060DC60DEE73C
:104F80009814002070300020ED4A0010514C0010A1
:104F900040000034D82E00200048704798140020AC
:104FA000F0B557464E464546DE46E0B585B001931E
:104FB00010AB1B780600039300239A469846009294
:104FC0007268EFF3108972B61368002BFCD0BFF340
:104FD0005F8F3568AC7B002C49D067002B683F1988
:104FE000033FDB195A78AA73002A00D1EA73B1682B
:104FF0004F4A8C4600980199A21812016244106031
:1050000051600E9991600F99D16042469A705A7022
:105010001A706B7B9B46002B45D022001900A868B4
:105020006B6898472A68002830D05B4658465B007A
:105030005B44D719033BB870D118D35C002B00D068
:105040007B705B460C706B735C452DD0F3681B194D
:10505000013B18787368BFF35F8F42461A6089F38B
:1050600010885346002B2CD10002204307E07368C0
:10507000BFF35F8F1C6089F310880120404205B0A8
:10508000F0BCBB46B246A946A046F0BD5B465B00FD
:105090005B44033BD3189C70D119D25D002A00D029
:1050A0005A705B460B706C73307D009A019B00F068
:1050B00027FA82460028C9D02100306800F042FC5F
:1050C000C4E7039B002B30D00E9B00200F9998471C
:1050D000030004000D000B4327D000290DDA0098CF
:1050E000019902000B00121BAB41994213D818D052
:1050F00000920193039B9A4662E700F077F9020061
:105100000B00A4185D4100940195A94203D8F1D188
:1051100000998A42EED901235B42DC170093019487
:10512000E8E700999142E3D9F5E70020A7E7C046F8
:10513000FFFFFF0FF0B504000D0006267642F717BB
:10514000C64636196F4100B58F4213D810D000F013
:105150004DF932003B00121A8B41002B14DC002B5E
:1051600037D02900200000F075F980BCB846F0BDAA
:105170008642ECD90026002700F038F932003B00C7
:10518000121A8B41002BEADD30003900FFF744FE94
:105190000028E6DB00239846BC460F4A0F4F7B6A87
:1051A0009C4504D8B96A8E42DBD99C45D9D1116897
:1051B000EFF3108072B60B68002BFCD0BFF35F8F4B
:1051C0001368BFF35F8F4146196080F3108820BFDA
:1051D000E5E7002AC5D0D7E7703000200040054041
:1051E00070B504000D0000F001F902000B00200072
:1051F0002900801859418B4205D802D0FFF79AFF49
:1052000070BD8242FAD901204042C117F6E7C0467C
:1052100070B5060000F0EAF8FA2204000D00002341
:1052200030000021920002F02DFE001969418D42EC
:1052300005D802D0FFF77EFF70BD8442FAD9012065
:105240004042C117F6E7C046F8B5CE46474680B59E
:1052500006000C00FFF7E0FD00280CDC2D4B0020C1
:10526000596A8C4203D89B6A0130B34245D3C0BC13
:10527000B946B046F8BD20BF274D6A68EFF31087E6
:1052800072B61368002BFCD0BFF35F8F2B68C1B2DE
:105290009C465B7B8B4235D0FF2303405A009146EE
:1052A00062461268994490464A464244033A9278CC
:1052B000002A1DD0EA68000A90464344013B1B784F
:1052C000C0B2834221D06B68BFF35F8F00221A60A7
:1052D00087F310880F4A0020536A9C42C7D8926A0D
:1052E0000130B242C3D2E01A421E9041C0B2BEE7C2
:1052F0002B699842E7D12A61E5E7601A431E98417D
:10530000C0B2B4E7FF230340D4E7604600F01AFBC5
:10531000D9E7C0460040054098140020F0B5D646B5
:105320004F464646C0B5EFF305833F2213401800B1
:105330001038EFF3108C72B6204D2A68002AFCD08A
:10534000BFF35F8F0122110081401D4C88466163CD
:105350001C4917000E788A463100C1400F400A42AE
:1053600009D1BFF35F8F2F608CF31088E0BCBA4681
:10537000B146A846F0BD14498200646A51588C4277
:105380000FD3124BD25843469E4353461E70BFF371
:105390005F8F00232B608CF31088002AE6D09047A3
:1053A000E4E70B4A9B00904643441A681A60BFF337
:1053B0005F8F00232B608CF31088D7E7280100D083
:1053C00000400540AE3000207C300020082900203D
:1053D000D03F054010B50100024A0348FFF72AF804
:1053E00010BDC04600740110AA300020034B596A5A
:1053F0000A00986A596A8A42FAD17047004005400B
:1054000070B504000D00124A536A1900966A536A77
:105410008B42FAD13000190024184D41AB4211D80B
:105420000ED02B000A494A6A9A42FCD307D1084A97
:1054300002E0516A994202D1916AA142F9D370BD4A
:10544000A642EED9012301246442E5175B42E9E755
:1054500000400540064A536A9942FCD807D1044BE4
:1054600002E05A6A914202D19A6A8242F9D37047A5
:105470000040054070B504000D00EFF3108672B6D1
:105480001A4A1368002BFCD0BFF35F8F002D1BD08E
:105490002000FFF7A1F8164981420AD02000FFF74B
:1054A000A3F801212000FFF767F80123A340114A68
:1054B0001360114BA400E550BFF35F8F00220B4B2C
:1054C0001A6086F3108870BD0B4BA200D5500122E4
:1054D000A2400A4920000B7893430B700449FFF760
:1054E0009FF900212000FFF747F8E5E7280100D0E9
:1054F0001D5300103860054008290020AE30002000
:10550000F0B54F46D6464646C0B507002F4C616AF7
:105510000D00A66A616AA942FAD18B4208D805D06B
:105520000120E0BCBA46B146A846F0BDB242F7D968
:10553000EFF3108A72B6264801680029FCD0BFF349
:105540005F8F0125BD402349204C88460978894654
:105550002943C9B28C46414660460870391D1E4831
:10556000890065630A51B9000B50216A0020294265
:1055700019D0616A0800A66A616A8142FAD18B4239
:1055800019D801D1B24216D8CC451DD00F4B1F20DF
:105590001D625D6301230740BB40104A1E38136043
:1055A00043464A461A70BFF35F8F0022084B1A60C9
:1055B0008AF31088B5E70020BFF35F8F0022044B09
:1055C0001A608AF31088ACE70120ECE70040054040
:1055D000280100D0AE3000207C30002080E200E0C6
:1055E000EFF3108C72B60A490B68002BFCD0BFF3A6
:1055F0005F8F01238340074A0748136202789A436A
:105600000270BFF35F8F00230B608CF3108870472C
:10561000280100D000400540AE30002070B50500E4
:1056200014001600002915D00C00002A12D0806842
:105630006B689847296800280ED073009B19620098
:10564000033B1219CB18033A9C7088188A5C002A15
:1056500015D10670200070BD63001B197200033B5A
:105660009219CB18033A9E7088188A5C002A02D1DE
:1056700004703400EEE75A7004703400EAE75A70A0
:105680000670E7E730B583600023CCB24373013383
:10569000047342608373C4730D000068012C06D943
:1056A000421C0133DBB2137003329C42F9D1FF215B
:1056B00029404B005918002340180338437030BD6F
:1056C000F8B5CE46474606000C0080B5002907D045
:1056D0004D0003686D18033D5A195778002F04D107
:1056E0002000C0BCB946B046F8BD7900C9190339DD
:1056F000884643445978894600215970517073682F
:105700003A002100806898473368002814D0424648
:105710009A18947059195B5D002B00D053700F706C
:10572000270049463000FFF7CBFF39000200300068
:10573000FFF774FF0400D3E7424641465D19AF709E
:105740009A185B5C002B00D06B701470E9E7C046C0
:10575000F0B557464546DE464E46E0B50D006B00B7
:1057600001685B19DF1E0400C85D83B00192CA198D
:1057700000284CD043001B18033BCB185E78B4467E
:10578000002E16D1019E002E3ED0E67B002E04D0C6
:1057900073009B19CB18033B5D70E57300282FD174
:1057A0000023537003B0F0BCBB46B246A946A046E6
:1057B000F0BD72006244033A89184A78904600228C
:1057C0004A7091465A70010032002000FFF726FF10
:1057D00043468246002B07D05B0021684344033BCD
:1057E000CB185A78002A16D1424651462000FFF7BE
:1057F00015FF2168019BCA19002BC6D10028CFD004
:1058000043001B18033BCB1800219970C8E7019B8C
:10581000002BBAD1C4E75000801803380918487823
:10582000834648464870587041462000FFF7F6FE10
:10583000594680462000FFF743FF41460200200002
:10584000FFF7ECFE8046CFE7F0B557464546DE460B
:105850004E46E0B583B00191457B04006B000068C3
:105860005B19DF1EC15DC21900294ED04B005B18C9
:10587000033BC3185E78B446002E18D1019E002E5B
:1058800040D0E67B002E04D073009B19C318033B65
:105890005D70E573002931D10023280053706173D6
:1058A00003B0F0BCBB46B246A946A046F0BD7200AC
:1058B0006244033A80184278904600224270914632
:1058C0005A7020003200FFF7A9FE43468246002BA3
:1058D00007D05B0021684344033BCB185A78002A69
:1058E00017D1424651462000FFF798FE019B010068
:1058F0002068C219002BC4D10029CDD04B005B1801
:10590000033BC31800209870C6E7019B002BB8D159
:10591000C2E7500080180338091848788346484683
:105920004870587041462000FFF778FE594680467F
:105930002000FFF7C5FE414602002000FFF76EFE83
:105940008046CEE770B5040000292CD0437B8B4203
:105950002ED0056848004018033828188278002A9D
:1059600021D053009B18033BEA5CEE188A4202D117
:105970001BE0002A08D053009B18033BEB185A7811
:105980008A42F6D142785A70002301228370437014
:105990002000FFF7DDFE617B02002000FFF73EFEE6
:1059A0006073012000E0002070BD43783370EBE7A6
:1059B00001221900FFF7CCFE60730120F4E7C04616
:1059C00010B50400FEF7BCFD01002000FFF786F8CB
:1059D000FF232371BFF35F8F10BDC04610B50400D5
:1059E000FEF7AEFD01002000FFF778F8FF23A3804B
:1059F000BFF35F8F10BDC04610B504000120FEF755
:105A0000ABFD044B9C46604480002060BFF35F8F79
:105A100010BDC04640000034F8B5040006200D005B
:105A200000F08EFA002844D02A4B2B49E21853424A
:105A30005A418023DB039C469205284B62441A603E
:105A4000274B1A6010008B689843FBD1214B8021B3
:105A5000E3185A425341234A5B00490099520620F9
:105A600000F06EFA2900C00001F08CFEC30921D1BC
:105A700040270121260080256162A36200232C3685
:105A8000AD0135432B60062000F05AFA3900800042
:105A900001F078FE6023E26A53406E221A408023B0
:105AA0005B0133431A60104B236310232B600D3BC3
:105AB000A364F8BD0D4A934203D900230C4F0D494E
:105AC000D8E77F221040013040089F0119003F189D
:105AD0000300CFE70080FCBF00C0004000E00040B2
