:020000041000EA
:1000000000B50C4B00219960042159610A4919601F
:100010000A490B480160002159600121996001BC27
:10002000002800D0004707480749086003C880F34C
:10003000088808470000001800031F00180200038A
:10004000F40000180001001008ED00E000000000BE
:1000500000000000000000000000000000000000A0
:100060000000000000000000000000000000000090
:100070000000000000000000000000000000000080
:100080000000000000000000000000000000000070
:100090000000000000000000000000000000000060
:1000A0000000000000000000000000000000000050
:1000B0000000000000000000000000000000000040
:1000C0000000000000000000000000000000000030
:1000D0000000000000000000000000000000000020
:1000E0000000000000000000000000000000000010
:1000F0000000000000000000000000002CEC210DBA
:1001000000200420F7010010C3010010C5010010F9
:10011000C1010010C1010010C1010010C101001097
:10012000C1010010C1010010C1010010C701001081
:10013000C1010010C1010010C9010010CB01001065
:10014000CD010010CD010010CD010010CD01001037
:10015000CD010010CD010010CD010010CD01001027
:10016000CD010010CD010010CD010010CD01001017
:10017000CD010010CD010010CD010010CD01001007
:10018000CD010010CD010010CD010010CD010010F7
:10019000CD010010CD010010CD010010CD010010E7
:1001A000CD010010CD010010CD010010CD010010D7
:1001B000CD010010CD010010CD010010CD010010C7
:1001C00000BE00BE00BE00BE00BE00BE00F04BF888
:1001D000103800BEF2EB8871049B0110289B0110BF
:1001E0003402001090A31AE700202149086006C8D5
:1001F00081F3088810471F48006800282FD10DA4FC
:100200000ECC002902D000F012F8F9E71A491B4A77
:10021000002000E001C19142FCD1194988471949E9
:1002200088471949884700BEFDE701C901C29A42C3
:10023000FBD37047289B0110C0000020D01D002078
:1002400038B80110000004200000042038B8011064
:1002500000100420001004200000000070470B482C
:1002600006F094FE0047EFF30580C0B2704700002F
:1002700008ED00E0000000D0D01D0020002F00207D
:10028000D9530010512D0010015500105756000091
:1002900006005250ABB36053D06B011006005250B1
:1002A000861C0302EC6B0110060052505422A29DE2
:1002B000F86B011005005250DE65F46838B8011083
:1002C000F8B5C04610B5064C2378002B07D1054B76
:1002D000002B02D0044800E000BF0123237010BDB2
:1002E000D81F002000000000885D0110044B10B5ED
:1002F000002B03D00349044800E000BF10BDC046F6
:1003000000000000DC1F0020885D01107047C0461F
:1003100010B503685B68984710BDC04610B504006F
:10032000034B0833036003F051FA200010BDC046B0
:100330001061011010B50400054B0833036003F091
:1003400045FA200004210BF0F7F9200010BDC0464B
:10035000106101100023F0B5036043608360154B0A
:1003600004000E0083B0D5009D4216D8002D0ED09B
:1003700028000CF039F847192060A760002D0AD03A
:100380002A00310007F0B2FA676003B0F0BD002721
:1003900005608560F8E70700F6E707480CF0FAFA11
:1003A0002068A168091A002801D00BF0C5F90BF0EC
:1003B0006BFAC046F8FFFF7F885D0110F0B5C646B6
:1003C000040000B5002825D01A4B1B4F9846260084
:1003D000E068FFF7F3FFB569A468002D14D06B68DF
:1003E000013B6B60002B0FD12B689B68BB4214D183
:1003F000AB68013BAB60002B06D12B68DA68424545
:100400000ED128005B6898471C2130000BF094F94E
:10041000002CDCD180BCB846F0BD28009847E7E747
:10042000280090471C2130000BF086F9002CCED11B
:10043000F0E7C046110300100D030010F0B5DE46D2
:1004400057464E464546E0B5834685B0002800D164
:1004500099E05B46DB680193002B00D186E0019BAD
:10046000DB689946002B72D04B46DB689A46002B1E
:1004700060D05346DC68002C42D0E668002E27D0BE
:10048000F3689846002B2FD04346DD68002D44D0FA
:10049000EF68002F10D0F868FFF7D0FF3B00DA6953
:1004A000BF68100002930392FFF788FF2C21029887
:1004B0000BF042F9002FEED1AF68E869FFF77EFF3D
:1004C0002C2128000BF038F9002F26D03D00DFE763
:1004D000A568E069FFF772FF2C2120000BF02CF9D2
:1004E000002D0DD02C00C8E7B568F069FFF766FF56
:1004F0002C2130000BF020F9002DE9D02E00BFE7B1
:1005000053469C68D869FFF759FF2C2150460BF0E1
:1005100013F9002C0ED0A246ABE743469D68D8697C
:10052000FFF74CFF2C2140460BF006F9002DDBD0E5
:10053000A846A9E74B469C68D869FFF73FFF2C21E6
:1005400048460BF0F9F8002C01D0A1468CE7019D3C
:10055000EB69AC6818000193FFF730FF2C212800ED
:100560000BF0EAF8002C01D0019478E75B469C6818
:10057000D869FFF723FF2C2158460BF0DDF8002C3B
:1005800001D0A34665E705B0F0BCBB46B246A9461C
:10059000A046F0BDF0B5C64600B5C8B001282BD0C6
:1005A000114A1368013B1360002B14D10F4C104DFE
:1005B000206800280BD0A368191A0BF0BDF823009F
:1005C0000C3BA54207D01C0020680028F3D1230073
:1005D0000C3BA542F7D1074B9868FFF72FFF48B0B7
:1005E00080BCB846F0BDC046F41F0020802100202A
:1005F000302000208C2100200022F44B191D1A719C
:100600009A605A61D9601961F14B1A68551C1D60D6
:10061000012DE4D1002200233A923B9301220023D2
:100620003C923D93EB4B3AAC0132210018009846C6
:1006300038943992FFF78EFEE74E2300320083CACA
:1006400083C383CA83C303222100E44836943792CC
:10065000FFF780FE33002200183383CB83C283CBA5
:1006600083C203222100DE4834943592FFF772FEE4
:1006700033002200303383CB83C283CB83C203CBCE
:1006800003C204222100D74832943392FFF762FE5E
:1006900033002200503383CB83C283CB83C203CB8E
:1006A00003C204222100D04830943192FFF752FE59
:1006B000220070360BCE0BC20BCE0BC20ACE0AC282
:1006C00004222100C9482E942F92FFF743FEC84E02
:1006D000382231002000103107F008F907222100EC
:1006E000C4482C942D92FFF735FE31003822483152
:1006F000200007F0FBF807222100BF482A942B9224
:10070000FFF728FEBD4E2300320083CA83C383CA8D
:1007100083C303222100BA4828942992FFF71AFEC6
:1007200033002200183383CB83C283CB83C203CB35
:1007300003C204222100B34826942792FFF70AFE41
:1007400033002200383383CB83C283CB83C203CBF5
:1007500003C204222100AC4824942592FFF7FAFD3D
:1007600033002200583383CB83C283CB83C203CBB5
:1007700003C204222100A54822942392FFF7EAFD38
:10078000012300225B423A923B9321000132A048B0
:1007900020942192FFF7DEFD01230C225B423A9266
:1007A0003B9321000B3A9B481E941F92FFF7D2FD0A
:1007B000012365225B423A923B932100643A9648BA
:1007C0001C941D92FFF7C6FD012371225B423A92F1
:1007D0003B932100703A91481A941B92FFF7BAFD9F
:1007E000220078360BCE0BC20BCE0BC20ACE0AC249
:1007F000042221008A4818941992FFF7ABFD894E14
:1008000022003300183383CB83C283CB83C203CB54
:1008100003C204222100844816941792FFF79AFD20
:1008200033002200383383CB83C283CB83C203CB14
:1008300003C2042221007D4814941592FFF78AFD1B
:1008400033002200583383CB83C283CB83C203CBD4
:1008500003C204222100764812941392FFF77AFD16
:10086000220078360BCE0BC20BCE0BC20ACE0AC2C8
:10087000042221006F4810941192FFF76BFD6E4E19
:1008800022003300183383CB83C283CB83C283CB54
:1008900083C21B6821001360052268480E940F92E2
:1008A000FFF758FD33002200403383CB83C283CB54
:1008B00083C283CB83C283CB83C2062221006048DC
:1008C0000C940D92FFF746FD220070360BCE0BC242
:1008D0000BCE0BC20ACE0AC20422210059480A9448
:1008E0000B92FFF737FD584E22003300103383CBB5
:1008F00083C283CB83C203CB03C2042221005348AB
:1009000008940992FFF726FD33002200303383CB91
:1009100083C283CB83C203CB03C2042221004C4891
:1009200006940792FFF716FD33002200503383CB65
:1009300083C283CB83C203222100464804940592DC
:10094000FFF708FD220068360BCE0BC20BCE0BC2A0
:100950000BCE0BC233682100136005223E4802947F
:100960000392FFF7F7FC22003C4B103323CB23C24A
:1009700023CB23C203222100394800940192FFF7C0
:10098000E9FC2CE61C251C24651B103C6C434444EC
:10099000444500D084E00AF077FF0025F3E7022504
:1009A000F1E70325EFE7EEE70425ECE70825EAE7A2
:1009B0000925E8E70A25E6E70B25E4E70625E2E74F
:1009C0000725E0E70525DEE70C25DCE78C21002084
:1009D000F41F002030200020BC5D01103C200020CE
:1009E0004820002054200020602000206C2000209F
:1009F0003C5E01107820002084200020BC5E0110A5
:100A0000902000209C200020A8200020B42000205E
:100A1000C0200020CC200020D8200020E42000208E
:100A2000F02000203C5F0110FC2000200821002065
:100A30001421002020210020BC5F01102C21002067
:100A400038210020442100203C600110502100206A
:100A50005C2100206821002074210020BC6001106E
:100A6000802100200D258EE714258CE715258AE7C7
:100A7000162588E7172586E7182584E7192582E7D4
:100A80001A2580E71B257EE710257CE711257AE7EC
:100A9000122578E7132576E70E2574E70F2572E710
:100AA0000C3C2068A368191A002800D170E70AF0EE
:100AB00043FE6DE710B5040002F092FE024B2000E9
:100AC0000833236010BDC04610610110F0B5DE464A
:100AD00057464E4645468B460221E0B59846531E82
:100AE0008246894687B0032B04D90139D31F894632
:100AF0000B2B3DD853002A499B189B005D18002002
:100B0000CB5800210290039100216A680491D41A05
:100B10009A4236D0234B9C4236D820000BF064FC1E
:100B20000ACD0419029003900494994209D000223E
:100B30005B1A84188D180832C0CDC0C49A42F8D10F
:100B4000801843460390009359464B46504602AAEC
:100B500002F0FEFE0298002803D00499091A0AF058
:100B6000EBFD07B0F0BCBB46B246A946A046F0BDBF
:100B700011000C2315398B429B41032119408946F2
:100B8000B8E700240020CBE70BF0DCFE02980499C4
:100B9000091A002801D00AF0CFFD0AF075FEC04600
:100BA00030200020F8FFFF7FF8B5CE46474680B5DD
:100BB0001F00089B04000D00380005211600984610
:100BC00006F016FA8946002900DDC3E043460122FB
:100BD00029002000FFF77AFF434602222900200067
:100BE000FFF774FF1E2F04DD701C182106F000FAB9
:100BF0000E00002E48D00C2E46D0012E00D18CE0E5
:100C00000D2E00D189E0022E00D1FFE00E2E00D182
:100C1000FCE0032E00D107E10F2E00D104E1042EE9
:100C200000D1FAE0102E00D1F7E0052E00D109E145
:100C3000112E00D106E1062E00D10AE1122E00D1BC
:100C400007E1072E00D10BE1132E00D108E1082E99
:100C500000D10CE1142E00D109E1092E00D10DE1E3
:100C6000152E00D10AE10A2E00D10EE1162E00D178
:100C70000BE10B2E01D0172E0CD143461F22290069
:100C80002000FFF723FF05E0434620222900200033
:100C9000FFF71CFF7E1F132E00D880E03B00233B94
:100CA000042B10D93B00193B042B42D93B00283BB5
:100CB000122B3ED9042F42D843460322290020009C
:100CC000FFF704FF05E043460C2229002000FFF750
:100CD000FDFE3B00143B042B00D890E03B00193B89
:100CE000042B00D87EE03B001E3B042B00D87FE0A5
:100CF0003B00233B042B00D874E0053B042B00D8B9
:100D00007DE0053B042B00D895E03B00323B042BF3
:100D10005BD9373F042F50D849E04346042F5BD8B6
:100D2000212229002000FFF7D1FE3B00193B042BB4
:100D3000BCD843460B2229002000FFF7C7FE3B002A
:100D40000F3B042BC5D843460A2229002000FFF799
:100D5000BDFE32E043460F2229002000FFF7B6FE19
:100D60004B46012B00D131E74346102229002000D9
:100D7000FFF7ACFE4B46022B00D127E7434611227A
:100D800029002000FFF7A2FE4B46042B00D01DE7F0
:100D90004346122229002000FFF798FE16E743463B
:100DA0000C2229002000FFF791FE042E09D84346AB
:100DB000072229002000FFF789FEC0BCB946B046D3
:100DC000F8BD3B000A3B042BB9D843460822290052
:100DD0002000FFF77BFEF0E7152229002000FFF737
:100DE00075FE57E74346072229002000FFF76EFEF5
:100DF00043460D2229002000FFF768FEDDE7434649
:100E0000092229002000FFF761FED6E7434616229B
:100E100029002000FFF75AFE3CE74346182229002C
:100E20002000FFF753FE35E7434617222900200034
:100E3000FFF74CFE2EE743460E2229002000FFF765
:100E400045FE80E74346192229002000FFF73EFEB9
:100E500020E743461A2229002000FFF737FE19E752
:100E600043461B2229002000FFF730FE12E74346CD
:100E70001C2229002000FFF729FE0BE743461D2214
:100E800029002000FFF722FE04E743461E22290026
:100E90002000FFF71BFEFDE610B50120FFF77AFBEF
:100EA00010BDC04630B5436889B0002B01D109B0F0
:100EB00030BD002200230492059300233A4904AA7E
:100EC000069300F077F9059D049C2B1B302B29D944
:100ED000206812F0E5FF059B049A019345B29B1A26
:100EE000182B41D9906912F0DBFF059B049A0193FE
:100EF00044B29B1A302B30D9106B12F0D1FF2B4B20
:100F000002AA13802A4BD071538000231000137162
:100F10005571947109F07AFD4020002103F0BEFD67
:100F2000049C059DAC420CD02300206808339842F5
:100F30000FD0A3681834591C0AF0FEFBAC42F3D161
:100F4000049D002DB3D006992800491B0AF0F4FB3C
:100F5000ADE71834AC42E7D1F2E7164ADB100221C4
:100F60005A4315480BF02EFD124ADB1001215A435B
:100F700011480BF027FD049C059DA54208D104985B
:100F80000699091A002801D00AF0D6FB0AF07CFC69
:100F9000230020680833984203D0A368591C0AF044
:100FA000CBFB1834E9E7C046E0840110E4070000F9
:100FB00006050000ABAAAAAA2461011010B509F029
:100FC00009FD10BD10B5040009F076FD200010BD2C
:100FD00010B51C00431A0298511A001B584306F022
:100FE00007F8001910BDC0460368F0B54E46994693
:100FF00057464546DE4614004A464368E0B50F00B2
:10100000991AC9108A00521898461301D21813026F
:10101000D2181304D3185B00624A5B18824683B06F
:10102000934200D1BBE00122002B03D05A0093422F
:1010300000D9A9E04B46FD1A002A00D093E01823FE
:10104000009300239B4601935D44280026002368FB
:10105000083008362860B34200D19BE02B60A368BB
:10106000AB60636826606B60002363602372B945E0
:101070002ED04E465C464D46083609E02360AB68EC
:101080001836A3606B68183563601834BD4210D001
:101090002000083020602B68B342EFD131001022CD
:1010A00006F024FC6B681835636018361834BD42AE
:1010B000EED13B004A46183B9B1ADA083A4B5343A1
:1010C000DB00DB0802335A00D318DB005B440093DB
:1010D000B84530D03E003D00009C083609E0236052
:1010E000AB681836A3606B681835636018344545E3
:1010F00010D020002B6808302060B342EFD13100BF
:10110000102206F0F3FB6B6818356360183618344C
:101110004545EED14346DF1B183F234BFF087B4379
:10112000DB00DB0801335A00D318009ADB00944639
:101130009C44634600934B46002B06D053464A46D8
:101140009B684846991A0AF0F7FA53465A461A60BD
:10115000009A5A60019A9A6003B0F0BCBB46B2464E
:10116000A946A046F0BD0F4B9A4211D85600B618BA
:10117000F60030000BF038F9330083465B440193EE
:1011800018235B4400935FE74B46084EFD1AF0E7D7
:101190001A00EBE71022310006F0A8FB61E70448D3
:1011A0000BF0F8FB55555505ABAAAA0AF8FFFF7FCF
:1011B00070610110F0B5C64600B500688AB0884677
:1011C000150013F0BDFE06AE071E23D153E0012823
:1011D00055D13A7802A90A74320000210593D154FE
:1011E0006C68AB689C4233D0200008302060049BC0
:1011F000B34249D02360069B0193A360059B6360C3
:1012000001936B6818336B604146002013F098FE21
:10121000071E30D03800049613F02AFE04000300A5
:1012200003900F28D3D9002203A904A80BF0B8FC1F
:10123000039B049006932200390006F057FB00211F
:10124000039B049A0593D1546C68AB689C42CBD144
:101250002100280004AAFFF7C7FE0498B042D3D0AB
:10126000069B591C01930AF067FA4146002013F0CF
:1012700067FE071ECED10AB080BCB846F0BD320072
:101280000028AAD03000D6E71022310006F02EFB4D
:10129000B4E70498B04203D0069901310AF04CFA41
:1012A0000AF0F2FA10B504002300C0692433984212
:1012B00003D0636A591C0AF03FFA230060680C33BC
:1012C000984203D0E368591C0AF036FA200010BD9A
:1012D000F0B5030045469046020057464E46DE46AE
:1012E0000C332432E0B54360C261002324228360C2
:1012F000037303628354A9B003700B680CAD040040
:1013000099464F680A95002B3ED022970F2F2BD875
:10131000012F00D02EE128211B7802AA5218137049
:101320002A0000230B97D3550B9B002203935F23C6
:10133000039900930AA85E3B0BF008FD4346002B7F
:1013400003D00B9B0393022B24D80A98A84203D006
:101350000C9901310AF0F0F9200029B0F0BCBB462D
:10136000B246A946A046F0BD22AE002231000AA82E
:101370000BF016FC229B0A900C933A00494606F0AB
:10138000B5FA229F0A9ACCE72A00002FC9D0D84884
:101390000BF0E8FA00220023069207930023D549B8
:1013A00006AA0AA80893FFF705FF079B069E03936A
:1013B000991BC81083001B181A019B181A029B184E
:1013C0001A049A1852001218302900D8A0E0002AF6
:1013D00000D148E112AB109398463368776899467C
:1013E000002B00D10AE122970F2F00D9B2E0012F84
:1013F00000D017E140211B7802AA52181370424610
:1014000000231197D355079B069A03939B1A182B19
:1014100000D821E118AB994616939369D7699A468B
:10142000002B00D1F1E022970F2F00D9C7E0012F48
:1014300000D0F1E058211B7802AA521813704A46D6
:1014400000231797D355079B069A03939B1A302BBB
:1014500000D8FAE01EAB9A461C93136B576B9B4661
:10146000002B00D1BBE022970F2F00D997E0012F6E
:1014700000D0DDE070211B7802AA5218137052468A
:1014800022AE00231D97D35524AB9B462293109B7D
:10149000119F0393002B00D1A9E005970F2F6FD860
:1014A000012F00D0CBE05A461B78337200237760BF
:1014B000D355179B30001A00169903930BF064FD67
:1014C0002298584503D0B16801310AF035F901235B
:1014D000201D237010A90BF0A5FB200016A91C30BD
:1014E0000BF0A0FB1C98504503D01E9901310AF067
:1014F00023F91698484503D0189901310AF01CF9D0
:101500001098404508D0129901310AF015F903E00E
:101510000A99794806F096FC069E079FBE420CD0B9
:10152000330030680833984210D0B3681836591C1D
:101530000AF002F9B742F3D1069F002F00D104E769
:1015400008993800C91B0AF0F7F8FEE61836B742CA
:10155000E6D1F1E722AE0022310010A80BF020FB0B
:10156000229B109012933A00494606F0BFF9229F41
:10157000109A45E72A00002F00D1D2E62800FCE6A9
:101580000022300005A90BF00BFB059B2290B360F5
:101590003A00039906F0AAF9059F229A86E722AE3F
:1015A000002231001CA80BF0FBFA229B1C901E931A
:1015B0003A00594606F09AF9229F1C9A61E722AE3A
:1015C0000022310016A80BF0EBFA229B169018931C
:1015D0003A00514606F08AF9229F169A30E75246A1
:1015E00022AE002F00D14CE741480BF0BBF95A4620
:1015F000002F00D15AE73E480BF0B4F94246002FC5
:1016000000D1FDE63A480BF0ADF94A46002F00D173
:1016100016E737480BF0A6F94A46002F00D10FE72E
:101620004846D5E74246002F00D1E9E640469AE712
:10163000524622AE002F00D123E75046B8E75A4663
:10164000002F00D132E75846A2E72C4ADB100221D6
:101650005A432B480BF0B6F9284ADB1001215A43B4
:1016600027480BF0AFF9110025480BF0ABF9069EA7
:10167000079FB74230D106980899091A002801D06F
:101680000AF05AF80A98A84203D00C9901310AF0DE
:1016900053F82000FFF706FE0AF0F6F81C985045B4
:1016A00003D01E9901310AF047F81698484503D037
:1016B000189901310AF040F810984045D7D0129996
:1016C00001310AF039F8D2E722985845E6D0B168DE
:1016D00001310AF031F8E1E733003068083398420D
:1016E00003D0B368591C0AF027F81836C1E7E3E7BE
:1016F0008C610110B8610110BC610110ABAAAAAAEB
:1017000024610110C5E7BDE7CFE7C046F0B54E46FE
:101710004546DE465746E0B597B005AB984603937D
:1017200000238146102503AE554C3372736064214B
:10173000534803F03FFE071E29D0A3691D42FCD188
:101740002768FFB20A2F49D073689B4601235B4488
:101750009A463368434518D0B26892450BD85A462A
:101760009F545346514673600023326801205354FE
:1017700003F0ACF9DBE70123002200935946002374
:1017800030000BF089FA3368E9E70F22E5E72422FD
:1017900009AB187398544B46187048460C30586083
:1017A000143A0CA906F0A2F848464B4624309F6034
:1017B000D861102212A906F099F84B461F620398CF
:1017C000404503D0B168013109F0B6FF484617B073
:1017D000F0BCBB46B246A946A046F0BD294B2A48FC
:1017E000196806F02FFB039F0BAD74680995002F55
:1017F00029D002940F2C17D8012C2AD16A462C210B
:101800003B78521813702B0000220A9448461A5550
:1018100009A90132FFF75CFD0998A842CFD00B99C6
:10182000013109F089FFCAE7002202A909A80BF0DB
:10183000B7F9029B09900B932200390006F056F885
:10184000029C099BE0E72B00002CDDD00F480BF039
:1018500089F82B00002CD7D02800EDE703984045ED
:1018600003D0B168013109F067FF0AF00DF809985B
:10187000A842F3D00B99013109F05EFFEEE7C046B4
:101880000040034018200020E46101108C61011029
:10189000962110B5094C8901200003F01BFD02219F
:1018A000002002F0C1F90221012002F0BDF910234D
:1018B000E26A9343024A136010BDC04600400340F1
:1018C0002C500340F0B5DE4657464E464546E0B53F
:1018D0000768AFB00CAB06000D009B4644680A9346
:1018E000002F00D1F3E128940F2C00D9BAE1012C8C
:1018F00000D016E228213B7802AA521813705B46EA
:1019000000220B941A550B9ACC4B03929A4200D1A9
:101910001EE2CB4B012219000AA898460BF034FBBB
:101920006A6829680AA80BF02FFB070012AB109316
:10193000036808370400BB4200D1DBE110938368E1
:1019400012936368119300236360119A2372BB4B57
:10195000276003929A4200D1FDE10122414610A87E
:101960000BF012FB070018AB16939A460368083772
:101970000400BB4200D1B7E11693836818936368F3
:101980001793002327602372376863601EAB746867
:101990001C93002F00D194E128940F2C00D981E1F1
:1019A000012C00D0C2E170213B7802AA52181370BA
:1019B0001EAB00221D941A551CA806CD0BF0E4FAAC
:1019C0001D9C002C00D1A9E101211C9D9D4B9E4E28
:1019D0002C192A78100058405B08014201D073404E
:1019E0009BB2500858405B08014201D073409BB243
:1019F000900858405B08014201D073409BB2D00868
:101A000058405B08014201D073409BB21009584016
:101A10005B08014201D073409BB2500958405B08FB
:101A2000014201D073409BB2900958405B080142CB
:101A300001D073409BB2D2095A405B08114201D0D9
:101A400073409BB20135A542C3D1DC4364BAA4B252
:101A5000092C00D862E1632C00D870E1FA239B00C6
:101A60009C4200D268E1794B042605219C4200D8B3
:101A700068E124AB2D2222A822930BF0AFF8229B21
:101A80000393632C1BD99C46714B013E98466F4BC8
:101A9000664499462000642105F0D2FA20004D00EA
:101AA000642105F0CDFA43465B195B78270073701B
:101AB00043465B5D04003370023E4F45EAD8092C73
:101AC00000D8DEE0624B64001A1952781C5D03995D
:101AD000039B4A701C70179C239A169BA0185345B1
:101AE00000D1D9E01899884200D8D9E0229924ADD4
:101AF000A94200D110E1249DA84200D8EDE016A82B
:101B00000BF042FA06002AAF289703680836040053
:101B100028ADB34200D1F9E028938368AB606368D5
:101B20006B600023636023726A68444B26609A42AC
:101B300000D10AE10122280046490BF025FA0822CB
:101B4000904606AE0496036880440400434500D1E5
:101B5000D6E0049383680693636805934346236045
:101B60000023237228986360B84203D0A96801312A
:101B700009F0E2FD229824AB984203D02499013168
:101B800009F0DAFD1C981EAB984203D01E99013172
:101B900009F0D2FD1698504503D01899013109F08B
:101BA000CBFD109812AB984203D01299013109F085
:101BB000C3FD0A98584503D00C99013109F0BCFDCA
:101BC0000499254806F03EF904980778002F1BD0A9
:101BD000224B0D2100255D5F002398468C460400B2
:101BE000202241461E4B00291BD1BD4220D09969BD
:101BF0000A42FCD11F60217801340D394F427941EE
:101C00002778C9B2002FEED1B04203D00699013136
:101C100009F092FD2FB0F0BCBB46B246A946A046E3
:101C2000F0BD99690A42E5D099690A42F9D1E1E724
:101C300099690A42FCD161461960D8E7FFFFFF3F6E
:101C4000B8610110FFFF00000884FFFF0F270000AC
:101C5000186201107C71011010620110DC2E00204E
:101C600000400340002228A90AA80AF099FF289BF7
:101C70000A900C932200390005F038FE289C0A9B3C
:101C80003EE6039B3034E4B21C70179C239A169BEB
:101C9000A018534500D025E70F21884200D925E739
:101CA00022992CE7002228A91CA80AF079FF289B7A
:101CB0001C901E932200390005F018FE289C1C9BE6
:101CC00077E6002C00D174E643480AF04BFE002C66
:101CD00000D115E640480AF045FE0022002100949C
:101CE00022A80BF08DF80DE710223900504605F0C0
:101CF000FDFD44E61022390012A805F0F7FD20E6AC
:101D000041463000083205F0F1FD25E71022310090
:101D1000380005F0EBFD02E70F25EDE60026012176
:101D2000A7E6002C00D1EBE51800A3E71EAB002CC2
:101D300000D13EE61800BDE70226032199E6012600
:101D4000022196E6013E013993E624480AF022FE7C
:101D500022480AF01FFE21480AF01CFE2898B842CB
:101D600003D0A968013109F0E7FC229824AB98421E
:101D700003D02499013109F0DFFC1C981EAB984276
:101D800003D01E99013109F0D7FC1698504503D0B5
:101D90001899013109F0D0FC109812AB984203D089
:101DA0001299013109F0C8FC0A98584503D00C99E2
:101DB000013109F0C1FC09F067FDF5E7F4E7D4E76C
:101DC000DBE7E9E70498B042F5D00699013109F064
:101DD000B3FCF0E7D1E7D8E78C610110F86101109E
:101DE000F0B5DE46454657464E46E0B5B7B00391DE
:101DF000B82132AB0592309304AAA94B5218138034
:101E000002233193002304AA023152181370C30F26
:101E10009B46C317C5185D40092D00D869E2632DA4
:101E200000D86CE2FA239B009D4200D275E29D4BE4
:101E30009D4200D86BE29C4B280098469B4B0124A6
:101E400099469B4B9B4F9A4608E0464500D812E2C4
:101E50004E4500D811E2564500D826E296490600C4
:101E600005F0EEF823000434BE42EED808AB06932A
:101E70005B462D22191906A80AF0B0FE069B9C4667
:101E8000E344632D1AD98D4E864BB0469946023CE9
:101E90005C442800642105F0D3F828004F00642139
:101EA00005F0CEF84346DB195B782E00637043469D
:101EB000DB5D05002370023C4E45EAD8092D00D9B0
:101EC000BEE13035EDB25B461D70079A7C4B049243
:101ED0009A4200D123E27B4B0122190006A89A46C0
:101EE0000BF052F805000EAB0C93036808350400A4
:101EF000AB4200D1DFE10C9383680E9363680D93CE
:101F0000002363602372039B2560DA0F0392DA17C4
:101F10009D185540092D00D8E9E1632D00D8F0E166
:101F2000FA239B009D4200D2EDE15E4B9D4200D81A
:101F3000EBE15D4B280098465C4B012499465C4BD5
:101F40005C4F9B4608E0464500D892E14E4500D8DC
:101F500095E15E4500D8A4E15749060005F070F808
:101F600023000434BE42EED8039E14AB2D22311957
:101F700012A812930AF032FE129B9C466644B146A8
:101F8000632D1AD94D4E474BB0469B46023C4C44FC
:101F90002800642105F054F828004F00642105F062
:101FA0004FF84346DB195B782E0063704346DB5DD8
:101FB00005002370023C5E45EAD8092D00D947E1AF
:101FC0003035EDB24B461D700D9C139A0C9B0EA93B
:101FD000A0188B4200D16AE10E99884200D844E1F2
:101FE000129914ADA94200D17DE1149DA84200D8F8
:101FF0004EE10CA80AF0C8FF050018AB9B461AABCF
:1020000018930493036808350400AB4200D164E1DF
:1020100018935B4682689A605B4662685A60002348
:102020005A46636023725268254B25609A4200D15C
:1020300078E10122514658460AF0A6FF050020AB80
:102040001E93036808350400AB4200D13FE11E93A4
:102050008368209363681F93002363602372059B4A
:102060002560DA0F0392DA179D185540092D00D824
:1020700041E1632D00D840E1FA239B009D4200D24C
:1020800047E1084B9D4200D845E1074B28009846A0
:10209000064B01249946064B064F9A461DE0C04662
:1020A000637400000F2700003F420F007F969800E6
:1020B000FFE0F5059F86010010270000186201105F
:1020C000FFFFFF3FE0840110464500D8CFE04E45BA
:1020D00000D8E4E0564500D8E5E0B849060004F031
:1020E000AFFF23000434BE42EED8039E26AB2D2260
:1020F000311924A8994624930AF070FD249B9C462C
:1021000066440396632D1BD9B446AD4BAD4E9A463B
:10211000B046023C64442800642104F091FF28008A
:102120004F00642104F08CFF4346DB195B782E00DE
:1021300063704346DB5D05002370023C5645EAD8D8
:10214000092D00D88CE09F4B6D005A1952780399E5
:102150005D5D4A70039B20A91D701F9C259A1E9BE4
:10216000A0188B4200D1A4E02099884200D87AE0E0
:102170002499494500D1B8E0269DA84200D880E0C6
:102180001EA80AF001FF07002CAE2A960368083744
:1021900004002AADBB4200D193E02A938368AB6070
:1021A000636829006B60002327606360237230A896
:1021B000FFF788FB2A98B04203D0A968013109F0E3
:1021C000BBFA2498484503D02699013109F0B4FAA6
:1021D0001E9820AB984203D02099013109F0ACFA47
:1021E0001898049B984204D05B469968013109F025
:1021F000A3FA129814AB984203D01499013109F054
:102200009BFA0C980EAB984203D00E99013109F05D
:1022100093FA069808AB984203D00899013109F067
:102220008BFA309832AB984203D03299013109F0E1
:1022300083FA37B0F0BCBB46B246A946A046F0BD13
:102240005A46604E6D0073195B78755D53703AE6BF
:102250004A465C4E6D0073195B78755D5370B1E64C
:102260003035EDB276E724998AE71299C1E65C1D14
:102270003BE75C1D78E65C1DF8E59C1DF6E59C1DC2
:1022800072E600220021009424A80AF0B9FD7AE742
:1022900000220021009412A80AF0B2FDACE69C1DB9
:1022A00023E7DC1D60E6DC1D1FE7DC1DDEE50F21FA
:1022B00093E60F2159E7102229000EA805F016FB1E
:1022C0001CE610223900300005F010FB68E71022F0
:1022D000290020A805F00AFBBCE61022290004987A
:1022E00005F004FB98E60F2580E60F2545E701245D
:1022F0003AE60124BAE50124F7E60224F5E60224D1
:10230000B4E5022430E603242EE604242CE604245B
:10231000ACE50324E9E60424E7E60324A6E52A481D
:102320000AF038FB28480AF035FB069808AB9842BB
:1023300003D00899013109F0FFF9309832AB984287
:1023400003D03299013109F0F7F909F09DFA2A9882
:10235000B04203D0A968013109F0EEF9249848454C
:1023600003D02699013109F0E7F91E9820AB984275
:1023700003D02099013109F0DFF91898049B9842A5
:1023800004D05B469968013109F0D6F9129814AB74
:10239000984203D01499013109F0CEF90C980EAB94
:1023A0009842C2D00E99013109F0C6F9BDE7C4E7E1
:1023B000DBE7F3E7D2E7E9E7DFE7C04610270000F5
:1023C0000F27000018620110F8610110F0B5DE4619
:1023D000454657464E46E0B58FB008AB9B460AAB24
:1023E0000893544B02AA138402235A4653600023D5
:1023F0009372C30F0193C317C5185D40092D00D810
:102400007CE0632D00D87BE0FA239B009D4200D244
:102410007AE0494B9D4200D874E0484B280098462A
:10242000474B01249946474B474F9A4605E046459E
:102430005ED94E455ED956455ED94449060004F042
:10244000FFFD23000434BE42F1D8019E04AB2D22CF
:10245000311902A802930AF0C1FB029B9C46664414
:10246000B246632D1AD93A4B023C9846324B54443B
:1024700099462800642104F0E3FD28004E00642101
:1024800004F0DEFD43469B195B782F0063704346E2
:102490009B5D05002370023C4F45EAD8092D1FD8EB
:1024A0003035EDB2534658461D7002A9FFF70AFABF
:1024B000029804AB984203D00499013109F03CF929
:1024C00008980AAB984204D05B469968013109F03C
:1024D00033F90FB0F0BCBB46B246A946A046F0BDEA
:1024E00051461B4B6D005A1952785D5D4A70D9E711
:1024F0005C1DAAE79C1DA8E7DC1DA6E70124A4E754
:102500000224A2E70424A0E703249EE7029804AB78
:10251000984203D00499013109F00EF908980AABEA
:10252000984204D05B469968013109F005F909F039
:10253000ABF9F3E7636200000F2700003F420F0092
:102540007F969800FFE0F5059F86010010270000A8
:1025500018620110F0B5C64600B58EB004AC304B21
:1025600002941A8802AD22809B780AAEA3700323DE
:102570006B6000230768EB720896002F3BD0380091
:1025800012F076FC804601900F2825D801281ED134
:102590006A4628213B7852181370330000220990B4
:1025A00008A91A542800FFF78DF90898B04203D003
:1025B0000A99013109F0C0F80298A04203D0A96835
:1025C000013109F0B9F80EB080BCB846F0BD330057
:1025D0000028E3D0300007E0002201A908A80AF093
:1025E000DFFA019B08900A934246390005F07EF914
:1025F0000198089BD2E70B480AF0B4F90898B0425A
:1026000003D00A99013109F097F80298A04203D04B
:10261000A968013109F090F809F036F9F5E7C046EC
:10262000146201108C610110034B1A0008321A6009
:1026300000225A601A727047182000207047C04666
:10264000C06810B5002802D00368DB69984710BD48
:102650000020704710B50400102109F06DF820002B
:1026600010BDC04610B5102109F066F810BDC04677
:1026700010B50400024B036009F076FA200010BD8B
:10268000B064011010B50400044B036009F06CFA4B
:102690002000042109F050F8200010BDB0640110A2
:1026A00010B50400024B036008F058FE200010BD76
:1026B0008864011010B50400044B036008F04EFE5E
:1026C0002000202109F038F8200010BD8864011096
:1026D0000023F0B5036043608360154B04000E00D7
:1026E00083B0D5009D4216D8002D0ED0280009F0E9
:1026F0007BFE47192060A760002D0AD02A00310018
:1027000005F0F4F8676003B0F0BD00270560856050
:10271000F8E70700F6E707480AF03CF92068A168E7
:10272000091A002801D009F007F809F0ADF8C046F1
:10273000F8FFFF7F885D011070B5041E1FD02600D2
:10274000E068FFF7F9FFB569A468002D11D06B6848
:10275000013B6B60002B0CD12B6828009B689847CD
:10276000AB68013BAB60002B03D12B682800DB6812
:1027700098471C21300008F0DFFF002CDFD170BD2E
:10278000F0B5C646070000B500282ED0B846F86858
:10279000FFF7F6FF4346DC69BF68002C1FD0260018
:1027A000E068FFF7C9FFB569A468002D11D06B6818
:1027B000013B6B60002B0CD12B6828009B6898476D
:1027C000AB68013BAB60002B03D12B682800DB68B2
:1027D00098471C21300008F0AFFF002CDFD12C21DE
:1027E000404608F0A9FF002FD0D180BCB846F0BD0C
:1027F000F0B5C64600B5244E84B02449300008F038
:10280000DFF90321022001F00FFA0321032001F078
:102810000BFA00220121022001F01EFA0022012100
:10282000032001F019FA1A4B012500249846194F8C
:1028300007E05C2C1AD0682C1FD0802D20D00134EA
:10284000013578231A0022402342F6D0782AF4D0AA
:1028500000230F2200933000E1B201336A4408F0F4
:1028600041FA002804DCE8D1232CE2D13C60E6E701
:102870002100094805F0E6FAF6E743461C60DEE76A
:1028800004B080BCB846F0BD28150020A086010029
:10289000401400203C140020E4620110F0B5184EF2
:1028A00085B03168002927DB01250023154F03ACD3
:1028B00023702200C9B201333800009508F0AAF94C
:1028C00031780123220025703800009508F0A2F924
:1028D0000723317823702200063B3800009508F06A
:1028E00099F9132331782370220038000095123BA8
:1028F00008F090F905B0F0BD034805F0A3FAF9E738
:102900003C14002028150020F862011070B5294CF5
:10291000294D2368294E9A002868925984B0821A5A
:102920002A60274A116800291FDB002303AA0093AD
:1029300024480233C9B208F0D5F96B466A461B7BBE
:10294000527B00282FDD1802801804F04DFE1E4A2D
:102950001E4B04F0C2FD04F05FFE23689A000028BD
:102960001CDB90512A6894466044013328601D2B7B
:1029700000DD00231E21236004F03AFBFF23142214
:1029800000930021FA3BFEF723FB052802DA05201D
:1029900004B070BDFF28FBDDFF20F9E790592A68DD
:1029A00094466044E1E723689A0090592A68944667
:1029B0006044DAE7382D0020682700203C2D0020F5
:1029C0003C140020281500203333333333330340C5
:1029D000F0B54746CE460022002380B589B0049268
:1029E00005930023070004AA080051490693FEF747
:1029F000E1FB049B00269846059B00250393434575
:102A000069D04C4B99468021380008F0ADFB059AFF
:102A1000049B0392D01AC010810009180A0189187A
:102A20000A0289180A048A1852001218AA4263D9A5
:102A30000022002490461FE01B6839001A5D4346BF
:102A400048460093303A002301F0C6F8FA2080008F
:102A500002F03CF8059A049B0392D11AC9108A002F
:102A600052181001121810021218100412185200F5
:102A700052180134AA423FD99B195A68A242DBD8A6
:102A80000A21380008F070FBFA20C00002F01EF89E
:102A9000059B049C98461A1BD21093009B181901A1
:102AA0005B1819025B1819045B185B0001359B1851
:102AB0001836AB42A7D844450DD023002068083310
:102AC000984215D0A3681834591C08F035FEA0456B
:102AD000F3D1049B98464346002B04D00699404608
:102AE000C91A08F029FE09B0C0BCB946B046F0BD0D
:102AF0001834A045E1D1ECE729000F4809F062FF46
:102B0000049C059DA54208D104980699091A00283D
:102B100001D008F011FE08F0B7FE2300206808334A
:102B2000984203D0A368591C08F006FE1834E9E760
:102B30007C8B01100C29002024610110F0B5464661
:102B40004F46D6468468031DC0B5884606009946A0
:102B5000002C67D04D460B6803E02500A468002CCC
:102B600005D022699342F8D9E468002CF9D1A9452F
:102B700058D02A6993422DD22C2009F035FC4346C7
:102B80001B68846203619846030018330362436242
:102B90002B6907009A460476C461434521D9F3683E
:102BA0009A46AB420BD0280009F0EEFD0369040001
:102BB000434500D38BE0C368002B00D176E02C00A6
:102BC0003D0001204B462200290009F0F9FD736900
:102BD0000133736128001430E0BCBA46B146A84600
:102BE000F0BDC24516D23369AB4209D0280009F0C6
:102BF000B5FD0369040043455AD9EB68002BDFD1CA
:102C00002C003D002AE02300002945D190453ED804
:102C10002F0025000020FFF78FFD2C21380008F041
:102C20008BFDD7E72C2009F0DFFB43461B68020031
:102C30009846036100230376C36183627369183287
:102C4000050002624262002B0CD0346923694345BF
:102C500008D20120A145B5D023699A46D0458041CC
:102C60004042AFE7B468002C05D114E00121A3680D
:102C7000002BC8D01C0022694245F7D80021E36828
:102C8000F6E72B00002932D19045C3D93D00002B37
:102C900041D01C00DDE74C46F368A342D9D02000A8
:102CA00009F072FD230002690400AFE73D00D0E7A0
:102CB000B568002D05D12CE00121AB68002B1FD099
:102CC0001D002A699045F7D30021EB68F6E7B56847
:102CD000002D05D10AE00121AB68002BD1D01D00E9
:102CE0002A694245F7D80021EB68F6E74D46AA4528
:102CF0000CD0280009F048FD2B0002690500C3E74D
:102D00002B000029C0D0F368AB42F2D12B003D006C
:102D1000BDE74D46F7E72F0000257BE770B5046857
:102D20000500002C11D06368013B6360002B0CD1BF
:102D3000236820009B689847A368013BA360002B91
:102D400003D123682000DB689847280070BDC04687
:102D5000F0B5DE46454657464E46E0B5A3B005F011
:102D60007DF8192000F090FFD02380221B069204EA
:102D70005A625A61FEF78CFDFA20C00001F0A6FEEF
:102D800016ADD34805F05EF8FEF718F92A00D14BCE
:102D9000149503CB03C208231593002314AC200021
:102DA0002374FEF77FF81498A84203D0A368591C37
:102DB00008F0C2FCFFF71CFDFFF770FD0023C64FB3
:102DC00009AD290038000993FFF7B8FE8368061D96
:102DD000002B09D01A009B68002BFBD1964203D030
:102DE0001369002B00D191E129003800FFF7A6FEFE
:102DF0000430864200D026E2202009F0F5FA0023B4
:102E0000049303330393023B029301330193713321
:102E100000930022B149633B060008F033FB002316
:102E200010200E960F9309F0DFFA012343608360B0
:102E3000AB4BC66003600F9029003800FFF77EFEA1
:102E40008368021D07009146002B00D199E11E0006
:102E50009B68002BFBD1B14502D03369002B14D005
:102E60001C2009F0C1FA002380460361436183619D
:102E70004E4500D15FE13369002B00D048E1404668
:102E8000B0461C2108F058FC46460E9BB76973619A
:102E90000F9B9846BB4218D0002B03D042465B687C
:102EA00001335360002F0ED07B68013B7B60002B09
:102EB00009D13B6838009B689847BB68013BBB6001
:102EC000002B00D147E14346B3610F9B0E990F9A47
:102ED00014911592002B02D05A6801325A602100D9
:102EE0000BA808F01BF915A8FFF718FF0FA8FFF7AC
:102EF00015FFD02380221B0692049A61794B7A4FEA
:102F000099467A4B98462800FEF75CF80523EB5665
:102F100006269B460723EB56AE579A463B689A45D2
:102F200008D053465A463B60484600930BA93300ED
:102F300000F052FE43461B68B34206D04346524659
:102F4000310058461E60FEF74BFF694E306800287E
:102F500058D0684B18609A46674B1A68824207D06F
:102F60001860FFF733FA53460BA8197808F0FCF8FD
:102F70002000FEF7CBFB2378002B2CD0E2696168A0
:102F80005E4804F05FFF5E4915A80AF027F80028A4
:102F90003BD110AB9A460E93E369266A9B46002B01
:102FA00074D008960F2E62D8012E00D08AE0382106
:102FB0001B7802AA52181370524600230F960EA8CF
:102FC0009355FDF76FFF0E98504504D0109B591C88
:102FD000079308F0B1FB642001F078FDE0691DABB8
:102FE000984203D0636A591C08F0A6FB606817ABCF
:102FF000984288D0E368591C08F09EFB2800FDF732
:10300000E1FF83E7FFF782FCA3E73E4915A809F03B
:10301000E5FF002809D1E06910F042FF00283ADB03
:10302000FF2800DDFF203060D5E7374915A809F0FB
:10303000D5FF0028CFD110AB9A460E93E369266ADC
:103040009B46002B39D008960F2E27D8012E00D092
:1030500091E038211B7802AA5218137052460023BF
:103060000F960EA993550BA8FFF7B2FCABE7002211
:1030700008A90EA809F094FD089B0E901093320049
:10308000594604F033FC089E0E9A96E7002E00D0B5
:1030900098E0524691E7002030609CE7002208A9A2
:1030A0000EA809F07DFD089B0E9010933200594642
:1030B00004F01CFC089E0E9AD1E7002E00D07EE0A2
:1030C0005246CCE75246002E00D176E75046D6E76E
:1030D0000C63011014630110A42100200000205093
:1030E000C46401100C29002048140020441400205E
:1030F0009828002038140020182D0020206301108B
:10310000D0890110306301103463011016006BE6A2
:10311000F9688E4224D001224E469446BB6803E0F3
:10312000624698681E000300002B37D01A69002AF7
:10313000F6D1D868F6E7BE689E423ED0012104E091
:103140000A00B368002B1ED01E003369002BF7D194
:103150000022F368F6E73B683800DB689847B2E680
:1031600001204B463200414609F02AFB7B69464666
:1031700001337B6189E65246002E00D16FE750464D
:1031800094E716006CE6002A00D178E6FB68B342AB
:103190000CD0300009F0F8FA060070E6002A00D1E1
:1031A0006DE6B142F5D1002E00D168E6B145D7D029
:1031B0003069431E9841C0B2D3E74E46E6E72E4839
:1031C00009F0D0FB2C4809F0CDFB0E98504503D0F8
:1031D0001099013108F0B0FAE0691DAB984203D0B4
:1031E000636A591C08F0A8FA606817AB984209D1C5
:1031F0000BA807F09FFF08F047FB0FA8FFF78EFD15
:1032000008F042FBE168013108F096FAF0E7149803
:10321000A842F0D0A168013108F08EFAEBE708F07F
:1032200021FC3000FFF746FA09F0A6F808F054FC3C
:1032300008F02AFB2021300008F07EFA08F024FB79
:10324000C3E7C9E7D4E7042008F0E0FA040004204B
:1032500009F0CAF8094B20600360002220000849E9
:1032600009F070F815A8FFF759FDC6E7200008F02F
:10327000E3FA08F009FBC0468C610110B06401104C
:103280001C640110F0B5C64600B5C8B0012825D0B1
:103290001F4800F09BFA1F4A1368013B1360002B84
:1032A00014D11D4C1D4D206800280BD0A368191A9D
:1032B00008F042FA23000C3BA54207D01C0020680E
:1032C0000028F3D123000C3BA542F7D1144B98689A
:1032D000FFF756FA48B080BCB846F0BD0022104B4C
:1032E0003AAC191D1A719A605A61D9601961094B7B
:1032F0001A68561C1E60012E16D02000FDF7DAFB5E
:10330000034B084A20001A60FDF708F8E2E7C046C0
:103310000C290020F41F00208021002030200020F4
:10332000A4210020B0680110002200233A923B93B0
:10333000012200233C923D93F14B01322100180001
:10334000984638943992FFF7C3F9EE4D23002A00CE
:1033500083CA83C383CA83C303222100EA48369405
:103360003792FFF7B5F92B002200183383CB83C2C5
:1033700083CB83C203222100E44834943592FFF7C3
:10338000A7F92B002200303383CB83C283CB83C2C7
:1033900003CB03C204222100DD4832943392FFF7AD
:1033A00097F92B002200503383CB83C283CB83C297
:1033B00003CB03C204222100D64830943192FFF798
:1033C00087F9220070350BCD0BC20BCD0BC20ACD95
:1033D0000AC204222100D0482E942F92FFF778F9D8
:1033E000CE4D382229002000103104F07FFA072248
:1033F0002100CB482C942D92FFF76AF9290038223E
:103400004831200004F072FA07222100C5482A94AE
:103410002B92FFF75DF9C44D23002A0083CA83C3B2
:1034200083CA83C303222100C04828942992FFF74E
:103430004FF92B002200183383CB83C283CB83C286
:1034400003CB03C204222100B94826942792FFF738
:103450003FF92B002200383383CB83C283CB83C256
:1034600003CB03C204222100B24824942592FFF723
:103470002FF92B002200583383CB83C283CB83C226
:1034800003CB03C204222100AB4822942392FFF70E
:103490001FF9012300225B423A923B932100013243
:1034A000A64820942192FFF713F901230C225B42D6
:1034B0003A923B9321000B3AA1481E941F92FFF7CA
:1034C00007F9012365225B423A923B932100643A5B
:1034D0009C481C941D92FFF7FBF8012371225B426C
:1034E0003A923B932100703A97481A941B92FFF747
:1034F000EFF8220078350BCD0BC20BCD0BC20ACDF5
:103500000AC204222100914818941992FFF7E0F8AA
:103510008F4D22002B00183383CB83C283CB83C211
:1035200003CB03C2042221008A4816941792FFF7A6
:10353000CFF82B002200383383CB83C283CB83C2E6
:1035400003CB03C204222100834814941592FFF791
:10355000BFF82B002200583383CB83C283CB83C2B6
:1035600003CB03C2042221007C4812941392FFF77C
:10357000AFF8220078350BCD0BC20BCD0BC20ACDB4
:103580000AC204222100764810941192FFF7A0F895
:10359000744D22002B00183383CB83C283CB83C2AC
:1035A00083CB83C21B682100136005226E480E94F2
:1035B0000F92FFF78DF82B002200403383CB83C29C
:1035C00083CB83C283CB83C283CB83C206222100F9
:1035D00066480C940D92FFF77BF8220070350BCDF6
:1035E0000BC20BCD0BC20ACD0AC2042221006048D7
:1035F0000A940B92FFF76CF85E4D22002B001033FB
:1036000083CB83C283CB83C203CB03C204222100BA
:10361000594808940992FFF75BF82B0022003033D9
:1036200083CB83C283CB83C203CB03C2042221009A
:10363000524806940792FFF74BF82B0022005033B4
:1036400083CB83C283CB83C2032221004C480494E2
:103650000592FFF73DF8220068350BCD0BC20BCD6C
:103660000BC20BCD0BC22B6821001360052245480D
:1036700002940392FFF72CF82200434B103323CB24
:1036800023C223CB23C2032221004048009401928D
:10369000FFF71EF831E61C261C24A61B103C7443C1
:1036A0004444444500D081E008F0EEF80026F3E7FA
:1036B0000226F1E70326EFE7EEE70426ECE708260B
:1036C000EAE70926E8E70A26E6E70B26E4E7062606
:1036D000E2E70726E0E70526DEE70C26DCE70D2615
:1036E000DAE71426D8E71526D6E71626D4E71726F4
:1036F000D2E71826D0E71926CEE71A26CCE7C0462F
:1037000030200020D86401103C20002048200020F8
:1037100054200020602000206C20002058650110FB
:103720007820002084200020D865011090200020FF
:103730009C200020A8200020B4200020C0200020D1
:10374000CC200020D8200020E4200020F020002001
:1037500058660110FC2000200821002014210020C0
:1037600020210020D86601102C21002038210020C3
:103770004421002058670110502100205C210020C6
:103780006821002074210020D867011080210020CA
:103790001B2681E710267FE711267DE712267BE7AF
:1037A000132679E70E2677E70F2675E70C3C20688D
:1037B000A368191A002800D173E707F0BDFF70E76E
:1037C00010B50120FFF75EFD10BDC0467047C04632
:1037D00010B50400042107F0AFFF200010BDC04663
:1037E000014B083303607047A868011030B5100022
:1037F0000D0083B0032948D03C2103F0F9FB8C0075
:10380000A9006D1828012D186519EDB22B2128008B
:1038100003F016FCFF21C2B28006801A80008018D7
:10382000800080188000801840194300C3185B0096
:10383000DBB21802C01A0012081ACB1A0402201AAE
:103840001C02E31A1B12CB1A1902C91A0012091220
:10385000C0B2C9B2042A03D8154C9300E3589F465E
:1038600002000021FF2001AB9A70002218705970ED
:10387000DA70597818789A780902DB7812040843CC
:103880001B061043184303B030BD0A4B019301AB34
:10389000EFE70022FF21E6E70100FF220020E2E738
:1038A0000800FF220021DEE70A000020FF21DAE7FE
:1038B000006801108080808010B54C6888B00A2CA8
:1038C0001ADC0A68092A17DC93009B185800801834
:1038D000D3070FD5001B0A30C343DB0F0A2800DDD6
:1038E0000133622800DD01336D2800DD0133C0188B
:1038F00008B010BD0019EFE71C23002201A904AC99
:1039000002A80193029409F04BF9019B1C220F4974
:103910000493029003F0EAFF0022019B02990393B3
:1039200002A8CA54FEF716FE0298A04203D00499DA
:10393000013107F001FF0020DAE70298A04203D02E
:103940000499013107F0F8FE07F09EFF146801109A
:10395000F0B54E4645465746DE46E0B598461668F1
:10396000536881468A46150089B09E4263D03C2147
:10397000129803F03DFB43469B00434418011B187B
:103980008C00E418E4B22B21200003F059FBC7B2ED
:10399000BC46FF218006C01B80006044800060445C
:1039A0008000604400194300C3185B00DBB21A02B8
:1039B000D21A12128A1A1002821A1212CB1AD2B218
:1039C00002921A02D31ABA00934600241B12C91A93
:1039D0000B02591A0912CBB203932F4B01979B4448
:1039E000E300F618736837685A1C3BD006A94846AE
:1039F00007930697FFF760FF4346411C032B42D015
:103A0000019B042B44D85B461B689F460020FF2285
:103A1000029B0026120200041A4302433606324378
:103A20005046059207F0A6FB2E686B6801349B1B7D
:103A3000DB10A342D4D809B0F0BCBB46B246A946BD
:103A4000A046F0BDFF230198039AE2E7FF20002281
:103A5000039BDEE7FF200023029ADAE7FF22002320
:103A60000398D6E7129A41464846FFF7BFFE7321F6
:103A700006000490380003F0BBFA320050460131D2
:103A800007F078FBD0E78026802080228023C1E7E2
:103A90000022FF230298BCE734680110F0B5D64637
:103AA00046464F464B4BC0B59A468AB002AD2B00F6
:103AB00052460F00060013CA13C313CA13C303CA26
:103AC00003C3202008F090FC20222900804603F048
:103AD0000DFF002300220292039300232020AB60FD
:103AE00008F082FC2023994681444B46202241461F
:103AF0000290AB6003F0FAFE4B466B60129B2A000B
:103B00000093390000233000FFF722FF02980028BD
:103B100003D0AB68191A07F00FFE54462A00203470
:103B20000BCC0BC20BCC0BC220200ACC0AC208F073
:103B30005BFC20222900040003F0D8FE00230022B1
:103B40000292039300232020AB6008F04DFC202359
:103B5000994681444B46202221000290AB6003F03D
:103B6000C5FE4B466B60129B2A000093390001236F
:103B70003000FFF7EDFE0298002803D0A968091A6B
:103B800007F0DAFD2000202107F0D6FD2021404675
:103B900007F0D2FD0AB0E0BCBA46B146A846F0BD77
:103BA0002021404607F0C8FD07F06EFE0298A96884
:103BB000091A002801D007F0BFFD2021200007F0DE
:103BC000BBFDEDE7F9E70298A968091A0028F6D1CC
:103BD000E6E7C04648680110F0B5C64605000C008F
:103BE00016001F0000B5080082B007F08BFB089A92
:103BF0002B6800921B683200984621003B00280089
:103C0000C047200007F090FB02B080BCB846F0BD72
:103C10000022044B191D1A719A60D96019615A610A
:103C20007047C046BC210020094A830094464022C8
:103C3000634410B51C68C0006240C0241440802258
:103C4000520113431C60034B9C466044416010BD0D
:103C500004C00140004001400A4B80009C46042300
:103C60006044002901D00C230821002A00D10B0058
:103C7000026853400C221A4080235B011843026003
:103C80007047C04604C001400123D0228340120681
:103C900093629361094A8300944640226344196801
:103CA000C0004A40C02111408022520113431960D4
:103CB000034B9C46052360444360704704C00140A9
:103CC00000400140EFF3108072B6034A1368002BE6
:103CD000FCD0BFF35F8F70472C0100D0BFF35F8F24
:103CE0000022024B1A6080F3108870472C0100D02C
:103CF00070B5EFF3108C72B60D4D2B68002BFCD015
:103D0000BFF35F8F0724CB08C618C05C01230C40AB
:103D1000A3401C000440034207D103433370BFF3A8
:103D20005F8F2C608CF3108870BD100001F0EAFBEF
:103D30002C0100D0F8B54746CE46884680B5EFF353
:103D4000108C72B6214D2C68002CFCD0BFF35F8F15
:103D50009A422CD8D4080727055D0619012417407C
:103D6000BC402C421FD007210127894609E0D40816
:103D7000055D06194C4639001440A1400C0029424B
:103D800011D001329342F2D201204042BFF35F8F43
:103D900000220E4B1A608CF3108800280FDBC0BC89
:103DA000B946B046F8BD2C4310003470EEE7BFF3BF
:103DB0005F8F00232B608CF3108801204042434624
:103DC000002BECD0089801F09DFBC0462C0100D0E0
:103DD000024B18688007C00F7047C04600C00640FD
:103DE0000021044B044ABFF35F8F02C39342FAD110
:103DF0007047C046000100D0800100D0044A10780E
:103E0000431CDBB2172B00D9102313707047C04638
:103E10004C14002000B5054B83B00100009318221C
:103E20001F230348FFF786FF03B000BDBC680110E5
:103E30006C28002001238340002904D0034A13602A
:103E4000034A13607047034A1360FBE780E200E017
:103E500000E100E080E100E001238340014A1360BB
:103E60007047C04600E200E0084B10309B688000BD
:103E7000C358002B07D0064A00209B1A2F229A42D3
:103E80004041C0B270470020FCE7C04600ED00E0B2
:103E900050140020024B10309B688000C0587047BF
:103EA00000ED00E070B50D00EFF3108672B60F4A1A
:103EB0001368002BFCD0BFF35F8F0D4B10309B6855
:103EC00084001B590B4A934203D09D4201D001F05C
:103ED00031FB074B9B681D51BFF35F8FBFF35F8FB3
:103EE0000022024B1A6086F3108870BD240100D0B6
:103EF00000ED00E0CD010010F0B557464E46DE461D
:103F00004546E0B585B0060002911700EFF3108B2F
:103F100072B6674A1368002BFCD0BFF35F8F002591
:103F2000644B5D579A46002D00DAA5E06B00624CA9
:103F300003935B199B009846A146C1444B465246E9
:103F40009B79103613705D4BB2009B6801929958B3
:103F50000B1B2F2B34D95A4B994200D0A5E0039B61
:103F6000584A9C46584B6544AD0063534346023360
:103F70006519E418554B0121043B1B1B1B055B0D08
:103F800013436B80524BEF71AB80FF23AB71029BED
:103F9000AB604B460B431900484B019A9B68995004
:103FA000BFF35F8FBFF35F8F0022414B1A608BF32B
:103FB000108805B0F0BCBB46B246A946A046F0BD8D
:103FC00001200A008243D379BB422FD845464E4692
:103FD000130040491B1B5B415943090D3A4B635386
:103FE0003A4B02356519043B5B1B1B05354D5B0DD8
:103FF0002B4373800426B446E0444444131F1B1B28
:104000004C46A17102991B05A16049465B0D2B43EB
:10401000A380314BE77101431360BDE75800C0181E
:1040200080002018C679BE422CD902000623D35640
:10403000002BF3DA101D8246BD20000280460426C4
:104040007642B446E14450464E46361A3005400D9D
:10405000824656461B48957106439680039A9446BD
:1040600065441D4AAD00641922604246A371029B5B
:10407000A280E771A3608FE701F05CFA0025534648
:104080005D5753E7101D8246908840050015844611
:104090004046D444664604302018301AE026000515
:1040A000400D360230438046C9E701F043FA56E737
:1040B000240100D0FB2E00205014002000ED00E071
:1040C000CD01001000E0FFFF00A1FFFF80140020E1
:1040D00000BDFFFFAAAA000001488047F0B5DE46F8
:1040E00057464E464546E0B50C0083B0EFF3108AC4
:1040F00072B65A4A1368002BFCD0BFF35F8F1022B0
:10410000914681444A46564B96009B689D59554BB3
:1041100098469D4205D0A54216D0534FEB1B2F2B3E
:1041200014D94F4B9B689D51BFF35F8FBFF35F8FD7
:1041300000224A4B1A608AF3108803B0F0BCBB46D9
:10414000B246A946A046F0BD1D00EAE70123834020
:104150009B465A46454B1B681A4000925A46444BB0
:104160001A60BFF35F8FFCF77EF80190002803D040
:10417000814501D001F0DEF901232A009A439368BA
:104180009C4208D15FE04B005B189B00FB189968CC
:10419000A14211D01A00062151560029F3DA009BE2
:1041A000002B05D05A46334B1A60304B1A60B8E7E3
:1041B0005A462F4B1A60B4E706215956002921DBD5
:1041C0004A00501880003C188046A0689860E0794A
:1041D000D871062020569871002824DBA488F81A8C
:1041E0006405241544440019E0240005400D240210
:1041F000204398805218204B9200BF181A781970EB
:10420000BA71CCE70199002910D1FF3191711B4996
:10421000918019490A789A71194ADB1B5B415A430C
:10422000120D0A70BBE7BD200002E2E7154A1649ED
:10423000D21A083A5002400D01439980134952089E
:104240000A43DA80ABE70621515613000029B7DA9A
:10425000019A002AEAD14546DBE7C046240100D096
:1042600000ED00E0CD0100105014002000E100E05E
:1042700080E100E080E200E0FB2E002000BDFFFFB7
:10428000AAAA00008A14002000F0FFFF00F8FFFF38
:10429000F8B5012504000543FBF7E5FFEFF3108CAB
:1042A00072B6214A1368002BFCD0BFF35F8F1F4EFC
:1042B0002100B7681E4A1F4B891A49414B431B0D09
:1042C00059B28300F858A8421CD00623D3568B421B
:1042D0001CD01223D3568B4222D01E23D3568B429E
:1042E00020D02A23D35603208B4210D0124B1A78A9
:1042F0001970A271BFF35F8F00220B4B1A608CF311
:104300001088F8BDB2680D48D050EFE70020430098
:104310001B189B00D218FF239371094B9380E5E78C
:104320000120F4E70220F2E7240100D000ED00E0D4
:1043300050140020AAAA0000FB2E0020CD0100107E
:1043400000BDFFFF054B064A1360064A1360536029
:104350009360D36013615361936170478080808064
:1043600000E400E004E400E0D02300B51B061B6875
:104370000100074883B0C018064B002200930523B4
:10438000FFF7D8FC002801DB1F23181A03B000BD7B
:10439000F42E0020D8680110024B9C46614489002D
:1043A000016070474000003483680B4810B58446B4
:1043B00061446244090112019A18591854684B6803
:1043C00001209C4201D802D00020C0B210BD12686A
:1043D0000B689A42F9D8F7E7FFFFFF0F0A4B1968FD
:1043E000EFF3108072B60A68002AFCD0BFF35F8F2B
:1043F0001B68BFF35F8F00221A6080F3108840BFF4
:10440000002000217047C046C02E0020F8B5574656
:104410004E464546DE46E0B599460CAB1C780DABE2
:104420001B78060090469A460768002C11D1BC7B89
:10443000002C42D065003B682D19033D59194B787B
:10444000BB73002B00D1FB7300238B704B700B7080
:1044500004E065003B682D19033D5919B2682A4BE9
:1044600094464246E3181B0163441A604A465A6068
:104470000A9A9A600B9ADA6000238B704B700B706B
:104480007B7B9B46002B2BD022005946B8687B686B
:1044900098473A68002816D05B4658465B005B4454
:1044A0005519033BA870D118D35C002B00D06B705A
:1044B0005B460C707B73A34513D0F0BCBB46B24681
:1044C000A946A046F8BD5B465B005B44033BD3189E
:1044D0009C705119525D002A00D05A705B460B70D7
:1044E0007C7342464B46307D00F068FC051E06D0CA
:1044F0005346002B03D12100306800F081FE0E9B53
:10450000002BDAD01D70D8E7FFFFFF0FF0B5DE46B5
:104510004E46574645460023E0B58DB00A936B4B97
:104520008200D3580B90994600239B464B46079335
:1045300000F0BAFB079C06000F006268EFF31085DD
:1045400072B61368002BFCD022000794BFF35F8F74
:104550002468637B9946002B67D092685C4B904639
:104560004B441B01984443461A685B6810001900CD
:10457000801BB94100295FDD0B9800F01FFC002370
:104580000026984600279A46079C6368BFF35F8F12
:104590005A461A6085F310885346002B08D100282C
:1045A000C6D10DB0F0BCBB46B246A946A046F0BD90
:1045B0000A9B414618024B461843D0470890099180
:1045C0006268EFF3108572B61368002BFCD0079475
:1045D000BFF35F8F0899099A002A48DB114303D083
:1045E000079B1B69002B5DD1079B1B68D97B0029AA
:1045F00007D04A00521819688C4649466244033A6B
:1046000051704A46DA734B46079A013BD168CA5C3F
:104610000132CA545B46079A13615368BFF35F8F38
:104620005A461A6085F3108882E7002300269846D0
:1046300000279A460020A7E7002901D100289BD136
:104640000021200000F05EFD43461E685F689B6805
:10465000079A9A464346DB689846D3684B44013B29
:104660001B780A931B020343136100208CE7236924
:10467000002BB9D033003C005B1A94411A00230090
:10468000A74219D89F421BD059460491012103919A
:104690004946029141460191514607980091FFF722
:1046A000B5FEB7E700F000FB089A099B06000F0073
:1046B00092197B419942E5D901225242D317E3E78F
:1046C0009642E1D901225242D317DDE7282D00207E
:1046D000FFFFFF0FF8B557464E464546DE46E0B5AC
:1046E000404D81468A466A68EFF3108872B61368B7
:1046F000002BFCD0BFF35F8F2E68B47B002C39D029
:10470000670033683F19033FDB195A78B273002AF8
:1047100000D1F273A968344A8C464946A2181201A6
:104720006244116051465160304991600021D1606E
:10473000997059701970737B9B46002B35D02200FD
:104740001900B068736898473268002820D05B462B
:1047500058465B005B44D719033BB870D118D35C53
:10476000002B00D07B705B460C7073735C451DD0D2
:10477000002626E06B68BFF35F8F1C6088F310880B
:1047800001204042F0BCBB46B246A946A046F8BD57
:104790005B465B005B44033BD3189C70D119D25D30
:1047A000002A00D05A705B460B7074734A46534619
:1047B000287D00F003FB061EDAD02100286800F0F7
:1047C0001FFDEB681B19013B19786B68BFF35F8F06
:1047D00000221A6088F310880020002ED2D108022F
:1047E0002043CFE798140020FFFFFF0FDD430010A8
:1047F00010B5124C6368002B04D00A211048FFF753
:10480000CBFD10BD23000F4A1021206800F098FB5B
:10481000032000F03DFA032000F040FB03200A498A
:1048200000F086FAFFF7EAFA084B9C46032360443F
:104830002375074B80006060DC60DEE79814002081
:10484000C02E0020A94300100D4500104000003488
:10485000282D00200048704798140020F0B55746D6
:104860004E464546DE46E0B585B0019310AB1B7859
:104870000600039300239A46984600927268EFF36D
:10488000108972B61368002BFCD0BFF35F8F3568B8
:10489000AC7B002C49D067002B683F19033FDB1924
:1048A0005A78AA73002A00D1EA73B1684F4A8C463D
:1048B00000980199A21812016244106051600E998B
:1048C00091600F99D16042469A705A701A706B7B52
:1048D0009B46002B45D022001900A8686B689847BA
:1048E0002A68002830D05B4658465B005B44D719E5
:1048F000033BB870D118D35C002B00D07B705B46B3
:104900000C706B735C452DD0F3681B19013B187854
:104910007368BFF35F8F42461A6089F3108853466D
:10492000002B2CD10002204307E07368BFF35F8F98
:104930001C6089F310880120404205B0F0BCBB46E2
:10494000B246A946A046F0BD5B465B005B44033B14
:10495000D3189C70D119D25D002A00D05A705B46E2
:104960000B706C73307D009A019B00F027FA824631
:104970000028C9D02100306800F042FCC4E7039B46
:10498000002B30D00E9B00200F99984703000400A5
:104990000D000B4327D000290DDA00980199020081
:1049A0000B00121BAB41994213D818D0009201930F
:1049B000039B9A4662E700F077F902000B00A41807
:1049C0005D4100940195A94203D8F1D100998A4232
:1049D000EED901235B42DC1700930194E8E70099CC
:1049E0009142E3D9F5E70020A7E7C046FFFFFF0F9C
:1049F000F0B504000D0006267642F717C6463619B4
:104A00006F4100B58F4213D810D000F04DF932003D
:104A10003B00121A8B41002B14DC002B37D02900ED
:104A2000200000F075F980BCB846F0BD8642ECD994
:104A30000026002700F038F932003B00121A8B41A3
:104A4000002BEADD30003900FFF744FE0028E6DBEA
:104A500000239846BC460F4A0F4F7B6A9C4504D8FA
:104A6000B96A8E42DBD99C45D9D11168EFF3108029
:104A700072B60B68002BFCD0BFF35F8F1368BFF3D7
:104A80005F8F4146196080F3108820BFE5E7002A58
:104A9000C5D0D7E7C02E00200040054070B5040007
:104AA0000D0000F001F902000B0020002900801821
:104AB00059418B4205D802D0FFF79AFF70BD824260
:104AC000FAD901204042C117F6E7C04670B506008A
:104AD00000F0EAF8FA2204000D0000233000002163
:104AE000920002F02DFE001969418D4205D802D0D6
:104AF000FFF77EFF70BD8442FAD901204042C11702
:104B0000F6E7C046F8B5CE46474680B506000C002D
:104B1000FFF7E0FD00280CDC2D4B0020596A8C4289
:104B200003D89B6A0130B34245D3C0BCB946B046F6
:104B3000F8BD20BF274D6A68EFF3108772B613687F
:104B4000002BFCD0BFF35F8F2B68C1B29C465B7B10
:104B50008B4235D0FF2303405A00914662461268CB
:104B6000994490464A464244033A9278002A1DD01E
:104B7000EA68000A90464344013B1B78C0B2834276
:104B800021D06B68BFF35F8F00221A6087F3108813
:104B90000F4A0020536A9C42C7D8926A0130B24241
:104BA000C3D2E01A421E9041C0B2BEE72B699842C0
:104BB000E7D12A61E5E7601A431E9841C0B2B4E725
:104BC000FF230340D4E7604600F01AFBD9E7C04654
:104BD0000040054098140020F0B5D6464F464646A2
:104BE000C0B5EFF305833F22134018001038EFF3F0
:104BF000108C72B6204D2A68002AFCD0BFF35F8F5C
:104C00000122110081401D4C884661631C49170038
:104C10000E788A463100C1400F400A4209D1BFF3E5
:104C20005F8F2F608CF31088E0BCBA46B146A8466F
:104C3000F0BD14498200646A51588C420FD3124B64
:104C4000D25843469E4353461E70BFF35F8F0023E6
:104C50002B608CF31088002AE6D09047E4E70B4ADB
:104C60009B00904643441A681A60BFF35F8F00238D
:104C70002B608CF31088D7E7280100D00040054056
:104C8000FE2E0020CC2E002058270020D03F0540CB
:104C900010B50100024A0348FFF72AF810BDC046CC
:104CA00000690110FA2E0020034B596A0A00986A25
:104CB000596A8A42FAD170470040054070B5040035
:104CC0000D00124A536A1900966A536A8B42FAD150
:104CD0003000190024184D41AB4211D80ED02B00E2
:104CE0000A494A6A9A42FCD307D1084A02E0516A4B
:104CF000994202D1916AA142F9D370BDA642EED980
:104D0000012301246442E5175B42E9E700400540C6
:104D1000064A536A9942FCD807D1044B02E05A6A0A
:104D2000914202D19A6A8242F9D37047004005400D
:104D300070B504000D00EFF3108672B61A4A1368BE
:104D4000002BFCD0BFF35F8F002D1BD02000FFF79E
:104D5000A1F8164981420AD02000FFF7A3F80121EB
:104D60002000FFF767F80123A340114A1360114B9D
:104D7000A400E550BFF35F8F00220B4B1A6086F34F
:104D8000108870BD0B4BA200D5500122A2400A49E9
:104D900020000B7893430B700449FFF79FF9002123
:104DA0002000FFF747F8E5E7280100D0D94B0010B5
:104DB0003860054058270020FE2E0020F0B54F46F1
:104DC000D6464646C0B507002F4C616A0D00A66A5C
:104DD000616AA942FAD18B4208D805D00120E0BC13
:104DE000BA46B146A846F0BDB242F7D9EFF3108AF1
:104DF00072B6264801680029FCD0BFF35F8F0125F9
:104E0000BD402349204C8846097889462943C9B2C8
:104E10008C46414660460870391D1E48890065630E
:104E20000A51B9000B50216A0020294219D0616A49
:104E30000800A66A616A8142FAD18B4219D801D171
:104E4000B24216D8CC451DD00F4B1F201D625D63AA
:104E500001230740BB40104A1E38136043464A46B0
:104E60001A70BFF35F8F0022084B1A608AF3108814
:104E7000B5E70020BFF35F8F0022044B1A608AF36E
:104E80001088ACE70120ECE700400540280100D085
:104E9000FE2E0020CC2E002080E200E0EFF3108CEC
:104EA00072B60A490B68002BFCD0BFF35F8F012359
:104EB0008340074A0748136202789A430270BFF39F
:104EC0005F8F00230B608CF310887047280100D09F
:104ED00000400540FE2E002070B5050014001600AD
:104EE000002915D00C00002A12D080686B68984702
:104EF000296800280ED073009B196200033B121929
:104F0000CB18033A9C7088188A5C002A15D1067069
:104F1000200070BD63001B197200033B9219CB186F
:104F2000033A9E7088188A5C002A02D1047034000B
:104F3000EEE75A7004703400EAE75A700670E7E74B
:104F400030B583600023CCB24373013304734260F5
:104F50008373C4730D000068012C06D9421C013311
:104F6000DBB2137003329C42F9D1FF2129404B0080
:104F70005918002340180338437030BDF8B5CE46A9
:104F8000474606000C0080B5002907D04D00036895
:104F90006D18033D5A195778002F04D12000C0BC6A
:104FA000B946B046F8BD7900C9190339884643446B
:104FB0005978894600215970517073683A00210070
:104FC000806898473368002814D042469A18947035
:104FD00059195B5D002B00D053700F7027004946B4
:104FE0003000FFF7CBFF390002003000FFF774FFFD
:104FF0000400D3E7424641465D19AF709A185B5CE6
:10500000002B00D06B701470E9E7C046F0B557462E
:105010004546DE464E46E0B50D006B0001685B1963
:10502000DF1E0400C85D83B00192CA1900284CD06D
:1050300043001B18033BCB185E78B446002E16D1F4
:10504000019E002E3ED0E67B002E04D073009B19FB
:10505000CB18033B5D70E57300282FD100235370FC
:1050600003B0F0BCBB46B246A946A046F0BD7200F4
:105070006244033A89184A78904600224A70914661
:105080005A70010032002000FFF726FF4346824697
:10509000002B07D05B0021684344033BCB185A78B0
:1050A000002A16D1424651462000FFF715FF21681D
:1050B000019BCA19002BC6D10028CFD043001B1872
:1050C000033BCB1800219970C8E7019B002BBAD194
:1050D000C4E75000801803380918487883464846CA
:1050E0004870587041462000FFF7F6FE594680464A
:1050F0002000FFF743FF414602002000FFF7ECFECF
:105100008046CFE7F0B557464546DE464E46E0B509
:1051100083B00191457B04006B0000685B19DF1EC2
:10512000C15DC21900294ED04B005B18033BC31868
:105130005E78B446002E18D1019E002E40D0E67B4A
:10514000002E04D073009B19C318033B5D70E573F8
:10515000002931D1002328005370617303B0F0BCE3
:10516000BB46B246A946A046F0BD72006244033A6F
:105170008018427890460022427091465A70200072
:105180003200FFF7A9FE43468246002B07D05B00A2
:1051900021684344033BCB185A78002A17D1424672
:1051A00051462000FFF798FE019B01002068C219BC
:1051B000002BC4D10029CDD04B005B18033BC31892
:1051C00000209870C6E7019B002BB8D1C2E75000C1
:1051D0008018033809184878834648464870587044
:1051E00041462000FFF778FE594680462000FFF731
:1051F000C5FE414602002000FFF76EFE8046CEE766
:1052000070B5040000292CD0437B8B422ED005685A
:1052100048004018033828188278002A21D053000B
:105220009B18033BEA5CEE188A4202D11BE0002A7D
:1052300008D053009B18033BEB185A788A42F6D1EA
:1052400042785A7000230122837043702000FFF7D8
:10525000DDFE617B02002000FFF73EFE607301204F
:1052600000E0002070BD43783370EBE701221900A5
:10527000FFF7CCFE60730120F4E7C04610B50400D0
:10528000FEF7BCFD01002000FFF786F8FF23237125
:10529000BFF35F8F10BDC04610B50400FEF7AEFD32
:1052A00001002000FFF778F8FF23A380BFF35F8F92
:1052B00010BDC04610B504000120FEF7ABFD044B45
:1052C0009C46604480002060BFF35F8F10BDC046E5
:1052D00040000034F8B5040006200D0000F08EFAFE
:1052E000002844D02A4B2B49E21853425A418023CC
:1052F000DB039C469205284B62441A60274B1A60D8
:1053000010008B689843FBD1214B8021E3185A424F
:105310005341234A5B0049009952062000F06EFA7F
:105320002900C00001F08CFEC30921D140270121D2
:10533000260080256162A36200232C36AD0135432F
:105340002B60062000F05AFA3900800001F078FE48
:105350006023E26A53406E221A4080235B0133438C
:105360001A60104B236310232B600D3BA364F8BD20
:105370000D4A934203D900230C4F0D49D8E77F22F1
:105380001040013040089F0119003F180300CFE78B
:105390000080FCBF00C0004000E0004000F0004082
:1053A000DC2E002001030000FEFF0000C0FF3F00D4
:1053B000FFFF0000074A30B51024956A03E0936AA6
:1053C0005B1B8B4204D883691C42F8D1012030BD9D
:1053D0000020FCE7004005402C4B2D4A70B51A60B8
:1053E0002C4A2D4B2D491A6014008B689C43FBD12D
:1053F0002B4D2C4EB54208D2013E761BB60808CD87
:10540000984723000134B342F9D100F099F8264AB5
:10541000214B1A60214A9368DB43DB01DD09002B35
:10542000F9D14022214B224C224E9A675A671A67C3
:10543000DA66B44208D223682000002B20D008345A
:10544000FFF72AFFB442F6D31B4E1C4CC022A168C2
:10545000300002F04BFAA660FEF7C2FCFEF772FFC6
:10546000FFF7C6F9164C174EB44208D2013E361B60
:10547000B60808CC98472B0001359E42F9D170BD83
:105480000834FFF7FBFEB442D5D3DDE700E000406F
:10549000BFCDFBFEFE7F3C0000F0004000C000409E
:1054A000801D0020901D0020FFFFFF0100F0014043
:1054B000781D0020801D00200000002000ED00E08D
:1054C000901D0020D01D002000BEFDE7094A03000A
:1054D0001068002805D00849C3188B4207D813600C
:1054E000704706480449C31810608B42F7D9012061
:1054F0004042F5E71429002000000420002F00207E
:1055000000BEFDE70FB400B5084883B002F056FBBB
:10551000049B002B07D005A91800019101F016FD8E
:10552000034802F04BFB00BEFDE7C04624690110B2
:105530007C71011010B50148FFF7E4FF34690110D8
:1055400030B50C2083B000F0B7F9FEF741FC00281D
:105550000ED0944B944A1A605A609A60DA601A61CD
:105560005A619A61DA611A62904A5A6203B030BD98
:105570008F4CA06700F0F4F901228E4B1A60636C27
:10558000012BFCD103228C4B1A60894A936B012BAF
:10559000FCD101330121894A89480093043300F08A
:1055A00033F90523874A00930121874800F02CF93D
:1055B000864B5A68FF2A02D8802252005A60802205
:1055C000784C7D4B21691201804D1A60002905D06D
:1055D000606901F035FD01300138FDD1E0217B4BE0
:1055E00002201A681140802252012A431160196872
:1055F000484003210140116004219A681142FCD007
:105600008022802192012A430901116080225200E8
:105610005A606F4B23616F4B5968FF2900D85A605D
:105620000321644A6B4B116002399A681142FCD025
:10563000E0201A681040802252011A431060186856
:105640004840032101400220116062498A681042EB
:10565000FCD0802292011343802212011A60802222
:105660005D4B52004A6063615C4B5968FF2900D86A
:105670005A6080225A4BE1691201584D1A60002984
:1056800005D0606901F0DCFC01300138FDD1E02279
:1056900052490B681A4080235B012B431A60802318
:1056A00080229B012B4312011A6080223E4B520044
:1056B0004A60E3614B4B5968FF2900D85A60802249
:1056C000494B216A1201474D1A60002905D06069D3
:1056D00001F0B6FC01300138FDD1E02241490B68F0
:1056E0001A4080235B012B431A60802380229B0198
:1056F0002B4312011A60802380225B004B602A4BEF
:10570000D2022362394B5968914200D25A608022FA
:10571000374B616A1201354D1A60002905D0606966
:1057200001F08EFC01300138FDD1E0222F490B68D9
:105730001A4080235B012B431A60802380229B0147
:105740002B4312011A608023DB024B60174B63620C
:10575000284B5A68FF2A02D8802252005A608022C1
:10576000254BA1691201234D1A60002905D06069FB
:1057700001F066FC01300138FDD1E0221D490B68C3
:105780001A4080235B012B431A60802380229B01F7
:105790002B4312011A6080235B004B600E4BA36108
:1057A000E4E6C04670280020006CDC021BB7000055
:1057B000008000403CB0004030B00040002F6859ED
:1057C00000800240008C864700C0024030800040CC
:1057D000001BB7003C8000404059730754800040D4
:1057E00054B000406080004060B000406C800040D9
:1057F0006CB000404880004048B00040014B800041
:10580000C058704770280020F0B5C646040000B5A7
:105810000C2090461F000E0001F012FC4101091AF5
:105820008D01691AC90009188901404601F008FC78
:10583000069B3F041A0323681743002B22DB1A4BF5
:105840001A4DE21853425A4180235B019C461203D1
:10585000174B62441A60174B1A601100AB689943EA
:10586000FBD1C022231D92011A4321232660A06090
:1058700013602368002BFCDA0823E760136080BC08
:10588000B846F0BD3F2322681340B342D7D1A36886
:105890001B051B0D8342D2D1EE22E368D2021340D6
:1058A000BB42CCD1EBE7C0460040FDBF00C000408A
:1058B00000E0004000F000408023024A9B000343C8
:1058C000D36270470080054010B5140080221B4B46
:1058D000D2051A6000281AD00123194A1843194B1F
:1058E000DA61194A42401A62596298628022134B67
:1058F000D2051A601549164A1160E022D2041A60D6
:10590000002C07D18022134B12061A6010BD0D4BDC
:10591000D861EBE763011B1B9A0080231219120167
:105920005B049A4200D30C4A0C4B1A60054B5A6038
:105930008022084BD2051A60E8E7C04600B0054057
:10594000D3C007B0008005402D3FF84FFCFF010099
:105950000820014000A00540FFFFFF00202D00208F
:10596000AA23064A1B0113602133FF33D360044985
:10597000044B19605368002BFCDA7047004002406A
:1059800000B0FA00006002409A4200D2885470478A
:105990007047C046F8B557464E464546DE46E0B528
:1059A00099460A9B07009A460D9B88469346150028
:1059B0000B9E9B0710D10C9B9E420DD29D1B140089
:1059C0000E005D4422004B46013431002020B847D0
:1059D000A542F7D1B0460B9E002E27D0444675193C
:1059E0005346AA1B013E985D21004B46B847002E46
:1059F000F6D123002C0098460D9B9B070FD55B46E4
:105A0000E51A0C9BAB420AD94646984622004B4603
:105A1000310020200135B8470134A845F6D82000D0
:105A2000F0BCBB46B246A946A046F8BD2C00E3E751
:105A3000F0B54F464646D646C0B584B098460EAB44
:105A40001B78129F994694460D9C109B119EBA0795
:105A500025D4002E4BD19C4200D3BFE001223A4016
:105A600092461F2C00D9B8E00C9A551E302201E056
:105A7000202C03D001342A55A342F9D85246002ADB
:105A80000DD0A6420BD9202C44D00C9A551E3022A2
:105A900001E0202C3ED001342A55B442F9D1FA0657
:105AA0004DD57A053FD4002C39D10F9B102B00D156
:105AB00079E00F9B022B00D18AE030230C9A01245D
:105AC00013704B46002B3FD02D230C9A13550134F5
:105AD0000C9B624600930397434602960194FFF79E
