:020000041000EA
:1000000000B50C4B00219960042159610A4919601F
:100010000A490B480160002159600121996001BC27
:10002000002800D0004707480749086003C880F34C
:10003000088808470000001800031F00180200038A
:10004000F40000180001001008ED00E000000000BE
:1000500000000000000000000000000000000000A0
:100060000000000000000000000000000000000090
:100070000000000000000000000000000000000080
:100080000000000000000000000000000000000070
:100090000000000000000000000000000000000060
:1000A0000000000000000000000000000000000050
:1000B0000000000000000000000000000000000040
:1000C0000000000000000000000000000000000030
:1000D0000000000000000000000000000000000020
:1000E0000000000000000000000000000000000010
:1000F0000000000000000000000000002CEC210DBA
:1001000000200420F7010010C3010010C5010010F9
:10011000C1010010C1010010C1010010C101001097
:10012000C1010010C1010010C1010010C701001081
:10013000C1010010C1010010C9010010CB01001065
:10014000CD010010CD010010CD010010CD01001037
:10015000CD010010CD010010CD010010CD01001027
:10016000CD010010CD010010CD010010CD01001017
:10017000CD010010CD010010CD010010CD01001007
:10018000CD010010CD010010CD010010CD010010F7
:10019000CD010010CD010010CD010010CD010010E7
:1001A000CD010010CD010010CD010010CD010010D7
:1001B000CD010010CD010010CD010010CD010010C7
:1001C00000BE00BE00BE00BE00BE00BE00F04BF888
:1001D000103800BEF2EB8871B8B90110DCB901101B
:1001E0003402001090A31AE700202149086006C8D5
:1001F00081F3088810471F48006800282FD10DA4FC
:100200000ECC002902D000F012F8F9E71A491B4A77
:10021000002000E001C19142FCD1194988471949E9
:1002200088471949884700BEFDE701C901C29A42C3
:10023000FBD37047DCB90110C0000020D41D0020A2
:10024000F0D601100000042000000420F0D60110B8
:1002500000100420001004200000000070470B482C
:1002600008F03AF90047EFF30580C0B2704700008C
:1002700008ED00E0000000D0D81D0020CC2D0020AB
:1002800025690010994700104D6A0010575600006C
:1002900006005250ABB360537085011006005250F7
:1002A000861C03028C850110060052505422A29D28
:1002B0009885011005005250DE65F468F0D60110F3
:1002C000F8B5C04610B5064C2378002B07D1054B76
:1002D000002B02D0044800E000BF0123237010BDB2
:1002E000E01F002000000000D0720110044B10B588
:1002F000002B03D00349044800E000BF10BDC046F6
:1003000000000000E41F0020D07201107047C046BA
:1003100010B503685B68984710BDC04610B504006F
:10032000034B0833036004F0DFFC200010BDC0461F
:100330005876011010B50400054B0833036004F033
:10034000D3FC200004210CF09DFC200010BDC04611
:10035000587601100023F0B5036043608360154BAD
:1003600004000E0083B0D5009D4216D8002D0ED09B
:1003700028000DF0DFFA47192060A760002D0AD091
:100380002A00310008F058FD676003B0F0BD002777
:1003900005608560F8E70700F6E707480DF0A0FD67
:1003A0002068A168091A002801D00CF06BFC0CF041
:1003B00011FDC046F8FFFF7FD0720110F0B5C646B0
:1003C000040000B5002825D01A4B1B4F9846260084
:1003D000E068FFF7F3FFB569A468002D14D06B68DF
:1003E000013B6B60002B0FD12B689B68BB4214D183
:1003F000AB68013BAB60002B06D12B68DA68424545
:100400000ED128005B6898471C2130000CF03AFCA4
:10041000002CDCD180BCB846F0BD28009847E7E747
:10042000280090471C2130000CF02CFC002CCED171
:10043000F0E7C046110300100D030010F0B5DE46D2
:1004400057464E464546E0B5834685B0002800D164
:1004500099E05B46DB680193002B00D186E0019BAD
:10046000DB689946002B72D04B46DB689A46002B1E
:1004700060D05346DC68002C42D0E668002E27D0BE
:10048000F3689846002B2FD04346DD68002D44D0FA
:10049000EF68002F10D0F868FFF7D0FF3B00DA6953
:1004A000BF68100002930392FFF788FF2C21029887
:1004B0000CF0E8FB002FEED1AF68E869FFF77EFF94
:1004C0002C2128000CF0DEFB002F26D03D00DFE7BA
:1004D000A568E069FFF772FF2C2120000CF0D2FB29
:1004E000002D0DD02C00C8E7B568F069FFF766FF56
:1004F0002C2130000CF0C6FB002DE9D02E00BFE708
:1005000053469C68D869FFF759FF2C2150460CF0E0
:10051000B9FB002C0ED0A246ABE743469D68D869D4
:10052000FFF74CFF2C2140460CF0ACFB002DDBD03C
:10053000A846A9E74B469C68D869FFF73FFF2C21E6
:1005400048460CF09FFB002C01D0A1468CE7019D92
:10055000EB69AC6818000193FFF730FF2C212800ED
:100560000CF090FB002C01D0019478E75B469C686E
:10057000D869FFF723FF2C2158460CF083FB002C91
:1005800001D0A34665E705B0F0BCBB46B246A9461C
:10059000A046F0BDF0B5C64600B5C8B001282BD0C6
:1005A000114A1368013B1360002B14D10F4C104DFE
:1005B000206800280BD0A368191A0CF063FB2300F5
:1005C0000C3BA54207D01C0020680028F3D1230073
:1005D0000C3BA542F7D1074B9868FFF72FFF48B0B7
:1005E00080BCB846F0BDC0460420002030AB0110EE
:1005F00098A90110402000200022FA4B191DD96053
:100600001961F9491A719A605A610B6801330B60DC
:10061000012B02D1F54B1A605A60F54B1A68551C34
:100620001D60012DDBD10023F24F00223B607B6077
:10063000BB6000233A923B93012200233AAC3C92E8
:100640003D9321000132EC4838943992FFF782FE45
:10065000EA4B98462300424643CA43C343CA43C3B6
:1006600003222100E64836943792FFF773FE434693
:100670002200183343CB43C243CB43C203222100A1
:10068000E04834943592FFF765FE4346220030334C
:1006900043CB43C243CB43C203CB03C2042221005A
:1006A000D94832943392FFF755FE0023FB633B6435
:1006B0007B64BB64FB643B6543462200503343CB01
:1006C00043C243CB43C203CB03C204222100CF4821
:1006D00030943192FFF73EFE4646220070360BCE34
:1006E0000BC20BCE0BC20ACE0AC204222100C8489C
:1006F0002E942F92FFF72EFEC64E38223100200096
:10070000103108F099FB07222100C3482C942D9248
:10071000FFF720FE310038224831200008F08CFB22
:1007200007222100BD482A942B92FFF713FEBC4BF1
:1007300098462300424643CA43C343CA43C30322E5
:100740002100B84828942992FFF704FE434622006E
:10075000183343CB43C243CB43C203CB03C204226F
:100760002100B14826942792FFF7F4FD434622006A
:10077000383343CB43C243CB43C203CB03C204222F
:100780002100AA4824942592FFF7E4FD4346220065
:10079000583343CB43C243CB43C203CB03C20422EF
:1007A0002100A34822942392FFF7D4FD01230022C5
:1007B0005B423A923B93210001329E482094219261
:1007C000FFF7C8FD01230C225B423A923B932100C4
:1007D0000B3A99481E941F92FFF7BCFD0123652236
:1007E0005B423A923B932100643A94481C941D92D8
:1007F000FFF7B0FD012371225B423A923B93210047
:10080000703A8F481A941B92FFF7A4FD0023E4224C
:10081000BB500432BB500432BB500432BB500432D4
:10082000BB5046460432BB50220078360BCE0BC27A
:100830000BCE0BC20ACE0AC20422210081481894B2
:100840001992FFF787FD22007F4B9846183343CB60
:1008500043C243CB43C203CB03C2042221007B48E3
:1008600016941792FFF776FD43462200383343CBA8
:1008700043C243CB43C203CB03C2042221007448CA
:1008800014941592FFF766FD43462200583343CB7C
:1008900043C243CB43C203CB03C2042221006D48B1
:1008A00012941392FFF756FD4646220078360BCE7F
:1008B0000BC20BCE0BC20ACE0AC20422210066482C
:1008C00010941192FFF746FD2200644B98461833AE
:1008D00043CB43C243CB43C243CB43C21B6821003B
:1008E000136005225E480E940F92FFF733FD4346D6
:1008F0002200403343CB43C243CB43C243CB43C22A
:1009000043CB43C20622210056480C940D92FFF7B8
:1009100021FD4646220070360BCE0BC20BCE0BC219
:100920000ACE0AC2042221004F480A940B92FFF714
:1009300011FD22004D4B9846103343CB43C243CBAD
:1009400043C203CB03C20422210049480894099200
:10095000FFF700FD43462200303343CB43C243CB75
:1009600043C203CB03C204222100424806940792EB
:10097000FFF7F0FC43462200503343CB43C243CB46
:1009800043C2032221003C4804940592FFF7E2FC95
:100990004646220068360BCE0BC20BCE0BC20BCEE6
:1009A0000BC233682100136005223448029403927D
:1009B000FFF7D0FC2200324B103343CB43C243CB72
:1009C00043C2032221002F4800940192FFF7C2FC8A
:1009D000CC2200235200BB500432BB500432BB5027
:1009E000FDE5C04640200020FC1F00203CAB01106C
:1009F0000420002098A90110A4A90110047301107B
:100A0000B0A90110BCA90110C8A90110ECA90110DE
:100A1000F8A901108473011004AA011010AA011092
:100A2000047401101CAA011028AA011034AA011094
:100A300040AA01104CAA011058AA011064AA011082
:100A400070AA011094AA011084740110A0AA0110C8
:100A5000ACAA0110B8AA0110C4AA011004750110B3
:100A6000D0AA0110DCAA0110E8AA011084750110B7
:100A7000F4AA011000AB01100CAB011018AB01106F
:100A80000476011024AB011021252224651B163C9D
:100A90006C433C19BC4238D10CF09CF9F5E70325B6
:100AA000F3E70425F1E70225EFE70525EDE7092542
:100AB000EBE70A25E9E70B25E7E70C25E5E707253E
:100AC000E3E70825E1E70625DFE70D25DDE710254B
:100AD000DBE71725D9E71825D7E71925D5E71A2524
:100AE000D3E71B25D1E71E25CFE71F25CDE720251E
:100AF000CBE71325C9E71425C7E71525C5E7162554
:100B0000C3E71125C1E71225BFE70C3C2068A368A5
:100B1000191A0028BED00CF0B5F8BBE710B50400D8
:100B200004F0ECF8024B20000833236010BDC046EF
:100B300058760110F0B5DE4657464E4645468B4680
:100B40000221E0B59846531E8246894687B0032BA2
:100B500004D90139D31F89460B2B3DD853002A49AC
:100B60009B189B005D180020CB5800210290039138
:100B700000216A680491D41A9A4236D0234B9C42D1
:100B800036D820000CF0D6FE0ACD0419029003904E
:100B90000494994209D000225B1A84188D180832F7
:100BA000C0CDC0C49A42F8D1801843460390009348
:100BB00059464B46504602AA04F058F902980028BC
:100BC00003D00499091A0CF05DF807B0F0BCBB46DD
:100BD000B246A946A046F0BD11000C2315398B4240
:100BE0009B41032119408946B8E700240020CBE748
:100BF0000DF04EF902980499091A002801D00CF062
:100C000041F80CF0E7F8C04698A90110F8FFFF7F03
:100C1000F8B5CE46474680B51F00089B04000D007E
:100C2000380005211600984607F088FC89460029FF
:100C300000DDC3E04346012229002000FFF77AFFD0
:100C40004346022229002000FFF774FF1E2F04DD17
:100C5000701C182107F072FC0E00002E48D00C2EDC
:100C600046D0012E00D18CE00D2E00D189E0022E5D
:100C700000D1FFE00E2E00D1FCE0032E00D107E1F1
:100C80000F2E00D104E1042E00D1FAE0102E00D185
:100C9000F7E0052E00D109E1112E00D106E1062E64
:100CA00000D10AE1122E00D107E1072E00D10BE19D
:100CB000132E00D108E1082E00D10CE1142E00D132
:100CC00009E1092E00D10DE1152E00D10AE10A2E0D
:100CD00000D10EE1162E00D10BE10B2E01D0172E04
:100CE0000CD143461F2229002000FFF723FF05E017
:100CF0004346202229002000FFF71CFF7E1F132EF1
:100D000000D880E03B00233B042B10D93B00193B6B
:100D1000042B42D93B00283B122B3ED9042F42D84A
:100D20004346032229002000FFF704FF05E0434665
:100D30000C2229002000FFF7FDFE3B00143B042B92
:100D400000D890E03B00193B042B00D87EE03B002C
:100D50001E3B042B00D87FE03B00233B042B00D834
:100D600074E0053B042B00D87DE0053B042B00D844
:100D700095E03B00323B042B5BD9373F042F50D822
:100D800049E04346042F5BD8212229002000FFF7C9
:100D9000D1FE3B00193B042BBCD843460B22290053
:100DA0002000FFF7C7FE3B000F3B042BC5D843468E
:100DB0000A2229002000FFF7BDFE32E043460F2241
:100DC00029002000FFF7B6FE4B46012B00D131E78A
:100DD0004346102229002000FFF7ACFE4B46022BB1
:100DE00000D127E74346112229002000FFF7A2FE89
:100DF0004B46042B00D01DE7434612222900200059
:100E0000FFF798FE16E743460C2229002000FFF763
:100E100091FE042E09D84346072229002000FFF73F
:100E200089FEC0BCB946B046F8BD3B000A3B042B66
:100E3000B9D84346082229002000FFF77BFEF0E7DF
:100E4000152229002000FFF775FE57E743460722C9
:100E500029002000FFF76EFE43460D2229002000E6
:100E6000FFF768FEDDE74346092229002000FFF76F
:100E700061FED6E74346162229002000FFF75AFEFE
:100E80003CE74346182229002000FFF753FE35E7D0
:100E90004346172229002000FFF74CFE2EE7434669
:100EA0000E2229002000FFF745FE80E74346192265
:100EB00029002000FFF73EFE20E743461A222900C2
:100EC0002000FFF737FE19E743461B2229002000C8
:100ED000FFF730FE12E743461C2229002000FFF7EF
:100EE00029FE0BE743461D2229002000FFF722FEC2
:100EF00004E743461E2229002000FFF71BFEFDE603
:100F000010B50120FFF746FB10BDC04610B5040028
:100F1000034B0833036003F0E7FE200010BDC0461A
:100F20009878011010B50400054B0833036003F0F6
:100F3000DBFE200004210BF0A5FE200010BDC04602
:100F400098780110F0B5C646040000B5002825D0F9
:100F50001A4B1B4F98462600E068FFF7F3FFB56970
:100F6000A468002D14D06B68013B6B60002B0FD17F
:100F70002B689B68BB4214D1AB68013BAB60002B74
:100F800006D12B68DA6842450ED128005B68984785
:100F90001C2130000BF076FE002CDCD180BCB84662
:100FA000F0BD28009847E7E7280090471C21300053
:100FB0000BF068FE002CCED1F0E7C0461103001004
:100FC0000D030010F0B5DE4657464E464546E0B5E7
:100FD000834685B0002800D199E05B46DB68019329
:100FE000002B00D186E0019BDB689946002B72D074
:100FF0004B46DB689A46002B60D05346DC68002CD9
:1010000042D0E668002E27D0F3689846002B2FD0F8
:101010004346DD68002D44D0EF68002F10D0F868FB
:10102000FFF7D0FF3B00DA69BF681000029303921C
:10103000FFF788FF2C2102980BF024FE002FEED141
:10104000AF68E869FFF77EFF2C2128000BF01AFE3D
:10105000002F26D03D00DFE7A568E069FFF772FFAB
:101060002C2120000BF00EFE002D0DD02C00C8E727
:10107000B568F069FFF766FF2C2130000BF002FE27
:10108000002DE9D02E00BFE753469C68D869FFF7D2
:1010900059FF2C2150460BF0F5FD002C0ED0A24636
:1010A000ABE743469D68D869FFF74CFF2C214046CB
:1010B0000BF0E8FD002DDBD0A846A9E74B469C6865
:1010C000D869FFF73FFF2C2148460BF0DBFD002CD1
:1010D00001D0A1468CE7019DEB69AC681800019333
:1010E000FFF730FF2C2128000BF0CCFD002C01D0A5
:1010F000019478E75B469C68D869FFF723FF2C21B1
:1011000058460BF0BFFD002C01D0A34665E705B0A3
:10111000F0BCBB46B246A946A046F0BD10B50400DF
:1011200003F0ECFD024B20000833236010BDC046E5
:1011300098780110F0B5DE4657464E4645468B4638
:101140000221E0B59846531E8246894687B0032B9C
:1011500004D90139D31F8946072B3DD853002A49AA
:101160009B189B005D180020CB5800210290039132
:1011700000216A680491D41A9A4236D0234B9C42CB
:1011800036D820000CF0D6FB0ACD0419029003904B
:101190000494994209D000225B1A84188D180832F1
:1011A000C0CDC0C49A42F8D1801843460390009342
:1011B00059464B46504602AA03F058FE02980028B2
:1011C00003D00499091A0BF05DFD07B0F0BCBB46D3
:1011D000B246A946A046F0BD1100072311398B4243
:1011E0009B41032119408946B8E700240020CBE742
:1011F0000CF04EFE02980499091A002801D00BF059
:1012000041FD0BF0E7FDC04644AB0110F8FFFF7F46
:101210000023F0B5036043608360154B04000E00AB
:1012200083B0D5009D4217D8002D0FD028000CF0B8
:1012300081FB47192060A760002D0BD02A003100E8
:1012400007F0FAFD2000676003B0F0BD00270560DD
:101250008560F7E70700F5E706480CF041FE2068D7
:10126000A168091A002801D00BF00CFD0BF0B2FDAB
:10127000F8FFFF7FD0720110F0B5C64600B5B2B0DE
:10128000012822D0E44A1368013B1360002B14D1DB
:10129000E24CE34D206800280BD0A368191A0BF02C
:1012A000F1FC23000C3BA54207D01C00206800285D
:1012B000F3D123000C3BA542F7D1DA4B9868FFF736
:1012C00081FE32B080BCB846F0BD0022D54B191D5E
:1012D000D9601961D4491A719A605A610B68013357
:1012E0000B60012B02D1D14B1A605A60CA4B1A68AD
:1012F000551C1D60012DE4D10023C94F00223B6025
:101300007B60BB6001232AAC5B422A922B932100B5
:101310002A00C74826AB28942995FFF779FF0123B7
:101320000C225B422A922B9321000B3AC14824AB3A
:1013300026942792FFF76CFF012365225B422A92D5
:101340002B932100643ABC4822AB24942592FFF7EA
:101350005FFF012371225B422A922B932100703A96
:10136000B64820AB22942392FFF752FF0023FB6381
:101370003B647B64BB64FB643B65B14B98462300D4
:10138000424643CA43C343CA43C303CA03C30422F6
:101390002100AC481EAB20942192FFF739FF434651
:1013A0002200203343CB43C243CB43C203CB03C20F
:1013B00004222100A4481CAB1E941F92FFF728FFB3
:1013C00043462200403343CB43C243CB43C203CB0B
:1013D00003C2042221009D481AAB1C941D92FFF702
:1013E00017FF4646220060360BCE0BC20BCE0BC257
:1013F0000ACE0AC204222100954818AB1A941B9207
:10140000FFF706FF934B98462300424643CA43C367
:1014100043CA43C303CA03C3042221008E4816AB48
:1014200018941992FFF7F4FE43462200203343CB71
:1014300043C243CB43C203CB03C2042221008748EB
:1014400014AB16941792FFF7E3FE43462200403395
:1014500043CB43C243CB43C203CB03C2042221008C
:101460007F4812AB14941592FFF7D2FE4646220035
:1014700060360BCE0BC20BCE0BC20ACE0AC20422C0
:101480002100784810AB12941392FFF7C1FE00239D
:10149000B422BB500432BB500432BB500432BB50A8
:1014A0000432BB500432BB506F4B98462300424677
:1014B00043CA43C343CA43C303CA03C3042221002C
:1014C0006A480EAB10941192FFF7A2FE4346220029
:1014D000203343CB43C243CB43C203CB03C20422DA
:1014E000210063480CAB0E940F92FFF791FE434628
:1014F0002200403343CB43C243CB43C203CB03C29E
:10150000042221005B480AAB0C940D92FFF780FE89
:101510004646220060360BCE0BC20BCE0BC20ACE63
:101520000AC204222100544808AB0A940B92FFF728
:101530006FFE524B98462300424643CA43C343CAF8
:1015400043C303CA03C3042221004D4806AB0894D9
:101550000992FFF75DFE43462200203343CB43C28E
:1015600043CB43C203CB03C204222100454804AB52
:1015700006940792FFF74CFE43462200403343CBCC
:1015800043C243CB43C203CB03C2042221003E48E3
:1015900002AB04940592FFF73BFE464622006036FC
:1015A0000BCE0BC20BCE0BC20ACE0AC20422210004
:1015B000364801AB02940392FFF72AFE96220023DD
:1015C0005200BB500432BB500432BB5079E61825A0
:1015D0001924651B0D3C6C433C19BC4262D10BF0D5
:1015E000F9FBF5E70225F3E70325F1E70425EFE72B
:1015F0000525EDE70E25EBE70F25E9E71025E7E7E1
:101600001125E5E71225E3E71525E1E71625DFE7D4
:101610001725DDE70825DBE70020002070AC01106E
:1016200044AB011058200020FC1F00203CAB0110EF
:1016300050AB01105CAB011068AB011074AB011032
:101640006C76011098AB0110A4AB0110B0AB011087
:10165000BCAB0110EC760110C8AB0110D4AB01108B
:10166000E0AB0110ECAB01106C77011010AC011075
:101670001CAC011028AC011034AC0110EC77011047
:1016800040AC01104CAC011058AC011064AC01101E
:101690000B259DE70C259BE70D2599E7062597E788
:1016A000072595E70C3C2068A368191A002894D0F8
:1016B0000BF0E8FA91E7C04670B504000068002816
:1016C0000CD02369191A0BF0DDFA00222300210047
:1016D000A260E260083321CB21C1226170BDC04607
:1016E000F0B5C64600B594B01A9E04000D00170070
:1016F00098460A2E00DD71E04146684600F01AFB6C
:101700000A21404606F01AFF010005A800F012FB6E
:1017100039000AA800F00EFB0A21380006F00EFF7F
:1017200001000FA800F006FB009B1B68DA0700D53C
:10173000ECE09A0700D5E0E05A0700D5D4E01B079B
:1017400000D5CAE0059B1B68DA0700D5BCE09A0704
:1017500000D5B0E05A0700D5A4E01B0700D59AE0F9
:101760000A9B1B68DA0700D58CE09A0700D580E059
:101770005A0700D574E01B076BD40F980368DA078B
:101780005ED49A0753D45A0748D41B0721D5330097
:10179000182229002000FFF7CDFC0F98002818D14F
:1017A0000A98002803D00E99091A0BF06BFA0598D5
:1017B000002803D00999091A0BF064FA0098002850
:1017C00003D00499091A0BF05DFA14B080BCB84636
:1017D000F0BD1399091A0BF055FAE1E73300012225
:1017E000FFF7A8FC192E00DC86E73300022229004F
:1017F0002000FFF79FFC282E00DC7DE7330003224A
:1018000029002000FFF796FC372E00DC74E7330038
:10181000042229002000FFF78DFC6DE7330017221A
:1018200029002000FFF786FC0F980368ADE733001E
:10183000162229002000FFF77DFC0F980368A2E71D
:101840003300152229002000FFF774FC0F9803686D
:1018500097E73300142229002000FFF76BFC8CE788
:101860003300132229002000FFF764FC0A9B1B6849
:1018700081E73300122229002000FFF75BFC0A9B5E
:101880001B6875E73300112229002000FFF752FC86
:101890000A9B1B6869E733000E2229002000FFF72E
:1018A00049FC5DE733000D2229002000FFF742FCD0
:1018B000059B1B6851E733000C2229002000FFF72D
:1018C00039FC059B1B6845E733000B2229002000EB
:1018D000FFF730FC059B1B6839E733000A2229001B
:1018E0002000FFF727FC2DE7330009222900200004
:1018F000FFF720FC009B1B6821E73300082229002A
:101900002000FFF717FC009B1B6815E73300072238
:1019100029002000FFF70EFC009B1B6809E70FA8B9
:10192000FFF7CAFE0AA8FFF7C7FE05A8FFF7C4FE27
:101930006846FFF7C1FE0BF04DFAF3E7F5E7F7E76E
:1019400010B50120FFF798FC10BDC04630B54368C4
:1019500089B0002B01D109B030BD002200230492D0
:10196000059300233A4904AA069300F059FC059D0B
:10197000049C2B1B302B29D9206813F037FD059BC5
:10198000049A019345B29B1A182B41D9906913F020
:101990002DFD059B049A019344B29B1A302B30D93C
:1019A000106B13F023FD2B4B02AA13802A4BD0712E
:1019B0005380002310001371557194710AF0CCFA12
:1019C0004020002104F010FB049C059DAC420CD08B
:1019D00023002068083398420FD0A3681834591C9C
:1019E0000BF050F9AC42F3D1049D002DB3D0069911
:1019F0002800491B0BF046F9ADE71834AC42E7D19B
:101A0000F2E7164ADB1002215A4315480CF080FA1F
:101A1000124ADB1001215A4311480CF079FA049C58
:101A2000059DA54208D104980699091A002801D0FD
:101A30000BF028F90BF0CEF9230020680833984208
:101A400003D0A368591C0BF01DF91834E9E7C04610
:101A5000809E0110E407000006050000ABAAAAAAB8
:101A6000AC78011010B50AF05BFA10BD10B5040097
:101A70000AF0C8FA200010BD10B51C00431A0298E5
:101A8000511A001B584306F059FD001910BDC046FD
:101A9000F0B557464E46DE464546E0B587B0029360
:101AA000836881469C4603698A46049105920192A7
:101AB0009C4500D171E0C368591C9B461F231C0044
:101AC0008846CA1714404444D20E03916411891801
:101AD000A4000B4064449B1A5CD462465146551ADC
:101AE0005A460199ED00521AAD1867465E4688467F
:101AF000002D14DD002E33D00121013EB140002B1A
:101B000034D00122013B9A403868084220D0216835
:101B1000013D0A432260002DECD14346019301238D
:101B2000019A9340029A002A25D1524612689A439C
:101B30001300524613605B461F2B24D04B46039A7A
:101B4000DA6007B0F0BCBB46B246A946A046F0BD7D
:101B50002168013D91432160002DDED0002ECBD1C4
:101B600080211F26043F0906002BCAD180221F2393
:101B7000043C1206C8E752461268134352461360EB
:101B80005B461F2BDAD100234A46D36063460433F9
:101B90009360D6E72033043C9FE762460368D31A7C
:101BA000C268DB009446604A6344934200D1B7E0C8
:101BB0000122002B00D0A2E05B4B9A4200D91A0010
:101BC0001F3252099300180003930BF0B3FE4B46EB
:101BD0001E68534683469C1BB24503D02200310049
:101BE00015F066FB220001985A44011E00DC92E0C9
:101BF00055460023012780460DE0146820431060FD
:101C00001F2B13D0581C9C1C3B00834001399C4661
:101C10000300002913D0380098402C680442ECD10E
:101C200014688443200010601F2BEBD1012301397D
:101C30009C4601240023043504320029EBD141469F
:101C4000150001911F2B01D10024151D029B002BB3
:101C50005DD0634611680B4313604B4652469B6848
:101C600001989A1A4B46DB68D2001B1AD218002A38
:101C700028DDB446012156460CE047462B681F4339
:101C80002F601F2814D001301F2C15D0013A0134C9
:101C9000002A16D00F000B00A7408340B8463768D3
:101CA0001F42EAD143462F689F432F601F28EAD185
:101CB000002004361F2CE9D1013A00240435002A03
:101CC000E8D16646002E0DD04B461B693000991BAB
:101CD0000AF0D8FF00234A469360D3604B4608338E
:101CE00003CB03C24A46039B5B4413614B465A46EF
:101CF0001A604A46002395605360D46021E75A0079
:101D0000934200D858E7094B180003935DE76146FA
:101D100013688B43A0E7012315009C46012495E737
:101D200003480CF0DDF8C046E0FFFF7FFCFFFF0F2B
:101D3000F8780110F0B5DE4657464E46454600237A
:101D4000E0B5036043608360C360036108339A4673
:101D500083B0EB4682445E4653460D0006CB06C672
:101D600001235A46002152682B400400FFF790FEE1
:101D7000EB0FA2685B1921699B071700DB0F8A42F2
:101D800000D114E1E06880461F2800D1F8E001305E
:101D9000E06001204646B040002B00D0A4E03B6844
:101DA00083433B60EB1798460323464633405B1959
:101DB0005B071000DB0F8A4200D1EBE0E668B1461A
:101DC0001F2E00D1C3E001264E44E66001264F4697
:101DD000BE40002B00D0B5E00368B3430360072387
:101DE000464633405B191B071000DB0F8A4200D1C7
:101DF00011E1E668B1461F2E00D1BCE001264E4439
:101E0000E66001264F46BE40002B00D095E00368F7
:101E1000B34303600F23464633405B19DB061000D3
:101E2000DB0F8A4200D1E9E0E668B1461F2E00D1FF
:101E30009CE001264E44E66001264F46BE40002B42
:101E400000D075E00368B34303601F234646334068
:101E50005B199B061000DB0F8A4200D1C1E0E668E7
:101E6000B1461F2E00D17CE001264E44E6600126DB
:101E70004F46BE40002B56D10368B34303603F2357
:101E8000464633405B195B061000DB0F8A4200D1E7
:101E90009AE0E668B1461F2E5ED001264E44E66009
:101EA00001264F46BE40002B26D10368B343036092
:101EB0007F23404603405B191B06DB0F8A4227D075
:101EC000E0681F2861D0411CE16001218140002BA6
:101ED0000ED0136819431160200003B0F0BCBB465C
:101EE000B246A946A046F0BD3B681843386059E7A2
:101EF00013688B431360EFE73300066833430360D6
:101F00007F23404603405B191B06DB0F8A42D7D173
:101F10005E46524603CA03C65A46200000995268DC
:101F2000FFF7B6FDD8E73300066833430360A6E742
:101F3000330006683343036087E7330006683343A2
:101F4000036067E7330006683343036047E7002612
:101F50000432E660A26039E700260432E660A2603F
:101F60009EE700260432E660A26080E70026043285
:101F7000E660A26060E700260432E660A26040E707
:101F800000200432E060A26003E70021E160111D3F
:101F9000A1609AE75E46524603CA03C65A4620002D
:101FA00000995268FFF774FDA268216917E75E4641
:101FB000524603CA03C65A46390020005268FFF74A
:101FC00067FDA2682169EDE65E46524603CA03C674
:101FD0005A46200000995268FFF75AFDA26821690D
:101FE00066E75E46524603CA03C65A462000009979
:101FF0005268FFF74DFDA268216940E75E465246F0
:1020000003CA03C65A46200000995268FFF740FDF4
:10201000A268216919E75E46524603CA03C65A46BA
:10202000200000995268FFF733FDA2682169F1E6AC
:10203000206800280BD02369191A0AF023FE002318
:1020400022005146A360E36021C921C223610AF046
:10205000C1FEC0460368F0B54E4699465746454610
:10206000DE4614004A464368E0B50F00991AC910CD
:102070008A00521898461301D2181302D21813047A
:10208000D3185B00624A5B18824683B0934200D14A
:10209000BBE00122002B03D05A00934200D9A9E0F3
:1020A0004B46FD1A002A00D093E01823009300232A
:1020B0009B4601935D4428002600236808300836BB
:1020C0002860B34200D19BE02B60A368AB606368DB
:1020D00026606B60002363602372B9452ED04E46A4
:1020E0005C464D46083609E02360AB681836A360AD
:1020F0006B68183563601834BD4210D0200008307A
:1021000020602B68B342EFD13100102206F094FE1C
:102110006B681835636018361834BD42EED13B0049
:102120004A46183B9B1ADA083A4B5343DB00DB085C
:1021300002335A00D318DB005B440093B84530D01B
:102140003E003D00009C083609E02360AB6818366D
:10215000A3606B68183563601834454510D02000C3
:102160002B6808302060B342EFD13100102206F016
:1021700063FE6B6818356360183618344545EED138
:102180004346DF1B183F234BFF087B43DB00DB0884
:1021900001335A00D318009ADB0094469C446346EE
:1021A00000934B46002B06D053464A469B68484650
:1021B000991A0AF067FD53465A461A60009A5A6007
:1021C000019A9A6003B0F0BCBB46B246A946A0464D
:1021D000F0BD0F4B9A4211D85600B618F6003000E9
:1021E0000BF0A8FB330083465B44019318235B4448
:1021F00000935FE74B46084EFD1AF0E71A00EBE745
:102200001022310006F018FE61E704480BF068FE6A
:1022100055555505ABAAAA0AF8FFFF7F147901109E
:10222000F0B5C64600B500688AB08846150014F0BF
:102230002DF906AE071E23D153E0012855D13A7877
:1022400002A90A74320000210593D1546C68AB686E
:102250009C4233D0200008302060049BB34249D018
:102260002360069B0193A360059B636001936B68E9
:1022700018336B604146002014F008F9071E30D077
:102280003800049614F09AF80400030003900F2815
:10229000D3D9002203A904A80BF028FF039B0490C4
:1022A00006932200390006F0C7FD0021039B049A23
:1022B0000593D1546C68AB689C42CBD121002800B7
:1022C00004AAFFF7C7FE0498B042D3D0069B591C5E
:1022D00001930AF0D7FC4146002014F0D7F8071EFE
:1022E000CED10AB080BCB846F0BD32000028AAD0DA
:1022F0003000D6E71022310006F09EFDB4E70498C6
:10230000B04203D0069901310AF0BCFC0AF062FD2C
:1023100010B504002300C0692433984203D0636AD7
:10232000591C0AF0AFFC230060680C33984203D0BC
:10233000E368591C0AF0A6FC200010BDF0B50300AC
:1023400045469046020057464E46DE460C33243240
:10235000E0B54360C26100232422836003730362FB
:102360008354A9B003700B680CAD040099464F6804
:102370000A95002B3ED022970F2F2BD8012F00D08B
:102380002EE128211B7802AA521813702A0000237C
:102390000B97D3550B9B002203935F230399009364
:1023A0000AA85E3B0BF078FF4346002B03D00B9B43
:1023B0000393022B24D80A98A84203D00C99013128
:1023C0000AF060FC200029B0F0BCBB46B246A9462A
:1023D000A046F0BD22AE002231000AA80BF086FE16
:1023E000229B0A900C933A00494606F025FD229F55
:1023F0000A9ACCE72A00002FC9D0D8480BF058FD24
:1024000000220023069207930023D54906AA0AA8B2
:102410000893FFF705FF079B069E0393991BC810BF
:1024200083001B181A019B181A029B181A049A1889
:1024300052001218302900D8A0E0002A00D148E14B
:1024400012AB10939846336877689946002B00D1F9
:102450000AE122970F2F00D9B2E0012F00D017E137
:1024600040211B7802AA521813704246002311978C
:10247000D355079B069A03939B1A182B00D821E18A
:1024800018AB994616939369D7699A46002B00D1E9
:10249000F1E022970F2F00D9C7E0012F00D0F1E023
:1024A00058211B7802AA521813704A460023179726
:1024B000D355079B069A03939B1A302B00D8FAE05A
:1024C0001EAB9A461C93136B576B9B46002B00D197
:1024D000BBE022970F2F00D997E0012F00D0DDE05D
:1024E00070211B7802AA52181370524622AE0023A4
:1024F0001D97D35524AB9B462293109B119F0393AA
:10250000002B00D1A9E005970F2F6FD8012F00D025
:10251000CBE05A461B78337200237760D355179B64
:1025200030001A00169903930BF0D4FF22985845F7
:1025300003D0B16801310AF0A5FB0123201D2370EF
:1025400010A90BF015FE200016A91C300BF010FE90
:102550001C98504503D01E9901310AF093FB169840
:10256000484503D0189901310AF08CFB109840457A
:1025700008D0129901310AF085FB03E00A997948E5
:1025800006F006FF069E079FBE420CD0330030685F
:102590000833984210D0B3681836591C0AF072FB01
:1025A000B742F3D1069F002F00D104E70899380005
:1025B000C91B0AF067FBFEE61836B742E6D1F1E721
:1025C00022AE0022310010A80BF090FD229B10904B
:1025D00012933A00494606F02FFC229F109A45E7D5
:1025E0002A00002F00D1D2E62800FCE600223000AD
:1025F00005A90BF07BFD059B2290B3603A0003997F
:1026000006F01AFC059F229A86E722AE00223100CE
:102610001CA80BF06BFD229B1C901E933A005946A0
:1026200006F00AFC229F1C9A61E722AE00223100CC
:1026300016A80BF05BFD229B169018933A005146AA
:1026400006F0FAFB229F169A30E7524622AE002F80
:1026500000D14CE741480BF02BFC5A46002F00D12B
:102660005AE73E480BF024FC4246002F00D1FDE61D
:102670003A480BF01DFC4A46002F00D116E73748B8
:102680000BF016FC4A46002F00D10FE74846D5E76D
:102690004246002F00D1E9E640469AE7524622AE74
:1026A000002F00D123E75046B8E75A46002F00D14B
:1026B00032E75846A2E72C4ADB1002215A432B4846
:1026C0000BF026FC284ADB1001215A4327480BF067
:1026D0001FFC110025480BF01BFC069E079FB7420C
:1026E00030D106980899091A002801D00AF0CAFAD0
:1026F0000A98A84203D00C9901310AF0C3FA2000CD
:10270000FFF706FE0AF066FB1C98504503D01E99A1
:1027100001310AF0B7FA1698484503D018990131EB
:102720000AF0B0FA10984045D7D0129901310AF05A
:10273000A9FAD2E722985845E6D0B16801310AF0EB
:10274000A1FAE1E7330030680833984203D0B36858
:10275000591C0AF097FA1836C1E7E3E730790110FF
:102760005C79011060790110ABAAAAAAAC780110BB
:10277000C5E7BDE7CFE7C046F0B54E464546DE4665
:102780005746E0B597B005AB9846039300238146C2
:10279000102503AE554C337273606421534804F026
:1027A000AFF8071E29D0A3691D42FCD12768FFB2EC
:1027B0000A2F49D073689B4601235B449A463368CD
:1027C000434518D0B26892450BD85A469F54534699
:1027D00051467360002332680120535403F01CFCFF
:1027E000DBE70123002200935946002330000BF061
:1027F000F9FC3368E9E70F22E5E7242209AB1873F7
:1028000098544B46187048460C305860143A0CA93E
:1028100006F012FB48464B4624309F60D8611022D8
:1028200012A906F009FB4B461F620398404503D0EE
:10283000B16801310AF026FA484617B0F0BCBB4631
:10284000B246A946A046F0BD294B2A48196806F0B1
:102850009FFD039F0BAD74680995002F29D002944A
:102860000F2C17D8012C2AD16A462C213B785218FC
:1028700013702B0000220A9448461A5509A9013208
:10288000FFF75CFD0998A842CFD00B9901310AF0FF
:10289000F9F9CAE7002202A909A80BF027FC029B5C
:1028A00009900B932200390006F0C6FA029C099B9E
:1028B000E0E72B00002CDDD00F480BF0F9FA2B00DD
:1028C000002CD7D02800EDE70398404503D0B1682D
:1028D00001310AF0D7F90AF07DFA0998A842F3D03D
:1028E0000B9901310AF0CEF9EEE7C04600400340F3
:1028F000282000208879011030790110962110B528
:10290000094C8901200003F08BFF0221002002F016
:1029100031FC0221012002F02DFC1023E26A9343D6
:10292000024A136010BDC046004003402C500340D3
:10293000F0B5DE4657464E464546E0B50768AFB0AF
:102940000CAB06000D009B4644680A93002F00D193
:10295000F3E128940F2C00D9BAE1012C00D016E243
:1029600028213B7802AA521813705B4600220B9470
:102970001A550B9ACC4B03929A4200D11EE2CB4BD4
:10298000012219000AA898460BF0A4FD6A6829687C
:102990000AA80BF09FFD070012AB109303680837DD
:1029A0000400BB4200D1DBE110938368129363689B
:1029B000119300236360119A2372BB4B276003922B
:1029C0009A4200D1FDE10122414610A80BF082FDA0
:1029D000070018AB16939A46036808370400BB42F9
:1029E00000D1B7E1169383681893636817930023A7
:1029F00027602372376863601EAB74681C93002FD6
:102A000000D194E128940F2C00D981E1012C00D051
:102A1000C2E170213B7802AA521813701EAB00224B
:102A20001D941A551CA806CD0BF054FD1D9C002CBE
:102A300000D1A9E101211C9D9D4B9E4E2C192A78A5
:102A4000100058405B08014201D073409BB250080F
:102A500058405B08014201D073409BB29008584037
:102A60005B08014201D073409BB2D00858405B081C
:102A7000014201D073409BB2100958405B080142EB
:102A800001D073409BB2500958405B08014201D00D
:102A900073409BB2900958405B08014201D07340DB
:102AA0009BB2D2095A405B08114201D073409BB2DD
:102AB0000135A542C3D1DC4364BAA4B2092C00D8C5
:102AC00062E1632C00D870E1FA239B009C4200D2A3
:102AD00068E1794B042605219C4200D868E124ABCB
:102AE0002D2222A822930BF01FFB229B0393632C21
:102AF0001BD99C46714B013E98466F4B66449946E4
:102B00002000642105F042FD20004D00642105F005
:102B10003DFD43465B195B782700737043465B5D60
:102B200004003370023E4F45EAD8092C00D8DEE09D
:102B3000624B64001A1952781C5D0399039B4A701A
:102B40001C70179C239A169BA018534500D1D9E0FE
:102B50001899884200D8D9E0229924ADA94200D121
:102B600010E1249DA84200D8EDE016A80BF0B2FCBD
:102B700006002AAF289703680836040028ADB34240
:102B800000D1F9E028938368AB6063686B60002331
:102B9000636023726A68444B26609A4200D10AE15E
:102BA0000122280046490BF095FC0822904606AE0B
:102BB0000496036880440400434500D1D6E00493A2
:102BC000836806936368059343462360002323725A
:102BD00028986360B84203D0A96801310AF052F81E
:102BE000229824AB984203D0249901310AF04AF884
:102BF0001C981EAB984203D01E9901310AF042F88E
:102C00001698504503D0189901310AF03BF81098F6
:102C100012AB984203D0129901310AF033F80A98A6
:102C2000584503D00C9901310AF02CF80499254835
:102C300006F0AEFB04980778002F1BD0224B0D2125
:102C400000255D5F002398468C4604002022414603
:102C50001E4B00291BD1BD4220D099690A42FCD1EC
:102C60001F60217801340D394F4279412778C9B26C
:102C7000002FEED1B04203D0069901310AF002F8DC
:102C80002FB0F0BCBB46B246A946A046F0BD99693C
:102C90000A42E5D099690A42F9D1E1E799690A4205
:102CA000FCD161461960D8E7FFFFFF3F5C79011056
:102CB000FFFF00000884FFFF0F270000BC79011010
:102CC0001C8B0110B4790110A82D00200040034096
:102CD000002228A90AA80BF009FA289B0A900C9355
:102CE0002200390006F0A8F8289C0A9B3EE6039BC8
:102CF0003034E4B21C70179C239A169BA0185345DD
:102D000000D025E70F21884200D925E722992CE73A
:102D1000002228A91CA80BF0E9F9289B1C901E93FF
:102D20002200390006F088F8289C1C9B77E6002CCE
:102D300000D174E643480BF0BBF8002C00D115E637
:102D400040480BF0B5F800220021009422A80BF0B7
:102D5000FDFA0DE710223900504606F06DF844E602
:102D60001022390012A806F067F820E6414630002C
:102D7000083206F061F825E710223100380006F02D
:102D80005BF802E70F25EDE600260121A7E6002CFF
:102D900000D1EBE51800A3E71EAB002C00D13EE606
:102DA0001800BDE70226032199E60126022196E6D6
:102DB000013E013993E624480BF092F822480BF0CB
:102DC0008FF821480BF08CF82898B84203D0A968F6
:102DD000013109F057FF229824AB984203D024997F
:102DE000013109F04FFF1C981EAB984203D01E9989
:102DF000013109F047FF1698504503D01899013169
:102E000009F040FF109812AB984203D0129901319B
:102E100009F038FF0A98584503D00C99013109F0A0
:102E200031FF09F0D7FFF5E7F4E7D4E7DBE7E9E79F
:102E30000498B042F5D00699013109F023FFF0E77C
:102E4000D1E7D8E7307901109C790110F0B5DE4662
:102E5000454657464E46E0B5B7B00391B82132AB70
:102E60000592309304AAA94B521813800223319380
:102E7000002304AA023152181370C30F9B46C317D4
:102E8000C5185D40092D00D869E2632D00D86CE2B9
:102E9000FA239B009D4200D275E29D4B9D4200D8D3
:102EA0006BE29C4B280098469B4B012499469B4B18
:102EB0009B4F9A4608E0464500D812E24E4500D89E
:102EC00011E2564500D826E29649060005F05EFB61
:102ED00023000434BE42EED808AB06935B462D2295
:102EE000191906A80BF020F9069B9C46E344632DB4
:102EF0001AD98D4E864BB0469946023C5C44280058
:102F0000642105F043FB28004F00642105F03EFBDF
:102F10004346DB195B782E0063704346DB5D05009A
:102F20002370023C4E45EAD8092D00D9BEE1303568
:102F3000EDB25B461D70079A7C4B04929A4200D119
:102F400023E27B4B0122190006A89A460BF0C2FA35
:102F500005000EAB0C93036808350400AB4200D1AA
:102F6000DFE10C9383680E9363680D930023636025
:102F70002372039B2560DA0F0392DA179D185540E0
:102F8000092D00D8E9E1632D00D8F0E1FA239B0078
:102F90009D4200D2EDE15E4B9D4200D8EBE15D4BDE
:102FA000280098465C4B012499465C4B5C4F9B463D
:102FB00008E0464500D892E14E4500D895E15E45CF
:102FC00000D8A4E15749060005F0E0FA23000434D4
:102FD000BE42EED8039E14AB2D22311912A81293D3
:102FE0000BF0A2F8129B9C466644B146632D1AD999
:102FF0004D4E474BB0469B46023C4C442800642152
:1030000005F0C4FA28004F00642105F0BFFA4346DA
:10301000DB195B782E0063704346DB5D050023708F
:10302000023C5E45EAD8092D00D947E13035EDB2C2
:103030004B461D700D9C139A0C9B0EA9A0188B4239
:1030400000D16AE10E99884200D844E1129914AD8A
:10305000A94200D17DE1149DA84200D84EE10CA800
:103060000BF038FA050018AB9B461AAB1893049383
:10307000036808350400AB4200D164E118935B4655
:1030800082689A605B4662685A6000235A466360B1
:1030900023725268254B25609A4200D178E10122C3
:1030A000514658460BF016FA050020AB1E930368F4
:1030B00008350400AB4200D13FE11E9383682093A2
:1030C00063681F93002363602372059B2560DA0FFA
:1030D0000392DA179D185540092D00D841E1632D60
:1030E00000D840E1FA239B009D4200D247E1084B03
:1030F0009D4200D845E1074B28009846064B012425
:103100009946064B064F9A461DE0C0466374000080
:103110000F2700003F420F007F969800FFE0F50563
:103120009F86010010270000BC790110FFFFFF3FC0
:10313000809E0110464500D8CFE04E4500D8E4E01F
:10314000564500D8E5E0B849060005F01FFA23000F
:103150000434BE42EED8039E26AB2D22311924A89A
:10316000994624930AF0E0FF249B9C46664403960C
:10317000632D1BD9B446AD4BAD4E9A46B046023CCA
:1031800064442800642105F001FA28004F006421FE
:1031900005F0FCF94346DB195B782E00637043466B
:1031A000DB5D05002370023C5645EAD8092D00D8A6
:1031B0008CE09F4B6D005A19527803995D5D4A70FF
:1031C000039B20A91D701F9C259A1E9BA0188B4253
:1031D00000D1A4E02099884200D87AE0249949459A
:1031E00000D1B8E0269DA84200D880E01EA80BF0D0
:1031F00071F907002CAE2A960368083704002AAD3F
:10320000BB4200D193E02A938368AB6063682900D6
:103210006B60002327606360237230A8FFF788FB90
:103220002A98B04203D0A968013109F02BFD2498F7
:10323000484503D02699013109F024FD1E9820ABA2
:10324000984203D02099013109F01CFD1898049B85
:10325000984204D05B469968013109F013FD129839
:1032600014AB984203D01499013109F00BFD0C986E
:103270000EAB984203D00E99013109F003FD069878
:1032800008AB984203D00899013109F0FBFC309853
:1032900032AB984203D03299013109F0F3FC37B0D8
:1032A000F0BCBB46B246A946A046F0BD5A46604EA9
:1032B0006D0073195B78755D53703AE64A465C4E53
:1032C0006D0073195B78755D5370B1E63035EDB202
:1032D00076E724998AE71299C1E65C1D3BE75C1DFD
:1032E00078E65C1DF8E59C1DF6E59C1D72E6002263
:1032F0000021009424A80BF029F87AE7002200218D
:10330000009412A80BF022F8ACE69C1D23E7DC1D0C
:1033100060E6DC1D1FE7DC1DDEE50F2193E60F21D3
:1033200059E7102229000EA805F086FD1CE61022A0
:103330003900300005F080FD68E71022290020A840
:1033400005F07AFDBCE610222900049805F074FD12
:1033500098E60F2580E60F2545E701243AE601248B
:10336000BAE50124F7E60224F5E60224B4E50224D6
:1033700030E603242EE604242CE60424ACE50324E2
:10338000E9E60424E7E60324A6E52A480AF0A8FDB6
:1033900028480AF0A5FD069808AB984203D0089982
:1033A000013109F06FFC309832AB984203D032996A
:1033B000013109F067FC09F00DFD2A98B04203D0F5
:1033C000A968013109F05EFC2498484503D026998C
:1033D000013109F057FC1E9820AB984203D0209988
:1033E000013109F04FFC1898049B984204D05B46C9
:1033F0009968013109F046FC129814AB984203D049
:103400001499013109F03EFC0C980EAB9842C2D0E1
:103410000E99013109F036FCBDE7C4E7DBE7F3E7BD
:10342000D2E7E9E7DFE7C046102700000F270000DA
:10343000BC7901109C790110F0B5DE46454657462F
:103440004E46E0B58FB008AB9B460AAB0893544B91
:1034500002AA138402235A46536000239372C30FB7
:103460000193C317C5185D40092D00D87CE0632D7A
:1034700000D87BE0FA239B009D4200D27AE0494BC2
:103480009D4200D874E0484B28009846474B0124E1
:103490009946474B474F9A4605E046455ED94E450B
:1034A0005ED956455ED94449060005F06FF8230001
:1034B0000434BE42F1D8019E04AB2D22311902A87A
:1034C00002930AF031FE029B9C466644B246632D8D
:1034D0001AD93A4B023C9846324B5444994628003C
:1034E000642105F053F828004E00642105F04EF8E1
:1034F00043469B195B782F00637043469B5D050034
:103500002370023C4F45EAD8092D1FD83035EDB263
:10351000534658461D7002A9FFF70AFA029804ABF9
:10352000984203D00499013109F0ACFB08980AAB2A
:10353000984204D05B469968013109F0A3FB0FB0B3
:10354000F0BCBB46B246A946A046F0BD51461B4B57
:103550006D005A1952785D5D4A70D9E75C1DAAE783
:103560009C1DA8E7DC1DA6E70124A4E70224A2E72E
:103570000424A0E703249EE7029804AB984203D0FA
:103580000499013109F07EFB08980AAB984204D0F7
:103590005B469968013109F075FB09F01BFCF3E704
:1035A000636200000F2700003F420F007F969800E3
:1035B000FFE0F5059F86010010270000BC7901108F
:1035C000F0B5C64600B58EB004AC304B02941A88F4
:1035D00002AD22809B780AAEA37003236B600023A8
:1035E0000768EB720896002F3BD0380012F0E6FE19
:1035F000804601900F2825D801281ED16A4628212F
:103600003B785218137033000022099008A91A540D
:103610002800FFF78DF90898B04203D00A990131CC
:1036200009F030FB0298A04203D0A968013109F0EB
:1036300029FB0EB080BCB846F0BD33000028E3D0B3
:10364000300007E0002201A908A80AF04FFD019B05
:1036500008900A934246390005F0EEFB0198089B5A
:10366000D2E70B480AF024FC0898B04203D00A992C
:10367000013109F007FB0298A04203D0A96801318B
:1036800009F000FB09F0A6FBF5E7C046B879011088
:1036900030790110034B1A0008321A6000225A6078
:1036A0001A727047282000207047C046C06810B5C5
:1036B000002802D00368DB69984710BD00207047DE
:1036C00010B50400102109F0DDFA200010BDC0463D
:1036D00010B5102109F0D6FA10BDC04610B504008F
:1036E000024B036009F0E6FC200010BD547C011081
:1036F00010B50400044B036009F0DCFC2000042139
:1037000009F0C0FA200010BD547C011010B504006F
:10371000024B036009F0C8F8200010BD2C7C01109A
:1037200010B50400044B036009F0BEF8200020210E
:1037300009F0A8FA200010BD2C7C01100023F0B580
:10374000036043608360154B04000E0083B0D50016
:103750009D4216D8002D0ED028000AF0EBF847192C
:103760002060A760002D0AD02A00310005F064FB1C
:10377000676003B0F0BD002705608560F8E70700CB
:10378000F6E707480AF0ACFB2068A168091A002890
:1037900001D009F077FA09F01DFBC046F8FFFF7F62
:1037A000D072011070B5041E1FD02600E068FFF72C
:1037B000F9FFB569A468002D11D06B68013B6B60FF
:1037C000002B0CD12B6828009B689847AB68013B05
:1037D000AB60002B03D12B682800DB6898471C21C5
:1037E000300009F04FFA002CDFD170BDF0B5C646AD
:1037F000070000B500282ED0B846F868FFF7F6FF9E
:103800004346DC69BF68002C1FD02600E068FFF744
:10381000C9FFB569A468002D11D06B68013B6B60CE
:10382000002B0CD12B6828009B689847AB68013BA4
:10383000AB60002B03D12B682800DB6898471C2164
:10384000300009F01FFA002CDFD12C21404609F08E
:1038500019FA002FD0D180BCB846F0BDF0B5C646ED
:1038600000B5F0B001283DD0DD4A1368013B13607C
:10387000002B14D1DB4CDC4D206800280BD0A36852
:10388000191A09F0FFF923000C3BA54207D01C00D0
:1038900020680028F3D123000C3BA542F7D1D34A7E
:1038A0001368013B1360002B14D1D14CD14D20681B
:1038B00000280BD0A368191A09F0E4F923000C3B87
:1038C000A54207D01C0020680028F3D123000C3B40
:1038D000A542F7D1C84B9868FFF788FF70B080BC4D
:1038E000B846F0BD0022C44B191DD9601961C34907
:1038F0001A719A605A610B6801330B60012B02D177
:10390000BF4B1A605A60B94B1A68551C1D60012DD7
:1039100000D1ABE1B24B1A68571C1F60012F08D0D1
:1039200004200AF007F8040001F0E8F9B54B1C6028
:10393000D4E70023AC4E002233607360B3600123F0
:1039400062AC5B426292639321003A00AE482694D7
:103950002797FFF7F3FE01230C225B4262926393E9
:1039600021000B3AA94824942592FFF7E7FE012392
:1039700065225B42629263932100643AA4482294D8
:103980002392FFF7DBFE012371225B426292639375
:103990002100703A9F4820942192FFF7CFFE002328
:1039A0002200F36333647364B364F36433659A4B46
:1039B0009846283323CB23C223CB23C203CB03C295
:1039C0000422210095481E941F92FFF7B7FE43463C
:1039D0002200483323CB23C223CB23C203CB03C211
:1039E000042221008E481C941D92FFF7A7FE454635
:1039F000220068350BCD0BC20BCD0BC20ACD0AC21B
:103A00000422210087481A941B92FFF797FE220098
:103A1000854B9846083323CB23C223CB23C203CB49
:103A200003C204222100814818941992FFF786FEF0
:103A300043462200283323CB23C223CB23C203CB0C
:103A400003C2042221007A4816941792FFF776FEEB
:103A500043462200483323CB23C223CB23C203CBCC
:103A600003C204222100734814941592FFF766FEE6
:103A70004546220068350BCD0BC20BCD0BC20ACDDB
:103A80000AC2042221006C4812941392FFF756FEDA
:103A900022006A4B9846083323CB23C223CB23C290
:103AA00003CB03C204222100654810941192FFF752
:103AB00045FE0023B422B3500432B3500432B35055
:103AC0000432B3500432B3500432B35043462200A0
:103AD000283323CB23C223CB23C203CB03C204222C
:103AE000210058480E940F92FFF728FE434622000B
:103AF000483323CB23C223CB23C203CB03C20422EC
:103B0000210051480C940D92FFF718FE4546220003
:103B100068350BCD0BC20BCD0BC20ACD0AC20422F5
:103B200021004A480A940B92FFF708FE2200484BF6
:103B30009846083323CB23C223CB23C203CB03C233
:103B400004222100434808940992FFF7F7FD4346F9
:103B50002200283323CB23C223CB23C203CB03C2AF
:103B6000042221003C4806940792FFF7E7FD4346F4
:103B70002200483323CB23C223CB23C203CB03C26F
:103B800004222100354804940592FFF7D7FD4546ED
:103B9000220068350BCD0BC20BCD0BC20ACD0AC279
:103BA000042221002E4802940392FFF7C7FD220051
:103BB0002C4B083323CB23C223CB23C203CB03C21A
:103BC00004222100284800940192FFF7B7FD9622B5
:103BD00000235200B3500432B3500432B3509FE676
:103BE0000020002070AC011044AB01100420002024
:103BF00030AB011098A9011070200020FC1F00209C
:103C00003CAB0110D827002050AB01105CAB011079
:103C100068AB011074AB01107C7F011098AB0110F0
:103C2000A4AB0110B0AB0110FC7F0110BCAB0110C4
:103C3000C8AB0110D4AB0110E0AB01107C800110C7
:103C4000ECAB011010AC01101CAC011028AC011041
:103C5000FC80011034AC011040AC01104CAC0110E0
:103C600058AC01107C81011064AC01100023FA4FA4
:103C700000223B607B60BB60002362926393012261
:103C8000002362AC6492659321000132F348609492
:103C90006192FFF753FDF24B98462300424643CA18
:103CA00043C343CA43C303222100EE485E945F929C
:103CB000FFF744FD43462200183343CB43C243CBB6
:103CC00043C203222100E8485C945D92FFF736FD71
:103CD00043462200303343CB43C243CB43C203CBE2
:103CE00003C204222100E1485A945B92FFF726FDAB
:103CF0000023FB633B647B64BB64FB643B6543461E
:103D00002200503343CB43C243CB43C203CB03C255
:103D100004222100D64858945992FFF70FFD4646D9
:103D2000220070360BCE0BC20BCE0BC20ACE0AC2DB
:103D300004222100CF4856945792FFF7FFFCCE4E45
:103D4000382231002000103105F076F807222100DA
:103D5000CA4854945592FFF7F1FC3100382248319B
:103D6000200005F069F807222100C54852945392BB
:103D7000FFF7E4FCC34B98462300424643CA43C3C3
:103D800043CA43C303222100BF4850945192FFF716
:103D9000D5FC43462200183343CB43C243CB43C236
:103DA00003CB03C204222100B8484E944F92FFF780
:103DB000C5FC43462200383343CB43C243CB43C206
:103DC00003CB03C204222100B1484C944D92FFF76B
:103DD000B5FC43462200583343CB43C243CB43C2D6
:103DE00003CB03C204222100AA484A944B92FFF756
:103DF000A5FC012300225B42629263932100013201
:103E0000A54848944992FFF799FC01230C225B4294
:103E10006292639321000B3AA04846944792FFF7C1
:103E20008DFC012365225B42629263932100643A18
:103E30009B4844944592FFF781FC012371225B4229
:103E4000629263932100703A964842944392FFF73E
:103E500075FC0023E422BB500432BB500432BB503B
:103E60000432BB500432BB5046460432BB502200E1
:103E700078360BCE0BC20BCE0BC20ACE0AC204227E
:103E80002100894840944192FFF758FC2200874B5B
:103E90009846183343CB43C243CB43C203CB03C240
:103EA0000422210082483E943F92FFF747FC43469C
:103EB0002200383343CB43C243CB43C203CB03C2BC
:103EC000042221007B483C943D92FFF737FC434697
:103ED0002200583343CB43C243CB43C203CB03C27C
:103EE0000422210074483A943B92FFF727FC46468F
:103EF000220078360BCE0BC20BCE0BC20ACE0AC202
:103F0000042221006D4838943992FFF717FC2200F3
:103F10006B4B9846183343CB43C243CB43C243CB8E
:103F200043C21B682100136005226648369437920D
:103F3000FFF704FC43462200403343CB43C243CB4C
:103F400043C243CB43C243CB43C2062221005E4857
:103F500034943592FFF7F2FB4646220070360BCEC2
:103F60000BC20BCE0BC20ACE0AC204222100574854
:103F700032943392FFF7E2FB2200554B9846103300
:103F800043CB43C243CB43C203CB03C20422210031
:103F9000504830943192FFF7D1FB43462200303332
:103FA00043CB43C243CB43C203CB03C20422210011
:103FB00049482E942F92FFF7C1FB4346220050330D
:103FC00043CB43C243CB43C20322210043482C943A
:103FD0002D92FFF7B3FB4646220068360BCE0BC28C
:103FE0000BCE0BC20BCE0BC233682100136005222F
:103FF0003B482A942B92FFF7A1FB2200394B103348
:1040000043CB43C243CB43C203222100364828940A
:104010002992FFF793FBCC2200235200BB500432BD
:10402000BB500432BB5075E40421200008F02AFE86
:1040300008F0D0FE2224651B163C6C433C19BC42A0
:10404000F6D00C3C2068A368191A0028F7D008F0B5
:1040500019FEF4E70225EDE798A90110A4A90110C3
:104060007C7C0110B0A90110BCA90110C8A90110E5
:10407000ECA90110F8A90110FC7C011004AA0110A0
:1040800010AA01107C7D01101CAA011028AA0110A1
:1040900034AA011040AA01104CAA011058AA01101C
:1040A00064AA011070AA011094AA0110FC7D0110ED
:1040B000A0AA0110ACAA0110B8AA0110C4AA01104C
:1040C0007C7E0110D0AA0110DCAA0110E8AA011020
:1040D000FC7E0110F4AA011000AB01100CAB011022
:1040E00018AB01107C7F011024AB01100A25A1E759
:1040F0000B259FE70C259DE70D259BE7102599E7EC
:10410000112597E7122595E7132593E7062591E7F3
:1041100007258FE708258DE709258BE7042589E723
:10412000052587E7032585E7142583E70527192457
:10413000E71B0D3C7C433419B44200D178E70C3CBA
:104140002068A368191A0028F6D008F09BFDF3E751
:104150000627ECE70727EAE70827E8E70B27E6E763
:104160000D27E4E70E27E2E70C27E0E70F27DEE75D
:104170001527DCE71627DAE71727D8E71827D6E749
:104180001127D4E71227D2E71027D0E71E2551E7E1
:104190001F254FE720254DE721254BE7C7E70227DD
:1041A000C5E70327C3E70427C1E7182542E7192518
:1041B00040E71A253EE71B253CE716253AE7172579
:1041C00038E7152536E7C04670B50C00002802D048
:1041D00003689B689847164D04206C60012C0BD037
:1041E000022C15D0002C0DD009F0A4FB040000F027
:1041F00085FD00236B6070BD09F09CFB0400FCF79B
:104200008DFCF8E709F096FB040000F077FDF2E77B
:1042100009F090FB0400FCF781FFECE7042120008B
:1042200008F030FD08F0D6FDF8E7F7E7F6E7C046FE
:104230003CAB0110F0B5C64600B5244E84B024490D
:10424000300007F063FF0321022000F093FF0321F9
:10425000032000F08FFF00220121022000F0A2FFC6
:1042600000220121032000F09DFF1A4B01250024AC
:104270009846194F07E05C2C1AD0682C1FD0802D6F
:1042800020D00134013578231A0022402342F6D091
:10429000782AF4D000230F2200933000E1B20133DA
:1042A0006A4407F0C5FF002804DCE8D1232CE2D1E2
:1042B0003C60E6E72100094805F06AF8F6E7434666
:1042C0001C60DEE704B080BCB846F0BD28150020B5
:1042D000A0860100401400203C140020887A0110C0
:1042E000F0B5184E85B03168002927DB0125002381
:1042F000154F03AC23702200C9B20133380000957A
:1043000007F02EFF31780123220025703800009538
:1043100007F026FF0723317823702200063B380080
:10432000009507F01DFF1323317823702200380019
:104330000095123B07F014FF05B0F0BD034805F0EF
:1043400027F8F9E73C140020281500209C7A01107A
:1043500070B5294C294D2368294E9A002868925936
:1043600084B0821A2A60274A116800291FDB0023C3
:1043700003AA009324480233C9B207F059FF6B46E1
:104380006A461B7B527B00282FDD1802801804F040
:10439000D1FB1E4A1E4B04F046FB04F0E3FB2368EE
:1043A0009A0000281CDB90512A689446604401332F
:1043B00028601D2B00DD00231E21236004F0BEF8C1
:1043C000FF23142200930021FA3BFDF755FB05283B
:1043D00002DA052004B070BDFF28FBDDFF20F9E7FD
:1043E00090592A6894466044E1E723689A009059FE
:1043F0002A6894466044DAE7042C00203426002022
:10440000082C00203C1400202815002033333333BF
:1044100033330340F0B54746CE460022002380B533
:1044200089B0049205930023804604AA08005249EB
:104430000693FDF7F5FE049B00269946059B002593
:1044400003934B456AD04D4F8021404608F032F926
:10445000059A049B0392D01AC010810009180A0122
:1044600089180A0289180A048A1852001218AA42E6
:1044700065D900220024914621E03868002808D040
:104480001B6841461A5D4B46303A0093002300F00A
:104490003DFEFA20800001F0BFFD059A049B0392C7
:1044A000D11AC9108A0052181001121810021218DD
:1044B00010041218520052180134AA423FD99B1915
:1044C0005A68A242D9D80A21404608F0F3F8FA20E7
:1044D000C00001F0A1FD059B049C99461A1BD21057
:1044E00093009B1819015B1819025B1819045B18DB
:1044F0005B0001359B181836AB42A5D84C450DD052
:10450000230020680833984215D0A3681834591C3A
:1045100008F0B8FBA145F3D1049B99464B46002B0C
:1045200004D006994846C91A08F0ACFB09B0C0BCD3
:10453000B946B046F0BD1834A145E1D1ECE72900F9
:104540000F4809F0E5FC049C059DA54208D104989C
:104550000699091A002801D008F094FB08F03AFCEB
:10456000230020680833984203D0A368591C08F040
:1045700089FB1834E9E7C0461CA50110D8270020A4
:10458000AC780110F0B546464F46D6468468031D08
:10459000C0B5884606009946002C67D04D460B688A
:1045A00003E02500A468002C05D022699342F8D9C5
:1045B000E468002CF9D1A94558D02A6993422DD23C
:1045C0002C2009F0B7F943461B68846203619846C2
:1045D00003001833036243622B6907009A4604768E
:1045E000C461434521D9F3689A46AB420BD02800F9
:1045F00009F070FB03690400434500D38BE0C368F6
:10460000002B00D176E02C003D0001204B4622001B
:10461000290009F07BFB73690133736128001430B2
:10462000E0BCBA46B146A846F0BDC24516D23369D1
:10463000AB4209D0280009F037FB03690400434569
:104640005AD9EB68002BDFD12C003D002AE0230073
:10465000002945D190453ED82F0025000020FFF7C6
:10466000A1F82C21380008F00DFBD7E72C2009F029
:1046700061F943461B6802009846036100230376F4
:10468000C361836273691832050002624262002BC3
:104690000CD034692369434508D20120A145B5D027
:1046A00023699A46D04580414042AFE7B468002C68
:1046B00005D114E00121A368002BC8D01C00226999
:1046C0004245F7D80021E368F6E72B00002932D1F4
:1046D0009045C3D93D00002B41D01C00DDE74C467E
:1046E000F368A342D9D0200009F0F4FA230002694C
:1046F0000400AFE73D00D0E7B568002D05D12CE000
:104700000121AB68002B1FD01D002A699045F7D30B
:104710000021EB68F6E7B568002D05D10AE001211C
:10472000AB68002BD1D01D002A694245F7D8002183
:10473000EB68F6E74D46AA450CD0280009F0CAFA06
:104740002B0002690500C3E72B000029C0D0F368E5
:10475000AB42F2D12B003D00BDE74D46F7E72F00FD
:1047600000257BE770B504680500002C11D0636854
:10477000013B6360002B0CD1236820009B689847A5
:10478000A368013BA360002B03D123682000DB68F2
:104790009847280070BDC046F0B5DE4645465746EE
:1047A0004E46E0B5A3B004F0FFFD192000F012FD65
:1047B000D02380221B0692045A625A61FEF79EF8AB
:1047C000FA20C00001F028FC16ADD44804F0E0FD4A
:1047D000FDF748F92A00D24B149503CB03C20823F6
:1047E0001593002314AC20002374FDF7AFF8149840
:1047F000A84203D0A368591C08F044FAFFF71AFD39
:10480000FFF76EFD0023C74F09AD2900380009935B
:10481000FFF7B8FE8368061D002B09D01A009B68BD
:10482000002BFBD1964203D01369002B00D199E1F4
:1048300029003800FFF7A6FE0430864200D02EE2A1
:10484000202009F077F80023049303330393023BFD
:10485000029301330193713300930022B249633B09
:10486000060008F0B5F8002310200E960F9309F00B
:1048700061F8012343608360AC4BC66003600F9016
:1048800029003800FFF77EFE8368021D070091466D
:10489000002B00D1A1E11E009B68002BFBD1B1458C
:1048A00002D03369002B14D01C2009F043F80023F8
:1048B00080460361436183614E4500D167E13369FE
:1048C000002B00D050E14046B0461C2108F0DAF938
:1048D00046460E9BB76973610F9B9846BB4218D042
:1048E000002B03D042465B6801335360002F0ED08B
:1048F0007B68013B7B60002B09D13B6838009B68DB
:104900009847BB68013BBB60002B00D14FE1434699
:10491000B3610F9B0E990F9A14911592002B02D040
:104920005A6801325A6021000BA807F09DFE15A8B5
:10493000FFF718FF0FA8FFF715FF7D4B01211B683C
:1049400018000793FFF740FCD02380221B06920437
:104950009A61784B9946784B9A46784B9B4628004B
:10496000FDF784F80523EB56072698464B460627A5
:10497000AE571B68EF579E420BD04B461E606C4BE8
:104980001868002805D03B00424600960BA900F0AD
:10499000BDFB53461B68BB4206D05346320039006C
:1049A00040461F60FEF752FA5B461868002855D053
:1049B000634B644E1A683060824206D01860FEF77E
:1049C0003BFD31780BA807F075FE2000FDF7D4FE03
:1049D0002378002B2BD0E26961685B4804F0D8FC97
:1049E0005A4915A809F0A0FD00283AD1E36910AF93
:1049F0009846266A0E97002B74D008960F2E62D820
:104A0000012E00D0A8E038211B7802AA521813709A
:104A10003A0000230F960EA89355FCF797FF0E98C7
:104A2000B84204D0109B591C079308F02BF964205E
:104A300001F0F2FAE0691DAB984203D0636A591C99
:104A400008F020F9606817AB984288D0E368591CD9
:104A500008F018F92800FDF709F883E7FFF778FC5C
:104A6000A6E73B4915A809F05FFD00280AD1E069D7
:104A700010F0BCFC00283ADBFF2800DDFF205B467D
:104A80001860D4E7334915A809F04EFD0028CED1AF
:104A9000E36910AF9846266A0E97002B38D0089627
:104AA0000F2E26D8012E00D091E038211B7802AAC3
:104AB000521813703A0000230F960EA993550BA8B5
:104AC000FFF7A8FCABE7002208A90EA809F00EFB2F
:104AD000089B0E9010933200414604F0ADF9089EF9
:104AE0000E9A96E7002E00D098E03A0091E7002059
:104AF000C5E7002208A90EA809F0F8FA089B0E9055
:104B000010933200414604F097F9089E0E9AD2E7BE
:104B1000002E00D07FE03A00CDE7C046B07A011009
:104B2000B87A01107020002000002050687C01102D
:104B3000D8270020481400204414002064270020B7
:104B4000E42B002038140020C47A011070A3011057
:104B5000D47A0110D87A01103A00002E00D158E71B
:104B60003800B8E7160063E6F9688E4224D00122C7
:104B70004E469446BB6803E0624698681E000300F8
:104B8000002B37D01A69002AF6D1D868F6E7BE683C
:104B90009E423ED0012104E00A00B368002B1ED0E3
:104BA0001E003369002BF7D10022F368F6E73B685B
:104BB0003800DB689847AAE601204B4632004146A0
:104BC00009F0A4F87B69464601337B6181E63A002F
:104BD000002E00D16FE7380093E7160064E6002A44
:104BE00000D170E6FB68B3420CD0300009F072F8D7
:104BF000060068E6002A00D165E6B142F5D1002E34
:104C000000D160E6B145D7D03069431E9841C0B2AB
:104C1000D3E74E46E6E72E4809F04AF92C4809F05A
:104C200047F90E98B84203D01099013108F02AF8DC
:104C3000E0691DAB984203D0636A591C08F022F862
:104C4000606817AB984209D10BA807F019FD08F06E
:104C5000C1F80FA8FFF786FD08F0BCF8E168013144
:104C600008F010F8F0E71498A842F0D0A1680131DC
:104C700008F008F8EBE708F09BF93000FEF750FD6C
:104C800008F020FE08F0CEF908F0A4F8202130004A
:104C900007F0F8FF08F09EF8C3E7C9E7D4E704205F
:104CA00008F05AF80400042008F044FE094B206084
:104CB000036000222000084908F0EAFD15A8FFF76C
:104CC00051FDC6E7200008F05DF808F083F8C04603
:104CD00030790110547C0110C07B011010B5012007
:104CE000FEF7BCFD10BDC0467047C04610B50400BD
:104CF000042107F0C7FF200010BDC046014B083358
:104D0000036070474C82011030B510000D0083B075
:104D1000032948D03C2103F011FC8C00A9006D1838
:104D200028012D186519EDB22B21280003F02EFC67
:104D3000FF21C2B28006801A80008018800080188F
:104D40008000801840194300C3185B00DBB21802D2
:104D5000C01A0012081ACB1A0402201A1C02E31A05
:104D60001B12CB1A1902C91A00120912C0B2C9B219
:104D7000042A03D8154C9300E3589F4602000021F3
:104D8000FF2001AB9A70002218705970DA705978C0
:104D900018789A780902DB78120408431B0610433E
:104DA000184303B030BD0A4B019301ABEFE700227B
:104DB000FF21E6E70100FF220020E2E70800FF22D2
:104DC0000021DEE70A000020FF21DAE7A4810110BC
:104DD0008080808010B50C6888B00A2C1ADC4A6884
:104DE000092A17DC93009B1858008018D3070FD5A9
:104DF000001B0A30C343DB0F0A2800DD01336228A1
:104E000000DD01336D2800DD0133C01808B010BD8E
:104E10000019EFE71C23002201A904AC02A80193AA
:104E2000029409F063F9019B1C220F49049302903C
:104E300004F002F80022019B0299039302A8CA54CD
:104E4000FEF7BEFB0298A04203D00499013107F09F
:104E500019FF0020DAE70298A04203D0049901313B
:104E600007F010FF07F0B6FFB8810110F0B54E460D
:104E700045465746DE46E0B51F0015685368804634
:104E80008946160089B09D426CD03C21129803F0EF
:104E900055FBBB00FB1818011B188C00E418E4B28A
:104EA0002B21200003F072FBC3B29A46FF2180063B
:104EB000C01A8000504480005044800050440019C3
:104EC0004300C3185B00DBB21A02D21A12128A1A0C
:104ED0001002821A1212D2B20292CA1A13029B1A3A
:104EE0001B12CB1A1A02D31A1B12DBB203935346BE
:104EF0009A009346344B00249B443B0057469A4605
:104F0000E300EB181D685B685A1C47D02F4A1278E3
:104F1000002A03D00922D31A0132551B06A94046A4
:104F200007930695FFF756FF5346411C032B30D0DD
:104F3000042F44D85B461B689F460020FF22029B3B
:104F40000025120200041A4302432D062A43484654
:104F5000059207F0B5FB3568736801345B1BDB1005
:104F6000A342CDD809B0F0BCBB46B246A946A04684
:104F7000F0BD3800FF23039AE2E7FF200022039BE5
:104F8000DEE7FF200023029ADAE7FF2200230398DE
:104F9000D6E78025802080228023D2E7129A5146CE
:104FA0004046FFF7B1FE732101900490280003F002
:104FB000C5FA4846019A013107F082FBCBE700228F
:104FC000FF230298BCE7C046D88101103CAB01101A
:104FD000F0B5D64646464F464B4BC0B59A468AB0CA
:104FE00002AD2B0052460F00060013CA13C313CAAA
:104FF00013C303CA03C3202008F09CFC202229000D
:10500000804603F019FF002300220292039300233D
:105010002020AB6008F08EFC2023994681444B464B
:10502000202241460290AB6003F006FF4B466B60C6
:10503000129B2A000093390000233000FFF716FF6F
:105040000298002803D0AB68191A07F01BFE5446DB
:105050002A0020340BCC0BC20BCC0BC220200ACC74
:105060000AC208F067FC20222900040003F0E4FED5
:10507000002300220292039300232020AB6008F05B
:1050800059FC2023994681444B462022210002905E
:10509000AB6003F0D1FE4B466B60129B2A0000937D
:1050A000390001233000FFF7E1FE0298002803D009
:1050B000A968091A07F0E6FD2000202107F0E2FDAB
:1050C0002021404607F0DEFD0AB0E0BCBA46B146FA
:1050D000A846F0BD2021404607F0D4FD07F07AFE37
:1050E0000298A968091A002801D007F0CBFD2021F9
:1050F000200007F0C7FDEDE7F9E70298A968091A53
:105100000028F6D1E6E7C046EC810110F0B5C646AE
:1051100005000C0016001F0000B5080082B007F063
:1051200097FB089A2B6800921B6832009846210072
:105130003B002800C047200007F09CFB02B080BC69
:10514000B846F0BD0022084B191DD9601961074906
:105150001A719A605A610B6801330B60012B02D1FE
:10516000034B1A605A60704788200020FC1F002003
:105170003CAB0110094A830094464022634410B5B9
:105180001C68C0006240C0241440802252011343B6
:105190001C60034B9C466044416010BD04C001404C
:1051A000004001400A4B80009C46042360440029D3
:1051B00001D00C230821002A00D10B0002685340C3
:1051C0000C221A4080235B01184302607047C046DE
:1051D00004C001400123D0228340120693629361F0
:1051E000094A83009446402263441968C0004A403B
:1051F000C02111408022520113431960034B9C4689
:10520000052360444360704704C0014000400140F2
:10521000EFF3108072B6034A1368002BFCD0BFF383
:105220005F8F70472C0100D0BFF35F8F0022024BCD
:105230001A6080F3108870472C0100D070B5EFF32E
:10524000108C72B60D4D2B68002BFCD0BFF35F8F16
:105250000724CB08C618C05C01230C40A3401C00E7
:105260000440034207D103433370BFF35F8F2C60C8
:105270008CF3108870BD100001F0EAFB2C0100D007
:10528000F8B54746CE46884680B5EFF3108C72B627
:10529000214D2C68002CFCD0BFF35F8F9A422CD894
:1052A000D4080727055D061901241740BC402C428D
:1052B0001FD007210127894609E0D408055D06199A
:1052C0004C4639001440A1400C00294211D0013253
:1052D0009342F2D201204042BFF35F8F00220E4B77
:1052E0001A608CF3108800280FDBC0BCB946B046AA
:1052F000F8BD2C4310003470EEE7BFF35F8F00233E
:105300002B608CF31088012040424346002BECD0E8
:10531000089801F09DFBC0462C0100D0024B186894
:105320008007C00F7047C04600C006400021044BF4
:10533000044ABFF35F8F02C39342FAD17047C0465D
:10534000000100D0800100D0044A1078431CDBB279
:10535000172B00D9102313707047C0464C1400203F
:1053600000B5054B83B00100009318221F230348AA
:10537000FFF786FF03B000BD6082011038270020D0
:1053800001238340002904D0034A1360034A1360B9
:105390007047034A1360FBE780E200E000E100E0B1
:1053A00080E100E001238340014A13607047C0465A
:1053B00000E200E0084B10309B688000C358002BCF
:1053C00007D0064A00209B1A2F229A424041C0B2C1
:1053D00070470020FCE7C04600ED00E050140020BC
:1053E000024B10309B688000C058704700ED00E011
:1053F00070B50D00EFF3108672B60F4A1368002BDC
:10540000FCD0BFF35F8F0D4B10309B6884001B599D
:105410000B4A934203D09D4201D001F031FB074B70
:105420009B681D51BFF35F8FBFF35F8F0022024B5C
:105430001A6086F3108870BD240100D000ED00E0F2
:10544000CD010010F0B557464E46DE464546E0B564
:1054500085B0060002911700EFF3108B72B6674A11
:105460001368002BFCD0BFF35F8F0025644B5D57A2
:105470009A46002D00DAA5E06B00624C03935B199D
:105480009B009846A146C1444B4652469B79103634
:1054900013705D4BB2009B68019299580B1B2F2B28
:1054A00034D95A4B994200D0A5E0039B584A9C46F8
:1054B000584B6544AD006353434602336519E41805
:1054C000554B0121043B1B1B1B055B0D13436B80DC
:1054D000524BEF71AB80FF23AB71029BAB604B462D
:1054E0000B431900484B019A9B689950BFF35F8F9B
:1054F000BFF35F8F0022414B1A608BF3108805B019
:10550000F0BCBB46B246A946A046F0BD01200A0049
:105510008243D379BB422FD845464E4613004049BB
:105520001B1B5B415943090D3A4B63533A4B023500
:105530006519043B5B1B1B05354D5B0D2B437380CD
:105540000426B446E0444444131F1B1B4C46A1717F
:1055500002991B05A16049465B0D2B43A380314B8B
:10556000E77101431360BDE75800C01880002018A0
:10557000C679BE422CD902000623D356002BF3DA9B
:10558000101D8246BD200002804604267642B446A5
:10559000E14450464E46361A3005400D8246564686
:1055A0001B48957106439680039A944665441D4AAC
:1055B000AD00641922604246A371029BA280E7718C
:1055C000A3608FE701F05CFA002553465D5753E76F
:1055D000101D824690884005001584464046D444FC
:1055E000664604302018301AE0260005400D3602C9
:1055F00030438046C9E701F043FA56E7240100D062
:10560000C72D00205014002000ED00E0CD01001057
:1056100000E0FFFF00A1FFFF8014002000BDFFFF9E
:10562000AAAA000001488047F0B5DE4657464E461C
:105630004546E0B50C0083B0EFF3108A72B65A4AC3
:105640001368002BFCD0BFF35F8F1022914681447A
:105650004A46564B96009B689D59554B98469D422D
:1056600005D0A54216D0534FEB1B2F2B14D94F4B0F
:105670009B689D51BFF35F8FBFF35F8F00224A4B42
:105680001A608AF3108803B0F0BCBB46B246A94644
:10569000A046F0BD1D00EAE7012383409B465A4621
:1056A000454B1B681A4000925A46444B1A60BFF3A0
:1056B0005F8FFAF7D8FD0190002803D0814501D013
:1056C00001F0DEF901232A009A4393689C4208D135
:1056D0005FE04B005B189B00FB189968A14211D05A
:1056E0001A00062151560029F3DA009B002B05D041
:1056F0005A46334B1A60304B1A60B8E75A462F4B64
:105700001A60B4E706215956002921DB4A005018D7
:1057100080003C188046A0689860E079D871062027
:1057200020569871002824DBA488F81A64052415F3
:1057300044440019E0240005400D240220439880D1
:105740005218204B9200BF181A781970BA71CCE722
:105750000199002910D1FF3191711B49918019499C
:105760000A789A71194ADB1B5B415A43120D0A7081
:10577000BBE7BD200002E2E7154A1649D21A083AF3
:105780005002400D01439980134952080A43DA80C0
:10579000ABE70621515613000029B7DA019A002A17
:1057A000EAD14546DBE7C046240100D000ED00E029
:1057B000CD0100105014002000E100E080E100E085
:1057C00080E200E0C72D002000BDFFFFAAAA000074
:1057D0008A14002000F0FFFF00F8FFFFF8B5012554
:1057E00004000543FAF73FFDEFF3108C72B6214A2F
:1057F0001368002BFCD0BFF35F8F1F4E2100B768EA
:105800001E4A1F4B891A49414B431B0D59B2830055
:10581000F858A8421CD00623D3568B421CD0122322
:10582000D3568B4222D01E23D3568B4220D02A231C
:10583000D35603208B4210D0124B1A781970A271E4
:10584000BFF35F8F00220B4B1A608CF31088F8BDFA
:10585000B2680D48D050EFE7002043001B189B00B2
:10586000D218FF239371094B9380E5E70120F4E7F9
:105870000220F2E7240100D000ED00E050140020E7
:10588000AAAA0000C72D0020CD01001000BDFFFF17
:10589000054B064A1360064A136053609360D36059
:1058A00013615361936170478080808000E400E061
:1058B00004E400E0D02300B51B061B680100074884
:1058C00083B0C018064B002200930523FFF7D8FCD5
:1058D000002801DB1F23181A03B000BDC02D0020D3
:1058E0007C820110024B9C46614489000160704734
:1058F0004000003483680B4810B58446614462441C
:10590000090112019A18591854684B6801209C42E9
:1059100001D802D00020C0B210BD12680B689A42B4
:10592000F9D8F7E7FFFFFF0F0A4B1968EFF3108074
:1059300072B60A68002AFCD0BFF35F8F1B68BFF302
:105940005F8F00221A6080F3108840BF0020002182
:105950007047C0468C2D0020F8B557464E46454648
:10596000DE46E0B599460CAB1C780DAB1B78060003
:1059700090469A460768002C11D1BC7B002C42D07F
:1059800065003B682D19033D59194B78BB73002BFB
:1059900000D1FB7300238B704B700B7004E065002B
:1059A0003B682D19033D5919B2682A4B944642466B
:1059B000E3181B0163441A604A465A600A9A9A60C7
:1059C0000B9ADA6000238B704B700B707B7B9B46CD
:1059D000002B2BD022005946B8687B6898473A685C
:1059E000002816D05B4658465B005B445519033BC4
:1059F000A870D118D35C002B00D06B705B460C7084
:105A00007B73A34513D0F0BCBB46B246A946A04663
:105A1000F8BD5B465B005B44033BD3189C70511997
:105A2000525D002A00D05A705B460B707C73424670
:105A30004B46307D00F068FC051E06D05346002B17
:105A400003D12100306800F081FE0E9B002BDAD0DC
:105A50001D70D8E7FFFFFF0FF0B5DE464E465746F4
:105A600045460023E0B58DB00A936B4B8200D358B6
:105A70000B90994600239B464B46079300F0BAFBD8
:105A8000079C06000F006268EFF3108572B613687A
:105A9000002BFCD022000794BFF35F8F2468637B48
:105AA0009946002B67D092685C4B90464B441B0193
:105AB000984443461A685B6810001900801BB9417E
:105AC00000295FDD0B9800F01FFC0023002698469C
:105AD00000279A46079C6368BFF35F8F5A461A6097
