:020000041000EA
:1000000000B50C4B00219960042159610A4919601F
:100010000A490B480160002159600121996001BC27
:10002000002800D0004707480749086003C880F34C
:10003000088808470000001800031F00180200038A
:10004000F40000180001001008ED00E000000000BE
:1000500000000000000000000000000000000000A0
:100060000000000000000000000000000000000090
:100070000000000000000000000000000000000080
:100080000000000000000000000000000000000070
:100090000000000000000000000000000000000060
:1000A0000000000000000000000000000000000050
:1000B0000000000000000000000000000000000040
:1000C0000000000000000000000000000000000030
:1000D0000000000000000000000000000000000020
:1000E0000000000000000000000000000000000010
:1000F0000000000000000000000000002CEC210DBA
:1001000000200420F7010010C3010010C5010010F9
:10011000C1010010C1010010C1010010C101001097
:10012000C1010010C1010010C1010010C701001081
:10013000C1010010C1010010C9010010CB01001065
:10014000CD010010CD010010CD010010CD01001037
:10015000CD010010CD010010CD010010CD01001027
:10016000CD010010CD010010CD010010CD01001017
:10017000CD010010CD010010CD010010CD01001007
:10018000CD010010CD010010CD010010CD010010F7
:10019000CD010010CD010010CD010010CD010010E7
:1001A000CD010010CD010010CD010010CD010010D7
:1001B000CD010010CD010010CD010010CD010010C7
:1001C00000BE00BE00BE00BE00BE00BE00F04BF888
:1001D000103800BEF2EB8871581502108415021019
:1001E0003402001090A31AE700202149086006C8D5
:1001F00081F3088810471F48006800282FD10DA4FC
:100200000ECC002902D000F012F8F9E71A491B4A77
:10021000002000E001C19142FCD1194988471949E9
:1002200088471949884700BEFDE701C901C29A42C3
:10023000FBD3704784150210C0000020081F002067
:10024000CC3302100000042000000420CC33021044
:1002500000100420001004200000000070470B482C
:100260000CF0BEFA0047EFF30580C0B27047000003
:1002700008ED00E0000000D0081F00201435002029
:100280002DAC00103D8F001055AD001057560000EA
:1002900006005250ABB36053D4D401100600525044
:1002A000861C0302F0D40110060052505422A29D75
:1002B000FCD4011005005250DE65F468CC33021006
:1002C000F8B5C04610B5064C2378002B07D1054B76
:1002D000002B02D0044800E000BF0123237010BDB2
:1002E0001021002000000000B0B90110044B10B52F
:1002F000002B03D00349044800E000BF10BDC046F6
:100300000000000014210020B0B901107047C04661
:1003100010B50B22002104300CF05CFF10BDC0466C
:10032000401800797047C046002905D00A2903D03B
:1003300040180271012070470020FCE710B504004E
:10034000102110F073FE200010BDC0460368064A5D
:10035000DB6810B5934205D10B22002104300CF06C
:1003600039FF10BD9847FCE711030010014B08331B
:100370000360704718BA0110F0B506000836040093
:100380000D0083B00660002924D008001AF074FB29
:10039000070001900F280CD8012807D12B78237271
:1003A000002360603354200003B0F0BD0028F7D074
:1003B00008E00022200001A912F0C0F90600019B0C
:1003C0002060A36030003A0029000CF009FF01987A
:1003D0002668E5E7014811F0A1FFC046B0B9011059
:1003E00070B584680600002C1FD0636A2568002B56
:1003F00004D020001C3003220100984723006068CD
:100400000C3398420BD0E368591C10F00FFE3021DA
:10041000200010F00BFE002D07D02C00E5E7302166
:10042000200010F003FE002DF7D1736800219A0020
:1004300030680CF0CFFE0023F360B3603300306807
:1004400018337168984202D0890010F0EFFD300037
:1004500070BDC046F0B557464E46DE464546E0B54F
:100460008269036983B09346C269009343699046E9
:10047000426A1F1D8146924686680193BA4212D98C
:100480003C682500F935FF35230020680833984281
:100490005AD0A3681834591C10F0C8FDA542F3D1F6
:1004A0000437BA45ECD8019B9A4540D0009B9E4248
:1004B0000CD0330030680833984252D0B3681836F5
:1004C000591C10F0B3FD009BB342F2D1C3450ED0CE
:1004D00043461868083398423DD043469B68591CF0
:1004E00010F0A4FD18239C46E044C345F0D14B46D0
:1004F0001868002812D05C695B6A1D1DAC4208D2E6
:10050000FC2101CC490010F091FDA542F8D84B46E2
:1005100018684B465B68990010F088FD484603B0A8
:10052000F0BCBB46B246A946A046F0BD1836B3455E
:10053000DDD03300306808339842F7D0B3681836FE
:10054000591C10F073FDF2E71834A5429CD1043712
:10055000BA4595D8A7E718239C46E044C345B7D1D0
:10056000C5E7009B1836B342A3D1AFE730B5654B62
:1005700083B01A68541C1C60012C22D0624B1A688C
:10058000541C1C60012C0ED1604D1022280000214B
:100590000C300CF01FFE5E4B6C602B600023AB60D8
:1005A000FE239B052B615B4A136801331360012B0B
:1005B00041D0594A136801331360012B35D003B081
:1005C00030BD564D5649280001AAFFF7D5FE5549C2
:1005D000554801AAFFF7D0FE5449554801AAFFF734
:1005E000CBFE5449544801AAFFF7C6FE534954486C
:1005F00001AAFFF7C1FE5349534801AAFFF7BCFE09
:100600005249534801AAFFF7B7FE5249524801AA7E
:10061000FFF7B2FE5149524801AAFFF7ADFE51491A
:10062000514801AAFFF7A8FEA8E73D4901AA4F4893
:10063000FFF7A2FEC3E700234D4C20202360A360F8
:10064000E36023616361A361E36123626362083352
:10065000636011F0A5FB050063682060581E400828
:1006600080002D18FC20400011F09AFB0300F933A4
:10067000FF3328606561E06023616562E0612362A9
:10068000A060A06195E7092409231B1B18245C4383
:100690002C19AC4226D110F071FD0824F4E7072490
:1006A000F2E70624F0E70224EEE7EDE70024EBE7AB
:1006B00010F052FE11F0DAFA0424E5E70524E3E72E
:1006C0000324E1E7050010F081FE280010F044FE4D
:1006D00063682068990010F0A9FC00232360636020
:1006E00011F0C4FA183C2300206808339842D0D097
:1006F000A368591C10F09AFCCBE710F067FE10F0CD
:100700003DFDC046502100204C210020C421002086
:10071000DC2100204821002044210020E02100208D
:1007200074C7011048F40110F8210020DCB9011051
:1007300010220020E0B9011028220020A0F70110AB
:1007400040220020E4B9011058220020E8B901102D
:1007500070220020ECB9011088220020F0B90110AD
:10076000A0220020F4B90110B8220020842100202A
:100770009C2100207047C0460A2907D8836AC918FF
:1007800080235B059C466144087870470020FCE7A5
:1007900010B50400034B08330360FFF7B7FD2000DA
:1007A00010BDC04660BA011010B50400054B0833F7
:1007B0000360FFF7ABFD20002C2110F037FC200078
:1007C00010BDC04660BA011070B50500EFF3108689
:1007D00072B6C369002B0CD00024AB6A80219C4602
:1007E0002003604449011BF09BF8EB690134A342EC
:1007F000F3D886F3108870BDF0B5C64600B5040086
:100800000E00904600AF0A295FD843691A026B4672
:100810009B1A9D4600236D462B70681C012A03DD40
:100820000021013A0CF0D6FC80232900A26A5B0566
:10083000D318194389074DD12F498C466244AA1A0F
:10084000022A47D91A682A605A686A601A7A2A7294
:100850005A7A6A729B7A294AAB724346AB5523682F
:10086000DB68934233D1EFF3108872B6E369002B53
:100870000CD00026A36A80219C46300360444901C5
:100880001BF04EF8E3690136B342F3D888F31088C1
:10089000EFF3108872B66369002B0FD00026A36AAD
:1008A00080229C4630022900604452001BF000F870
:1008B000636901350136FF35B342F0D888F31088FB
:1008C0000120BD4680BCB846F0BD0020F9E72000FD
:1008D0009847DDE71A782A705A786A709A78AA7071
:1008E000DA78EA701A792A715A796A719A79AA7152
:1008F000DA79EA71AAE7C04601000010C9070010C2
:1009000010B50400FFF732FD094B80220833236045
:100910000B2323610A3B6361E36180235B01236254
:1009200000236362034B52002000A261A36210BD4A
:1009300060BA011000F07F0030B5654B83B01A68D3
:10094000541C1C60012C22D0624B1A68541C1C6081
:10095000012C0ED1604D1022280000210C300CF02B
:1009600039FC5E4B6C602B600023AB60FE239B0563
:100970002B615B4A136801331360012B41D0594A44
:10098000136801331360012B35D003B030BD564DD1
:100990005649280001AAFFF7EFFC5549554801AA1E
:1009A000FFF7EAFC5449554801AAFFF7E5FC544912
:1009B000544801AAFFF7E0FC5349544801AAFFF745
:1009C000DBFC5349534801AAFFF7D6FC5249534870
:1009D00001AAFFF7D1FC5249524801AAFFF7CCFC0B
:1009E0005149524801AAFFF7C7FC5149514801AA91
:1009F000FFF7C2FCA8E73D4901AA4F48FFF7BCFC3E
:100A0000C3E700234D4C20202360A360E3602361F3
:100A10006361A361E361236263620833636011F081
:100A2000BFF9050063682060581E400880002D183B
:100A3000FC20400011F0B4F90300F933FF332860C3
:100A40006561E06023616562E0612362A060A0618E
:100A500095E7092409231B1B18245C432C19AC427D
:100A600026D110F08BFB0824F4E70724F2E70624D4
:100A7000F0E70224EEE7EDE70024EBE710F06CFC72
:100A800011F0F4F80424E5E70524E3E70324E1E7A3
:100A9000050010F09BFC280010F05EFC63682068E5
:100AA000990010F0C3FA00232360636011F0DEF8B0
:100AB000183C2300206808339842D0D0A368591C02
:100AC00010F0B4FACBE710F081FC10F057FBC046F1
:100AD000502100204C210020C4210020DC210020D6
:100AE0004821002044210020E021002074C701108B
:100AF00048F40110F8210020DCB901101022002078
:100B0000E0B9011028220020A0F7011040220020A7
:100B1000E4B9011058220020E8B901107022002029
:100B2000ECB9011088220020F0B90110A0220020A9
:100B3000F4B90110B8220020842100209C2100205B
:100B40007047C04610B50400034B08330360FFF73D
:100B5000DDFB200010BDC046A8BA011010B504008E
:100B6000054B08330360FFF7D1FB2000142110F080
:100B70005DFA200010BDC046A8BA0110D023802223
:100B800000B51B0685B092049A616A46084B1B7833
:100B900013730123C27B5218D2B201690093054836
:100BA00003AB03F077FE6B46187B05B000BDC04673
:100BB00074C70110481600200F4BF0B54746CE46CB
:100BC0009946002380B5060000249846012785B089
:100BD00003AD4346F27B2B7012192B004846316956
:100BE000D2B20097013403F02DFE0B2CF1D105B0E9
:100BF000C0BCB946B046F0BD4816002010B5040090
:100C000084B000200A290DD803AB1A70E27B0130B2
:100C10005218009021690448D2B203F013FE431E1B
:100C20009841C0B204B010BD4816002070B5040051
:100C30000D00FFF79BFB044B2000083323600123CA
:100C40002561E37370BDC046A8BA011030B5654B8D
:100C500083B01A68541C1C60012C22D0624B1A68A5
:100C6000541C1C60012C0ED1604D10222800002164
:100C70000C300CF0AFFA5E4B6C602B600023AB6065
:100C8000FE239B052B615B4A136801331360012B24
:100C900041D0594A136801331360012B35D003B09A
:100CA00030BD564D5649280001AAFFF765FB55494E
:100CB000554801AAFFF760FB5449554801AAFFF7C0
:100CC0005BFB5449544801AAFFF756FB534954486B
:100CD00001AAFFF751FB5349534801AAFFF74CFB08
:100CE0005249534801AAFFF747FB5249524801AA0B
:100CF000FFF742FB5149524801AAFFF73DFB51491A
:100D0000514801AAFFF738FBA8E73D4901AA4F481F
:100D1000FFF732FBC3E700234D4C20202360A36084
:100D2000E36023616361A361E3612362636208336B
:100D3000636011F035F8050063682060581E4008B4
:100D400080002D18FC20400011F02AF80300F93330
:100D5000FF3328606561E06023616562E0612362C2
:100D6000A060A06195E7092409231B1B18245C439C
:100D70002C19AC4226D110F001FA0824F4E707241C
:100D8000F2E70624F0E70224EEE7EDE70024EBE7C4
:100D900010F0E2FA10F06AFF0424E5E70524E3E727
:100DA0000324E1E7050010F011FB280010F0D4FA4D
:100DB00063682068990010F039F9002323606360AC
:100DC00010F054FF183C2300206808339842D0D01C
:100DD000A368591C10F02AF9CBE710F0F7FA10F0CD
:100DE000CDF9C046502100204C210020C421002014
:100DF000DC2100204821002044210020E0210020A7
:100E000074C7011048F40110F8210020DCB901106A
:100E100010220020E0B9011028220020A0F70110C4
:100E200040220020E4B9011058220020E8B9011046
:100E300070220020ECB9011088220020F0B90110C6
:100E4000A0220020F4B90110B82200208421002043
:100E50009C2100207047C04610B503685B68984726
:100E600010BDC04610B50400034B0833036002F008
:100E7000A9FF200010BDC04650BE011010B50400EF
:100E8000054B0833036002F09DFF2000042110F0A1
:100E9000CDF8200010BDC04650BE01100023F0B5B3
:100EA000036043608360154B04000E0083B0D500DF
:100EB0009D4216D8002D0ED0280010F071FF471962
:100EC0002060A760002D0AD02A0031000CF088F9BC
:100ED000676003B0F0BD002705608560F8E7070094
:100EE000F6E7074811F032FA2068A168091A0028CD
:100EF00001D010F09BF810F041F9C046F8FFFF7FD9
:100F0000C8BA0110F0B5C646040000B5002825D0C7
:100F10001A4B1B4F98462600E068FFF7F3FFB569B0
:100F2000A468002D14D06B68013B6B60002B0FD1BF
:100F30002B689B68BB4214D1AB68013BAB60002BB4
:100F400006D12B68DA6842450ED128005B689847C5
:100F50001C21300010F06AF8002CDCD180BCB846AF
:100F6000F0BD28009847E7E7280090471C21300093
:100F700010F05CF8002CCED1F0E7C046590E0010FE
:100F8000550E0010F0B5DE4657464E464546E0B5D4
:100F9000834685B0002800D199E05B46DB68019369
:100FA000002B00D186E0019BDB689946002B72D0B4
:100FB0004B46DB689A46002B60D05346DC68002C19
:100FC00042D0E668002E27D0F3689846002B2FD039
:100FD0004346DD68002D44D0EF68002F10D0F8683C
:100FE000FFF7D0FF3B00DA69BF681000029303925D
:100FF000FFF788FF2C21029810F018F8002FEED18F
:10100000AF68E869FFF77EFF2C21280010F00EF88A
:10101000002F26D03D00DFE7A568E069FFF772FFEB
:101020002C21200010F002F8002D0DD02C00C8E774
:10103000B568F069FFF766FF2C2130000FF0F6FF6E
:10104000002DE9D02E00BFE753469C68D869FFF712
:1010500059FF2C2150460FF0E9FF002C0ED0A2467C
:10106000ABE743469D68D869FFF74CFF2C2140460B
:101070000FF0DCFF002DDBD0A846A9E74B469C68AB
:10108000D869FFF73FFF2C2148460FF0CFFF002C17
:1010900001D0A1468CE7019DEB69AC681800019373
:1010A000FFF730FF2C2128000FF0C0FF002C01D0EB
:1010B000019478E75B469C68D869FFF723FF2C21F1
:1010C00058460FF0B3FF002C01D0A34665E705B0EA
:1010D000F0BCBB46B246A946A046F0BD10B5040020
:1010E00002F07AFE024B20000833236010BDC04698
:1010F00050BE0110F0B5DE4657464E4645468B467B
:101100000221E0B59846531E8246894687B0032BDC
:1011100004D90139D31F89460B2B3DD853002A49E6
:101120009B189B005D180020CB5800210290039172
:1011300000216A680491D41A9A4236D0234B9C420B
:1011400036D8200010F02CFE0ACD0419029003902E
:101150000494994209D000225B1A84188D18083231
:10116000C0CDC0C49A42F8D1801843460390009382
:1011700059464B46504602AA02F0FAFE0298002851
:1011800003D00499091A0FF051FF07B0F0BCBB4619
:10119000B246A946A046F0BD11000C2315398B427A
:1011A0009B41032119408946B8E700240020CBE782
:1011B00011F0A4F802980499091A002801D00FF040
:1011C00035FF0FF0DBFFC04610240020F8FFFF7F43
:1011D000F8B5CE46474680B51F00089B04000D00B9
:1011E00038000521160098460BF02CFB8946002993
:1011F00000DDC3E04346012229002000FFF77AFF0B
:101200004346022229002000FFF774FF182F04DD57
:10121000701C18210BF016FB0E00002E48D00C2E6F
:1012200046D0012E00D18CE00D2E00D189E0022E97
:1012300000D1FFE00E2E00D1FCE0032E00D107E12B
:101240000F2E00D104E1042E00D1FAE0102E00D1BF
:10125000F7E0052E00D109E1112E00D106E1062E9E
:1012600000D10AE1122E00D107E1072E00D10BE1D7
:10127000132E00D108E1082E00D10CE1142E00D16C
:1012800009E1092E00D10DE1152E00D10AE10A2E47
:1012900000D10EE1162E00D10BE10B2E01D0172E3E
:1012A0000CD143461F2229002000FFF723FF05E051
:1012B0004346202229002000FFF71CFF7E1F132E2B
:1012C00000D880E03B00233B042B10D93B00193BA6
:1012D000042B42D93B00283B132B3ED9042F42D884
:1012E0004346032229002000FFF704FF05E04346A0
:1012F0000C2229002000FFF7FDFE3B00143B042BCD
:1013000000D890E03B00193B042B00D87EE03B0066
:101310001E3B042B00D87FE03B00233B042B00D86E
:1013200074E0053B042B00D87DE0053B042B00D87E
:1013300095E03B00323B042B5BD9373F042F50D85C
:1013400049E04346042F5BD8212229002000FFF703
:10135000D1FE3B00193B042BBCD843460B2229008D
:101360002000FFF7C7FE3B000F3B042BC5D84346C8
:101370000A2229002000FFF7BDFE32E043460F227B
:1013800029002000FFF7B6FE4B46012B00D131E7C4
:101390004346102229002000FFF7ACFE4B46022BEB
:1013A00000D127E74346112229002000FFF7A2FEC3
:1013B0004B46042B00D01DE7434612222900200093
:1013C000FFF798FE16E743460C2229002000FFF79E
:1013D00091FE042E09D84346072229002000FFF77A
:1013E00089FEC0BCB946B046F8BD3B000A3B042BA1
:1013F000B9D84346082229002000FFF77BFEF0E71A
:10140000152229002000FFF775FE57E74346072203
:1014100029002000FFF76EFE43460D222900200020
:10142000FFF768FEDDE74346092229002000FFF7A9
:1014300061FED6E74346162229002000FFF75AFE38
:101440003CE74346182229002000FFF753FE35E70A
:101450004346172229002000FFF74CFE2EE74346A3
:101460000E2229002000FFF745FE80E7434619229F
:1014700029002000FFF73EFE20E743461A222900FC
:101480002000FFF737FE19E743461B222900200002
:10149000FFF730FE12E743461C2229002000FFF729
:1014A00029FE0BE743461D2229002000FFF722FEFC
:1014B00004E743461E2229002000FFF71BFEFDE63D
:1014C000F0B5C64600B5C8B0012800D176E02F4A75
:1014D0001368013B1360002B14D12D4C2D4D206857
:1014E00000280BD0A368191A0FF0A0FD23000C3BB5
:1014F000A54207D01C0020680028F3D123000C3B34
:10150000A542F7D1244A1368013B1360002B08D190
:10151000224B234A1868904203D0996801310FF09A
:1015200085FD204A1368013B1360002B00D1BDE20A
:101530001D4A1368013B1360002B00D1BAE21B4A1D
:101540001368013B1360002B18D1194C194D23006F
:101550002068083398420DD0A368591C0FF066FD2F
:101560002300183BA54209D01C0023002068083343
:101570009842F1D12300183BA542F5D10E4B986853
:10158000FFF700FD48B080BCB846F0BD5C210020EC
:10159000A8250020102400204421002084210020C0
:1015A0008C210020482100204C21002050210020C7
:1015B000B8220020E02100204C2700200022F94B17
:1015C000191D1A719A605A61D9601961F64B1A682F
:1015D000551C1D60012D00D170E2F44B1A68541C9B
:1015E0001C60012C0ED1F24D1022280000210C307D
:1015F0000BF0F0FDEF4B6C602B600023AB60FE2323
:101600009B052B61EC4A136801331360012B00D159
:101610008FE2EA4A136801331360012B00D182E2A2
:10162000E74A136801331360012B04D10022E54B14
:101630001A6004325A60E44B1A68551C1D60012D73
:10164000A0D10023E14F00223B607B60BB60002300
:101650003A923B93012200233AAC3C923D93210005
:101660000132DB4838943992FFF718FCD94B984681
:101670002300424643CA43C343CA43C30322210053
:10168000D54836943792FFF709FC434622001833B9
:1016900043CB43C243CB43C203222100CF483494FF
:1016A0003592FFF7FBFB43462200303343CB43C266
:1016B00043CB43C203CB03C204222100C848329467
:1016C0003392FFF7EBFB0023FB633B647B64BB645B
:1016D000FB643B6543462200503343CB43C243CBBC
:1016E00043C203CB03C204222100BE48309431928E
:1016F000FFF7D4FB4646220070360BCE0BC20BCE52
:101700000BC20ACE0AC204222100B7482E942F929F
:10171000FFF7C4FBB54E38223100200010310BF02A
:101720005FFD07222100B2482C942D92FFF7B6FBF3
:1017300031003822483120000BF052FD07222100F1
:10174000AC482A942B92FFF7A9FBAB4B9846230099
:10175000424643CA43C343CA43C303222100A748A6
:1017600028942992FFF79AFB43462200183343CB73
:1017700043C243CB43C203CB03C204222100A0488F
:1017800026942792FFF78AFB43462200383343CB47
:1017900043C243CB43C203CB03C204222100994876
:1017A00024942592FFF77AFB43462200583343CB1B
:1017B00043C243CB43C203CB03C20422210092485D
:1017C00022942392FFF76AFB012300225B423A92A4
:1017D0003B93210001328D4820942192FFF75EFB5C
:1017E00001230C225B423A923B9321000B3A88483A
:1017F0001E941F92FFF752FB012365225B423A922F
:101800003B932100643A83481C941D92FFF746FBEA
:10181000012371225B423A923B932100703A7E4849
:101820001A941B92FFF73AFB0023E422BB500432C8
:10183000BB500432BB500432BB500432BB5046464E
:101840000432BB50220078360BCE0BC20BCE0BC23B
:101850000ACE0AC204222100704818941992FFF798
:101860001DFB22006E4B9846183343CB43C243CB3B
:1018700043C203CB03C2042221006A481694179284
:10188000FFF70CFB43462200383343CB43C243CB24
:1018900043C203CB03C2042221006348149415926F
:1018A000FFF7FCFA43462200583343CB43C243CBF5
:1018B00043C203CB03C2042221005C48129413925A
:1018C000FFF7ECFA4646220078360BCE0BC20BCE61
:1018D0000BC20ACE0AC2042221005548109411926C
:1018E000FFF7DCFA2200534B9846183343CB43C230
:1018F00043CB43C243CB43C21B6821001360052284
:101900004D480E940F92FFF7C9FA43462200403328
:1019100043CB43C243CB43C243CB43C243CB43C27B
:101920000622210045480C940D92FFF7B7FA46466F
:10193000220070360BCE0BC20BCE0BC20ACE0AC2EF
:10194000042221003E480A940B92FFF7A7FA2200D6
:101950003C4B9846103343CB43C243CB43C203CBEB
:1019600003C204222100384808940992FFF796FA2E
:1019700043462200303343CB43C243CB43C203CB65
:1019800003C204222100314806940792FFF786FA29
:1019900043462200503343CB43C243CB43C20322CE
:1019A000210055E04C270020502100204C21002030
:1019B000C4210020DC2100204821002044210020F7
:1019C00054210020D02200205C210020102400207F
:1019D0001C240020FCBA01102824002034240020FC
:1019E0004024002064240020702400207CBB0110CF
:1019F0007C24002088240020FCBB011094240020BB
:101A0000A0240020AC240020B8240020C4240020FE
:101A1000D0240020DC240020E82400200C25002015
:101A20007CBC011018250020242500203025002032
:101A30003C250020FCBC0110482500205425002036
:101A4000602500207CBD01106C2500207825002039
:101A50008F4804940592FFF721FA46462200683623
:101A60000BCE0BC20BCE0BC20BCE0BC233682100C8
:101A700013600522874802940392FFF70FFA2200B1
:101A8000854B103343CB43C243CB43C203222100D7
:101A9000824800940192FFF701FACC220023520001
:101AA000BB500432BB500432BB506BE57C48FEF7A0
:101AB000D1FC3DE57B48FEF793FC40E57A4E3AAC1D
:101AC000220030007949FEF757FC22007849794816
:101AD000FEF752FC220078497848FEF74DFC2200C0
:101AE00077497848FEF748FC220077497748FEF7A7
:101AF00043FC220076497748FEF73EFC22007649F7
:101B00007648FEF739FC220075497648FEF734FC2A
:101B1000220075497548FEF72FFC2200744975486C
:101B2000FEF72AFC59E561493AAA7348FEF724FCFE
:101B300076E500235A4C20202360A360E3602361F4
:101B40006361A361E361236263620833636010F041
:101B500027F9050063682060581E400880002D1892
:101B6000FC20400010F01CF90300F933FF3328601B
:101B70006561E06023616562E0612362A060A0614D
:101B800047E521252224651B163C6C433C19BC42C9
:101B900019D10FF0F3FA0FF0DFFB10F067F8050032
:101BA0000FF014FC28000FF0D7FB63682068990041
:101BB0000FF03CFA00232360636010F057F80FF039
:101BC00005FC0FF0DBFA0C3C2068A368191A00280A
:101BD000DDD00FF02BFADAE700250924651B0F345E
:101BE0006C433419B442D4D0183C23002068083325
:101BF0009842F7D0A368591C0FF018FAF2E7ECE707
:101C00000225EAE70425E8E70525E6E70325E4E7FA
:101C10000625E2E70D25B5E71025B3E71125B1E765
:101C20001225AFE71325ADE71425ABE71525A9E786
:101C30001625A7E71725A5E71825A3E71925A1E786
:101C40001A259FE71B259DE71E259BE71F2599E782
:101C5000202597E7052595E7062593E7072591E7D2
:101C600008258FE709258DE70A258BE70B2589E7EE
:101C70000C2587E786E7022584E7032582E704250C
:101C800080E70825A9E70925A7E70725A5E7C046B6
:101C90008425002090250020FCBD01109C250020FB
:101CA0009C210020C4210020E021002074C70110E5
:101CB00048F40110F8210020DCB9011010220020A6
:101CC000E0B9011028220020A0F7011040220020D6
:101CD000E4B9011058220020E8B901107022002058
:101CE000ECB9011088220020F0B90110A0220020D8
:101CF000F4B90110B82200208421002010B5012081
:101D0000FFF7DEFB10BDC04610B50400034B0833DF
:101D1000036002F057F8200010BDC04678C10110E2
:101D200010B50400054B0833036002F04BF82000A7
:101D300004210FF07BF9200010BDC04678C10110CE
:101D40000023F0B5036043608360154B04000E0070
:101D500083B0D5009D4216D8002D0ED0280010F07B
:101D60001FF847192060A760002D0AD02A00310013
:101D70000BF036FA676003B0F0BD002705608560A0
:101D8000F8E70700F6E7074810F0E0FA2068A168D6
:101D9000091A002801D00FF049F90FF0EFF9C046F9
:101DA000F8FFFF7FC8BA0110F0B5C646040000B5C1
:101DB000002825D01A4B1B4F98462600E068FFF7F5
:101DC000F3FFB569A468002D14D06B68013B6B600C
:101DD000002B0FD12B689B68BB4214D1AB68013B31
:101DE000AB60002B06D12B68DA6842450ED1280083
:101DF0005B6898471C2130000FF018F9002CDCD1EB
:101E000080BCB846F0BD28009847E7E72800904717
:101E10001C2130000FF00AF9002CCED1F0E7C046AB
:101E2000590E0010550E0010F0B5DE4657464E46CE
:101E30004546E0B5834685B0002800D199E05B4671
:101E4000DB680193002B00D186E0019BDB6899469B
:101E5000002B72D04B46DB689A46002B60D053466D
:101E6000DC68002C42D0E668002E27D0F368984644
:101E7000002B2FD04346DD68002D44D0EF68002FA3
:101E800010D0F868FFF7D0FF3B00DA69BF68100098
:101E900002930392FFF788FF2C2102980FF0C6F8F7
:101EA000002FEED1AF68E869FFF77EFF2C212800F4
:101EB0000FF0BCF8002F26D03D00DFE7A568E069F1
:101EC000FFF772FF2C2120000FF0B0F8002D0DD08D
:101ED0002C00C8E7B568F069FFF766FF2C213000D9
:101EE0000FF0A4F8002DE9D02E00BFE753469C6800
:101EF000D869FFF759FF2C2150460FF097F8002CB6
:101F00000ED0A246ABE743469D68D869FFF74CFF69
:101F10002C2140460FF08AF8002DDBD0A846A9E717
:101F20004B469C68D869FFF73FFF2C2148460FF0CD
:101F30007DF8002C01D0A1468CE7019DEB69AC68CF
:101F400018000193FFF730FF2C2128000FF06EF8E6
:101F5000002C01D0019478E75B469C68D869FFF7B4
:101F600023FF2C2158460FF061F8002C01D0A34626
:101F700065E705B0F0BCBB46B246A946A046F0BD39
:101F800010B5040001F028FF024B20000833236045
:101F900010BDC04678C10110F0B5DE4657464E462A
:101FA00045468B460221E0B59846531E8246894637
:101FB00087B0022B04D90139931F89460A2B3DD8DB
:101FC00053002A499B189B005D180020CB58002124
:101FD0000290039100216A680491D41A9A4236D083
:101FE000234B9C4236D820000FF0DAFE0ACD0419AC
:101FF000029003900494994209D000225B1A84183D
:102000008D180832C0CDC0C49A42F8D1801843461A
:102010000390009359464B46504602AA01F0A8FF90
:102020000298002803D00499091A0EF0FFFF07B0A8
:10203000F0BCBB46B246A946A046F0BD11000D2338
:1020400013398B429B41032119408946B8E700248C
:102050000020CBE710F052F902980499091A0028E1
:1020600001D00EF0E3FF0FF089F8C046B425002040
:10207000F8FFFF7FF8B5CE46474680B51F00089BA6
:1020800004000D0038000521160098460AF0DAFB1E
:102090008946002900DDC9E04346012229002000CD
:1020A000FFF77AFF4346022229002000FFF774FF62
:1020B00043460C2E31DD202229002000FFF76CFF63
:1020C000182F32DD701C18210AF0BCFB0E00002E08
:1020D00002D00C2E00D0E0E043461D222900200053
:1020E000FFF75AFF7E1F132E00D88DE03B00233BE5
:1020F000042B57D93B00193B042B00D8BBE03B0015
:10210000283B132B00D8B6E0042F51D843460322B6
:1021100029002000FFF740FF4AE01F22290020008D
:10212000FFF73AFF182FCDDCD1E70D2E62D00E2E2F
:1021300000D1B8E00F2E00D1E1E0042E00D1E5E09F
:10214000102E00D1E2E0052E00D1E6E0112E00D1E4
:10215000E3E0062E00D1E7E0122E00D1E4E0072EE6
:1021600000D1E8E0132E00D1E5E0082E00D1E9E02F
:10217000142E00D1E6E0092E00D1EAE0152E00D1A0
:10218000E7E00A2E00D1EBE0162E00D1E8E00B2E9E
:1021900001D0172EA6D143461B2229002000FFF7AD
:1021A000FBFE9FE743460C2229002000FFF7F4FEC8
:1021B0003B00143B042B00D889E03B00193B042B67
:1021C00000D877E03B001E3B042B00D88BE0053B9A
:1021D000042B00D86EE0053B042B00D877E0053BCC
:1021E000042B00D87FE0053B042B4FD9373F042F49
:1021F00018D811E043461422290020007E1FFFF763
:10220000CBFE132E00D971E743460C222900200093
:10221000FFF7C2FE042E35D84346082229002000CD
:10222000FFF7BAFEC0BCB946B046F8BD43460D2222
:1022300029002000FFF7B0FE4B46012B00D12BE711
:1022400043460E2229002000FFF7A6FE4B46022B34
:1022500000D121E743460F2229002000FFF79CFE12
:102260004B46042B00D017E74346102229002000DC
:10227000FFF792FE10E743460A2229002000FFF7ED
:102280008BFE95E73B000A3B042B27D843460922E7
:1022900029002000FFF780FEC4E7012EAAD00D2EF2
:1022A000A8D0022E26D14346192229002000FFF78C
:1022B00073FE17E74346290020000822FFF76CFE53
:1022C00043460B2229002000FFF766FEAAE743469B
:1022D000072229002000FFF75FFEA3E73B000F3B2A
:1022E000042B00D964E74346062229002000FFF7AB
:1022F00053FE97E70E2ED6D0032E00D01AE74346A2
:10230000162229002000FFF747FEEBE6434617227E
:1023100029002000FFF740FEE4E64346182229008A
:102320002000FFF739FEDDE6434615222900200094
:10233000FFF732FED6E643461C2229002000FFF7B5
:102340002BFECFE643461A2229002000FFF724FE89
:10235000C8E64346132229002000FFF71DFEC1E610
:1023600043461E2229002000FFF716FEBAE6C046AB
:10237000F0B5C64600B5C6B0012800D176E02F4AB8
:102380001368013B1360002B14D12D4C2D4D206898
:1023900000280BD0A368191A0EF048FE23000C3B4E
:1023A000A54207D01C0020680028F3D123000C3B75
:1023B000A542F7D1244A1368013B1360002B08D1D2
:1023C000224B234A1868904203D0996801310EF0DD
:1023D0002DFE204A1368013B1360002B00D1B1E2AF
:1023E0001D4A1368013B1360002B00D1AEE21B4A6B
:1023F0001368013B1360002B18D1194C194D2300B1
:102400002068083398420DD0A368591C0EF00EFEC8
:102410002300183BA54209D01C0023002068083384
:102420009842F1D12300183BA542F5D10E4B986894
:10243000FFF7FAFC46B080BCB846F0BD6021002032
:1024400040270020B42500204421002084210020C2
:102450008C210020482100204C2100205021002008
:10246000B8220020E0210020642700200022FA4B3F
:10247000191D1A719A605A61D9601961F74B1A686F
:10248000551C1D60012D00D164E2F54B1A68541CE7
:102490001C60012C0ED1F34D1022280000210C30BD
:1024A0000AF098FEF04B6C602B600023AB60FE23BB
:1024B0009B052B61ED4A136801331360012B00D19A
:1024C00083E2EB4A136801331360012B00D176E2FB
:1024D000E84A136801331360012B04D10022E64B54
:1024E0001A6004325A60E54B1A68551C1D60012DB4
:1024F000A0D10023E24F00223B607B60BB60002341
:10250000389239930122002338AC3A923B93210050
:102510000132DC4836943792FFF712FCDA4B9846CA
:102520002300424643CA43C3126821001A600222B4
:10253000D64834943592FFF703FC4346220010330B
:1025400043CB43C243CB43C243CB43C243CB43C23F
:1025500006222100CE4832943392FFF7F1FB00238C
:1025600041463822403120003B637B63BB63FB6301
:102570003B647B640AF034FE07222100C548309496
:102580003192FFF7DDFB4646220078360BCE0BC2B8
:102590000BCE0BC20BCE0BC20BCE0BC20622210000
:1025A000BD482E942F92FFF7CBFB2200BB4B9846E1
:1025B000283343CB43C243CB43C203CB03C20422E1
:1025C0002100B7482C942D92FFF7BAFB4346220016
:1025D000483343CB43C243CB43C203222100B1481B
:1025E0002A942B92FFF7ACFB43462200603343CB87
:1025F00043C21B68210013600222AB482894299231
:10260000FFF79EFB4646220070360BCE0BC20BCE68
:102610000BC20ACE0AC204222100A44826942792A3
:10262000FFF78EFB2200A24B9846103343CB43C2E8
:1026300043CB43C203CB03C2042221009D48249410
:102640002592FFF77DFB012300225B4238923993EC
:1026500021000132984822942392FFF771FB012355
:102660000C225B423892399321000B3A9348209414
:102670002192FFF765FB012365225B423892399373
:102680002100643A8E481E941F92FFF759FB0123E4
:1026900071225B42389239932100703A89481C9428
:1026A0001D92FFF74DFB0023CC22BB500432BB50E0
:1026B0000432BB500432BB500432BB500432BB5016
:1026C00043462200303343CB43C243CB43C203CB08
:1026D00003C2042221007C481A941B92FFF730FBAE
:1026E00043462200503343CB43C243CB43C2032271
:1026F0002100764818941992FFF722FB46462200E3
:1027000068360BCE0BC20BCE0BC2032221007048E1
:1027100016941792FFF714FB6E4B9846230042461F
:1027200043CA43C343CA43C343CA43C312682100D5
:102730001A600522684814941592FFF701FB43467E
:102740002200283343CB43C243CB43C203CB03C253
:1027500004222100614812941392FFF7F1FA4346D4
:102760002200483343CB43C243CB43C203CB03C213
:10277000042221005A4810941192FFF7E1FA4646CC
:10278000220068360BCE0BC20BCE0BC203222100F7
:1027900054480E940F92FFF7D3FA534B98462300F8
:1027A000424643CA43C343CA43C343CA43C31268EE
:1027B00021001A6005224D480C940D92FFF7C0FAD3
:1027C00043462200283343CB43C243CB43C243CBCF
:1027D00043C243CB43C20622210045480A940B92D0
:1027E000FFF7AEFA4646220058360BCE0BC20BCE90
:1027F0000BC20BCE0BC233682100136005223D488B
:1028000008940992FFF79CFA3B4B984623004246F6
:1028100043CA43C343CA43C343CA43C343CA43C36C
:1028200006222100354806940792FFF789FA4346AD
:102830002200303343CB43C243CB43C203222100A7
:102840002F4804940592FFF77BFA43462200483351
:1028500043CB43C256E0C0466427002050210020ED
:102860004C210020C4210020DC2100204821002030
:102870004421002054210020D0220020602100208B
:10288000B4250020C025002064BE0110CC25002006
:10289000D8250020FC25002008260020E4BE0110D9
:1028A00014260020202600202C2600203826002078
:1028B00064BF011044260020502600205C26002022
:1028C000682600207426002098260020A4260020D8
:1028D000B0260020E4BF0110BC260020C82600203E
:1028E000D4260020E026002064C00110EC26002041
:1028F000F826002004270020E4C001101027002043
:102900001C2700201B6821001360022285480294C6
:102910000392FFF715FA46462300583607CE07C341
:10292000326821001A6002227F4800940192FFF76A
:1029300007FAC62200235200BB500432BB500432B7
:10294000BB5077E57948FDF785FD49E57848FDF707
:1029500047FD4CE5774E38AC220030007649FDF754
:102960000BFD220075497648FDF706FD22007549EA
:102970007548FDF701FD220074497548FDF7FCFC20
:10298000220074497448FDF7F7FC2200734974482B
:10299000FDF7F2FC220073497348FDF7EDFC2200BD
:1029A00072497348FDF7E8FC220072497248FDF74E
:1029B000E3FC220071497248FDF7DEFC65E55E49E3
:1029C00038AA7048FDF7D8FC82E50023574C202038
:1029D0002360A360E36023616361A361E361236219
:1029E0006362083363600FF0DBF905006368206001
:1029F000581E400880002D18FC2040000FF0D0F930
:102A00000300F933FF3328606561E060236165628C
:102A1000E0612362A060A06153E520252124651BAD
:102A2000153C6C433C19BC422CD10EF0A7FB0EF0B8
:102A300093FC0FF01BF900250924651B0F346C4330
:102A40003419B442F1D0183C23002068083398426E
:102A5000F7D0A368591C0EF0E9FAF2E705000EF072
:102A6000B5FC28000EF078FC6368206899000EF031
:102A7000DDFA0023236063600FF0F8F80EF0A6FC87
:102A80000EF07CFB0C3C2068A368191A0028CAD001
:102A90000EF0CCFAC7E7CFE70225CDE70325CBE759
:102AA0000425C9E70525C7E70625C5E70725C3E7C8
:102AB0000825C1E70925BFE7B0E70225AEE70325F2
:102AC000ACE70425AAE70525A8E70625A6E707251C
:102AD000A4E70825A2E70925A0E70A259EE70B251C
:102AE0009CE70C259AE70D2598E70E2596E711251A
:102AF00094E7122592E7132590E714258EE7152514
:102B00008CE716258AE7172588E7182586E7192513
:102B100084E71A2582E71B2580E71E257EE71F250F
:102B20007CE7C04628270020342700209C21002075
:102B3000C4210020E021002074C7011048F40110D6
:102B4000F8210020DCB9011010220020E0B90110AA
:102B500028220020A0F7011040220020E4B9011033
:102B600058220020E8B9011070220020ECB90110B1
:102B700088220020F0B90110A0220020F4B9011031
:102B8000B82200208421002010B50120FFF7F0FBBF
:102B900010BDC04610B50400034B0833036001F0BC
:102BA00011F9200010BDC046B8C3011010B50400D3
:102BB000054B0833036001F005F9200004210EF0F5
:102BC00035FA200010BDC046B8C30110F0B5C646A6
:102BD000040000B5002825D01A4B1B4F984626004C
:102BE000E068FFF7F3FFB569A468002D14D06B68A7
:102BF000013B6B60002B0FD12B689B68BB4214D14B
:102C0000AB68013BAB60002B06D12B68DA6842450C
:102C10000ED128005B6898471C2130000EF006FAA0
:102C2000002CDCD180BCB846F0BD28009847E7E70F
:102C3000280090471C2130000EF0F8F9002CCED16E
:102C4000F0E7C046590E0010550E0010F0B5DE46F4
:102C500057464E464546E0B5834685B0002800D12C
:102C600099E05B46DB680193002B00D186E0019B75
:102C7000DB689946002B72D04B46DB689A46002BE6
:102C800060D05346DC68002C42D0E668002E27D086
:102C9000F3689846002B2FD04346DD68002D44D0C2
:102CA000EF68002F10D0F868FFF7D0FF3B00DA691B
:102CB000BF68100002930392FFF788FF2C2102984F
:102CC0000EF0B4F9002FEED1AF68E869FFF77EFF90
:102CD0002C2128000EF0AAF9002F26D03D00DFE7B6
:102CE000A568E069FFF772FF2C2120000EF09EF925
:102CF000002D0DD02C00C8E7B568F069FFF766FF1E
:102D00002C2130000EF092F9002DE9D02E00BFE703
:102D100053469C68D869FFF759FF2C2150460EF0A6
:102D200085F9002C0ED0A246ABE743469D68D869D2
:102D3000FFF74CFF2C2140460EF078F9002DDBD038
:102D4000A846A9E74B469C68D869FFF73FFF2C21AE
:102D500048460EF06BF9002C01D0A1468CE7019D8E
:102D6000EB69AC6818000193FFF730FF2C212800B5
:102D70000EF05CF9002C01D0019478E75B469C686A
:102D8000D869FFF723FF2C2158460EF04FF9002C8D
:102D900001D0A34665E705B0F0BCBB46B246A946E4
:102DA000A046F0BD10B5040001F016F8024B20005B
:102DB0000833236010BDC046B8C30110F0B5DE462D
:102DC00057464E4645468B460221E0B59846531E6F
:102DD0008246894687B0032B04D90139D31F89461F
:102DE000072B3DD853002A499B189B005D180020F3
:102DF000CB5800210290039100216A680491D41AF3
:102E00009A4236D0234B9C4236D820000EF0C8FFA1
:102E10000ACD0419029003900494994209D000222B
:102E20005B1A84188D180832C0CDC0C49A42F8D1FC
:102E3000801843460390009359464B46504602AAD9
:102E400001F096F80298002803D00499091A0EF0B0
:102E5000EDF807B0F0BCBB46B246A946A046F0BDAF
:102E60001100072311398B429B41032119408946E8
:102E7000B8E700240020CBE70FF040FA029804994D
:102E8000091A002801D00EF0D1F80EF077F9C046EB
:102E9000D8220020F8FFFF7F0023F0B503604360D5
:102EA0008360154B04000E0083B0D5009D4217D8F7
:102EB000002D0FD028000EF073FF47192060A76087
:102EC000002D0BD02A0031000AF08AF9200067603B
:102ED00003B0F0BD002705608560F7E70700F5E760
:102EE00006480FF033FA2068A168091A002801D0BB
:102EF0000EF09CF80EF042F9F8FFFF7FC8BA0110FF
:102F0000F0B5C64600B5B2B0012800D176E02F4A30
:102F10001368013B1360002B14D12D4C2D4D2068FC
:102F200000280BD0A368191A0EF080F823000C3B80
:102F3000A54207D01C0020680028F3D123000C3BD9
:102F4000A542F7D1244A1368013B1360002B08D136
:102F5000224B234A1868904203D0996801310EF041
:102F600065F8204A1368013B1360002B00D1F3E1A0
:102F70001D4A1368013B1360002B00D1F0E11B4A8E
:102F80001368013B1360002B18D1194C194D230015
:102F90002068083398420DD0A368591C0EF046F8FB
:102FA0002300183BAC4209D01C00230020680833E2
:102FB0009842F1D12300183BAC42F5D10E4B9868F2
:102FC000FFF744FE32B080BCB846F0BD5821002067
:102FD00004240020D8220020442100208421002045
:102FE0008C210020482100204C210020502100206D
:102FF000B8220020E02100207C2700200022F54B91
:10300000191D1A719A605A61D9601961F24B1A68D8
:10301000551C1D60012D00D1A6E1F04B1A68541C0F
:103020001C60012C0ED1EE4D1022280000210C3026
:103030000AF0D0F8EB4B6C602B600023AB60FE23F2
:103040009B052B61E84A136801331360012B00D103
:1030500036E2E64A136801331360012B00D129E2FE
:10306000E34A136801331360012B04D10022E14BC2
:103070001A6004325A60E04B1A68551C1D60012D1D
:10308000A0D10023DD4F00223B607B60BB600123A9
:103090002AAC5B422A922B9321002A00D84826AB07
:1030A00028942995FFF7F8FE01230C225B422A920F
:1030B0002B9321000B3AD34824AB26942792FFF799
:1030C000EBFE012365225B422A922B932100643A96
:1030D000CD4822AB24942592FFF7DEFE0123712216
:1030E0005B422A922B932100703AC84820AB22946D
:1030F0002392FFF7D1FE0023FB633B647B64BB6438
:10310000FB643B65C24B98462300424643CA43C317
:1031100043CA43C303CA03C304222100BD481EABF4
:1031200020942192FFF7B8FE43462200203343CB80
:1031300043C243CB43C203CB03C204222100B6489F
:103140001CAB1E941F92FFF7A7FE4346220040339C
:1031500043CB43C243CB43C203CB03C2042221006F
:10316000AE481AAB1C941D92FFF796FE464622000D
:1031700060360BCE0BC20BCE0BC20ACE0AC20422A3
:103180002100A74818AB1A941B92FFF785FEA54BA8
:1031900098462300424643CA43C343CA43C303CAB3
:1031A00003C304222100A04816AB18941992FFF71C
:1031B00073FE43462200203343CB43C243CB43C27A
:1031C00003CB03C204222100984814AB1694179233
:1031D000FFF762FE43462200403343CB43C243CB5A
:1031E00043C203CB03C204222100914812AB1494C2
:1031F0001592FFF751FE4646220060360BCE0BC2F9
:103200000BCE0BC20ACE0AC204222100894810ABA1
:1032100012941392FFF740FE0023B422BB500432F5
:10322000BB500432BB500432BB500432BB5004329A
:10323000BB50814B98462300424643CA43C343CA0E
:1032400043C303CA03C3042221007C480EAB10947D
:103250001192FFF721FE43462200203343CB43C2A5
:1032600043CB43C203CB03C20422210074480CABFE
:103270000E940F92FFF710FE43462200403343CBDB
:1032800043C243CB43C203CB03C2042221006D4897
:103290000AAB0C940D92FFF7FFFD46462200603604
:1032A0000BCE0BC20BCE0BC20ACE0AC204222100E7
:1032B000654808AB0A940B92FFF7EEFD634B984606
:1032C0002300424643CA43C343CA43C303CA03C39A
:1032D000042221005E4806AB08940992FFF7DCFD4A
:1032E00043462200203343CB43C243CB43C203CBEC
:1032F00003C204222100574804AB06940792FFF74B
:10330000CBFD43462200403343CB43C243CB43C2B1
:1033100003CB03C2042221004F4802AB0494059260
:10332000FFF7BAFD4646220060360BCE0BC20BCE2D
:103330000BC20ACE0AC204222100484801AB029403
:103340000392FFF7A9FD962200235200BB500432DE
:10335000BB500432BB5035E64148FDF77BF807E629
:103360001F48FDF73DF80AE63E4E2AAC2200300029
:103370003D49FDF701F822003C493D48FCF7FCFFC0
:1033800022003C493C48FCF7F7FF22003B493C48FF
:10339000FCF7F2FF22003B493B48FCF7EDFF22001F
:1033A0003A493B48FCF7E8FF22003A493A48FCF723
:1033B000E3FF220039493A48FCF7DEFF2200394991
:1033C0003948FCF7D9FF220038493948FCF7D4FFC7
:1033D00023E6C0467C270020502100204C210020FD
:1033E000C4210020DC2100204821002044210020AD
:1033F00054210020D022002058210020D822002073
:10340000E4220020F0220020FC22002008230020DB
:103410008CC101102C2300203823002044230020DD
:10342000502300200CC201105C23002068230020E0
:1034300074230020802300208CC20110A4230020CC
:10344000B0230020BC230020C82300200CC301109F
:10345000D4230020E0230020EC230020F8230020C8
:103460009C210020E021002074C7011048F40110C5
:10347000F8210020DCB9011010220020E0B9011071
:1034800028220020A0F7011040220020E4B90110FA
:1034900058220020E8B9011070220020ECB9011078
:1034A00088220020F0B90110A0220020F4B90110F8
:1034B000B822002050492AAA5048FCF75DFFCFE50A
:1034C00000234F4C20202360A360E36023616361ED
:1034D000A361E36123626362083363600EF060FC02
:1034E000050063682060581E400880002D18FC20ED
:1034F00040000EF055FC0300F933FF33286065618E
:10350000E06023616562E0612362A060A061A0E5E4
:1035100018251924651B0D3C6C433C19BC422CD169
:103520000DF02CFE0DF018FF0EF0A0FB0025092475
:10353000651B0F346C433419B442F1D0183C23009E
:10354000206808339842F7D0A368591C0DF06EFD2F
:10355000F2E705000DF03AFF28000DF0FDFE63686C
:10356000206899000DF062FD0023236063600EF077
:103570007DFB0DF02BFF0DF001FE0C3C2068A368D5
:10358000191A0028CAD00DF051FDC7E7CFE7022570
:10359000CDE70325CBE70425C9E70525C7E70625C1
:1035A000C5E70725C3E70825C1E70925BFE7B0E759
:1035B0000225AEE70325ACE70425AAE70525A8E721
:1035C0000625A6E70725A4E70825A2E70B25A0E71F
:1035D0000C259EE70D259CE70E259AE70F2598E719
:1035E000102596E7112594E7122592E7152590E717
:1035F00016258EE717258CE774C70110842100205B
:103600009C21002070B50400006800280CD02369BC
:10361000191A0DF00BFD002223002100A260E260C8
:10362000083321CB21C1226170BDC046F0B5C6462A
:1036300000B594B01A9E04000D00170098460A2E9B
:1036400000DD7FE00A21404609F0FCF8684601F001
:103650009FFA6421404609F0F5F808000A2109F0B4
:10366000F1F8010005A801F093FA0A21380009F0E9
:10367000E9F80AA801F08CFA6421380009F0E2F8B0
:1036800008000A2109F0DEF801000FA801F080FA15
:10369000009B1B68DA0700D5ECE09A0700D5E0E054
:1036A0005A0700D5D4E01B0700D5CAE0059B1B686C
:1036B000DA0700D5BCE09A0700D5B0E05A0700D57C
:1036C000A4E01B0700D59AE00A9B1B68DA0700D527
:1036D0008CE09A0700D580E05A0700D574E01B07FC
:1036E0006BD40F980368DA075ED49A0753D45A074D
:1036F00048D41B0721D53300182229002000FFF7EA
:103700005DFB0F98002818D10A98002803D00E9965
:10371000091A0DF08BFC0598002803D00999091AA5
:103720000DF084FC0098002803D00499091A0DF0CC
:103730007DFC14B080BCB846F0BD1399091A0DF099
:1037400075FCE1E733000122FFF738FB192E00DC9E
:1037500078E73300022229002000FFF72FFB282EF4
:1037600000DC6FE73300032229002000FFF726FB6F
:10377000372E00DC66E73300042229002000FFF723
:103780001DFB5FE73300172229002000FFF716FB1F
:103790000F980368ADE73300162229002000FFF7D9
:1037A0000DFB0F980368A2E73300152229002000C3
:1037B000FFF704FB0F98036897E7330014222900F2
:1037C0002000FFF7FBFA8CE73300132229002000CA
:1037D000FFF7F4FA0A9B1B6881E7330012222900E5
:1037E0002000FFF7EBFA0A9B1B6875E733001122F4
:1037F00029002000FFF7E2FA0A9B1B6869E7330003
:103800000E2229002000FFF7D9FA5DE733000D22D0
:1038100029002000FFF7D2FA059B1B6851E733000F
:103820000C2229002000FFF7C9FA059B1B6845E719
:1038300033000B2229002000FFF7C0FA059B1B680C
:1038400039E733000A2229002000FFF7B7FA2DE7F5
:103850003300092229002000FFF7B0FA009B1B6803
:1038600021E73300082229002000FFF7A7FA009B78
:103870001B6815E73300072229002000FFF79EFA96
:10388000009B1B6809E70FA8FFF7BCFE0AA8FFF71B
:10389000B9FE05A8FFF7B6FE6846FFF7B3FE0DF0C8
:1038A0006DFCF3E7F5E7F7E710B50120FFF728FB1C
:1038B00010BDC04610B50400034B0833036000F090
:1038C00081FA200010BDC046F4C3011010B50400F9
:1038D000054B0833036000F075FA200004210DF059
:1038E000A5FB200010BDC046F4C30110F0B5DE46B4
:1038F0004E4657464546E0B58BB00393149B83462E
:10390000894602920A2B00DD7DE0029B002B35D018
:10391000002300269A469846002706AC04AD53467D
:1039200008202E606B6027606760A7600EF038FA91
:10393000030008339C462A00A36020600ACA0AC01C
:1039400063466360149B2200009349460023584657
:1039500000F00EFB2068002803D0A368191A0DF0B0
:1039600065FB01360A2E03DD01239C460026E24456
:1039700001239C46029BE0449845D0D1039B002B39
:103980003AD0002300279846093300269A4606AC11
:1039900004AD0297424653469B1A6B6000220023F7
:1039A00006920793002308202E60A3600EF0F8F91A
:1039B00003002A000833A360206082CA82C06360CB
:1039C000149B2200009349460123584600F0D0FA88
:1039D0002068002803D0A368191A0DF027FB0136D0
:1039E0000A2E03DD01239C460026E044029A039B35
:1039F000013202929A42CDD10BB0F0BCBB46B24626
:103A0000A946A046F0BD012300225B420492059323
:103A100000230022069207930023082006ACA3602F
:103A20000EF0BEF9030004AD2A0008330690A3602F
:103A300042CA42C06360149B494600935846022321
:103A400000F096FA0698002803D0A368191A0DF022
:103A5000EDFA149B192B00DC57E701230C225B4283
:103A60000492059300230022069207930023082066
:103A7000A3600EF095F903002A0008330690A360B6
:103A800042CA42C06360149B22000093494602234D
:103A9000584600F06DFA0698002803D0A368191A5A
:103AA0000DF0C4FA149B282B00DC2EE701236522BD
:103AB0005B420492059300230022069207930023A1
:103AC0000820A3600EF06CF903002A00083306906A
:103AD000A36042CA42C06360149B2200009349461F
:103AE0000223584600F044FA0698002803D0A36841
:103AF000191A0DF09BFA149B372B00DC05E7012304
:103B000071225B42049205930023002206920793E0
:103B100000230820A3600EF043F903000833069049
:103B2000A36006CD06C06360149B22000093494643
:103B30000223584600F01CFA0698002800D1E4E65B
:103B4000A168091A0DF072FADFE60698A168091A51
:103B5000002801D00DF06AFA0DF010FBF5E7F4E74C
:103B6000F3E7F2E7F1E7F0E7EFE7EEE7EDE7ECE7A1
:103B7000EBE7C04610B5040000F02EF9024B200020
:103B80000833236010BDC046F4C3011000226E4B01
:103B900030B5191D1A719A605A61D96019616B4B61
:103BA00083B01A68541C1C60012C5BD0684B1A68E7
:103BB000541C1C60012C0ED1664D102228000021DF
:103BC0000C3009F007FB644B6C602B600023AB608A
:103BD000FE239B052B61614A136801331360012B9F
:103BE00018D05F4A136801331360012B0CD05D4A73
:103BF000136801331360012B04D100225A4B1A6061
:103C000004325A6003B030BD584901AA5848FCF745
:103C1000B3FBECE70023574C20202360A360E36054
:103C200023616361A361E3612362636208336360BC
:103C30000EF0B6F8050063682060581E400880004A
:103C40002D18FC2040000EF0ABF80300F933FF33D1
:103C500028606561E06023616562E0612362A060C5
:103C6000A061BEE7444D4149280001AAFCF784FB4E
:103C70004249434801AAFCF77FFB4249424801AA56
:103C8000FCF77AFB4149424801AAFCF775FB414920
:103C9000414801AAFCF770FB4049414801AAFCF7E2
:103CA0006BFB4049404801AAFCF766FB3F4940488E
:103CB00001AAFCF761FB3F493F4801AAFCF75CFB06
:103CC0003E493F4801AAFCF757FB6FE70DF044FB64
:103CD0000DF0CCFF092409231B1B18245C432C196D
:103CE000AC4226D10DF04AFA0824F4E705000DF0A5
:103CF0006DFB28000DF030FB6368206899000DF023
:103D000095F90023236063600DF0B0FF0DF05EFBBA
:103D10000DF034FA0724DEE70624DCE70324DAE7B3
:103D20000224D8E7D7E70024D5E70524D3E7042405
:103D3000D1E7183C2300206808339842D0D0A3680C
:103D4000591C0DF073F9CBE7942700205021002077
:103D50004C210020C4210020DC210020482100202B
:103D60004421002054210020D022002074C70110DB
:103D7000842100209C210020E021002048F4011033
:103D8000F8210020DCB9011010220020E0B9011058
:103D900028220020A0F7011040220020E4B90110E1
:103DA00058220020E8B9011070220020ECB901105F
:103DB00088220020F0B90110A0220020F4B90110DF
:103DC000B82200207047C04610B5040004210DF051
:103DD0002DF9200010BDC046014B08330360704729
:103DE000B0C4011070B5050082B008000C000CF0E2
:103DF00003FF00222B680092210028001E68002388
:103E0000B04720000CF00AFF02B070BD30B51000C2
:103E10000D0083B0032948D03C2108F013FD8C002D
:103E2000A9006D1828012D186519EDB22B21280065
:103E300008F030FDFF21C2B28006801A8000801891
:103E4000800080188000801840194300C3185B0070
:103E5000DBB21802C01A0012081ACB1A0402201A88
:103E60001C02E31A1B12CB1A1902C91A00120912FA
:103E7000C0B2C9B2042A03D8154C9300E3589F4638
:103E800002000021FF2001AB9A70002218705970C7
:103E9000DA70597818789A780902DB7812040843A6
:103EA0001B061043184303B030BD0A4B019301AB0E
:103EB000EFE70022FF21E6E70100FF220020E2E712
:103EC0000800FF220021DEE70A000020FF21DAE7D8
:103ED00008C401108080808010B50C6888B00A2C5E
:103EE0001ADC4A68092A17DC93009B1858008018CE
:103EF000D3070FD5001B0A30C343DB0F0A2800DDB0
:103F00000133622800DD01336D2800DD0133C01864
:103F100008B010BD0019EFE71C23002201A904AC72
:103F200002A8019302940EF009FC019B1C220F4988
:103F30000493029009F054F90022019B0299039323
:103F400002A8CA5402F094FA0298A04203D004993D
:103F500001310DF06BF80020DAE70298A04203D09F
:103F6000049901310DF062F80DF008F91CC401103C
:103F7000F0B54E4645465746DE46E0B51F0015688B
:103F8000536880468946160089B09D426CD03C211A
:103F9000129808F057FCBB00FB1818011B188C0086
:103FA000E418E4B22B21200008F074FCC3B29A4656
:103FB000FF218006C01A80005044800050448000D9
:103FC000504400194300C3185B00DBB21A02D21A36
:103FD00012128A1A1002821A1212D2B20292CA1A4B
:103FE00013029B1A1B12CB1A1A02D31A1B12DBB232
:103FF000039353469A009346334B00249B443B0063
:1040000057469A46E300EB181D685B685A1C47D078
:104010002E4A1278002A03D00922D31A0132551BE6
:1040200006A9404607930695FFF756FF5346010041
:10403000032B30D0042F43D85B461B689F460020DB
:10404000FF22029B0025120200041A4302432D06A0
:104050002A43484605920CF007FD35687368013421
:104060005B1BDB10A342CDD809B0F0BCBB46B24607
:10407000A946A046F0BD3800FF23039AE2E7FF20DF
:104080000022039BDEE7FF200023029ADAE7FF22EB
:1040900000230398D6E78025802080228023D2E762
:1040A000129A51464046FFF7B1FE722101900490EA
:1040B000280008F0C7FB4846019A0CF0D5FCCCE775
:1040C0000022FF230298BDE73CC40110D02200204B
:1040D000F0B5D64646464F464B4BC0B59A468AB0D9
:1040E00002AD2B0052460F00060013CA13C313CAB9
:1040F00013C303CA03C320200DF052FE202229005F
:10410000804609F06DF800230022029203930023F9
:104110002020AB600DF044FE2023994681444B469D
:10412000202241460290AB6009F05AF84B466B6082
:10413000129B2A000093390000233000FFF718FF7C
:104140000298002803D0AB68191A0CF06FFF544690
:104150002A0020340BCC0BC20BCC0BC220200ACC83
:104160000AC20DF01DFE20222900040009F038F8D3
:10417000002300220292039300232020AB600DF065
:104180000FFE2023994681444B46202221000290B5
:10419000AB6009F025F84B466B60129B2A00009338
:1041A000390001233000FFF7E3FE0298002803D016
:1041B000A968091A0CF03AFF200020210CF036FF04
:1041C000202140460CF032FF0AB0E0BCBA46B146AE
:1041D000A846F0BD202140460CF028FF0CF0CEFF91
:1041E0000298A968091A002801D00CF01FFF2021AD
:1041F00020000CF01BFFEDE7F9E70298A968091A07
:104200000028F6D1E6E7C04650C40110F0B5C64616
:1042100005000C0016001F0000B5080082B00CF06D
:10422000EBFC089A2B6800921B683200984621002C
:104230003B002800C04720000CF0F0FC02B080BC1E
:10424000B846F0BD00226E4B30B5191D1A719A6048
:104250005A61D96019616B4B83B01A68541C1C6099
:10426000012C5BD0684B1A68541C1C60012C0ED1C9
:10427000664D1022280000210C3008F0ABFF644B83
:104280006C602B600023AB60FE239B052B61614AB1
:10429000136801331360012B18D05F4A1368013390
:1042A0001360012B0CD05D4A136801331360012B9E
:1042B00004D100225A4B1A6004325A6003B030BD58
:1042C000584901AA5848FCF757F8ECE70023574C27
:1042D00020202360A360E36023616361A361E36145
:1042E00023626362083363600DF05AFD0500636862
:1042F0002060581E400880002D18FC2040000DF062
:104300004FFD0300F933FF3328606561E0602361EE
:104310006562E0612362A060A061BEE7444D41494F
:10432000280001AAFCF728F84249434801AAFCF7F3
:1043300023F84249424801AAFCF71EF84149424885
:1043400001AAFCF719F84149414801AAFCF714F801
:104350004049414801AAFCF70FF84049404801AAEA
:10436000FCF70AF83F49404801AAFCF705F83F4925
:104370003F4801AAFCF700F83E493F4801AAFBF775
:10438000FBFF6FE70CF0E8FF0DF070FC0924092338
:104390001B1B18245C432C19AC4226D10CF0EEFEFA
:1043A0000824F4E705000DF011F828000CF0D4FF04
:1043B0006368206899000CF039FE00232360636075
:1043C0000DF054FC0DF002F80CF0D8FE0724DEE7E7
:1043D0000624DCE70324DAE70224D8E7D7E7002441
:1043E000D5E70524D3E70424D1E7183C230020684F
:1043F00008339842D0D0A368591C0CF017FECBE7C5
:10440000AC270020502100204C210020C421002096
:10441000DC210020482100204421002054210020DC
:10442000D022002074C70110842100209C2100208C
:10443000E021002048F40110F8210020DCB901102F
:1044400010220020E0B9011028220020A0F701105E
:1044500040220020E4B9011058220020E8B90110E0
:1044600070220020ECB9011088220020F0B9011060
:10447000A0220020F4B90110B82200207047C046E5
:1044800010B5044C41724460002404728272C372FD
:1044900010BDC046E40706057047C04610B50400CD
:1044A0000822043108F09CFE200010BD10B5040065
:1044B0000C210CF0BBFD200010BDC046F0B54B68D0
:1044C000060087B00800002B01D107B0F0BD002224
:1044D00000230292039300233B4902AA049300F0B5
:1044E000CDFD039D029C2B1B302B24D93368206803
:1044F000DF6815F0D9FA039B029A019304009B1A16
:10450000182B3BD9906915F0CFFA039B029A0193BF
:1045100005009B1A302B38D9106B15F0C5FA2B4BC0
:104520009F4223D12A4B747273600023B572029CA0
:10453000039D3372F072AC420CD023002068083324
:1045400098420FD0A3681834591C0CF06FFDAC4290
:10455000F3D1029D002DB8D004992800491B0CF01E
:1045600065FDB2E71834AC42E7D1F2E7C3B2EAB274
:104570003000E1B2B847029C039DDCE7154ADB102E
:1045800001215A4314480DF0F9FE124ADB100221B2
:104590005A4311480DF0F2FE029C039DA54208D13A
:1045A00002980499091A002801D00CF03FFD0CF084
:1045B000E5FD230020680833984203D0A368591C06
:1045C0000CF034FD1834E9E7B0F20110814400101A
:1045D000E4070605ABAAAAAAC4C40110014B08331C
:1045E0000360704720C5011010B50400034B083369
:1045F0000360FFF743FF200010BDC04668C50110EF
:1046000010B50400054B08330360FFF737FF2000A7
:104610000C210CF00BFD200010BDC04668C5011038
:1046200010B582B06C46002020710848617120806E
:104630000748A27160806846E3710BF061FE40207C
:10464000002105F067FE02B010BDC046E40700007F
:104650000605000010B504000BF0A8FE200010BDF8
:10466000F0B54B68060089B00800002B01D109B0F5
:10467000F0BD002200230492059300233F4904AAC1
:10468000069300F0FBFC059D049C2B1B302B2ED9C0
:1046900033682068DF6815F007FA059B049A0193D8
:1046A00004009B1A182B43D9906915F0FDF9059B5E
:1046B000049A019305009B1A302B40D9106B15F01A
:1046C000F3F92F4B9F422DD1002302AA13712D4BDA
:1046D000D07113802C4B10005380547195710BF0E6
:1046E0000FFE4020002105F015FE049C059DAC4204
:1046F0000CD023002068083398420FD0A3681834E8
:10470000591C0CF093FCAC42F3D1049D002DAED0AB
:1047100006992800491B0CF089FCA8E71834AC4224
:10472000E7D1F2E7C3B2EAB23000E1B2B847DCE762
:10473000164ADB1001215A4315480DF01FFE134A9B
:10474000DB1002215A4312480DF018FE049C059D0F
:10475000A54208D104980699091A002801D00CF046
:1047600065FC0CF00BFD230020680833984203D051
:10477000A368591C0CF05AFC1834E9E7B0F2011098
:1047800021460010E407000006050000ABAAAAAA13
:10479000C4C4011030B587B002AC05000BF094FD25
:1047A00022000F4B009403CB03C208236A460193F7
:1047B0000023694628001374FFF752FF0098A042B7
:1047C00003D0029901310CF031FC07B030BD0098E4
:1047D000A04203D0029901310CF028FC0CF0CEFC71
:1047E00040C5011010B50400FFF7F8FE024B200091
:1047F0000833236010BDC04668C5011010B51C0009
:10480000431A0298511A001B584308F01BF800196C
:1048100010BDC046030010009A4200DD1800884217
:1048200000DA08007047C04670B5006815000C003B
:1048300015F03AF9A84200DD2800A04200DA200075
:1048400070BDC046F0B5C64600B582B002AF0600E6
:1048500010003A7E0D0014001900531C98466B4658
:104860000834E408E4001B1B9D4602AC002A0CD06F
:1048700020700920684408F0B3FC00232200009354
:1048800030004346E9B20BF03FFEBD46002080BC3D
:10489000B846F0BDF0B5C64600B584B006000AA81B
:1048A0001F0003780F206844984600250270002BF3
:1048B00014D00123CCB202002100009330000BF091
:1048C00023FE3A0021000095434630000BF084FEA1
:1048D000397805000200044808F02EFF280004B0D3
:1048E00080BCB846F0BDC04688C50110F0B557463B
:1048F0004E46DE464546E0B587B002938368814662
:104900009C4603698A460491059201929C4500D118
:1049100071E0C368591C9B461F231C008846CA17B8
:1049200014404444D20E039164118918A4000B4032
:1049300064449B1A5CD462465146551A5A46019902
:10494000ED00521AAD1867465E468846002D14DD0C
:10495000002E33D00121013EB140002B34D0012282
:10496000013B9A403868084220D02168013D0A4343
:104970002260002DECD1434601930123019A93401C
:10498000029A002A25D1524612689A4313005246D1
:1049900013605B461F2B24D04B46039ADA6007B0A6
:1049A000F0BCBB46B246A946A046F0BD2168013D19
:1049B00091432160002DDED0002ECBD180211F2617
:1049C000043F0906002BCAD180221F23043C120693
:1049D000C8E7524612681343524613605B461F2BCA
:1049E000DAD100234A46D360634604339360D6E7A6
:1049F0002033043C9FE762460368D31AC268DB0099
:104A00009446604A6344934200D1B7E00122002BF0
:104A100000D0A2E05B4B9A4200D91A001F32520923
:104A20009300180003930DF0BBF94B461E685346E4
:104A300083469C1BB24503D02200310016F0A8FF2C
:104A4000220001985A44011E00DC92E055460023E2
:104A5000012780460DE01468204310601F2B13D0FF
:104A6000581C9C1C3B00834001399C4603000029D4
:104A700013D0380098402C680442ECD11468844369
:104A8000200010601F2BEBD1012301399C4601242B
:104A90000023043504320029EBD141461500019171
:104AA0001F2B01D10024151D029B002B5DD06346F6
:104AB00011680B4313604B4652469B6801989A1A43
:104AC0004B46DB68D2001B1AD218002A28DDB446F8
:104AD000012156460CE047462B681F432F601F28D4
:104AE00014D001301F2C15D0013A0134002A16D001
:104AF0000F000B00A7408340B84637681F42EAD139
:104B000043462F689F432F601F28EAD100200436B8
:104B10001F2CE9D1013A00240435002AE8D1664669
:104B2000002E0DD04B461B693000991B0CF07EFA0D
:104B300000234A469360D3604B46083303CB03C23D
:104B40004A46039B5B4413614B465A461A604A46E9
:104B5000002395605360D46021E75A00934200D847
:104B600058E7094B180003935DE7614613688B43D0
:104B7000A0E7012315009C46012495E703480DF0AA
:104B8000E5FBC046E0FFFF7FFCFFFF0F94C501106F
:104B9000F0B5DE4657464E4645460023E0B5036075
:104BA00043608360C360036108339A4683B0EB4679
:104BB00082445E4653460D0006CB06C601235A4684
:104BC000002152682B400400FFF790FEEB0FA26813
:104BD0005B1921699B071700DB0F8A4200D114E1A2
:104BE000E06880461F2800D1F8E00130E060012035
:104BF0004646B040002B00D0A4E03B6883433B60B6
:104C0000EB1798460323464633405B195B071000B9
:104C1000DB0F8A4200D1EBE0E668B1461F2E00D1DF
:104C2000C3E001264E44E66001264F46BE40002BFD
:104C300000D0B5E00368B343036007234646334022
:104C40005B191B071000DB0F8A4200D111E1E668F7
:104C5000B1461F2E00D1BCE001264E44E66001267D
:104C60004F46BE40002B00D095E00368B34303607D
:104C70000F23464633405B19DB061000DB0F8A42E8
:104C800000D1E9E0E668B1461F2E00D19CE0012684
:104C90004E44E66001264F46BE40002B00D075E032
:104CA0000368B34303601F23464633405B199B06EA
:104CB0001000DB0F8A4200D1C1E0E668B1461F2E2A
:104CC00000D17CE001264E44E66001264F46BE40FE
:104CD000002B56D10368B34303603F23464633405D
:104CE0005B195B061000DB0F8A4200D19AE0E66890
:104CF000B1461F2E5ED001264E44E66001264F4687
:104D0000BE40002B26D10368B34303607F23404697
:104D100003405B191B06DB0F8A4227D0E0681F287F
:104D200061D0411CE16001218140002B0ED013684D
:104D300019431160200003B0F0BCBB46B246A9463F
:104D4000A046F0BD3B681843386059E713688B43B1
:104D50001360EFE733000668334303607F23404668
:104D600003405B191B06DB0F8A42D7D15E465246D1
:104D700003CA03C65A46200000995268FFF7B6FDE1
:104D8000D8E73300066833430360A6E733000668BC
:104D90003343036087E7330006683343036067E704
:104DA000330006683343036047E700260432E660B9
:104DB000A26039E700260432E660A2609EE7002682
:104DC0000432E660A26080E700260432E660A2605A
:104DD00060E700260432E660A26040E7002004326B
:104DE000E060A26003E70021E160111DA1609AE785
:104DF0005E46524603CA03C65A46200000995268CE
:104E0000FFF774FDA268216917E75E46524603CAA0
:104E100003C65A46390020005268FFF767FDA268B2
:104E20002169EDE65E46524603CA03C65A46200093
:104E300000995268FFF75AFDA268216966E75E464D
:104E4000524603CA03C65A46200000995268FFF72B
:104E50004DFDA268216940E75E46524603CA03C67B
:104E60005A46200000995268FFF740FDA268216968
:104E700019E75E46524603CA03C65A462000009907
:104E80005268FFF733FDA2682169F1E62068002827
:104E90000BD02369191A0CF0C9F8002322005146DF
:104EA000A360E36021C921C223610CF067F9C04609
:104EB0000368F0B54E46994657464546DE4614000F
:104EC0004A464368E0B50F00991AC9108A00521883
:104ED00098461301D2181302D2181304D3185B009A
:104EE000624A5B18824683B0934200D1BBE0012244
:104EF000002B03D05A00934200D9A9E04B46FD1A7B
:104F0000002A00D093E01823009300239B460193CE
:104F10005D44280026002368083008362860B34224
:104F200000D19BE02B60A368AB60636826606B6078
:104F3000002363602372B9452ED04E465C464D4631
:104F4000083609E02360AB681836A3606B68183533
:104F500063601834BD4210D02000083020602B68F8
:104F6000B342EFD13100102208F03AF96B681835DE
:104F7000636018361834BD42EED13B004A46183BF8
:104F80009B1ADA083A4B5343DB00DB0802335A0022
:104F9000D318DB005B440093B84530D03E003D00A1
:104FA000009C083609E02360AB681836A3606B6884
:104FB000183563601834454510D020002B68083040
:104FC0002060B342EFD13100102208F009F96B687C
:104FD00018356360183618344545EED14346DF1B5B
:104FE000183F234BFF087B43DB00DB0801335A00EB
:104FF000D318009ADB0094469C44634600934B46CA
:10500000002B06D053464A469B684846991A0CF036
:105010000DF853465A461A60009A5A60019A9A60EF
:1050200003B0F0BCBB46B246A946A046F0BD0F4B4C
:105030009A4211D85600B618F60030000CF0B0FEB7
:10504000330083465B44019318235B4400935FE77E
:105050004B46084EFD1AF0E71A00EBE7102231002C
:1050600008F0BEF861E704480DF070F95555550594
:10507000ABAAAA0AF8FFFF7FB0C50110F0B5C6467B
:1050800000B500688AB08846150015F05DFD06AED3
:10509000071E23D153E0012855D13A7802A90A749A
:1050A000320000210593D1546C68AB689C4233D028
:1050B000200008302060049BB34249D02360069B47
:1050C0000193A360059B636001936B6818336B6069
:1050D0004146002015F038FD071E30D038000496F8
:1050E00015F0CAFC0400030003900F28D3D9002256
:1050F00003A904A80DF022FB039B04900693220051
:10510000390008F06DF80021039B049A0593D154EF
:105110006C68AB689C42CBD12100280004AAFFF741
:10512000C7FE0498B042D3D0069B591C01930BF0E4
:105130007DFF4146002015F007FD071ECED10AB0C5
:1051400080BCB846F0BD32000028AAD03000D6E7B7
:105150001022310008F044F8B4E70498B04203D0BC
:10516000069901310BF062FF0CF008F810B504004D
:105170000A49142004F0D2FA2100142004F096FA0F
:10518000A20123011343064A9363002C04D0382361
:10519000526B1340034A136010BDC046DD66001019
:1051A000004003403450034008239C46F0B5454678
:1051B000DE4657464E4684440833E0B50500604657
:1051C0009C46AC446346ABB00593AB6000230C0037
:1051D000EB602B746B60009300220021CE4B049097
:1051E0000DF024FC002327682B700EAB9B466468EF
:1051F0000C93002F00D108E124940F2C28D8012C07
:1052000000D0C8E128213B7804AA521813705A46EE
:1052100000230D9413550D9B002203935F230399E4
:1052200000930CA85E3B0DF0A7FB0D9B0393022B94
:105230001ED80C98584503D00E9901310BF0F6FE9C
:1052400028002BB0F0BCBB46B246A946A046F0BD34
:1052500024AE002231000CA80DF070FA249B0C90B3
:105260000E932200390007F0BBFF249C0C9ACFE775
:1052700000220023089209930023A84908AA0CA839
:105280000A93FFF7FBFE099B08990393581AC41071
:10529000A3001B191A019B181A029B181A049A18CA
:1052A00052001219302800D80BE1002A00D1A2E1E7
:1052B00014AB129390C9002C00D1ADE024970F2FAE
:1052C00000D908E1012F00D07EE14021237804AA13
:1052D0005218137014AA00231397D355099B089AE8
:1052E00003939B1A182B00D87EE197691AABD469F7
:1052F0001893002F00D147E124940F2C00D9FAE035
:10530000012C00D05AE158213B7804AA521813709E
:105310001AAA002319941355099B089A03939B1A00
:10532000302B00D859E1176B20AB546B1E93002F24
:1053300000D121E124940F2C00D906E1012C00D0EA
:1053400035E170213B7804AA5218137024AE20AACC
:1053500000231F941355129F26AB9946139C249348
:10536000002F00D101E107940F2C00D9DEE0012CC1
:1053700000D016E14A463B7833720023746013551F
:10538000199B30001A00189903930DF013FC249810
:10539000484503D0B368591C0BF048FE01232B701D
:1053A00000235F4F98466B600DE04C4504D0B36816
:1053B0002000591C0BF03AFE01239C46E044434672
:1053C00018370A2B43D04B4633603B687C689A46BB
:1053D000002B37D007940F2C25D8012C76D14A46C4
:1053E0001B783372002374601355139A259B249CF9
:1053F0009A42DAD1002A05D02100129816F038FA24
:105400000028D2D143466B60CFE71A00002C00D1B0
:10541000FEE644480CF082FF1A00002F00D15AE744
:1054200040480CF07BFF0022300007A90DF086F900
:10543000079B3060B3602200514607F0D1FE079C05
:105440003268CFE7002C00D0C4E04A46CAE704988F
:1054500018A90DF0B5F91E9820AB984203D02099F9
:1054600001310BF0E3FD18981AAB984203D01A995A
:1054700001310BF0DBFD129814AB984203D0149964
:1054800001310BF0D3FD089C099EB4420CD02300DF
:1054900020680833984210D0A3681834591C0BF0C8
:1054A000C5FDA642F3D1089E002E00D1C1E60A999F
:1054B0003000891B0BF0BAFDBBE61834A642E6D1DA
:1054C000F1E70C99184808F037F9DCE74A46002C58
:1054D00088D04846AFE724AE0022310012A80DF074
:1054E0002DF9249B129014933A00210007F078FEC6
:1054F000249F129AEFE624AE0022310018A80DF086
:105500001DF9249B18901A932200390007F068FEB9
:10551000249C189AFDE6C04674C70110CCC5011042
:10552000E0210020B0B90110D0C5011000223000E8
:1055300007A90DF003F9079B2490B36022003900FE
:1055400007F04EFE079C249A17E724AE0022310094
:105550001EA80DF0F3F8249B1E9020932200390022
:1055600007F03EFE249C1E9AF2E61A00002C00D1A1
:1055700003E749480CF0D2FE1A0024AE002C00D1FB
:10558000E6E645480CF0CAFE1A00002C00D1C0E641
:1055900041480CF0C3FE1A00002C00D138E6180078
:1055A0005FE61A00002C00D1E7E61800C6E720AA43
:1055B00024AE002C00D1CBE61000CFE71AAA002CB5
:1055C00000D1A6E610009FE714AA002F00D182E6C2
:1055D000100089E730480CF0A1FE304ADB100221B0
:1055E0005A432F480CF0CAFE2C4ADB1001215A43C3
:1055F0002B480CF0C3FE110029480CF0BFFEA86830
:10560000059B984203D0296901310BF00FFD0BF087
:10561000B5FD089C099EA64233D108980A99091A3B
:10562000002801D00BF002FD0C985845E7D00E99E8
:1056300001310BF0FBFCE2E718981AAB984203D05B
:105640001A9901310BF0F2FC129814AB9842E0D099
:10565000149901310BF0EAFCDBE7F5E71E9820AB6B
:105660009842E9D0209901310BF0E0FCE4E724985E
:105670004845F3D0B16801310BF0D8FCEEE7BEE746
:10568000D2E7230020680833984203D0A368591C4E
:105690000BF0CCFC1834BEE7B0B90110ABAAAAAA33
:1056A000C4C40110962110B5094C8901200005F0F1
:1056B0004DFA0221002003F0F3FE0221012003F045
:1056C000EFFE1023E26A9343024A136010BDC04606
:1056D000004003402C500340F0B5DE4657464E468E
:1056E0004546E0B50C00BBB0092806DD3BB0F0BC78
:1056F000BB46B246A946A046F0BD06AB04934300A4
:10570000DE4A1818C000865810184568002E00D1CF
:1057100021E234950F2D00D9F4E1012D00D04DE2A6
:10572000337802AA137406AA00230595535510AACC
:10573000914612AA10924A4653601372059B48463E
:10574000591C03930DF0D0F82523494600930022FD
:1057500048464968243B0DF00FF9059B48461A005E
:10576000049903930DF026FA4A46C54B52689A42B3
:1057700000D13EE2C34F0122390048460DF01AFA2B
:10578000060018AB1693036808360500B34200D133
:1057900009E21693836818936B6816A81793002381
:1057A0002E602B726B60626821680DF003FA0600B0
:1057B0001EAB1C93036808360500B34200D1ECE130
:1057C0001C9383681E936B681D9300236B601D9A66
:1057D0002B72AB4B2E6003929A4200D106E201225B
:1057E00039001CA80DF0E6F9060024AB22939B4675
:1057F000036808360500B34200D1C8E122938368EC
:1058000024936B68239300232E60049E6B602B729D
:105810002AAB059D2893002E00D196E134950F2DDB
:1058200000D983E1012D00D0CEE1A021337802AA76
:10583000521813702AAB002229955A5528A806CC75
:105840000DF0B8F9299C002C00D1B4E10121289D6C
:105850008D4B8E4E64192A78100058405B08014227
:1058600001D073409BB2500858405B08014201D000
:1058700073409BB2900858405B08014201D07340CE
:105880009BB2D00858405B08014201D073409BB2E4
:10589000100958405B08014201D073409BB2500987
:1058A00058405B08014201D073409BB290095840B8
:1058B0005B08014201D073409BB2D2095A405B0899
:1058C000114201D073409BB20135AC42C3D1DC43DD
:1058D00064BAA4B2092C00D86DE1632C00D87CE135
:1058E000FA239B009C4200D274E1694B04260521F7
:1058F0009C4200D874E130AB2D222EA82E930CF0E0
:105900003BFF2E9B0393632C1BD99C46614B013EAE
:1059100098465F4B66449A462000642106F0BAFF21
:1059200020004D00642106F0B5FF43465B195B780B
:105930002700737043465B5D04003370023E574599
:10594000EAD8092C00D8ECE0524B64001A195278BE
:1059500003991C5D4A70039B1C70239C2F9A229B09
:10596000A0185B4500D104E12499884200D8DBE00F
:105970002E9930ADA94200D11BE1309DA84200D83C
:10598000F0E022A80DF016F9060036AF3497036850
:105990000836040034ADB34200D1F2E0349383689A
:1059A000AB6063686B600023636023726A68344B8A
:1059B00026609A4200D116E10122280036490DF0F6
:1059C000F9F8082290460CAE0A9603688044040059
:1059D000434500D1CFE00A9383680C9363680B932F
:1059E000434623600023237234986360B84203D097
:1059F000A96801310BF01AFB2E9830AB984203D006
:105A0000309901310BF012FB28982AAB984203D051
:105A10002A9901310BF00AFB2298584503D02499AA
:105A200001310BF003FB1C981EAB984203D01E996A
:105A300001310BF0FBFA169818AB984203D0189975
:105A400001310BF0F3FA109812AB984204D04B4698
:105A5000996801310BF0EAFA0A99104807F06CFED8
:105A60000A980778002F30D00D4B0D2100255D5F7F
:105A7000002398468C460400202213E0E0210020F9
:105A8000FFFFFF3FCCC50110FFFF00000884FFFFB0
:105A90000F27000064C60110ECDA011010C60110D7
:105AA000EC34002041467D4B00291ED1BD4223D05D
:105AB00099690A42FCD11F60217801340D394F42A7
:105AC00079412778C9B2002FEED1B04203D00C99AA
:105AD00001310BF0ABFA049806AB984200D105E611
