:020000041000EA
:1000000000B50C4B00219960042159610A4919601F
:100010000A490B480160002159600121996001BC27
:10002000002800D0004707480749086003C880F34C
:10003000088808470000001800031F00180200038A
:10004000F40000180001001008ED00E000000000BE
:1000500000000000000000000000000000000000A0
:100060000000000000000000000000000000000090
:100070000000000000000000000000000000000080
:100080000000000000000000000000000000000070
:100090000000000000000000000000000000000060
:1000A0000000000000000000000000000000000050
:1000B0000000000000000000000000000000000040
:1000C0000000000000000000000000000000000030
:1000D0000000000000000000000000000000000020
:1000E0000000000000000000000000000000000010
:1000F0000000000000000000000000002CEC210DBA
:1001000000200420F7010010C3010010C5010010F9
:10011000C1010010C1010010C1010010C101001097
:10012000C1010010C1010010C1010010C701001081
:10013000C1010010C1010010C9010010CB01001065
:10014000CD010010CD010010CD010010CD01001037
:10015000CD010010CD010010CD010010CD01001027
:10016000CD010010CD010010CD010010CD01001017
:10017000CD010010CD010010CD010010CD01001007
:10018000CD010010CD010010CD010010CD010010F7
:10019000CD010010CD010010CD010010CD010010E7
:1001A000CD010010CD010010CD010010CD010010D7
:1001B000CD010010CD010010CD010010CD010010C7
:1001C00000BE00BE00BE00BE00BE00BE00F04BF888
:1001D000103800BEF2EB8871F4190210201A0210D8
:1001E0003402001090A31AE700202149086006C8D5
:1001F00081F3088810471F48006800282FD10DA4FC
:100200000ECC002902D000F012F8F9E71A491B4A77
:10021000002000E001C19142FCD1194988471949E9
:1002200088471949884700BEFDE701C901C29A42C3
:10023000FBD37047201A0210C0000020F81E0020D7
:100240005838021000000420000004205838021022
:1002500000100420001004200000000070470B482C
:100260000CF09AFC0047EFF30580C0B27047000025
:1002700008ED00E0000000D0F81E0020003500204E
:10028000E5AF0010F19200100DB1001057560000BC
:1002900006005250ABB36053F4D801100600525020
:1002A000861C030210D90110060052505422A29D50
:1002B0001CD9011005005250DE65F4685838021050
:1002C000F8B5C04610B5064C2378002B07D1054B76
:1002D000002B02D0044800E000BF0123237010BDB2
:1002E000002100200000000068BD0110044B10B583
:1002F000002B03D00349044800E000BF10BDC046F6
:10030000000000000421002068BD01107047C046B5
:10031000802070477047C04610B50400042111F0DA
:1003200061F8200010BDC046014B083303607047E0
:1003300080BD011010B50400034B08330360FFF7C4
:10034000E5FF200010BDC046C0BD011010B504007F
:10035000054B08330360FFF7D9FF20000C2111F093
:1003600041F8200010BDC046C0BD011070B500238B
:10037000012584B0124E03AC2370220023213000EB
:100380000095013310F09CFA2200257001232321EF
:100390003000009510F094FA0723220023702321E7
:1003A00030000095063B10F08BFA132322002370D7
:1003B000232130000095123B10F082FA04B070BD8A
:1003C00038160020002300B585B0009323210C4887
:1003D000023303AA10F0DCFA00280EDD6B46187B0E
:1003E0005B7B0002C0180CF005FF064A064B0CF0C0
:1003F0007AFE0CF017FF05B000BD01204042FAE77D
:10040000381600203333333333330340436830B579
:10041000234D9B008268EB580400D31A8360036865
:10042000204A9B6885B0934237D100232321009353
:100430001D48023303AA10F0ABFA002811DD6B4609
:10044000187B5B7B0002C0180CF0D4FE174A184BD7
:100450000CF049FE0CF0E6FE002802DB63689B000E
:10046000E85063689A00A858A26801339446604433
:10047000A0601D2B00DD002363601E210CF0BEFB7D
:10048000FF23322200930021FA3B04F00FFCFF22ED
:10049000052104F017FC05B030BD9847DCE7C046E5
:1004A000C8220020C5030010381600203333333330
:1004B0003333034010B50400FFF736FF034B200031
:1004C0000833236000236360A36010BDC0BD01102A
:1004D0007047C04610B50B22002104300DF056F8CD
:1004E00010BDC046401800797047C046002905D0AD
:1004F0000A2903D040180271012070470020FCE750
:1005000010B50400102110F06DFF200010BDC04692
:100510000368064ADB6810B5934205D10B2200211F
:1005200004300DF033F810BD9847FCE7D5040010F7
:10053000014B08330360704744BE0110F0B506005C
:10054000083604000D0083B00660002924D008009E
:100550001AF06EFC070001900F280CD8012807D173
:100560002B782372002360603354200003B0F0BD69
:100570000028F7D008E00022200001A912F0BAFA02
:100580000600019B2060A36030003A0029000DF0B6
:1005900003F801982668E5E7014812F09BF8C04689
:1005A000DCBD011070B584680600002C1FD0636AA2
:1005B0002568002B04D020001C300322010098473E
:1005C000230060680C3398420BD0E368591C10F08C
:1005D00009FF3021200010F005FF002D07D02C006E
:1005E000E5E73021200010F0FDFE002DF7D1736803
:1005F00000219A0030680CF0C9FF0023F360B3605B
:100600003300306818337168984202D0890010F0C6
:10061000E9FE300070BDC046F0B557464E46DE4696
:100620004546E0B58269036983B09346C269009389
:1006300043699046426A1F1D81469246866801932F
:10064000BA4212D93C682500F935FF3523002068ED
:10065000083398425AD0A3681834591C10F0C2FECF
:10066000A542F3D10437BA45ECD8019B9A4540D056
:10067000009B9E420CD0330030680833984252D021
:10068000B3681836591C10F0ADFE009BB342F2D18E
:10069000C3450ED043461868083398423DD04346C0
:1006A0009B68591C10F09EFE18239C46E044C345ED
:1006B000F0D14B461868002812D05C695B6A1D1D9A
:1006C000AC4208D2FC2101CC490010F08BFEA542BF
:1006D000F8D84B4618684B465B68990010F082FECC
:1006E000484603B0F0BCBB46B246A946A046F0BDA2
:1006F0001836B345DDD03300306808339842F7D060
:10070000B3681836591C10F06DFEF2E71834A54294
:100710009CD10437BA4595D8A7E718239C46E044F6
:10072000C345B7D1C5E7009B1836B342A3D1AFE7A5
:1007300030B5654B83B01A68541C1C60012C22D064
:10074000624B1A68541C1C60012C0ED1604D1022A3
:10075000280000210C300CF019FF5E4B6C602B6000
:100760000023AB60FE239B052B615B4A13680133BA
:100770001360012B41D0594A136801331360012BD8
:1007800035D003B030BD564D5649280001AAFFF7B9
:10079000D5FE5549554801AAFFF7D0FE54495548A2
:1007A00001AAFFF7CBFE5449544801AAFFF7C6FE41
:1007B0005349544801AAFFF7C1FE5349534801AABF
:1007C000FFF7BCFE5249534801AAFFF7B7FE524952
:1007D000524801AAFFF7B2FE5149524801AAFFF759
:1007E000ADFE5149514801AAFFF7A8FEA8E73D49CF
:1007F00001AA4F48FFF7A2FEC3E700234D4C20207B
:100800002360A360E36023616361A361E36123620A
:1008100063620833636011F09FFC05006368206029
:10082000581E400880002D18FC20400011F094FC58
:100830000300F933FF3328606561E060236165627E
:10084000E0612362A060A06195E7092409231B1BD6
:1008500018245C432C19AC4226D110F06BFE0824FE
:10086000F4E70724F2E70624F0E70224EEE7EDE7D9
:100870000024EBE710F04CFF11F0D4FB0424E5E773
:100880000524E3E70324E1E7050010F07BFF2800DF
:1008900010F03EFF63682068990010F0A3FD00236C
:1008A0002360636011F0BEFB183C2300206808330E
:1008B0009842D0D0A368591C10F094FDCBE710F0FB
:1008C00061FF10F037FEC046402100203C2100208F
:1008D000B4210020CC210020382100203421002028
:1008E000D0210020E8CB011068F80110E821002099
:1008F00008BE0110002200200CBE011018220020AA
:10090000C0FB01103022002010BE01104822002040
:1009100014BE01106022002018BE011078220020B1
:100920001CBE01109022002020BE0110A822002031
:10093000742100208C2100207047C0460A2907D866
:10094000836AC91880235B059C4661440878704718
:100950000020FCE710B50400034B08330360FFF7E9
:10096000B7FD200010BDC0468CBE011010B50400BC
:10097000054B08330360FFF7ABFD20002C2110F07E
:1009800031FD200010BDC0468CBE011070B50500C1
:10099000EFF3108672B6C369002B0CD00024AB6A4B
:1009A00080219C462003604449011BF095F9EB69C6
:1009B0000134A342F3D886F3108870BDF0B5C64663
:1009C00000B504000E00904600AF0A295FD84369C5
:1009D0001A026B469B1A9D4600236D462B70681CBD
:1009E000012A03DD0021013A0CF0D0FD802329000B
:1009F000A26A5B05D318194389074DD12F498C464C
:100A00006244AA1A022A47D91A682A605A686A6098
:100A10001A7A2A725A7A6A729B7A294AAB724346C8
:100A2000AB552368DB68934233D1EFF3108872B67D
:100A3000E369002B0CD00026A36A80219C4630037A
:100A4000604449011BF048F9E3690136B342F3D829
:100A500088F31088EFF3108872B66369002B0FD00B
:100A60000026A36A80229C4630022900604452007E
:100A70001BF0FAF8636901350136FF35B342F0D84F
:100A800088F310880120BD4680BCB846F0BD002028
:100A9000F9E720009847DDE71A782A705A786A70DB
:100AA0009A78AA70DA78EA701A792A715A796A7192
:100AB0009A79AA71DA79EA71AAE7C04601000010B2
:100AC0008D09001010B50400FFF732FD094B80229C
:100AD000083323600B2323610A3B6361E3618023B6
:100AE0005B01236200236362034B52002000A2617A
:100AF000A36210BD8CBE011000F07F0030B5654BC5
:100B000083B01A68541C1C60012C22D0624B1A68F6
:100B1000541C1C60012C0ED1604D102228000021B5
:100B20000C300CF033FD5E4B6C602B600023AB602F
:100B3000FE239B052B615B4A136801331360012B75
:100B400041D0594A136801331360012B35D003B0EB
:100B500030BD564D5649280001AAFFF7EFFC554914
:100B6000554801AAFFF7EAFC5449554801AAFFF786
:100B7000E5FC5449544801AAFFF7E0FC53495448A6
:100B800001AAFFF7DBFC5349534801AAFFF7D6FC43
:100B90005249534801AAFFF7D1FC5249524801AAD1
:100BA000FFF7CCFC5149524801AAFFF7C7FC514955
:100BB000514801AAFFF7C2FCA8E73D4901AA4F48E6
:100BC000FFF7BCFCC3E700234D4C20202360A3604B
:100BD000E36023616361A361E361236263620833BD
:100BE000636011F0B9FA050063682060581E400880
:100BF00080002D18FC20400011F0AEFA0300F933FC
:100C0000FF3328606561E06023616562E061236213
:100C1000A060A06195E7092409231B1B18245C43ED
:100C20002C19AC4226D110F085FC0824F4E70724E7
:100C3000F2E70624F0E70224EEE7EDE70024EBE715
:100C400010F066FD11F0EEF90424E5E70524E3E772
:100C50000324E1E7050010F095FD280010F058FD91
:100C600063682068990010F0BDFB00232360636077
:100C700011F0D8F9183C2300206808339842D0D0EE
:100C8000A368591C10F0AEFBCBE710F07BFD10F011
:100C900051FCC046402100203C210020B42100200E
:100CA000CC2100203821002034210020D021002038
:100CB000E8CB011068F80110E821002008BE0110FF
:100CC000002200200CBE011018220020C0FB0110E1
:100CD0003022002010BE01104822002014BE011056
:100CE0006022002018BE0110782200201CBE0110D6
:100CF0009022002020BE0110A82200207421002094
:100D00008C2100207047C04610B50400034B083307
:100D10000360FFF7DDFB200010BDC046D4BE01100C
:100D200010B50400054B08330360FFF7D1FB20002A
:100D3000102110F057FB200010BDC046D4BE01109A
:100D400000B585B06A46084B1B7813730123C27B3C
:100D50000093521803AB5021D2B2044803F0F2FFC3
:100D60006B46187B05B000BDE8CB0110381600209B
:100D70000F4BF0B54746CE469946002380B5060096
:100D800000249846012785B003AD4346F27B2B70C3
:100D900012192B0050214846D2B20097013403F0BB
:100DA000A9FF0B2CF1D105B0C0BCB946B046F0BDCF
:100DB0003816002010B5040084B000200A290DD890
:100DC00003AB1A70E27B064852180121D2B200919F
:100DD0004F3103F08FFF431E9841C0B204B010BDE5
:100DE0003816002010B50400FFF7A2FB034B2000CB
:100DF000083323600123E37310BDC046D4BE011045
:100E000030B5654B83B01A68541C1C60012C22D08D
:100E1000624B1A68541C1C60012C0ED1604D1022CC
:100E2000280000210C300CF0B1FB5E4B6C602B6095
:100E30000023AB60FE239B052B615B4A13680133E3
:100E40001360012B41D0594A136801331360012B01
:100E500035D003B030BD564D5649280001AAFFF7E2
:100E60006DFB5549554801AAFFF768FB54495548A1
:100E700001AAFFF763FB5449544801AAFFF75EFB40
:100E80005349544801AAFFF759FB5349534801AA53
:100E9000FFF754FB5249534801AAFFF74FFB524951
:100EA000524801AAFFF74AFB5149524801AAFFF7ED
:100EB00045FB5149514801AAFFF740FBA8E73D49CE
:100EC00001AA4F48FFF73AFBC3E700234D4C20200F
:100ED0002360A360E36023616361A361E361236234
:100EE00063620833636011F037F9050063682060BE
:100EF000581E400880002D18FC20400011F02CF9ED
:100F00000300F933FF3328606561E06023616562A7
:100F1000E0612362A060A06195E7092409231B1BFF
:100F200018245C432C19AC4226D110F003FB082492
:100F3000F4E70724F2E70624F0E70224EEE7EDE702
:100F40000024EBE710F0E4FB11F06CF80424E5E773
:100F50000524E3E70324E1E7050010F013FC280073
:100F600010F0D6FB63682068990010F03BFA00236C
:100F70002360636011F056F8183C230020680833A2
:100F80009842D0D0A368591C10F02CFACBE710F08F
:100F9000F9FB10F0CFFAC046402100203C21002090
:100FA000B4210020CC210020382100203421002051
:100FB000D0210020E8CB011068F80110E8210020C2
:100FC00008BE0110002200200CBE011018220020D3
:100FD000C0FB01103022002010BE0110482200206A
:100FE00014BE01106022002018BE011078220020DB
:100FF0001CBE01109022002020BE0110A82200205B
:10100000742100208C2100207047C04610B5036871
:101010005B68984710BDC04610B50400034B083309
:10102000036002F0A9FF200010BDC0467CC2011081
:1010300010B50400054B0833036002F09DFF20004B
:10104000042110F0CFF9200010BDC0467CC2011071
:101050000023F0B5036043608360154B04000E006D
:1010600083B0D5009D4216D8002D0ED0280011F077
:1010700073F847192060A760002D0AD02A003100BC
:101080000CF08AFA676003B0F0BD00270560856048
:10109000F8E70700F6E7074811F034FB2068A1687D
:1010A000091A002801D010F09DF910F043FAC0464B
:1010B000F8FFFF7FF4BE0110F0B5C646040000B58E
:1010C000002825D01A4B1B4F98462600E068FFF7F2
:1010D000F3FFB569A468002D14D06B68013B6B6009
:1010E000002B0FD12B689B68BB4214D1AB68013B2E
:1010F000AB60002B06D12B68DA6842450ED1280080
:101100005B6898471C21300010F06CF9002CDCD192
:1011100080BCB846F0BD28009847E7E72800904714
:101120001C21300010F05EF9002CCED1F0E7C04653
:101130000D10001009100010F0B5DE4657464E465F
:101140004546E0B5834685B0002800D199E05B466E
:10115000DB680193002B00D186E0019BDB68994698
:10116000002B72D04B46DB689A46002B60D053466A
:10117000DC68002C42D0E668002E27D0F368984641
:10118000002B2FD04346DD68002D44D0EF68002FA0
:1011900010D0F868FFF7D0FF3B00DA69BF68100095
:1011A00002930392FFF788FF2C21029810F01AF99E
:1011B000002FEED1AF68E869FFF77EFF2C212800F1
:1011C00010F010F9002F26D03D00DFE7A568E06998
:1011D000FFF772FF2C21200010F004F9002D0DD034
:1011E0002C00C8E7B568F069FFF766FF2C213000D6
:1011F00010F0F8F8002DE9D02E00BFE753469C68A8
:10120000D869FFF759FF2C21504610F0EBF8002C5D
:101210000ED0A246ABE743469D68D869FFF74CFF66
:101220002C21404610F0DEF8002DDBD0A846A9E7BF
:101230004B469C68D869FFF73FFF2C21484610F0C9
:10124000D1F8002C01D0A1468CE7019DEB69AC6878
:1012500018000193FFF730FF2C21280010F0C2F88E
:10126000002C01D0019478E75B469C68D869FFF7B1
:1012700023FF2C21584610F0B5F8002C01D0A346CE
:1012800065E705B0F0BCBB46B246A946A046F0BD36
:1012900010B5040002F07AFE024B200008332360F0
:1012A00010BDC0467CC20110F0B5DE4657464E4622
:1012B00045468B460221E0B59846531E8246894634
:1012C00087B0032B04D90139D31F89460B2B3DD896
:1012D00053002A499B189B005D180020CB58002121
:1012E0000290039100216A680491D41A9A4236D080
:1012F000234B9C4236D8200010F02EFF0ACD041953
:10130000029003900494994209D000225B1A841839
:101310008D180832C0CDC0C49A42F8D18018434617
:101320000390009359464B46504602AA02F0FAFE3B
:101330000298002803D00499091A10F053F807B056
:10134000F0BCBB46B246A946A046F0BD11000C2336
:1013500015398B429B41032119408946B8E7002487
:101360000020CBE711F0A6F902980499091A002889
:1013700001D010F037F810F0DDF8C04678240020D6
:10138000F8FFFF7FF8B5CE46474680B51F00089BA3
:1013900004000D0038000521160098460BF02EFCC5
:1013A0008946002900DDC3E04346012229002000D0
:1013B000FFF77AFF4346022229002000FFF774FF5F
:1013C000182F04DD701C18210BF018FC0E00002EE5
:1013D00048D00C2E46D0012E00D18CE00D2E00D12D
:1013E00089E0022E00D1FFE00E2E00D1FCE0032E9A
:1013F00000D107E10F2E00D104E1042E00D1FAE064
:10140000102E00D1F7E0052E00D109E1112E00D1F8
:1014100006E1062E00D10AE1122E00D107E1072EC7
:1014200000D10BE1132E00D108E1082E00D10CE110
:10143000142E00D109E1092E00D10DE1152E00D1A5
:101440000AE10A2E00D10EE1162E00D10BE10B2E7F
:1014500001D0172E0CD143461F2229002000FFF790
:1014600023FF05E04346202229002000FFF71CFF50
:101470007E1F132E00D880E03B00233B042B10D9A5
:101480003B00193B042B42D93B00283B132B3ED990
:10149000042F42D84346032229002000FFF704FF0F
:1014A00005E043460C2229002000FFF7FDFE3B002B
:1014B000143B042B00D890E03B00193B042B00D8D0
:1014C0007EE03B001E3B042B00D87FE03B00233B2B
:1014D000042B00D874E0053B042B00D87DE0053BCD
:1014E000042B00D895E03B00323B042B5BD9373FFF
:1014F000042F50D849E04346042F5BD8212229000D
:101500002000FFF7D1FE3B00193B042BBCD843461B
:101510000B2229002000FFF7C7FE3B000F3B042BE6
:10152000C5D843460A2229002000FFF7BDFE32E05D
:1015300043460F2229002000FFF7B6FE4B46012B41
:1015400000D131E74346102229002000FFF7ACFE0E
:101550004B46022B00D127E74346112229002000E9
:10156000FFF7A2FE4B46042B00D01DE74346122294
:1015700029002000FFF798FE16E743460C222900B9
:101580002000FFF791FE042E09D8434607222900C8
:101590002000FFF789FEC0BCB946B046F8BD3B004D
:1015A0000A3B042BB9D84346082229002000FFF744
:1015B0007BFEF0E7152229002000FFF775FE57E7B4
:1015C0004346072229002000FFF76EFE43460D2206
:1015D00029002000FFF768FEDDE7434609222900C5
:1015E0002000FFF761FED6E74346162229002000BF
:1015F000FFF75AFE3CE74346182229002000FFF778
:1016000053FE35E74346172229002000FFF74CFE22
:101610002EE743460E2229002000FFF745FE80E713
:101620004346192229002000FFF73EFE20E74346EB
:101630001A2229002000FFF737FE19E743461B2234
:1016400029002000FFF730FE12E743461C22290044
:101650002000FFF729FE0BE743461D22290020004A
:10166000FFF722FE04E743461E2229002000FFF771
:101670001BFEFDE6F0B5C64600B5C8B0012800D196
:1016800076E02F4A1368013B1360002B14D12D4CD8
:101690002D4D206800280BD0A368191A0FF0A2FE68
:1016A00023000C3BA54207D01C0020680028F3D182
:1016B00023000C3BA542F7D1244A1368013B136079
:1016C000002B08D1224B234A1868904203D0996816
:1016D00001310FF087FE204A1368013B1360002B95
:1016E00000D1BDE21D4A1368013B1360002B00D1FD
:1016F000BAE21B4A1368013B1360002B18D1194C46
:10170000194D23002068083398420DD0A368591C56
:101710000FF068FE2300183BA54209D01C002300EF
:10172000206808339842F1D12300183BA542F5D137
:101730000E4B9868FFF700FD48B080BCB846F0BD7E
:101740004C21002010260020782400203421002085
:10175000742100207C210020382100203C21002021
:1017600040210020A8220020D0210020B427002002
:101770000022F94B191D1A719A605A61D9601961DA
:10178000F64B1A68551C1D60012D00D170E2F44B18
:101790001A68541C1C60012C0ED1F24D1022280036
:1017A00000210C300BF0F2FEEF4B6C602B6000233D
:1017B000AB60FE239B052B61EC4A13680133136079
:1017C000012B00D18FE2EA4A136801331360012B29
:1017D00000D182E2E74A136801331360012B04D180
:1017E0000022E54B1A6004325A60E44B1A68551C1B
:1017F0001D60012DA0D10023E14F00223B607B60E2
:10180000BB6000233A923B93012200233AAC3C9206
:101810003D9321000132DB4838943992FFF718FCE0
:10182000D94B98462300424643CA43C343CA43C3E5
:1018300003222100D54836943792FFF709FC43462E
:101840002200183343CB43C243CB43C203222100BF
:10185000CF4834943592FFF7FBFB434622003033E8
:1018600043CB43C243CB43C203CB03C20422210078
:10187000C84832943392FFF7EBFB0023FB633B64D1
:101880007B64BB64FB643B6543462200503343CB1F
:1018900043C243CB43C203CB03C204222100BE4850
:1018A00030943192FFF7D4FB4646220070360BCEBF
:1018B0000BC20BCE0BC20ACE0AC204222100B748CB
:1018C0002E942F92FFF7C4FBB54E38223100200032
:1018D00010310BF061FE07222100B2482C942D92AA
:1018E000FFF7B6FB31003822483120000BF054FEE0
:1018F00007222100AC482A942B92FFF7A9FBAB4B9F
:1019000098462300424643CA43C343CA43C3032203
:101910002100A74828942992FFF79AFB434622000A
:10192000183343CB43C243CB43C203CB03C204228D
:101930002100A04826942792FFF78AFB4346220005
:10194000383343CB43C243CB43C203CB03C204224D
:101950002100994824942592FFF77AFB4346220000
:10196000583343CB43C243CB43C203CB03C204220D
:101970002100924822942392FFF76AFB0123002260
:101980005B423A923B93210001328D482094219290
:10199000FFF75EFB01230C225B423A923B9321004E
:1019A0000B3A88481E941F92FFF752FB01236522D1
:1019B0005B423A923B932100643A83481C941D9207
:1019C000FFF746FB012371225B423A923B932100D1
:1019D000703A7E481A941B92FFF73AFB0023E422E8
:1019E000BB500432BB500432BB500432BB500432F3
:1019F000BB5046460432BB50220078360BCE0BC299
:101A00000BCE0BC20ACE0AC20422210070481894E1
:101A10001992FFF71DFB22006E4B9846183343CBFB
:101A200043C243CB43C203CB03C2042221006A4812
:101A300016941792FFF70CFB43462200383343CB32
:101A400043C243CB43C203CB03C2042221006348F9
:101A500014941592FFF7FCFA43462200583343CB07
:101A600043C243CB43C203CB03C2042221005C48E0
:101A700012941392FFF7ECFA4646220078360BCE0A
:101A80000BC20BCE0BC20ACE0AC20422210055485B
:101A900010941192FFF7DCFA2200534B984618334A
:101AA00043CB43C243CB43C243CB43C21B68210059
:101AB000136005224D480E940F92FFF7C9FA434672
:101AC0002200403343CB43C243CB43C243CB43C248
:101AD00043CB43C20622210045480C940D92FFF7E8
:101AE000B7FA4646220070360BCE0BC20BCE0BC2A5
:101AF0000ACE0AC2042221003E480A940B92FFF744
:101B0000A7FA22003C4B9846103343CB43C243CB49
:101B100043C203CB03C2042221003848089409922F
:101B2000FFF796FA43462200303343CB43C243CB00
:101B300043C203CB03C2042221003148069407921A
:101B4000FFF786FA43462200503343CB43C243CBD0
:101B500043C20322210055E0B42700204021002089
:101B60003C210020B4210020CC210020382100207D
:101B70003421002044210020C02200204C210020DC
:101B8000782400208424002028BF01109024002005
:101B90009C240020A8240020CC240020D82400204D
:101BA000A8BF0110E4240020F024002028C0011068
:101BB000FC240020082500201425002020250020DA
:101BC0002C25002038250020442500205025002009
:101BD00074250020A8C00110802500208C2500203D
:101BE00098250020A425002028C10110B025002040
:101BF000BC250020C8250020A8C10110D425002044
:101C0000E02500208F4804940592FFF721FA46460C
:101C1000220068360BCE0BC20BCE0BC20BCE0BC212
:101C20003368210013600522874802940392FFF76E
:101C30000FFA2200854B103343CB43C243CB43C240
:101C400003222100824800940192FFF701FACC227E
:101C500000235200BB500432BB500432BB506BE532
:101C60007C48FEF7D9FC3DE57B48FEF79BFC40E550
:101C70007A4E3AAC220030007949FEF75FFC220030
:101C800078497948FEF75AFC220078497848FEF7EF
:101C900055FC220077497848FEF750FC220077492E
:101CA0007748FEF74BFC220076497748FEF746FC62
:101CB000220076497648FEF741FC220075497648B5
:101CC000FEF73CFC220075497548FEF737FC220000
:101CD00074497548FEF732FC59E561493AAA7348E0
:101CE000FEF72CFC76E500235A4C20202360A360ED
:101CF000E36023616361A361E3612362636208338C
:101D0000636010F029FA050063682060581E4008DF
:101D100080002D18FC20400010F01EFA0300F9335B
:101D2000FF3328606561E06023616562E0612362E2
:101D3000A060A06147E521252224651B163C6C4369
:101D40003C19BC4219D10FF0F5FB0FF0E1FC10F08B
:101D500069F905000FF016FD28000FF0D9FC636843
:101D6000206899000FF03EFB00232360636010F0B1
:101D700059F90FF007FD0FF0DDFB0C3C2068A3685C
:101D8000191A0028DDD00FF02DFBDAE70025092411
:101D9000651B0F346C433419B442D4D0183C230073
:101DA000206808339842F7D0A368591C0FF01AFB3B
:101DB000F2E7ECE70225EAE70425E8E70525E6E790
:101DC0000325E4E70625E2E70D25B5E71025B3E78F
:101DD0001125B1E71225AFE71325ADE71425ABE7D1
:101DE0001525A9E71625A7E71725A5E71825A3E7D1
:101DF0001925A1E71A259FE71B259DE71E259BE7CF
:101E00001F2599E7202597E7052595E7062593E700
:101E1000072591E708258FE709258DE70A258BE738
:101E20000B2589E70C2587E786E7022584E703254C
:101E300082E7042580E70825A9E70925A7E7072504
:101E4000A5E7C046EC250020F825002028C2011097
:101E5000042600208C210020B4210020D021002065
:101E6000E8CB011068F80110E821002008BE01103D
:101E7000002200200CBE011018220020C0FB01101F
:101E80003022002010BE01104822002014BE011094
:101E90006022002018BE0110782200201CBE011014
:101EA0009022002020BE0110A822002074210020D2
:101EB00010B50120FFF7DEFB10BDC04610B50400D1
:101EC000034B0833036002F057F8200010BDC046F2
:101ED000A4C5011010B50400054B0833036002F0DF
:101EE0004BF8200004210FF07DFA200010BDC04601
:101EF000A4C501100023F0B5036043608360154B57
:101F000004000E0083B0D5009D4216D8002D0ED0DF
:101F1000280010F021F947192060A760002D0AD091
:101F20002A0031000BF038FB676003B0F0BD0027DA
:101F300005608560F8E70700F6E7074810F0E2FB68
:101F40002068A168091A002801D00FF04BFA0FF0A1
:101F5000F1FAC046F8FFFF7FF4BE0110F0B5C646A7
:101F6000040000B5002825D01A4B1B4F98462600C8
:101F7000E068FFF7F3FFB569A468002D14D06B6823
:101F8000013B6B60002B0FD12B689B68BB4214D1C7
:101F9000AB68013BAB60002B06D12B68DA68424589
:101FA0000ED128005B6898471C2130000FF01AFA08
:101FB000002CDCD180BCB846F0BD28009847E7E78C
:101FC000280090471C2130000FF00CFA002CCED1D5
:101FD000F0E7C0460D10001009100010F0B5DE4605
:101FE00057464E464546E0B5834685B0002800D1A9
:101FF00099E05B46DB680193002B00D186E0019BF2
:10200000DB689946002B72D04B46DB689A46002B62
:1020100060D05346DC68002C42D0E668002E27D002
:10202000F3689846002B2FD04346DD68002D44D03E
:10203000EF68002F10D0F868FFF7D0FF3B00DA6997
:10204000BF68100002930392FFF788FF2C210298CB
:102050000FF0C8F9002FEED1AF68E869FFF77EFFF7
:102060002C2128000FF0BEF9002F26D03D00DFE71D
:10207000A568E069FFF772FF2C2120000FF0B2F98C
:10208000002D0DD02C00C8E7B568F069FFF766FF9A
:102090002C2130000FF0A6F9002DE9D02E00BFE76B
:1020A00053469C68D869FFF759FF2C2150460FF022
:1020B00099F9002C0ED0A246ABE743469D68D8693B
:1020C000FFF74CFF2C2140460FF08CF9002DDBD0A0
:1020D000A846A9E74B469C68D869FFF73FFF2C212B
:1020E00048460FF07FF9002C01D0A1468CE7019DF6
:1020F000EB69AC6818000193FFF730FF2C21280032
:102100000FF070F9002C01D0019478E75B469C68D1
:10211000D869FFF723FF2C2158460FF063F9002CF4
:1021200001D0A34665E705B0F0BCBB46B246A94660
:10213000A046F0BD10B5040001F028FF024B2000BE
:102140000833236010BDC046A4C50110F0B5DE46BB
:1021500057464E4645468B460221E0B59846531EEB
:102160008246894687B0022B04D90139931F8946DC
:102170000A2B3DD853002A499B189B005D1800206C
:10218000CB5800210290039100216A680491D41A6F
:102190009A4236D0234B9C4236D820000FF0DCFF09
:1021A0000ACD0419029003900494994209D00022A8
:1021B0005B1A84188D180832C0CDC0C49A42F8D179
:1021C000801843460390009359464B46504602AA56
:1021D00001F0A8FF0298002803D00499091A0FF013
:1021E00001F907B0F0BCBB46B246A946A046F0BD17
:1021F00011000D2313398B429B410321194089465D
:10220000B8E700240020CBE710F054FA02980499B4
:10221000091A002801D00FF0E5F80FF08BF9C0463D
:102220001C260020F8FFFF7FF8B5CE46474680B554
:102230001F00089B04000D00380005211600984679
:102240000AF0DCFC8946002900DDC9E04346012292
:1022500029002000FFF77AFF4346022229002000D0
:10226000FFF774FF43460C2E31DD202229002000A9
:10227000FFF76CFF182F32DD701C18210AF0BEFC2E
:102280000E00002E02D00C2E00D0E0E043461D22AE
:1022900029002000FFF75AFF7E1F132E00D88DE083
:1022A0003B00233B042B57D93B00193B042B00D8A0
:1022B000BBE03B00283B132B00D8B6E0042F51D8DD
:1022C0004346032229002000FFF740FF4AE01F2277
:1022D00029002000FFF73AFF182FCDDCD1E70D2EA3
:1022E00062D00E2E00D1B8E00F2E00D1E1E0042E16
:1022F00000D1E5E0102E00D1E2E0052E00D1E6E0AD
:10230000112E00D1E3E0062E00D1E7E0122E00D11D
:10231000E4E0072E00D1E8E0132E00D1E5E0082E1E
:1023200000D1E9E0142E00D1E6E0092E00D1EAE068
:10233000152E00D1E7E00A2E00D1EBE0162E00D1D9
:10234000E8E00B2E01D0172EA6D143461B22290010
:102350002000FFF7FBFE9FE743460C2229002000E8
:10236000FFF7F4FE3B00143B042B00D889E03B0050
:10237000193B042B00D877E03B001E3B042B00D810
:102380008BE0053B042B00D86EE0053B042B00D806
:1023900077E0053B042B00D87FE0053B042B4FD9A9
:1023A000373F042F18D811E043461422290020009B
:1023B0007E1FFFF7CBFE132E00D971E743460C2298
:1023C00029002000FFF7C2FE042E35D8434608221C
:1023D00029002000FFF7BAFEC0BCB946B046F8BDE0
:1023E00043460D2229002000FFF7B0FE4B46012B8B
:1023F00000D12BE743460E2229002000FFF7A6FE5E
:102400004B46022B00D121E743460F222900200032
:10241000FFF79CFE4B46042B00D017E743461022E3
:1024200029002000FFF792FE10E743460A22290008
:102430002000FFF78BFE95E73B000A3B042B27D8D3
:102440004346092229002000FFF780FEC4E7012E41
:10245000AAD00D2EA8D0022E26D14346192229003B
:102460002000FFF773FE17E74346290020000822EB
:10247000FFF76CFE43460B2229002000FFF766FEA3
:10248000AAE74346072229002000FFF75FFEA3E7E3
:102490003B000F3B042B00D964E74346062229008A
:1024A0002000FFF753FE97E70E2ED6D0032E00D064
:1024B0001AE74346162229002000FFF747FEEBE605
:1024C0004346172229002000FFF740FEE4E643467A
:1024D000182229002000FFF739FEDDE643461522C9
:1024E00029002000FFF732FED6E643461C222900D1
:1024F0002000FFF72BFECFE643461A2229002000DA
:10250000FFF724FEC8E64346132229002000FFF708
:102510001DFEC1E643461E2229002000FFF716FEDD
:10252000BAE6C046F0B5C64600B5C6B0012800D12F
:1025300076E02F4A1368013B1360002B14D12D4C19
:102540002D4D206800280BD0A368191A0EF04AFF01
:1025500023000C3BA54207D01C0020680028F3D1C3
:1025600023000C3BA542F7D1244A1368013B1360BA
:10257000002B08D1224B234A1868904203D0996857
:1025800001310EF02FFF204A1368013B1360002B2E
:1025900000D1B1E21D4A1368013B1360002B00D14A
:1025A000AEE21B4A1368013B1360002B18D1194C93
:1025B000194D23002068083398420DD0A368591C98
:1025C0000EF010FF2300183BA54209D01C00230089
:1025D000206808339842F1D12300183BA542F5D179
:1025E0000E4B9868FFF7FAFC46B080BCB846F0BDC9
:1025F00050210020A82700201C2600203421002084
:10260000742100207C210020382100203C21002062
:1026100040210020A8220020D0210020CC2700202B
:102620000022FA4B191D1A719A605A61D96019611A
:10263000F74B1A68551C1D60012D00D164E2F54B63
:102640001A68541C1C60012C0ED1F34D1022280076
:1026500000210C300AF09AFFF04B6C602B600023D5
:10266000AB60FE239B052B61ED4A136801331360B9
:10267000012B00D183E2EB4A136801331360012B75
:1026800000D176E2E84A136801331360012B04D1CC
:102690000022E64B1A6004325A60E54B1A68551C5A
:1026A0001D60012DA0D10023E24F00223B607B6022
:1026B000BB600023389239930122002338AC3A9250
:1026C0003B9321000132DC4836943792FFF712FC2D
:1026D000DA4B98462300424643CA43C3126821009E
:1026E0001A600222D64834943592FFF703FC434621
:1026F0002200103343CB43C243CB43C243CB43C23C
:1027000043CB43C206222100CE4832943392FFF7D6
:10271000F1FB002341463822403120003B637B63BC
:10272000BB63FB633B647B640AF036FF0722210036
:10273000C54830943192FFF7DDFB464622007836DB
:102740000BCE0BC20BCE0BC20BCE0BC20BCE0BC2F1
:1027500006222100BD482E942F92FFF7CBFB2200CA
:10276000BB4B9846283343CB43C243CB43C203CB36
:1027700003C204222100B7482C942D92FFF7BAFB24
:1027800043462200483343CB43C243CB43C20322D8
:102790002100B1482A942B92FFF7ACFB434622005C
:1027A000603343CB43C21B68210013600222AB4855
:1027B00028942992FFF79EFB4646220070360BCEE6
:1027C0000BC20BCE0BC20ACE0AC204222100A448BF
:1027D00026942792FFF78EFB2200A24B98461033D7
:1027E00043CB43C243CB43C203CB03C204222100E9
:1027F0009D4824942592FFF77DFB012300225B4234
:102800003892399321000132984822942392FFF79D
:1028100071FB01230C225B423892399321000B3A61
:10282000934820942192FFF765FB012365225B42C8
:10283000389239932100643A8E481E941F92FFF714
:1028400059FB012371225B42389239932100703A7F
:1028500089481C941D92FFF74DFB0023CC22BB50EE
:102860000432BB500432BB500432BB500432BB5064
:102870000432BB5043462200303343CB43C243CBE8
:1028800043C203CB03C2042221007C481A941B924A
:10289000FFF730FB43462200503343CB43C243CBC8
:1028A00043C203222100764818941992FFF722FBB5
:1028B0004646220068360BCE0BC20BCE0BC203225B
:1028C0002100704816941792FFF714FB6E4B984640
:1028D0002300424643CA43C343CA43C343CA43C314
:1028E000126821001A600522684814941592FFF7B7
:1028F00001FB43462200283343CB43C243CB43C2B0
:1029000003CB03C204222100614812941392FFF703
:10291000F1FA43462200483343CB43C243CB43C280
:1029200003CB03C2042221005A4810941192FFF7EE
:10293000E1FA4646220068360BCE0BC20BCE0BC224
:102940000322210054480E940F92FFF7D3FA534B01
:1029500098462300424643CA43C343CA43C343CABB
:1029600043C3126821001A6005224D480C940D9251
:10297000FFF7C0FA43462200283343CB43C243CB80
:1029800043C243CB43C243CB43C206222100454846
:102990000A940B92FFF7AEFA4646220058360BCE49
:1029A0000BC20BCE0BC20BCE0BC2336821001360DF
:1029B00005223D4808940992FFF79CFA3B4B984644
:1029C0002300424643CA43C343CA43C343CA43C323
:1029D00043CA43C306222100354806940792FFF7F5
:1029E00089FA43462200303343CB43C243CB43C230
:1029F000032221002F4804940592FFF77BFA4346F7
:102A00002200483343CB43C256E0C046CC270020C7
:102A1000402100203C210020B4210020CC210020B6
:102A2000382100203421002044210020C022002031
:102A3000502100201C2600202826002090C20110D2
:102A40003426002040260020642600207026002026
:102A500010C301107C260020882600209426002028
:102A6000A026002090C30110AC260020B82600202C
:102A7000C4260020D0260020DC26002000270020CD
:102A80000C2700201827002010C401102427002044
:102A9000302700203C2700204827002090C4011048
:102AA00054270020602700206C27002010C501104B
:102AB00078270020842700201B6821001360022251
:102AC000854802940392FFF715FA464623005836CC
:102AD00007CE07C3326821001A6002227F480094A3
:102AE0000192FFF707FAC62200235200BB500432BE
:102AF000BB500432BB5077E57948FDF78DFD49E5C1
:102B00007848FDF74FFD4CE5774E38AC2200300099
:102B10007649FDF713FD220075497648FDF70EFD55
:102B2000220075497548FDF709FD22007449754872
:102B3000FDF704FD220074497448FDF7FFFC2200F4
:102B400073497448FDF7FAFC220073497348FDF796
:102B5000F5FC220072497348FDF7F0FC220072492F
:102B60007248FDF7EBFC220071497248FDF7E6FC64
:102B700065E55E4938AA7048FDF7E0FC82E5002370
:102B8000574C20202360A360E36023616361A3614D
:102B9000E36123626362083363600FF0DDFA0500CE
:102BA00063682060581E400880002D18FC204000FB
:102BB0000FF0D2FA0300F933FF3328606561E0605B
:102BC00023616562E0612362A060A06153E5202576
:102BD0002124651B153C6C433C19BC422CD10EF0E2
:102BE000A9FC0EF095FD0FF01DFA00250924651BC8
:102BF0000F346C433419B442F1D0183C23002068E0
:102C000008339842F7D0A368591C0EF0EBFBF2E7AB
:102C100005000EF0B7FD28000EF07AFD636820680D
:102C200099000EF0DFFB0023236063600FF0FAF9D8
:102C30000EF0A8FD0EF07EFC0C3C2068A368191A6B
:102C40000028CAD00EF0CEFBC7E7CFE70225CDE7BC
:102C50000325CBE70425C9E70525C7E70625C5E712
:102C60000725C3E70825C1E70925BFE7B0E7022527
:102C7000AEE70325ACE70425AAE70525A8E7062566
:102C8000A6E70725A4E70825A2E70925A0E70A2566
:102C90009EE70B259CE70C259AE70D2598E70E2566
:102CA00096E7112594E7122592E7132590E714255E
:102CB0008EE715258CE716258AE7172588E718255E
:102CC00086E7192584E71A2582E71B2580E71E255C
:102CD0007EE71F257CE7C046902700209C27002028
:102CE0008C210020B4210020D0210020E8CB01104D
:102CF00068F80110E821002008BE01100022002021
:102D00000CBE011018220020C0FB01103022002050
:102D100010BE01104822002014BE011060220020C5
:102D200018BE0110782200201CBE01109022002045
:102D300020BE0110A82200207421002010B501201F
:102D4000FFF7F0FB10BDC04610B50400034B08337D
:102D5000036001F011F9200010BDC046E4C7011066
:102D600010B50400054B0833036001F005F920009D
:102D700004210EF037FB200010BDC046E4C701104F
:102D8000F0B5C646040000B5002825D01A4B1B4FED
:102D900098462600E068FFF7F3FFB569A468002DA8
:102DA00014D06B68013B6B60002B0FD12B689B68C4
:102DB000BB4214D1AB68013BAB60002B06D12B6842
:102DC000DA6842450ED128005B6898471C21300024
:102DD0000EF008FB002CDCD180BCB846F0BD28000A
:102DE0009847E7E7280090471C2130000EF0FAFAD8
:102DF000002CCED1F0E7C0460D10001009100010D5
:102E0000F0B5DE4657464E464546E0B5834685B0AA
:102E1000002800D199E05B46DB680193002B00D1CC
:102E200086E0019BDB689946002B72D04B46DB683D
:102E30009A46002B60D05346DC68002C42D0E668EE
:102E4000002E27D0F3689846002B2FD04346DD682C
:102E5000002D44D0EF68002F10D0F868FFF7D0FFA6
:102E60003B00DA69BF68100002930392FFF788FF06
:102E70002C2102980EF0B6FA002FEED1AF68E86967
:102E8000FFF77EFF2C2128000EF0ACFA002F26D091
:102E90003D00DFE7A568E069FFF772FF2C21200005
:102EA0000EF0A0FA002D0DD02C00C8E7B568F0692F
:102EB000FFF766FF2C2130000EF094FA002DE9D0C8
:102EC0002E00BFE753469C68D869FFF759FF2C21B5
:102ED00050460EF087FA002C0ED0A246ABE74346D0
:102EE0009D68D869FFF74CFF2C2140460EF07AFA16
:102EF000002DDBD0A846A9E74B469C68D869FFF7B0
:102F00003FFF2C2148460EF06DFA002C01D0A1465F
:102F10008CE7019DEB69AC6818000193FFF730FF67
:102F20002C2128000EF05EFA002C01D0019478E7E5
:102F30005B469C68D869FFF723FF2C2158460EF0AA
:102F400051FA002C01D0A34665E705B0F0BCBB46A2
:102F5000B246A946A046F0BD10B5040001F016F82F
:102F6000024B20000833236010BDC046E4C70110A7
:102F7000F0B5DE4657464E4645468B460221E0B543
:102F80009846531E8246894687B0032B04D90139DF
:102F9000D31F8946072B3DD853002A499B189B0015
:102FA0005D180020CB5800210290039100216A682F
:102FB0000491D41A9A4236D0234B9C4236D8200032
:102FC0000FF0CAF80ACD04190290039004949942B4
:102FD00009D000225B1A84188D180832C0CDC0C4F5
:102FE0009A42F8D1801843460390009359464B46C5
:102FF000504602AA01F096F80298002803D00499DE
:10300000091A0EF0EFF907B0F0BCBB46B246A9466C
:10301000A046F0BD1100072311398B429B410321CB
:1030200019408946B8E700240020CBE70FF042FBA7
:1030300002980499091A002801D00EF0D3F90EF075
:1030400079FAC04640230020F8FFFF7F0023F0B547
:10305000036043608360154B04000E0083B0D5000D
:103060009D4217D8002D0FD028000FF075F8471992
:103070002060A760002D0BD02A0031000AF08CFAE6
:103080002000676003B0F0BD002705608560F7E7AA
:103090000700F5E706480FF035FB2068A168091A1C
:1030A000002801D00EF09EF90EF044FAF8FFFF7FE1
:1030B000F4BE0110F0B5C64600B5B2B0012800D18B
:1030C00076E02F4A1368013B1360002B14D12D4C7E
:1030D0002D4D206800280BD0A368191A0EF082F934
:1030E00023000C3BA54207D01C0020680028F3D128
:1030F00023000C3BA542F7D1244A1368013B13601F
:10310000002B08D1224B234A1868904203D09968BB
:1031100001310EF067F9204A1368013B1360002B60
:1031200000D1F3E11D4A1368013B1360002B00D16D
:10313000F0E11B4A1368013B1360002B18D1194CB6
:10314000194D23002068083398420DD0A368591CFC
:103150000EF048F92300183BAC4209D01C002300B4
:10316000206808339842F1D12300183BAC42F5D1D6
:103170000E4B9868FFF744FE32B080BCB846F0BDF5
:10318000482100206C24002040230020342100200E
:10319000742100207C210020382100203C210020C7
:1031A00040210020A8220020D0210020E427002078
:1031B0000022F54B191D1A719A605A61D960196184
:1031C000F24B1A68551C1D60012D00D1A6E1F04B91
:1031D0001A68541C1C60012C0ED1EE4D10222800E0
:1031E00000210C300AF0D2F9EB4B6C602B6000230D
:1031F000AB60FE239B052B61E84A13680133136023
:10320000012B00D136E2E64A136801331360012B2B
:1032100000D129E2E34A136801331360012B04D182
:103220000022E14B1A6004325A60E04B1A68551CC8
:103230001D60012DA0D10023DD4F00223B607B608B
:10324000BB6001232AAC5B422A922B9321002A0007
:10325000D84826AB28942995FFF7F8FE01230C22C5
:103260005B422A922B9321000B3AD34824AB26943D
:103270002792FFF7EBFE012365225B422A922B93F4
:103280002100643ACD4822AB24942592FFF7DEFE5C
:10329000012371225B422A922B932100703AC84885
:1032A00020AB22942392FFF7D1FE0023FB633B6403
:1032B0007B64BB64FB643B65C24B9846230042467B
:1032C00043CA43C343CA43C303CA03C304222100FE
:1032D000BD481EAB20942192FFF7B8FE4346220062
:1032E000203343CB43C243CB43C203CB03C20422AC
:1032F0002100B6481CAB1E941F92FFF7A7FE434661
:103300002200403343CB43C243CB43C203CB03C26F
:1033100004222100AE481AAB1C941D92FFF796FEC2
:103320004646220060360BCE0BC20BCE0BC20ACE35
:103330000AC204222100A74818AB1A941B92FFF777
:1033400085FEA54B98462300424643CA43C343CA61
:1033500043C303CA03C304222100A04816AB189438
:103360001992FFF773FE43462200203343CB43C23A
:1033700043CB43C203CB03C204222100984814ABC1
:1033800016941792FFF762FE43462200403343CB68
:1033900043C243CB43C203CB03C204222100914862
:1033A00012AB14941592FFF751FE46462200603688
:1033B0000BCE0BC20BCE0BC20ACE0AC204222100D6
:1033C000894810AB12941392FFF740FE0023B422F9
:1033D000BB500432BB500432BB500432BB500432E9
:1033E000BB500432BB50814B98462300424643CA2F
:1033F00043C343CA43C303CA03C3042221007C4816
:103400000EAB10941192FFF721FE434622002033A9
:1034100043CB43C243CB43C203CB03C204222100AC
:1034200074480CAB0E940F92FFF710FE4346220037
:10343000403343CB43C243CB43C203CB03C204223A
:1034400021006D480AAB0C940D92FFF7FFFD464634
:10345000220060360BCE0BC20BCE0BC20ACE0AC2C4
:1034600004222100654808AB0A940B92FFF7EEFD99
:10347000634B98462300424643CA43C343CA43C3EF
:1034800003CA03C3042221005E4806AB08940992D4
:10349000FFF7DCFD43462200203343CB43C243CB3E
:1034A00043C203CB03C204222100574804AB069455
:1034B0000792FFF7CBFD43462200403343CB43C284
:1034C00043CB43C203CB03C2042221004F4802ABCB
:1034D00004940592FFF7BAFD4646220060360BCEF3
:1034E0000BC20BCE0BC20ACE0AC2042221004848EE
:1034F00001AB02940392FFF7A9FD9622002352002C
:10350000BB500432BB500432BB5035E64148FDF796
:1035100083F807E61F48FDF745F80AE63E4E2AAC59
:10352000220030003D49FDF709F822003C493D48A2
:10353000FDF704F822003C493C48FCF7FFFF22005D
:103540003B493C48FCF7FAFF22003B493B48FCF76B
:10355000F5FF22003A493B48FCF7F0FF22003A49C8
:103560003A48FCF7EBFF220039493A48FCF7E6FFFE
:10357000220039493948FCF7E1FF2200384939482F
:10358000FCF7DCFF23E6C046E427002040210020B2
:103590003C210020B4210020CC2100203821002033
:1035A0003421002044210020C02200204821002096
:1035B000402300204C2300205823002064230020B7
:1035C00070230020B8C5011094230020A023002000
:1035D000AC230020B823002038C60110C4230020EB
:1035E000D0230020DC230020E8230020B8C60110EF
:1035F0000C24002018240020242400203024002043
:1036000038C701103C240020482400205424002006
:10361000602400208C210020D0210020E8CB011064
:1036200068F80110E821002008BE011000220020E7
:103630000CBE011018220020C0FB01103022002017
:1036400010BE01104822002014BE0110602200208C
:1036500018BE0110782200201CBE0110902200200C
:1036600020BE0110A822002050492AAA5048FCF789
:1036700065FFCFE500234F4C20202360A360E3606B
:1036800023616361A361E361236263620833636062
:103690000EF062FD050063682060581E400880003F
:1036A0002D18FC2040000EF057FD0300F933FF33C6
:1036B00028606561E06023616562E0612362A0606B
:1036C000A061A0E518251924651B0D3C6C433C192D
:1036D000BC422CD10DF02EFF0EF01AF80EF0A2FC19
:1036E00000250924651B0F346C433419B442F1D012
:1036F000183C2300206808339842F7D0A368591C6F
:103700000DF070FEF2E705000EF03CF828000DF019
:10371000FFFF6368206899000DF064FE00232360BA
:1037200063600EF07FFC0EF02DF80DF003FF0C3CF3
:103730002068A368191A0028CAD00DF053FEC7E705
:10374000CFE70225CDE70325CBE70425C9E705250B
:10375000C7E70625C5E70725C3E70825C1E709250B
:10376000BFE7B0E70225AEE70325ACE70425AAE7EB
:103770000525A8E70625A6E70725A4E70825A2E76B
:103780000B25A0E70C259EE70D259CE70E259AE763
:103790000F2598E7102596E7112594E7122592E763
:1037A000152590E716258EE717258CE7E8CB011045
:1037B000742100208C21002070B5040000680028CE
:1037C0000CD02369191A0DF00DFE002223002100F0
:1037D000A260E260083321CB21C1226170BDC046E6
:1037E000F0B5C64600B594B01A9E04000D0017004F
:1037F00098460A2E00DD7FE00A21404609F0FEF9D6
:10380000684601F01DFC6421404609F0F7F9080004
:103810000A2109F0F3F9010005A801F011FC0A21C1
:10382000380009F0EBF90AA801F00AFC642138001D
:1038300009F0E4F908000A2109F0E0F901000FA8F5
:1038400001F0FEFB009B1B68DA0700D5ECE09A074D
:1038500000D5E0E05A0700D5D4E01B0700D5CAE048
:10386000059B1B68DA0700D5BCE09A0700D5B0E0DD
:103870005A0700D5A4E01B0700D59AE00A9B1B68F5
:10388000DA0700D58CE09A0700D580E05A0700D50A
:1038900074E01B076BD40F980368DA075ED49A07AD
:1038A00053D45A0748D41B0721D5330018222900C6
:1038B0002000FFF75DFB0F98002818D10A98002818
:1038C00003D00E99091A0DF08DFD0598002803D03C
:1038D0000999091A0DF086FD0098002803D0049973
:1038E000091A0DF07FFD14B080BCB846F0BD1399E5
:1038F000091A0DF077FDE1E733000122FFF738FBED
:10390000192E00DC78E73300022229002000FFF79F
:103910002FFB282E00DC6FE7330003222900200054
:10392000FFF726FB372E00DC66E733000422290070
:103930002000FFF71DFB5FE733001722290020005E
:10394000FFF716FB0F980368ADE733001622290036
:103950002000FFF70DFB0F980368A2E73300152244
:1039600029002000FFF704FB0F98036897E7330056
:10397000142229002000FFF7FBFA8CE73300132202
:1039800029002000FFF7F4FA0A9B1B6881E7330047
:10399000122229002000FFF7EBFA0A9B1B6875E74B
:1039A0003300112229002000FFF7E2FA0A9B1B686E
:1039B00069E733000E2229002000FFF7D9FA5DE7FE
:1039C00033000D2229002000FFF7D2FA059B1B6867
:1039D00051E733000C2229002000FFF7C9FA059BAC
:1039E0001B6845E733000B2229002000FFF7C0FACF
:1039F000059B1B6839E733000A2229002000FFF7E6
:103A0000B7FA2DE73300092229002000FFF7B0FAAA
:103A1000009B1B6821E73300082229002000FFF7E4
:103A2000A7FA009B1B6815E7330007222900200036
:103A3000FFF79EFA009B1B6809E70FA8FFF7BCFE83
:103A40000AA8FFF7B9FE05A8FFF7B6FE6846FFF71C
:103A5000B3FE0DF06FFDF3E7F5E7F7E710B50120D2
:103A6000FFF728FB10BDC04610B50400034B083318
:103A7000036000F081FA200010BDC04620C801108C
:103A800010B50400054B0833036000F075FA200000
:103A900004210DF0A7FC200010BDC04620C8011075
:103AA000F0B5DE464E4657464546E0B58BB003932B
:103AB000149B8346894602920A2B00DD7DE0029B1F
:103AC000002B35D0002300269A469846002706ACE6
:103AD00004AD534608202E606B6027606760A760C6
:103AE0000EF03AFB030008339C462A00A3602060D6
:103AF0000ACA0AC063466360149B220000934946C9
:103B00000023584600F00EFB2068002803D0A3686D
:103B1000191A0DF067FC01360A2E03DD01239C46BD
:103B20000026E24401239C46029BE0449845D0D104
:103B3000039B002B3AD00023002798460933002628
:103B40009A4606AC04AD0297424653469B1A6B60F8
:103B50000022002306920793002308202E60A36012
:103B60000EF0FAFA03002A000833A360206082CA2C
:103B700082C06360149B220000934946012358468B
:103B800000F0D0FA2068002803D0A368191A0DF0BD
:103B900029FC01360A2E03DD01239C460026E04461
:103BA000029A039B013202929A42CDD10BB0F0BC33
:103BB000BB46B246A946A046F0BD012300225B42A7
:103BC0000492059300230022069207930023082005
:103BD00006ACA3600EF0C0FA030004AD2A0008335F
:103BE0000690A36042CA42C06360149B494600939A
:103BF0005846022300F096FA0698002803D0A368DE
:103C0000191A0DF0EFFB149B192B00DC57E7012369
:103C10000C225B4204920593002300220692079334
:103C200000230820A3600EF097FA03002A0008334F
:103C30000690A36042CA42C06360149B22000093B6
:103C400049460223584600F06DFA0698002803D032
:103C5000A368191A0DF0C6FB149B282B00DC2EE775
:103C6000012365225B420492059300230022069201
:103C7000079300230820A3600EF06EFA03002A00C9
:103C800008330690A36042CA42C06360149B2200BE
:103C9000009349460223584600F044FA069800284B
:103CA00003D0A368191A0DF09DFB149B372B00DC81
:103CB00005E7012371225B42049205930023002251
:103CC0000692079300230820A3600EF045FA030034
:103CD00008330690A36006CD06C06360149B2200E3
:103CE000009349460223584600F01CFA0698002823
:103CF00000D1E4E6A168091A0DF074FBDFE606982E
:103D0000A168091A002801D00DF06CFB0DF012FC1F
:103D1000F5E7F4E7F3E7F2E7F1E7F0E7EFE7EEE7DF
:103D2000EDE7ECE7EBE7C04610B5040000F02EF934
:103D3000024B20000833236010BDC04620C801108C
:103D400000226E4B30B5191D1A719A605A61D96004
:103D500019616B4B83B01A68541C1C60012C5BD03A
:103D6000684B1A68541C1C60012C0ED1664D102241
:103D7000280000210C3009F009FC644B6C602B60BA
:103D80000023AB60FE239B052B61614A136801335E
:103D90001360012B18D05F4A136801331360012BA5
:103DA0000CD05D4A136801331360012B04D100224B
:103DB0005A4B1A6004325A6003B030BD584901AA08
:103DC0005848FCF7BBFBECE70023574C202023604E
:103DD000A360E36023616361A361E36123626362C3
:103DE000083363600EF0B8F9050063682060581E60
:103DF000400880002D18FC2040000EF0ADF90300B3
:103E0000F933FF3328606561E06023616562E0613A
:103E10002362A060A061BEE7444D4149280001AA89
:103E2000FCF78CFB4249434801AAFCF787FB424957
:103E3000424801AAFCF782FB4149424801AAFCF72B
:103E40007DFB4149414801AAFCF778FB40494148C4
:103E500001AAFCF773FB4049404801AAFCF76EFB3E
:103E60003F49404801AAFCF769FB3F493F4801AA86
:103E7000FCF764FB3E493F4801AAFCF75FFB6FE794
:103E80000DF046FC0EF0CEF8092409231B1B182464
:103E90005C432C19AC4226D10DF04CFB0824F4E70E
:103EA00005000DF06FFC28000DF032FC63682068FF
:103EB00099000DF097FA0023236063600EF0B2F8CA
:103EC0000DF060FC0DF036FB0724DEE70624DCE78E
:103ED0000324DAE70224D8E7D7E70024D5E705244E
:103EE000D3E70424D1E7183C230020680833984224
:103EF000D0D0A368591C0DF075FACBE7FC27002041
:103F0000402100203C210020B4210020CC210020B1
:103F1000382100203421002044210020C02200202C
:103F2000E8CB0110742100208C210020D02100203A
:103F300068F80110E821002008BE011000220020CE
:103F40000CBE011018220020C0FB011030220020FE
:103F500010BE01104822002014BE01106022002073
:103F600018BE0110782200201CBE011090220020F3
:103F700020BE0110A82200207047C04610B50400E2
:103F800004210DF02FFA200010BDC046014B08336C
:103F900003607047DCC8011070B5050082B00800EE
:103FA0000C000DF005F800222B680092210028007B
:103FB0001E680023B04720000DF00CF802B070BD61
:103FC00030B510000D0083B0032948D03C2108F023
:103FD00015FE8C00A9006D1828012D186519EDB289
:103FE0002B21280008F032FEFF21C2B28006801A81
:103FF00080008018800080188000801840194300DD
:10400000C3185B00DBB21802C01A0012081ACB1AE0
:104010000402201A1C02E31A1B12CB1A1902C91A35
:1040200000120912C0B2C9B2042A03D8154C930079
:10403000E3589F4602000021FF2001AB9A70002246
:1040400018705970DA70597818789A780902DB7804
:10405000120408431B061043184303B030BD0A4B3B
:10406000019301ABEFE70022FF21E6E70100FF2209
:104070000020E2E70800FF220021DEE70A0000201E
:10408000FF21DAE734C801108080808010B50C6809
:1040900088B00A2C1ADC4A68092A17DC93009B189E
:1040A00058008018D3070FD5001B0A30C343DB0F1D
:1040B0000A2800DD0133622800DD01336D2800DDB0
:1040C0000133C01808B010BD0019EFE71C2300220F
:1040D00001A904AC02A8019302940EF00BFD019B10
:1040E0001C220F490493029009F056FA0022019B0A
:1040F0000299039302A8CA5402F012FC0298A0424B
:1041000003D0049901310DF06DF90020DAE702982F
:10411000A04203D0049901310DF064F90DF00AFAC0
:1041200048C80110F0B54E4645465746DE46E0B554
:104130001F001568536880468946160089B09D4265
:104140006CD03C21129808F059FDBB00FB181801F7
:104150001B188C00E418E4B22B21200008F076FD37
:10416000C3B29A46FF218006C01A800050448000E6
:1041700050448000504400194300C3185B00DBB278
:104180001A02D21A12128A1A1002821A1212D2B209
:104190000292CA1A13029B1A1B12CB1A1A02D31AC2
:1041A0001B12DBB2039353469A009346334B002411
:1041B0009B443B0057469A46E300EB181D685B683A
:1041C0005A1C47D02E4A1278002A03D00922D31A4B
:1041D0000132551B06A9404607930695FFF756FF87
:1041E00053460100032B30D0042F43D85B461B6895
:1041F0009F460020FF22029B0025120200041A4362
:1042000002432D062A43484605920CF009FE356804
:10421000736801345B1BDB10A342CDD809B0F0BC3E
:10422000BB46B246A946A046F0BD3800FF23039A1C
:10423000E2E7FF200022039BDEE7FF200023029A33
:10424000DAE7FF2200230398D6E78025802080222A
:104250008023D2E7129A51464046FFF7B1FE722101
:1042600001900490280008F0C9FC4846019A0CF01F
:10427000D7FDCCE70022FF230298BDE768C80110F4
:10428000C0220020F0B5D64646464F464B4BC0B53F
:104290009A468AB002AD2B0052460F00060013CAA0
:1042A00013C313CA13C303CA03C320200DF054FF62
:1042B00020222900804609F06FF900230022029293
:1042C000039300232020AB600DF046FF2023994686
:1042D00081444B46202241460290AB6009F05CF9D4
:1042E0004B466B60129B2A0000933900002330007C
:1042F000FFF718FF0298002803D0AB68191A0DF0D9
:1043000071F854462A0020340BCC0BC20BCC0BC2E4
:1043100020200ACC0AC20DF01FFF20222900040031
:1043200009F03AF90023002202920393002320208F
:10433000AB600DF011FF2023994681444B462022AB
:1043400021000290AB6009F027F94B466B60129B8D
:104350002A000093390001233000FFF7E3FE0298A2
:10436000002803D0A968091A0DF03CF8200020218C
:104370000DF038F8202140460DF034F80AB0E0BCCA
:10438000BA46B146A846F0BD202140460DF02AF8B5
:104390000DF0D0F80298A968091A002801D00DF094
:1043A00021F8202120000DF01DF8EDE7F9E7029833
:1043B000A968091A0028F6D1E6E7C0467CC80110B2
:1043C000F0B5C64605000C0016001F0000B5080039
:1043D00082B00CF0EDFD089A2B6800921B68320049
:1043E000984621003B002800C04720000CF0F2FD59
:1043F00002B080BCB846F0BD00226E4B30B5191D2E
:104400001A719A605A61D96019616B4B83B01A684E
:10441000541C1C60012C5BD0684B1A68541C1C6037
:10442000012C0ED1664D1022280000210C3009F01D
:10443000ADF8644B6C602B600023AB60FE239B05E2
:104440002B61614A136801331360012B18D05F4A56
:10445000136801331360012B0CD05D4A13680133DC
:104460001360012B04D100225A4B1A6004325A60A7
:1044700003B030BD584901AA5848FCF75FF8ECE793
:104480000023574C20202360A360E3602361636115
:10449000A361E36123626362083363600DF05CFE35
:1044A000050063682060581E400880002D18FC201D
:1044B00040000DF051FE0300F933FF3328606561C1
:1044C000E06023616562E0612362A060A061BEE7F5
:1044D000444D4149280001AAFCF730F842494348BD
:1044E00001AAFCF72BF84249424801AAFCF726F83A
:1044F0004149424801AAFCF721F84149414801AA33
:10450000FCF71CF84049414801AAFCF717F840495C
:10451000404801AAFCF712F83F49404801AAFCF7BD
:104520000DF83F493F4801AAFCF708F83E493F48CB
:1045300001AAFCF703F86FE70DF0EAF80DF072FD41
:10454000092409231B1B18245C432C19AC4226D1D7
:104550000CF0F0FF0824F4E705000DF013F9280033
:104560000DF0D6F86368206899000CF03BFF00233B
:10457000236063600DF056FD0DF004F90CF0DAFFD6
:104580000724DEE70624DCE70324DAE70224D8E781
:10459000D7E70024D5E70524D3E70424D1E7183C66
:1045A0002300206808339842D0D0A368591C0CF02F
:1045B00019FFCBE714280020402100203C210020D7
:1045C000B4210020CC2100203821002034210020FB
:1045D00044210020C0220020E8CB011074210020DB
:1045E0008C210020D021002068F80110E821002053
:1045F00008BE0110002200200CBE0110182200206D
:10460000C0FB01103022002010BE01104822002003
:1046100014BE01106022002018BE01107822002074
:104620001CBE01109022002020BE0110A8220020F4
:104630007047C04610B5044C4172446000240472B7
:104640008272C37210BDC046E40706057047C046BB
:1046500010B504000822043108F09EFF200010BDB0
:1046600010B504000C210CF0BDFE200010BDC046AA
:10467000F0B54B68060087B00800002B01D107B0E9
:10468000F0BD002200230292039300233B4902AABB
:10469000049300F04BFF039D029C2B1B302B24D96D
:1046A00033682068DF6815F0DBFB039B029A0193F7
:1046B00004009B1A182B3BD9906915F0D1FB039B82
:1046C000029A019305009B1A302B38D9106B15F014
:1046D000C7FB2B4B9F4223D12A4B7472736000237C
:1046E000B572029C039D3372F072AC420CD0230071
:1046F0002068083398420FD0A3681834591C0CF076
:1047000071FEAC42F3D1029D002DB8D0049928006F
:10471000491B0CF067FEB2E71834AC42E7D1F2E770
:10472000C3B2EAB23000E1B2B847029C039DDCE7B5
:10473000154ADB1001215A4314480DF0FBFF124AC1
:10474000DB1002215A4311480DF0F4FF029C039D37
:10475000A54208D102980499091A002801D00CF04A
:1047600041FE0CF0E7FE230020680833984203D096
:10477000A368591C0CF036FE1834E9E7D0F6011096
:1047800035460010E4070605ABAAAAAAF0C8011036
:10479000014B0833036070474CC9011010B5040089
:1047A000034B08330360FFF743FF200010BDC046F2
:1047B00094C9011010B50400054B08330360FFF7DE
:1047C00037FF20000C210CF00DFE200010BDC0466C
:1047D00094C9011010B582B06C46002020710848C1
:1047E000617120800748A27160806846E3710BF018
:1047F00063FF4020002105F069FF02B010BDC046F4
:10480000E40700000605000010B504000BF0AAFF45
:10481000200010BDF0B54B68060089B00800002BE1
:1048200001D109B0F0BD00220023049205930023BA
:104830003F4904AA069300F079FE059D049C2B1BBA
:10484000302B2ED933682068DF6815F009FB059BF3
:10485000049A019304009B1A182B43D9906915F010
:10486000FFFA059B049A019305009B1A302B40D94F
:10487000106B15F0F5FA2F4B9F422DD1002302AAA1
:1048800013712D4BD07113802C4B10005380547139
:1048900095710BF011FF4020002105F017FF049CDB
:1048A000059DAC420CD023002068083398420FD0FD
:1048B000A3681834591C0CF095FDAC42F3D1049D4B
:1048C000002DAED006992800491B0CF08BFDA8E7FF
:1048D0001834AC42E7D1F2E7C3B2EAB23000E1B239
:1048E000B847DCE7164ADB1001215A4315480DF0A2
:1048F00021FF134ADB1002215A4312480DF01AFF20
:10490000049C059DA54208D104980699091A00281F
:1049100001D00CF067FD0CF00DFE23002068083379
:10492000984203D0A368591C0CF05CFD1834E9E7E9
:10493000D0F60110D5470010E4070000060500007E
:10494000ABAAAAAAF0C8011030B587B002AC050026
:104950000BF096FE22000F4B009403CB03C20823FA
:104960006A4601930023694628001374FFF752FF3B
:104970000098A04203D0029901310CF033FD07B03A
:1049800030BD0098A04203D0029901310CF02AFDFD
:104990000CF0D0FD6CC9011010B50400FFF7F8FE53
:1049A000024B20000833236010BDC04694C901109B
:1049B0007047C04610B50400034B08330360FFF78F
:1049C00037FE200010BDC046CCC9011010B5040050
:1049D000054B08330360FFF72BFE20000C210CF081
:1049E00001FD200010BDC046CCC90110F0B5C6467F
:1049F00000B5180084B00E000A211700984608F090
:104A000025F90A210501404608F020F902AC6D188D
:104A100038000A21257008F019F90A21050138002B
:104A200008F014F930006D180A21657008F00EF9CD
:104A30000A210501300008F009F901230222E37080
:104A400063711F33A3716D18193B2271A570512139
:104A50000093013A2300034800F04CF904B080BCF5
:104A6000B846F0BD38160020F0B50023072485B005
:104A7000050002AE0322002103A8029308F086FD80
:104A80003300009401225121204800F05BF9B179F4
:104A900070790B099A009B180F225B0011405B187C
:104AA0005BB22B80C306DB0F99005B1810405B00E4
:104AB0001B18AB700323F078010919408F00C91946
:104AC000104049000918E970317921402971B17805
:104AD0000809034098001B1811405B005B187178AF
:104AE0006B710B09234098001B18280011405B00D4
:104AF0005B18AB71337819090C40A10064181A4097
:104B00006400A418EC7105B0F0BDC0463816002052
:104B1000F0B5CE46474680B54B6806008BB008001E
:104B2000002B04D10BB0C0BCB946B046F0BD00228A
:104B30000023069207930023514906AA089300F028
:104B4000F5FC079D069C2B1B302B51D93368206840
:104B5000DB68994615F084F9079B069A0393C5B262
:104B60009B1A182B66D9906915F07AF9079B069A5B
:104B70000393C7B29B1A302B63D9106B15F070F9F1
:104B8000C3B298463F4B99454ED10A21404608F0A2
:104B90005DF80A210601404608F058F804AC761882
:104BA00026700A21380008F051F80A210601380061
:104BB00008F04CF8761866700A21280008F046F8CC
:104BC0000A210601280008F041F801230222E370BF
:104BD00063711F337618A371193B2271A67051219E
:104BE000009329482300013A00F084F8069C079DB1
:104BF000AC420CD0230020680833984210D0A36840
:104C00001834591C0CF0EEFBAC42F3D1069D002D7C
:104C100000D187E708992800491B0CF0E3FB81E7E6
:104C20001834AC42E6D1F1E743463A00290030009F
:104C3000C847DBE7154ADB1001215A4314480DF041
:104C400079FD124ADB1002215A4311480DF072FD22
:104C5000069C079DA54208D106980899091A0028C4
:104C600001D00CF0BFFB0CF065FC2300206808337A
:104C7000984203D0A368591C0CF0B4FB1834E9E740
:104C8000D0F60110ED49001038160020ABAAAAAAF0
:104C9000F0C8011010B50400FFF77AFD024B2000A8
:104CA0000833236010BDC046CCC9011010B51C00EC
:104CB000431A0298511A001B584307F09FFF00192E
:104CC00010BDC046030010009A4200DD1800884263
:104CD00000DA08007047C04670B5006815000C0087
:104CE00015F0BEF8A84200DD2800A04200DA20003E
:104CF00070BDC046F0B5C64600B582B002AF060032
:104D000010003A7E0D0014001900531C98466B46A3
:104D10000834E408E4001B1B9D4602AC002A0CD0BA
:104D200020700920684408F037FC0023220000931B
:104D300030004346E9B20BF0C3FDBD46002080BC05
:104D4000B846F0BDF0B5C64600B584B006000AA866
:104D50001F0003780F206844984600250270002B3E
:104D600014D00123CCB202002100009330000BF0DC
:104D7000A7FD3A0021000095434630000BF008FEE5
:104D8000397805000200044808F0B2FE280004B09B
:104D900080BCB846F0BDC046ECC90110F0B557461E
:104DA0004E46DE464546E0B587B0029383688146AD
:104DB0009C4603698A460491059201929C4500D164
:104DC00071E0C368591C9B461F231C008846CA1704
:104DD00014404444D20E039164118918A4000B407E
:104DE00064449B1A5CD462465146551A5A4601994E
:104DF000ED00521AAD1867465E468846002D14DD58
:104E0000002E33D00121013EB140002B34D00122CD
:104E1000013B9A403868084220D02168013D0A438E
:104E20002260002DECD1434601930123019A934067
:104E3000029A002A25D1524612689A43130052461C
:104E400013605B461F2B24D04B46039ADA6007B0F1
:104E5000F0BCBB46B246A946A046F0BD2168013D64
:104E600091432160002DDED0002ECBD180211F2662
:104E7000043F0906002BCAD180221F23043C1206DE
:104E8000C8E7524612681343524613605B461F2B15
:104E9000DAD100234A46D360634604339360D6E7F1
:104EA0002033043C9FE762460368D31AC268DB00E4
:104EB0009446604A6344934200D1B7E00122002B3C
:104EC00000D0A2E05B4B9A4200D91A001F3252096F
:104ED0009300180003930DF03FF94B461E685346AC
:104EE00083469C1BB24503D02200310016F02CFFF4
:104EF000220001985A44011E00DC92E0554600232E
:104F0000012780460DE01468204310601F2B13D04A
:104F1000581C9C1C3B00834001399C46030000291F
:104F200013D0380098402C680442ECD114688443B4
:104F3000200010601F2BEBD1012301399C46012476
:104F40000023043504320029EBD1414615000191BC
:104F50001F2B01D10024151D029B002B5DD0634641
:104F600011680B4313604B4652469B6801989A1A8E
:104F70004B46DB68D2001B1AD218002A28DDB44643
:104F8000012156460CE047462B681F432F601F281F
:104F900014D001301F2C15D0013A0134002A16D04C
:104FA0000F000B00A7408340B84637681F42EAD184
:104FB00043462F689F432F601F28EAD10020043604
:104FC0001F2CE9D1013A00240435002AE8D16646B5
:104FD000002E0DD04B461B693000991B0CF002FAD5
:104FE00000234A469360D3604B46083303CB03C289
:104FF0004A46039B5B4413614B465A461A604A4635
:10500000002395605360D46021E75A00934200D892
:1050100058E7094B180003935DE7614613688B431B
:10502000A0E7012315009C46012495E703480DF0F5
:1050300069FBC046E0FFFF7FFCFFFF0FF8C90110CE
:10504000F0B5DE4657464E4645460023E0B50360C0
:1050500043608360C360036108339A4683B0EB46C4
:1050600082445E4653460D0006CB06C601235A46CF
:10507000002152682B400400FFF790FEEB0FA2685E
:105080005B1921699B071700DB0F8A4200D114E1ED
:10509000E06880461F2800D1F8E00130E060012080
:1050A0004646B040002B00D0A4E03B6883433B6001
:1050B000EB1798460323464633405B195B07100005
:1050C000DB0F8A4200D1EBE0E668B1461F2E00D12B
:1050D000C3E001264E44E66001264F46BE40002B49
:1050E00000D0B5E00368B34303600723464633406E
:1050F0005B191B071000DB0F8A4200D111E1E66843
:10510000B1461F2E00D1BCE001264E44E6600126C8
:105110004F46BE40002B00D095E00368B3430360C8
:105120000F23464633405B19DB061000DB0F8A4233
:1051300000D1E9E0E668B1461F2E00D19CE00126CF
:105140004E44E66001264F46BE40002B00D075E07D
:105150000368B34303601F23464633405B199B0635
:105160001000DB0F8A4200D1C1E0E668B1461F2E75
:1051700000D17CE001264E44E66001264F46BE4049
:10518000002B56D10368B34303603F2346463340A8
:105190005B195B061000DB0F8A4200D19AE0E668DB
:1051A000B1461F2E5ED001264E44E66001264F46D2
:1051B000BE40002B26D10368B34303607F234046E3
:1051C00003405B191B06DB0F8A4227D0E0681F28CB
:1051D00061D0411CE16001218140002B0ED0136899
:1051E00019431160200003B0F0BCBB46B246A9468B
:1051F000A046F0BD3B681843386059E713688B43FD
:105200001360EFE733000668334303607F234046B3
:1052100003405B191B06DB0F8A42D7D15E4652461C
:1052200003CA03C65A46200000995268FFF7B6FD2C
:10523000D8E73300066833430360A6E73300066807
:105240003343036087E7330006683343036067E74F
:10525000330006683343036047E700260432E66004
:10526000A26039E700260432E660A2609EE70026CD
:105270000432E660A26080E700260432E660A260A5
:1052800060E700260432E660A26040E700200432B6
:10529000E060A26003E70021E160111DA1609AE7D0
:1052A0005E46524603CA03C65A4620000099526819
:1052B000FFF774FDA268216917E75E46524603CAEC
:1052C00003C65A46390020005268FFF767FDA268FE
:1052D0002169EDE65E46524603CA03C65A462000DF
:1052E00000995268FFF75AFDA268216966E75E4699
:1052F000524603CA03C65A46200000995268FFF777
:105300004DFDA268216940E75E46524603CA03C6C6
:105310005A46200000995268FFF740FDA2682169B3
:1053200019E75E46524603CA03C65A462000009952
:105330005268FFF733FDA2682169F1E62068002872
:105340000BD02369191A0CF04DF8002322005146A6
:10535000A360E36021C921C223610CF0EBF8C046D1
:105360000368F0B54E46994657464546DE4614005A
:105370004A464368E0B50F00991AC9108A005218CE
:1053800098461301D2181302D2181304D3185B00E5
:10539000624A5B18824683B0934200D1BBE001228F
:1053A000002B03D05A00934200D9A9E04B46FD1AC6
:1053B000002A00D093E01823009300239B4601931A
:1053C0005D44280026002368083008362860B34270
:1053D00000D19BE02B60A368AB60636826606B60C4
:1053E000002363602372B9452ED04E465C464D467D
:1053F000083609E02360AB681836A3606B6818357F
:1054000063601834BD4210D02000083020602B6843
:10541000B342EFD13100102208F0BEF86B681835A6
:10542000636018361834BD42EED13B004A46183B43
:105430009B1ADA083A4B5343DB00DB0802335A006D
:10544000D318DB005B440093B84530D03E003D00EC
:10545000009C083609E02360AB681836A3606B68CF
:10546000183563601834454510D020002B6808308B
:105470002060B342EFD13100102208F08DF86B6844
:1054800018356360183618344545EED14346DF1BA6
:10549000183F234BFF087B43DB00DB0801335A0036
:1054A000D318009ADB0094469C44634600934B4615
:1054B000002B06D053464A469B684846991A0BF083
:1054C00091FF53465A461A60009A5A60019A9A60B0
:1054D00003B0F0BCBB46B246A946A046F0BD0F4B98
:1054E0009A4211D85600B618F60030000CF034FE7F
:1054F000330083465B44019318235B4400935FE7CA
:105500004B46084EFD1AF0E71A00EBE71022310077
:1055100008F042F861E704480DF0F4F855555505D8
:10552000ABAAAA0AF8FFFF7F14CA0110F0B5C6465D
:1055300000B500688AB08846150015F0E1FC06AE9B
:10554000071E23D153E0012855D13A7802A90A74E5
:10555000320000210593D1546C68AB689C4233D073
:10556000200008302060049BB34249D02360069B92
:105570000193A360059B636001936B6818336B60B4
:105580004146002015F0BCFC071E30D038000496C0
:1055900015F04EFC0400030003900F28D3D900221D
:1055A00003A904A80DF0A6FA039B04900693220019
:1055B000390007F0F1FF0021039B049A0593D154B1
:1055C0006C68AB689C42CBD12100280004AAFFF78D
:1055D000C7FE0498B042D3D0069B591C01930BF030
:1055E00001FF4146002015F08BFC071ECED10AB00A
:1055F00080BCB846F0BD32000028AAD03000D6E703
:105600001022310007F0C8FFB4E70498B04203D07D
:10561000069901310BF0E6FE0BF08CFF10B504008B
:105620000A49142004F056FA2100142004F01AFA52
:10563000A20123011343064A9363002C04D03823AC
:10564000526B1340034A136010BDC0468D6B0010AF
:10565000004003403450034008239C46F0B54546C3
:10566000DE4657464E4684440833E0B505006046A2
:105670009C46AC446346ABB00593AB6000230C0082
:10568000EB602B746B60009300220021CE4B0490E2
:105690000DF0A8FB002327682B700EAB9B466468B7
:1056A0000C93002F00D108E124940F2C28D8012C52
:1056B00000D0C8E128213B7804AA521813705A463A
:1056C00000230D9413550D9B002203935F23039930
:1056D00000930CA85E3B0DF02BFB0D9B0393022B5C
:1056E0001ED80C98584503D00E9901310BF07AFE64
:1056F00028002BB0F0BCBB46B246A946A046F0BD80
:1057000024AE002231000CA80DF0F4F9249B0C907B
:105710000E932200390007F03FFF249C0C9ACFE73C
:1057200000220023089209930023A84908AA0CA884
:105730000A93FFF7FBFE099B08990393581AC410BC
:10574000A3001B191A019B181A029B181A049A1815
:1057500052001219302800D80BE1002A00D1A2E132
:1057600014AB129390C9002C00D1ADE024970F2FF9
:1057700000D908E1012F00D07EE14021237804AA5E
:105780005218137014AA00231397D355099B089A33
:1057900003939B1A182B00D87EE197691AABD46942
:1057A0001893002F00D147E124940F2C00D9FAE080
:1057B000012C00D05AE158213B7804AA52181370EA
:1057C0001AAA002319941355099B089A03939B1A4C
:1057D000302B00D859E1176B20AB546B1E93002F70
:1057E00000D121E124940F2C00D906E1012C00D036
:1057F00035E170213B7804AA5218137024AE20AA18
:1058000000231F941355129F26AB9946139C249393
:10581000002F00D101E107940F2C00D9DEE0012C0C
:1058200000D016E14A463B7833720023746013556A
:10583000199B30001A00189903930DF097FB2498D8
:10584000484503D0B368591C0BF0CCFD01232B70E5
:1058500000235F4F98466B600DE04C4504D0B36861
:105860002000591C0BF0BEFD01239C46E04443463A
:1058700018370A2B43D04B4633603B687C689A4606
:10588000002B37D007940F2C25D8012C76D14A460F
:105890001B783372002374601355139A259B249C44
:1058A0009A42DAD1002A05D02100129816F0BCF9EC
:1058B0000028D2D143466B60CFE71A00002C00D1FC
:1058C000FEE644480CF006FF1A00002F00D15AE70C
:1058D00040480CF0FFFE0022300007A90DF00AF945
:1058E000079B3060B3602200514607F055FE079CCD
:1058F0003268CFE7002C00D0C4E04A46CAE70498DB
:1059000018A90DF039F91E9820AB984203D02099C0
:1059100001310BF067FD18981AAB984203D01A9921
:1059200001310BF05FFD129814AB984203D014992B
:1059300001310BF057FD089C099EB4420CD02300A6
:1059400020680833984210D0A3681834591C0BF013
:1059500049FDA642F3D1089E002E00D1C1E60A9966
:105960003000891B0BF03EFDBBE61834A642E6D1A1
:10597000F1E70C99184808F0BBF8DCE74A46002C20
:1059800088D04846AFE724AE0022310012A80DF0BF
:10599000B1F8249B129014933A00210007F0FCFD0B
:1059A000249F129AEFE624AE0022310018A80DF0D1
:1059B000A1F8249B18901A932200390007F0ECFDFF
:1059C000249C189AFDE6C046E8CB011030CA0110AD
:1059D000D0210020DCBD011034CA011000223000AB
:1059E00007A90DF087F8079B2490B36022003900C7
:1059F00007F0D2FD079C249A17E724AE002231005D
:105A00001EA80DF077F8249B1E90209322003900E9
:105A100007F0C2FD249C1E9AF2E61A00002C00D169
:105A200003E749480CF056FE1A0024AE002C00D1C2
:105A3000E6E645480CF04EFE1A00002C00D1C0E608
:105A400041480CF047FE1A00002C00D138E618003F
:105A50005FE61A00002C00D1E7E61800C6E720AA8E
:105A600024AE002C00D1CBE61000CFE71AAA002C00
:105A700000D1A6E610009FE714AA002F00D182E60D
:105A8000100089E730480CF025FE304ADB10022177
:105A90005A432F480CF04EFE2C4ADB1001215A438A
:105AA0002B480CF047FE110029480CF043FEA86873
:105AB000059B984203D0296901310BF093FC0BF050
:105AC00039FD089C099EA64233D108980A99091A03
:105AD000002801D00BF086FC0C985845E7D00E99B1
