:020000041000EA
:1000000000B50C4B00219960042159610A4919601F
:100010000A490B480160002159600121996001BC27
:10002000002800D0004707480749086003C880F34C
:10003000088808470000001800031F00180200038A
:10004000F40000180001001008ED00E000000000BE
:1000500000000000000000000000000000000000A0
:100060000000000000000000000000000000000090
:100070000000000000000000000000000000000080
:100080000000000000000000000000000000000070
:100090000000000000000000000000000000000060
:1000A0000000000000000000000000000000000050
:1000B0000000000000000000000000000000000040
:1000C0000000000000000000000000000000000030
:1000D0000000000000000000000000000000000020
:1000E0000000000000000000000000000000000010
:1000F0000000000000000000000000002CEC210DBA
:1001000000200420F7010010C3010010C5010010F9
:10011000C1010010C1010010C1010010C101001097
:10012000C1010010C1010010C1010010C701001081
:10013000C1010010C1010010C9010010CB01001065
:10014000CD010010CD010010CD010010CD01001037
:10015000CD010010CD010010CD010010CD01001027
:10016000CD010010CD010010CD010010CD01001017
:10017000CD010010CD010010CD010010CD01001007
:10018000CD010010CD010010CD010010CD010010F7
:10019000CD010010CD010010CD010010CD010010E7
:1001A000CD010010CD010010CD010010CD010010D7
:1001B000CD010010CD010010CD010010CD010010C7
:1001C00000BE00BE00BE00BE00BE00BE00F04BF888
:1001D000103800BEF2EB8871F87C0210287D021006
:1001E0003402001090A31AE700202149086006C8D5
:1001F00081F3088810471F48006800282FD10DA4FC
:100200000ECC002902D000F012F8F9E71A491B4A77
:10021000002000E001C19142FCD1194988471949E9
:1002200088471949884700BEFDE701C901C29A42C3
:10023000FBD37047287D0210C00000202C1D002039
:1002400094990210000004200000042094990210E8
:1002500000100420001004200000000070470B482C
:100260000FF0A8FD0047EFF30580C0B27047000013
:1002700008ED00E0000000D0301D00200435002013
:10028000ADE6001045A6001069E6001057560000C4
:1002900006005250ABB36053A02F0210060052501C
:1002A000861C0302BC2F0210060052505422A29D4D
:1002B000300E021005005250DE65F4689499021069
:1002C000F8B5C04610B5064C2378002B07D1054B76
:1002D000002B02D0044800E000BF0123237010BDB2
:1002E000401E00200000000030FF0110044B10B53C
:1002F000002B03D00349044800E000BF10BDC046F6
:1003000000000000441E002030FF011010B5052041
:100310000CF0C6FBD0242406202363626361062010
:100320000CF0BEFB40236362636110BDF8B5D024BE
:1003300024062026A6614025A561FA277F00380003
:100340000DF0E6FC6661A561FA2080000DF0E0FC8E
:100350006661656138000DF0DBFCF8BDD0231B063B
:1003600020229A629A6120329A629A61704770B52F
:10037000FA2080000DF0CCFCD02424062025A561B5
:10038000FA2040000DF0C4FC6561012070BD000042
:1003900010B5FFF7BBFF124C20000EF0B5F8FFF7C9
:1003A000C5FF20000EF0B0F8E121490220000EF058
:1003B000FDF8022100200CF041FB022101200CF08D
:1003C0003DFBE36A10229A43064980235B010B43FD
:1003D0001A60FFF7CCFFFFF7C1FF002010BDC04639
:1003E000004003402C40034010B5FFF78FFFFFF79C
:1003F000BEFFFFF7B3FF0000014B083303607047F7
:1004000048FF0110C820704710B5FFF7FBFF10BD73
:10041000704710B50400FFF7EFFF0421200014F02F
:10042000FBFF200010BD0000014B08330360704744
:1004300048FF011010B50400034B08330360FFF7B9
:10044000DBFF200010BDC04688FF011010B504007E
:10045000FFF7F0FF0C21200014F0DEFF200010BD9C
:10046000F0B585B003AC00272770124D0126009629
:10047000012322002321280014F06AFA2670009636
:10048000012322002321280014F062FA072323709D
:100490000096063B22002321280014F059FA13236A
:1004A00023700097123B22002321280014F050FAF9
:1004B00005B0F0BD6814002010B584B0040000231E
:1004C0000093023303AA23210D4814F04DFA0028AB
:1004D00012DD03AB187800025B78C0180FF09AFFAA
:1004E000084A094B0FF007FF0FF0ACFF6168A268E4
:1004F00007F04FF904B010BD01204042FAE7C046B2
:1005000068140020CCCCCCCCCCCC0C4010B582B044
:10051000040003689B6898476168A268C823009339
:10052000BE3B07F02BF902B010BD000010B504006F
:10053000FFF77AFF044B0833236000236360963390
:10054000A360200010BDC04688FF0110014B083396
:10055000036070471400021000230D2B04D8C2184A
:10056000002111710133F8E7704710B50368DB68AB
:10057000984710BD401800797047002905D00D2913
:1005800005D040180271012070470020FCE70020D0
:10059000FAE710B50400FFF7D9FF1421200014F08A
:1005A0003BFF200010BD0000014B08330360704783
:1005B0001400021070B582B005000E1E0DD0941B01
:1005C00001940F2C0ED82868012C14D0002C14D0C4
:1005D0002200310010F00CFE0FE09142EFD00B48EA
:1005E00016F0A4F8002201A9280016F0AFFA28603E
:1005F000019BAB60E7E733780370019A6A602B6870
:100600009B1800221A7002B070BDC046A4FF0110F2
:1006100070B504000D0003000833036000290AD000
:1006200008001EF005FD2A18002329002000FFF70E
:10063000C1FF200070BD0122F6E770B50C00150067
:1006400004E001CCFC21490014F0E6FEAC42F8D3F2
:1006500070BD10B504000368002B09D0436A1A1D51
:100660004169FFF7EAFF63689900206814F0D4FE3F
:10067000200010BD10B50800910014F0CDFE10BD93
:10068000F8B506000D0017000C0000E001C4BC42E4
:1006900011D2FC20400015F081FDF7E715F052F86B
:1006A000220029003000FFF7C8FF15F0DDFC15F02F
:1006B00083F814F059FFF8BDF0B583B004000F00C3
:1006C000152138000FF0CAFB451C082300930330A6
:1006D0000190082818D86B461868606080239B0535
:1006E000984213D2800015F059FD0600206063681F
:1006F000581B400880003618AD0075192A003100DB
:100700002000FFF7BDFF03E001ABE5E715F0FEFFBA
:1007100066613368E3601A00F932FF322261043DFA
:1007200065622D68E5612A00F932FF322262A3601A
:10073000152138000FF092FB0B004900C918C900C1
:100740006D18A56103B0F0BD14F0FCFF636899005B
:10075000206814F061FE00232360636015F084FCC0
:1007600015F02AF814F000FFF0B5C64600B588462B
:100770001700CB681E1D0DE01834A54209D0206873
:10078000230008339842F7D0A368591C14F044FEA4
:10079000F2E70436FB68B34204D934682500F93522
:1007A000FF35EAE74246D268934220D043461C68B0
:1007B0009D6800E01834A54209D020682300083362
:1007C0009842F7D0A368591C14F026FEF2E77C6823
:1007D0003D6800E01834A5421AD020682300083391
:1007E0009842F7D0A368591C14F016FEF2E743466E
:1007F0001C683D6800E01834A54209D02068230039
:1008000008339842F7D0A368591C14F005FEF2E7AC
:1008100080BCB846F0BD10B50800302114F0FCFDD6
:1008200010BD70B505000C0008001C308368002B5B
:1008300002D0032201009847606823000C339842DD
:1008400003D0E168013114F0E7FD21002800FFF733
:10085000E2FF70BD70B5050004E00C682800FFF7EA
:10086000E0FF21000029F8D170BD10B504008168B7
:10087000FFF7F0FF63689A000021206810F0B2FCD7
:100880000023E360A36010BD10B50400FFF7EDFF87
:100890002168626823001833994202D02000FFF7D4
:1008A000E9FE200010BD000070B59EB004000D00F0
:1008B000012807D0002C03D1984B9D4200D1CDE0F8
:1008C0001EB070BD954B9942F4D1954B1A68561CD9
:1008D0001E60012E20D0934A136801331360012B50
:1008E00000D18FE0904A136801331360012B00D1CF
:1008F00099E08E4A136801331360012B00D1A7E001
:100900008B4A136801331360012BD3D10DAA894997
:100910008948FFF77DFECDE76A4686498748FFF79D
:1009200077FE0FE00C260C24A61B0C347443834B7B
:10093000E418824B9C4200D1EEE0183C200016F0F7
:1009400023F9F6E701AA7E497E48FFF761FE01E040
:100950000B26E8E702AA7C497C48FFF759FE01E034
:100960000A26E0E703AA7A497A48FFF751FE01E038
:100970000926D8E704AA78497848FFF749FE01E03C
:100980000826D0E705AA76497648FFF741FE01E040
:100990000726C8E706AA74497448FFF739FE01E044
:1009A0000626C0E707AA72497248FFF731FE01E048
:1009B0000526B8E708AA70497048FFF729FE01E04C
:1009C0000426B0E709AA6E496E48FFF721FE01E050
:1009D0000326A8E70AAA6C496C48FFF719FE0BAA80
:1009E0006B496C48FFF714FE00226B4B002A00DABB
:1009F00071E7190008311960002159601972183324
:100A0000013AF3E7654E1C220021300010F0EAFBAA
:100A1000634B3360012373600023B360FE229205B1
:100A2000326173615EE75F4E28220021300010F0D2
:100A3000D9FB002131607160B160F1603161716199
:100A4000B161F161316271623000FFF735FE50E74C
:100A50000CAA38495448FFF7DBFD51E7344A1368C4
:100A6000013B1360002B1AD0304A1368013B13601E
:100A7000002B18D02C4A1368013B1360002B16D0B2
:100A8000284A1368013B1360002B36D0244A1368B0
:100A9000013B1360002B00D012E7444C35E02648A0
:100AA00016F072F8E0E7404816F06EF8E2E73D4CC9
:100AB000A3681293E36813932369149360691590F4
:100AC000A1690E91E2690F92236A1093656A1195EC
:100AD000A5681A95E5681B9525691C951D901691CA
:100AE00017921893636A199316AA1AA92000FFF7A0
:100AF0003BFE2000FFF7ADFDC2E72848FFF7C4FE2C
:100B0000C4E7183C200016F03FF80C4B9C42F8D18B
:100B1000D6E6022607E706E714F026FDFFFF0000F1
:100B2000841E0020801E00207C1E0020741E0020D9
:100B3000781E00208C110210D41E0020301F0020CF
:100B4000D0FF0110481F00200C5B0210601F002026
:100B5000D4FF0110781F0020D8FF0110901F002043
:100B6000DCFF0110A81F0020E0FF0110C01F0020C3
:100B7000E4FF0110D81F0020E8FF0110F01F002043
:100B8000ECFF011008200020F0FF011020200020C1
:100B9000F4FF01103820002050200020141F0020F6
:100BA0002C1F0020EC1E0020BC1E0020682000200E
:100BB00010B502490120FFF777FE10BDFFFF0000CE
:100BC00070B59EB004000D00012807D0002C03D1A1
:100BD000984B9D4200D1CDE01EB070BD954B99421F
:100BE000F4D1954B1A68561C1E60012E20D0934AF2
:100BF000136801331360012B00D18FE0904A136812
:100C000001331360012B00D199E08E4A1368013340
:100C10001360012B00D1A7E08B4A136801331360E6
:100C2000012BD3D10DAA89498948FFF7F1FCCDE703
:100C30006A4686498748FFF7EBFC0FE00C260C2438
:100C4000A61B0C347443834BE418824B9C4200D1A6
:100C5000EEE0183C200015F097FFF6E701AA7E4968
:100C60007E48FFF7D5FC01E00B26E8E702AA7C49A5
:100C70007C48FFF7CDFC01E00A26E0E703AA7A49A9
:100C80007A48FFF7C5FC01E00926D8E704AA7849AD
:100C90007848FFF7BDFC01E00826D0E705AA7649B1
:100CA0007648FFF7B5FC01E00726C8E706AA7449B5
:100CB0007448FFF7ADFC01E00626C0E707AA7249B9
:100CC0007248FFF7A5FC01E00526B8E708AA7049BD
:100CD0007048FFF79DFC01E00426B0E709AA6E49C1
:100CE0006E48FFF795FC01E00326A8E70AAA6C49C5
:100CF0006C48FFF78DFC0BAA6B496C48FFF788FC2A
:100D000000226B4B002A00DA71E7190008311960E4
:100D10000021596019721833013AF3E7654E1C221D
:100D20000021300010F05EFA634B336001237360E2
:100D30000023B360FE229205326173615EE75F4E6D
:100D400028220021300010F04DFA0021316071603E
:100D5000B160F16031617161B161F1613162716203
:100D60003000FFF7A9FC50E70CAA38495448FFF7B8
:100D70004FFC51E7344A1368013B1360002B1AD033
:100D8000304A1368013B1360002B18D02C4A1368BB
:100D9000013B1360002B16D0284A1368013B1360F7
:100DA000002B36D0244A1368013B1360002B00D07F
:100DB00012E7444C35E0264815F0E6FEE0E74048EF
:100DC00015F0E2FEE2E73D4CA3681293E36813934B
:100DD0002369149360691590A1690E91E2690F92DD
:100DE000236A1093656A1195A5681A95E5681B95A5
:100DF00025691C951D90169117921893636A199393
:100E000016AA1AA92000FFF7AFFC2000FFF721FC6B
:100E1000C2E72848FFF738FDC4E7183C200015F06A
:100E2000B3FE0C4B9C42F8D1D6E6022607E706E754
:100E300014F09AFBFFFF0000841E0020801E00209B
:100E40007C1E0020741E0020781E00208C110210D1
:100E5000D41E0020301F0020D0FF0110481F0020AA
:100E60000C5B0210601F0020D4FF0110781F0020CF
:100E7000D8FF0110901F0020DCFF0110A81F0020E8
:100E8000E0FF0110C01F0020E4FF0110D81F002068
:100E9000E8FF0110F01F0020ECFF011008200020E7
:100EA000F0FF011020200020F4FF01103820002066
:100EB00050200020141F00202C1F0020EC1E0020BA
:100EC000BC1E00206820002010B502490120FFF759
:100ED00077FE10BDFFFF00007047000010B5040052
:100EE000034B08330360FFF731FB200010BDC04601
:100EF0005C00021010B50400FFF7F0FF1421200081
:100F000014F08AFA200010BD00B585B0084B1B789C
:100F10006A461373827C5218D2B20123009303AB4A
:100F20005021044806F076FC6B46187B05B000BDE6
:100F30008C1102106814002000B585B00D2902D96B
:100F4000002005B000BD03AB1A70827C5218D2B2EB
:100F5000012100914F31034806F037FC431E9841B0
:100F6000C0B2EEE76814002070B5050000240D2C17
:100F700006D8002221002800FFF7DEFF0134F6E743
:100F800070BD000010B50400FFF70EFB034B0833E3
:100F900023600123A374200010BDC0465C00021032
:100FA00070B59EB004000D00012807D0002C03D1BD
:100FB000984B9D4200D1CDE01EB070BD954B99423B
:100FC000F4D1954B1A68561C1E60012E20D0934A0E
:100FD000136801331360012B00D18FE0904A13682E
:100FE00001331360012B00D199E08E4A136801335D
:100FF0001360012B00D1A7E08B4A13680133136003
:10100000012BD3D10DAA89498948FFF701FBCDE710
:101010006A4686498748FFF7FBFA0FE00C260C2446
:10102000A61B0C347443834BE418824B9C4200D1C2
:10103000EEE0183C200015F0A7FDF6E701AA7E4976
:101040007E48FFF7E5FA01E00B26E8E702AA7C49B3
:101050007C48FFF7DDFA01E00A26E0E703AA7A49B7
:101060007A48FFF7D5FA01E00926D8E704AA7849BB
:101070007848FFF7CDFA01E00826D0E705AA7649BF
:101080007648FFF7C5FA01E00726C8E706AA7449C3
:101090007448FFF7BDFA01E00626C0E707AA7249C7
:1010A0007248FFF7B5FA01E00526B8E708AA7049CB
:1010B0007048FFF7ADFA01E00426B0E709AA6E49CF
:1010C0006E48FFF7A5FA01E00326A8E70AAA6C49D3
:1010D0006C48FFF79DFA0BAA6B496C48FFF798FA2A
:1010E00000226B4B002A00DA71E719000831196001
:1010F0000021596019721833013AF3E7654E1C223A
:101100000021300010F06EF8634B336001237360F0
:101110000023B360FE229205326173615EE75F4E89
:1011200028220021300010F05DF80021316071604C
:10113000B160F16031617161B161F161316271621F
:101140003000FFF7B9FA50E70CAA38495448FFF7C6
:101150005FFA51E7344A1368013B1360002B1AD041
:10116000304A1368013B1360002B18D02C4A1368D7
:10117000013B1360002B16D0284A1368013B136013
:10118000002B36D0244A1368013B1360002B00D09B
:1011900012E7444C35E0264815F0F6FCE0E74048FD
:1011A00015F0F2FCE2E73D4CA3681293E368139359
:1011B0002369149360691590A1690E91E2690F92F9
:1011C000236A1093656A1195A5681A95E5681B95C1
:1011D00025691C951D90169117921893636A1993AF
:1011E00016AA1AA92000FFF7BFFA2000FFF731FA6C
:1011F000C2E72848FFF748FBC4E7183C200015F079
:10120000C3FC0C4B9C42F8D1D6E6022607E706E762
:1012100014F0AAF9FFFF0000841E0020801E0020A9
:101220007C1E0020741E0020781E00208C110210ED
:10123000D41E0020301F0020D0FF0110481F0020C6
:101240000C5B0210601F0020D4FF0110781F0020EB
:10125000D8FF0110901F0020DCFF0110A81F002004
:10126000E0FF0110C01F0020E4FF0110D81F002084
:10127000E8FF0110F01F0020ECFF01100820002003
:10128000F0FF011020200020F4FF01103820002082
:1012900050200020141F00202C1F0020EC1E0020D6
:1012A000BC1E00206820002010B502490120FFF775
:1012B00077FE10BDFFFF000010B50400034B08339C
:1012C000036004F08DF8200010BDC0460404021035
:1012D00010B50400FFF7F0FF0421200014F09CF883
:1012E000200010BD10B5040004F08AF8024B08334A
:1012F0002360200010BDC0460404021010B5040095
:101300000068A368191A002801D014F085F820009D
:1013100010BD0000F0B5D6464F464646C0B586B073
:10132000824689461F00531E032B08D9D31F0B2B5F
:1013300026D90E3B0C2B26D90323984601E0022325
:10134000984653009A189200224D55196B682A68E6
:101350009E1AF6100023039304930593002E17D0D2
:1013600080235B059E4211D2F00014F017FF0400A9
:1013700003940494F300E31805932A6869680DE068
:1013800001239846DDE700239846DAE715F0BEF919
:101390000024EDE7230011CA11C31C008A42F9D1D1
:1013A00004940097434603AA4946504604F020F9A6
:1013B0000398059B191A002801D014F02DF806B0E7
:1013C000E0BCBA46B146A846F0BD03A8FFF796FFB9
:1013D00014F0CAF8AC210020F8B5CE46474680B5D7
:1013E00006000F0090461D00089C052118000EF015
:1013F0000DFD8946002901DCE30705D423000F22F7
:1014000039003000FFF786FF4B46012B01DCE30774
:1014100005D42300102239003000FFF77BFF4B4634
:10142000022B01DCE30705D4230011223900300030
:10143000FFF770FF4B46032B01DCE30705D42300C5
:10144000122239003000FFF765FF23000122390026
:101450003000FFF75FFF2300022239003000FFF762
:1014600059FF182D05DD4046013018210EF0CEFC45
:1014700088464346002B34D00C2B32D0012B52D05F
:101480000D2B50D0022B5ED00E2B5CD0032B61D0E5
:101490000F2B5FD0042B64D0102B62D0052B67D0AC
:1014A000112B65D0062B6AD0122B68D0072B6DD07C
:1014B000132B6BD0082B70D0142B6ED0092B73D04C
:1014C000152B71D00A2B76D0162B74D00B2B01D094
:1014D000172B0CD123001F2239003000FFF71AFF11
:1014E00005E02300202239003000FFF713FF6B1FB7
:1014F0009846132B66D92B00233B042B00D898E089
:101500002B00193B042B00D89AE02B00283B132B0F
:1015100000D89CE0042D5BD8230003223900300062
:10152000FFF7F8FE54E0042D06D8230021223900ED
:101530003000FFF7EFFEDAE7230015223900300014
:10154000FFF7E8FED3E72300162239003000FFF74B
:10155000E1FECCE72300172239003000FFF7DAFE66
:10156000C5E72300182239003000FFF7D3FEBEE79D
:101570002300192239003000FFF7CCFEB7E7230023
:101580001A2239003000FFF7C5FEB0E723001B2206
:1015900039003000FFF7BEFEA9E723001C22390006
:1015A0003000FFF7B7FEA2E723001D22390030000C
:1015B000FFF7B0FE9BE723001E2239003000FFF743
:1015C000A9FE94E723000C2239003000FFF7A2FEA9
:1015D0004346042B42D92B000A3B042B48D92B004D
:1015E0000F3B042B4BD92B00143B042B4ED92B0063
:1015F000193B042B51D92B001E3B042B5AD92B002D
:10160000233B042B5DD92B00283B042B66D92B00F0
:101610002D3B042B69D92B00323B042B6CD9373D71
:10162000042D21D82300072239003000FFF772FE75
:101630001AE023000C2239003000FFF76BFEC7E7E9
:1016400023000B2239003000FFF764FEC0E72300BF
:101650000B2239003000FFF75DFEB9E723000722B7
:1016600039003000FFF756FEC0BCB946B046F8BDA1
:101670002300082239003000FFF74CFEF4E7230076
:101680000A2239003000FFF745FEEDE7230009226A
:1016900039003000FFF73EFEE6E72300072239005D
:1016A0003000FFF737FE23000D2239003000FFF72E
:1016B00031FED9E723000D2239003000FFF72AFE62
:1016C000D2E72300072239003000FFF723FE230072
:1016D0000D2239003000FFF71DFEC5E72300092267
:1016E00039003000FFF716FEBEE723000A2239005A
:1016F0003000FFF70FFEB7E7230008223900300063
:10170000FFF708FEB0E70000F0B583B007000091D6
:10171000019200230360436083600C00D5004E19E2
:10172000E810134A954209D8002811D080225205AA
:1017300090420BD2C00014F031FD0AE00D4815F0C4
:101740000DF83800FFF7DAFD13F00EFF14F0DEFF9E
:10175000002038604519BD6003E0030006CC06C3D5
:101760001800A642F9D17860380003B0F0BDC04639
:10177000F8FFFF7F7C000210F8B507000C0004E0C2
:101780001C21200013F048FE3400002C1AD0E16820
:101790003800FFF7F1FFA668A569002DF0D06B684F
:1017A000013B6B60002BEBD12B689B6828009847AE
:1017B000AB68013BAB60002BE2D12B68DB682800F3
:1017C0009847DDE7F8BD70B506000C000EE0E16853
:1017D0003000FFF7F8FFA56820001430E169FFF73B
:1017E000CBFF2C21200013F017FE2C00002CEED193
:1017F00070BD0000F0B5CE46474680B5D84CA54434
:1018000004000D0001280DD0002C04D1D54B9D42C1
:1018100001D100F021FCAF239B009D44C0BCB94620
:10182000B046F0BDCF4B9942EED1CF4B00221A719A
:101830009A60191DD96019615A61CC4B1A68561CFF
:101840001E60012E40D0CA4A136801331360012B79
:1018500000D1B0E0C74A136801331360012B00D1F7
:10186000BAE0C54A136801331360012B00D1C8E008
:10187000C24A136801331360012B00D1C7E0C04A8C
:10188000136801331360012B00D1C6E0BD4B1A6809
:10189000561C1E60012EB7D1BB4F0C220021380010
:1018A0000FF0A0FC00233B607B60BB601F93209384
:1018B0000122219222931FA91D9101321E9223AB76
:1018C000B248FFF721FFBFE00FAAB149B148FEF7C8
:1018D0009FFE10E00C260C24A61B0C347443AD4B69
:1018E000E418AC4B9C4201D100F02DFC183C2000C8
:1018F00015F04AF9F5E710AAA749A848FEF788FEAF
:1019000001E00B26E7E711AAA549A648FEF780FEED
:1019100001E00A26DFE712AAA349A448FEF778FEF1
:1019200001E00926D7E713AAA149A248FEF770FEF5
:1019300001E00826CFE714AA9F49A048FEF768FEF9
:1019400001E00726C7E715AA9D499E48FEF760FEFD
:1019500001E00626BFE716AA9B499C48FEF758FE01
:1019600001E00526B7E717AA99499A48FEF750FE05
:1019700001E00426AFE718AA97499848FEF748FE09
:1019800001E00326A7E719AA95499648FEF740FE0D
:101990001AAA95499548FEF73BFE0022944B002A6F
:1019A00000DA50E7190008311960002159601972F6
:1019B0001833013AF3E78F4E1C22002130000FF05C
:1019C00011FC8D4B3360012373600023B360FE2252
:1019D0009205326173613DE7884E28220021300074
:1019E0000FF000FC002131607160B160F160316185
:1019F0007161B161F161316271623000FEF75CFECC
:101A00002FE71BAA62497E48FEF702FE30E71CAAB8
:101A10005F497C48FEF7FCFD31E77B4B00221A70E2
:101A2000062159609A6031E721262224A61B163C24
:101A30007443554BE418544B9C4200D188E30C3C52
:101A40002000FFF75BFCF6E726A9704B0A0083CB6A
:101A500083C283CB83C226A92491032225922CAB77
:101A60006B48FFF751FE01E02026DEE72FA9674B08
:101A700018330A0083CB83C283CB83C22FA92D9155
:101A800003222E9235AB6348FFF73EFE01E01F268E
:101A9000CBE701A95D4B30330A0083CB83C283CBF4
:101AA00083C203CB03C201A936910422379238AB1B
:101AB0005948FFF729FE01E01E26B6E7324F3800ED
:101AC0003C300C2399461A0000210FF08BFB0023B9
:101AD0009846FB633B647B64380048304A461900F3
:101AE0000FF080FB4346BB64FB643B6501A9474B99
:101AF00050330A0083CB83C283CB83C203CB03C2A0
:101B000001A9399104223A923BAB4448FFF7FCFD0E
:101B100001E01B2689E701A93C4B70330A0083CB07
:101B200083C283CB83C203CB03C201A93C910422AD
:101B30003D923EAB3A48FFF7E7FD01E01A2674E715
:101B400038493822103101A80FF052FB01A93F910A
:101B50000722409241AB3448FFF7D6FD68E0C0460B
:101B600044FDFFFFFFFF0000A4260020841E00208C
:101B7000801E00207C1E0020741E0020781E002085
:101B8000881E0020901E0020AC210020B8210020DB
:101B90008C110210301F0020D0FF0110481F0020C0
:101BA0000C5B0210601F0020D4FF0110781F002082
:101BB000D8FF0110901F0020DCFF0110A81F00209B
:101BC000E0FF0110C01F0020E4FF0110D81F00201B
:101BD000E8FF0110F01F0020ECFF0110082000209A
:101BE000F0FF011020200020F4FF01103820002019
:101BF00050200020141F00202C1F0020EC1E00206D
:101C0000BC1E0020D41E002068200020B00002105E
:101C1000C4210020D0210020DC210020002200204F
:101C20000C22002030010210182200201926FCE6A8
:101C3000D3493822483101A80FF0DAFA01A94291BC
:101C40000722439244ABCF48FFF75EFD01E0182620
:101C5000EBE647A9CC4B0A0083CB83C283CB83C27C
:101C600047A94591032246924DABC848FFF74CFD6A
:101C700001E01726D9E601A9C34B18330A0083CB2C
:101C800083C283CB83C203CB03C201A94E9104223A
:101C90004F9250ABBE48FFF737FD01E01626C4E671
:101CA00001A9B94B38330A0083CB83C283CB83C2EB
:101CB00003CB03C201A951910422529253ABB54800
:101CC000FFF722FD01E01526AFE601A9AE4B583320
:101CD0000A0083CB83C283CB83C203CB03C201A997
:101CE00054910422559256ABAB48FFF70DFD01E02D
:101CF00014269AE600235993013B5A9359A9579108
:101D0000012258925BABA548FFF7FEFC01E01326C9
:101D10008BE60C235E930D3B5F935EA95C910122E1
:101D20005D9260AB9E48FFF7EFFC01E012267CE677
:101D300065236393663B649363A961910122629278
:101D400065AB9848FFF7E0FC01E011266DE67123D2
:101D50006893723B699368A96691012267926AABA6
:101D60009148FFF7D1FC01E010265EE68F4F380066
:101D7000E4300C2399461A0000210FF033FA0023B7
:101D80009846E4334246FA500433FA500433FA508A
:101D90003800F0304A4641460FF024FAF02342461C
:101DA000FA500433FA500433FA5001A9764B7833D1
:101DB0000A0083CB83C283CB83C203CB03C201A9B6
:101DC0006B9104226C926DAB7948FFF79DFC01E0AA
:101DD0000D262AE601A9774B18330A0083CB83C26C
:101DE00083CB83C203CB03C201A96E9104226F92FD
:101DF00070AB7148FFF788FC01E00C2615E601A9DD
:101E00006C4B38330A0083CB83C283CB83C203CBB2
:101E100003C201A971910422729273AB6748FFF764
:101E200073FC01E00B2600E601A9624B58330A005F
:101E300083CB83C283CB83C203CB03C201A974913A
:101E40000422759276AB5E48FFF75EFC01E00A263D
:101E5000EBE501A9574B78330A0083CB83C283CBD0
:101E600083C203CB03C201A977910422789279AB94
:101E70005448FFF749FC01E00926D6E501A9524B79
:101E800018330A0083CB83C283CB83C283CB83C244
:101E90001B68136001A97A9105227B927CAB4B48A9
:101EA000FFF732FC01E00826BFE501A9464B4033AD
:101EB0000A0083CB83C283CB83C283CB83C283CB11
:101EC00083C201A97D9106227E927FAB4048FFF735
:101ED0001BFC01E00726A8E501A93B4B70330A0073
:101EE00083CB83C283CB83C203CB03C201A980917E
:101EF0000422819282AB3748FFF706FC01E00626F8
:101F000093E501A9344B10330A0083CB83C283CB02
:101F100083C203CB03C201A983910422849285ABBF
:101F20002E48FFF7F1FB01E005267EE501A92A4BCB
:101F300030330A0083CB83C283CB83C203CB03C27B
:101F400001A986910422879288AB2548FFF7DCFB24
:101F500001E0042669E58BAB9C461F4B503362467B
:101F600083CB83C283CB83C26346899303228A9245
:101F700091AB61461B48FFF7C7FB35E0032654E5EC
:101F80003001021024220020B00102103022002073
:101F90003C22002048220020542200206022002001
:101FA0006C2200207822002084220020AC21002016
:101FB000A822002030020210B4220020C0220020FB
:101FC000CC220020D8220020B0020210E4220020FF
:101FD000F0220020FC220020300302100823002001
:101FE000142300202023002001A95A4B68330A0043
:101FF00083CB83C283CB83C283CB83C21B68136032
:1020000001A992910522939294AB5348FFF77CFB70
:1020100097AB9C46514B1033624683CB83C283CB34
:1020200083C263469593032296929DAB61464C48CA
:10203000FFF76AFB4B4E30009930FF300C22002135
:102040000FF0D0F80023CC225200B3500432B3502A
:102050000432B350FFF7D8FB434A1368013B1360C7
:10206000002B0CD1414C3F4B9C4208D00C3C2068CB
:10207000A368191A0028F6D013F0CEF9F3E73C4A0A
:102080001368013B1360002B20D03A4A1368013BD0
:102090001360002B1ED0384A1368013B1360002BDD
:1020A0001CD0364A1368013B1360002B3CD0344AE5
:1020B0001368013B1360002B3AD1324C324B9C42E7
:1020C00036D0183C200014F05FFDF7E72F4814F0DD
:1020D0005BFDDAE72E4814F057FDDCE72D4CA368D2
:1020E000A293E368A3932369A4936069A590A1696F
:1020F0009E91E2699F92236AA093656AA195A56863
:10210000AA95E568AB952569AC95AD90A691A79287
:10211000A893636AA993A6AAAAA92000FEF724FBA4
:102120002000FEF796FABCE71B48FEF7ADFBBEE7C2
:102130001A488168FFF747FBFFF76DFB0226FFF7A0
:10214000CAFBFFF7C8FB13F00FFA02266DE46CE43C
:1021500013F00AFA300302102C230020B0030210FF
:1021600038230020AC210020901E002050230020A6
:10217000781E0020741E00207C1E0020801E00207F
:10218000841E002068200020301F0020D41E002064
:10219000BC1E0020EC1E0020141F0020A4260020DE
:1021A00010B502490120FFF725FB10BDFFFF00001D
:1021B00010B50400034B0833036003F011F920004D
:1021C00010BDC0464C07021010B50400FFF7F0FF29
:1021D0000421200013F020F9200010BD10B50400E8
:1021E00003F00EF9024B08332360200010BDC046F7
:1021F0004C070210F0B5D6464F464646C0B586B0ED
:10220000824689461F00531E042B08D9073B0D2B1D
:1022100026D9103B0B2B26D90323984601E0022335
:10222000984653009A189200224D55196B682A68F7
:102230009E1AF6100023039304930593002E17D0E3
:1022400080235B059E4211D2F00013F0A7FF04002B
:1022500003940494F300E31805932A6869680DE079
:1022600001239846DDE700239846DAE714F04EFA9A
:102270000024EDE7230011CA11C31C008A42F9D1E2
:1022800004940097434603AA4946504603F0B0F928
:102290000398059B191A002801D013F0BDF806B069
:1022A000E0BCBA46B146A846F0BD03A8FFF726F841
:1022B00013F05AF9E8240020F8B5CE46474680B519
:1022C00005000E0091461F00089C052118000DF026
:1022D0009DFD8846002901DCE30705D42300122276
:1022E00031002800FFF786FF4346012B01DCE3079E
:1022F00005D42300132231002800FFF77BFF43465B
:10230000022B01DCE30705D423001422310028004E
:10231000FFF770FF4346032B01DCE30705D42300DE
:10232000152231002800FFF765FF2300012231004C
:102330002800FFF75FFF2300032231002800FFF78A
:1023400059FF042F4BD94B46002B4FD00C2B4DD0AF
:10235000012B00D195E00D2B00D192E0022B00D192
:1023600096E00E2B00D193E0032B00D197E00F2BCA
:1023700000D194E0042B00D198E0102B00D195E01F
:10238000052B00D199E0112B00D196E0062B00D14E
:102390009AE0122B00D197E0072B00D19BE0132B82
:1023A00000D198E0082B00D19CE0142B00D199E0DB
:1023B000092B00D19DE0152B00D19AE00A2B00D10A
:1023C0009EE0162B00D19BE00B2B01D0172B13D1D5
:1023D0002300222231002800FFF70CFF0CE023002D
:1023E000042231002800FFF705FFACE72300232279
:1023F00031002800FFF7FEFE7B1F98461D2B00D8FA
:1024000085E03B00233B182B00D887E04346042B94
:1024100000D88AE03B000A3B042B00D88FE03B0049
:102420000F3B042B00D891E03B00143B042B00D859
:1024300099E03B00193B042B00D89BE03B001E3B7E
:10244000042B00D89DE03B00233B042B00D89FE0E9
:102450003B00283B042B00D8A1E03B002D3B042B84
:1024600000D8A3E03B00323B042B00D8ABE0373F61
:10247000042F60D823000A2231002800FFF7BAFE9B
:1024800059E02300182231002800FFF7B3FEB3E71C
:102490002300192231002800FFF7ACFEACE723002F
:1024A0001A2231002800FFF7A5FEA5E723001B2212
:1024B00031002800FFF79EFE9EE723001C2231001A
:1024C0002800FFF797FE97E723001D223100280020
:1024D000FFF790FE90E723001E2231002800FFF74F
:1024E00089FE89E723001F2231002800FFF782FEC2
:1024F00082E72300202231002800FFF77BFE7BE7E4
:102500002300212231002800FFF774FE74E7230026
:10251000082231002800FFF76DFE77E7230009222B
:1025200031002800FFF766FE70E723000A22310021
:102530002800FFF75FFEC0BCB946B046F8BD2300D7
:102540000B2231002800FFF755FEF4E723000F228D
:1025500031002800FFF74EFE230011223100280031
:10256000FFF748FEE7E723000D2231002800FFF7C0
:1025700041FEE0E72300102231002800FFF73AFE79
:10258000D9E72300102231002800FFF733FED2E7FD
:1025900023000A2231002800FFF72CFECBE723009E
:1025A0000D2231002800FFF725FEC4E723000F228B
:1025B00031002800FFF71EFE230011223100280001
:1025C000FFF718FEB7E723000B2231002800FFF7C2
:1025D00011FEB0E7F0B5CE46474680B5D44CA544D1
:1025E00004000D0001280DD0002C04D1D14B9D42D8
:1025F00001D100F03FFCB9239B009D44C0BCB9460B
:10260000B046F0BDCB4B9942EED1CB4B00221A71B4
:102610009A60191DD96019615A61C84B1A68561C15
:102620001E60012E44D0C64A136801331360012B8B
:1026300000D1B4E0C34A136801331360012B00D109
:10264000BEE0C14A136801331360012B00D1CCE016
:10265000BE4A136801331360012B00D1CBE0BC4AA2
:10266000136801331360012B00D1CAE0B94B1A681B
:10267000561C1E60012EB7D1B74F0C220021380026
:102680000EF0B0FD00233B607B60BB6001A9B34B43
:102690000A0083CB83C283CB83C203CB03C201A9CD
:1026A0001D9104221E921FABAD48FFF72DF8BFE02D
:1026B0000FAAAC49AC48FDF7ABFF10E00C260C2488
:1026C000A61B0C347443A84BE418A74B9C4201D1C1
:1026D00000F047FC183C200014F056FAF5E710AA69
:1026E000A249A348FDF794FF01E00B26E7E711AAF2
:1026F000A049A148FDF78CFF01E00A26DFE712AAF6
:102700009E499F48FDF784FF01E00926D7E713AAF9
:102710009C499D48FDF77CFF01E00826CFE714AAFD
:102720009A499B48FDF774FF01E00726C7E715AA01
:1027300098499948FDF76CFF01E00626BFE716AA05
:1027400096499748FDF764FF01E00526B7E717AA09
:1027500094499548FDF75CFF01E00426AFE718AA0D
:1027600092499348FDF754FF01E00326A7E719AA11
:1027700090499148FDF74CFF1AAA90499048FDF7FF
:1027800047FF00228F4B002A00DA4CE7190008317E
:1027900019600021596019721833013AF3E78A4E23
:1027A0001C22002130000EF01DFD884B33600123F8
:1027B00073600023B360FE2292053261736139E7D2
:1027C000834E2822002130000EF00CFD00213160E4
:1027D0007160B160F16031617161B161F16131626B
:1027E00071623000FDF768FF2BE71BAA5D4979484D
:1027F000FDF70EFF2CE71CAA5A497748FDF708FFA2
:102800002DE7764B00221A70062159609A602DE759
:1028100023262424A61B183C74434F4BE4184E4B2C
:102820009C4200D1A2E30C3C2000FEF767FDF6E7D6
:1028300022AA4A4B203383CB83C21B68136022A990
:1028400020910222219226AB6548FEF75DFF01E050
:102850002226DEE70523299300232A9329A927911D
:10286000012228922BAB5F48FEF74EFF01E02126A4
:10287000CFE72EA9394B30330A0083CB83C283CBF9
:1028800083C22EA92C9103222D9234AB5648FEF719
:102890003BFF01E02026BCE7002337930733389342
:1028A00037A935910122369239AB5048FEF72CFFFB
:1028B00001E01F26ADE7284B9846180048300C234E
:1028C00099461A0000210EF08DFC002743469F64B4
:1028D000DF641F65404654304A4639000EF082FCE2
:1028E00043465F659F65DF653C9707233D933CA9A1
:1028F0003A9101223B923EAB3D48FEF705FF01E0D5
:102900001C2686E701A9154B48330A0083CB83C2F6
:1029100083CB83C203CB03C201A93F91042240921F
:1029200041AB3448FEF7F0FE66E01B2671E7C04677
:102930001CFDFFFFFFFF0000BC260020841E0020BE
:10294000801E00207C1E0020741E0020781E0020A7
:10295000881E0020981E0020E82400201804021081
:10296000F42400208C110210301F0020D0FF011031
:10297000481F00200C5B0210601F0020D4FF0110D4
:10298000781F0020D8FF0110901F0020DCFF0110ED
:10299000A81F0020E0FF0110C01F0020E4FF01106D
:1029A000D81F0020E8FF0110F01F0020ECFF0110ED
:1029B00008200020F0FF011020200020F4FF01106B
:1029C0003820002050200020141F00202C1F002041
:1029D000EC1E0020BC1E0020D41E00206820002019
:1029E000002500200C25002018250020242500208B
:1029F000482500205425002001A9E64B68330A0031
:102A000083CB83C283CB83C283CB83C283CB83C27A
:102A100001A942910622439244ABDF48FEF774FEBF
:102A200001E01A26F5E601A9DC4B18330A0083CB36
:102A300083C283CB83C283CB83C21B68136001A98B
:102A400045910522469247ABD548FEF75DFE01E071
:102A50001926DEE6D34F380090300C2200210EF00C
:102A6000C1FB00239022BB500432BB500432BB5048
:102A700001A9CA4B40330A0083CB83C283CB83C2F4
:102A800083CB83C21B68136001A948910522499238
:102A90004AABC548FEF738FE01E01726B9E6C14F3C
:102AA0003800A8300C2200210EF09CFB0023A82245
:102AB000BB500432BB500432BB504DAAB74B6833F5
:102AC00083CB83C21B6813604DA94B9102224C92A9
:102AD00051ABB648FEF718FE01E0152699E601A9AC
:102AE000AE4B78330A0083CB83C283CB83C283CBC4
:102AF00083C21B68136001A952910522539254AB03
:102B0000AB48FEF701FE01E0142682E601A9A94BBD
:102B100020330A0083CB83C283CB83C283CB83C29F
:102B200083CB83C201A955910622569257ABA24886
:102B3000FEF7EAFD01E013266BE600235A93013B02
:102B40005B935AA95891012259925CAB9B48FEF7BE
:102B5000DBFD01E012265CE60C235F930D3B6093E6
:102B60005FA95D9101225E9261AB9548FEF7CCFDB5
:102B700001E011264DE665236493663B659364A9E5
:102B800062910122639266AB8E48FEF7BDFD01E0C3
:102B900010263EE671236993723B6A9369A9679197
:102BA000012268926BAB8848FEF7AEFD01E00F266C
:102BB0002FE67C4F38000930FF300C2399461A006D
:102BC00000210EF00FFB002398460933FF334246E5
:102BD000FA500433FA500433FA5038001530FF30FD
:102BE0004A4641460EF0FEFA8A235B004246FA50FE
:102BF0000433FA500433FA506EA96E4B50330A0076
:102C000083CB83C283CB83C26EA96C9103226D9266
:102C100074AB6E48FEF778FD01E00C26F9E577A964
:102C2000644B68330A0083CB83C283CB83C277A90A
:102C30007591032276927DAB6548FEF765FD01E054
:102C40000B26E6E580AB9C46624B624683CB83C293
:102C500083CB83C263467E9303227F9286AB614619
:102C60005D48FEF751FD01E00A26D2E559493822B8
:102C7000183101A80EF0BCFA01A9879107228892A9
:102C800089AB5648FEF740FD01E00926C1E501A9E0
:102C9000504B50330A0083CB83C283CB83C283CB98
:102CA00083C283CB83C201A98A9106228B928CAB0B
:102CB0004B48FEF729FD01E00826AAE58FAB9C46AC
:102CC000484B624683CB83C283CB83C263468D93DA
:102CD00003228E9295AB61464348FEF715FD01E055
:102CE000072696E501A93F4B18330A0083CB83C220
:102CF00083CB83C283CB83C21B68136001A99691E7
:102D00000522979298AB3948FEF7FEFC01E00626B3
:102D10007FE501A9334B40330A0083CB83C283CBC9
:102D200083C203CB03C201A9999104229A929BAB5F
:102D30002F48FEF7E9FC01E005266AE501A9294BC9
:102D400060330A0083CB83C283CB83C203CB03C22D
:102D500001A99C9104229D929EAB2648FEF7D4FCCB
:102D600001E0042655E501A9234B0A0083CB83C269
:102D700083CB83C283CB83C21B68136001A99F915D
:102D80000522A092A1AB1D48FEF7BEFC38E0032649
:102D90003FE5C04618040210602500209804021088
:102DA0006C250020E8240020842500209C2500209C
:102DB000A825002018050210B4250020C0250020F9
:102DC000CC250020D8250020E4250020082600205E
:102DD0001426002098050210202600202C26002012
:102DE0003826002018060210442600205026002015
:102DF0005C26002068260020980602107426002019
:102E000001A95B4B28330A0083CB83C283CB83C2E7
:102E100083CB83C283CB83C201A9A2910622A39252
:102E2000A4AB5448FEF770FC01A9514B58330A007B
:102E300083CB83C283CB83C283CB83C283CB83C246
:102E400001A9A5910622A692A7AB4B48FEF75CFC10
:102E50004A4E3000B130FF300C2200210EF0C2F992
:102E60000023D8225200B3500432B3500432B3507E
:102E7000FFF7BAFB424A1368013B1360002B0CD1E9
:102E8000404C3E4B9C4208D00C3C2068A368191A69
:102E90000028F6D012F0C0FAF3E73B4A1368013B72
:102EA0001360002B20D0394A1368013B1360002BBC
:102EB0001ED0374A1368013B1360002B1CD0354AE3
:102EC0001368013B1360002B3CD0334A1368013B6D
:102ED0001360002B3AD1314C314B9C4236D0183C18
:102EE000200013F051FEF7E72E4813F04DFEDAE70D
:102EF0002D4813F049FEDCE72C4CA368AC93E36843
:102F0000AD932369AE936069AF90A169A891E2691E
:102F1000A992236AAA93656AAB95A568B495E568FA
:102F2000B5952569B695B790B091B192B293636AA1
:102F3000B393B0AAB4A92000FDF716FC2000FDF75A
:102F400088FBBCE71A48FDF79FFCBEE7194881687B
:102F5000FEF739FCFFF74FFB0226FFF7B0FBFFF748
:102F6000AEFB12F001FB022653E452E412F0FCFA2D
:102F700098060210802600208C260020E8240020DD
:102F8000981E0020A4260020781E0020741E002019
:102F90007C1E0020801E0020841E0020682000204F
:102FA000301F0020D41E0020BC1E0020EC1E00207C
:102FB000141F0020BC26002010B502490120FFF795
:102FC00009FB10BDFFFF000010B50400034B0833E0
:102FD000036002F005FA200010BDC046540A02103A
:102FE00010B50400FFF7F0FF0421200012F014FADE
:102FF000200010BD10B5040002F002FA024B0833A5
:103000002360200010BDC046540A0210F0B5D64619
:103010004F464646C0B586B0824689461F00531EBD
:10302000022B08D9931F0A2B26D90D3B0D2B26D92D
:103030000323984601E00223984653009A18920011
:10304000224D55196B682A689E1AF61000230393C7
:1030500004930593002E17D080235B059E4211D266
:10306000F00013F09BF8040003940494F300E318B9
:1030700005932A6869680DE001239846DDE700237F
:103080009846DAE713F042FB0024EDE7230011CA6B
:1030900011C31C008A42F9D104940097434603AA45
:1030A0004946504602F0A4FA0398059B191A0028D5
:1030B00001D012F0B1F906B0E0BCBA46B146A8465C
:1030C000F0BD03A8FEF71AF912F04EFA50230020C3
:1030D000F8B5CE46474680B505000E0090461F0065
:1030E000089C052118000CF091FE8946002901DC9E
:1030F000E30705D423000D2231002800FFF786FFE7
:103100004B46012B01DCE30705D423000E223100DE
:103110002800FFF77BFF4B46022B01DCE30705D4B9
:1031200023000F2231002800FFF770FF4B46032BCE
:1031300001DCE30705D42300102231002800FFF74B
:1031400065FF2300012231002800FFF75FFF230005
:10315000022231002800FFF759FF43460C2B45DDC2
:103160002300202231002800FFF750FF272F05DD24
:103170004046013018210CF049FE88464346002B9A
:103180003BD00C2B39D0012B59D00D2B57D0022B13
:103190005CD00E2B5AD0032B5FD00F2B5DD0042BAD
:1031A00062D0102B60D0052B65D0112B63D0062B7D
:1031B00068D0122B66D0072B6BD0132B69D0082B4D
:1031C0006ED0142B6CD0092B71D0152B6FD00A2B1D
:1031D00074D0162B72D00B2B01D0172B13D12300D8
:1031E0001D2231002800FFF711FF0CE023001F22F1
:1031F00031002800FFF70AFFB8E723001E22310044
:103200002800FFF703FF7B1F9846132B5DD93B0077
:103210001E3B092B00D88FE03B00193B042B00D844
:1032200091E03B00283B132B00D893E0042F52D8A9
:103230002300032231002800FFF7E8FE4BE02300C3
:10324000132231002800FFF7E1FEDCE723001422FF
:1032500031002800FFF7DAFED5E723001522310000
:103260002800FFF7D3FECEE7230016223100280006
:10327000FFF7CCFEC7E72300172231002800FFF735
:10328000C5FEC0E72300182231002800FFF7BEFE6C
:10329000B9E72300192231002800FFF7B7FEB2E793
:1032A00023001A2231002800FFF7B0FEABE723000D
:1032B0001B2231002800FFF7A9FEA4E723001C22EF
:1032C00031002800FFF7A2FE9DE723000C22310009
:1032D0002800FFF79BFE4346042B42D93B000A3BE4
:1032E000042B48D93B000F3B042B4BD93B00143B2C
:1032F000042B4ED93B00193B042B51D93B001E3BFC
:10330000042B5AD93B00233B042B5DD93B00283BBF
:10331000042B66D93B002D3B042B69D93B00323B83
:10332000042B6CD9373F042F21D823000822310009
:103330002800FFF76BFE1AE023000C223100280062
:10334000FFF764FEC7E723000A2231002800FFF7D9
:103350005DFEC0E723000A2231002800FFF756FE79
:10336000B9E72300082231002800FFF74FFEC0BC58
:10337000B946B046F8BD2300092231002800FFF706
:1033800045FEF4E72300062231002800FFF73EFE49
:10339000EDE72300072231002800FFF737FEE6E7BC
:1033A0002300082231002800FFF730FE23000B2203
:1033B00031002800FFF72AFED9E723000B22310055
:1033C0002800FFF723FED2E723000822310028005F
:1033D000FFF71CFE23000B2231002800FFF716FE2A
:1033E000C5E72300072231002800FFF70FFEBEE7E4
:1033F0002300062231002800FFF708FEB7E723006C
:10340000092231002800FFF701FEB0E7F0B5C646FB
:1034100000B5D24CA54404000D0001280CD0002CAE
:1034200004D1CF4B9D4201D100F00AFCAC239B009C
:103430009D4480BCB846F0BDC94B9942EFD1C94B01
:1034400000221A719A60191DD96019615A61C64B20
:103450001A68561C1E60012E40D0C44A13680133FE
:103460001360012B00D1B0E0C14A1368013313602F
:10347000012B00D1BAE0BF4A136801331360012B5E
:1034800000D1C8E0BC4A136801331360012B00D19E
:10349000C7E0BA4A136801331360012B00D1C6E0BC
:1034A000B74A136801331360012BB8D1B54E0C2213
:1034B000002130000DF096FE002333607360B3608E
:1034C0001E931F930122209221931EA91C91013269
:1034D0001D9222ABAC48FEF717F9BFE00EAAAB492C
:1034E000AB48FDF795F810E00C260C24A61B0C3415
:1034F0007443A74BE418A64B9C4201D100F018FC82
:10350000183C200013F040FBF5E70FAAA149A248A0
:10351000FDF77EF801E00B26E7E710AA9F49A048D7
:10352000FDF776F801E00A26DFE711AA9D499E48DB
:10353000FDF76EF801E00926D7E712AA9B499C48DF
:10354000FDF766F801E00826CFE713AA99499A48E3
:10355000FDF75EF801E00726C7E714AA97499848E7
:10356000FDF756F801E00626BFE715AA95499648EB
:10357000FDF74EF801E00526B7E716AA93499448EF
:10358000FDF746F801E00426AFE717AA91499248F3
:10359000FDF73EF801E00326A7E718AA8F499048F7
:1035A000FDF736F819AA8F498F48FDF731F8002248
:1035B0008E4B002A00DA50E719000831196000210B
:1035C000596019721833013AF3E7894E1C22002121
:1035D00030000DF007FE874B33600123736000233A
:1035E000B360FE229205326173613DE7824E28226C
:1035F000002130000DF0F6FD002131607160B160F6
:10360000F16031617161B161F1613162716230000B
:10361000FDF752F82FE71AAA5C497848FCF7F8FF43
:1036200030E71BAA59497648FCF7F2FF31E7754BA2
:1036300000221A70062159609A6031E72023212464
:10364000E31A153C5C434F4BE4184E4B9C4200D1AF
:1036500072E30C3C2000FDF751FEF6E725AA6A4B09
:1036600043CB43C21B68136025A9239102222492F5
:1036700029AB6648FEF748F801E01F23DFE76946FB
:10368000614B10330A0043CB43C243CB43C243CB0D
:1036900043C243CB43C26B462A9306222B922CABE8
:1036A00069465B48FEF730F801E01E23C7E7354E58
:1036B000300030300C2398461A0000210DF092FDA6
:1036C000002737637763B76330003C3042463900E8
:1036D0000DF088FDF763376477644B493822403139
:1036E00068460DF085FD6B462D9307222E922FAB79
:1036F00069464848FEF708F801E01B239FE7694642
:10370000414B78330A0043CB43C243CB43C243CB44
:1037100043C243CB43C26B4630930622319232AB55
:1037200069463D48FDF7F0FF01E01A2387E7694647
:103730003A4B28330A0043CB43C243CB43C203CBAB
:1037400003C26B4633930422349235AB6946344846
:10375000FDF7DAFF66E0192371E7C04650FDFFFF71
:10376000FFFF0000D4260020841E0020801E0020C1
:103770007C1E0020741E0020781E0020881E002061
:10378000941E0020502300205C2300208C11021086
:10379000301F0020D0FF0110481F00200C5B0210DA
:1037A000601F0020D4FF0110781F0020D8FF0110F7
:1037B000901F0020DCFF0110A81F0020E0FF011077
:1037C000C01F0020E4FF0110D81F0020E8FF0110F7
:1037D000F01F0020ECFF011008200020F0FF011076
:1037E00020200020F4FF011038200020502000206D
:1037F000141F00202C1F0020EC1E0020BC1E0020E7
:10380000D41E0020682000206007021068230020DA
:103810007423002098230020A4230020E007021036
:10382000B023002038A9D44B48330A0043CB43C20D
:1038300043CB43C238A93691032237923EABCF48DF
:10384000FDF762FF01E01823F9E641AACA4B603395
:1038500043CB43C21B68136041A93F9102224092AF
:1038600045ABC748FDF750FF01E01723E7E669467F
:10387000C14B70330A0043CB43C243CB43C203CB9B
:1038800003C26B4646930422479248AB6946BD4843
:10389000FDF73AFF01E01623D1E66946BA4B103333
:1038A0000A0043CB43C243CB43C203CB03C26B46A4
:1038B000499304224A924BAB6946B448FDF724FF72
:1038C00001E01523BBE600234E93013B4F934EA925
:1038D0004C9101224D9250ABAD48FDF715FF01E030
:1038E0001423ACE60C2353930D3B549353A95191ED
:1038F0000122529255ABA748FDF706FF01E01323C2
:103900009DE665235893663B599358A95691012229
:1039100057925AABA048FDF7F7FE01E012238EE65E
:1039200071235D93723B5E935DA95B9101225C9272
:103930005FAB9A48FDF7E8FE01E011237FE6984E61
:103940003000CC300C2398461A0000210DF04AFCC0
:103950000027CC23F7500433F7500433F7503000DE
:10396000D830424639000DF03DFCD823F7500433DF
:10397000F7500433F75062A9834B30330A0043CB2E
:1039800043C243CB43C262A960910322619268ABF8
:103990008448FDF7B9FE01E00E2350E66BA97A4B8F
:1039A00048330A0043CB43C243CB43C26BA969915E
:1039B00003226A9271AB7C48FDF7A6FE01E00D235D
:1039C0003DE66946704B60330A0043CB43C243CBAC
:1039D00043C243CB43C21B6813606B4672930522FC
:1039E000739274AB69467148FDF78EFE01E00C23BB
:1039F00025E669466E4B08330A0043CB43C243CBEE
:103A000043C203CB03C26B4675930422769277AB15
:103A100069466848FDF778FE01E00B230FE669462A
:103A2000634B28330A0043CB43C243CB43C203CB8F
:103A300003C26B467893042279927AAB69465E485A
:103A4000FDF762FE01E00A23F9E57DA9584B4833F2
:103A50000A00C1CBC1C2C1CBC1C27B9103227C92FF
:103A600083AB5648FDF750FE01E00923E7E56946C0
:103A70004F4B60330A0043CB43C243CB43C243CBDB
:103A800043C21B6813606B4684930522859286AB04
:103A900069464B48FDF738FE01E00823CFE569464B
:103AA000484B08330A0043CB43C243CB43C243CB0A
:103AB00043C21B6813606B4687930522889289ABCB
:103AC00069464148FDF720FE01E00723B7E5694656
:103AD0003C4B30330A0043CB43C243CB43C203CBFE
:103AE00003C26B468A9304228B928CAB694637489B
:103AF000FDF70AFE01E00623A1E58FA9314B503303
:103B00000A00C1CBC1C2C1CBC1C28D9103228E922A
:103B100095AB2F48FDF7F8FD01E005238FE56946D9
:103B2000284B68330A0043CB43C243CB43C243CB49
:103B300043C243CB43C26B4696930622979298ABFF
:103B400069462448FDF7E0FD6946234B18330A0017
:103B500043CB43C243CB43C243CB43C243CB43C219
:103B60006B46999306229A929BAB69461B48FDF7D8
:103B7000CBFD35E0032362E5E0070210BC23002003
:103B8000C8230020D423002060080210E023002076
:103B9000EC230020F823002004240020102400201F
:103BA0005023002034240020402400204C240020F6
:103BB000E008021058240020642400207024002013
:103BC0007C24002060090210882400209424002016
:103BD000A0240020AC240020E0090210B82400201A
:103BE000564E30007530FF300C2398461A000021E5
:103BF0000DF0F8FA0027BA235B00F7500433F750B2
:103C00000433F75030008130FF30424639000DF068
:103C1000E9FAC0235B00F7500433F7500433F75040
:103C200030008D30FF30424639000DF0DBFAC623FC
:103C30005B00F7500433F7500433F750FFF7EFFB06
:103C40003F4A1368013B1360002B0DD13D4C01E04E
:103C500011F0E2FB394B9C4206D00C3C2068A36873
:103C6000191A0028F4D1F5E7374A1368013B1360AD
:103C7000002B20D0354A1368013B1360002B1ED067
:103C8000334A1368013B1360002B1CD0314A136880
:103C9000013B1360002B3CD02F4A1368013B13609B
:103CA000002B3AD12D4C2E4B9C4236D0183C200094
:103CB00012F06AFFF7E72B4812F066FFDAE72A48AE
:103CC00012F062FFDCE7294CA368A093E368A1939C
:103CD0002369A2936069A390A1699C91E2699D9276
:103CE000236A9E93656A9F95A568A895E568A9953E
:103CF0002569AA95AB90A491A592A693636AA79310
:103D0000A4AAA8A92000FCF72FFD2000FCF7A1FC25
:103D1000BCE71748FCF7B8FDBEE716488168FDF719
:103D200052FDFFF783FB0226FFF7DFFBFFF7DDFB0A
:103D300011F01AFC042382E411F016FC5023002039
:103D4000941E0020E8240020781E0020741E00200D
:103D50007C1E0020801E0020841E00206820002081
:103D6000301F0020D41E0020BC1E0020EC1E0020AE
:103D7000141F0020D426002010B502490120FFF7AF
:103D800045FB10BDFFFF000010B50400034B0833D6
:103D9000036001F025FB200010BDC046940C02100A
:103DA00010B50400FFF7F0FF0421200011F034FBF0
:103DB000200010BD10B5040001F022FB024B0833B7
:103DC0002360200010BDC046940C0210F0B5D6460A
:103DD0004F464646C0B586B0824689461F00531EF0
:103DE000032B08D9D31F072B26D90A3B072B26D92B
:103DF0000323984601E00223984653009A18920044
:103E0000224D55196B682A689E1AF61000230393F9
:103E100004930593002E17D080235B059E4211D298
:103E2000F00012F0BBF9040003940494F300E318CB
:103E300005932A6869680DE001239846DDE70023B1
:103E40009846DAE712F062FC0024EDE7230011CA7D
:103E500011C31C008A42F9D104940097434603AA77
:103E60004946504601F0C4FB0398059B191A0028E7
:103E700001D011F0D1FA06B0E0BCBA46B146A8466E
:103E8000F0BD03A8FDF73AFA11F06EFB7420002094
:103E900030B583B004000068002811D02369191AD6
:103EA00011F0BAFA6B4600210091596022000832E5
:103EB00021CB21C223000833220021CB21C2216162
:103EC00003B030BDF0B5C64600B5DEB005000E004B
:103ED00017009846649C0A2C19DC192C1CDC282C31
:103EE00021DC372C26DC0A2140460BF08FFF11A87D
:103EF00004F040FA642140460BF088FF08000A21D4
:103F00000BF084FF01000CA804F034FA19E0230040
:103F10000122FFF75BFFE0E72300022231002800C7
:103F2000FFF754FFDBE72300032231002800FFF7EF
:103F30004DFFD6E72300042231002800FFF746FF9B
:103F4000D1E70A2138000BF061FF07A804F012FA4C
:103F5000642138000BF05AFF08000A210BF056FFCD
:103F6000010002A804F006FA119B1893002219928E
:103F70001693013217921B681A4200D0A5E0119BDC
:103F80001C9301221D921A9301321B921B681A4244
:103F900000D0A1E0119B2093022221921E930232B5
:103FA0001F921B681A4200D09DE0119B24930322AC
:103FB00025922293053223921B681A4200D099E081
:103FC0000C9B2893002229922693013227921B688A
:103FD0001A4200D095E00C9B2C9301222D922A933B
:103FE00001322B921B681A4200D091E00C9B309357
:103FF000022231922E9302322F921B681A4200D075
:104000008DE00C9B34930322359232930532339228
:104010001B681A4200D089E0079B3893002239922E
:104020003693013237921B681A4200D085E0079B15
:104030003C9301223D923A9301323B921B681A4213
:1040400000D081E0079B4093022241923E930232CE
:104050003F921B681A427ED1079B449303224592EC
:104060004293053243921B681A427BD1029B4893CC
:10407000002249924693013247921B681A4278D136
:10408000029B4C9301224D924A9301324B921B6842
:104090001A4275D1029B5093022251924E930232E2
:1040A0004F921B681A4272D1029B5493032255927D
:1040B0005293053253921B681A426FD0230010327C
:1040C00031002800FFF782FE68E02300063231004D
:1040D0002800FFF77BFE52E723000632310028005C
:1040E000FFF774FE56E72300053231002800FFF782
:1040F0006DFE5AE72300023231002800FFF766FE0A
:104100005EE723000A3231002800FFF75FFE62E716
:1041100023000A3231002800FFF758FE66E723002B
:10412000093231002800FFF751FE6AE7230006320A
:1041300031002800FFF74AFE6EE7230010323100FD
:104140002800FFF743FE72E72300103231002800F9
:10415000FFF73CFE76E723000F3231002800FFF71F
:1041600035FE79E723000C3231002800FFF72EFEE0
:104170007CE72300143231002800FFF727FE7FE799
:104180002300143231002800FFF720FE82E72300CD
:10419000133231002800FFF719FE85E70298002846
:1041A00012D0069B0193191A11F036F90024569487
:1041B0005794082256A904A80DF01AF8082204A959
:1041C00002A80DF015F806940798002810D007AC47
:1041D0000B9B191A11F020F958AB002158915991F5
:1041E00009AA21CB21C209AB220021CB21C20B910C
:1041F0000C98002812D0109B0193191A11F00CF999
:1042000000245A945B9408225AA90EA80CF0F0FFDF
:1042100008220EA90CA80CF0EBFF109411980028AE
:1042200010D011AC159B191A11F0F6F85CAB0021F7
:104230005C915D9113AA21CB21C213AB220021CB4B
:1042400021C215915EB080BCB846F0BD02A8FFF750
:104250001FFE07A8FFF71CFE0CA8FFF719FE11A808
:10426000FFF716FE11F080F9F3E7F5E7F7E7000036
:10427000F0B5CE46474680B5EBB004000D000128EE
:104280000AD0002C03D1D94B9D4200D144E36BB03E
:10429000C0BCB946B046F0BDD44B9942F1D1D44B25
:1042A00000221A719A60191DD96019615A61D14BA7
:1042B0001A68561C1E60012E3ED0CF4A1368013387
:1042C0001360012B00D1ADE0CC4A136801331360B9
:1042D000012B00D1B7E0CA4A136801331360012BE8
:1042E00000D1C5E0C74A136801331360012B00D128
:1042F000C4E0C54A136801331360012B00D1C3E049
:10430000C24B1A68561C1E60012EBAD1C04F0C2237
:10431000002138000CF066FF00233B607B60BB602F
:104320001893013B199318A91691012217921AAB01
:10433000B848FDF7E9F9AEE008AAB749B748FCF775
:1043400067F90FE00C260C24A61B0C347443B34B06
:10435000E418B24B9C4200D153E3183C200012F009
:1043600013FCF6E709AAAE49AE48FCF751F901E0A3
:104370000B26E8E70AAAAC49AC48FCF749F901E08A
:104380000A26E0E70BAAAA49AA48FCF741F901E08E
:104390000926D8E70CAAA849A848FCF739F901E092
:1043A0000826D0E70DAAA649A648FCF731F901E096
:1043B0000726C8E70EAAA449A448FCF729F901E09A
:1043C0000626C0E70FAAA249A248FCF721F901E09E
:1043D0000526B8E710AAA049A048FCF719F901E0A2
:1043E0000426B0E711AA9E499E48FCF711F901E0A6
:1043F0000326A8E712AA9C499C48FCF709F913AACE
:104400009B499C48FCF704F900229B4B002A00DAE8
:1044100053E71900083119600021596019721833E7
:10442000013AF3E7954E1C22002130000CF0DAFE31
:10443000934B3360012373600023B360FE22920527
:104440003261736140E78F4E2822002130000CF06A
:10445000C9FE002131607160B160F160316171614C
:10446000B161F161316271623000FCF725F932E728
:1044700014AA69498448FCF7CBF833E715AA6649C2
:104480008248FCF7C5F834E7814B00221A700621F8
:1044900059609A6034E70C231D930D3B1E931DA9B0
:1044A0001B9101221C921FAB7A48FDF72DF90FE0FA
:1044B00017261924A61B0D3C7443554BE418544B86
:1044C0009C4200D1A2E20C3C2000FCF717FFF6E76B
:1044D00065232293663B239322A9209101222192F6
:1044E00024AB6D48FDF710F901E01626E1E77123D2
:1044F0002793723B289327A925910122269229AB65
:104500006648FDF701F901E01526D2E7404F380073
:104510003C300C2399461A0000210CF063FE002366
:104520009846FB633B647B64380048304A46190078
:104530000CF058FE4346BB64FB643B656946584B30
:104540000A0083CB83C283CB83C203CB03C26B46F7
:104550002A9304222B922CAB69465248FDF7D4F8DB
:1045600001E01226A5E769464D4B20330A0083CBB4
:1045700083C283CB83C203CB03C26B462D93042239
:104580002E922FAB69464848FDF7BEF801E0112690
:104590008FE76946424B40330A0083CB83C283CB0B
:1045A00083C203CB03C26B4630930422319232ABF9
:1045B00069463E48FDF7A8F801E0102679E769460C
:1045C000374B60330A0083CB83C283CB83C203CBD8
:1045D00003C26B4633930422349235AB69463448A8
:1045E000FDF792F866E00F2663E7C046FFFF000084
:1045F000EC260020841E0020801E00207C1E00204F
:10460000741E0020781E0020881E00208C1E0020B2
:1046100074200020802000208C110210301F002008
:10462000D0FF0110481F00200C5B0210601F00200B
:10463000D4FF0110781F0020D8FF0110901F002028
:10464000DCFF0110A81F0020E0FF0110C01F0020A8
:10465000E4FF0110D81F0020E8FF0110F01F002028
:10466000ECFF011008200020F0FF011020200020A6
:10467000F4FF01103820002050200020141F0020DB
:104680002C1F0020EC1E0020BC1E0020D41E002089
:10469000682000208C20002098200020A4200020EA
:1046A000680A0210C8200020D4200020E02000204A
:1046B000EC2000206946D64B0A0083CB83C283CB13
:1046C00083C203CB03C26B4636930422379238ABC6
:1046D0006946D048FDF718F801E00E26E9E669467C
:1046E000CB4B20330A0083CB83C283CB83C203CB63
:1046F00003C26B46399304223A923BAB6946C648E3
:10470000FDF702F801E00D26D3E66946C04B4033C1
:104710000A0083CB83C283CB83C203CB03C26B4625
:104720003C9304223D923EAB6946BC48FCF7ECFF4B
:1047300001E00C26BDE66946B54B60330A0083CB29
:1047400083C283CB83C203CB03C26B463F93042255
:10475000409241AB6946B248FCF7D6FF01E00B2618
:10476000A7E6B04F3800B4300C2399461A00002158
:104770000CF038FD00239846B4334246FA50043317
:10478000FA500433FA503800C0304A4641460CF023
:1047900029FDC0234246FA500433FA500433FA503C
:1047A0006946A14B0A0083CB83C283CB83C203CB70
:1047B00003C26B4642930422439244AB69469B4832
:1047C000FCF7A2FF01E0082673E66946964B20330A
:1047D0000A0083CB83C283CB83C203CB03C26B4665
:1047E00045930422469247AB69469148FCF78CFFFB
:1047F00001E007265DE669468B4B40330A0083CB18
:1048000083C283CB83C203CB03C26B46489304228B
:1048100049924AAB69468748FCF776FF01E00626D5
:1048200047E66946804B60330A0083CB83C283CB63
:1048300083C203CB03C26B464B9304224C924DAB15
:1048400069467D48FCF760FF01E0052631E66946D0
:104850007A4B0A0083CB83C283CB83C203CB03C2D0
:104860006B464E9304224F9250AB69467448FCF756
:104870004BFF01E004261CE66946704B20330A001A
:1048800083CB83C283CB83C203CB03C26B465193DA
:104890000422529253AB69466A48FCF735FF01E0A7
:1048A000032606E66946654B40330A0083CB83C284
:1048B00083CB83C203CB03C26B465493042255922D
:1048C00056AB69466048FCF71FFF01E00226F0E5A1
:1048D00069465A4B60330A0083CB83C283CB83C2C1
:1048E00003CB03C26B4657930422589259AB6946D7
:1048F0005648FCF709FF4B4E30002D30FF300C229C
:1049000000210CF06FFC002396225200B3500432B9
:10491000B3500432B350B4E44D4A1368013B136002
:10492000002B0DD14B4C01E010F076FD3D4B9C422D
:1049300006D00C3C2068A368191A0028F4D1F5E7CA
:10494000454A1368013B1360002B20D0434A13688B
:10495000013B1360002B1ED0414A1368013B1360DA
:10496000002B1CD03F4A1368013B1360002B3CD046
:104970003D4A1368013B1360002B3AD13B4C3C4B42
:104980009C4236D0183C200012F0FEF8F7E7394878
:1049900012F0FAF8DAE7384812F0F6F8DCE7374CAC
:1049A000A3685E93E3685F93236960936069619095
:1049B000A1695A91E2695B92236A5C93656A5D958D
:1049C000A5686695E568679525696895699062911F
:1049D00063926493636A659362AA66A92000FBF7F9
:1049E000C3FE2000FBF735FEBCE72548FBF74CFF74
:1049F000BEE724488168FCF7E6FE48E40226A2E40C
:104A0000A1E410F0B1FD182653E552E510F0ACFD1D
:104A1000E80A0210F82000200421002010210020C4
:104A20001C21002074200020680B0210402100206F
:104A30004C2100205821002064210020E80B0210A6
:104A4000702100207C21002088210020942100205A
:104A50008C1E0020AC210020781E0020741E002037
:104A60007C1E0020801E0020841E00206820002064
:104A7000301F0020D41E0020BC1E0020EC1E002091
:104A8000141F0020EC26002010B502490120FFF77A
:104A9000EFFB10BDFFFF000010B50400034B08330F
:104AA000036000F09DFC200010BDC046E80C021021
:104AB00010B50400FFF7F0FF0421200010F0ACFC5B
:104AC000200010BD10B5040000F09AFC024B083322
:104AD0002360200010BDC046E80C0210F0B5DE4691
:104AE00057464E464546E0B5B1B081468A469346A4
:104AF00003933A9B0A2B0FDC3A9B192B49DC3A9B18
:104B0000282B00DD8FE03A9B372B00DDCAE0002622
:104B10000023984600273AE10BA900220B920123BB
:104B20005B420C9309AB099101210A9104A911CBB5
:104B300011C10692079208921C001D00083501233E
:104B4000002B03D0082011F029FB00E00020069084
:104B5000030008330893A54204D0030006CC06C323
:104B60001800F8E707903A9B0093022306AA5146E3
:104B7000484600F03DFD04E006A8FCF7BFFB10F03E
:104B8000F3FC0698089B191A0028B5D010F044FCD5
:104B9000B2E712ABCB4A190011CA11C1109301231D
:104BA0001193082210A904A80CF022FB00230D93F6
:104BB0000E930F93049C059EF600A519F010C24AAF
:104BC000964209D8002811D08022520590420BD27B
:104BD000C00011F0E3FA0AE0BC4811F0BFFD0DA8D7
:104BE000FCF78CFB10F0C0FC11F090FD00200D9044
:104BF00086190F96A54204D0030006CC06C3180000
:104C0000F8E70E903A9B009302230DAA51464846BE
:104C100000F0EEFC0D980F9B191A002800D16EE7EA
:104C200010F0FAFB6BE719AAA64B0833110011CB61
:104C300011C117AB17920122189204AA03CB03C229
:104C40000023149315931693049C25000835013313
:104C5000002B03D0082011F0A1FA00E000201490EE
:104C6000030008331693A54204D0030006CC06C304
:104C70001800F8E715903A9B0093022314AA5146B6
:104C8000484600F0B5FC04E014A8FCF737FB10F030
:104C90006BFC1498169B191A002800D133E710F00A
:104CA000BBFB30E720AA874B1033110011CB11C199
:104CB0001E9201231F9308221EA904A80CF098FA43
:104CC00000231B931C931D93049C059EF600A519BD
:104CD000F0107D4A964209D8002811D08022520552
:104CE00090420BD2C00011F059FA0AE0774811F057
:104CF00035FD1BA8FCF702FB10F036FC11F006FD99
:104D000000201B9086191D96A54204D0030006CCF6
:104D100006C31800F8E71C903A9B009302231BAAD5
:104D20005146484600F064FC1B981D9B191A002848
:104D300000D1ECE610F070FBE9E6002022900300C1
:104D40000833249303E0030006CC06C31800A542F1
:104D5000F9D123903A9B0093002322AA514648465A
:104D600000F046FC04E022A8FCF7C8FA10F0FCFBB7
:104D70002298249B191A002801D010F04DFB01360F
:104D80000A2E03DD01239C46E04400260137BB4583
:104D900018D927AA27964346289325AB25920122A6
:104DA000269204AA03CB03C20023229323932493C5
:104DB000049C250008350133002BBED0082011F0DB
:104DC000EDF9BBE7002700239B4698462EE03F48BD
:104DD00011F0C4FC29A8FCF791FA10F0C5FB11F002
:104DE00095FC0020299045192B9503E0030006CC83
:104DF00006C31800A642F9D12A903A9B00930123DA
:104E000029AA5146484600F0F3FB29982B9B191A12
:104E1000002801D010F000FB01370A2F03DD012329
:104E20009C46E344002701239C46E044039B434502
:104E300041D909235A469B1A2EAA2E972F932C92BA
:104E400001232D9308222CA904A80CF0D1F90023EA
:104E500029932A932B93049C059DED006619E81075
:104E6000194A9542B3D80028BBD0802252059042FF
:104E7000B5D2C00011F092F9B4E706A8FCF73EFAEB
:104E800010F072FB0DA8FCF739FA10F06DFB14A8B6
:104E9000FCF734FA10F068FB1BA8FCF72FFA10F0AF
:104EA00063FB22A8FCF72AFA10F05EFB29A8FCF7A6
:104EB00025FA10F059FB31B0F0BCBB46B246A9460A
:104EC000A046F0BDA80C0210F8FFFF7F7C00021086
:104ED00070B59EB004000D00012807D0002C03D14E
:104EE000A54B9D4200D1E3E01EB070BDA24B99429C
:104EF000F4D1A24B00221A719A60191DD960196170
:104F00005A619F4B1A68561C1E60012E28D09D4A7C
:104F1000136801331360012B00D197E09A4A13689C
:104F200001331360012B00D1A1E0984A13680133CB
:104F30001360012B00D1AFE0954A13680133136071
:104F4000012B00D1AEE0934A136801331360012BAB
:104F5000C4D1914B00221A70062159609A60BDE7B6
:104F60006A468E498E48FBF753FB0FE00C260C2453
:104F7000A61B0C3474438A4BE418894B9C4200D125
:104F8000F7E0183C200011F0FFFDF6E701AA854983
:104F90008548FBF73DFB01E00B26E8E702AA8349C1
:104FA0008348FBF735FB01E00A26E0E703AA8149C5
:104FB0008148FBF72DFB01E00926D8E704AA7F49C9
:104FC0007F48FBF725FB01E00826D0E705AA7D49CD
:104FD0007D48FBF71DFB01E00726C8E706AA7B49D1
:104FE0007B48FBF715FB01E00626C0E707AA7949D5
:104FF0007948FBF70DFB01E00526B8E708AA7749D9
:105000007748FBF705FB01E00426B0E709AA7549DC
:105010007548FBF7FDFA01E00326A8E70AAA7349E1
:105020007348FBF7F5FA0BAA72497348FBF7F0FADD
:105030000022724B002A00DA69E719000831196072
:105040000021596019721833013AF3E76C4E1C22A3
:10505000002130000CF0C6F86A4B33600123736006
:105060000023B360FE2292053261736156E7664EFB
:105070002822002130000CF0B5F800213160716069
:10508000B160F16031617161B161F1613162716290
:105090003000FBF711FB48E70CAA40495B48FBF7DF
:1050A000B7FA49E70DAA3D495948FBF7B1FA4AE773
:1050B000374A1368013B1360002B19D0334A136839
:1050C000013B1360002B17D02F4A1368013B13607C
:1050D000002B15D02B4A1368013B1360002B35D0F1
:1050E000274A1368013B1360002B3AD1494C35E045
:1050F000474811F049FDE1E7444811F045FDE3E779
:10510000414CA3681293E368139323691493606975
:105110001590A1690E91E2690F92236A1093656A56
:105120001195A5681A95E5681B9525691C951D9034
:10513000169117921893636A199316AA1AA9200058
:10514000FBF712FB2000FBF784FAC3E72C48FBF7C0
:105150009BFBC5E7183C200011F016FD104B9C424C
:10516000F8D106488168FCF72EFBBDE60226FEE674
:10517000FDE610F0F9F9C046FFFF0000042700200B
:10518000841E0020801E00207C1E0020741E002033
:10519000781E0020881E0020682000208C1102103C
:1051A000301F0020D0FF0110481F00200C5B0210B0
:1051B000601F0020D4FF0110781F0020D8FF0110CD
:1051C000901F0020DCFF0110A81F0020E0FF01104D
:1051D000C01F0020E4FF0110D81F0020E8FF0110CD
:1051E000F01F0020ECFF011008200020F0FF01104C
:1051F00020200020F4FF0110382000205020002043
:10520000141F00202C1F0020EC1E0020BC1E0020BC
:10521000D41E00206820002010B502490120FFF7AD
:1052200057FE10BDFFFF000030B585B06B46D8714A
:105230009D1D99715A71D87903AB187029785970EE
:10524000D2B29A70884217D86B46073319788A42CF
:1052500015D31A7803ABDA705A7812021878104313
:105260009A781204074908401043DB781B060002B5
:10527000000A184305B030BD6B460633E6E76B46BF
:105280000533E6E7FFFF00FFF0B583B004000E0032
:105290001500002916D101AB1A705A709A700022BD
:1052A000DA7001AB5A781202187810439A78120417
:1052B000494908401043DB781B060002000A1843E6
:1052C00003B0F0BD2B210AF0C9FDC3B28006C01A9D
:1052D0008000C0188000C0188000C018201844004A
:1052E00004196400E4B2FF27B81B68430012C0B27F
:1052F0006A46D070210071430912791A6943091274
:10530000C9B26A4691703C1B66433612BA1B6A43A7
:105310001212D2B26C466270042B4ED89B002F4CF6
:10532000E3589F4601AB1D705A709870904205D3A8
:105330006B4601331A7801ABDA70B2E76B46033380
:10534000F8E701AB19705D709870884205D36B4621
:1053500002331A7801ABDA70A3E76B460333F8E740
:1053600001AB18705D709A70904205D36B460133A3
:105370001A7801ABDA7094E76B460333F8E701ABB8
:10538000187059709D70884205D36B4602331A78A5
:1053900001ABDA7085E76B460333F8E701AB1A70AF
:1053A00058709D70904205D36B4601331A7801AB5B
:1053B000DA7076E76B460333F8E701AB1D7058707F
:1053C0009970884205D36B4602331A7801ABDA70C4
:1053D00067E76B460333F8E7FFFF00FFFC0C0210A2
:1053E000014B0833036070471C0E021010B5040017
:1053F000FFF7F6FF0421200010F00EF8200010BD8A
:10540000014B0833036070471C0E021010B582B0C8
:105410000C001000032913D03C210AF0F7FC88008F
:10542000244B9B68002B22D1A10064182101641831
:105430002018C0B2FF22FF21FFF726FF019005E0F0
:10544000802280218020FFF7EFFE019001AB5A7887
:105450001202187810439A78120417490840104332
:10546000DB781B060002000A184302B010BD012BB6
:105470000AD0022B0FD0032B14D080228021802051
:10548000FFF7D2FE0190E1E7C0B2FF22FF21FFF754
:10549000FBFE0190DAE7FA22FA21FF20FFF7C4FEB3
:1054A0000190D3E733227321B820FFF7BDFE0190AE
:1054B000CCE7C04668200020FFFF00FF10B5002B9E
:1054C00008D0092351685B1A11680A22521A026037
:1054D000436010BD030012CA12C3FAE7F0B5C64616
:1054E00000B582B005000C0090461F0008000FF0C8
:1054F00051FC2B681E68089B00933B00424621002C
:105500002800B04720000FF055FC02B080BCB84620
:10551000F0BD00B583B0002300930022FFF7DEFF4B
:1055200003B000BD032901D8014B99607047C04604
:1055300068200020F0B5CE46474680B58BB00C6899
:105540004A680A2C0EDC092A0CDCD30720D493000D
:105550009B18580080188046A04400210024002396
:10556000994620E002AB00931F4A11001C3900232A
:105570006846FBF71FF8684603F08CF9009802AB09
:10558000984203D0029B591C0FF046FF002020E0F8
:105590000B20001B93009B185B009A188018431E79
:1055A0009846DAE70131032911D80134A446C444EE
:1055B00006AA0E4B1600A1CBA1C61B6833608B0058
:1055C0009B589C45EEDD01239C46E144EAE74046BA
:1055D00048440BB0C0BCB946B046F0BD684611F0B7
:1055E000D3FA0FF0C1FFC0462C0D0210840D02103B
:1055F000F0B5DE4657464E464546E0B58BB0060050
:10560000884614009B46149B9946002522E02848B2
:1056100011F0BCF805AA6B46110081CB81C11F00B7
:10562000244B1B7831003800FFF748FF07A90B0017
:1056300005CF05C33000FFF77DFF82464A46594635
:105640003000FFF7E3FE02000990514640460FF09C
:1056500089FB0135636822689B1ADB1029009D4293
:105660001FD263689A1AD2109542D0D2E9002368FB
:105670009C4661446B4605C905C3019B0133C9D1F2
:10568000722100980AF0C2FB0F004A4659463000CA
:10569000FFF7BCFE02000490390040460FF062FBA9
:1056A000D7E70BB0F0BCBB46B246A946A046F0BD5A
:1056B000300D021068200020F0B5CE46474680B578
:1056C000EDB004000D00749E0EA9D54B10330A00F6
:1056D00083CB83C283CB83C203CB03C20EAB2E9397
:1056E00004232F9308222EA90CA80BF081FD002380
:1056F0002B932C932D930C9F0D9BDB00FA18904657
:105700009946D810C74A914509D8002811D080225F
:10571000520590420BD2C00010F040FD0AE0C24892
:1057200011F01CF82BA8FBF7E9FD0FF01DFF10F09E
:10573000EDFF00202B904B46C3182D9303E0030090
:1057400006CF06C31800B845F9D12C902B9BC01A80
:10575000C7100023309331933293002F07D080235A
:105760005B059F420CD2F80010F018FD00E000200D
:1057700030903190FF00C71932972B9B2C9906E08F
:1057800010F0C4FF45E0020081CB81C210008B42C3
:10579000F9D131900096002330AA29002000FFF7AC
:1057A00027FF3098329B191A002801D00FF034FEE1
:1057B0000EA99B4B30330A0083CB83C283CB83C2B9
:1057C00003CB03C233AB0EAA33920422349202AA53
:1057D000110081CB81C10023289329932A93029F32
:1057E0000433DB00FA1890469946D8108D4A91454B
:1057F00009D8002814D08022520590420ED2C00051
:1058000010F0CCFC0DE0884810F0A8FF28A8FBF7AA
:1058100075FD2BA8FBF772FD0FF0A6FE10F076FFCA
:10582000002028904B46C3182A93B84504D00300A3
:1058300006CF06C31800F8E72990289BC01AC710A6
:105840000023359336933793002F07D080235B05D1
:105850009F4212D2F80010F0A1FC00E00020359029
:105860003690FF00C7193797289B29998B4207D09C
:10587000020081CB81C21000F8E710F047FF3AE048
:1058800036900096012335AA29002000FFF7B0FECC
:105890003598379B191A002801D00FF0BDFD3AAAA0
:1058A0005F4B5033110081CB81C138920123399372
:1058B000082238A904A80BF09BFC0023259326930B
:1058C0002793049F059BDB00FA1890469946D81051
:1058D000544A914509D8002813D08022520590429D
:1058E0000DD2C00010F05AFC0CE04F4810F036FF0B
:1058F00025A8FBF703FD28A8FBF700FD89E710F0BA
:1059000005FF002025904B46C318279303E00300B2
:1059100006CF06C31800B845F9D12690259BC01ABA
:10592000C71000233C933D933E93002F07D0802364
:105930005B059F4212D2F80010F030FC00E000201E
:105940003C903D90FB00C3183E93259B26998B42CB
:1059500007D0020081CB81C21000F8E710F0D6FE1C
:105960003AE03D90009601233CAA29002000FFF771
:105970003FFE3C983E9B191A002801D00FF04CFDC9
:1059800041AA274B5833110081CB81C13FAB3F92D5
:105990000122409206AA110081CB81C100232293EB
:1059A00023932493069F0133DB00FA18904699460F
:1059B000D8101C4A914509D8002813D080225205DE
:1059C00090420DD2C00010F0E9FB0CE0164810F038
:1059D000C5FE22A8FBF792FC25A8FBF78FFC8AE7FF
:1059E00010F094FE002022904B46C318249303E04D
:1059F000030006CF06C31800B845F9D12390229BB7
:105A0000C01AC7100023439344934593002F0DD031
:105A100080235B059F4212D2F80010F0BFFB06E026
:105A2000840D0210F8FFFF7F7C00021000204390DD
:105A30004490FB00C3184593229B239906E010F085
:105A400065FE40E0020081CB81C210008B42F9D19B
:105A500044900096032343AA29002000FFF7C8FDC5
:105A60004398459B191A002801D00FF0D5FC48AA8D
:105A7000D54B6033110081CB81C1469201234793FE
:105A8000082246A908A80BF0B3FB00231F9320931C
:105A90002193089F099BDB00FA1890469946D8107D
:105AA000CA4A914509D8002813D080225205904255
:105AB0000DD2C00010F072FB0CE0C54810F04EFE95
:105AC0001FA8FBF71BFC22A8FBF718FC84E710F0CB
:105AD0001DFE00201F904B46C318219303E00300D6
