:020000041000EA
:1000000000B50C4B00219960042159610A4919601F
:100010000A490B480160002159600121996001BC27
:10002000002800D0004707480749086003C880F34C
:10003000088808470000001800031F00180200038A
:10004000F40000180001001008ED00E000000000BE
:1000500000000000000000000000000000000000A0
:100060000000000000000000000000000000000090
:100070000000000000000000000000000000000080
:100080000000000000000000000000000000000070
:100090000000000000000000000000000000000060
:1000A0000000000000000000000000000000000050
:1000B0000000000000000000000000000000000040
:1000C0000000000000000000000000000000000030
:1000D0000000000000000000000000000000000020
:1000E0000000000000000000000000000000000010
:1000F0000000000000000000000000002CEC210DBA
:1001000000200420F7010010C3010010C5010010F9
:10011000C1010010C1010010C1010010C101001097
:10012000C1010010C1010010C1010010C701001081
:10013000C1010010C1010010C9010010CB01001065
:10014000CD010010CD010010CD010010CD01001037
:10015000CD010010CD010010CD010010CD01001027
:10016000CD010010CD010010CD010010CD01001017
:10017000CD010010CD010010CD010010CD01001007
:10018000CD010010CD010010CD010010CD010010F7
:10019000CD010010CD010010CD010010CD010010E7
:1001A000CD010010CD010010CD010010CD010010D7
:1001B000CD010010CD010010CD010010CD010010C7
:1001C00000BE00BE00BE00BE00BE00BE00F04BF888
:1001D000103800BEF2EB8871D0D40110F4D40110B5
:1001E0003402001090A31AE700202149086006C8D5
:1001F00081F3088810471F48006800282FD10DA4FC
:100200000ECC002902D000F012F8F9E71A491B4A77
:10021000002000E001C19142FCD1194988471949E9
:1002200088471949884700BEFDE701C901C29A42C3
:10023000FBD37047F4D40110C0000020DC1D002067
:1002400010F20110000004200000042010F2011040
:1002500000100420001004200000000070470B482C
:1002600009F086FB0047EFF30580C0B2704700003D
:1002700008ED00E0000000D0E01D00204C3100201F
:10028000BD7D0010D95B0010E57E001057560000C0
:1002900006005250ABB36053D09F0110060052507D
:1002A000861C0302EC9F0110060052505422A29DAE
:1002B000F89F011005005250DE65F46810F201103D
:1002C000F8B5C04610B5064C2378002B07D1054B76
:1002D000002B02D0044800E000BF0123237010BDB2
:1002E000E81F00200000000068870110044B10B5D3
:1002F000002B03D00349044800E000BF10BDC046F6
:1003000000000000EC1F0020688701107047C04605
:1003100010B503685B68984710BDC04610B504006F
:10032000034B0833036005F035FF200010BDC046C5
:10033000F08A011010B50400054B0833036005F086
:1003400029FF200004210DF0E9FE200010BDC04669
:10035000F08A01100023F0B5036043608360154B01
:1003600004000E0083B0D5009D4216D8002D0ED09B
:1003700028000EF02BFD47192060A760002D0AD041
:100380002A00310009F0A4FF676003B0F0BD002728
:1003900005608560F8E70700F6E707480EF0ECFF18
:1003A0002068A168091A002801D00DF0B7FE0DF0F1
:1003B0005DFFC046F8FFFF7F68870110F0B5C646B5
:1003C000040000B5002825D01A4B1B4F9846260084
:1003D000E068FFF7F3FFB569A468002D14D06B68DF
:1003E000013B6B60002B0FD12B689B68BB4214D183
:1003F000AB68013BAB60002B06D12B68DA68424545
:100400000ED128005B6898471C2130000DF086FE55
:10041000002CDCD180BCB846F0BD28009847E7E747
:10042000280090471C2130000DF078FE002CCED122
:10043000F0E7C046110300100D030010F0B5DE46D2
:1004400057464E464546E0B5834685B0002800D164
:1004500099E05B46DB680193002B00D186E0019BAD
:10046000DB689946002B72D04B46DB689A46002B1E
:1004700060D05346DC68002C42D0E668002E27D0BE
:10048000F3689846002B2FD04346DD68002D44D0FA
:10049000EF68002F10D0F868FFF7D0FF3B00DA6953
:1004A000BF68100002930392FFF788FF2C21029887
:1004B0000DF034FE002FEED1AF68E869FFF77EFF44
:1004C0002C2128000DF02AFE002F26D03D00DFE76A
:1004D000A568E069FFF772FF2C2120000DF01EFED9
:1004E000002D0DD02C00C8E7B568F069FFF766FF56
:1004F0002C2130000DF012FE002DE9D02E00BFE7B8
:1005000053469C68D869FFF759FF2C2150460DF0DF
:1005100005FE002C0ED0A246ABE743469D68D86985
:10052000FFF74CFF2C2140460DF0F8FD002DDBD0ED
:10053000A846A9E74B469C68D869FFF73FFF2C21E6
:1005400048460DF0EBFD002C01D0A1468CE7019D43
:10055000EB69AC6818000193FFF730FF2C212800ED
:100560000DF0DCFD002C01D0019478E75B469C681F
:10057000D869FFF723FF2C2158460DF0CFFD002C42
:1005800001D0A34665E705B0F0BCBB46B246A9461C
:10059000A046F0BDF0B5C64600B5C8B001282BD0C6
:1005A000114A1368013B1360002B14D10F4C104DFE
:1005B000206800280BD0A368191A0DF0AFFD2300A6
:1005C0000C3BA54207D01C0020680028F3D1230073
:1005D0000C3BA542F7D1074B9868FFF72FFF48B0B7
:1005E00080BCB846F0BDC0460C200020EC210020A5
:1005F00054200020902300200022FA4B191DD960BE
:100600001961F9491A719A605A610B6801330B60DC
:10061000012B03D1F54B1A6004325A60F44B1A686F
:10062000551C1D60012DDAD10023F24F00223B60E2
:100630007B60BB6000233A923B93012200233AACDB
:100640003C923D9321000132EB4838943992FFF7F8
:1006500081FEEA4B98462300424643CA43C343CA3D
:1006600043C303222100E64836943792FFF772FE17
:1006700043462200183343CB43C243CB43C2032239
:100680002100E04834943592FFF764FE434622008F
:10069000303343CB43C243CB43C203CB03C2042218
:1006A0002100D94832943392FFF754FE0023FB63B4
:1006B0003B647B64BB64FB643B6543462200503370
:1006C00043CB43C243CB43C203CB03C2042221002A
:1006D000CE4830943192FFF73DFE464622007036F8
:1006E0000BCE0BC20BCE0BC20ACE0AC204222100D3
:1006F000C7482E942F92FFF72DFEC64E38223100A8
:100700002000103109F0E4FD07222100C2482C949A
:100710002D92FFF71FFE310038224831200009F0EA
:10072000D7FD07222100BD482A942B92FFF712FE25
:10073000BB4B98462300424643CA43C343CA43C304
:1007400003222100B74828942992FFF703FE43466D
:100750002200183343CB43C243CB43C203CB03C273
:1007600004222100B04826942792FFF7F3FD434668
:100770002200383343CB43C243CB43C203CB03C233
:1007800004222100A94824942592FFF7E3FD434663
:100790002200583343CB43C243CB43C203CB03C2F3
:1007A00004222100A24822942392FFF7D3FD0123C3
:1007B00000225B423A923B93210001329D482094F3
:1007C0002192FFF7C7FD01230C225B423A923B9333
:1007D00021000B3A98481E941F92FFF7BBFD01239E
:1007E00065225B423A923B932100643A93481C9401
:1007F0001D92FFF7AFFD012371225B423A923B93BA
:100800002100703A8E481A941B92FFF7A3FD002333
:10081000E422BB500432BB500432BB500432BB5004
:100820000432BB5046460432BB50220078360BCE11
:100830000BC20BCE0BC20ACE0AC204222100814891
:1008400018941992FFF786FD22007F4B98461833C3
:1008500043CB43C243CB43C203CB03C20422210098
:100860007A4816941792FFF775FD434622003833F5
:1008700043CB43C243CB43C203CB03C20422210078
:10088000734814941592FFF765FD434622005833D0
:1008900043CB43C243CB43C203CB03C20422210058
:1008A0006C4812941392FFF755FD464622007836A5
:1008B0000BCE0BC20BCE0BC20ACE0AC20422210001
:1008C000654810941192FFF745FD2200634B98464E
:1008D000183343CB43C243CB43C243CB43C21B6811
:1008E0002100136005225E480E940F92FFF732FD3F
:1008F00043462200403343CB43C243CB43C243CBA6
:1009000043C243CB43C20622210056480C940D92A9
:10091000FFF720FD4646220070360BCE0BC20BCEF1
:100920000BC20ACE0AC2042221004F480A940B923D
:10093000FFF710FD22004D4B9846103343CB43C2C6
:1009400043CB43C203CB03C204222100484808948E
:100950000992FFF7FFFC43462200303343CB43C2EA
:1009600043CB43C203CB03C2042221004148069477
:100970000792FFF7EFFC43462200503343CB43C2BC
:1009800043CB43C2032221003B4804940592FFF766
:10099000E1FC4646220068360BCE0BC20BCE0BC2E2
:1009A0000BCE0BC23368210013600522334802943A
:1009B0000392FFF7CFFC2200314B103343CB43C2ED
:1009C00043CB43C2032221002E4800940192FFF73B
:1009D000C1FCCC2200235200BB500432BB50043275
:1009E000BB50FCE590230020042000204C20002078
:1009F0000C20002054200020602000209C87011043
:100A00006C2000207820002084200020A8200020D6
:100A1000B42000201C880110C0200020CC20002021
:100A20009C880110D8200020E4200020F020002025
:100A3000FC2000200821002014210020202100207B
:100A40002C210020502100201C8901105C21002055
:100A50006821002074210020802100209C89011041
:100A60008C21002098210020A42100201C8A011044
:100A7000B0210020BC210020C8210020D42100206A
:100A80009C8A0110E021002021252224651B163CB0
:100A90006C433C19BC4238D10DF0E8FBF5E7032567
:100AA000F3E70425F1E70225EFE70525EDE7092542
:100AB000EBE70A25E9E70B25E7E70C25E5E707253E
:100AC000E3E70825E1E70625DFE70D25DDE710254B
:100AD000DBE71725D9E71825D7E71925D5E71A2524
:100AE000D3E71B25D1E71E25CFE71F25CDE720251E
:100AF000CBE71325C9E71425C7E71525C5E7162554
:100B0000C3E71125C1E71225BFE70C3C2068A368A5
:100B1000191A0028BED00DF001FBBBE710B5040088
:100B200005F042FB024B20000833236010BDC04695
:100B3000F08A0110F0B5DE4657464E4645468B46D4
:100B40000221E0B59846531E8246894687B0032BA2
:100B500004D90139D31F89460B2B3DD853002A49AC
:100B60009B189B005D180020CB5800210290039138
:100B700000216A680491D41A9A4236D0234B9C42D1
:100B800036D820000EF022F90ACD04190290039005
:100B90000494994209D000225B1A84188D180832F7
:100BA000C0CDC0C49A42F8D1801843460390009348
:100BB00059464B46504602AA05F0AEFB0298002863
:100BC00003D00499091A0DF0A9FA07B0F0BCBB468E
:100BD000B246A946A046F0BD11000C2315398B4240
:100BE0009B41032119408946B8E700240020CBE748
:100BF0000EF09AFB02980499091A002801D00DF012
:100C00008DFA0DF033FBC04654200020F8FFFF7F23
:100C1000F8B5CE46474680B51F00089B04000D007E
:100C2000380005211600984608F0D4FE89460029B0
:100C300000DDC3E04346012229002000FFF77AFFD0
:100C40004346022229002000FFF774FF182F04DD1D
:100C5000701C182108F0BEFE0E00002E48D00C2E8D
:100C600046D0012E00D18CE00D2E00D189E0022E5D
:100C700000D1FFE00E2E00D1FCE0032E00D107E1F1
:100C80000F2E00D104E1042E00D1FAE0102E00D185
:100C9000F7E0052E00D109E1112E00D106E1062E64
:100CA00000D10AE1122E00D107E1072E00D10BE19D
:100CB000132E00D108E1082E00D10CE1142E00D132
:100CC00009E1092E00D10DE1152E00D10AE10A2E0D
:100CD00000D10EE1162E00D10BE10B2E01D0172E04
:100CE0000CD143461F2229002000FFF723FF05E017
:100CF0004346202229002000FFF71CFF7E1F132EF1
:100D000000D880E03B00233B042B10D93B00193B6B
:100D1000042B42D93B00283B122B3ED9042F42D84A
:100D20004346032229002000FFF704FF05E0434665
:100D30000C2229002000FFF7FDFE3B00143B042B92
:100D400000D890E03B00193B042B00D87EE03B002C
:100D50001E3B042B00D87FE03B00233B042B00D834
:100D600074E0053B042B00D87DE0053B042B00D844
:100D700095E03B00323B042B5BD9373F042F50D822
:100D800049E04346042F5BD8212229002000FFF7C9
:100D9000D1FE3B00193B042BBCD843460B22290053
:100DA0002000FFF7C7FE3B000F3B042BC5D843468E
:100DB0000A2229002000FFF7BDFE32E043460F2241
:100DC00029002000FFF7B6FE4B46012B00D131E78A
:100DD0004346102229002000FFF7ACFE4B46022BB1
:100DE00000D127E74346112229002000FFF7A2FE89
:100DF0004B46042B00D01DE7434612222900200059
:100E0000FFF798FE16E743460C2229002000FFF763
:100E100091FE042E09D84346072229002000FFF73F
:100E200089FEC0BCB946B046F8BD3B000A3B042B66
:100E3000B9D84346082229002000FFF77BFEF0E7DF
:100E4000152229002000FFF775FE57E743460722C9
:100E500029002000FFF76EFE43460D2229002000E6
:100E6000FFF768FEDDE74346092229002000FFF76F
:100E700061FED6E74346162229002000FFF75AFEFE
:100E80003CE74346182229002000FFF753FE35E7D0
:100E90004346172229002000FFF74CFE2EE7434669
:100EA0000E2229002000FFF745FE80E74346192265
:100EB00029002000FFF73EFE20E743461A222900C2
:100EC0002000FFF737FE19E743461B2229002000C8
:100ED000FFF730FE12E743461C2229002000FFF7EF
:100EE00029FE0BE743461D2229002000FFF722FEC2
:100EF00004E743461E2229002000FFF71BFEFDE603
:100F000010B50120FFF746FB10BDC04610B5040028
:100F1000034B0833036005F03DF9200010BDC046C7
:100F2000188E011010B50400054B0833036005F05E
:100F300031F9200004210DF0F1F8200010BDC04669
:100F4000188E01100023F0B5036043608360154BD9
:100F500004000E0083B0D5009D4216D8002D0ED09F
:100F600028000DF033FF47192060A760002D0AD03C
:100F70002A00310009F0ACF9676003B0F0BD00272A
:100F800005608560F8E70700F6E707480EF0F4F91A
:100F90002068A168091A002801D00DF0BFF80DF0F3
:100FA00065F9C046F8FFFF7F68870110F0B5C646B7
:100FB000040000B5002825D01A4B1B4F9846260088
:100FC000E068FFF7F3FFB569A468002D14D06B68E3
:100FD000013B6B60002B0FD12B689B68BB4214D187
:100FE000AB68013BAB60002B06D12B68DA68424549
:100FF0000ED128005B6898471C2130000DF08EF858
:10100000002CDCD180BCB846F0BD28009847E7E74B
:10101000280090471C2130000DF080F8002CCED124
:10102000F0E7C046110300100D030010F0B5DE46D6
:1010300057464E464546E0B5834685B0002800D168
:1010400099E05B46DB680193002B00D186E0019BB1
:10105000DB689946002B72D04B46DB689A46002B22
:1010600060D05346DC68002C42D0E668002E27D0C2
:10107000F3689846002B2FD04346DD68002D44D0FE
:10108000EF68002F10D0F868FFF7D0FF3B00DA6957
:10109000BF68100002930392FFF788FF2C2102988B
:1010A0000DF03CF8002FEED1AF68E869FFF77EFF46
:1010B0002C2128000DF032F8002F26D03D00DFE76C
:1010C000A568E069FFF772FF2C2120000DF026F8DB
:1010D000002D0DD02C00C8E7B568F069FFF766FF5A
:1010E0002C2130000DF01AF8002DE9D02E00BFE7BA
:1010F00053469C68D869FFF759FF2C2150460DF0E4
:101100000DF8002C0ED0A246ABE743469D68D86987
:10111000FFF74CFF2C2140460DF000F8002DDBD0EE
:10112000A846A9E74B469C68D869FFF73FFF2C21EA
:1011300048460CF0F3FF002C01D0A1468CE7019D3E
:10114000EB69AC6818000193FFF730FF2C212800F1
:101150000CF0E4FF002C01D0019478E75B469C681A
:10116000D869FFF723FF2C2158460CF0D7FF002C3D
:1011700001D0A34665E705B0F0BCBB46B246A94620
:10118000A046F0BDF0B5C64600B5C6B001282BD0CC
:10119000114A1368013B1360002B14D10F4C104D02
:1011A000206800280BD0A368191A0CF0B7FF2300A1
:1011B0000C3BA54207D01C0020680028F3D1230077
:1011C0000C3BA542F7D1074B9868FFF72FFF46B0BD
:1011D00080BCB846F0BDC04610200020842300200B
:1011E000F8210020A82300200022F94B191DD96006
:1011F0001961F8491A719A605A610B6801330B60E2
:10120000012B03D1F44B1A6004325A60F34B1A6875
:10121000551C1D60012DDAD10023F14F00223B60E7
:101220007B60BB600023389239930122002338ACE5
:101230003A923B9321000132EA4836943792FFF705
:1012400081FEE94B98462300424643CA43C31268D5
:1012500021001A600222E54834943592FFF772FEAD
:1012600043462200103343CB43C243CB43C243CB5C
:1012700043C243CB43C206222100DD48329433925D
:10128000FFF760FE002341463822403120003B63D7
:101290007B63BB63FB633B647B6409F019F8072243
:1012A0002100D44830943192FFF74CFE464622008C
:1012B00078360BCE0BC20BCE0BC20BCE0BC20BCEB5
:1012C0000BC206222100CC482E942F92FFF73AFE43
:1012D0002200CA4B9846283343CB43C243CB43C278
:1012E00003CB03C204222100C5482C942D92FFF7A2
:1012F00029FE43462200483343CB43C243CB43C27B
:1013000003222100BF482A942B92FFF71BFE43467D
:101310002200603343CB43C21B68210013600222CA
:10132000B94828942992FFF70DFE464622007036F0
:101330000BCE0BC20BCE0BC20ACE0AC20422210076
:10134000B24826942792FFF7FDFD2200B04B984645
:10135000103343CB43C243CB43C203CB03C204226B
:101360002100AC4824942592FFF7ECFD01230022D4
:101370005B423892399321000132A748229423928C
:10138000FFF7E0FD01230C225B42389239932100E4
:101390000B3AA24820942192FFF7D4FD0123652245
:1013A0005B42389239932100643A9D481E941F9203
:1013B000FFF7C8FD012371225B4238923993210067
:1013C000703A98481C941D92FFF7BCFD0023CC2274
:1013D000BB500432BB500432BB500432BB50043209
:1013E000BB500432BB5043462200303343CB43C290
:1013F00043CB43C203CB03C2042221008A481A9480
:101400001B92FFF79FFD43462200503343CB43C25C
:1014100043CB43C203222100844818941992FFF75A
:1014200091FD4646220068360BCE0BC20BCE0BC296
:10143000032221007E4816941792FFF783FD7D4B0F
:1014400098462300424643CA43C343CA43C343CAE0
:1014500043C3126821001A6005227748149415923C
:10146000FFF770FD43462200283343CB43C243CBF2
:1014700043C203CB03C2042221007048129413928A
:10148000FFF760FD43462200483343CB43C243CBC2
:1014900043C203CB03C20422210069481094119275
:1014A000FFF750FD4646220068360BCE0BC20BCE2E
:1014B0000BC20322210063480E940F92FFF742FDF6
:1014C000614B98462300424643CA43C343CA43C3C1
:1014D00043CA43C3126821001A6005225B480C947A
:1014E0000D92FFF72FFD43462200283343CB43C222
:1014F00043CB43C243CB43C243CB43C2062221006A
:1015000053480A940B92FFF71DFD464622005836B9
:101510000BCE0BC20BCE0BC20BCE0BC2336821001D
:10152000136005224B4808940992FFF70BFD4A4BC4
:1015300098462300424643CA43C343CA43C343CAEF
:1015400043C343CA43C3062221004448069407927A
:10155000FFF7F8FC43462200303343CB43C243CB72
:1015600043C2032221003E4804940592FFF7EAFC9F
:1015700043462200483343CB43C21B68210013601B
:101580000222384802940392FFF7DCFC464623000F
:10159000583607CE07C3326821001A60022232484B
:1015A00000940192FFF7CEFCC62200235200BB50EC
:1015B0000432BB500432BB5009E620252124651BB0
:1015C000153C6C433C19BC4264D10CF04FFEF5E76E
:1015D000A8230020042000204C2000201020002000
:1015E000F821002004220020048B0110102200208A
:1015F0001C220020402200204C220020848B01105D
:101600005822002064220020702200207C2200202A
:10161000048C01108822002094220020A0220020A7
:10162000AC220020B8220020DC220020E82200208A
:10163000F4220020848C0110002300200C230020C1
:101640001823002024230020048D011030230020C3
:101650003C23002048230020848D011054230020C7
:10166000602300206C230020782300200225A5E7BA
:101670000325A3E70425A1E705259FE708259DE7A6
:1016800009259BE70A2599E70B2597E7062595E7A6
:10169000072593E70C3C2068A368191A002892D00C
:1016A0000CF03CFD8FE70C2588E70D2586E70E251D
:1016B00084E7112582E7122580E713257EE71425AC
:1016C0007CE715257AE7162578E7172576E71825AC
:1016D00074E7192572E71A2570E71B256EE71E25AA
:1016E0006CE71F256AE7C04610B5040004F05CFDF6
:1016F000024B20000833236010BDC046188E011035
:10170000F0B5DE4657464E4645468B460221E0B5CB
:101710009846531E8246894687B0022B04D9013968
:10172000931F89460A2B3DD853002A499B189B00DA
:101730005D180020CB5800210290039100216A68B7
:101740000491D41A9A4236D0234B9C4236D82000BA
:101750000DF03CFB0ACD04190290039004949942C9
:1017600009D000225B1A84188D180832C0CDC0C47D
:101770009A42F8D1801843460390009359464B464D
:10178000504602AA04F0C8FD0298002803D004992C
:10179000091A0CF0C3FC07B0F0BCBB46B246A94620
:1017A000A046F0BD11000D2313398B429B4103214C
:1017B00019408946B8E700240020CBE70DF0B4FDBE
:1017C00002980499091A002801D00CF0A7FC0CF02B
:1017D0004DFDC046F8210020F8FFFF7FF8B5CE464A
:1017E000474680B51F00089B04000D003800052106
:1017F0001600984608F0EEF88946002900DDC9E099
:101800004346012229002000FFF77AFF43460222C7
:1018100029002000FFF774FF43460C2E31DD202203
:1018200029002000FFF76CFF182F32DD701C1821F3
:1018300008F0D0F80E00002E02D00C2E00D0E0E010
:1018400043461D2229002000FFF75AFF7E1F132E5A
:1018500000D88DE03B00233B042B57D93B00193BBC
:10186000042B00D8BBE03B00283B122B00D8B6E08D
:10187000042F51D84346032229002000FFF740FFE0
:101880004AE01F2229002000FFF73AFF182FCDDC85
:10189000D1E70D2E62D00E2E00D1B8E00F2E00D170
:1018A000E1E0042E00D1E5E0102E00D1E2E0052EAB
:1018B00000D1E6E0112E00D1E3E0062E00D1E7E0F2
:1018C000122E00D1E4E0072E00D1E8E0132E00D163
:1018D000E5E0082E00D1E9E0142E00D1E6E0092E63
:1018E00000D1EAE0152E00D1E7E00A2E00D1EBE0AE
:1018F000162E00D1E8E00B2E01D0172EA6D14346BC
:101900001B2229002000FFF7FBFE9FE743460C2225
:1019100029002000FFF7F4FE3B00143B042B00D805
:1019200089E03B00193B042B00D877E03B001E3BCD
:10193000042B00D88BE0053B042B00D86EE0053B60
:10194000042B00D877E0053B042B00D87FE0053B53
:10195000042B4FD9373F042F18D811E043461422E7
:10196000290020007E1FFFF7CBFE132E00D971E760
:1019700043460C2229002000FFF7C2FE042E35D872
:101980004346082229002000FFF7BAFEC0BCB94632
:10199000B046F8BD43460D2229002000FFF7B0FEF7
:1019A0004B46012B00D12BE743460E222900200095
:1019B000FFF7A6FE4B46022B00D121E743460F223C
:1019C00029002000FFF79CFE4B46042B00D017E7B0
:1019D0004346102229002000FFF792FE10E74346FD
:1019E0000A2229002000FFF78BFE95E73B000A3B07
:1019F000042B27D84346092229002000FFF780FE48
:101A0000C4E7012EAAD00D2EA8D0022E26D143461F
:101A1000192229002000FFF773FE17E7434629002B
:101A200020000822FFF76CFE43460B22290020000D
:101A3000FFF766FEAAE74346072229002000FFF7CA
:101A40005FFEA3E73B000F3B042B00D964E743464E
:101A5000062229002000FFF753FE97E70E2ED6D06E
:101A6000032E00D01AE74346162229002000FFF774
:101A700047FEEBE64346172229002000FFF740FE11
:101A8000E4E64346182229002000FFF739FEDDE690
:101A90004346152229002000FFF732FED6E64346D2
:101AA0001C2229002000FFF72BFECFE643461A2216
:101AB00029002000FFF724FEC8E643461322290030
:101AC0002000FFF71DFEC1E643461E22290020002C
:101AD000FFF716FEBAE6C04610B50120FFF752FB2D
:101AE00010BDC04610B50400034B0833036004F07A
:101AF00051FB200010BDC0465890011010B50400E5
:101B0000054B0833036004F045FB200004210CF072
:101B100005FB200010BDC04658900110F0B5C64628
:101B2000040000B5002825D01A4B1B4F984626000C
:101B3000E068FFF7F3FFB569A468002D14D06B6867
:101B4000013B6B60002B0FD12B689B68BB4214D10B
:101B5000AB68013BAB60002B06D12B68DA684245CD
:101B60000ED128005B6898471C2130000CF0D6FA93
:101B7000002CDCD180BCB846F0BD28009847E7E7D0
:101B8000280090471C2130000CF0C8FA002CCED160
:101B9000F0E7C046110300100D030010F0B5DE465B
:101BA00057464E464546E0B5834685B0002800D1ED
:101BB00099E05B46DB680193002B00D186E0019B36
:101BC000DB689946002B72D04B46DB689A46002BA7
:101BD00060D05346DC68002C42D0E668002E27D047
:101BE000F3689846002B2FD04346DD68002D44D083
:101BF000EF68002F10D0F868FFF7D0FF3B00DA69DC
:101C0000BF68100002930392FFF788FF2C2102980F
:101C10000CF084FA002FEED1AF68E869FFF77EFF81
:101C20002C2128000CF07AFA002F26D03D00DFE7A7
:101C3000A568E069FFF772FF2C2120000CF06EFA16
:101C4000002D0DD02C00C8E7B568F069FFF766FFDE
:101C50002C2130000CF062FA002DE9D02E00BFE7F5
:101C600053469C68D869FFF759FF2C2150460CF069
:101C700055FA002C0ED0A246ABE743469D68D869C2
:101C8000FFF74CFF2C2140460CF048FA002DDBD02A
:101C9000A846A9E74B469C68D869FFF73FFF2C216F
:101CA00048460CF03BFA002C01D0A1468CE7019D80
:101CB000EB69AC6818000193FFF730FF2C21280076
:101CC0000CF02CFA002C01D0019478E75B469C685C
:101CD000D869FFF723FF2C2158460CF01FFA002C7F
:101CE00001D0A34665E705B0F0BCBB46B246A946A5
:101CF000A046F0BD10B5040004F056FA024B2000D7
:101D00000833236010BDC04658900110F0B5DE4680
:101D100057464E4645468B460221E0B59846531E2F
:101D20008246894687B0032B04D90139D31F8946DF
:101D3000072B3DD853002A499B189B005D180020B3
:101D4000CB5800210290039100216A680491D41AB3
:101D50009A4236D0234B9C4236D820000DF036F8FC
:101D60000ACD0419029003900494994209D00022EC
:101D70005B1A84188D180832C0CDC0C49A42F8D1BD
:101D8000801843460390009359464B46504602AA9A
:101D900004F0C2FA0298002803D00499091A0CF042
:101DA000BDF907B0F0BCBB46B246A946A046F0BD9F
:101DB0001100072311398B429B41032119408946A9
:101DC000B8E700240020CBE70DF0AEFA02980499A2
:101DD000091A002801D00CF0A1F90CF047FAC0460E
:101DE000F8C30110F8FFFF7F0023F0B503604360E4
:101DF0008360154B04000E0083B0D5009D4217D8B8
:101E0000002D0FD028000CF0E1FF47192060A760DB
:101E1000002D0BD02A00310008F05AFA200067602C
:101E200003B0F0BD002705608560F7E70700F5E720
:101E300006480DF0A1FA2068A168091A002801D00F
:101E40000CF06CF90CF012FAF8FFFF7F68870110B4
:101E5000F0B5C64600B5B2B0012822D0E44A1368F6
:101E6000013B1360002B14D1E24CE34D20680028A5
:101E70000BD0A368191A0CF051F923000C3BA542B2
:101E800007D01C0020680028F3D123000C3BA5429A
:101E9000F7D1DA4B9868FFF781FE32B080BCB846C4
:101EA000F0BD0022D54B191DD9601961D4491A71B2
:101EB0009A605A610B6801330B60012B03D1D14B3F
:101EC0001A6004325A60CA4B1A68551C1D60012DF5
:101ED000E3D10023C84F00223B607B60BB6001233D
:101EE0002AAC5B422A922B9321002A00C64826ABDB
:101EF00028942995FFF778FF01230C225B422A9250
:101F00002B9321000B3AC14824AB26942792FFF76C
:101F10006BFF012365225B422A922B932100643AD6
:101F2000BB4822AB24942592FFF75EFF0123712268
:101F30005B422A922B932100703AB64820AB229440
:101F40002392FFF751FF0023FB633B647B64BB6478
:101F5000FB643B65B04B98462300424643CA43C3EB
:101F600043CA43C303CA03C304222100AB481EABC8
:101F700020942192FFF738FF43462200203343CBC1
:101F800043C243CB43C203CB03C204222100A44873
:101F90001CAB1E941F92FFF727FF434622004033DD
:101FA00043CB43C243CB43C203CB03C20422210031
:101FB0009C481AAB1C941D92FFF716FF4646220060
:101FC00060360BCE0BC20BCE0BC20ACE0AC2042265
:101FD0002100954818AB1A941B92FFF705FF934B0D
:101FE00098462300424643CA43C343CA43C303CA75
:101FF00003C3042221008E4816AB18941992FFF7F0
:10200000F3FE43462200203343CB43C243CB43C2BB
:1020100003CB03C204222100864814AB1694179206
:10202000FFF7E2FE43462200403343CB43C243CB9B
:1020300043C203CB03C2042221007F4812AB149495
:102040001592FFF7D1FE4646220060360BCE0BC23A
:102050000BCE0BC20ACE0AC204222100774810AB75
:1020600012941392FFF7C0FE0023B422BB50043237
:10207000BB500432BB500432BB500432BB5004325C
:10208000BB506F4B98462300424643CA43C343CAE2
:1020900043C303CA03C3042221006A480EAB109451
:1020A0001192FFF7A1FE43462200203343CB43C2E7
:1020B00043CB43C203CB03C20422210062480CABD2
:1020C0000E940F92FFF790FE43462200403343CB1D
:1020D00043C243CB43C203CB03C2042221005B486B
:1020E0000AAB0C940D92FFF77FFE46462200603645
:1020F0000BCE0BC20BCE0BC20ACE0AC204222100A9
:10210000534808AB0A940B92FFF76EFE514B98466A
:102110002300424643CA43C343CA43C303CA03C35B
:10212000042221004C4806AB08940992FFF75CFE9C
:1021300043462200203343CB43C243CB43C203CBAD
:1021400003C204222100454804AB06940792FFF71E
:102150004BFE43462200403343CB43C243CB43C2F2
:1021600003CB03C2042221003D4802AB0494059234
:10217000FFF73AFE4646220060360BCE0BC20BCE6E
:102180000BC20ACE0AC204222100364801AB0294D7
:102190000392FFF729FE962200235200BB5004321F
:1021A000BB500432BB5078E618251924651B0D3C42
:1021B0006C433C19BC4263D10CF058F8F5E702259A
:1021C000F3E70325F1E70425EFE70525EDE70E2505
:1021D000EBE70F25E9E71025E7E71125E5E71225ED
:1021E000E3E71525E1E71625DFE71725DDE7C0461C
:1021F0000820002024C50110F8C30110C0230020CE
:10220000042000204C20002004C4011010C4011040
:102210001CC4011028C401102C8E01104CC40110E4
:1022200058C4011064C4011070C40110AC8E0110B8
:102230007CC4011088C4011094C40110A0C4011012
:102240002C8F0110C4C40110D0C40110DCC40110D3
:10225000E8C40110AC8F0110F4C4011000C50110D6
:102260000CC5011018C5011008259EE70B259CE739
:102270000C259AE70D2598E7062596E7072594E7AC
:102280000C3C2068A368191A002893D00BF046FF75
:1022900090E7C04670B50400006800280CD02369A0
:1022A000191A0BF03BFF002223002100A260E2601C
:1022B000083321CB21C1226170BDC046F0B5C646AE
:1022C00000B594B01A9E04000D00170098460A2E1F
:1022D00000DD71E04146684600F0A0FC0A2140465E
:1022E00007F078FB010005A800F098FC39000AA867
:1022F00000F094FC0A21380007F06CFB01000FA8E5
:1023000000F08CFC009B1B68DA0700D5ECE09A0714
:1023100000D5E0E05A0700D5D4E01B0700D5CAE09D
:10232000059B1B68DA0700D5BCE09A0700D5B0E032
:102330005A0700D5A4E01B0700D59AE00A9B1B684A
:10234000DA0700D58CE09A0700D580E05A0700D55F
:1023500074E01B076BD40F980368DA075ED49A0702
:1023600053D45A0748D41B0721D53300182229001B
:102370002000FFF7CBFC0F98002818D10A980028FE
:1023800003D00E99091A0BF0C9FE0598002803D056
:102390000999091A0BF0C2FE0098002803D004998D
:1023A000091A0BF0BBFE14B080BCB846F0BD1399FF
:1023B000091A0BF0B3FEE1E733000122FFF7A6FC98
:1023C000192E00DC86E73300022229002000FFF7E7
:1023D0009DFC282E00DC7DE733000322290020002D
:1023E000FFF794FC372E00DC74E733000422290049
:1023F0002000FFF78BFC6DE7330017222900200037
:10240000FFF784FC0F980368ADE73300162229001C
:102410002000FFF77BFC0F980368A2E7330015222A
:1024200029002000FFF772FC0F98036897E733003C
:10243000142229002000FFF769FC8CE733001322E7
:1024400029002000FFF762FC0A9B1B6881E733002C
:10245000122229002000FFF759FC0A9B1B6875E730
:102460003300112229002000FFF750FC0A9B1B6853
:1024700069E733000E2229002000FFF747FC5DE7E3
:1024800033000D2229002000FFF740FC059B1B684C
:1024900051E733000C2229002000FFF737FC059B91
:1024A0001B6845E733000B2229002000FFF72EFCB4
:1024B000059B1B6839E733000A2229002000FFF73B
:1024C00025FC2DE73300092229002000FFF71EFC20
:1024D000009B1B6821E73300082229002000FFF73A
:1024E00015FC009B1B6815E733000722290020001C
:1024F000FFF70CFC009B1B6809E70FA8FFF7CAFE5B
:102500000AA8FFF7C7FE05A8FFF7C4FE6846FFF755
:10251000C1FE0BF0ABFEF3E7F5E7F7E710B50120DE
:10252000FFF796FC10BDC04610B50400034B0833FE
:10253000036003F02FFE200010BDC04694900110F0
:1025400010B50400054B0833036003F023FE2000A0
:1025500004210BF0E3FD200010BDC0469490011053
:10256000F0B5DE464E4657464546E0B58BB0039380
:10257000149B8346894602920A2B00DD7DE0029B74
:10258000002B35D0002300269A469846002706AC3B
:1025900004AD534608202E606B6027606760A7601B
:1025A0000CF014FC030008339C462A00A360206052
:1025B0000ACA0AC063466360149B2200009349461E
:1025C0000023584603F0A8FE2068002803D0A36823
:1025D000191A0BF0A3FD01360A2E03DD01239C46D8
:1025E0000026E24401239C46029BE0449845D0D15A
:1025F000039B002B3AD0002300279846093300267E
:102600009A4606AC04AD0297424653469B1A6B604D
:102610000022002306920793002308202E60A36067
:102620000CF0D4FB03002A000833A360206082CAA8
:1026300082C06360149B22000093494601235846E0
:1026400003F06AFE2068002803D0A368191A0BF073
:1026500065FD01360A2E03DD01239C460026E04479
:10266000029A039B013202929A42CDD10BB0F0BC88
:10267000BB46B246A946A046F0BD012300225B42FC
:10268000049205930023002206920793002308205A
:1026900006ACA3600CF09AFB030004AD2A000833DB
:1026A0000690A36042CA42C06360149B49460093EF
:1026B0005846022303F030FE0698002803D0A36892
:1026C000191A0BF02BFD149B192B00DC57E7012383
:1026D0000C225B420492059300230022069207938A
:1026E00000230820A3600CF071FB03002A000833CC
:1026F0000690A36042CA42C06360149B220000930C
:1027000049460223584603F007FE0698002803D0E6
:10271000A368191A0BF002FD149B282B00DC2EE78E
:10272000012365225B420492059300230022069256
:10273000079300230820A3600CF048FB03002A0045
:1027400008330690A36042CA42C06360149B220013
:10275000009349460223584603F0DEFD0698002800
:1027600003D0A368191A0BF0D9FC149B372B00DC9B
:1027700005E7012371225B420492059300230022A6
:102780000692079300230820A3600CF01FFB0300B0
:1027900008330690A36006CD06C06360149B220038
:1027A000009349460223584603F0B6FD06980028D8
:1027B00000D1E4E6A168091A0BF0B0FCDFE6069848
:1027C000A168091A002801D00BF0A8FC0BF04EFDFF
:1027D000F5E7F4E7F3E7F2E7F1E7F0E7EFE7EEE735
:1027E000EDE7ECE7EBE7C04610B5040003F0DCFCD6
:1027F000024B20000833236010BDC04694900110A6
:102800000022094B191DD960196108491A719A6093
:102810005A610B6801330B60012B03D1044B1A6022
:1028200004325A607047C046D8230020042000209C
:102830004C20002030B5436889B0002B01D109B08D
:1028400030BD002200230492059300233A4904AAD4
:10285000069300F059FC059D049C2B1B302B29D9B5
:10286000206814F00FF8059B049A019345B29B1A57
:10287000182B41D9906914F005F8059B049A01932F
:1028800044B29B1A302B30D9106B13F0FBFF2B4B4B
:1028900002AA13802A4BD0715380002310001371B9
:1028A000557194710AF0A4FD4020002104F0E8FD68
:1028B000049C059DAC420CD023002068083398424C
:1028C0000FD0A3681834591C0BF028FCAC42F3D18C
:1028D000049D002DB3D006992800491B0BF01EFC67
:1028E000ADE71834AC42E7D1F2E7164ADB1002211B
:1028F0005A4315480CF058FD124ADB1001215A4387
:1029000011480CF051FD049C059DA54208D1049886
:102910000699091A002801D00BF000FC0BF0A6FC68
:10292000230020680833984203D0A368591C0BF099
:10293000F5FB1834E9E7C046E0B80110E4070000F1
:1029400006050000ABAAAAAAA890011010B50AF0CB
:1029500033FD10BD10B504000AF0A0FD200010BD2D
:1029600010B51C00431A0298511A001B584307F077
:1029700031F8001910BDC046F0B557464E46DE4648
:102980004546E0B587B00293836881469C4603695B
:102990008A460491059201929C4500D171E0C3687A
:1029A000591C9B461F231C008846CA1714404444E8
:1029B000D20E039164118918A4000B4064449B1A41
:1029C0005CD462465146551A5A460199ED00521A96
:1029D000AD1867465E468846002D14DD002E33D0C4
:1029E0000121013EB140002B34D00122013B9A402D
:1029F0003868084220D02168013D0A432260002D3A
:102A0000ECD1434601930123019A9340029A002A94
:102A100025D1524612689A431300524613605B4612
:102A20001F2B24D04B46039ADA6007B0F0BCBB469C
:102A3000B246A946A046F0BD2168013D9143216000
:102A4000002DDED0002ECBD180211F26043F0906A9
:102A5000002BCAD180221F23043C1206C8E752462D
:102A600012681343524613605B461F2BDAD10023D2
:102A70004A46D360634604339360D6E72033043C70
:102A80009FE762460368D31AC268DB009446604A37
:102A90006344934200D1B7E00122002B00D0A2E0B2
:102AA0005B4B9A4200D91A001F325209930018005A
:102AB00003930CF08BF94B461E68534683469C1BD0
:102AC000B24503D02200310015F03EFE22000198ED
:102AD0005A44011E00DC92E055460023012780463F
:102AE0000DE01468204310601F2B13D0581C9C1C51
:102AF0003B00834001399C460300002913D0380075
:102B000098402C680442ECD1146884432000106083
:102B10001F2BEBD1012301399C46012400230435EE
:102B200004320029EBD14146150001911F2B01D140
:102B30000024151D029B002B5DD0634611680B43DA
:102B400013604B4652469B6801989A1A4B46DB68C5
:102B5000D2001B1AD218002A28DDB446012156469D
:102B60000CE047462B681F432F601F2814D001300C
:102B70001F2C15D0013A0134002A16D00F000B008B
:102B8000A7408340B84637681F42EAD143462F68C2
:102B90009F432F601F28EAD1002004361F2CE9D163
:102BA000013A00240435002AE8D16646002E0DD0F3
:102BB0004B461B693000991B0BF0B0FA00234A46C4
:102BC0009360D3604B46083303CB03C24A46039B52
:102BD0005B4413614B465A461A604A46002395608F
:102BE0005360D46021E75A00934200D858E7094B5C
:102BF000180003935DE7614613688B43A0E7012348
:102C000015009C46012495E703480CF0B5FBC0462F
:102C1000E0FFFF7FFCFFFF0FF4900110F0B5DE46F0
:102C200057464E4645460023E0B503604360836047
:102C3000C360036108339A4683B0EB4682445E4624
:102C400053460D0006CB06C601235A4600215268A2
:102C50002B400400FFF790FEEB0FA2685B1921697F
:102C60009B071700DB0F8A4200D114E1E068804621
:102C70001F2800D1F8E00130E06001204646B04056
:102C8000002B00D0A4E03B6883433B60EB179846E1
:102C90000323464633405B195B071000DB0F8A4273
:102CA00000D1EBE0E668B1461F2E00D1C3E001265B
:102CB0004E44E66001264F46BE40002B00D0B5E0F2
:102CC0000368B34303600723464633405B191B0781
:102CD0001000DB0F8A4200D111E1E668B1461F2ED9
:102CE00000D1BCE001264E44E66001264F46BE40BE
:102CF000002B00D095E00368B34303600F234646E2
:102D000033405B19DB061000DB0F8A4200D1E9E09B
:102D1000E668B1461F2E00D19CE001264E44E660D5
:102D200001264F46BE40002B00D075E00368B34338
:102D300003601F23464633405B199B061000DB0FE0
:102D40008A4200D1C1E0E668B1461F2E00D17CE086
:102D500001264E44E66001264F46BE40002B56D168
:102D60000368B34303603F23464633405B195B0669
:102D70001000DB0F8A4200D19AE0E668B1461F2EB0
:102D80005ED001264E44E66001264F46BE40002B31
:102D900026D10368B34303607F23404603405B1999
:102DA0001B06DB0F8A4227D0E0681F2861D0411C38
:102DB000E16001218140002B0ED01368194311609E
:102DC000200003B0F0BCBB46B246A946A046F0BD09
:102DD0003B681843386059E713688B431360EFE78B
:102DE00033000668334303607F23404603405B198A
:102DF0001B06DB0F8A42D7D15E46524603CA03C682
:102E00005A46200000995268FFF7B6FDD8E7330014
:102E1000066833430360A6E7330006683343036064
:102E200087E7330006683343036067E733000668CB
:102E30003343036047E700260432E660A26039E7C7
:102E400000260432E660A2609EE700260432E660B7
:102E5000A26080E700260432E660A26060E70026F8
:102E60000432E660A26040E700200432E060A26025
:102E700003E70021E160111DA1609AE75E4652461A
:102E800003CA03C65A46200000995268FFF774FD32
:102E9000A268216917E75E46524603CA03C65A462E
:102EA000390020005268FFF767FDA2682169EDE64E
:102EB0005E46524603CA03C65A462000009952682D
:102EC000FFF75AFDA268216966E75E46524603CACB
:102ED00003C65A46200000995268FFF74DFDA268CC
:102EE000216940E75E46524603CA03C65A4620009F
:102EF00000995268FFF740FDA268216919E75E4614
:102F0000524603CA03C65A46200000995268FFF78A
:102F100033FDA2682169F1E6206800280BD02369FF
:102F2000191A0BF0FBF8002322005146A360E3605E
:102F300021C921C223610BF099F9C0460368F0B59D
:102F40004E46994657464546DE4614004A46436873
:102F5000E0B50F00991AC9108A005218984613015B
:102F6000D2181302D2181304D3185B00624A5B18FC
:102F7000824683B0934200D1BBE00122002B03D0F4
:102F80005A00934200D9A9E04B46FD1A002A00D00E
:102F900093E01823009300239B4601935D4428008F
:102FA00026002368083008362860B34200D19BE031
:102FB0002B60A368AB60636826606B60002363606E
:102FC0002372B9452ED04E465C464D46083609E080
:102FD0002360AB681836A3606B68183563601834DB
:102FE000BD4210D02000083020602B68B342EFD1E2
:102FF0003100102207F06CF96B68183563601836E1
:103000001834BD42EED13B004A46183B9B1ADA0801
:103010003A4B5343DB00DB0802335A00D318DB0082
:103020005B440093B84530D03E003D00009C08361C
:1030300009E02360AB681836A3606B6818356360DD
:103040001834454510D020002B6808302060B3426A
:10305000EFD13100102207F03BF96B68183563603F
:10306000183618344545EED14346DF1B183F234B35
:10307000FF087B43DB00DB0801335A00D318009ABA
:10308000DB0094469C44634600934B46002B06D0DD
:1030900053464A469B684846991A0BF03FF85346F8
:1030A0005A461A60009A5A60019A9A6003B0F0BCBE
:1030B000BB46B246A946A046F0BD0F4B9A4211D876
:1030C0005600B618F60030000BF080FE3300834641
:1030D0005B44019318235B4400935FE74B46084E23
:1030E000FD1AF0E71A00EBE71022310007F0F0F8C4
:1030F00061E704480CF040F955555505ABAAAA0AFA
:10310000F8FFFF7F10910110F0B5C64600B50068CA
:103110008AB08846150014F005FC06AE071E23D1C0
:1031200053E0012855D13A7802A90A7432000021EF
:103130000593D1546C68AB689C4233D020000830B2
:103140002060049BB34249D02360069B0193A36097
:10315000059B636001936B6818336B6041460020E8
:1031600014F0E0FB071E30D03800049614F072FB18
:103170000400030003900F28D3D9002203A904A858
:103180000CF000FA039B049006932200390007F02C
:103190009FF80021039B049A0593D1546C68AB6897
:1031A0009C42CBD12100280004AAFFF7C7FE049857
:1031B000B042D3D0069B591C01930AF0AFFF4146A1
:1031C000002014F0AFFB071ECED10AB080BCB84679
:1031D000F0BD32000028AAD03000D6E7102231001E
:1031E00007F076F8B4E70498B04203D006990131AD
:1031F0000AF094FF0BF03AF810B504002300C06900
:103200002433984203D0636A591C0AF087FF2300D5
:1032100060680C33984203D0E368591C0AF07EFFC3
:10322000200010BDF0B50300454690460200574609
:103230004E46DE460C332432E0B54360C2610023C3
:1032400024228360037303628354A9B003700B6864
:103250000CAD040099464F680A95002B3ED022978A
:103260000F2F2BD8012F00D02EE128211B7802AA86
:10327000521813702A0000230B97D3550B9B002282
:1032800003935F23039900930AA85E3B0CF050FA66
:103290004346002B03D00B9B0393022B24D80A98A0
:1032A000A84203D00C9901310AF038FF200029B060
:1032B000F0BCBB46B246A946A046F0BD22AE0022F5
:1032C00031000AA80CF05EF9229B0A900C933A0098
:1032D000494606F0FDFF229F0A9ACCE72A00002FFC
:1032E000C9D0D8480CF030F800220023069207938A
:1032F0000023D54906AA0AA80893FFF705FF079BF4
:10330000069E0393991BC81083001B181A019B1873
:103310001A029B181A049A1852001218302900D861
:10332000A0E0002A00D148E112AB10939846336820
:1033300077689946002B00D10AE122970F2F00D918
:10334000B2E0012F00D017E140211B7802AA5218E9
:103350001370424600231197D355079B069A039397
:103360009B1A182B00D821E118AB99461693936944
:10337000D7699A46002B00D1F1E022970F2F00D990
:10338000C7E0012F00D0F1E058211B7802AA5218A3
:1033900013704A4600231797D355079B069A039349
:1033A0009B1A302B00D8FAE01EAB9A461C93136B85
:1033B000576B9B46002B00D1BBE022970F2F00D903
:1033C00097E0012F00D0DDE070211B7802AA52188F
:1033D0001370524622AE00231D97D35524AB9B4653
:1033E0002293109B119F0393002B00D1A9E0059716
:1033F0000F2F6FD8012F00D0CBE05A461B783372C5
:1034000000237760D355179B30001A001699039359
:103410000CF0ACFA2298584503D0B16801310AF09B
:103420007DFE0123201D237010A90CF0EDF8200073
:1034300016A91C300CF0E8F81C98504503D01E99D2
:1034400001310AF06BFE1698484503D018990131F6
:103450000AF064FE1098404508D0129901310AF034
:103460005DFE03E00A99794807F0DEF9069E079FA2
:10347000BE420CD0330030680833984210D0B36895
:103480001836591C0AF04AFEB742F3D1069F002FA6
:1034900000D104E708993800C91B0AF03FFEFEE698
:1034A0001836B742E6D1F1E722AE0022310010A86B
:1034B0000CF068F8229B109012933A00494606F0EF
:1034C00007FF229F109A45E72A00002F00D1D2E67D
:1034D0002800FCE60022300005A90CF053F8059BFB
:1034E0002290B3603A00039906F0F2FE059F229AFB
:1034F00086E722AE002231001CA80CF043F8229B84
:103500001C901E933A00594606F0E2FE229F1C9A38
:1035100061E722AE0022310016A80CF033F8229B9E
:10352000169018933A00514606F0D2FE229F169A42
:1035300030E7524622AE002F00D14CE741480BF055
:1035400003FF5A46002F00D15AE73E480BF0FCFE1D
:103550004246002F00D1FDE63A480BF0F5FE4A4600
:10356000002F00D116E737480BF0EEFE4A46002F39
:1035700000D10FE74846D5E74246002F00D1E9E6E3
:1035800040469AE7524622AE002F00D123E750462C
:10359000B8E75A46002F00D132E75846A2E72C4A36
:1035A000DB1002215A432B480BF0FEFE284ADB10A9
:1035B00001215A4327480BF0F7FE110025480BF074
:1035C000F3FE069E079FB74230D106980899091A64
:1035D000002801D00AF0A2FD0A98A84203D00C9955
:1035E00001310AF09BFD2000FFF706FE0AF03EFEC7
:1035F0001C98504503D01E9901310AF08FFD169892
:10360000484503D0189901310AF088FD10984045CB
:10361000D7D0129901310AF081FDD2E7229858459E
:10362000E6D0B16801310AF079FDE1E73300306896
:103630000833984203D0B368591C0AF06FFD18365E
:10364000C1E7E3E72C910110589101105C91011042
:10365000ABAAAAAAA8900110C5E7BDE7CFE7C0466C
:10366000F0B54E464546DE465746E0B597B005AB49
:103670009846039300238146102503AE554C3372C0
:1036800073606421534804F087FB071E29D0A369A7
:103690001D42FCD12768FFB20A2F49D073689B46B0
:1036A00001235B449A463368434518D0B26892457B
:1036B0000BD85A469F5453465146736000233268D4
:1036C0000120535403F0F4FEDBE7012300220093B2
:1036D0005946002330000BF0D1FF3368E9E70F2291
:1036E000E5E7242209AB187398544B4618704846F6
:1036F0000C305860143A0CA906F0EAFD48464B46D7
:1037000024309F60D861102212A906F0E1FD4B46DB
:103710001F620398404503D0B16801310AF0FEFCF6
:10372000484617B0F0BCBB46B246A946A046F0BD1D
:10373000294B2A48196807F077F8039F0BAD746886
:103740000995002F29D002940F2C17D8012C2AD1CB
:103750006A462C213B78521813702B0000220A94E1
:1037600048461A5509A90132FFF75CFD0998A8429D
:10377000CFD00B9901310AF0D1FCCAE7002202A98F
:1037800009A80BF0FFFE029B09900B932200390061
:1037900006F09EFD029C099BE0E72B00002CDDD08B
:1037A0000F480BF0D1FD2B00002CD7D02800EDE7FF
:1037B0000398404503D0B16801310AF0AFFC0AF02C
:1037C00055FD0998A842F3D00B9901310AF0A6FCE7
:1037D000EEE7C046004003403420002084910110F1
:1037E0002C910110962110B5094C8901200004F09C
:1037F00063FA0221002002F009FF0221012002F0F9
:1038000005FF1023E26A9343024A136010BDC046CD
:10381000004003402C500340F0B5DE4657464E466C
:103820004546E0B50768AFB00CAB06000D009B46FF
:1038300044680A93002F00D1F3E128940F2C00D99B
:10384000BAE1012C00D016E228213B7802AA5218D6
:1038500013705B4600220B941A550B9ACC4B0392C3
:103860009A4200D11EE2CB4B012219000AA89846C9
:103870000CF07CF86A6829680AA80CF077F8070051
:1038800012AB1093036808370400BB4200D1DBE1A0
:103890001093836812936368119300236360119AF5
:1038A0002372BB4B276003929A4200D1FDE10122B3
:1038B000414610A80CF05AF8070018AB16939A4628
:1038C000036808370400BB4200D1B7E11693836850
:1038D0001893636817930023276023723768636027
:1038E0001EAB74681C93002F00D194E128940F2C18
:1038F00000D981E1012C00D0C2E170213B7802AAFD
:10390000521813701EAB00221D941A551CA806CD28
:103910000CF02CF81D9C002C00D1A9E101211C9D6C
:103920009D4B9E4E2C192A78100058405B0801428E
:1039300001D073409BB2500858405B08014201D04F
:1039400073409BB2900858405B08014201D073401D
:103950009BB2D00858405B08014201D073409BB233
:10396000100958405B08014201D073409BB25009D6
:1039700058405B08014201D073409BB29009584007
:103980005B08014201D073409BB2D2095A405B08E8
:10399000114201D073409BB20135A542C3D1DC4333
:1039A00064BAA4B2092C00D862E1632C00D870E19B
:1039B000FA239B009C4200D268E1794B0426052142
:1039C0009C4200D868E124AB2D2222A822930BF060
:1039D000F7FD229B0393632C1BD99C46714B013E40
:1039E00098466F4B664499462000642106F01AF809
:1039F00020004D00642106F015F843465B195B7802
:103A00002700737043465B5D04003370023E4F45F0
:103A1000EAD8092C00D8DEE0624B64001A1952780B
:103A20001C5D0399039B4A701C70179C239A169B7C
:103A3000A018534500D1D9E01899884200D8D9E0A0
:103A4000229924ADA94200D110E1249DA84200D8BA
:103A5000EDE016A80BF08AFF06002AAF289703684E
:103A60000836040028ADB34200D1F9E028938368FA
:103A7000AB6063686B600023636023726A68444BC9
:103A800026609A4200D10AE10122280046490BF043
:103A90006DFF0822904606AE049603688044040039
:103AA000434500D1D6E00493836806936368059389
:103AB000434623600023237228986360B84203D0F2
:103AC000A96801310AF02AFB229824AB984203D05E
:103AD000249901310AF022FB1C981EAB984203D0B6
:103AE0001E9901310AF01AFB1698504503D0189917
:103AF00001310AF013FB109812AB984203D01299CF
:103B000001310AF00BFB0A98584503D00C9901319A
:103B10000AF004FB0499254806F086FE049807780D
:103B2000002F1BD0224B0D2100255D5F00239846FE
:103B30008C460400202241461E4B00291BD1BD4269
:103B400020D099690A42FCD11F60217801340D39D7
:103B50004F4279412778C9B2002FEED1B04203D04D
:103B6000069901310AF0DAFA2FB0F0BCBB46B24632
:103B7000A946A046F0BD99690A42E5D099690A4272
:103B8000F9D1E1E799690A42FCD161461960D8E7A9
:103B9000FFFFFF3F58910110FFFF00000884FFFF67
:103BA0000F270000B89101107CA50110B091011001
:103BB0002831002000400340002228A90AA80BF069
:103BC000E1FC289B0A900C932200390006F080FB50
:103BD000289C0A9B3EE6039B3034E4B21C70179C81
:103BE000239A169BA018534500D025E70F21884241
:103BF00000D925E722992CE7002228A91CA80BF060
:103C0000C1FC289B1C901E932200390006F060FB2B
:103C1000289C1C9B77E6002C00D174E643480BF0EF
:103C200093FB002C00D115E640480BF08DFB0022E1
:103C30000021009422A80BF0D5FD0DE710223900D9
:103C4000504606F045FB44E61022390012A806F063
:103C50003FFB20E641463000083206F039FB25E7FD
:103C600010223100380006F033FB02E70F25EDE6A5
:103C700000260121A7E6002C00D1EBE51800A3E700
:103C80001EAB002C00D13EE61800BDE70226032142
:103C900099E60126022196E6013E013993E6244881
:103CA0000BF06AFB22480BF067FB21480BF064FB2A
:103CB0002898B84203D0A96801310AF02FFA229857
:103CC00024AB984203D0249901310AF027FA1C98BA
:103CD0001EAB984203D01E9901310AF01FFA1698C4
:103CE000504503D0189901310AF018FA109812AB18
:103CF000984203D0129901310AF010FA0A985845F7
:103D000003D00C9901310AF009FA0AF0AFFAF5E78D
:103D1000F4E7D4E7DBE7E9E70498B042F5D0069989
:103D200001310AF0FBF9F0E7D1E7D8E72C91011057
:103D300098910110F0B5DE46454657464E46E0B52F
:103D4000B7B00391B82132AB0592309304AAA94BC6
:103D50005218138002233193002304AA023152180F
:103D60001370C30F9B46C317C5185D40092D00D8BB
:103D700069E2632D00D86CE2FA239B009D4200D2D9
:103D800075E29D4B9D4200D86BE29C4B2800984603
:103D90009B4B012499469B4B9B4F9A4608E0464516
:103DA00000D812E24E4500D811E2564500D826E26E
:103DB0009649060005F036FE23000434BE42EED8D4
:103DC00008AB06935B462D22191906A80BF0F8FBE9
:103DD000069B9C46E344632D1AD98D4E864BB04614
:103DE0009946023C5C442800642105F01BFE280033
:103DF0004F00642105F016FE4346DB195B782E0068
:103E000063704346DB5D05002370023C4E45EAD8F3
:103E1000092D00D9BEE13035EDB25B461D70079A21
:103E20007C4B04929A4200D123E27B4B0122190081
:103E300006A89A460BF09AFD05000EAB0C9303689A
:103E400008350400AB4200D1DFE10C9383680E9388
:103E500063680D93002363602372039B2560DA0F70
:103E60000392DA179D185540092D00D8E9E1632D1A
:103E700000D8F0E1FA239B009D4200D2EDE15E4BB9
:103E80009D4200D8EBE15D4B280098465C4B012435
:103E900099465C4B5C4F9B4608E0464500D892E152
:103EA0004E4500D895E15E4500D8A4E1574906008B
:103EB00005F0B8FD23000434BE42EED8039E14ABD7
:103EC0002D22311912A812930BF07AFB129B9C46FB
:103ED0006644B146632D1AD94D4E474BB0469B46BA
:103EE000023C4C442800642105F09CFD28004F0052
:103EF000642105F097FD4346DB195B782E00637063
:103F00004346DB5D05002370023C5E45EAD8092D7F
:103F100000D947E13035EDB24B461D700D9C139A28
:103F20000C9B0EA9A0188B4200D16AE10E99884221
:103F300000D844E1129914ADA94200D17DE1149D4D
:103F4000A84200D84EE10CA80BF010FD050018ABFC
:103F50009B461AAB18930493036808350400AB42E0
:103F600000D164E118935B4682689A605B466268A0
:103F70005A6000235A46636023725268254B2560BD
:103F80009A4200D178E10122514658460BF0EEFCEE
:103F9000050020AB1E93036808350400AB4200D136
:103FA0003FE11E938368209363681F93002363603F
:103FB0002372059B2560DA0F0392DA179D1855408E
:103FC000092D00D841E1632D00D840E1FA239B0080
:103FD0009D4200D247E1084B9D4200D845E1074B86
:103FE00028009846064B01249946064B064F9A46F0
:103FF0001DE0C046637400000F2700003F420F0021
:104000007F969800FFE0F5059F86010010270000CD
:10401000B8910110FFFFFF3FE0B80110464500D8FE
:10402000CFE04E4500D8E4E0564500D8E5E0B84979
:10403000060005F0F7FC23000434BE42EED8039ED0
:1040400026AB2D22311924A8994624930BF0B8FAF7
:10405000249B9C4666440396632D1BD9B446AD4B06
:10406000AD4E9A46B046023C64442800642105F0F7
:10407000D9FC28004F00642105F0D4FC4346DB192D
:104080005B782E0063704346DB5D05002370023CC5
:104090005645EAD8092D00D88CE09F4B6D005A197F
:1040A000527803995D5D4A70039B20A91D701F9C87
:1040B000259A1E9BA0188B4200D1A4E0209988422B
:1040C00000D87AE02499494500D1B8E0269DA8425D
:1040D00000D880E01EA80BF049FC07002CAE2A9601
:1040E0000368083704002AADBB4200D193E02A934D
:1040F0008368AB60636829006B600023276063609E
:10410000237230A8FFF788FB2A98B04203D0A96831
:1041100001310AF003F82498484503D0269901316B
:1041200009F0FCFF1E9820AB984203D02099013182
:1041300009F0F4FF1898049B984204D05B469968F4
:10414000013109F0EBFF129814AB984203D0149997
:10415000013109F0E3FF0C980EAB984203D00E99A1
:10416000013109F0DBFF069808AB984203D00899AB
:10417000013109F0D3FF309832AB984203D0329925
:10418000013109F0CBFF37B0F0BCBB46B246A946BF
:10419000A046F0BD5A46604E6D0073195B78755DA0
:1041A00053703AE64A465C4E6D0073195B78755D54
:1041B0005370B1E63035EDB276E724998AE712996B
:1041C000C1E65C1D3BE75C1D78E65C1DF8E59C1DC7
:1041D000F6E59C1D72E600220021009424A80BF055
:1041E00001FB7AE700220021009412A80BF0FAFAF2
:1041F000ACE69C1D23E7DC1D60E6DC1D1FE7DC1D33
:10420000DEE50F2193E60F2159E7102229000EA8C1
:1042100006F05EF81CE610223900300006F058F86F
:1042200068E71022290020A806F052F8BCE6102208
:104230002900049806F04CF898E60F2580E60F2533
:1042400045E701243AE60124BAE50124F7E6022411
:10425000F5E60224B4E5022430E603242EE6042425
:104260002CE60424ACE50324E9E60424E7E6032471
:10427000A6E52A480BF080F828480BF07DF8069850
:1042800008AB984203D00899013109F047FF3098F4
:1042900032AB984203D03299013109F03FFF09F067
:1042A000E5FF2A98B04203D0A968013109F036FF32
:1042B0002498484503D02699013109F02FFF1E9814
:1042C00020AB984203D02099013109F027FF1898BC
:1042D000049B984204D05B469968013109F01EFFA7
:1042E000129814AB984203D01499013109F016FFCB
:1042F0000C980EAB9842C2D00E99013109F00EFF16
:10430000BDE7C4E7DBE7F3E7D2E7E9E7DFE7C0466D
:10431000102700000F270000B8910110989101109C
:10432000F0B5DE46454657464E46E0B58FB008AB81
:104330009B460AAB0893544B02AA138402235A46A5
:10434000536000239372C30F0193C317C5185D40D8
:10435000092D00D87CE0632D00D87BE0FA239B0078
:104360009D4200D27AE0494B9D4200D874E0484B10
:1043700028009846474B01249946474B474F9A4699
:1043800005E046455ED94E455ED956455ED944495D
:10439000060005F047FB23000434BE42F1D8019E1D
:1043A00004AB2D22311902A802930BF009F9029BEC
:1043B0009C466644B246632D1AD93A4B023C984655
:1043C000324B544499462800642105F02BFB280009
:1043D0004E00642105F026FB43469B195B782F00B5
:1043E000637043469B5D05002370023C4F45EAD84D
:1043F000092D1FD83035EDB2534658461D7002A91D
:10440000FFF70AFA029804AB984203D004990131ED
:1044100009F084FE08980AAB984204D05B4699687C
:10442000013109F07BFE0FB0F0BCBB46B246A94695
:10443000A046F0BD51461B4B6D005A1952785D5D88
:104440004A70D9E75C1DAAE79C1DA8E7DC1DA6E71A
:104450000124A4E70224A2E70424A0E703249EE7A2
:10446000029804AB984203D00499013109F056FE3A
:1044700008980AAB984204D05B469968013109F06C
:104480004DFE09F0F3FEF3E7636200000F27000022
:104490003F420F007F969800FFE0F5059F860100E0
:1044A00010270000B8910110F0B5C64600B58EB0D7
:1044B00004AC304B02941A8802AD22809B780AAE7D
:1044C000A37003236B6000230768EB720896002F2C
:1044D0003BD0380013F0BEF9804601900F2825D854
:1044E00001281ED16A4628213B78521813703300E8
:1044F0000022099008A91A542800FFF78DF908989E
:10450000B04203D00A99013109F008FE0298A04296
:1045100003D0A968013109F001FE0EB080BCB84695
:10452000F0BD33000028E3D0300007E0002201A9ED
:1045300008A80BF027F8019B08900A93424639001F
:1045400005F0C6FE0198089BD2E70B480AF0FCFE76
:104550000898B04203D00A99013109F0DFFD0298B2
:10456000A04203D0A968013109F0D8FD09F07EFE10
:10457000F5E7C046B49101102C910110034B1A00CD
:1045800008321A6000225A601A72704734200020E4
:104590007047C046C06810B5002802D00368DB69C8
:1045A000984710BD0020704710B50400102109F095
:1045B000B5FD200010BDC04610B5102109F0AEFDBC
:1045C00010BDC04610B50400024B036009F0BEFFE9
:1045D000200010BD6C94011010B50400044B036062
:1045E00009F0B4FF2000042109F098FD200010BD5F
:1045F0006C94011010B50400024B036009F0A0FB9D
:10460000200010BD4494011010B50400044B036059
:1046100009F096FB2000202109F080FD200010BD4C
:10462000449401100023F0B5036043608360154B90
:1046300004000E0083B0D5009D4216D8002D0ED088
:1046400028000AF0C3FB47192060A760002D0AD09C
:104650002A00310005F03CFE676003B0F0BD002782
:1046600005608560F8E70700F6E707480AF084FE72
:104670002068A168091A002801D009F04FFD09F04F
:10468000F5FDC046F8FFFF7F6887011070B5041E76
:104690001FD02600E068FFF7F9FFB569A468002D78
:1046A00011D06B68013B6B60002B0CD12B6828008C
:1046B0009B689847AB68013BAB60002B03D12B682C
:1046C0002800DB6898471C21300009F027FD002CEA
:1046D000DFD170BDF0B5C646070000B500282ED06A
:1046E000B846F868FFF7F6FF4346DC69BF68002C60
:1046F0001FD02600E068FFF7C9FFB569A468002D48
:1047000011D06B68013B6B60002B0CD12B6828002B
:104710009B689847AB68013BAB60002B03D12B68CB
:104720002800DB6898471C21300009F0F7FC002CBA
:10473000DFD12C21404609F0F1FC002FD0D180BC04
:10474000B846F0BDF0B5D6464F464646C0B5494CD2
:10475000A54401285ED0484A1368013B1360002B32
:1047600014D1464C464D206800280BD0A368191A76
:1047700009F0D4FC23000C3BA54207D01C002068A4
:104780000028F3D123000C3BA542F7D13D4A136822
:10479000013B1360002B26D03B4A1368013B13609A
:1047A000002B14D1394C3A4D206800280BD0A36857
:1047B000191A09F0B3FC23000C3BA54207D01C00DA
:1047C00020680028F3D123000C3BA542F7D1314BE0
:1047D0009868FFF77FFFA8239B009D44E0BCBA4682
:1047E000B146A846F0BD2C4C2C4D206800280BD0BB
:1047F000A368191A09F092FC23000C3BA542CBD008
:104800001C0020680028F3D123000C3BA542C3D034
:104810001C00F6E700221F4B191DD96019612049C1
:104820001A719A605A610B6801330B60012B03D136
:104830001C4B1A6004325A60134B1A68561C1E60D7
:10484000012E00D1DAE30F4B1A68561C1E60012EB0
:1048500000D1B7E1084B1A68561C1E60012E25D006
:1048600004200AF0B3FA040001F09EFC0E4B1C6019
:10487000B1E7C04660FDFFFF0820002024C50110FD
:10488000F8C30110102000200C200020EC21002093
:1048900054200020F023002084230020F821002051
:1048A000042000204C200020582B00200023AB4D7A
:1048B00000222B606B60AB6001239AAC5B429A9242
:1048C0009B9321003200A64826942796FFF7AAFE64
:1048D00001230C225B429A929B9321000B3AA14840
:1048E00024942592FFF79EFE012365225B429A9253
:1048F0009B932100643A9C4822942392FFF792FEF6
:10490000012371225B429A929B932100703A97484F
:1049100020942192FFF786FE00232200EB632B6494
:104920006B64AB64EB642B65914B703383CB83C2B8
:1049300083CB83C203CB03C2042221008D481E9483
:104940001F92FFF76FFE22008B4B9846103383CBEC
:1049500083C283CB83C203CB03C2042221008748D6
:104960001C941D92FFF75EFE43462200303383CB3A
:1049700083C283CB83C203CB03C2042221008048BD
:104980001A941B92FFF74EFE43462200503383CB0E
:1049900083C283CB83C203CB03C2042221007948A4
:1049A00018941992FFF73EFE4746220070370BCF4E
:1049B0000BC20BCF0BC20ACF0AC2042221007248DD
:1049C00016941792FFF72EFE2200704B9846103374
:1049D00083CB83C283CB83C203CB03C204222100D7
:1049E0006B4814941592FFF71DFE434622003033A6
:1049F00083CB83C283CB83C203CB03C204222100B7
:104A0000644812941392FFF70DFE43462200503380
:104A100083CB83C283CB83C203CB03C20422210096
:104A20005D4810941192FFF7FDFD0023B422AB50B6
:104A30000432AB500432AB500432AB500432AB50B2
:104A400047460432AB50220070370BCF0BC20BCF5E
:104A50000BC20ACF0AC20422210050480E940F92C2
:104A6000FFF7E0FD22004E4B9846103383CB83C204
:104A700083CB83C203CB03C20422210049480C9498
:104A80000D92FFF7CFFD43462200303383CB83C224
:104A900083CB83C203CB03C20422210042480A9481
:104AA0000B92FFF7BFFD43462200503383CB83C2F6
:104AB00083CB83C203CB03C2042221003B4808946A
:104AC0000992FFF7AFFD4746220070370BCF0BC2AC
:104AD0000BCF0BC20ACF0AC204222100344806942D
:104AE0000792FFF79FFD2200324B9846103383CB8D
:104AF00083C283CB83C203CB03C2042221002E488E
:104B000004940592FFF78EFD43462200303383CB99
:104B100083C283CB83C203CB03C204222100274874
:104B200002940392FFF77EFD4746220050370BCFD9
:104B30000BC20BCF0BC20ACF0AC2042221002048AD
:104B400000940192FFF76EFD962200235200AB50B5
:104B50000432AB500432AB5082E6C046F8C30110B9
:104B600004C4011010C401101CC4011028C4011099
:104B7000949901104CC40110149A011058C40110EA
:104B800064C4011070C401107CC40110949A011017
:104B900088C4011094C40110A0C40110C4C4011041
:104BA000149B0110D0C40110DCC40110E8C4011032
:104BB000F4C40110949B011000C501100CC5011034
:104BC00018C501100023E84F00223B607B60BB60EA
:104BD00000239A929B93012200239AAC9C929D936E
:104BE00021000132E1485E945F92FFF71BFD220035
:104BF000DF4B9946283323CB23C21B682100136067
:104C00000222DC485C945D92FFF70CFD4B462200CB
:104C1000383323CB23C223CB23C223CB23C223CBC2
:104C200023C206222100D4485A945B92FFF7FAFC73
:104C3000002349463822683120003B637B63BB6315
:104C4000FB633B647B6405F043FB07222100CB48F8
:104C500058945992FFF7E6FC2200C94B984620333E
:104C600023CB23C223CB23C223CB23C223CB23C2F8
:104C700006222100C34856945792FFF7D3FC4346BF
:104C80002200503323CB23C223CB23C203CB03C246
:104C900004222100BC4854945592FFF7C3FC4546BA
:104CA000220070350BCD0BC20BCD0BC203222100AD
:104CB000B64852945392FFF7B5FC2200B44B984685
:104CC000083323CB23C21B68210013600222B148A2
:104CD00050945192FFF7A6FC43462200183323CB91
:104CE00023C223CB23C203CB03C204222100AA4840
:104CF0004E944F92FFF796FC2200A84B383323CBFB
:104D000023C223CB23C203CB03C204222100A44825
:104D10004C944D92FFF786FC012300225B429A924D
:104D20009B93210001329F484A944B92FFF77AFCF3
:104D300001230C225B429A929B9321000B3A9A48E2
:104D400048944992FFF76EFC012365225B429A92D8
:104D50009B932100643A954846944792FFF762FC82
:104D6000012371225B429A929B932100703A9048F2
:104D700044944592FFF756FC0023CC22BB500432EA
:104D8000BB500432BB500432BB500432BB5004321F
:104D9000BB502200874B9A46783323CB23C223CBC8
:104DA00023C203CB03C204222100834842944392CE
:104DB000FFF738FC4B462200103323CB23C223CB12
:104DC00023C2032221007D4840944192FFF72AFC30
:104DD00043462200383323CB23C223CB23C20322F2
:104DE000210077483E943F92FFF71CFC4346220087
:104DF000503323CB23C223CB23C223CB23C21B6834
:104E00002100136005226F483C943D92FFF70AFC95
:104E10005546220038350BCD0BC20BCD0BC20ACD47
:104E20000AC20422210068483A943B92FFF7FAFB39
:104E300043462200783323CB23C223CB23C203CBA8
:104E400003C204222100614838943992FFF7EAFB3B
:104E500022005F4B9846183323CB23C223CB23C2B7
:104E6000032221005B4836943792FFF7DBFB2200D8
:104E7000594B183323CB23C223CB23C223CB23C2CA
:104E80001B68210013600522544834943592FFF7C3
:104E9000C9FB43462200303323CB23C223CB23C29A
:104EA00023CB23C223CB23C2062221004C483294B9
:104EB0003392FFF7B7FB4546220060350BCD0BC29E
:104EC0000BCD0BC20BCD0BC22B682100136005224A
:104ED000444830943192FFF7A5FB2200424B98469C
:104EE000083323CB23C223CB23C223CB23C223CB20
:104EF00023C2062221003D482E942F92FFF792FBF9
:104F000043462200383323CB23C223CB23C20322C0
:104F1000210037482C942D92FFF784FB4346220052
:104F2000503323CB23C21B68210013600222314877
:104F30002A942B92FFF776FB4546220060350BCD75
:104F40000BC22B682100136002222B48289429925F
:104F5000FFF768FBC62200235200BB500432BB504F
:104F60000432BB5076E4C046F82100200422002021
:104F700094970110102200201C22002040220020C3
:104F8000149801104C220020582200206422002096
:104F900094980110702200207C220020949501102A
:104FA0008822002094220020A0220020AC22002091
:104FB000B822002014960110DC220020E8220020F4
:104FC000F4220020002300200C23002018230020BE
:104FD00014990110242300209496011030230020FE
:104FE0003C230020482300209499011054230020E2
:104FF000602300206C230020782300200023FB4F37
:1050000000223B607B60BB6000239A929B9301224D
:1050100000239AAC9C929D9321000132F44898940D
:105020009992FFF7FFFAF34B98462300424623CAB2
:1050300023C323CA23C303222100EF4896949792E7
:10504000FFF7F0FA43462200183323CB23C223CBC9
:1050500023C203222100E94894949592FFF7E2FAD3
:1050600043462200303323CB23C223CB23C203CBBE
:1050700003C204222100E24892949392FFF7D2FAED
:105080000023FB633B647B64BB64FB643B6543467A
:105090002200503323CB23C223CB23C203CB03C232
:1050A00004222100D74890949192FFF7BBFA45461D
:1050B000220070350BCD0BC20BCD0BC20ACD0AC23C
:1050C00004222100D0488E948F92FFF7ABFACF4D87
:1050D000382229002000103105F0FAF807222100BB
:1050E000CB488C948D92FFF79DFA290038224831E5
:1050F000200005F0EDF807222100C6488A948B9223
:10510000FFF790FAC44B98462300424623CA23C3B4
:1051100023CA23C303222100C04888948992FFF741
:1051200081FA43462200183323CB23C223CB23C268
:1051300003CB03C204222100B94886948792FFF76B
:1051400071FA43462200383323CB23C223CB23C238
:1051500003CB03C204222100B24884948592FFF756
:1051600061FA43462200583323CB23C223CB23C208
:1051700003CB03C204222100AB4882948392FFF741
:1051800051FA012300225B429A929B932100013243
:10519000A64880948192FFF745FA01230C225B42D6
:1051A0009A929B9321000B3AA1487E947F92FFF73D
:1051B00039FA012365225B429A929B932100643A5B
:1051C0009C487C947D92FFF72DFA012371225B426B
:1051D0009A929B932100703A97487A947B92FFF7BA
:1051E00021FA0023E422BB500432BB500432BB50EE
:1051F0000432BB500432BB5045460432BB5022003F
:1052000078350BCD0BC20BCD0BC20ACD0AC20422DE
:1052100021008A4878947992FFF704FA2200884B9B
:105220009A46183323CB23C223CB23C203CB03C21A
:1052300004222100834876947792FFF7F3F95346CE
:105240002200383323CB23C223CB23C203CB03C298
:10525000042221007C4874947592FFF7E3F95346C9
:105260002200583323CB23C223CB23C203CB03C258
:1052700004222100754872947392FFF7D3F95546C2
:10528000220078350BCD0BC20BCD0BC20ACD0AC262
:10529000042221006E4870947192FFF7C3F9220036
:1052A0006C4B9846183323CB23C223CB23C223CB8A
:1052B00023C21B6821001360052267486E946F9219
:1052C000FFF7B0F943462200403323CB23C223CB60
:1052D00023C223CB23C223CB23C2062221005F4853
:1052E0006C946D92FFF79EF94546220070350BCD08
:1052F0000BC20BCD0BC20ACD0AC2042221005848B2
:105300006A946B92FFF78EF92200564B9846103341
:1053100023CB23C223CB23C203CB03C2042221000D
:10532000514868946992FFF77DF943462200303373
:1053300023CB23C223CB23C203CB03C204222100ED
:105340004A4866946792FFF76DF94346220050334E
:1053500023CB23C223CB23C20322210044486494DD
:105360006592FFF75FF94546220068350BCD0BC209
:105370000BCD0BC20BCD0BC22B6821001360052295
:105380003C4862946392FFF74DF922003A4B103388
:1053900023CB23C223CB23C20322210037486094AE
:1053A0006192FFF73FF9CC2200235200BB50043238
:1053B000BB500432BB50FFF746FA0421200008F02E
:1053C000ADFE08F053FF2224A61B163C74433C1983
:1053D000BC42F6D00C3C2068A368191A0028F7D00C
:1053E00008F09CFEF4E70226EDE7C04654200020BA
:1053F00060200020949401106C2000207820002070
:1054000084200020A8200020B42000201495011042
:10541000C0200020CC20002094950110D82000202E
:10542000E4200020F0200020FC20002008210020A3
:1054300014210020202100202C21002050210020B8
:10544000149601105C2100206821002074210020A6
:1054500080210020949601108C21002098210020AA
:10546000A421002014970110B0210020BC210020AD
:10547000C8210020D421002094970110E0210020B1
:105480000426A0E705269EE703269CE706269AE762
:105490000A2698E70B2696E70C2694E70D2692E756
:1054A000082690E709268EE707268CE710268AE76C
:1054B00011261924A61B0D3C74432C19AC4200D1B3
:1054C0007FE70C3C2068A368191A0028F6D008F082
:1054D00025FEF3E71226ECE71526EAE71626E8E7AD
:1054E0002124A61B153C74433C19BC4200D168E73B
:1054F0000C3C2068A368191A0028F6D008F00EFEAC
:10550000F3E70326ECE70226EAE70426E8E70526A8
:10551000E6E70926E4E70A26E2E70B26E0E70C26A1
:10552000DEE70726DCE70826DAE70626D8E70D26B9
:10553000D6E71726D4E71826D2E71926D0E71A2689
:10554000CEE71B26CCE71E26CAE71F26C8E7202683
:10555000C6E71326C4E71426C2E71526C0E71626B9
:10556000BEE71126BCE71226BAE70E26B8E70326E7
:105570009FE704269DE705269BE7062699E798E71F
:10558000022696E7172694E7182692E7072690E763
:1055900008268EE70B268CE70C268AE70D2688E77F
:1055A0000E2686E70F2684E7102682E718260AE7EC
:1055B000192608E71A2606E71B2604E71E2602E737
:1055C0001F2600E72026FEE62126FCE61426FAE642
:1055D0001526F8E61626F6E61726F4E61226F2E673
:1055E0001326F0E61126EEE670B50C00002802D076
:1055F00003689B6898471D4D6C60042C22D81C4B97
:10560000A4001B5904209F4609F0E0FB0400FDF7AD
:10561000EBF870BD09F0DAFB040000F0C5FDF8E717
:1056200009F0D4FB0400FBF779FAF2E709F0CEFBAE
:105630000400FCF759F8ECE709F0C8FB0400FCF79C
:1056400059FBE6E7042009F0C1FB040000F0ACFDC3
:1056500004236B60DDE70421200008F05FFD08F003
:1056600005FEF8E7F7E7F6E7F5E7F4E74C2000205A
:1056700084920110F0B5C64600B5244E84B024498A
:10568000300007F08FFF0321022000F0BFFF03214D
:10569000032000F0BBFF00220121022000F0CEFF1A
:1056A00000220121032000F0C9FF1A4B012500242C
:1056B0009846194F07E05C2C1AD0682C1FD0802D1B
:1056C00020D00134013578231A0022402342F6D03D
:1056D000782AF4D000230F2200933000E1B2013386
:1056E0006A4407F0F1FF002804DCE8D1232CE2D162
:1056F0003C60E6E72100094805F096F8F6E74346E6
:105700001C60DEE704B080BCB846F0BD2815002060
:10571000A0860100401400203C1400209892011043
:10572000F0B5184E85B03168002927DB012500232C
:10573000154F03AC23702200C9B201333800009525
:1057400007F05AFF317801232200257038000095B8
:1057500007F052FF0723317823702200063B380000
:10576000009507F049FF1323317823702200380099
:105770000095123B07F040FF05B0F0BD034805F06F
:1057800053F8F9E73C14002028150020AC920110D2
:1057900070B5294C294D2368294E9A0028689259E2
:1057A00084B0821A2A60274A116800291FDB00236F
:1057B00003AA009324480233C9B207F085FF6B4661
:1057C0006A461B7B527B00282FDD1802801804F0EC
:1057D000FDFB1E4A1E4B04F072FB04F00FFC236815
:1057E0009A0000281CDB90512A68944660440133DB
:1057F00028601D2B00DD00231E21236004F0EAF841
:10580000FF23142200930021FA3BFDF7A9F8052895
:1058100002DA052004B070BDFF28FBDDFF20F9E7A8
:1058200090592A6894466044E1E723689A009059A9
:105830002A6894466044DAE7842F0020B4290020C7
:10584000882F00203C1400202815002033333333E8
:1058500033330340F0B54746CE460022002380B5DF
:1058600089B0049205930023804604AA0800524997
:105870000693FDF749FC049B00269946059B0025ED
:1058800003934B456AD04D4F8021404608F05EF9A6
:10589000059A049B0392D01AC010810009180A01CE
:1058A00089180A0289180A048A1852001218AA4292
:1058B00065D900220024914621E03868002808D0EC
:1058C0001B6841461A5D4B46303A0093002300F0B6
:1058D00067FEFA20800001F0EBFD059A049B03921D
:1058E000D11AC9108A005218100112181002121889
:1058F00010041218520052180134AA423FD99B19C1
:105900005A68A242D9D80A21404608F01FF9FA2065
:10591000C00001F0CDFD059B049C99461A1BD210D6
:1059200093009B1819015B1819025B1819045B1886
:105930005B0001359B181836AB42A5D84C450DD0FD
:10594000230020680833984215D0A3681834591CE6
:1059500008F0E4FBA145F3D1049B99464B46002B8C
:1059600004D006994846C91A08F0D8FB09B0C0BC53
:10597000B946B046F0BD1834A145E1D1ECE72900A5
:105980000F4809F011FD049C059DA54208D104981B
:105990000699091A002801D008F0C0FB08F066FC3F
:1059A000230020680833984203D0A368591C08F0EC
:1059B000B5FB1834E9E7C0467CBF0110582B002026
:1059C000A8900110F0B546464F46D6468468031DA0
:1059D000C0B5884606009946002C67D04D460B6836
:1059E00003E02500A468002C05D022699342F8D971
:1059F000E468002CF9D1A94558D02A6993422DD2E8
:105A00002C2009F0E3F943461B6884620361984641
:105A100003001833036243622B6907009A46047639
:105A2000C461434521D9F3689A46AB420BD02800A4
:105A300009F09CFB03690400434500D38BE0C36875
:105A4000002B00D176E02C003D0001204B462200C7
:105A5000290009F0A7FB7369013373612800143032
:105A6000E0BCBA46B146A846F0BDC24516D233697D
:105A7000AB4209D0280009F063FB036904004345E9
:105A80005AD9EB68002BDFD12C003D002AE023001F
:105A9000002945D190453ED82F0025000020FEF773
:105AA000F5FD2C21380008F039FBD7E72C2009F050
:105AB0008DF943461B680200984603610023037674
:105AC000C361836273691832050002624262002B6F
:105AD0000CD034692369434508D20120A145B5D0D3
