:020000041000EA
:1000000000B50C4B00219960042159610A4919601F
:100010000A490B480160002159600121996001BC27
:10002000002800D0004707480749086003C880F34C
:10003000088808470000001800031F00180200038A
:10004000F40000180001001008ED00E000000000BE
:1000500000000000000000000000000000000000A0
:100060000000000000000000000000000000000090
:100070000000000000000000000000000000000080
:100080000000000000000000000000000000000070
:100090000000000000000000000000000000000060
:1000A0000000000000000000000000000000000050
:1000B0000000000000000000000000000000000040
:1000C0000000000000000000000000000000000030
:1000D0000000000000000000000000000000000020
:1000E0000000000000000000000000000000000010
:1000F0000000000000000000000000002CEC210DBA
:1001000000200420F7010010C3010010C5010010F9
:10011000C1010010C1010010C1010010C101001097
:10012000C1010010C1010010C1010010C701001081
:10013000C1010010C1010010C9010010CB01001065
:10014000CD010010CD010010CD010010CD01001037
:10015000CD010010CD010010CD010010CD01001027
:10016000CD010010CD010010CD010010CD01001017
:10017000CD010010CD010010CD010010CD01001007
:10018000CD010010CD010010CD010010CD010010F7
:10019000CD010010CD010010CD010010CD010010E7
:1001A000CD010010CD010010CD010010CD010010D7
:1001B000CD010010CD010010CD010010CD010010C7
:1001C00000BE00BE00BE00BE00BE00BE00F04BF888
:1001D000103800BEF2EB8871280802105408021093
:1001E0003402001090A31AE700202149086006C8D5
:1001F00081F3088810471F48006800282FD10DA4FC
:100200000ECC002902D000F012F8F9E71A491B4A77
:10021000002000E001C19142FCD1194988471949E9
:1002200088471949884700BEFDE701C901C29A42C3
:10023000FBD3704754080210C0000020F01D0020BE
:1002400084250210000004200000042084250210F0
:1002500000100420001004200000000070470B482C
:100260000BF0B6FD0047EFF30580C0B27047000009
:1002700008ED00E0000000D0F01D0020F434002064
:100280001DA200108D7E001045A3001057560000DF
:1002900006005250ABB3605354C9011006005250CF
:1002A000861C030270C90110060052505422A29D00
:1002B0007CC9011005005250DE65F46884250210E7
:1002C000F8B5C04610B5064C2378002B07D1054B76
:1002D000002B02D0044800E000BF0123237010BDB2
:1002E000F81F00200000000080AF0110044B10B583
:1002F000002B03D00349044800E000BF10BDC046F6
:1003000000000000FC1F002080AF01107047C046B5
:10031000014B185C7047C046B8210020002805D06A
:100320000A2803D0024B1954012070470020FCE733
:10033000B8210020F0B50600083604000D0083B097
:100340000660002924D0080019F08EFE07000190F5
:100350000F280CD8012807D12B7823720023606066
:100360003354200003B0F0BD0028F7D008E000228D
:10037000200001A911F0DAFC0600019B2060A360B7
:1003800030003A0029000CF023FA01982668E5E7CE
:10039000014811F0BBFAC04680AF011070B5846807
:1003A0000600002C1FD0636A2568002B04D02000B3
:1003B0001C30032201009847230060680C339842E8
:1003C0000BD0E368591C10F029F93021200010F0FF
:1003D00025F9002D07D02C00E5E73021200010F092
:1003E0001DF9002DF7D1736800219A0030680CF0D8
:1003F000E9F90023F360B3603300306818337168A3
:10040000984202D0890010F009F9300070BDC04652
:10041000F0B557464E46DE464546E0B5826903696B
:1004200083B09346C269009343699046426A1F1D98
:100430008146924686680193BA4212D93C682500EB
:10044000F935FF3523002068083398425AD0A36855
:100450001834591C10F0E2F8A542F3D10437BA451C
:10046000ECD8019B9A4540D0009B9E420CD03300B3
:1004700030680833984252D0B3681836591C10F0CF
:10048000CDF8009BB342F2D1C3450ED04346186865
:10049000083398423DD043469B68591C10F0BEF883
:1004A00018239C46E044C345F0D14B461868002809
:1004B00012D05C695B6A1D1DAC4208D2FC2101CCE4
:1004C000490010F0ABF8A542F8D84B4618684B46E7
:1004D0005B68990010F0A2F8484603B0F0BCBB4638
:1004E000B246A946A046F0BD1836B345DDD033006C
:1004F000306808339842F7D0B3681836591C10F0AA
:100500008DF8F2E71834A5429CD10437BA4595D846
:10051000A7E718239C46E044C345B7D1C5E7009B35
:100520001836B342A3D1AFE730B5654B83B01A6834
:10053000541C1C60012C22D0624B1A68541C1C6095
:10054000012C0ED1604D1022280000210C300CF03F
:1005500039F95E4B6C602B600023AB60FE239B057A
:100560002B615B4A136801331360012B41D0594A58
:10057000136801331360012B35D003B030BD564DE5
:100580005649280001AAFFF7D5FE5549554801AA4A
:10059000FFF7D0FE5449554801AAFFF7CBFE544956
:1005A000544801AAFFF7C6FE5349544801AAFFF771
:1005B000C1FE5349534801AAFFF7BCFE52495348B4
:1005C00001AAFFF7B7FE5249524801AAFFF7B2FE4F
:1005D0005149524801AAFFF7ADFE5149514801AABD
:1005E000FFF7A8FEA8E73D4901AA4F48FFF7A2FE82
:1005F000C3E700234D4C20202360A360E360236108
:100600006361A361E361236263620833636010F096
:10061000BFFE050063682060581E400880002D184A
:10062000FC20400010F0B4FE0300F933FF332860D3
:100630006561E06023616562E0612362A060A061A2
:1006400095E7092409231B1B18245C432C19AC4291
:1006500026D110F08BF80824F4E70724F2E70624EB
:10066000F0E70224EEE7EDE70024EBE710F06CF989
:1006700010F0F4FD0424E5E70524E3E70324E1E7B3
:10068000050010F09BF9280010F05EF963682068FF
:1006900099000FF0C3FF00232360636010F0DEFDBC
:1006A000183C2300206808339842D0D0A368591C16
:1006B0000FF0B4FFCBE710F081F910F057F8C04607
:1006C0003820002034200020AC200020C42000204E
:1006D000302000202C200020C820002044D401100D
:1006E000C8E80110E0200020ACAF0110F820002085
:1006F000B0AF01101021002020EC011028210020B3
:10070000B4AF011040210020B8AF011058210020E3
:10071000BCAF011070210020C0AF01108821002063
:10072000C4AF0110A02100206C20002084200020F4
:100730007047C04610B503685B68984710BDC04657
:1007400010B50400034B0833036007F043FE20009C
:1007500010BDC04654B3011010B50400054B08335A
:10076000036007F037FE200004210FF057FF200040
:1007700010BDC04654B301100023F0B503604360C0
:100780008360154B04000E0083B0D5009D4216D83F
:10079000002D0ED0280010F0FBFD47192060A76047
:1007A000002D0AD02A0031000CF012F8676003B067
:1007B000F0BD002705608560F8E70700F6E7074809
:1007C00011F0BCF82068A168091A002801D00FF0C8
:1007D00025FF0FF0CBFFC046F8FFFF7FCCAF011025
:1007E000F0B5C646040000B5002825D01A4B1B4FB3
:1007F00098462600E068FFF7F3FFB569A468002D6E
:1008000014D06B68013B6B60002B0FD12B689B6889
:10081000BB4214D1AB68013BAB60002B06D12B6807
:10082000DA6842450ED128005B6898471C213000E9
:100830000FF0F4FE002CDCD180BCB846F0BD2800DF
:100840009847E7E7280090471C2130000FF0E6FEAC
:10085000002CCED1F0E7C04635070010310700105C
:10086000F0B5DE4657464E464546E0B5834685B070
:10087000002800D199E05B46DB680193002B00D192
:1008800086E0019BDB689946002B72D04B46DB6803
:100890009A46002B60D05346DC68002C42D0E668B4
:1008A000002E27D0F3689846002B2FD04346DD68F2
:1008B000002D44D0EF68002F10D0F868FFF7D0FF6C
:1008C0003B00DA69BF68100002930392FFF788FFCC
:1008D0002C2102980FF0A2FE002FEED1AF68E8693C
:1008E000FFF77EFF2C2128000FF098FE002F26D066
:1008F0003D00DFE7A568E069FFF772FF2C212000CB
:100900000FF08CFE002D0DD02C00C8E7B568F06903
:10091000FFF766FF2C2130000FF080FE002DE9D09C
:100920002E00BFE753469C68D869FFF759FF2C217A
:1009300050460FF073FE002C0ED0A246ABE74346A4
:100940009D68D869FFF74CFF2C2140460FF066FEEA
:10095000002DDBD0A846A9E74B469C68D869FFF775
:100960003FFF2C2148460FF059FE002C01D0A14634
:100970008CE7019DEB69AC6818000193FFF730FF2D
:100980002C2128000FF04AFE002C01D0019478E7BA
:100990005B469C68D869FFF723FF2C2158460FF06F
:1009A0003DFE002C01D0A34665E705B0F0BCBB4678
:1009B000B246A946A046F0BD10B5040007F014FDEC
:1009C000024B20000833236010BDC04654B3011011
:1009D000F0B5DE4657464E4645468B460221E0B509
:1009E0009846531E8246894687B0032B04D90139A5
:1009F000D31F89460B2B3DD853002A499B189B00D7
:100A00005D180020CB5800210290039100216A68F4
:100A10000491D41A9A4236D0234B9C4236D82000F7
:100A200010F0B6FC0ACD0419029003900494994288
:100A300009D000225B1A84188D180832C0CDC0C4BA
:100A40009A42F8D1801843460390009359464B468A
:100A5000504602AA07F094FD0298002803D004999A
:100A6000091A0FF0DBFD07B0F0BCBB46B246A94641
:100A7000A046F0BD11000C2315398B429B41032188
:100A800019408946B8E700240020CBE710F02EFF7C
:100A900002980499091A002801D00FF0BFFD0FF049
:100AA00065FEC046F8230020F8FFFF7FF8B5CE466C
:100AB000474680B51F00089B04000D003800052143
:100AC000160098460BF0B6F98946002900DDC3E010
:100AD0004346012229002000FFF77AFF4346022205
:100AE00029002000FFF774FF182F04DD701C182167
:100AF0000BF0A0F90E00002E48D00C2E46D0012E8F
:100B000000D18CE00D2E00D189E0022E00D1FFE053
:100B10000E2E00D1FCE0032E00D107E10F2E00D1F4
:100B200004E1042E00D1FAE0102E00D1F7E0052EEA
:100B300000D109E1112E00D106E1062E00D10AE113
:100B4000122E00D107E1072E00D10BE1132E00D1A8
:100B500008E1082E00D10CE1142E00D109E1092E84
:100B600000D10DE1152E00D10AE10A2E00D10EE1CF
:100B7000162E00D10BE10B2E01D0172E0CD14346BF
:100B80001F2229002000FFF723FF05E04346202213
:100B900029002000FFF71CFF7E1F132E00D880E0E5
:100BA0003B00233B042B10D93B00193B042B42D9BB
:100BB0003B00283B132B3ED9042F42D84346032247
:100BC00029002000FFF704FF05E043460C2229001E
:100BD0002000FFF7FDFE3B00143B042B00D890E003
:100BE0003B00193B042B00D87EE03B001E3B042B4E
:100BF00000D87FE03B00233B042B00D874E0053B8A
:100C0000042B00D87DE0053B042B00D895E03B0089
:100C1000323B042B5BD9373F042F50D849E0434681
:100C2000042F5BD8212229002000FFF7D1FE3B00D2
:100C3000193B042BBCD843460B2229002000FFF7A8
:100C4000C7FE3B000F3B042BC5D843460A222900B0
:100C50002000FFF7BDFE32E043460F2229002000AE
:100C6000FFF7B6FE4B46012B00D131E74346102279
:100C700029002000FFF7ACFE4B46022B00D127E7EE
:100C80004346112229002000FFF7A2FE4B46042B09
:100C900000D01DE74346122229002000FFF798FEEE
:100CA00016E743460C2229002000FFF791FE042E90
:100CB00009D84346072229002000FFF789FEC0BC5F
:100CC000B946B046F8BD3B000A3B042BB9D84346B1
:100CD000082229002000FFF77BFEF0E715222900FB
:100CE0002000FFF775FE57E7434607222900200042
:100CF000FFF76EFE43460D2229002000FFF768FE35
:100D0000DDE74346092229002000FFF761FED6E710
:100D10004346162229002000FFF75AFE3CE74346CF
:100D2000182229002000FFF753FE35E7434617221B
:100D300029002000FFF74CFE2EE743460E22290033
:100D40002000FFF745FE80E74346192229002000D6
:100D5000FFF73EFE20E743461A2229002000FFF756
:100D600037FE19E743461B2229002000FFF730FE1B
:100D700012E743461C2229002000FFF729FE0BE75B
:100D800043461D2229002000FFF722FE04E74346C8
:100D90001E2229002000FFF71BFEFDE6F0B5C64627
:100DA00000B5C8B0012800D176E02F4A1368013B96
:100DB0001360002B14D12D4C2D4D206800280BD032
:100DC000A368191A0FF02AFC23000C3BA54207D098
:100DD0001C0020680028F3D123000C3BA542F7D16A
:100DE000244A1368013B1360002B08D1224B234A8D
:100DF0001868904203D0996801310FF00FFC204A27
:100E00001368013B1360002B00D1BDE21D4A13683B
:100E1000013B1360002B00D1BAE21B4A1368013B6F
:100E20001360002B18D1194C194D2300206808338A
:100E300098420DD0A368591C0FF0F0FB2300183B1B
:100E4000A54209D01C002300206808339842F1D144
:100E50002300183BA542F5D10E4B9868FFF700FD23
:100E600048B080BCB846F0BD44200020902500204A
:100E7000F82300202C2000206C200020742000206B
:100E8000302000203420002038200020A021002025
:100E9000C8200020342700200022F94B191D1A71A8
:100EA0009A605A61D9601961F64B1A68551C1D6029
:100EB000012D00D170E2F44B1A68541C1C60012C07
:100EC0000ED1F24D1022280000210C300BF07AFCDC
:100ED000EF4B6C602B600023AB60FE239B052B6106
:100EE000EC4A136801331360012B00D18FE2EA4A08
:100EF000136801331360012B00D182E2E74A1368C3
:100F000001331360012B04D10022E54B1A60043237
:100F10005A60E44B1A68551C1D60012DA0D10023B6
:100F2000E14F00223B607B60BB6000233A923B9321
:100F3000012200233AAC3C923D9321000132DB4870
:100F400038943992FFF718FCD94B98462300424653
:100F500043CA43C343CA43C303222100D54836943E
:100F60003792FFF709FC43462200183343CB43C2B4
:100F700043CB43C203222100CF4834943592FFF77C
:100F8000FBFB43462200303343CB43C243CB43C237
:100F900003CB03C204222100C84832943392FFF7E6
:100FA000EBFB0023FB633B647B64BB64FB643B653E
:100FB00043462200503343CB43C243CB43C203CB0F
:100FC00003C204222100BE4830943192FFF7D4FBC3
:100FD0004646220070360BCE0BC20BCE0BC20ACE99
:100FE0000AC204222100B7482E942F92FFF7C4FBB7
:100FF000B54E38223100200010310BF0E9FB0722FA
:101000002100B2482C942D92FFF7B6FB3100382214
:10101000483120000BF0DCFB07222100AC482A9469
:101020002B92FFF7A9FBAB4B98462300424643CADD
:1010300043C343CA43C303222100A74828942992EB
:10104000FFF79AFB43462200183343CB43C243CBFE
:1010500043C203CB03C204222100A0482694279256
:10106000FFF78AFB43462200383343CB43C243CBCE
:1010700043C203CB03C20422210099482494259241
:10108000FFF77AFB43462200583343CB43C243CB9E
:1010900043C203CB03C2042221009248229423922C
:1010A000FFF76AFB012300225B423A923B93210047
:1010B00001328D4820942192FFF75EFB01230C2220
:1010C0005B423A923B9321000B3A88481E941F9250
:1010D000FFF752FB012365225B423A923B932100CA
:1010E000643A83481C941D92FFF746FB012371224A
:1010F0005B423A923B932100703A7E481A941B92CD
:10110000FFF73AFB0023E422BB500432BB50043209
:10111000BB500432BB500432BB5046460432BB5075
:10112000220078360BCE0BC20BCE0BC20ACE0AC2FF
:1011300004222100704818941992FFF71DFB220029
:101140006E4B9846183343CB43C243CB43C203CBC9
:1011500003C2042221006A4816941792FFF70CFB81
:1011600043462200383343CB43C243CB43C203CB75
:1011700003C204222100634814941592FFF7FCFA7D
:1011800043462200583343CB43C243CB43C203CB35
:1011900003C2042221005C4812941392FFF7ECFA78
:1011A0004646220078360BCE0BC20BCE0BC20ACEBF
:1011B0000AC204222100554810941192FFF7DCFA6C
:1011C0002200534B9846183343CB43C243CB43C210
:1011D00043CB43C21B682100136005224D480E9487
:1011E0000F92FFF7C9FA43462200403343CB43C274
:1011F00043CB43C243CB43C243CB43C2062221006D
:1012000045480C940D92FFF7B7FA46462200703617
:101210000BCE0BC20BCE0BC20ACE0AC20422210097
:101220003E480A940B92FFF7A7FA22003C4B9846DF
:10123000103343CB43C243CB43C203CB03C204228C
:101240002100384808940992FFF796FA4346220095
:10125000303343CB43C243CB43C203CB03C204224C
:101260002100314806940792FFF786FA4346220090
:10127000503343CB43C243CB43C20322210055E04A
:10128000342700203820002034200020AC2000200B
:10129000C4200020302000202C2000203C200020F2
:1012A000B822002044200020F8230020042400203D
:1012B00000B00110102400201C240020282400204D
:1012C0004C2400205824002080B001106424002009
:1012D0007024002000B101107C240020882400200C
:1012E00094240020A0240020AC240020B824002056
:1012F000C4240020D0240020F424002080B1011058
:10130000002500200C250020182500202425002081
:1013100000B20110302500203C2500204825002087
:1013200080B2011054250020602500208F480494CD
:101330000592FFF721FA4646220068360BCE0BC213
:101340000BCE0BC20BCE0BC23368210013600522FB
:10135000874802940392FFF70FFA2200854B10335F
:1013600043CB43C243CB43C20322210082480094B3
:101370000192FFF701FACC2200235200BB50043245
:10138000BB500432BB506BE57C48FFF741F83DE5AC
:101390007B48FFF703F840E57A4E3AAC2200300074
:1013A0007949FEF7C7FF220078497948FEF7C2FF66
:1013B000220078497848FEF7BDFF22007749784837
:1013C000FEF7B8FF220077497748FEF7B3FF220007
:1013D00076497748FEF7AEFF220076497648FEF759
:1013E000A9FF220075497648FEF7A4FF220075493F
:1013F0007548FEF79FFF220074497548FEF79AFF73
:1014000059E561493AAA7348FEF794FF76E500234F
:101410005A4C20202360A360E36023616361A361D1
:10142000E36123626362083363600FF0B1FF05007C
:1014300063682060581E400880002D18FC20400082
:101440000FF0A6FF0300F933FF3328606561E06009
:1014500023616562E0612362A060A06147E5212508
:101460002224651B163C6C433C19BC4219D10FF079
:101470007DF90FF069FA0FF0F1FE05000FF09EFA0A
:1014800028000FF061FA6368206899000FF0C6F831
:101490000023236063600FF0E1FE0FF08FFA0FF07E
:1014A00065F90C3C2068A368191A0028DDD00FF0FC
:1014B000B5F8DAE700250924651B0F346C433419AD
:1014C000B442D4D0183C2300206808339842F7D0A7
:1014D000A368591C0FF0A2F8F2E7ECE70225EAE74F
:1014E0000425E8E70525E6E70325E4E70625E2E726
:1014F0000D25B5E71025B3E71125B1E71225AFE7B4
:101500001325ADE71425ABE71525A9E71625A7E7B1
:101510001725A5E71825A3E71925A1E71A259FE7B1
:101520001B259DE71E259BE71F2599E7202597E7AB
:10153000052595E7062593E7072591E708258FE719
:1015400009258DE70A258BE70B2589E70C2587E719
:1015500086E7022584E7032582E7042580E708253E
:10156000A9E70925A7E70725A5E7C0466C250020C0
:101570007825002000B3011084250020842000205D
:10158000AC200020C820002044D40110C8E801107D
:10159000E0200020ACAF0110F8200020B0AF011017
:1015A0001021002020EC011028210020B4AF0110F0
:1015B00040210020B8AF011058210020BCAF01101D
:1015C00070210020C0AF011088210020C4AF01109D
:1015D000A02100206C20002010B50120FFF7DEFBC9
:1015E00010BDC04610B50400034B0833036006F07D
:1015F000F1FE200010BDC0467CB6011010B50400FD
:10160000054B0833036006F0E5FE200004210FF0CF
:1016100005F8200010BDC0467CB601100023F0B5CF
:10162000036043608360154B04000E0083B0D50057
:101630009D4216D8002D0ED028000FF0A9FE4719A4
:101640002060A760002D0AD02A0031000BF0C0F8FE
:10165000676003B0F0BD002705608560F8E707000C
:10166000F6E7074810F06AF92068A168091A00280F
:1016700001D00EF0D3FF0FF079F8C046F8FFFF7FDE
:10168000CCAF0110F0B5C646040000B5002825D047
:101690001A4B1B4F98462600E068FFF7F3FFB56929
:1016A000A468002D14D06B68013B6B60002B0FD138
:1016B0002B689B68BB4214D1AB68013BAB60002B2D
:1016C00006D12B68DA6842450ED128005B6898473E
:1016D0001C2130000EF0A2FF002CDCD180BCB846EB
:1016E000F0BD28009847E7E7280090471C2130000C
:1016F0000EF094FF002CCED1F0E7C0463507001065
:1017000031070010F0B5DE4657464E464546E0B577
:10171000834685B0002800D199E05B46DB680193E1
:10172000002B00D186E0019BDB689946002B72D02C
:101730004B46DB689A46002B60D05346DC68002C91
:1017400042D0E668002E27D0F3689846002B2FD0B1
:101750004346DD68002D44D0EF68002F10D0F868B4
:10176000FFF7D0FF3B00DA69BF68100002930392D5
:10177000FFF788FF2C2102980EF050FF002FEED1CA
:10178000AF68E869FFF77EFF2C2128000EF046FFC6
:10179000002F26D03D00DFE7A568E069FFF772FF64
:1017A0002C2120000EF03AFF002D0DD02C00C8E7B0
:1017B000B568F069FFF766FF2C2130000EF02EFFB0
:1017C000002DE9D02E00BFE753469C68D869FFF78B
:1017D00059FF2C2150460EF021FF002C0ED0A246BE
:1017E000ABE743469D68D869FFF74CFF2C21404684
:1017F0000EF014FF002DDBD0A846A9E74B469C68ED
:10180000D869FFF73FFF2C2148460EF007FF002C58
:1018100001D0A1468CE7019DEB69AC6818000193EB
:10182000FFF730FF2C2128000EF0F8FE002C01D02D
:10183000019478E75B469C68D869FFF723FF2C2169
:1018400058460EF0EBFE002C01D0A34665E705B02C
:10185000F0BCBB46B246A946A046F0BD10B5040098
:1018600006F0C2FD024B20000833236010BDC046C5
:101870007CB60110F0B5DE4657464E4645468B46CF
:101880000221E0B59846531E8246894687B0022B56
:1018900004D90139931F89460A2B3DD853002A49A0
:1018A0009B189B005D180020CB58002102900391EB
:1018B00000216A680491D41A9A4236D0234B9C4284
:1018C00036D820000FF064FD0ACD04190290039071
:1018D0000494994209D000225B1A84188D180832AA
:1018E000C0CDC0C49A42F8D18018434603900093FB
:1018F00059464B46504602AA06F042FE029800287E
:1019000003D00499091A0EF089FE07B0F0BCBB465B
:10191000B246A946A046F0BD11000D2313398B42F3
:101920009B41032119408946B8E700240020CBE7FA
:101930000FF0DCFF02980499091A002801D00EF07C
:101940006DFE0EF013FFC0469C250020F8FFFF7FC0
:10195000F8B5CE46474680B51F00089B04000D0031
:1019600038000521160098460AF064FA89460029D5
:1019700000DDC9E04346012229002000FFF77AFF7D
:101980004346022229002000FFF774FF43460C2E35
:1019900031DD202229002000FFF76CFF182F32DDF7
:1019A000701C18210AF046FA0E00002E02D00C2EF0
:1019B00000D0E0E043461D2229002000FFF75AFF37
:1019C0007E1F132E00D88DE03B00233B042B57D9FC
:1019D0003B00193B042B00D8BBE03B00283B132BFA
:1019E00000D8B6E0042F51D8434603222900200036
:1019F000FFF740FF4AE01F2229002000FFF73AFFCF
:101A0000182FCDDCD1E70D2E62D00E2E00D1B8E01C
:101A10000F2E00D1E1E0042E00D1E5E0102E00D120
:101A2000E2E0052E00D1E6E0112E00D1E3E0062E23
:101A300000D1E7E0122E00D1E4E0072E00D1E8E06B
:101A4000132E00D1E5E0082E00D1E9E0142E00D1DC
:101A5000E6E0092E00D1EAE0152E00D1E7E00A2EDB
:101A600000D1EBE0162E00D1E8E00B2E01D0172EAE
:101A7000A6D143461B2229002000FFF7FBFE9FE76B
:101A800043460C2229002000FFF7F4FE3B00143BE4
:101A9000042B00D889E03B00193B042B00D877E0E9
:101AA0003B001E3B042B00D88BE0053B042B00D8E9
:101AB0006EE0053B042B00D877E0053B042B00D8F3
:101AC0007FE0053B042B4FD9373F042F18D811E096
:101AD00043461422290020007E1FFFF7CBFE132E61
:101AE00000D971E743460C2229002000FFF7C2FE0F
:101AF000042E35D84346082229002000FFF7BAFEFD
:101B0000C0BCB946B046F8BD43460D2229002000AE
:101B1000FFF7B0FE4B46012B00D12BE743460E22C8
:101B200029002000FFF7A6FE4B46022B00D121E73B
:101B300043460F2229002000FFF79CFE4B46042B52
:101B400000D017E74346102229002000FFF792FE3D
:101B500010E743460A2229002000FFF78BFE95E795
:101B60003B000A3B042B27D84346092229002000CA
:101B7000FFF780FEC4E7012EAAD00D2EA8D0022EBA
:101B800026D14346192229002000FFF773FE17E7EC
:101B90004346290020000822FFF76CFE43460B2233
:101BA00029002000FFF766FEAAE743460722290026
:101BB0002000FFF75FFEA3E73B000F3B042B00D99B
:101BC00064E74346062229002000FFF753FE97E70B
:101BD0000E2ED6D0032E00D01AE743461622290037
:101BE0002000FFF747FEEBE64346172229002000BE
:101BF000FFF740FEE4E64346182229002000FFF7E5
:101C000039FEDDE64346152229002000FFF732FEAB
:101C1000D6E643461C2229002000FFF72BFECFE624
:101C200043461A2229002000FFF724FEC8E6434657
:101C3000132229002000FFF71DFEC1E643461E22A5
:101C400029002000FFF716FEBAE6C046F0B5C646EA
:101C500000B5C6B0012800D176E02F4A1368013BD9
:101C60001360002B14D12D4C2D4D206800280BD073
:101C7000A368191A0EF0D2FC23000C3BA54207D032
:101C80001C0020680028F3D123000C3BA542F7D1AB
:101C9000244A1368013B1360002B08D1224B234ACE
:101CA0001868904203D0996801310EF0B7FC204AC1
:101CB0001368013B1360002B00D1B1E21D4A136889
:101CC000013B1360002B00D1AEE21B4A1368013BBD
:101CD0001360002B18D1194C194D230020680833CC
:101CE00098420DD0A368591C0EF098FC2300183BB5
:101CF000A54209D01C002300206808339842F1D186
:101D00002300183BA542F5D10E4B9868FFF7FAFC6B
:101D100046B080BCB846F0BD4820002028270020EF
:101D20009C2500202C2000206C2000207420002006
:101D3000302000203420002038200020A021002066
:101D4000C82000204C2700200022FA4B191D1A71D0
:101D50009A605A61D9601961F74B1A68551C1D6069
:101D6000012D00D164E2F54B1A68541C1C60012C53
:101D70000ED1F34D1022280000210C300AF022FD74
:101D8000F04B6C602B600023AB60FE239B052B6146
:101D9000ED4A136801331360012B00D183E2EB4A53
:101DA000136801331360012B00D176E2E84A13680F
:101DB00001331360012B04D10022E64B1A60043278
:101DC0005A60E54B1A68551C1D60012DA0D10023F7
:101DD000E24F00223B607B60BB6000233892399366
:101DE0000122002338AC3A923B9321000132DC48B7
:101DF00036943792FFF712FCDA4B9846230042469E
:101E000043CA43C3126821001A600222D6483494A0
:101E10003592FFF703FC43462200103343CB43C205
:101E200043CB43C243CB43C243CB43C20622210030
:101E3000CE4832943392FFF7F1FB0023414638221B
:101E4000403120003B637B63BB63FB633B647B648B
:101E50000AF0BEFC07222100C54830943192FFF7FA
:101E6000DDFB4646220078360BCE0BC20BCE0BC2F2
:101E70000BCE0BC20BCE0BC206222100BD482E9406
:101E80002F92FFF7CBFB2200BB4B9846283343CB66
:101E900043C243CB43C203CB03C204222100B74851
:101EA0002C942D92FFF7BAFB43462200483343CBD4
:101EB00043C243CB43C203222100B1482A942B9250
:101EC000FFF7ACFB43462200603343CB43C21B68A1
:101ED000210013600222AB4828942992FFF79EFB51
:101EE0004646220070360BCE0BC20BCE0BC20ACE7A
:101EF0000AC204222100A44826942792FFF78EFBF1
:101F00002200A24B9846103343CB43C243CB43C27B
:101F100003CB03C2042221009D4824942592FFF79D
:101F20007DFB012300225B4238923993210001326C
:101F3000984822942392FFF771FB01230C225B4205
:101F40003892399321000B3A934820942192FFF75D
:101F500065FB012365225B42389239932100643A84
:101F60008E481E941F92FFF759FB012371225B429A
:101F7000389239932100703A89481C941D92FFF7DA
:101F80004DFB0023CC22BB500432BB500432BB506B
:101F90000432BB500432BB500432BB5043462200D3
:101FA000303343CB43C243CB43C203CB03C20422EF
:101FB00021007C481A941B92FFF730FB4346220015
:101FC000503343CB43C243CB43C203222100764864
:101FD00018941992FFF722FB4646220068360BCE72
:101FE0000BC20BCE0BC2032221007048169417922D
:101FF000FFF714FB6E4B98462300424643CA43C387
:1020000043CA43C343CA43C3126821001A6005226E
:10201000684814941592FFF701FB434622002833C9
:1020200043CB43C243CB43C203CB03C204222100B0
:10203000614812941392FFF7F1FA434622004833A5
:1020400043CB43C243CB43C203CB03C20422210090
:102050005A4810941192FFF7E1FA4646220068367A
:102060000BCE0BC20BCE0BC20322210054480E94A0
:102070000F92FFF7D3FA534B98462300424643CAC8
:1020800043C343CA43C343CA43C3126821001A600F
:1020900005224D480C940D92FFF7C0FA43462200EA
:1020A000283343CB43C243CB43C243CB43C243CB8E
:1020B00043C20622210045480A940B92FFF7AEFA6C
:1020C0004646220058360BCE0BC20BCE0BC20BCEAF
:1020D0000BC233682100136005223D480894099221
:1020E000FFF79CFA3B4B98462300424643CA43C342
:1020F00043CA43C343CA43C343CA43C3062221005E
:10210000354806940792FFF789FA43462200303398
:1021100043CB43C243CB43C2032221002F48049444
:102120000592FFF77BFA43462200483343CB43C274
:1021300056E0C0464C2700203820002034200020E4
:10214000AC200020C4200020302000202C200020C3
:102150003C200020B8220020482000209C250020A0
:10216000A825002068B30110B4250020C025002058
:10217000E4250020F0250020E8B30110FC25002014
:1021800008260020142600202026002068B4011014
:102190002C2600203826002044260020502600202F
:1021A0005C260020802600208C2600209826002017
:1021B000E8B40110A4260020B0260020BC26002090
:1021C000C826002068B50110D4260020E026002093
:1021D000EC260020E8B50110F82600200427002096
:1021E0001B68210013600222854802940392FFF7C6
:1021F00015FA46462300583607CE07C33268210039
:102200001A6002227F4800940192FFF707FAC62263
:1022100000235200BB500432BB500432BB5077E560
:102220007948FEF7F5F849E57848FEF7B7F84CE548
:10223000774E38AC220030007649FEF77BF822005A
:1022400075497648FEF776F8220075497548FEF71D
:1022500071F8220074497548FEF76CF82200744941
:102260007448FEF767F8220073497448FEF762F875
:10227000220073497348FEF75DF8220072497348E3
:10228000FEF758F8220072497248FEF753F8220010
:1022900071497248FEF74EF865E55E4938AA704804
:1022A000FEF748F882E50023574C20202360A36006
:1022B000E36023616361A361E361236263620833C6
:1022C00063600FF065F8050063682060581E4008E1
:1022D00080002D18FC2040000FF05AF80300F9335D
:1022E000FF3328606561E06023616562E06123621D
:1022F000A060A06153E520252124651B153C6C439B
:102300003C19BC422CD10EF031FA0EF01DFB0EF040
:10231000A5FF00250924651B0F346C433419B44212
:10232000F1D0183C2300206808339842F7D0A36806
:10233000591C0EF073F9F2E705000EF03FFB280080
:102340000EF002FB6368206899000EF067F9002325
:10235000236063600EF082FF0EF030FB0EF006FA91
:102360000C3C2068A368191A0028CAD00EF056F950
:10237000C7E7CFE70225CDE70325CBE70425C9E76B
:102380000525C7E70625C5E70725C3E70825C1E7F3
:102390000925BFE7B0E70225AEE70325ACE7042532
:1023A000AAE70525A8E70625A6E70725A4E7082547
:1023B000A2E70925A0E70A259EE70B259CE70C2547
:1023C0009AE70D2598E70E2596E7112594E7122543
:1023D00092E7132590E714258EE715258CE716253F
:1023E0008AE7172588E7182586E7192584E71A253F
:1023F00082E71B2580E71E257EE71F257CE7C04678
:10240000102700201C27002084200020AC20002062
:10241000C820002044D40110C8E80110E0200020AA
:10242000ACAF0110F8200020B0AF01101021002047
:1024300020EC011028210020B4AF01104021002021
:10244000B8AF011058210020BCAF0110702100204E
:10245000C0AF011088210020C4AF0110A0210020CE
:102460006C20002010B50120FFF7F0FB10BDC04626
:1024700010B50400034B0833036005F0ABFF2000E8
:1024800010BDC046BCB8011010B50400054B0833A0
:10249000036005F09FFF200004210EF0BFF820002C
:1024A00010BDC046BCB80110F0B5C646040000B56A
:1024B000002825D01A4B1B4F98462600E068FFF7EE
:1024C000F3FFB569A468002D14D06B68013B6B6005
:1024D000002B0FD12B689B68BB4214D1AB68013B2A
:1024E000AB60002B06D12B68DA6842450ED128007C
:1024F0005B6898471C2130000EF090F8002CDCD16E
:1025000080BCB846F0BD28009847E7E72800904710
:102510001C2130000EF082F8002CCED1F0E7C0462E
:102520003507001031070010F0B5DE4657464E461D
:102530004546E0B5834685B0002800D199E05B466A
:10254000DB680193002B00D186E0019BDB68994694
:10255000002B72D04B46DB689A46002B60D0534666
:10256000DC68002C42D0E668002E27D0F36898463D
:10257000002B2FD04346DD68002D44D0EF68002F9C
:1025800010D0F868FFF7D0FF3B00DA69BF68100091
:1025900002930392FFF788FF2C2102980EF03EF879
:1025A000002FEED1AF68E869FFF77EFF2C212800ED
:1025B0000EF034F8002F26D03D00DFE7A568E06973
:1025C000FFF772FF2C2120000EF028F8002D0DD00F
:1025D0002C00C8E7B568F069FFF766FF2C213000D2
:1025E0000EF01CF8002DE9D02E00BFE753469C6882
:1025F000D869FFF759FF2C2150460EF00FF8002C38
:102600000ED0A246ABE743469D68D869FFF74CFF62
:102610002C2140460EF002F8002DDBD0A846A9E799
:102620004B469C68D869FFF73FFF2C2148460DF0C8
:10263000F5FF002C01D0A1468CE7019DEB69AC6849
:1026400018000193FFF730FF2C2128000DF0E6FF62
:10265000002C01D0019478E75B469C68D869FFF7AD
:1026600023FF2C2158460DF0D9FF002C01D0A346A2
:1026700065E705B0F0BCBB46B246A946A046F0BD32
:1026800010B5040005F0B0FE024B200008332360B3
:1026900010BDC046BCB80110F0B5DE4657464E46E8
:1026A00045468B460221E0B59846531E8246894630
:1026B00087B0032B04D90139D31F8946072B3DD896
:1026C00053002A499B189B005D180020CB5800211D
:1026D0000290039100216A680491D41A9A4236D07C
:1026E000234B9C4236D820000EF052FE0ACD04192E
:1026F000029003900494994209D000225B1A841836
:102700008D180832C0CDC0C49A42F8D18018434613
:102710000390009359464B46504602AA05F030FFFD
:102720000298002803D00499091A0DF077FF07B02A
:10273000F0BCBB46B246A946A046F0BD1100072337
:1027400011398B429B41032119408946B8E7002487
:102750000020CBE70FF0CAF802980499091A002864
:1027600001D00DF05BFF0EF001F8C046C022002042
:10277000F8FFFF7F0023F0B5036043608360154BD3
:1027800004000E0083B0D5009D4217D8002D0FD055
:1027900028000EF0FDFD47192060A760002D0BD02A
:1027A0002A0031000AF014F82000676003B0F0BD81
:1027B000002705608560F7E70700F5E706480FF09A
:1027C000BDF82068A168091A002801D00DF026FF85
:1027D0000DF0CCFFF8FFFF7FCCAF0110F0B5C6467F
:1027E00000B5B2B0012800D176E02F4A1368013B52
:1027F0001360002B14D12D4C2D4D206800280BD0D8
:10280000A368191A0DF00AFF23000C3BA54207D05C
:102810001C0020680028F3D123000C3BA542F7D10F
:10282000244A1368013B1360002B08D1224B234A32
:102830001868904203D0996801310DF0EFFE204AEC
:102840001368013B1360002B00D1F3E11D4A1368AC
:10285000013B1360002B00D1F0E11B4A1368013BE0
:102860001360002B18D1194C194D23002068083330
:1028700098420DD0A368591C0DF0D0FE2300183BE0
:10288000AC4209D01C002300206808339842F1D1E3
:102890002300183BAC42F5D10E4B9868FFF744FE7D
:1028A00032B080BCB846F0BD40200020EC230020B0
:1028B000C02200202C2000206C200020742000204A
:1028C000302000203420002038200020A0210020CB
:1028D000C8200020642700200022F54B191D1A7122
:1028E0009A605A61D9601961F24B1A68551C1D60D3
:1028F000012D00D1A6E1F04B1A68541C1C60012C7C
:102900000ED1EE4D1022280000210C3009F05AFFA4
:10291000EB4B6C602B600023AB60FE239B052B61AF
:10292000E84A136801331360012B00D136E2E64A0E
:10293000136801331360012B00D129E2E34A1368C5
:1029400001331360012B04D10022E14B1A600432E1
:102950005A60E04B1A68551C1D60012DA0D1002360
:10296000DD4F00223B607B60BB6001232AAC5B42F1
:102970002A922B9321002A00D84826AB2894299527
:10298000FFF7F8FE01230C225B422A922B932100D1
:102990000B3AD34824AB26942792FFF7EBFE012392
:1029A00065225B422A922B932100643ACD4822ABE8
:1029B00024942592FFF7DEFE012371225B422A92C6
:1029C0002B932100703AC84820AB22942392FFF742
:1029D000D1FE0023FB633B647B64BB64FB643B650B
:1029E000C24B98462300424643CA43C343CA43C32B
:1029F00003CA03C304222100BD481EAB20942192C8
:102A0000FFF7B8FE43462200203343CB43C243CBFB
:102A100043C203CB03C204222100B6481CAB1E9460
:102A20001F92FFF7A7FE43462200403343CB43C229
:102A300043CB43C203CB03C204222100AE481AABEE
:102A40001C941D92FFF796FE4646220060360BCE80
:102A50000BC20BCE0BC20ACE0AC204222100A74829
:102A600018AB1A941B92FFF785FEA54B98462300DE
:102A7000424643CA43C343CA43C303CA03C30422EF
:102A80002100A04816AB18941992FFF773FE434635
:102A90002200203343CB43C243CB43C203CB03C208
:102AA00004222100984814AB16941792FFF762FE97
:102AB00043462200403343CB43C243CB43C203CB04
:102AC00003C204222100914812AB14941592FFF71F
:102AD00051FE4646220060360BCE0BC20BCE0BC217
:102AE0000ACE0AC204222100894810AB1294139224
:102AF000FFF740FE0023B422BB500432BB50043227
:102B0000BB500432BB500432BB500432BB50814B2B
:102B100098462300424643CA43C343CA43C303CA39
:102B200003C3042221007C480EAB10941192FFF7DE
:102B300021FE43462200203343CB43C243CB43C252
:102B400003CB03C20422210074480CAB0E940F92F5
:102B5000FFF710FE43462200403343CB43C243CB32
:102B600043C203CB03C2042221006D480AAB0C947C
:102B70000D92FFF7FFFD4646220060360BCE0BC2DA
:102B80000BCE0BC20ACE0AC204222100654808AB54
:102B90000A940B92FFF7EEFD634B984623004246E2
:102BA00043CA43C343CA43C303CA03C30422210025
:102BB0005E4806AB08940992FFF7DCFD434622000D
:102BC000203343CB43C243CB43C203CB03C20422D3
:102BD0002100574804AB06940792FFF7CBFD43460C
:102BE0002200403343CB43C243CB43C203CB03C297
:102BF000042221004F4802AB04940592FFF7BAFD6E
:102C00004646220060360BCE0BC20BCE0BC20ACE5C
:102C10000AC204222100484801AB02940392FFF744
:102C2000A9FD962200235200BB500432BB5004324F
:102C3000BB5035E64148FDF7EBFB07E61F48FDF7C3
:102C4000ADFB0AE63E4E2AAC220030003D49FDF7BE
:102C500071FB22003C493D48FDF76CFB22003C49DA
:102C60003C48FDF767FB22003B493C48FDF762FB0F
:102C700022003B493B48FDF75DFB22003A493B48B7
:102C8000FDF758FB22003A493A48FDF753FB220072
:102C900039493A48FDF74EFB220039493948FDF7DA
:102CA00049FB220038493948FDF744FB23E6C0467A
:102CB000642700203820002034200020AC20002091
:102CC000C4200020302000202C2000203C200020A8
:102CD000B822002040200020C0220020CC2200206A
:102CE000D8220020E4220020F022002090B601101B
:102CF00014230020202300202C2300203823002030
:102D000010B7011044230020502300205C23002032
:102D10006823002090B701108C2300209823002006
:102D2000A4230020B023002010B80110BC230020F1
:102D3000C8230020D4230020E0230020842000208A
:102D4000C820002044D40110C8E80110E020002071
:102D5000ACAF0110F8200020B0AF0110102100200E
:102D600020EC011028210020B4AF011040210020E8
:102D7000B8AF011058210020BCAF01107021002015
:102D8000C0AF011088210020C4AF0110A021002095
:102D900050492AAA5048FDF7CDFACFE500234F4C01
:102DA00020202360A360E36023616361A361E3618A
:102DB00023626362083363600EF0EAFA0500636819
:102DC0002060581E400880002D18FC2040000EF0A6
:102DD000DFFA0300F933FF3328606561E0602361A7
:102DE0006562E0612362A060A061A0E51825192456
:102DF000651B0D3C6C433C19BC422CD10DF0B6FC5C
:102E00000DF0A2FD0EF02AFA00250924651B0F34EF
:102E10006C433419B442F1D0183C230020680833C5
:102E20009842F7D0A368591C0DF0F8FBF2E70500B3
:102E30000DF0C4FD28000DF087FD6368206899003F
:102E40000DF0ECFB0023236063600EF007FA0DF039
:102E5000B5FD0DF08BFC0C3C2068A368191A002806
:102E6000CAD00DF0DBFBC7E7CFE70225CDE703258E
:102E7000CBE70425C9E70525C7E70625C5E70725EC
:102E8000C3E70825C1E70925BFE7B0E70225AEE79C
:102E90000325ACE70425AAE70525A8E70625A6E74C
:102EA0000725A4E70825A2E70B25A0E70C259EE748
:102EB0000D259CE70E259AE70F2598E7102596E744
:102EC000112594E7122592E7152590E716258EE740
:102ED00017258CE744D401106C20002084200020AA
:102EE00070B50400006800280CD02369191A0DF091
:102EF00095FB002223002100A260E260083321CB71
:102F000021C1226170BDC046F0B5C64600B594B07F
:102F10001A9E04000D00170098460A2E00DD7FE07F
:102F20000A21404608F086FF684600F0E7FD64216C
:102F3000404608F07FFF08000A2108F07BFF0100EF
:102F400005A800F0DBFD0A21380008F073FF0AA88D
:102F500000F0D4FD6421380008F06CFF08000A215D
:102F600008F068FF01000FA800F0C8FD009B1B6877
:102F7000DA0700D5ECE09A0700D5E0E05A0700D563
:102F8000D4E01B0700D5CAE0059B1B68DA0700D513
:102F9000BCE09A0700D5B0E05A0700D5A4E01B07B3
:102FA00000D59AE00A9B1B68DA0700D58CE09A07E7
:102FB00000D580E05A0700D574E01B076BD40F984A
:102FC0000368DA075ED49A0753D45A0748D41B071C
:102FD00021D53300182229002000FFF75DFB0F9850
:102FE000002818D10A98002803D00E99091A0DF06C
:102FF00015FB0598002803D00999091A0DF00EFB5E
:103000000098002803D00499091A0DF007FB14B0AA
:1030100080BCB846F0BD1399091A0DF0FFFAE1E73C
:1030200033000122FFF738FB192E00DC78E733006C
:10303000022229002000FFF72FFB282E00DC6FE77B
:103040003300032229002000FFF726FB372E00DC87
:1030500066E73300042229002000FFF71DFB5FE72D
:103060003300172229002000FFF716FB0F98036892
:10307000ADE73300162229002000FFF70DFB0F9863
:103080000368A2E73300152229002000FFF704FBA4
:103090000F98036897E73300142229002000FFF7F8
:1030A000FBFA8CE73300132229002000FFF7F4FA23
:1030B0000A9B1B6881E73300122229002000FFF7DA
:1030C000EBFA0A9B1B6875E73300112229002000E8
:1030D000FFF7E2FA0A9B1B6869E733000E2229001A
:1030E0002000FFF7D9FA5DE733000D222900200008
:1030F000FFF7D2FA059B1B6851E733000C22290029
:103100002000FFF7C9FA059B1B6845E733000B2237
:1031100029002000FFF7C0FA059B1B6839E7330040
:103120000A2229002000FFF7B7FA2DE73300092211
:1031300029002000FFF7B0FA009B1B6821E733004D
:10314000082229002000FFF7A7FA009B1B6815E75B
:103150003300072229002000FFF79EFA009B1B681E
:1031600009E70FA8FFF7BCFE0AA8FFF7B9FE05A8FC
:10317000FFF7B6FE6846FFF7B3FE0DF0F7FAF3E788
:10318000F5E7F7E710B50120FFF728FB10BDC046B3
:1031900010B50400034B0833036005F01BF9200051
:1031A00010BDC046F8B8011010B50400054B083337
:1031B000036005F00FF9200004210DF02FFA200024
:1031C00010BDC046F8B80110F0B5DE464E46574671
:1031D0004546E0B58BB00393149B83468946029223
:1031E0000A2B00DD7DE0029B002B35D0002300265A
:1031F0009A469846002706AC04AD534608202E6038
:103200006B6027606760A7600EF0C2F803000833A8
:103210009C462A00A36020600ACA0AC06346636015
:10322000149B2200009349460023584605F0A8F954
:103230002068002803D0A368191A0DF0EFF90136B1
:103240000A2E03DD01239C460026E24401239C460E
:10325000029BE0449845D0D1039B002B3AD0002339
:1032600000279846093300269A4606AC04AD02971B
:10327000424653469B1A6B60002200230692079336
:10328000002308202E60A3600EF082F803002A00BD
:103290000833A360206082CA82C06360149B22004E
:1032A000009349460123584605F06AF92068002832
:1032B00003D0A368191A0DF0B1F901360A2E03DD07
:1032C00001239C460026E044029A039B01320292AD
:1032D0009A42CDD10BB0F0BCBB46B246A946A0463F
:1032E000F0BD012300225B420492059300230022DB
:1032F000069207930023082006ACA3600EF048F85E
:10330000030004AD2A0008330690A36042CA42C0FD
:103310006360149B494600935846022305F030F938
:103320000698002803D0A368191A0DF077F9149BAA
:10333000192B00DC57E701230C225B420492059312
:10334000002300220692079300230820A3600EF0BA
:103350001FF803002A0008330690A36042CA42C047
:103360006360149B2200009349460223584605F0EF
:1033700007F90698002803D0A368191A0DF04EF932
:10338000149B282B00DC2EE7012365225B4204926C
:103390000593002300220692079300230820A360D0
:1033A0000DF0F6FF03002A0008330690A36042CA1E
:1033B00042C06360149B2200009349460223584692
:1033C00005F0DEF80698002803D0A368191A0DF05E
:1033D00025F9149B372B00DC05E7012371225B42A2
:1033E00004920593002300220692079300230820ED
:1033F000A3600DF0CDFF030008330690A36006CD57
:1034000006C06360149B220000934946022358467D
:1034100005F0B6F80698002800D1E4E6A168091A7C
:103420000DF0FCF8DFE60698A168091A002801D023
:103430000DF0F4F80DF09AF9F5E7F4E7F3E7F2E7A9
:10344000F1E7F0E7EFE7EEE7EDE7ECE7EBE7C046A3
:1034500010B5040004F0C8FF024B200008332360BD
:1034600010BDC046F8B8011000226E4B30B5191DD2
:103470001A719A605A61D96019616B4B83B01A68EE
:10348000541C1C60012C5BD0684B1A68541C1C60D7
:10349000012C0ED1664D1022280000210C3009F0BD
:1034A00091F9644B6C602B600023AB60FE239B059D
:1034B0002B61614A136801331360012B18D05F4AF6
:1034C000136801331360012B0CD05D4A136801337C
:1034D0001360012B04D100225A4B1A6004325A6047
:1034E00003B030BD584901AA5848FCF723FFECE768
:1034F0000023574C20202360A360E36023616361B5
:10350000A361E36123626362083363600DF040FFEF
:10351000050063682060581E400880002D18FC20BC
:1035200040000DF035FF0300F933FF33286065617B
:10353000E06023616562E0612362A060A061BEE794
:10354000444D4149280001AAFCF7F4FE4249434892
:1035500001AAFCF7EFFE4249424801AAFCF7EAFE45
:103560004149424801AAFCF7E5FE4149414801AA08
:10357000FCF7E0FE4049414801AAFCF7DBFE404968
:10358000404801AAFCF7D6FE3F49404801AAFCF793
:10359000D1FE3F493F4801AAFCF7CCFE3E493F48D7
:1035A00001AAFCF7C7FE6FE70DF0CEF90DF056FE4D
:1035B000092409231B1B18245C432C19AC4226D177
:1035C0000DF0D4F80824F4E705000DF0F7F9280011
:1035D0000DF0BAF96368206899000DF01FF8002318
:1035E000236063600DF03AFE0DF0E8F90DF0BEF8CF
:1035F0000724DEE70624DCE70324DAE70224D8E721
:10360000D7E70024D5E70524D3E70424D1E7183C05
:103610002300206808339842D0D0A368591C0CF0CE
:10362000FDFFCBE77C27002038200020342000203D
:10363000AC200020C4200020302000202C200020BE
:103640003C200020B822002044D401106C2000202F
:1036500084200020C8200020C8E80110E0200020BD
:10366000ACAF0110F8200020B0AF011010210020F5
:1036700020EC011028210020B4AF011040210020CF
:10368000B8AF011058210020BCAF011070210020FC
:10369000C0AF011088210020C4AF0110A02100207C
:1036A00030B5436889B0002B01D109B030BD00228C
:1036B00000230492059300233A4904AA069300F0DC
:1036C00093FC059D049C2B1B302B29D9206815F0F9
:1036D000E3FC059B049A019345B29B1A182B41D930
:1036E000906915F0D9FC059B049A019344B29B1A8A
:1036F000302B30D9106B15F0CFFC2B4B02AA138066
:103700002A4BD071538000231000137155719471AE
:103710000CF0EEF84020002106F0F4F8049C059D22
:10372000AC420CD023002068083398420FD0A36825
:103730001834591C0CF072FFAC42F3D1049D002DDB
:10374000B3D006992800491B0CF068FFADE7183488
:10375000AC42E7D1F2E7164ADB1002215A43154882
:103760000EF004F9124ADB1001215A4311480EF001
:10377000FDF8049C059DA54208D104980699091AF4
:10378000002801D00CF04AFF0CF0F0FF2300206865
:103790000833984203D0A368591C0CF03FFF18343B
:1037A000E9E7C04630E70110E40700000605000025
:1037B000ABAAAAAA0CB9011010B586B002AC0CF0E5
:1037C0007BF822000E4B009403CB03C208236A4609
:1037D0000193002368461374FFF762FF0098A0422C
:1037E00003D0029901310CF019FF06B010BD00980A
:1037F000A04203D0029901310CF010FF0CF0B6FF8B
:1038000058B9011010B504000CF0C8F8200010BD24
:1038100010B51C00431A0298511A001B584308F0B7
:1038200009FB001910BDC046030010009A4200DDDC
:103830001800884200DA08007047C04670B500687A
:1038400015000C0015F028FCA84200DD2800A0425D
:1038500000DA200070BDC046F0B557464E46DE4641
:103860004546E0B587B00293836881469C4603696C
:103870008A460491059201929C4500D171E0C3688B
:10388000591C9B461F231C008846CA1714404444F9
:10389000D20E039164118918A4000B4064449B1A52
:1038A0005CD462465146551A5A460199ED00521AA7
:1038B000AD1867465E468846002D14DD002E33D0D5
:1038C0000121013EB140002B34D00122013B9A403E
:1038D0003868084220D02168013D0A432260002D4B
:1038E000ECD1434601930123019A9340029A002AA6
:1038F00025D1524612689A431300524613605B4624
:103900001F2B24D04B46039ADA6007B0F0BCBB46AD
:10391000B246A946A046F0BD2168013D9143216011
:10392000002DDED0002ECBD180211F26043F0906BA
:10393000002BCAD180221F23043C1206C8E752463E
:1039400012681343524613605B461F2BDAD10023E3
:103950004A46D360634604339360D6E72033043C81
:103960009FE762460368D31AC268DB009446604A48
:103970006344934200D1B7E00122002B00D0A2E0C3
:103980005B4B9A4200D91A001F325209930018006B
:1039900003930DF0FDFC4B461E68534683469C1B6B
:1039A000B24503D02200310017F0DAFA2200019864
:1039B0005A44011E00DC92E0554600230127804650
:1039C0000DE01468204310601F2B13D0581C9C1C62
:1039D0003B00834001399C460300002913D0380086
:1039E00098402C680442ECD1146884432000106095
:1039F0001F2BEBD1012301399C4601240023043500
:103A000004320029EBD14146150001911F2B01D151
:103A10000024151D029B002B5DD0634611680B43EB
:103A200013604B4652469B6801989A1A4B46DB68D6
:103A3000D2001B1AD218002A28DDB44601215646AE
:103A40000CE047462B681F432F601F2814D001301D
:103A50001F2C15D0013A0134002A16D00F000B009C
:103A6000A7408340B84637681F42EAD143462F68D3
:103A70009F432F601F28EAD1002004361F2CE9D174
:103A8000013A00240435002AE8D16646002E0DD004
:103A90004B461B693000991B0CF0C0FD00234A46C1
:103AA0009360D3604B46083303CB03C24A46039B63
:103AB0005B4413614B465A461A604A4600239560A0
:103AC0005360D46021E75A00934200D858E7094B6D
:103AD000180003935DE7614613688B43A0E7012359
:103AE00015009C46012495E703480DF027FFC046CA
:103AF000E0FFFF7FFCFFFF0F64B90110F0B5DE4669
:103B000057464E4645460023E0B503604360836058
:103B1000C360036108339A4683B0EB4682445E4635
:103B200053460D0006CB06C601235A4600215268B3
:103B30002B400400FFF790FEEB0FA2685B19216990
:103B40009B071700DB0F8A4200D114E1E068804632
:103B50001F2800D1F8E00130E06001204646B04067
:103B6000002B00D0A4E03B6883433B60EB179846F2
:103B70000323464633405B195B071000DB0F8A4284
:103B800000D1EBE0E668B1461F2E00D1C3E001266C
:103B90004E44E66001264F46BE40002B00D0B5E003
:103BA0000368B34303600723464633405B191B0792
:103BB0001000DB0F8A4200D111E1E668B1461F2EEA
:103BC00000D1BCE001264E44E66001264F46BE40CF
:103BD000002B00D095E00368B34303600F234646F3
:103BE00033405B19DB061000DB0F8A4200D1E9E0AD
:103BF000E668B1461F2E00D19CE001264E44E660E7
:103C000001264F46BE40002B00D075E00368B34349
:103C100003601F23464633405B199B061000DB0FF1
:103C20008A4200D1C1E0E668B1461F2E00D17CE097
:103C300001264E44E66001264F46BE40002B56D179
:103C40000368B34303603F23464633405B195B067A
:103C50001000DB0F8A4200D19AE0E668B1461F2EC1
:103C60005ED001264E44E66001264F46BE40002B42
:103C700026D10368B34303607F23404603405B19AA
:103C80001B06DB0F8A4227D0E0681F2861D0411C49
:103C9000E16001218140002B0ED0136819431160AF
:103CA000200003B0F0BCBB46B246A946A046F0BD1A
:103CB0003B681843386059E713688B431360EFE79C
:103CC00033000668334303607F23404603405B199B
:103CD0001B06DB0F8A42D7D15E46524603CA03C693
:103CE0005A46200000995268FFF7B6FDD8E7330026
:103CF000066833430360A6E7330006683343036076
:103D000087E7330006683343036067E733000668DC
:103D10003343036047E700260432E660A26039E7D8
:103D200000260432E660A2609EE700260432E660C8
:103D3000A26080E700260432E660A26060E7002609
:103D40000432E660A26040E700200432E060A26036
:103D500003E70021E160111DA1609AE75E4652462B
:103D600003CA03C65A46200000995268FFF774FD43
:103D7000A268216917E75E46524603CA03C65A463F
:103D8000390020005268FFF767FDA2682169EDE65F
:103D90005E46524603CA03C65A462000009952683E
:103DA000FFF75AFDA268216966E75E46524603CADC
:103DB00003C65A46200000995268FFF74DFDA268DD
:103DC000216940E75E46524603CA03C65A462000B0
:103DD00000995268FFF740FDA268216919E75E4625
:103DE000524603CA03C65A46200000995268FFF79C
:103DF00033FDA2682169F1E6206800280BD0236911
:103E0000191A0CF00BFC002322005146A360E3605A
:103E100021C921C223610CF0A9FCC0460368F0B59A
:103E20004E46994657464546DE4614004A46436884
:103E3000E0B50F00991AC9108A005218984613016C
:103E4000D2181302D2181304D3185B00624A5B180D
:103E5000824683B0934200D1BBE00122002B03D005
:103E60005A00934200D9A9E04B46FD1A002A00D01F
:103E700093E01823009300239B4601935D442800A0
:103E800026002368083008362860B34200D19BE042
:103E90002B60A368AB60636826606B60002363607F
:103EA0002372B9452ED04E465C464D46083609E091
:103EB0002360AB681836A3606B68183563601834EC
:103EC000BD4210D02000083020602B68B342EFD1F3
:103ED0003100102208F07CFC6B68183563601836DE
:103EE0001834BD42EED13B004A46183B9B1ADA0813
:103EF0003A4B5343DB00DB0802335A00D318DB0094
:103F00005B440093B84530D03E003D00009C08362D
:103F100009E02360AB681836A3606B6818356360EE
:103F20001834454510D020002B6808302060B3427B
:103F3000EFD13100102208F04BFC6B68183563603C
:103F4000183618344545EED14346DF1B183F234B46
:103F5000FF087B43DB00DB0801335A00D318009ACB
:103F6000DB0094469C44634600934B46002B06D0EE
:103F700053464A469B684846991A0CF04FFB5346F5
:103F80005A461A60009A5A60019A9A6003B0F0BCCF
:103F9000BB46B246A946A046F0BD0F4B9A4211D887
:103FA0005600B618F60030000DF0F2F933008346E3
:103FB0005B44019318235B4400935FE74B46084E34
:103FC000FD1AF0E71A00EBE71022310008F000FCC0
:103FD00061E704480DF0B2FC55555505ABAAAA0A95
:103FE000F8FFFF7F80B90110F0B5C64600B5006844
:103FF0008AB08846150016F09FF806AE071E23D13A
:1040000053E0012855D13A7802A90A743200002100
:104010000593D1546C68AB689C4233D020000830C3
:104020002060049BB34249D02360069B0193A360A8
:10403000059B636001936B6818336B6041460020F9
:1040400016F07AF8071E30D03800049616F00CF8F7
:104050000400030003900F28D3D9002203A904A869
:104060000DF064FE039B049006932200390008F0D3
:10407000AFFB0021039B049A0593D1546C68AB6895
:104080009C42CBD12100280004AAFFF7C7FE049868
:10409000B042D3D0069B591C01930CF0BFFA4146A5
:1040A000002016F049F8071ECED10AB080BCB846F1
:1040B000F0BD32000028AAD03000D6E7102231002F
:1040C00008F086FBB4E70498B04203D006990131AA
:1040D0000CF0A4FA0CF04AFB10B504000A491420B5
:1040E00004F014FE2100142004F0D8FDA2012301E5
:1040F0001343064A9363002C04D03823526B1340B9
:10410000034A136010BDC0465156001000400340E2
:104110003450034008239C46F0B54546DE465746DA
:104120004E4684440833E0B5050060469C46AC44E6
:104130006346ABB00593AB6000230C00EB602B74BF
:104140006B60009300220021CE4B04900DF066FFBF
:10415000002327682B700EAB9B4664680C93002FDE
:1041600000D108E124940F2C28D8012C00D0C8E1FC
:1041700028213B7804AA521813705A4600230D9444
:1041800013550D9B002203935F23039900930CA802
:104190005E3B0DF0E9FE0D9B0393022B1ED80C989D
:1041A000584503D00E9901310CF038FA28002BB095
:1041B000F0BCBB46B246A946A046F0BD24AE0022E4
:1041C00031000CA80DF0B2FD249B0C900E93220040
:1041D000390008F0FDFA249C0C9ACFE70022002356
:1041E000089209930023A84908AA0CA80A93FFF78C
:1041F000FBFE099B08990393581AC410A3001B19CE
:104200001A019B181A029B181A049A1852001219C4
:10421000302800D80BE1002A00D1A2E114AB1293A0
:1042200090C9002C00D1ADE024970F2F00D908E1F0
:10423000012F00D07EE14021237804AA5218137088
:1042400014AA00231397D355099B089A03939B1A2A
:10425000182B00D87EE197691AABD4691893002F08
:1042600000D147E124940F2C00D9FAE0012C00D0B2
:104270005AE158213B7804AA521813701AAA002355
:1042800019941355099B089A03939B1A302B00D855
:1042900059E1176B20AB546B1E93002F00D121E125
:1042A00024940F2C00D906E1012C00D035E17021B7
:1042B0003B7804AA5218137024AE20AA00231F943E
:1042C0001355129F26AB9946139C2493002F00D1BF
:1042D00001E107940F2C00D9DEE0012C00D016E19B
:1042E0004A463B783372002374601355199B3000A3
:1042F0001A00189903930DF055FF2498484503D0F0
:10430000B368591C0CF08AF901232B7000235F4F0E
:1043100098466B600DE04C4504D0B3682000591CF2
:104320000CF07CF901239C46E044434618370A2BE5
:1043300043D04B4633603B687C689A46002B37D0AD
:1043400007940F2C25D8012C76D14A461B7833725E
:10435000002374601355139A259B249C9A42DAD14A
:10436000002A05D02100129816F07AFD0028D2D13B
:1043700043466B60CFE71A00002C00D1FEE64448AC
:104380000DF0C4FA1A00002F00D15AE740480DF092
:10439000BDFA0022300007A90DF0C8FC079B306071
:1043A000B3602200514608F013FA079C3268CFE749
:1043B000002C00D0C4E04A46CAE7049818A90DF0C2
:1043C000F7FC1E9820AB984203D0209901310CF0E5
:1043D00025F918981AAB984203D01A9901310CF0BC
:1043E0001DF9129814AB984203D0149901310CF0C6
:1043F00015F9089C099EB4420CD0230020680833AC
:10440000984210D0A3681834591C0CF007F9A64242
:10441000F3D1089E002E00D1C1E60A993000891B15
:104420000CF0FCF8BBE61834A642E6D1F1E70C9993
:10443000184808F079FCDCE74A46002C88D048464A
:10444000AFE724AE0022310012A80DF06FFC249BD0
:10445000129014933A00210008F0BAF9249F129A9E
:10446000EFE624AE0022310018A80DF05FFC249B7B
:1044700018901A932200390008F0AAF9249C189A7F
:10448000FDE6C04644D401109CB90110C8200020AC
:1044900080AF0110A0B901100022300007A90DF073
:1044A00045FC079B2490B3602200390008F090F986
:1044B000079C249A17E724AE002231001EA80DF0B5
:1044C00035FC249B1E9020932200390008F080F9CF
:1044D000249C1E9AF2E61A00002C00D103E74948FA
:1044E0000DF014FA1A0024AE002C00D1E6E645487F
:1044F0000DF00CFA1A00002C00D1C0E641480DF076
:1045000005FA1A00002C00D138E618005FE61A0000
:10451000002C00D1E7E61800C6E720AA24AE002C44
:1045200000D1CBE61000CFE71AAA002C00D1A6E6F6
:1045300010009FE714AA002F00D182E6100089E73F
:1045400030480DF0E3F9304ADB1002215A432F487E
:104550000DF00CFA2C4ADB1001215A432B480DF0C8
:1045600005FA110029480DF001FAA868059B984248
:1045700003D0296901310CF051F80CF0F7F8089CD0
:10458000099EA64233D108980A99091A002801D039
:104590000CF044F80C985845E7D00E9901310CF016
:1045A0003DF8E2E718981AAB984203D01A99013106
:1045B0000CF034F8129814AB9842E0D01499013101
:1045C0000CF02CF8DBE7F5E71E9820AB9842E9D019
:1045D000209901310CF022F8E4E724984845F3D003
:1045E000B16801310CF01AF8EEE7BEE7D2E723001C
:1045F00020680833984203D0A368591C0CF00EF8C9
:104600001834BEE780AF0110ABAAAAAA0CB90110FA
:10461000D0238022962110B50A4C1B0692045A61C1
:104620002000890105F08AFD0221002004F030FA03
:104630000221012004F02CFA1023E26A9343024A7B
:10464000136010BD004003402C500340F0B5DE461F
:1046500057464E464546E0B50C00BBB0092806DD7E
:104660003BB0F0BCBB46B246A946A046F0BD06AB87
:1046700004934300DE4A1818C00086581018456895
:10468000002E00D121E234950F2D00D9F4E1012D47
:1046900000D04DE2337802AA137406AA00230595D0
:1046A000535510AA914612AA10924A4653601372AB
:1046B000059B4846591C03930DF00EFC25234946E3
:1046C0000093002248464968243B0DF04DFC059BB1
:1046D00048461A00049903930DF064FD4A46C54B01
:1046E00052689A4200D13EE2C34F01223900484647
:1046F0000DF058FD060018AB169303680836050048
:10470000B34200D109E21693836818936B6816A828
:10471000179300232E602B726B60626821680DF086
:1047200041FD06001EAB1C93036808360500B3422A
:1047300000D1ECE11C9383681E936B681D930023EA
:104740006B601D9A2B72AB4B2E6003929A4200D184
:1047500006E2012239001CA80DF024FD060024AB5E
:1047600022939B46036808360500B34200D1C8E196
:104770002293836824936B68239300232E60049E06
:104780006B602B722AAB059D2893002E00D196E119
:1047900034950F2D00D983E1012D00D0CEE1A02169
:1047A000337802AA521813702AAB002229955A5561
:1047B00028A806CC0DF0F6FC299C002C00D1B4E111
:1047C0000121289D8D4B8E4E64192A781000584087
:1047D0005B08014201D073409BB2500858405B080F
:1047E000014201D073409BB2900858405B080142DF
:1047F00001D073409BB2D00858405B08014201D001
:1048000073409BB2100958405B08014201D07340CD
:104810009BB2500958405B08014201D073409BB2E3
:10482000900958405B08014201D073409BB2D20905
:104830005A405B08114201D073409BB20135AC4233
:10484000C3D1DC4364BAA4B2092C00D86DE1632C57
:1048500000D87CE1FA239B009C4200D274E1694BB2
:10486000042605219C4200D874E130AB2D222EA8ED
:104870002E930DF079FA2E9B0393632C1BD99C4643
:10488000614B013E98465F4B66449A462000642186
:1048900007F0F8FA20004D00642107F0F3FA4346D0
:1048A0005B195B782700737043465B5D04003370CF
:1048B000023E5745EAD8092C00D8ECE0524B640080
:1048C0001A19527803991C5D4A70039B1C70239C33
:1048D0002F9A229BA0185B4500D104E124998842BD
:1048E00000D8DBE02E9930ADA94200D11BE1309D0C
:1048F000A84200D8F0E022A80DF054FC060036AF24
:10490000349703680836040034ADB34200D1F2E0B6
:1049100034938368AB6063686B60002363602372C9
:104920006A68344B26609A4200D116E101222800C1
:1049300036490DF037FC082290460CAE0A96036803
:1049400080440400434500D1CFE00A9383680C9370
:1049500063680B934346236000232372349863609B
:10496000B84203D0A96801310BF058FE2E9830AB45
:10497000984203D0309901310BF050FE28982AABB1
:10498000984203D02A9901310BF048FE22985845ED
:1049900003D0249901310BF041FE1C981EAB9842C4
:1049A00003D01E9901310BF039FE169818AB9842CE
:1049B00003D0189901310BF031FE109812AB9842D8
:1049C00004D04B46996801310BF028FE0A99104833
:1049D00008F0AAF90A980778002F30D00D4B0D2166
:1049E00000255D5F002398468C460400202213E0DA
:1049F000C8200020FFFFFF3F9CB90110FFFF00000F
:104A00000884FFFF0F27000034BA01106CCF01109B
:104A1000E0B90110CC34002041467D4B00291ED165
:104A2000BD4223D099690A42FCD11F60217801342C
:104A30000D394F4279412778C9B2002FEED1B042EB
:104A400003D00C9901310BF0E9FD049806AB9842B4
:104A500000D105E6069901310BF0E0FD00E6996909
:104A60000A42E2D099690A42F9D1DEE799690A421D
:104A7000FCD161461960D5E7002234A904A80DF0E5
:104A800055F9349B049006932A00310007F0A0FEEC
:104A9000349D049A02E63034E4B216E72E992AE7F0
:104AA000002234A928A80DF041F9349B28902A93BC
:104AB0002A00310007F08CFE349D289B75E6002DFE
:104AC00000D172E653480CF021FF06AA002D00D158
:104AD000E4E550480CF01AFF0022002100942EA8B3
:104AE0000DF09CFA0AE70F21F9E641463000083242
:104AF00007F06EFE2CE710223100380007F068FE48
:104B000009E710223100584607F062FE33E6102212
:104B100031001EA807F05CFE0FE61022310018A835
:104B200007F056FEF2E50F25E2E6002601219CE69D
:104B300006AA002D00D1B1E51000A5E72AAB002D93
:104B400000D132E61800B3E7022603218DE60126E4
:104B500002218AE6013E013987E62F480CF0EEFE7D
:104B60002D480CF0EBFE2C480CF0E8FE2E9830ABF4
:104B7000984203D0309901310BF050FD28982AABB0
:104B8000984203D02A9901310BF048FD22985845EC
:104B900003D0249901310BF041FD1C981EAB9842C3
:104BA00003D01E9901310BF039FD169818AB9842CD
:104BB00003D0189901310BF031FD109812AB9842D7
:104BC00004D04B46996801310BF028FD049806ABE0
:104BD000984203D0069901310BF020FD0BF0C6FD81
:104BE000CCE7DAE7E9E7E0E7E7E7C7E7CEE70A98E7
:104BF000B042EBD00C9901310BF010FDE6E7349890
:104C0000B842B3D0A96801310BF008FDAEE7C04649
:104C10000040034080AF0110C8B90110F0B5DE4676
:104C2000454657464E46E0B5C30F9B46C317B3B043
:104C3000C518049106925D40092D00D887E2632DC6
:104C400000D813E2FA239B009D4200D29EE2A24BC1
:104C50009D4200D897E2A14B28009846A04B01271F
:104C60009946A04BA04C9A4608E04E4500D81DE25C
:104C7000564500D83BE2A64200D841E29B490600D7
:104C800007F000F9390004374645EED8CE1C5C46E3
:104C90000AAB2D2208A8E1190793089303900DF0A1
:104CA00063F8089A5B46944663449A46771E8A4B9B
:104CB0008F4E9B46B04657442800642107F0E2F827
:104CC00028004C00642107F0DDF843461B195B788F
:104CD0002E007B7043461B5D05003B70023F5E4526
:104CE000EAD8FA2334009B0046469C4200D3CDE12B
:104CF0003035EDB25346039A1D7052687D4B0592D4
:104D00009A4200D14AE27C4B0122190003989A464C
:104D10000DF048FA060010AB0E9303680836050044
:104D2000B34200D1F5E10E93836810936B680F9343
:104D300000236B602B72049B2E60DA0F0492DA174B
:104D40009C185440092C00D811E2632C00D812E2C0
:104D5000FA239B009C4200D20FE25F4B9C4200D89A
:104D60000FE25F4B200098465E4B012599465E4B53
:104D70005A4F9B4608E0464500D8A8E14E4500D86A
:104D8000B8E15E4500D8BEE15849060007F07AF860
:104D90002B000435BE42EED8049E16AB2D227119AD
:104DA00014A814930CF0E0FF149B9C466644B14693
:104DB000632C1AD94E4E484BB0469B46023D4D449B
:104DC0002000642107F05EF820004F00642107F006
:104DD00059F84346DB195B7826006B704346DB5D70
:104DE00004002B70023D5E45EAD8092C00D83AE158
:104DF0004A463F4E640033195B78345D53704B462E
:104E00001C700F9C159A0E9B10A9A0188B4200D104
:104E10007BE11099884200D844E1149916ADA9426B
:104E200000D18EE1169DA84200D852E10EA80DF0E7
:104E3000B9F905001AAB9B461CAB1A93059303689E
:104E400008350400AB4200D175E11A935B468268D5
:104E50009A605B4662685A6000235A466360237218
:104E60005268244B25609A4200D194E101225146B8
:104E700058460DF097F9050022AB209303680835DA
:104E80000400AB4200D150E1209383682293636811
:104E90002193002363602372069B2560DA0F04923E
:104EA000DA179D185540092D00D84EE1632D00D822
:104EB0005FE1FA239B009D4200D26AE1064B9D42CE
:104EC00000D85CE1064B28009846064B0124994621
:104ED000054B024F9A461AE00F2700009F860100FB
:104EE0003F420F007F969800FFE0F5051027000075
:104EF00034BA0110FFFFFF3F30E70110464500D8EC
:104F0000D2E04E4500D8F7E0564500D8F6E0C54956
:104F1000060006F0B7FF23000434BE42EED8049E1C
:104F200028AB2D22311926A8994626930CF01CFF98
:104F3000269B9C4666440496632D1BD9B446BA4B07
:104F4000BA4E9A46B046023C64442800642106F0FA
:104F500099FF28004F00642106F094FF4346DB19B7
:104F60005B782E0063704346DB5D05002370023CD6
:104F70005645EAD8092D00D88FE0AC4B6D005A1980
:104F8000527804995D5D4A70049B22A91D70219C92
:104F9000279A209BA0188B4200D1B8E02299884222
:104FA00000D87DE02699494500D1CCE0289DA84253
:104FB00000D895E020A80DF0F5F807002EAE2C964D
:104FC0000368083704002CADBB4200D1A7E02C9346
:104FD0008368AB60636829006B6000230120276051
:104FE00063602372FFF732FB2C98B04203D0A968AC
:104FF00001310BF013FB2698484503D02899013165
:105000000BF00CFB209822AB984203D0229901317F
:105010000BF004FB1A98059B984204D05B469968F4
:1050200001310BF0FBFA149816AB984203D0169995
:1050300001310BF0F3FA0E9810AB984203D010999F
:1050400001310BF0EBFA0898079B984204D0039BC0
:10505000996801310BF0E2FA33B0F0BCBB46B246BE
:10506000A946A046F0BD3034E4B2C8E65C460AABBF
:105070002D2208A8A11C0793089303900CF074FE3E
:10508000089A5B46944663449A46684E52466D00C1
:1050900073195B78755D53702CE63035EDB273E7AC
:1050A000269987E71499C1E65C1D38E705310AABFC
:1050B00008A82D2259440793089303900CF054FE3E
:1050C000089B5C469C466444A2463E00EEE55D1D9E
:1050D00062E600220021009414A80CF09FFFA8E6CD
:1050E00000220021009426A80CF098FF65E78F1D90
:1050F0004E1DCCE59D1D4FE69C1D10E7DC1D0EE707
:10510000CF1D8E1DC3E5DD1D46E60F2182E60F2172
:1051100045E71022310010A807F05AFB06E61022DE
:105120003900300007F054FB54E71022290022A870
:1051300007F04EFBABE610222900059807F048FB6C
:1051400087E60F256FE60F2531E70124E7E65C4689
:105150000AAB2D2208A8611C0793089303900CF05A
:1051600003FE089A5B46944663449A46C0E50125CF
:1051700012E60224D3E602250EE603250CE60424FB
:10518000CDE6042508E60326042780E5022603274A
:105190007DE50324C3E626480CF0D0FB24480CF040
:1051A000CDFB0898079B984204D0039B9968013176
:1051B0000BF034FA0BF0DAFA149816AB984203D0DD
:1051C000169901310BF02AFA0E9810AB9842E8D0EC
:1051D000109901310BF022FAE3E7F5E71A98059BE5
:1051E0009842E9D05B46996801310BF017FAE3E782
:1051F0002C98B04203D0A96801310BF00FFA269821
:10520000484503D0289901310BF008FA209822ABC9
:105210009842E3D0229901310BF000FADEE7EEE785
:10522000F4E7C046102700000F27000034BA011031
:10523000C8B90110F0B55746DE464E464546E0B5C2
:10524000C30F9A46C317C41889B05C40092C00D814
:1052500099E0632C68D9FA239B009C4200D2A4E019
:10526000594B9C4200D89DE0584B20009846584B23
:1052700001279946574B584D9B4607E046456CD948
:105280004E4500D879E05E4500D879E053490600E4
:1052900006F0F8FD39000437AE42EFD8CD1C02AB62
:1052A0009B46390004AB51442D225846019302938A
:1052B0000CF05AFD029B9C46E244494B013D984646
:1052C000414B554499462000642106F0DBFD200047
:1052D0004E00642106F0D6FD43469B195B782700FB
:1052E0006B7043469B5D04002B70023D4F45EAD82E
:1052F000FA239B009F4227D23034E4B253465946EA
:1053000002201C70FFF7A2F90298019B984204D07A
:105310005B46996801310BF081F909B0F0BCBB46DE
:10532000B246A946A046F0BD02AB9B4604AB019332
:10533000029353462D22991C58460CF015FD029BF2
:105340009C46274BE24498464346524664001B194C
:105350005B78537043461C5DD0E702AB9B4605313A
:1053600004AB51442D225846019302930CF0FCFCEF
:10537000029B3D009C46E2449FE78F1D4D1D8EE73A
:10538000CF1D8D1D8BE702AB9B4604AB01930293AF
:1053900053462D22591C58460CF0E6FC029B9C46B5
:1053A000E244A9E70325042779E70225032776E7E6
:1053B0000298019B984204D05B46996801310BF03A
:1053C0002DF90BF0D3F9C0460F2700003F420F0024
:1053D0007F969800FFE0F5059F86010010270000EA
:1053E00034BA011070B5056888B004AC0294002D81
:1053F00030D0280014F038FE060001900F281AD88B
:10540000012813D16A462B781374230000220390DD
:1054100002A91A540320FFF719F90298A04203D0F9
:10542000049901310BF0FAF808B070BD2300002890
:10543000ECD0200007E0002201A902A80CF076FCC5
:10544000019B029004933200290007F0C1F90198F2
:10545000029BDBE705480CF059FA0298A04203D002
:10546000049901310BF0DAF80BF080F980AF0110EC
:10547000F0B54F464646D646456AC0B50E0041696E
:10548000C2696F1ABB109946836904009B1ADB102E
:105490009C469A0062441301D2181302D2181304D6
:1054A000D3184A465B00013A634494465200624472
:1054B000D000821A9B18A068226982B0121AD210FA
:1054C0009446920062441001804642441002804695
:1054D0004244100480464244520062449A18594B98
:1054E0009A4200D19AE0236862689846EB1A9B10B2
:1054F000D31A012B37D9FC2040000BF049FF68601C
:10550000A769756838000830386033689846002B02
:1055100063D001950F2D17D8012D00D07AE01B78AC
:105520003B7200237D604355636A1A1D5B686262AB
:105530001A00F932FF32E3612262A36102B0E0BCDB
:10554000BA46B146A846F0BD0022380001A90CF0C9
:10555000EDFB019B3860BB602A00414607F038F93B
:10556000019D3868DDE74B46023399465B009A425D
:1055700038D8951C002A00D101328023AD189B0534
:105580009D424ED2A8000BF003FF4B468246EA1A1A
:105590005208636A92005244616990461A1D914212
:1055A00003D04046521A15F0DBFC6368206899006E
:1055B0000BF034F853466560236043463D00636159
:1055C0001B684544E360F933FF3323612B68656250
:1055D000E361F933FF3323628DE7002DA1D01A4830
:1055E0000CF094F94B46D21A5208920090440435BC
:1055F000414506D9A942E0D040466A1A15F0B0FCF0
:10560000DBE7A942D9D06A1A381D801A404415F048
:10561000A7FCD2E7002D00D183E79DE70B480CF0F3
:105620008DF90CF063F90BF08FF9FC21636A4900E6
:1056300058680AF0F3FF0BF011FE0BF0BFF90BF006
:1056400095F8C0465555550580AF0110E4B90110D5
:10565000F0B5DE4657464E464546E0B54C4B85B064
:105660009B69DB0616D4082398464A4DA8441021AE
:10567000474A93691942FCD11468E4B20A2C24D039
:10568000252C0ED0444B1B78002B0ED1404B9B6930
:10569000DB06ECD505B0F0BCBB46B246A946A04639
:1056A000F0BD3D4F3B78002B3CD06B6899465F1CAA
:1056B0002B68434560D0AA6897423DD84A469C541F
:1056C00000232A686F60D355E0E7344E336AB4692B
:1056D000183B9C424AD020002E4F083020603B6887
:1056E0009B467B689A465B46002B47D05346039304
:1056F0000F2B2BD8012B47D15B461B7823725346C7
:105700005246636000238354B3691833B3610024A5
:105710007A68234B0021380000940CF07FFC1E4B6C
:105720001C70B3E71B48009300211D4B42680CF02E
:1057300075FC01233B70A9E7012300220093494631
:10574000002328000CF06EFB2B68B7E70022200036
:1057500003A90CF0EBFA039B2060A3605246594664
:1057600007F036F8039B20689A46C8E7094F3000D7
:105770003900FFF77DFECAE70F229DE75346002B55
:10578000BDD008480CF0C2F8002BB8D0E6E7C04600
:10579000004003406C200020E634002084200020DC
:1057A00044D4011080AF0110F8B557464E46DE468E
:1057B00045461400E0B506000F0001294BD08023B8
:1057C0009B0599424ED28D0028000BF0E1FD2A0086
:1057D0000021804606F0F6FF18239B46B3440023C1
:1057E000B568B360002D24D0994608339A46B24478
:1057F00005E0126822601B681C60002D19D02C0087
:105800003900E06A06F03EFB8B0043441A682D68BD
:10581000002AEED1B26822605246B4601A60236852
:10582000002B16D04B4642469B0089469C50002DCB
:10583000E5D130687168584502D089000AF0EEFE63
:10584000434677603360F0BCBB46B246A946A046EB
:10585000F8BD8946D1E70023836118339846804418
:10586000C346BCE70CF042F80BF06EF82368736196
:105870000BF0F4FC0BF0A2F80AF078FFF0B5DE466E
:1058800057464E4645460B00E0B506006E4A87B0C7
:10589000884603CB0BF038FD7368070019009B4660
:1058A00006F0F0FA8B009A465246336889469B58B8
:1058B000002B0DD01C68E56AAF4252D02468002C42
:1058C00006D0E56A5946280006F0DCFA8945F3D08F
:1058D00030200BF05DFD0023040008C00C33994616
:1058E000A1444B46636043461B689B4643465D6844
:1058F0005B46002B00D175E004950F2D40D8012D9B
:1059000000D078E01B784A46237304AB9846002306
:10591000A5605355636273693100039301234046C8
:1059200000937268F36810310CF0D8F843461B7886
:10593000002B35D15346E7623768FD182B68002BE2
:1059400041D01B6823602B681C60F3680133F3604F
:1059500020001C3007B0F0BCBB46B246A946A046AA
:10596000F0BD43465A68A3689A42A7D1002AEFD0F7
:1059700043466168186815F073FA0028E8D09DE77F
:1059800004AB0022190098460CF0D0F9049B60602B
:10599000E3602A00594606F01BFF049D6268B6E7E3
:1059A00043463000596803AAFFF7FEFE38007168CD
:1059B00006F068FA8B009A465346E7623768FD188E
:1059C0002B68002BBDD1B368B4602360002B05D0D9
:1059D000D86A716806F056FA8900CC513300083352
:1059E0002B60B2E704AB4A469846002D00D18EE703
:1059F00016480BF08BFF04AB4A469846002D00D1A9
:105A000085E74846C5E70AF09FFF302120000AF0ED
:105A100005FE0BF023FC636A002B04D020001C3031
:105A20000322010098476068814503D0E368591C50
:105A30000AF0F4FD302120000AF0F0FD0AF096FE95
:105A40000AF0BCFF0AF092FE07690FC780AF011091
:105A500070B5050086B00A293AD08368002B34D08F
:105A60000122214B21481A704B005918204BC900C4
:105A7000C918FFF703FF00230493AB6802AE0400CC
:105A8000002B07D00222290030009847EB68AA6853
:105A9000059304926D4631000822280006F098FE16
:105AA0003300220003CA03C3230006CD06C3049AB1
:105AB000A368E1680493A260059A0591E260002B57
:105AC00003D00322310030009847012006B070BD9A
:105AD0000020FBE7B368002B03D003223100300025
