:020000041000EA
:1000000000B50C4B00219960042159610A4919601F
:100010000A490B480160002159600121996001BC27
:10002000002800D0004707480749086003C880F34C
:10003000088808470000001800031F00180200038A
:10004000F40000180001001008ED00E000000000BE
:1000500000000000000000000000000000000000A0
:100060000000000000000000000000000000000090
:100070000000000000000000000000000000000080
:100080000000000000000000000000000000000070
:100090000000000000000000000000000000000060
:1000A0000000000000000000000000000000000050
:1000B0000000000000000000000000000000000040
:1000C0000000000000000000000000000000000030
:1000D0000000000000000000000000000000000020
:1000E0000000000000000000000000000000000010
:1000F0000000000000000000000000002CEC210DBA
:1001000000200420F7010010C3010010C5010010F9
:10011000C1010010C1010010C1010010C101001097
:10012000C1010010C1010010C1010010C701001081
:10013000C1010010C1010010C9010010CB01001065
:10014000CD010010CD010010CD010010CD01001037
:10015000CD010010CD010010CD010010CD01001027
:10016000CD010010CD010010CD010010CD01001017
:10017000CD010010CD010010CD010010CD01001007
:10018000CD010010CD010010CD010010CD010010F7
:10019000CD010010CD010010CD010010CD010010E7
:1001A000CD010010CD010010CD010010CD010010D7
:1001B000CD010010CD010010CD010010CD010010C7
:1001C00000BE00BE00BE00BE00BE00BE00F04BF888
:1001D000103800BEF2EB887144870310708703105B
:1001E0003402001090A31AE700202149086006C8D5
:1001F00081F3088810471F48006800282FD10DA4FC
:100200000ECC002902D000F012F8F9E71A491B4A77
:10021000002000E001C19142FCD1194988471949E9
:1002200088471949884700BEFDE701C901C29A42C3
:10023000FBD3704770870310C0000020301B0020E4
:10024000E0A103100000042000000420E0A103103E
:1002500000100420001004200000000070470B482C
:100260001DF044FE0047EFF30580C0B27047000068
:1002700008ED00E0000000D0301B0020043C00200E
:1002800075C70110316E011035C7011057560000B7
:1002900006005250ABB36053342403100600525092
:1002A000861C030250240310060052505422A29DC3
:1002B0009CF6021005005250DE65F468E0A10310C0
:1002C000F8B5C046044B10B5002B03D003490448D1
:1002D00000E000BF10BDC0460000000078390020DB
:1002E00060E20210014B03607047C04680E20210DA
:1002F000C820704710B5FFF7FBFF10BD704710B561
:100300000400FFF7EFFF0421200023F03FF8200056
:1003100010BD0000014B03607047C04680E2021030
:1003200010B50400024B0360FFF7DCFF200010BD96
:10033000C0E2021010B50400FFF7F2FF0C2120000C
:1003400023F024F8200010BDF0B585B003AC0027E1
:100350002770124D01260096012322002321280038
:1003600022F07EFA26700096012322002321280025
:1003700022F076FA072323700096063B2200232101
:10038000280022F06DFA132323700097123B2200FD
:100390002321280022F064FA05B0F0BD501500209A
:1003A00010B584B00400104800230093023303AA60
:1003B000232122F061FA002812DD03AA13781B0220
:1003C000507818181EF0C2F8084A094B1EF02FF892
:1003D0001EF0D4F86168A26810F080FD04B010BD72
:1003E00001204042FAE7C04650150020CCCCCCCCCE
:1003F000CCCC0C4010B582B0040003689B689847D1
:100400006168A268C8230093BE3B10F05CFD02B097
:1004100010BD000010B50400FFF77CFF034B236004
:10042000002363609633A360200010BDC0E2021079
:10043000014B03607047C04644E50210002303E00F
:10044000C218002111710133122BF9D9704710B570
:100450000368DB68984710BD401800797047002991
:1004600005D0122905D040180271012070470020E4
:10047000FCE70020FAE710B50400FFF7D9FF1821C8
:10048000200022F083FF200010BD10B50400836817
:10049000002B02D0032201009847200010BD10B5A8
:1004A00004004368013B4360002B0BD103689B6849
:1004B0009847A368013BA360002B03D12368DB6846
:1004C0002000984710BD0000014B03607047C046F4
:1004D00044E5021010B504000068A168091A00285C
:1004E00001D022F053FF200010BD70B50600046853
:1004F000456803E0200024F0A5FA1834A542F9D19C
:100500003000FFF7E7FF300070BD10B50400343055
:1005100024F098FA20001C3024F094FA2000FFF711
:10052000E4FF200010BD70B582B004000E00551A23
:1005300001950F2D0ED8009420682A00310024F078
:10054000AFFA002200920199616023685B181A706B
:1005500002B070BD002201A924F056FA2060019B70
:10056000A360E8E770B504000D00030008330360E2
:1005700000290AD008002CF0AFFF2A180023290018
:100580002000FFF7D0FF200070BD014824F034F8B0
:10059000D4E2021070B582B00400150001AAFFF782
:1005A000E1FF260018360C22002130001EF056FD17
:1005B0000822002130001EF051FD00236362A56176
:1005C000034B6362034B2362200002B070BDC04640
:1005D0007D060010FD050010022A0AD007D8002A67
:1005E00003D0012A03D1016001E0034B0360002026
:1005F00070470B680360FAE72CE5021010B5002A7B
:1006000004D0012A06D0FFF7E7FF01E0024B0360A8
:10061000002010BD0160FBE72CE5021070B50C0056
:10062000150004E001CCFC21490022F0AFFEAC42F1
:10063000F8D370BD10B504000368002B09D0426ADE
:1006400004324169FFF7EAFF20686168890022F0FF
:100650009DFE200010BD10B586B00C6811006846E4
:1006600024F0D8FA6846A047684624F0EBF906B0B3
:1006700010BD684624F0E6F922F026FF10B50A0006
:1006800001000020FFF7E7FF10BDF0B5C64600B53A
:1006900088461700CE68043606E0200024F0D2F920
:1006A0001834A542F9D10436FB68B34204D9346842
:1006B0002500F935FF35F4E74246D268934215D05C
:1006C00043461C689D6803E0200024F0BBF9183401
:1006D000A542F9D17C683D6803E0200024F0B2F91E
:1006E0001834A542F9D180BCB846F0BD43461C6819
:1006F0003D6803E0200024F0A5F91834A542F9D1A3
:10070000F1E700B589B00B6800934B6801938B68E3
:100710000293CB680393136804935368059393681B
:100720000693D368079304AA6946FFF7AEFF09B0A2
:1007300000BD10B588B0040083680093C3680193BE
:10074000036902934369039383690493C36905931F
:10075000036A0693436A0793030004AA6946FFF7F6
:10076000D0FF2000FFF766FF200008B010BD00009A
:1007700010B5084B8B4205D348004018C00023F049
:100780007FFC10BD044B994201D923F025FF23F0D3
:1007900013FFC04655555505AAAAAA0AF8B5070081
:1007A0000E0015000C0000E001C4AC4212D2002281
:1007B00015213800FFF7DCFFF6E722F061FF220089
:1007C00031003800FFF72AFF23F0C4FB22F092FF2C
:1007D00022F07AFEF8BD10B50800910022F0D6FD97
:1007E00010BD10B50168426803001833994201D06A
:1007F000FFF7F1FF10BDF8B504000E00170015005B
:1008000001E018341835B44213D02100280024F038
:10081000F5FCF6E722F034FFBD4205D123F09AFB48
:1008200022F068FF22F050FE380024F00BF9183750
:10083000F2E72800F8BD0000F8B504000E0017002C
:10084000551AEA1093009B1819015B1819025B18DE
:1008500019045918490089180B4B9D420ED80029DC
:100860000FD00022FFF784FF020022605519A56017
:1008700039003000FFF7BFFF6060F8BD034823F088
:10088000D3FE0022F1E7C046F8FFFF7F08E3021025
:1008900010B582B004000091019200230360436010
:1008A000836013005200D218D2008A180023FFF789
:1008B000C3FF04E02000FFF70DFE22F005FE20003C
:1008C00002B010BD10B50800302122F05FFD10BD50
:1008D00070B505000C0008001C30FFF7D6FD201D88
:1008E00024F0B0F821002800FFF7ECFF70BD70B5D0
:1008F000050004E00C682800FFF7EAFF210000294A
:10090000F8D170BD10B504008168FFF7F0FF2068D2
:100910006268920000211EF0A1FB0023E360A36047
:1009200010BD10B50400FFF7EDFF2000FFF759FFE1
:10093000200010BD10B500238022920591425B413A
:10094000002B03D1880023F09BFB10BD8023DB0527
:10095000994201D323F040FE23F02EFEF0B585B07E
:1009600004000F00152138001DF014FB451C08235E
:10097000029303300390082814D802AB1968616011
:10098000002201A8FFF7D6FF206063685B1B5B08AD
:100990009B00C618AD0075192A0031002000FFF732
:1009A000FDFE01E003ABE9E766613368E3601A002E
:1009B000F932FF322261043D65622D68E5612A004B
:1009C000F932FF322262A360152138001DF0E2FAED
:1009D0004B005918C9006D18A56105B0F0BD22F093
:1009E0004FFE20686168890022F0D0FC002323605C
:1009F000636023F0AFFA22F07DFE22F065FD10B5B2
:100A000004000023036043608360C36003614361AB
:100A10008361C361036243620021FFF79FFF2000EF
:100A200010BD10B50400282200211EF017FB200085
:100A3000FFF7E5FF200010BD10B504004168002954
:100A400002D00068FFF744FF200010BD10B500235E
:100A50008022920591425B41002B03D1880023F054
:100A60000FFB10BD8023DB05994201D323F0B4FDB9
:100A700023F0A2FD30B583B00C00002201A8FFF7DF
:100A8000E5FF0500A20000211EF0E8FA280003B0EF
:100A900030BD70B5040006001836066001234360BF
:100AA00000238360C360FE2292050261436183617B
:100AB000103023F031FE0500636883420CD2012818
:100AC00004D001002000FFF7D5FF02E00023A3615E
:100AD00000E0060026606560200070BD2000FFF782
:100AE00020FF22F0F1FCF8B50400160003688D0029
:100AF0005B59002B05D01B68136003685B591A60B3
:100B0000F8BD8368136082601368002B06D0076805
:100B10004168D86A1DF03EFA89007E502368083487
:100B20005C51EDE710B50C008869002801D0FFF793
:100B3000B6FC1C21200022F029FC10BD70B5050078
:100B40000C00002C0AD0E1682800FFF7F7FFA66828
:100B500021002800FFF7E6FF3400F2E770BD10B572
:100B60000C0008001430C969FFF7E8FF2C212000B1
:100B700022F00CFC10BD70B505000C00002C0AD052
:100B8000E1682800FFF7F7FFA66821002800FFF7BB
:100B9000E6FF3400F2E770BD10B542684B689A4238
:100BA00001D0002010BD00680968002A05D02CF093
:100BB00099FA002803D10130F4E70120F2E7002080
:100BC000F0E7F0B5D6464F464646C0B50700884622
:100BD0009246994602688B00D658002E15D034688C
:100BE0000AE02568002D18D07968E86A1DF0D2F96E
:100BF000260088450FD12C00E56AA945F1D1211DB9
:100C00005046FFF7C9FF0028EBD03000E0BCBA46E1
:100C1000B146A846F0BD0026F7E72E00F5E7F8B587
:100C2000CE46474680B505000F00012907D0FFF7E3
:100C300021FF8046AC680023AB6099460AE00023A0
:100C40008361183398468044F4E7126822601B6879
:100C50001C603400002C1AD02668E06A39001DF0B0
:100C600099F98B0043441A68002AEED1AA682260E1
:100C7000AC602A0008321A602368002B05D04B466E
:100C80009B004246D4508946E3E78946E1E72800C5
:100C9000FFF7A7FD6F6043462B60C0BCB946B04666
:100CA000F8BD70B5040015000022FFF7B8FF09E099
:100CB00022F0E6FC2B68636123F04CF922F01AFD68
:100CC00022F002FC70BDF0B5C64600B586B0040047
:100CD000884617001D004369059303AEC368426848
:100CE000010010310C980090300023F067FD33783C
:100CF000002B0DD1EF622A0041462000FFF7F3FEE2
:100D0000E3680133E360280006B080BCB846F0BD5C
:100D1000049905AA2000FFF7C4FF616838001DF0A0
:100D200039F98846E6E7000010B5084B8B4205D339
:100D300048004018000123F0A3F910BD044B99426C
:100D400001D923F049FC23F037FCC046AAAAAA0225
:100D50005555550570B504000D1E0AD00022FFF749
:100D600007FD206060606B005B19DB00C318A360A7
:100D700070BD0020F5E770B504000D000C220021C5
:100D80001EF06CF90822002120001EF067F90023F4
:100D9000E360AB68002B07D00222290020009847AF
:100DA000EB68E360AB68A360200070BD2000FFF734
:100DB0006CFB22F089FB70B50400150024F01EFACC
:100DC000200018302900FFF7D6FF04E0200023F0B0
:100DD00039FE22F079FB200070BD70B50D001600C1
:100DE00000220121FFF7A0FF0400002308C0320009
:100DF0002900FFF7E0FF0BE022F042FC3021200049
:100E000022F0C4FA23F0A6F822F074FC22F05CFB76
:100E1000200070BDF0B5C64600B586B00600884615
:100E200017000393CB68142B0ED88C68251E0BD0AB
:100E3000211D3800FFF7B0FE002801D12C68F5E72E
:100E400034600023337136E0386879681F4A23F034
:100E5000D3F80400434659681DF09CF80D00434642
:100E6000DB68142B0DD923003A004046FFF7A9FE9A
:100E7000002806D00368002B03D0336000233371B1
:100E800019E0039A18320C9B18683900FFF7A5FF88
:100E9000030042460492059001220092220029009C
:100EA0004046FFF710FF0023059330600133337194
:100EB00004A8FFF7C1FD300006B080BCB846F0BD05
:100EC00004A8FFF7B9FD22F0FFFAC04607690FC773
:100ED00070B586B005000C00160019000C9B00933D
:100EE0000B9B0A9AFFF7D5FD00E02834B4420ED0E0
:100EF000039503AB009323002200290004A8FFF709
:100F000089FFF2E72800FFF70CFD22F0DDFA280048
:100F100006B070BD70B588B0050004AC04910592B0
:100F200006AA110041CC41C1069907988200121807
:100F3000D2008A1803A8002404700E9802900D981D
:100F400001900C9800902800FFF7C2FF280008B01D
:100F500070BDF8B50F001600140002E0280018302C
:100F600018340500B84213D00100200024F046F9DF
:100F7000F4E722F085FBB44205D122F0EBFF22F02A
:100F8000B9FB22F0A1FA300023F05CFD1836F2E73D
:100F90002000F8BD10B5FFF7DCFF10BD70B50400F0
:100FA0000D004A680B68D21AD21093009B181901E1
:100FB0005B1819025B1819045B185B009918002371
:100FC000036043608360FFF7C5FE28686968226894
:100FD000FFF7E0FF04E02000FFF77CFA22F074FA4C
:100FE0006060200070BDF8B504000D0016001F0001
:100FF0000899FFF7D3FF079B1B782373069B1B6899
:1010000023613B6863613368A36120001C302900C1
:1010100024F0F4F804E02000FFF767FA22F054FA15
:101020002000F8BD30B585B004000D0011001A0095
:101030000B9B02930A9B0193099B0093089BFFF76C
:10104000D2FF20003430290024F0D8F808E0200036
:101050001C3023F0F7FC2000FFF747FA22F034FAA7
:10106000200005B030BD0000F0B5CE46474680B543
:10107000D74CA54404000D0001280CD0002C04D14D
:10108000D44B9D4201D101F0A8F8D34B9D44C0BC84
:10109000B946B046F0BDCF4B9942EFD1CF4B0022BD
:1010A0001A719A60CE49D96019615A61CD4B1E6898
:1010B00001361E60012E30D0CB4A13680133136015
:1010C000012B63D0C94B1F6801371F60012F67D008
:1010D000C74A136801331360012B01D101F043F8B3
:1010E000C44A136801331360012B01D101F067F882
:1010F000C14A136801331360012B01D101F064F878
:10110000BE4A136801331360012BB7D1BC49BD48F7
:10111000BD4A6A44FFF726FAB0E7BC49BC4841AA79
:10112000FFF720FABB49BC4842AAFFF71BFA10E0C0
:10113000042605239B1B18245C43B54BE418B44BD1
:101140009C4201D101F09AF8183C200023F07AFC6F
:10115000F5E7B249B24843AAFFF704FA01E00326D3
:10116000E7E7B049B04844AAFFF7FCF901E00226DE
:10117000DFE7AE49AE4845AAFFF7F4F9AD49AE48FE
:1011800046AAFFF7EFF997E70026D2E7AB4B00221C
:101190001A705A60022199601C3119735A7391E7D1
:1011A00097494DAA47A8FFF7DDF910E01124112354
:1011B0001B1B4C245C43A24BE418A14B9C4201D165
:1011C00001F083F84C3C2000FFF79FF9F5E78C49CC
:1011D00054AA4EA8FFF7C6F904E0112447A823F04B
:1011E00031FCE4E70026559601235B425693579362
:1011F0006423FF336B441E700C22310059A81DF08C
:101200002DFF59965A965B968D4859AB03936423EC
:10121000FF336B44029357AB019356AB009355AB2E
:101220004EAA47A9FFF7FEFE07E0112459A8FFF7D1
:101230005CF94EA823F006FCD0E7824962AA5CA8BC
:10124000FFF790F901E01024F0E77F4969AA63A84D
:10125000FFF788F904E010245CA823F0F3FBE5E72E
:1012600003236A93043B6B936C930026B823FF33EC
:101270006B441E700C2231006EA81DF0EFFE6E96BE
:101280006F96709671486EAB0393B823FF336B442F
:1012900002936CAB01936BAB00936AAB63AA5CA93E
:1012A000FFF7C0FE07E010246EA8FFF71EF963A841
:1012B00023F0C8FBD0E7664977AA71A8FFF752F977
:1012C00001E00F24F0E763497EAA78A8FFF74AF906
:1012D00004E00F2471A823F0B5FBE5E703237F9317
:1012E000043B8093819300265B4B6B441E700C2261
:1012F000310083A81DF0B2FE8396849685965748E8
:1013000083AB0393544B6B44029381AB019380AB4B
:1013100000937FAB78AA71A9FFF784FE07E00F2442
:1013200083A8FFF7E2F878A823F08CFBD2E74C49BA
:101330008CAA86A8FFF716F901E00E24F0E74949C8
:1013400093AA8DA8FFF70EF904E00E2486A823F0D7
:1013500079FBE5E70123949300269596FF225242FC
:101360009692414A6A4413700C22310098A81DF0ED
:1013700075FE989699969A963C4898AB03933A4B8B
:101380006B44029396AB019395AB009394AB8DAAFB
:1013900086A9FFF747FE07E00E2498A8FFF7A5F8F7
:1013A0008DA823F04FFBD1E73149A1AA9BA8FFF7F5
:1013B000D9F801E00D24F0E71149A8AAA2A8FFF787
:1013C000D1F857E00D249BA823F03CFBE5E7C0468D
:1013D0009CF8FFFFFFFF000064070000502A002078
:1013E000542A00206C1C0020701C0020681C002067
:1013F000641C0020601C0020581C00205C1C002085
:101400006C060310C01C00205C0700003CE30210C7
:101410007422002044E302108C2200204CE30210CE
:10142000A422002054E30210BC2200205CE302103E
:10143000D422002064E30210EC22002004230020C8
:101440001C1D00206CE3021070E30210681D0020D8
:101450002847031074E302100B020000B41D0020A3
:1014600080E3021084E302105F020000001E0020EF
:1014700040FE02100323A993043BAA93AB930026DA
:10148000E64B6B441E700C223100ADA81DF0E6FD4A
:10149000AD96AE96AF96E248ADAB0393DF4B6B448F
:1014A0000293ABAB0193AAAB0093A9ABA2AA9BA9F1
:1014B000FFF7B8FD07E00D24ADA8FFF716F8A2A8C6
:1014C00023F0C0FA7FE7D749B6AAB0A8FFF74AF8D9
:1014D00001E00C24F0E7D449BDAAB7A8FFF742F811
:1014E00004E00C24B0A823F0ADFAE5E70423BE9392
:1014F0000023BF930533C093CC4B6B4401221A7079
:10150000CB49C7AA1DA8FFF72DF811E005270C2429
:101510000522D21B182353431DAAD5181DAB9D428B
:1015200001D100F0CDFE183D280023F08BFAF5E73D
:10153000C049C8AA23A8FFF715F802E004270C2425
:10154000E6E7BD49C9AA29A8FFF70CF802E003277E
:101550000C24DDE7B949CAAA2FA8FFF703F802E077
:1015600002270C24D4E7B649CBAA35A8FEF7FAFF28
:1015700001E00C24CCE7B349CCAA3BA8FEF7F2FF6C
:1015800002E000270C24C3E71DA9C5910622C692DC
:10159000CDABC2A8FFF77CF90BE00C2441AD1DAB2D
:1015A0009D4201D100F089FE183D280023F04AFA3F
:1015B000F5E7A548C2AB03939C4B6B440293C0ABC9
:1015C0000193BFAB0093BEABB7AAB0A9FFF72AFD4A
:1015D00004E00C24C2A8FEF788FFDFE79B49D4AAE9
:1015E000CEA8FEF7BFFF01E00B24F3E79849DBAA82
:1015F000D5A8FEF7B7FF04E00B24CEA823F022FA0B
:10160000E8E70223DC93033BDD93DE93914B6B44CD
:1016100001221A700B320021E0A81DF01FFD0023EB
:10162000E093E193E2938C48E0AB0393894B6B44E6
:101630000293DEAB0193DDAB0093DCABD5AACEA960
:10164000FFF7F0FC07E00B24E0A8FEF74EFFD5A85B
:1016500023F0F8F9D1E78149E9AAE3A8FEF782FF70
:1016600001E00A24F0E77E49F0AAEAA8FEF77AFF33
:1016700004E00A24E3A823F0E5F9E5E70123F19368
:101680000A22F2925A32F392764A6A4413700C227A
:101690000021F5A81DF0E2FC0023F593F693F793E3
:1016A0007148F5AB03936F4B6B440293F3AB01931B
:1016B000F2AB0093F1ABEAAAE3A9FFF7B3FC07E0B2
:1016C0000A24F5A8FEF711FFEAA823F0BBF9D1E739
:1016D0006649FEAAF8A8FEF745FF01E00924F0E7F5
:1016E0006349FFAA1832FFA8FEF73CFF04E0092473
:1016F000F8A823F0A7F9E4E70323FFAA1C3213603C
:10170000043BFFAA20321360FFAA24321360002694
:10171000FFAB2B331E700C223100FFA82C301DF0C4
:101720009DFCFFAB2C331E60FFAB30331E60FFAB64
:1017300034331E604F48FFAB2C330393FFAB2B3386
:101740000293FFAB24330193FFAB20330093FFAB35
:101750001C33FFAAF8A9FFF765FC08E00924FFA8DD
:101760002C30FEF7C2FEFFA823F06CF9C0E7424917
:10177000FFAA5032FFA83830FEF7F4FE01E008243B
:10178000EDE73E49FFAA6C32FFA85430FEF7EAFEAF
:1017900005E00824FFA8383023F054F9DFE70223DE
:1017A000FFAA70321360033BFFAA74321360FFAAD2
:1017B00078321360FFAB7F3301221A700B320021A5
:1017C000FFA880301DF04AFC0023FFAA803213607E
:1017D000FFAA84321360FFAA883213602848FFAB47
:1017E00080330393FFAB7F330293FFAB78330193D6
:1017F000FFAB74330093FFAB7033FFAA5432FFA9E1
:101800003831FFF70FFC3DE00824FFA88030FEF7D9
:101810006CFEFFA8543023F015F9BBE7B3020000BB
:101820004C1E002094E3021098E30210070300000E
:101830003CE3021044E302104CE3021054E30210B4
:101840005CE3021064E30210981E0020A8E302107B
:10185000ACE302107F030000E41E0020BCE3021092
:10186000C0E30210D3030000301F0020D4E30210B5
:101870006C0603107C1F0020D8E30210DCE302108A
:10188000C81F0020E949FFAAA432FFA88C30FEF748
:1018900069FE01E00724B8E7E549FFAAC032FFA8C6
:1018A000A830FEF75FFE05E00724FFA88C3023F088
:1018B000C9F8AAE70423FFAAC43213600023FFAAD1
:1018C000C83213600333FFAACC321360FFABD333AB
:1018D00001221A70D749FFAAE83205A8FEF742FE96
:1018E00011E0032707240322D21B1823534305AA20
:1018F000D51805AB9D4201D100F0D9FC183D280058
:1019000023F0A0F8F5E7CC49FFAAEC320BA8FEF7CC
:1019100029FE02E002270724E5E7C849FFAAF032C2
:1019200011A8FEF71FFE01E00724DCE7C449FFAA67
:10193000F43217A8FEF716FE02E000270724D2E7CC
:1019400005A9FFABE03319600422FFABE4331A6052
:10195000FFABF833FFA8D430FEF79AFF0BE0072463
:101960001DAD05AB9D4201D100F09EFC183D280045
:1019700023F068F8F5E7B348FFABD4330393FFAB2C
:10198000D3330293FFABCC330193FFABC833009347
:10199000FFABC433FFAAA832FFA98C31FFF742FB8B
:1019A00005E00724FFA8D430FEF79FFDD8E7A6493D
:1019B000A222D2006A44FFA8FC30FEF7D3FD01E06A
:1019C0000624EFE7A149A24A6A44A2486844FEF708
:1019D000C9FD05E00624FFA8FC3023F033F8E1E759
:1019E0000223A622D2006A441360033B9A4A6A4447
:1019F0001360A722D2006A441360984B6B44012203
:101A00001A700B320021A823DB006B4418001DF074
:101A100025FB0023A822D2006A441360904A6A443E
:101A20001360A922D2006A4413608E48A823DB0009
:101A30006B440393894B6B440293A723DB006B44F5
:101A40000193854B6B440093A623DB006B44814AD2
:101A50006A44FFA9FC31FFF7E5FA0AE00624A82052
:101A6000C0006844FEF741FD7A48684422F0EAFF6E
:101A7000B1E77D497D4A6A447D486844FEF772FDBE
:101A800001E00524EBE77B49B022D2006A44AD2097
:101A9000C0006844FEF766FD05E00524744868440C
:101AA00022F0D0FFDBE70123734A6A44136000266B
:101AB000B122D2006A4416606422704969440A6007
:101AC0006F4A6A4413700C2231006E4B6B4418004D
:101AD0001DF0C4FA6B4B6B441E60B323DB006B44F8
:101AE0001E60694B6B441E606848664B6B440393F1
:101AF000634B6B440293614B6B440193B123DB0056
:101B00006B4400935C4B6B44AD22D2006A4458494D
:101B10006944FFF787FA0AE005245A486844FEF74B
:101B2000E4FCAD20C000684422F08CFFB6E75849C1
:101B3000B722D2006A44B420C0006844FEF712FD08
:101B400001E00424E9E75349534A6A44534868448E
:101B5000FEF708FD06E00424B420C000684422F02B
:101B600071FFDAE70223BB22D2006A441360033B11
:101B70004B4A6A441360BC22D2006A441360494B4A
:101B80006B4401221A700B320021BD23DB006B4431
:101B900018001DF063FA0023BD22D2006A441360CE
:101BA000414A6A441360BE22D2006A4413603F482F
:101BB000BD23DB006B4403933A4B6B440293BC237D
:101BC000DB006B440193364B6B440093BB23DB007B
:101BD0006B44324A6A44B421C9006944FFF722FACF
:101BE0000AE00424BD20C0006844FEF77EFC2B48B8
:101BF000684422F027FFAFE72D492E4A6A442E4859
:101C00006844FEF7AFFC01E00324EBE72B49C52253
:101C1000D2006A44C220C0006844FEF7A3FC4FE033
:101C200003242548684422F00DFFDBE7ECE30210B3
:101C3000F0E30210FCE3021010E4021020E40210B2
:101C40002CE402101420002038E402103CE40210BE
:101C50002C05000014050000340500003F050000BD
:101C6000440500006020002054E4021064050000D8
:101C70004C05000058E40210840500008C050000AB
:101C800093050000940500009C050000AC20002096
:101C900068E402106CE40210D4050000BC050000EA
:101CA000DC050000E7050000EC050000F82000203E
:101CB00078E402100C060000F40500006C06031026
:101CC0000223EE4A6A441360033BC622D2006A44F0
:101CD0001360EB4A6A4413600026EA4B6B441E70A3
:101CE0000C223100E84B6B4418001DF0B7F9E64BAD
:101CF0006B441E60C823DB006B441E60E34B6B44E7
:101D00001E60E348E04B6B440393DE4B6B4402934D
:101D1000DB4B6B440193C623DB006B440093D74B32
:101D20006B44C222D2006A44DA496944FFF77AF967
:101D30000AE00324D4486844FEF7D7FBC220C00061
:101D4000684422F07FFE6CE7D349CC22D2006A447B
:101D5000C920C0006844FEF705FC01E00224E9E761
:101D6000CE49CF4A6A44CF486844FEF7FBFB06E001
:101D70000224C920C000684422F064FEDAE703238D
:101D8000D022D2006A441360043BC74A6A441360FD
:101D9000D122D2006A441360002399466B46C34A9D
:101DA0009B184A461A70D226F6006E440C324946F9
:101DB00030001DF053F94A4632607260B260BC4890
:101DC0000396BA4B6B440293D123DB006B4401931F
:101DD000B54B6B440093D023DB006B44B14A6A449B
:101DE000C921C9006944FFF71DF90BE00227D22081
:101DF000C0006844FEF779FBAA48684422F022FE3E
:101E00003C00B6E7AB49AC4A6A44AC486844FEF7CC
:101E1000A9FBA249DA22D2006A44D720C000684454
:101E2000FEF7A0FB00239946A54B6B444A461A6077
:101E300001235B42DB22D2006A441360A14A6A4458
:101E400013606B46A04A9B184A461A709F4E6E4418
:101E50000C32494630001DF001F94A46326072608A
:101E6000B2609B480396984B6B440293954B6B442E
:101E70000193DB23DB006B440093914B6B44D7222F
:101E8000D2006A448D496944FFF7CCF89149E122B8
:101E9000D2006A44DE20C0006844FEF763FB0EE017
:101EA00000278A486844FEF720FBD720C00068441A
:101EB00022F0C8FD8148684422F0C4FD97E77749C5
:101EC000854A6A4485486844FEF74CFB0523E522B1
:101ED000D2006A441360063B814A6A441360E622DA
:101EE000D2006A4413607F4F6F44002398463B70D2
:101EF000E726F6006E440C22190030001DF0AEF803
:101F0000424632607260B260774803960297E623D9
:101F1000DB006B440193724B6B440093E523DB00C1
:101F20006B446E4A6A44DE21C9006944FFF77AF8BF
:101F30003000FEF7DAFA6948684422F083FDDE20BB
:101F4000C000684422F07EFD60486844FEF7CDFA88
:101F5000D720C000684422F075FD5848684422F03C
:101F600071FDD220C0006844FEF7BFFA4D486844B6
:101F700022F068FDC920C000684422F063FD424899
:101F80006844FEF7B2FAC220C000684422F05AFD4D
:101F90004048684422F056FDBD20C0006844FEF76A
:101FA000A4FA5248684422F04DFDB420C0006844B1
:101FB00022F048FD4E486844FEF797FAAD20C00075
:101FC000684422F03FFD4B48684422F03BFDA820C6
:101FD000C0006844FEF789FA4748684422F032FDA1
:101FE000FFA8FC3022F02EFDFFA8D430FEF77DFACA
:101FF0001DAE05AB9E4204D0183E300022F022FDFB
:10200000F7E7FFA8A83022F01DFDFFA88C3022F0D2
:1020100019FDFFA88030FEF768FAFFA8543022F0BF
:1020200011FDFFA8383022F00DFDFFA82C30FEF77F
:102030005CFAFFA822F006FDF8A822F003FDF5A83F
:10204000FEF753FAEAA822F0FDFCE3A822F0FAFC1E
:10205000E0A8FEF74AFAD5A822F0F4FCCEA822F0B8
:10206000F1FCC2A8FEF741FA41AE1DAB9E4245D03D
:10207000183E300022F0E6FCF7E7C0462C060000D0
:10208000340600003B0600003C0600004406000049
:1020900044210020F40500007CE402106C060310CB
:1020A0007C06000064060000840600008F06000025
:1020B0009021002080E40210B40600009C0600007D
:1020C000D4060000DC060000E3060000E406000081
:1020D000DC21002088E40210240700000C07000027
:1020E0002C0700003707000028220020BC05000054
:1020F000940500004C05000014050000B7A822F06C
:10210000A1FCB0A822F09EFCADA8FEF7EEF9A2A8B3
:1021100022F098FC9BA822F095FC98A8FEF7E5F920
:102120008DA822F08FFC86A822F08CFC83A8FEF7F5
:10213000DCF978A822F086FC71A822F083FC6EA856
:10214000FEF7D3F963A822F07DFC5CA822F07AFCAC
:1021500059A8FEF7CAF94EA822F074FC47A822F04D
:1021600071FCFEF7B5FF614A61491DAE3000FEF714
:1021700011FA604B6B441E600122E923DB006B44C3
:102180001A605D485D4B6B440293EA23DB006B44AD
:1021900001935B4B6B44009300233100FEF7BAFEC2
:1021A00027AE1DAB9E4201D1FEF79AFF283E3000BC
:1021B0001830FEF76AF9300022F044FCF1E751488C
:1021C000FEF72FFCFEF794FF4F495048EB22D20058
:1021D0006A44FEF7C7F9FEF793FF4D4A1368013BC7
:1021E0001360002B19D04B4A1368013B1360002B7E
:1021F00017D0494A1368013B1360002B15D0474A9A
:102200001368013B1360002B13D0454A1368013B50
:102210001360002B18D1434C13E0434822F012FC0A
:10222000E1E73A4822F00EFCE3E73648FEF781FA90
:10223000E5E73148FEF775FBE7E74C3C2000FEF789
:1022400064F93A4B9C42F8D1394A1368013B136058
:10225000002B08D1374C384B9C4204D0183C20004E
:1022600022F0F0FBF7E735488168FEF784FCFEF7C3
:102270000CFF0526FEF75DFFFEF75BFF21F024F95A
:10228000E720C0006844FEF730F92D48684422F08A
:10229000D9FBDE20C000684422F0D4FB002700E612
:1022A000F7E7FEE506E6A2E50327FFF71CFBFFA81C
:1022B000A83022F0C7FBFFF7F8FA0527FFF728F947
:1022C000B7A822F0BFFBFFF70DF921F0FDF827AC0E
:1022D0001DAB9C4208D0283C20001830FEF7D5F8F2
:1022E000200022F0AFFBF3E721F0EEF8411F0110D0
:1022F00080E4021044070000001D00205407000085
:102300004C070000D81C00206C060310A81C0020FD
:102310005C1C0020581C0020601C0020641C002055
:10232000681C002074220020C01C00201C1D0020FE
:102330006C1C00200423002074220020502A00205E
:102340000C07000010B502490120FEF78DFE10BDFC
:10235000FFFF00007047000010B50400024B03604F
:10236000FEF766F8200010BD8CE5021010B50400E1
:10237000FFF7F2FF3421200021F008F8200010BD03
:1023800070B50500EFF3108672B6002407E0286BE5
:102390002303C018802149012BF022FF01346B6A0E
:1023A000A342F4D886F3108870BD000010B5040075
:1023B000FEF78AF8094B23601323A361123BE36104
:1023C000802252002262636280235B01A3620023A9
:1023D000E362034B2363200010BDC0468CE502106E
:1023E00000F07F00036B8022520594466344585CE2
:1023F000704710B5122902D8FFF7F4FF10BD002076
:10240000FCE7F0B5C64600B582B000AF05008846CF
:102410007A6012293BD8C3691B026A46D21A9546D4
:102420006E46002232706A460132023B03E0002110
:102430001170013B0132002BF9DA002405E0210084
:102440002800FFF7CFFF30550134122CF7D943464F
:102450007A68F2542B68DB6828009847EFF31088FD
:1024600072B6002408E0286B2102401880227118FF
:1024700052002BF07DFE0134EB69A342F3D888F3C0
:1024800010880120BD4602B080BCB846F0BD0020D7
:10249000F8E70000F0B5CE46474680B5D74CA544D6
:1024A00004000D0001280CD0002C04D1D44B9D4217
:1024B00001D101F0A8F8D34B9D44C0BCB946B04649
:1024C000F0BDCF4B9942EFD1CF4B00221A719A60E9
:1024D000CE49D96019615A61CD4B1E6801361E6024
:1024E000012E30D0CB4A136801331360012B63D027
:1024F000C94B1F6801371F60012F67D0C74A136897
:1025000001331360012B01D101F043F8C44A136871
:1025100001331360012B01D101F067F8C14A136840
:1025200001331360012B01D101F064F8BE4A136836
:1025300001331360012BB7D1BC49BD48BD4A6A4481
:10254000FEF710F8B0E7BC49BC4841AAFEF70AF80C
:10255000BB49BC4842AAFEF705F810E00426052353
:102560009B1B18245C43B54BE418B44B9C4201D12F
:1025700001F09AF8183C200022F064FAF5E7B2491D
:10258000B24843AAFDF7EEFF01E00326E7E7B049B2
:10259000B04844AAFDF7E6FF01E00226DFE7AE49B6
:1025A000AE4845AAFDF7DEFFAD49AE4846AAFDF7A5
:1025B000D9FF97E70026D2E7AB4B00221A705A608A
:1025C000022199601C3119735A7391E797494DAAFA
:1025D00047A8FDF7C7FF10E0112411231B1B4C2453
:1025E0005C43A24BE418A14B9C4201D101F083F85B
:1025F0004C3C2000FDF789FFF5E78C4954AA4EA812
:10260000FDF7B0FF04E0112447A822F01BFAE4E72D
:102610000026559601235B42569357936423FF335C
:102620006B441E700C22310059A81CF017FD5996FE
:102630005A965B968D4859AB03936423FF336B44E2
:10264000029357AB019356AB009355AB4EAA47A9E3
:10265000FEF7E8FC07E0112459A8FDF746FF4EA855
:1026600022F0F0F9D0E7824962AA5CA8FDF77AFF70
:1026700001E01024F0E77F4969AA63A8FDF772FF23
:1026800004E010245CA822F0DDF9E5E703236A9357
:10269000043B6B936C930026B823FF336B441E708E
:1026A0000C2231006EA81CF0D9FC6E966F967096C5
:1026B00071486EAB0393B823FF336B4402936CAB4A
:1026C00001936BAB00936AAB63AA5CA9FEF7AAFC0B
:1026D00007E010246EA8FDF708FF63A822F0B2F906
:1026E000D0E7664977AA71A8FDF73CFF01E00F2407
:1026F000F0E763497EAA78A8FDF734FF04E00F24D1
:1027000071A822F09FF9E5E703237F93043B8093B0
:10271000819300265B4B6B441E700C22310083A812
:102720001CF09CFC839684968596574883AB039354
:10273000544B6B44029381AB019380AB00937FAB0E
:1027400078AA71A9FEF76EFC07E00F2483A8FDF7B5
:10275000CCFE78A822F076F9D2E74C498CAA86A85C
:10276000FDF700FF01E00E24F0E7494993AA8DA888
:10277000FDF7F8FE04E00E2486A822F063F9E5E7F1
:102780000123949300269596FF2252429692414A45
:102790006A4413700C22310098A81CF05FFC9896D4
:1027A00099969A963C4898AB03933A4B6B440293A4
:1027B00096AB019395AB009394AB8DAA86A9FEF7D7
:1027C00031FC07E00E2498A8FDF78FFE8DA822F0BB
:1027D00039F9D1E73149A1AA9BA8FDF7C3FE01E071
:1027E0000D24F0E71149A8AAA2A8FDF7BBFE57E007
:1027F0000D249BA822F026F9E5E7C0469CF8FFFFD0
:10280000FFFF000064070000682A00206C2A0020F7
:102810006C1C0020701C0020681C0020641C002020
:10282000601C0020581C00205C1C00206C0603105B
:10283000C01C00205C0700003CE302107422002052
:1028400044E302108C2200204CE30210A42200205A
:1028500054E30210BC2200205CE30210D4220020CA
:1028600064E30210EC220020042300201C1D002041
:102870006CE3021070E30210681D0020284703106B
:1028800074E302100B020000B41D002080E302106C
:1028900084E302105F020000001E002040FE0210D0
:1028A0000323A993043BAA93AB930026E64B6B4406
:1028B0001E700C223100ADA81CF0D0FBAD96AE9678
:1028C000AF96E248ADAB0393DF4B6B440293ABABE7
:1028D0000193AAAB0093A9ABA2AA9BA9FEF7A2FB06
:1028E00007E00D24ADA8FDF700FEA2A822F0AAF88B
:1028F0007FE7D749B6AAB0A8FDF734FE01E00C2463
:10290000F0E7D449BDAAB7A8FDF72CFE04E00C24DB
:10291000B0A822F097F8E5E70423BE930023BF9305
:102920000533C093CC4B6B4401221A70CB49C7AA24
:102930001DA8FDF717FE11E005270C240522D21B68
:10294000182353431DAAD5181DAB9D4201D100F099
:10295000CDFE183D280022F075F8F5E7C049C8AA59
:1029600023A8FDF7FFFD02E004270C24E6E7BD499C
:10297000C9AA29A8FDF7F6FD02E003270C24DDE72C
:10298000B949CAAA2FA8FDF7EDFD02E002270C24E1
:10299000D4E7B649CBAA35A8FDF7E4FD01E00C2445
:1029A000CCE7B349CCAA3BA8FDF7DCFD02E0002749
:1029B0000C24C3E71DA9C5910622C692CDABC2A8BF
:1029C000FDF766FF0BE00C2441AD1DAB9D4201D12C
:1029D00000F089FE183D280022F034F8F5E7A548FC
:1029E000C2AB03939C4B6B440293C0AB0193BFAB50
:1029F0000093BEABB7AAB0A9FEF714FB04E00C2409
:102A0000C2A8FDF772FDDFE79B49D4AACEA8FDF767
:102A1000A9FD01E00B24F3E79849DBAAD5A8FDF74F
:102A2000A1FD04E00B24CEA822F00CF8E8E7022375
:102A3000DC93033BDD93DE93914B6B4401221A70D0
:102A40000B320021E0A81CF009FB0023E093E19386
:102A5000E2938C48E0AB0393894B6B440293DEAB6B
:102A60000193DDAB0093DCABD5AACEA9FEF7DAFA71
:102A700007E00B24E0A8FDF738FDD5A821F0E2FF20
:102A8000D1E78149E9AAE3A8FDF76CFD01E00A243A
:102A9000F0E77E49F0AAEAA8FDF764FD04E00A2405
:102AA000E3A821F0CFFFE5E70123F1930A22F29298
:102AB0005A32F392764A6A4413700C220021F5A828
:102AC0001CF0CCFA0023F593F693F7937148F5AB1D
:102AD00003936F4B6B440293F3AB0193F2AB009300
:102AE000F1ABEAAAE3A9FEF79DFA07E00A24F5A8EC
:102AF000FDF7FBFCEAA821F0A5FFD1E76649FEAA95
:102B0000F8A8FDF72FFD01E00924F0E76349FFAACB
:102B10001832FFA8FDF726FD04E00924F8A821F0EB
:102B200091FFE4E70323FFAA1C321360043BFFAAD2
:102B300020321360FFAA243213600026FFAB2B3330
:102B40001E700C223100FFA82C301CF087FAFFAB5E
:102B50002C331E60FFAB30331E60FFAB34331E607E
:102B60004F48FFAB2C330393FFAB2B330293FFABE8
:102B700024330193FFAB20330093FFAB1C33FFAA38
:102B8000F8A9FEF74FFA08E00924FFA82C30FDF75A
:102B9000ACFCFFA821F056FFC0E74249FFAA503223
:102BA000FFA83830FDF7DEFC01E00824EDE73E49E0
:102BB000FFAA6C32FFA85430FDF7D4FC05E00824CE
:102BC000FFA8383021F03EFFDFE70223FFAA703272
:102BD0001360033BFFAA74321360FFAA78321360BC
:102BE000FFAB7F3301221A700B320021FFA8803027
:102BF0001CF034FA0023FFAA80321360FFAA84324B
:102C00001360FFAA883213602848FFAB8033039318
:102C1000FFAB7F330293FFAB78330193FFAB743389
:102C20000093FFAB7033FFAA5432FFA93831FEF78F
:102C3000F9F93DE00824FFA88030FDF756FCFFA815
:102C4000543021F0FFFEBBE7B30200004C1E002011
:102C500094E3021098E30210070300003CE3021023
:102C600044E302104CE3021054E302105CE3021050
:102C700064E30210981E0020A8E30210ACE30210E7
:102C80007F030000E41E0020BCE30210C0E302103A
:102C9000D3030000301F0020D4E302106C060310A1
:102CA0007C1F0020D8E30210DCE30210C81F0020C4
:102CB000E949FFAAA432FFA88C30FDF753FC01E0DC
:102CC0000724B8E7E549FFAAC032FFA8A830FDF7FE
:102CD00049FC05E00724FFA88C3021F0B3FEAAE7E9
:102CE0000423FFAAC43213600023FFAAC832136072
:102CF0000333FFAACC321360FFABD33301221A7027
:102D0000D749FFAAE83205A8FDF72CFC11E00327FC
:102D100007240322D21B1823534305AAD51805AB59
:102D20009D4201D100F0D9FC183D280021F08AFE17
:102D3000F5E7CC49FFAAEC320BA8FDF713FC02E043
:102D400002270724E5E7C849FFAAF03211A8FDF7DA
:102D500009FC01E00724DCE7C449FFAAF43217A804
:102D6000FDF700FC02E000270724D2E705A9FFAB2E
:102D7000E03319600422FFABE4331A60FFABF83391
:102D8000FFA8D430FDF784FD0BE007241DAD05AB93
:102D90009D4201D100F09EFC183D280021F052FE1A
:102DA000F5E7B348FFABD4330393FFABD3330293C0
:102DB000FFABCC330193FFABC8330093FFABC433FD
:102DC000FFAAA832FFA98C31FEF72CF905E00724F1
:102DD000FFA8D430FDF789FBD8E7A649A222D2008C
:102DE0006A44FFA8FC30FDF7BDFB01E00624EFE7D5
:102DF000A149A24A6A44A2486844FDF7B3FB05E032
:102E00000624FFA8FC3021F01DFEE1E70223A622E4
:102E1000D2006A441360033B9A4A6A441360A722B3
:102E2000D2006A441360984B6B4401221A700B3233
:102E30000021A823DB006B4418001CF00FF90023CD
:102E4000A822D2006A441360904A6A441360A922FF
:102E5000D2006A4413608E48A823DB006B440393BE
:102E6000894B6B440293A723DB006B440193854B92
:102E70006B440093A623DB006B44814A6A44FFA99C
:102E8000FC31FEF7CFF80AE00624A820C000684411
:102E9000FDF72BFB7A48684421F0D4FDB1E77D496A
:102EA0007D4A6A447D486844FDF75CFB01E00524E7
:102EB000EBE77B49B022D2006A44AD20C0006844F1
:102EC000FDF750FB05E005247448684421F0BAFD85
:102ED000DBE70123734A6A4413600026B122D20063
:102EE0006A4416606422704969440A606F4A6A4401
:102EF00013700C2231006E4B6B4418001CF0AEF8BE
:102F00006B4B6B441E60B323DB006B441E60694B4C
:102F10006B441E606848664B6B440393634B6B4481
:102F20000293614B6B440193B123DB006B4400932C
:102F30005C4B6B44AD22D2006A4458496944FEF7A9
:102F400071F80AE005245A486844FDF7CEFAAD202E
:102F5000C000684421F076FDB6E75849B722D20098
:102F60006A44B420C0006844FDF7FCFA01E0042480
:102F7000E9E75349534A6A4453486844FDF7F2FA73
:102F800006E00424B420C000684421F05BFDDAE7C9
:102F90000223BB22D2006A441360033B4B4A6A44BB
:102FA0001360BC22D2006A441360494B6B44012277
:102FB0001A700B320021BD23DB006B4418001CF09B
:102FC0004DF80023BD22D2006A441360414A6A448E
:102FD0001360BE22D2006A4413603F48BD23DB0069
:102FE0006B4403933A4B6B440293BC23DB006B446A
:102FF0000193364B6B440093BB23DB006B44324A96
:103000006A44B421C9006944FEF70CF80AE00424BC
:10301000BD20C0006844FDF768FA2B48684421F0E1
:1030200011FDAFE72D492E4A6A442E486844FDF74A
:1030300099FA01E00324EBE72B49C522D2006A4448
:10304000C220C0006844FDF78DFA4FE003242548F4
:10305000684421F0F7FCDBE7ECE30210F0E3021038
:10306000FCE3021010E4021020E402102CE4021031
:103070001420002038E402103CE402102C0500006B
:1030800014050000340500003F0500004405000061
:103090006020002054E40210640500004C0500008C
:1030A00058E40210840500008C0500009305000020
:1030B000940500009C050000AC20002068E402108C
:1030C0006CE40210D4050000BC050000DC05000023
:1030D000E7050000EC050000F820002078E402106D
:1030E0000C060000F40500006C0603100223EE4AF3
:1030F0006A441360033BC622D2006A441360EB4A61
:103100006A4413600026EA4B6B441E700C223100A7
:10311000E84B6B4418001BF0A1FFE64B6B441E60AC
:10312000C823DB006B441E60E34B6B441E60E34826
:10313000E04B6B440393DE4B6B440293DB4B6B44DD
:103140000193C623DB006B440093D74B6B44C22230
:10315000D2006A44DA496944FDF764FF0AE00324B7
:10316000D4486844FDF7C1F9C220C000684421F08A
:1031700069FC6CE7D349CC22D2006A44C920C00064
:103180006844FDF7EFF901E00224E9E7CE49CF4AB0
:103190006A44CF486844FDF7E5F906E00224C920F7
:1031A000C000684421F04EFCDAE70323D022D200AD
:1031B0006A441360043BC74A6A441360D122D200B8
:1031C0006A441360002399466B46C34A9B184A46DB
:1031D0001A70D226F6006E440C32494630001BF0BD
:1031E0003DFF4A4632607260B260BC480396BA4BFB
:1031F0006B440293D123DB006B440193B54B6B44CA
:103200000093D023DB006B44B14A6A44C921C90052
:103210006944FDF707FF0BE00227D220C000684495
:10322000FDF763F9AA48684421F00CFC3C00B6E7BE
:10323000AB49AC4A6A44AC486844FDF793F9A249EB
:10324000DA22D2006A44D720C0006844FDF78AF928
:1032500000239946A54B6B444A461A6001235B4202
:10326000DB22D2006A441360A14A6A4413606B46B1
:10327000A04A9B184A461A709F4E6E440C3249462B
:1032800030001BF0EBFE4A4632607260B2609B4831
:103290000396984B6B440293954B6B440193DB234D
:1032A000DB006B440093914B6B44D722D2006A44FD
:1032B0008D496944FDF7B6FE9149E122D2006A4486
:1032C000DE20C0006844FDF74DF90EE000278A4873
:1032D0006844FDF70AF9D720C000684421F0B2FB2A
:1032E0008148684421F0AEFB97E77749854A6A44F4
:1032F00085486844FDF736F90523E522D2006A4483
:103300001360063B814A6A441360E622D2006A4495
:1033100013607F4F6F44002398463B70E726F6000A
:103320006E440C22190030001BF098FE42463260B9
:103330007260B260774803960297E623DB006B4425
:103340000193724B6B440093E523DB006B446E4AA0
:103350006A44DE21C9006944FDF764FE3000FDF7D0
:10336000C4F86948684421F06DFBDE20C000684461
:1033700021F068FB60486844FDF7B7F8D720C0002B
:10338000684421F05FFB5848684421F05BFBD22081
:10339000C0006844FDF7A9F84D48684421F052FB8D
:1033A000C920C000684421F04DFB42486844FDF745
:1033B0009CF8C220C000684421F044FB40486844A7
:1033C00021F040FBBD20C0006844FDF78EF8524854
:1033D000684421F037FBB420C000684421F032FB80
:1033E0004E486844FDF781F8AD20C000684421F0E4
:1033F00029FB4B48684421F025FBA820C000684405
:10340000FDF773F84748684421F01CFBFFA8FC3027
:1034100021F018FBFFA8D430FDF767F81DAE05AB0F
:103420009E4204D0183E300021F00CFBF7E7FFA8C5
:10343000A83021F007FBFFA88C3021F003FBFFA888
:103440008030FDF752F8FFA8543021F0FBFAFFA8B6
:10345000383021F0F7FAFFA82C30FDF746F8FFA826
:1034600021F0F0FAF8A821F0EDFAF5A8FDF73DF803
:10347000EAA821F0E7FAE3A821F0E4FAE0A8FDF7D2
:1034800034F8D5A821F0DEFACEA821F0DBFAC2A8E4
:10349000FDF72BF841AE1DAB9E4245D0183E3000E3
:1034A00021F0D0FAF7E7C0462C06000034060000F1
:1034B0003B0600003C0600004406000044210020BA
:1034C000F40500007CE402106C0603107C0600008A
:1034D00064060000840600008F0600009021002092
:1034E00080E40210B40600009C060000D406000030
:1034F000DC060000E3060000E4060000DC210020FA
:1035000088E40210240700000C0700002C070000CC
:103510003707000028220020BC05000094050000A9
:103520004C05000014050000B7A821F08BFAB0A8E4
:1035300021F088FAADA8FCF7D8FFA2A821F082FA02
:103540009BA821F07FFA98A8FCF7CFFF8DA821F067
:1035500079FA86A821F076FA83A8FCF7C6FF78A846
:1035600021F070FA71A821F06DFA6EA8FCF7BDFF8A
:1035700063A821F067FA5CA821F064FA59A8FCF767
:10358000B4FF4EA821F05EFA47A821F05BFAFEF7DF
:10359000B5FF614A61491DAE3000FCF7FBFF604B8F
:1035A0006B441E600122E923DB006B441A605D4816
:1035B0005D4B6B440293EA23DB006B4401935B4B4E
:1035C0006B44009300233100FDF7A4FC27AE1DAB34
:1035D0009E4201D1FEF79AFF283E30001830FCF7DA
:1035E00054FF300021F02EFAF1E75148FDF719FAA7
:1035F000FEF794FF4F495048EB22D2006A44FCF793
:10360000B1FFFEF793FF4D4A1368013B1360002B97
:1036100019D04B4A1368013B1360002B17D0494A5D
:103620001368013B1360002B15D0474A1368013B18
:103630001360002B13D0454A1368013B1360002B25
:1036400018D1434C13E0434821F0FCF9E1E73A4834
:1036500021F0F8F9E3E73648FDF76BF8E5E7314884
:10366000FDF75FF9E7E74C3C2000FCF74EFF3A4BD3
:103670009C42F8D1394A1368013B1360002B08D1F2
:10368000374C384B9C4204D0183C200021F0DAF92A
:10369000F7E735488168FDF76EFAFEF70CFF05265F
:1036A000FEF75DFFFEF75BFF1FF00EFFE720C00097
:1036B0006844FCF71AFF2D48684421F0C3F9DE2066
:1036C000C000684421F0BEF9002700E6F7E7FEE5F8
:1036D00006E6A2E50327FFF71CFBFFA8A83021F0B0
:1036E000B1F9FFF7F8FA0527FFF728F9B7A821F095
:1036F000A9F9FFF70DF91FF0E7FE27AC1DAB9C42BF
:1037000008D0283C20001830FCF7BFFE200021F034
:1037100099F9F3E71FF0D8FE411F011080E4021071
:1037200044070000001D0020540700004C07000063
:10373000D81C00206C060310A81C00205C1C002074
:10374000581C0020601C0020641C0020681C002005
:1037500074220020C01C00201C1D00206C1C0020B6
:103760000423002074220020682A00200C07000097
:1037700010B502490120FEF78DFE10BDFFFF0000CD
:10378000F0B5CE46474680B5D74CA54404000D00A1
:1037900001280CD0002C04D1D44B9D4201D101F062
:1037A000A8F8D34B9D44C0BCB946B046F0BDCF4B42
:1037B0009942EFD1CF4B00221A719A60CE49D9605D
:1037C00019615A61CD4B1E6801361E60012E30D042
:1037D000CB4A136801331360012B63D0C94B1F68B8
:1037E00001371F60012F67D0C74A13680133136088
:1037F000012B01D101F043F8C44A1368013313606F
:10380000012B01D101F067F8C14A1368013313603D
:10381000012B01D101F064F8BE4A13680133136033
:10382000012BB7D1BC49BD48BD4A6A44FCF79AFE9A
:10383000B0E7BC49BC4841AAFCF794FEBB49BC4870
:1038400042AAFCF78FFE10E0042605239B1B1824D8
:103850005C43B54BE418B44B9C4201D101F09AF89B
:10386000183C200021F0EEF8F5E7B249B24843AA2F
:10387000FCF778FE01E00326E7E7B049B04844AA28
:10388000FCF770FE01E00226DFE7AE49AE4845AA2C
:10389000FCF768FEAD49AE4846AAFCF763FE97E721
:1038A0000026D2E7AB4B00221A705A6002219960C1
:1038B0001C3119735A7391E797494DAA47A8FCF731
:1038C00051FE10E0112411231B1B4C245C43A24B1E
:1038D000E418A14B9C4201D101F083F84C3C20003C
:1038E000FCF713FEF5E78C4954AA4EA8FCF73AFE04
:1038F00004E0112447A821F0A5F8E4E70026559636
:1039000001235B42569357936423FF336B441E702D
:103910000C22310059A81BF0A1FB59965A965B96D0
:103920008D4859AB03936423FF336B44029357AB29
:10393000019356AB009355AB4EAA47A9FDF772FB16
:1039400007E0112459A8FCF7D0FD4EA821F07AF821
:10395000D0E7824962AA5CA8FCF704FE01E01024CB
:10396000F0E77F4969AA63A8FCF7FCFD04E0102496
:103970005CA821F067F8E5E703236A93043B6B93A7
:103980006C930026B823FF336B441E700C22310069
:103990006EA81BF063FB6E966F96709671486EABC7
:1039A0000393B823FF336B4402936CAB01936BAB6F
:1039B00000936AAB63AA5CA9FDF734FB07E010240F
:1039C0006EA8FCF792FD63A821F03CF8D0E76649A9
:1039D00077AA71A8FCF7C6FD01E00F24F0E7634960
:1039E0007EAA78A8FCF7BEFD04E00F2471A821F0A0
:1039F00029F8E5E703237F93043B80938193002616
:103A00005B4B6B441E700C22310083A81BF026FB1D
:103A1000839684968596574883AB0393544B6B44A7
:103A2000029381AB019380AB00937FAB78AA71A91D
:103A3000FDF7F8FA07E00F2483A8FCF756FD78A8F5
:103A400021F000F8D2E74C498CAA86A8FCF78AFD41
:103A500001E00E24F0E7494993AA8DA8FCF782FD06
:103A600004E00E2486A820F0EDFFE5E701239493FF
:103A700000269596FF2252429692414A6A4413705C
:103A80000C22310098A81BF0E9FA989699969A961C
:103A90003C4898AB03933A4B6B44029396AB01932B
:103AA00095AB009394AB8DAA86A9FDF7BBFA07E00E
:103AB0000E2498A8FCF719FD8DA820F0C3FFD1E7CC
:103AC0003149A1AA9BA8FCF74DFD01E00D24F0E7C8
:103AD0001149A8AAA2A8FCF745FD57E00D249BA810
:103AE00020F0B0FFE5E7C0469CF8FFFFFFFF0000B5
:103AF00064070000802A0020842A00206C1C00201B
:103B0000701C0020681C0020641C0020601C002029
:103B1000581C00205C1C00206C060310C01C0020F8
:103B20005C0700003CE302107422002044E3021012
:103B30008C2200204CE30210A422002054E3021047
:103B4000BC2200205CE30210D422002064E30210B7
:103B5000EC220020042300201C1D00206CE3021036
:103B600070E30210681D00202847031074E3021060
:103B70000B020000B41D002080E3021084E3021059
:103B80005F020000001E002040FE02100323A993E4
:103B9000043BAA93AB930026E64B6B441E700C22A9
:103BA0003100ADA81BF05AFAAD96AE96AF96E2483A
:103BB000ADAB0393DF4B6B440293ABAB0193AAAB6A
:103BC0000093A9ABA2AA9BA9FDF72CFA07E00D244C
:103BD000ADA8FCF78AFCA2A820F034FF7FE7D74904
:103BE000B6AAB0A8FCF7BEFC01E00C24F0E7D4496B
:103BF000BDAAB7A8FCF7B6FC04E00C24B0A820F0DE
:103C000021FFE5E70423BE930023BF930533C09350
:103C1000CC4B6B4401221A70CB49C7AA1DA8FCF7F4
:103C2000A1FC11E005270C240522D21B18235343C5
:103C30001DAAD5181DAB9D4201D100F0CDFE183D47
:103C4000280020F0FFFEF5E7C049C8AA23A8FCF72A
:103C500089FC02E004270C24E6E7BD49C9AA29A88B
:103C6000FCF780FC02E003270C24DDE7B949CAAA6F
:103C70002FA8FCF777FC02E002270C24D4E7B64912
:103C8000CBAA35A8FCF76EFC01E00C24CCE7B349C5
:103C9000CCAA3BA8FCF766FC02E000270C24C3E793
:103CA0001DA9C5910622C692CDABC2A8FCF7F0FDB6
:103CB0000BE00C2441AD1DAB9D4201D100F089FE0B
:103CC000183D280020F0BEFEF5E7A548C2AB0393DF
:103CD0009C4B6B440293C0AB0193BFAB0093BEAB54
:103CE000B7AAB0A9FDF79EF904E00C24C2A8FCF71E
:103CF000FCFBDFE79B49D4AACEA8FCF733FC01E02C
:103D00000B24F3E79849DBAAD5A8FCF72BFC04E0C9
:103D10000B24CEA820F096FEE8E70223DC93033BB9
:103D2000DD93DE93914B6B4401221A700B3200211C
:103D3000E0A81BF093F90023E093E193E2938C4811
:103D4000E0AB0393894B6B440293DEAB0193DDAB95
:103D50000093DCABD5AACEA9FDF764F907E00B24EC
:103D6000E0A8FCF7C2FBD5A820F06CFED1E78149A2
:103D7000E9AAE3A8FCF7F6FB01E00A24F0E77E4994
:103D8000F0AAEAA8FCF7EEFB04E00A24E3A820F07E
:103D900059FEE5E70123F1930A22F2925A32F39297
:103DA000764A6A4413700C220021F5A81BF056F9DC
:103DB0000023F593F693F7937148F5AB03936F4B9C
:103DC0006B440293F3AB0193F2AB0093F1ABEAAA1D
:103DD000E3A9FDF727F907E00A24F5A8FCF785FB1E
:103DE000EAA820F02FFED1E76649FEAAF8A8FCF762
:103DF000B9FB01E00924F0E76349FFAA1832FFA8E4
:103E0000FCF7B0FB04E00924F8A820F01BFEE4E76F
:103E10000323FFAA1C321360043BFFAA2032136065
:103E2000FFAA243213600026FFAB2B331E700C2236
:103E30003100FFA82C301BF011F9FFAB2C331E60B2
:103E4000FFAB30331E60FFAB34331E604F48FFAB17
:103E50002C330393FFAB2B330293FFAB243301933B
:103E6000FFAB20330093FFAB1C33FFAAF8A9FDF78B
:103E7000D9F808E00924FFA82C30FCF736FBFFA88E
:103E800020F0E0FDC0E74249FFAA5032FFA83830D9
:103E9000FCF768FB01E00824EDE73E49FFAA6C321D
:103EA000FFA85430FCF75EFB05E00824FFA838307B
:103EB00020F0C8FDDFE70223FFAA70321360033B46
:103EC000FFAA74321360FFAA78321360FFAB7F330E
:103ED00001221A700B320021FFA880301BF0BEF8BF
:103EE0000023FFAA80321360FFAA84321360FFAA66
:103EF000883213602848FFAB80330393FFAB7F33D6
:103F00000293FFAB78330193FFAB74330093FFABA5
:103F10007033FFAA5432FFA93831FDF783F83DE032
:103F20000824FFA88030FCF7E0FAFFA8543020F006
:103F300089FDBBE7B30200004C1E002094E3021091
:103F400098E30210070300003CE3021044E3021070
:103F50004CE3021054E302105CE3021064E302102D
:103F6000981E0020A8E30210ACE302107F030000BB
:103F7000E41E0020BCE30210C0E30210D3030000E3
:103F8000301F0020D4E302106C0603107C1F0020B9
:103F9000D8E30210DCE30210C81F0020E949FFAAA1
:103FA000A432FFA88C30FCF7DDFA01E00724B8E763
:103FB000E549FFAAC032FFA8A830FCF7D3FA05E014
:103FC0000724FFA88C3020F03DFDAAE70423FFAAB8
:103FD000C43213600023FFAAC83213600333FFAA60
:103FE000CC321360FFABD33301221A70D749FFAA3A
:103FF000E83205A8FCF7B6FA11E0032707240322EC
:10400000D21B1823534305AAD51805AB9D4201D1F5
:1040100000F0D9FC183D280020F014FDF5E7CC494C
:10402000FFAAEC320BA8FCF79DFA02E00227072456
:10403000E5E7C849FFAAF03211A8FCF793FA01E0BE
:104040000724DCE7C449FFAAF43217A8FCF78AFA70
:1040500002E000270724D2E705A9FFABE03319608F
:104060000422FFABE4331A60FFABF833FFA8D4306F
:10407000FCF70EFC0BE007241DAD05AB9D4201D102
:1040800000F09EFC183D280020F0DCFCF5E7B3486A
:10409000FFABD4330393FFABD3330293FFABCC33EB
:1040A0000193FFABC8330093FFABC433FFAAA83220
:1040B000FFA98C31FCF7B6FF05E00724FFA8D43038
:1040C000FCF713FAD8E7A649A222D2006A44FFA857
:1040D000FC30FCF747FA01E00624EFE7A149A24AC9
:1040E0006A44A2486844FCF73DFA05E00624FFA8AC
:1040F000FC3020F0A7FCE1E70223A622D2006A44AC
:104100001360033B9A4A6A441360A722D2006A44B0
:104110001360984B6B4401221A700B320021A823C4
:10412000DB006B4418001AF099FF0023A822D2008C
:104130006A441360904A6A441360A922D2006A4418
:1041400013608E48A823DB006B440393894B6B44B8
:104150000293A723DB006B440193854B6B440093D0
:10416000A623DB006B44814A6A44FFA9FC31FCF7BB
:1041700059FF0AE00624A820C0006844FCF7B5F9FE
:104180007A48684420F05EFCB1E77D497D4A6A4484
:104190007D486844FCF7E6F901E00524EBE77B493C
:1041A000B022D2006A44AD20C0006844FCF7DAF9BE
:1041B00005E005247448684420F044FCDBE7012353
:1041C000734A6A4413600026B122D2006A44166022
:1041D0006422704969440A606F4A6A4413700C2271
:1041E00031006E4B6B4418001AF038FF6B4B6B4478
:1041F0001E60B323DB006B441E60694B6B441E6082
:104200006848664B6B440393634B6B440293614B6A
:104210006B440193B123DB006B4400935C4B6B4414
:10422000AD22D2006A4458496944FCF7FBFE0AE01B
:1042300005245A486844FCF758F9AD20C00068448A
:1042400020F000FCB6E75849B722D2006A44B420F7
:10425000C0006844FCF786F901E00424E9E753490B
:10426000534A6A4453486844FCF77CF906E0042446
:10427000B420C000684420F0E5FBDAE70223BB224B
:10428000D2006A441360033B4B4A6A441360BC2269
:10429000D2006A441360494B6B4401221A700B32FE
:1042A0000021BD23DB006B4418001AF0D7FE002369
:1042B000BD22D2006A441360414A6A441360BE22A0
:1042C000D2006A4413603F48BD23DB006B44039374
:1042D0003A4B6B440293BC23DB006B440193364B97
:1042E0006B440093BB23DB006B44324A6A44B42125
:1042F000C9006944FCF796FE0AE00424BD20C00012
:104300006844FCF7F2F82B48684420F09BFBAFE7C9
:104310002D492E4A6A442E486844FCF723F901E0EF
:104320000324EBE72B49C522D2006A44C220C00017
:104330006844FCF717F94FE003242548684420F04F
:1043400081FBDBE7ECE30210F0E30210FCE3021078
:1043500010E4021020E402102CE4021014200020CB
:1043600038E402103CE402102C05000014050000A3
:10437000340500003F0500004405000060200020D7
:1043800054E40210640500004C05000058E40210DB
:10439000840500008C0500009305000094050000D2
:1043A0009C050000AC20002068E402106CE40210C0
:1043B000D4050000BC050000DC050000E705000096
:1043C000EC050000F820002078E402100C06000044
:1043D000F40500006C0603100223EE4A6A441360E1
:1043E000033BC622D2006A441360EB4A6A4413605E
:1043F0000026EA4B6B441E700C223100E84B6B44E4
:1044000018001AF02BFEE64B6B441E60C823DB003D
:104410006B441E60E34B6B441E60E348E04B6B440F
:104420000393DE4B6B440293DB4B6B440193C62337
:10443000DB006B440093D74B6B44C222D2006A442A
:10444000DA496944FCF7EEFD0AE00324D4486844E5
:10445000FCF74BF8C220C000684420F0F3FA6CE788
:10446000D349CC22D2006A44C920C0006844FCF77A
:1044700079F801E00224E9E7CE49CF4A6A44CF48FF
:104480006844FCF76FF806E00224C920C0006844C5
:1044900020F0D8FADAE70323D022D2006A4413606E
:1044A000043BC74A6A441360D122D2006A441360B5
:1044B000002399466B46C34A9B184A461A70D22677
:1044C000F6006E440C32494630001AF0C7FD4A46E9
:1044D00032607260B260BC480396BA4B6B44029380
:1044E000D123DB006B440193B54B6B440093D02385
:1044F000DB006B44B14A6A44C921C9006944FCF736
:1045000091FD0BE00227D220C0006844FBF7EDFFCD
:10451000AA48684420F096FA3C00B6E7AB49AC4A9A
:104520006A44AC486844FCF71DF8A249DA22D2007C
:104530006A44D720C0006844FCF714F80023994669
:10454000A54B6B444A461A6001235B42DB22D20032
:104550006A441360A14A6A4413606B46A04A9B18E0
:104560004A461A709F4E6E440C32494630001AF08B
:1045700075FD4A4632607260B2609B480396984B64
:104580006B440293954B6B440193DB23DB006B443C
:104590000093914B6B44D722D2006A448D49694401
:1045A000FCF740FD9149E122D2006A44DE20C000C0
:1045B0006844FBF7D7FF0EE000278A486844FBF702
:1045C00094FFD720C000684420F03CFA814868443A
:1045D00020F038FA97E77749854A6A448548684465
:1045E000FBF7C0FF0523E522D2006A441360063BB7
:1045F000814A6A441360E622D2006A4413607F4F06
:104600006F44002398463B70E726F6006E440C2268
:10461000190030001AF022FD424632607260B2602A
:10462000774803960297E623DB006B440193724BB5
:104630006B440093E523DB006B446E4A6A44DE2141
:10464000C9006944FCF7EEFC3000FBF74EFF6948F7
:10465000684420F0F7F9DE20C000684420F0F2F949
:1046600060486844FBF741FFD720C000684420F051
:10467000E9F95848684420F0E5F9D220C0006844C0
:10468000FBF733FF4D48684420F0DCF9C920C00037
:10469000684420F0D7F942486844FBF726FFC2205F
:1046A000C000684420F0CEF94048684420F0CAF9C0
:1046B000BD20C0006844FBF718FF5248684420F052
:1046C000C1F9B420C000684420F0BCF94E486844E9
:1046D000FBF70BFFAD20C000684420F0B3F94B4856
:1046E000684420F0AFF9A820C0006844FBF7FDFE45
:1046F0004748684420F0A6F9FFA8FC3020F0A2F952
:10470000FFA8D430FBF7F1FE1DAE05AB9E4204D0EE
:10471000183E300020F096F9F7E7FFA8A83020F007
:1047200091F9FFA88C3020F08DF9FFA88030FBF7BD
:10473000DCFEFFA8543020F085F9FFA8383020F0C7
:1047400081F9FFA82C30FBF7D0FEFFA820F07AF902
:10475000F8A820F077F9F5A8FBF7C7FEEAA820F043
:1047600071F9E3A820F06EF9E0A8FBF7BEFED5A82A
:1047700020F068F9CEA820F065F9C2A8FBF7B5FED5
:1047800041AE1DAB9E4245D0183E300020F05AF994
:10479000F7E7C0462C060000340600003B06000088
:1047A0003C0600004406000044210020F4050000FF
:1047B0007CE402106C0603107C0600006406000016
:1047C000840600008F0600009021002080E4021083
:1047D000B40600009C060000D4060000DC060000C1
:1047E000E3060000E4060000DC21002088E402105B
:1047F000240700000C0700002C070000370700000A
:1048000028220020BC050000940500004C05000093
:1048100014050000B7A820F015F9B0A820F012F98F
:10482000ADA8FBF762FEA2A820F00CF99BA820F02F
:1048300009F998A8FBF759FE8DA820F003F986A87E
:1048400020F000F983A8FBF750FE78A820F0FAF8D2
:1048500071A820F0F7F86EA8FBF747FE63A820F0D8
:10486000F1F85CA820F0EEF859A8FBF73EFE4EA840
:1048700020F0E8F847A820F0E5F8FEF7B5FF614A18
:1048800061491DAE3000FBF785FE604B6B441E6036
:104890000122E923DB006B441A605D485D4B6B44E9
:1048A0000293EA23DB006B4401935B4B6B44009360
:1048B00000233100FCF72EFB27AE1DAB9E4201D139
:1048C000FEF79AFF283E30001830FBF7DEFD30007F
:1048D00020F0B8F8F1E75148FCF7A3F8FEF794FF91
:1048E0004F495048EB22D2006A44FBF73BFEFEF7EB
:1048F00093FF4D4A1368013B1360002B19D04B4ABC
:104900001368013B1360002B17D0494A1368013B21
:104910001360002B15D0474A1368013B1360002B2E
:1049200013D0454A1368013B1360002B18D1434C48
:1049300013E0434820F086F8E1E73A4820F082F897
:10494000E3E73648FBF7F5FEE5E73148FBF7E9FF1B
:10495000E7E74C3C2000FBF7D8FD3A4B9C42F8D1EE
:10496000394A1368013B1360002B08D1374C384B90
:104970009C4204D0183C200020F064F8F7E735484A
:104980008168FCF7F8F8FEF70CFF0526FEF75DFFDF
:10499000FEF75BFF1EF098FDE720C0006844FBF7C0
:1049A000A4FD2D48684420F04DF8DE20C000684486
:1049B00020F048F8002700E6F7E7FEE506E6A2E566
:1049C0000327FFF71CFBFFA8A83020F03BF8FFF7F8
:1049D000F8FA0527FFF728F9B7A820F033F8FFF712
:1049E0000DF91EF071FD27AC1DAB9C4208D0283C90
:1049F00020001830FBF749FD200020F023F8F3E7F2
:104A00001EF062FD411F011080E402104407000007
:104A1000001D0020540700004C070000D81C002097
:104A20006C060310A81C00205C1C0020581C0020F1
:104A3000601C0020641C0020681C002074220020E0
:104A4000C01C00201C1D00206C1C00200423002022
:104A500074220020802A00200C07000010B50249B3
:104A60000120FEF78DFE10BDFFFF000010B5040011
:104A7000024B03600AF02AF8200010BD00E7021084
:104A800010B50400FFF7F2FF042120001EF07EFCA9
:104A9000200010BD10B504000AF028F8014B236077
:104AA000200010BD00E7021010B504000068A168E6
:104AB000091A002801D01EF069FC200010BD10B5B5
:104AC00000238022520591425B41002B03D1C80094
:104AD0001FF0D6FA10BD80239B05994201D31FF029
:104AE0007BFD1FF069FD70B505000C1E08D000228B
:104AF000FFF7E5FF28606860E4000019A86070BD5A
:104B00000020F7E730B50300100003E0020030CBCF
:104B100030C210008B42F9D130BD10B5FFF7F2FF63
:104B200010BD70B504000D0049682B68C91AC91082
:104B30000023036043608360FFF7D5FF286869683E
:104B40002268FFF7EAFF6060200070BDF0B5C6463E
:104B500000B586B005000E001F00531E032B08D9B8
:104B6000D31F0B2B17D90E3B0C2B17D903239846B9
:104B700001E0022398465400A21892000F495118F0
:104B800003A8FFF7CEFF0097434603AA3100280091
:104B90000AF0DAF805E001239846ECE7002398468E
:104BA000E9E703A8FFF780FF06B080BCB846F0BD78
:104BB00003A8FFF779FF1EF087FCC046642500209C
:104BC000F8B5CE46474680B505000E0017001C001C
:104BD000089B98460521200019F0B4F98946002960
:104BE00006DCA64B5B7B002B08D04346DB0705D4D5
:104BF00043460F2231002800FFF7A8FF4B46012B48
:104C000006DC9E4B5B7B002B08D04346DB0705D4BC
:104C10004346102231002800FFF798FF4B46022B35
:104C200006DC964B5B7B002B08D04346DB0705D4A4
:104C30004346112231002800FFF788FF4B46032B23
:104C400006DC8E4B5B7B002B08D04346DB0705D48C
:104C50004346122231002800FFF778FF4346012225
:104C600031002800FFF772FF43460222310028007E
:104C7000FFF76CFF182C04DD781C182119F062F97D
:104C80000F00002F05D0172F09D8BF007C4BDB5930
:104C90009F464346202231002800FFF757FF671F39
:104CA000132F6AD92300233B042B75D92300193B0A
:104CB000042B78D92300283B132B7BD9042C62D8F2
:104CC0004346032231002800FFF740FF5BE0042C3D
:104CD00006D84346212231002800FFF737FFDEE7E0
:104CE0004346152231002800FFF730FFD7E743463F
:104CF000162231002800FFF729FFD0E7434617228C
:104D000031002800FFF722FFC9E74346182231008F
:104D10002800FFF71BFFC2E7434619223100280095
:104D2000FFF714FFBBE743461A2231002800FFF7C4
:104D30000DFFB4E743461B2231002800FFF706FFB2
:104D4000ADE743461C2231002800FFF7FFFEA6E72F
:104D500043461D2231002800FFF7F8FE9FE7434637
:104D60001E2231002800FFF7F1FE98E743461F227C
:104D700031002800FFF7EAFE91E743460C2231009C
:104D80002800FFF7E3FE042F1BD90A3C312C1ED864
:104D9000A4003C4B1B599F4643460C22310028007F
:104DA000FFF7D4FEEFE743460B2231002800FFF760
:104DB000CDFEE8E743460B2231002800FFF7C6FE90
:104DC000E1E74346072231002800FFF7BFFEC0BCE1
:104DD000B946B046F8BD4346082231002800FFF727
:104DE000B5FEF4E743460A2231002800FFF7AEFE85
:104DF000EDE74346092231002800FFF7A7FEE6E76A
:104E00004346072231002800FFF7A0FE43460D224B
:104E100031002800FFF79AFED9E743460D22310002
:104E20002800FFF793FED2E743460722310028000F
:104E3000FFF78CFE43460D2231002800FFF786FE67
:104E4000C5E74346092231002800FFF77FFEBEE791
:104E500043460A2231002800FFF778FEB7E74346B1
:104E6000082231002800FFF771FEB0E74346072211
:104E700031002800FFF76AFEA9E7C046042300209E
:104E8000A4E5021004E6021030B50300100003E0B0
:104E9000020030CB30C210008B42F9D130BD00008F
:104EA000F8B504000E001700551AE9100B4B9D428F
:104EB0000ED800290FD00022FFF701FE0200226069
:104EC0005519A56039003000FFF7DEFF6060F8BDBE
:104ED00003481FF0A9FB0022F1E7C046F8FFFF7F5F
:104EE00008E3021010B582B0040000910192002383
:104EF000036043608360D2008A18FFF7D1FF04E0AB
:104F00002000FFF7D1FD1EF0DFFA200002B010BD37
:104F1000F0B5CE46474680B5E14CA54404000D00EF
:104F200001280CD0002C04D1DE4B9D4201D101F0B0
:104F30005FFEDD4B9D44C0BCB946B046F0BDD94BC9
:104F40009942EFD1D94B00221A719A60D849D960A1
:104F500019615A61D74B1E6801361E60012E56D06A
:104F6000D54A136801331360012B01D101F06EF9AA
:104F7000D24A136801331360012B01D101F091F97A
:104F8000CF4A136801331360012B01D101F08EF970
:104F9000CC4A136801331360012B01D101F08EF963
:104FA000C94B1E6801361E60012E01D101F08FF938
:104FB000C64A136801331360012B01D101F0C8F90F
:104FC000C34B1E6801361E60012EABD1C14F0C22AF
:104FD000002138001AF042F800233B607B60BB6080
:104FE000BD4A6A441360536001219160D36011008F
:104FF000BA4B6B441A6002229A231B016B441A605D
:10500000B748B84B6B44FFF76DFF01F0ACF9B649F8
:10501000D6AAD0A8FBF7A6FA10E0112411231B1B77
:105020004C245C43B14BE418B04B9C4201D101F0DD
:1050300065FE4C3C2000FBF768FAF5E7AA49DDAABB
:10504000D7A8FBF78FFA04E01124D0A81FF0FAFCD0
:10505000E4E70027DE9701235B42DF93E093A44B54
:105060006B441F700C223900E2A819F0F7FFE29799
:10507000E397E4979D48E2AB03939D4B6B44029307
:10508000E0AB0193DFAB0093DEABD7AAD0A9FBF76F
:10509000C9FF07E01124E2A8FBF727FAD7A81FF001
:1050A000D1FCD2E79349EBAAE5A8FBF75BFA01E054
:1050B0001024F0E79049F2AAECA8FBF753FA04E0B9
:1050C0001024E5A81FF0BEFCE5E70323F393043B9F
:1050D000F493F5930027894B6B441F700C22390021
:1050E000F7A819F0BBFFF797F897F9978448F7AB43
:1050F0000393824B6B440293F5AB0193F4AB0093A3
:10510000F3ABECAAE5A9FBF78DFF07E01024F7A8A5
:10511000FBF7EBF9ECA81FF095FCD2E77949FFAA61
:105120000432FAA8FBF71EFA01E00F24EFE77649F4
:10513000FFAA2032FFA80830FBF714FA04E00F247E
:10514000FAA81FF07FFCE2E70323FFAA24321360D2
:10515000043BFFAA28321360FFAA2C3213600027F9
:10516000FFAB33331F700C223900FFA8343019F025
:1051700075FFFFAB34331F60FFAB38331F60FFABED
:105180003C331F606148FFAB34330393FFAB3333D1
:105190000293FFAB2C330193FFAB28330093FFAB9B
:1051A0002433FFAA0832FAA9FBF73CFF09E00F24D9
:1051B000FFA83430FBF799F9FFA808301FF042FC34
:1051C000BEE75349FFAA5832FFA84030FBF7CAF99F
:1051D00001E00E24ECE74F49FFAA7432FFA85C30CF
:1051E000FBF7C0F905E00E24FFA840301FF02AFCB1
:1051F000DEE70123FFAA783213600027FFAA7C3282
:105200001760FF225242FFA980310A60FFAA87324D
:1052100013700C223900FFA8883019F01FFFFFAB74
:1052200088331F60FFAB8C331F60FFAB90331F6070
:105230003948FFAB88330393FFAB87330293FFAB4F
:1052400080330193FFAB7C330093FFAB7833FFAA2D
:105250005C32FFA94031FBF7E5FE09E00E24FFA810
:105260008830FBF742F9FFA85C301FF0EBFBBBE78F
:105270002A49FFAAAC32FFA89430FBF773F901E08A
:105280000D24ECE71849FFAAC832FFA8B030FBF79D
:1052900069F945E00D24FFA894301FF0D3FBDEE749
:1052A0005CF4FFFFFFFF0000A40B0000982A002021
:1052B0009C2A0020681C0020641C0020601C002028
:1052C000581C00205C1C00206C1C0020701C00205E
:1052D0007C1C002064250020A40900009C0900001B
:1052E00070250020B40900006C0603101C1D00206E
:1052F000870300006CE3021070E30210DB03000080
:10530000681D00202847031074E30210B41D00201C
:1053100080E3021084E30210001E002040FE021011
:105320000323FFAACC321360043BFFAAD0321360E0
:10533000FFAAD43213600027FFABDB331F700C22AF
:105340003900FFA8DC3019F089FEFFABDC331F60A9
:10535000FFABE0331F60FFABE4331F60D848FFAB07
:10536000DC330393FFABDB330293FFABD433019306
:10537000FFABD0330093FFABCC33FFAAB032FFA911
:105380009431FBF74FFE09E00D24FFA8DC30FBF75A
:10539000ACF8FFA8B0301FF055FB7CE7C949CA4AFA
:1053A0006A44FFA8E830FBF7DDF801E00C24ECE7E5
:1053B000C649A322D2006A44A020C0006844FBF77B
:1053C000D1F805E00C24FFA8E8301FF03BFBDCE738
:1053D0000423BF4A6A4413600023A422D2006A4413
:1053E00013600533BB4A6A441360BB4B6B44012214
:1053F0001A70BA49A822D2006A44ACA8FBF7B2F8E6
:1054000011E005260C240522921B18235343ACAA55
:10541000D518ACAB9D4201D101F069FC183D2800C4
:105420001FF010FBF5E7AE49AE4A6A44B2A8FBF79D
:1054300099F802E004260C24E5E7AB49A922D20042
:105440006A44B8A8FBF78EF802E003260C24DAE7DA
:10545000A649A74A6A44BEA8FBF784F802E00226E0
:105460000C24D0E7A349AA22D2006A44C4A8FBF7BF
:1054700079F801E00C24C6E79F49A04A6A44CAA80B
:10548000FBF770F802E000260C24BCE7ACA9A723C8
:10549000DB006B4419600622994B6B441A60AB2306
:1054A000DB006B4497486844FBF7F2F90BE00C24EF
:1054B000D0ADACAB9D4201D101F016FC183D2800E7
:1054C0001FF0C0FAF5E790488E4B6B440393824B74
:1054D0006B4402937F4B6B440193A423DB006B442A
:1054E00000937B4B6B44A022D2006A44FFA9E831B1
:1054F000FBF798FD05E00C2482486844FAF7F5FFB5
:10550000D6E78249824A6A4482486844FBF72AF80F
:1055100001E00B24F0E78049B222D2006A44AF20B8
:10552000C0006844FBF71EF805E00B247948684486
:105530001FF088FAE0E70223784A6A441360033BCD
:10554000B322D2006A441360754A6A441360754BF3
:105550006B4401221A700B320021734B6B4418000C
:1055600019F07CFD0023704A6A441360B522D20012
:105570006A4413606D4A6A4413606D486A4B6B4419
:105580000393684B6B440293654B6B440193B323C5
:10559000DB006B440093614B6B44AF22D2006A4442
:1055A0005C496944FBF73EFD0AE00B245E48684411
:1055B000FAF79BFFAF20C00068441FF043FAB5E73D
:1055C0005C49B922D2006A44B620C0006844FAF7A8
:1055D000C9FF01E00A24E9E75749584A6A44584894
:1055E0006844FAF7BFFF06E00A24B620C00068440A
:1055F0001FF028FADAE70123BD22D2006A441360C3
:105600000A22504969440A605A32BE21C9006944DD
:105610000A604D4A6A4413700C220021BF23DB004C
:105620006B44180019F01AFD0023BF22D2006A440F
:105630001360464A6A441360C022D2006A44136071
:105640004348BF23DB006B4403933F4B6B440293FF
:10565000BE23DB006B4401933A4B6B440093BD23A4
:10566000DB006B44364A6A44B621C9006944FBF743
:10567000D9FC0AE00A24BF20C0006844FAF735FFCD
:105680002F4868441FF0DEF9AFE73249324A6A44D6
:1056900032486844FAF766FF01E00924EBE7304935
:1056A000C722D2006A44C420C0006844FAF75AFFF7
:1056B00058E00924294868441FF0C4F9DBE7C046D4
:1056C0004C1E002094E30210FC04000098E302103A
:1056D0001C050000240500002B0500003CE302101F
:1056E00044E30210440500004CE3021054E30210AE
:1056F0004C0500005CE3021064E302105405000056
:105700003C0500002C050000981E0020A8E30210B4
:10571000740500005C050000ACE302109405000075
:105720009C050000A3050000A4050000AC050000D6
:10573000E41E0020BCE30210C0E30210E4050000F8
:10574000CC050000EC050000F7050000FC0500009A
:10575000301F0020D4E302101C06000004060000E5
:105760006C0603100323E04A6A441360043BC8221A
:10577000D2006A441360DD4A6A4413600027DC4BA0
:105780006B441F700C223900DA4B6B44180019F07F
:1057900065FCD84B6B441F60CA23DB006B441F6061
:1057A000D54B6B441F60D548D24B6B440393D04B11
:1057B0006B440293CD4B6B440193C823DB006B44D5
:1057C0000093C94B6B44C422D2006A44CC4969445B
:1057D000FBF728FC0AE00924C6486844FAF785FE6E
:1057E000C420C00068441FF02DF963E7C549CE22EC
:1057F000D2006A44CB20C0006844FAF7B3FE01E04F
:105800000824E9E7C049C14A6A44C1486844FAF734
:10581000A9FE06E00824CB20C00068441FF012F95E
:10582000DAE70223D222D2006A441360033BB94A6A
:105830006A441360D322D2006A441360B64B6B44AF
:1058400001221A700B320021D423DB006B441800B4
:1058500019F004FC0023D422D2006A441360AF4A3A
:105860006A441360D522D2006A441360AC48D42342
:10587000DB006B440393A84B6B440293D323DB0000
:105880006B440193A34B6B440093D223DB006B4426
:105890009F4A6A44CB21C9006944FBF7C3FB0AE075
:1058A0000824D420C0006844FAF71FFE98486844D2
:1058B0001FF0C8F8AFE79B499B4A6A449B4868447D
:1058C000FAF750FE01E00724EBE79949DC22D20009
:1058D0006A44D920C0006844FAF744FE05E0072472
:1058E000924868441FF0AEF8DBE70423914A6A440B
:1058F00013600023DD22D2006A44136003338E4A12
:105900006A4413608D4B6B4401221A708C49E1226A
:10591000D2006A4494A8FAF725FE11E00326072472
:105920000322921B1823534394AAD51894AB9D428B
:1059300001D101F0D2F9183D28001FF083F8F5E7F6
:105940008049814A6A449AA8FAF70CFE02E00226CE
:105950000724E5E77D49E222D2006A44A0A8FAF7CD
:1059600001FE01E00724DBE779497A4A6A44A6A8E8
:10597000FAF7F8FD02E000260724D1E794A9E02316
:10598000DB006B4419600422734B6B441A60E32301
:10599000DB006B4471486844FAF77AFF0BE0072498
:1059A000ACAD94AB9D4201D101F094F9183D2800B3
:1059B0001FF048F8F5E76A48684B6B4403935F4B68
:1059C0006B4402935C4B6B440193DD23DB006B441F
:1059D0000093584B6B44D922D2006A44534969441E
:1059E000FBF720FB05E007245C486844FAF77DFDDF
:1059F000D6E75C495C4A6A445C486844FAF7B2FD01
:105A000001E00624F0E75A49EA22D2006A44E7207E
:105A1000C0006844FAF7A6FD05E006245348684430
:105A20001FF010F8E0E70223524A6A441360033B78
:105A3000EB22D2006A4413604F4A6A4413604F4B12
:105A40006B4401221A700B3200214D4B6B4418003D
:105A500019F004FB00234A4A6A441360ED22D20085
:105A60006A441360474A6A4413604748444B6B4496
:105A70000393424B6B4402933F4B6B440193EB23E4
:105A8000DB006B4400933B4B6B44E722D2006A443B
:105A900036496944FBF7C6FA0AE0062438486844E8
:105AA000FAF723FDE720C00068441EF0CBFFB5E7FE
:105AB0003649F122D2006A44EE20C0006844FAF769
:105AC00051FD01E00524E9E73149324A6A44324890
:105AD0006844FAF747FD61E00524EE20C000684401
