:020000041000EA
:1000000000B50C4B00219960042159610A4919601F
:100010000A490B480160002159600121996001BC27
:10002000002800D0004707480749086003C880F34C
:10003000088808470000001800031F00180200038A
:10004000F40000180001001008ED00E000000000BE
:1000500000000000000000000000000000000000A0
:100060000000000000000000000000000000000090
:100070000000000000000000000000000000000080
:100080000000000000000000000000000000000070
:100090000000000000000000000000000000000060
:1000A0000000000000000000000000000000000050
:1000B0000000000000000000000000000000000040
:1000C0000000000000000000000000000000000030
:1000D0000000000000000000000000000000000020
:1000E0000000000000000000000000000000000010
:1000F0000000000000000000000000002CEC210DBA
:1001000000200420F7010010C3010010C5010010F9
:10011000C1010010C1010010C1010010C101001097
:10012000C1010010C1010010C1010010C701001081
:10013000C1010010C1010010C9010010CB01001065
:10014000CD010010CD010010CD010010CD01001037
:10015000CD010010CD010010CD010010CD01001027
:10016000CD010010CD010010CD010010CD01001017
:10017000CD010010CD010010CD010010CD01001007
:10018000CD010010CD010010CD010010CD010010F7
:10019000CD010010CD010010CD010010CD010010E7
:1001A000CD010010CD010010CD010010CD010010D7
:1001B000CD010010CD010010CD010010CD010010C7
:1001C00000BE00BE00BE00BE00BE00BE00F04BF888
:1001D000103800BEF2EB8871D437021000380210DC
:1001E0003402001090A31AE700202149086006C8D5
:1001F00081F3088810471F48006800282FD10DA4FC
:100200000ECC002902D000F012F8F9E71A491B4A77
:10021000002000E001C19142FCD1194988471949E9
:1002200088471949884700BEFDE701C901C29A42C3
:10023000FBD3704700380210C0000020F81E0020D9
:100240003856021000000420000004203856021026
:1002500000100420001004200000000070470B482C
:100260000DF090FD0047EFF30580C0B2704700002D
:1002700008ED00E0000000D0F81E0020D834002077
:10028000D1C10010ADA20010F9C2001057560000F5
:1002900006005250ABB36053F8F401100600525000
:1002A000861C030214F50110060052505422A29D30
:1002B00084E5011005005250DE65F46838560210DE
:1002C000F8B5C04610B5064C2378002B07D1054B76
:1002D000002B02D0044800E000BF0123237010BDB2
:1002E0000021002000000000A0D90110044B10B52F
:1002F000002B03D00349044800E000BF10BDC046F6
:100300000000000004210020A0D901107047C04661
:10031000692070477047C04610B50400042112F0F0
:1003200069FE200010BDC046014B083303607047D2
:10033000B8D9011010B50400034B08330360FFF770
:10034000E5FF200010BDC046F8D9011010B504002B
:10035000054B08330360FFF7D9FF20000C2112F092
:1003600049FE200010BDC046F8D90110F0B50126A5
:10037000002785B0124D03AC2200277001232321F2
:100380002800009612F0A4F82200267001232321F1
:100390002800009612F09CF80723220023702321E6
:1003A00028000096063B12F093F8132322002370D6
:1003B000232128000097123B12F08AF805B0F0BD07
:1003C00038160020002330B585B0040000932321A7
:1003D0000F48023303AA12F0E3F8002814DD6B463D
:1003E000187B5B7B0002C0180EF002F8A568094A72
:1003F000094B64680DF06DFF0EF012F82A00210021
:1004000006F0C8F805B030BD01204042FAE7C0460A
:1004100038160020333333333333034070B5036869
:10042000184A9B68040084B0934225D100232321FD
:1004300000931548023303AA12F0B2F800281DDD1C
:100440006B46187B5B7B0002C0180DF0D1FFA668DD
:100450000E4A0F4B65680DF03CFF0DF0E1FF3200D6
:10046000290006F097F8C823A26800936168BE3B94
:1004700006F084F804B070BD9847F4E701204042CC
:10048000F1E7C046C503001038160020333333337C
:100490003333034010B50400FFF746FF044B200040
:1004A00008332360002363609633A36010BDC04609
:1004B000F8D901107047C04610B50D220021043054
:1004C0000EF06CFE10BDC046401800797047C04663
:1004D000002905D00C2903D0401802710120704773
:1004E0000020FCE710B50400142112F083FD200069
:1004F00010BDC0460368064ADB6810B5934205D1BB
:100500000D22002104300EF049FE10BD9847FCE793
:10051000B9040010014B08330360704784DA0110FE
:10052000F0B50600083604000D0083B0066000290F
:1005300024D008001CF09AFA070001900F280CD86C
:10054000012807D12B7823720023606033542000E8
:1005500003B0F0BD0028F7D008E00022200001A978
:1005600014F0D0F80600019B2060A36030003A0030
:1005700029000EF019FE01982668E5E7014813F0FE
:10058000B1FEC04614DA011070B584680600002C74
:100590001FD0636A2568002B04D020001C30032282
:1005A00001009847230060680C3398420BD0E36841
:1005B000591C12F01FFD3021200012F01BFD002DF0
:1005C00007D02C00E5E73021200012F013FD002DAC
:1005D000F7D1736800219A0030680EF0DFFD002328
:1005E000F360B3603300306818337168984202D00A
:1005F000890012F0FFFC300070BDC046F0B55746D0
:100600004E46DE464546E0B58269036983B09346AF
:10061000C269009343699046426A1F1D8146924613
:1006200086680193BA4212D93C682500F935FF3536
:1006300023002068083398425AD0A3681834591C04
:1006400012F0D8FCA542F3D10437BA45ECD8019B8F
:100650009A4540D0009B9E420CD03300306808334E
:10066000984252D0B3681836591C12F0C3FC009B54
:10067000B342F2D1C3450ED04346186808339842BE
:100680003DD043469B68591C12F0B4FC18239C468D
:10069000E044C345F0D14B461868002812D05C698D
:1006A0005B6A1D1DAC4208D2FC2101CC490012F04E
:1006B000A1FCA542F8D84B4618684B465B689900E8
:1006C00012F098FC484603B0F0BCBB46B246A946BF
:1006D000A046F0BD1836B345DDD03300306808338E
:1006E0009842F7D0B3681836591C12F083FCF2E731
:1006F0001834A5429CD10437BA4595D8A7E71823EA
:100700009C46E044C345B7D1C5E7009B1836B342C9
:10071000A3D1AFE730B5724B83B01A68541C1C608C
:10072000012C28D06F4B1A68541C1C60012C0ED170
:100730006D4D1022280000210C300EF02FFD6B4B68
:100740006C602B600023AB60FE239B052B61684A25
:10075000136801331360012B57D0664A13680133C5
:100760001360012B4BD0644A136801331360012BD3
:100770003FD003B030BD614D6149280001AAFFF7A9
:10078000CFFE6049604801AAFFF7CAFE5F49604892
:1007900001AAFFF7C5FE5F495F4801AAFFF7C0FE47
:1007A0005E495F4801AAFFF7BBFE5E495E4801AAA9
:1007B000FFF7B6FE5D495E4801AAFFF7B1FE5D494D
:1007C0005D4801AAFFF7ACFE5C495D4801AAFFF74E
:1007D000A7FE5C495C4801AAFFF7A2FE5B495C48A2
:1007E00001AAFFF79DFE5B495B4801AAFFF798FE4F
:1007F00098E7434901AA5948FFF792FEB9E74049F3
:1008000001AA5748FFF78CFEADE70023554C202086
:100810002360A360E36023616361A361E3612362FA
:1008200063620833636013F09FFA05006368206019
:10083000581E400880002D18FC20400013F094FA48
:100840000300F933FF3328606561E060236165626E
:10085000E0612362A060A0617FE70B240B231B1BD8
:1008600018245C432C19AC422AD112F06BFC0A24E8
:10087000F4E70824F2E70724F0E70924EEE706246A
:10088000ECE70224EAE7E9E70024E7E712F048FD95
:1008900013F0D0F90424E1E70524DFE70324DDE7C2
:1008A000050012F077FD280012F03AFD6368206819
:1008B000990012F09FFB00232360636013F0BAF9E4
:1008C000183C2300206808339842CCD0A368591CF8
:1008D00012F090FBC7E712F05DFD12F033FCC0464A
:1008E0004421002040210020D0210020E8210020C8
:1008F0003C2100203421002038210020EC21002060
:10090000BCE7011040DA011004220020C8170210D1
:100910001C22002044DA01103422002048DA0110A1
:100920004C2200204CDA01106422002050DA011021
:100930007C22002054DA01109422002058DA0110A1
:10094000AC2200205CDA0110C422002060DA011021
:10095000DC22002064DA0110F42200209021002023
:1009600078210020A82100207047C0460C2907D814
:10097000C36AC91880235B059C46614408787047A8
:100980000020FCE710B50400034B08330360FFF7B9
:1009900091FD200010BDC046CCDA011010B5040056
:1009A000054B08330360FFF785FD2000302112F06E
:1009B00021FB200010BDC046CCDA011070B5050047
:1009C000EFF3108672B6036A002B0CD00024EB6A9A
:1009D00080219C462003604449011CF099FF2B6A4A
:1009E0000134A342F3D886F3108870BDF0B5C64633
:1009F00000B505000E00904600AF0C295DD8836954
:100A00001A026B469B1A9D4600236C462370601C9D
:100A1000012A03DD0021013A0EF0C0FB80232100F2
:100A2000EA6A5B05D318194389074BD133498C46D1
:100A30006244A21A022A45D91A6822605A68626082
:100A40009A68A2601B7B23734346A3552B682C4AEC
:100A5000DB68934233D1EFF3108872B62B6A002B18
:100A60000CD00026EB6A80219C463003604449018B
:100A70001CF04EFF2B6A0136B342F3D888F310887E
:100A8000EFF3108872B6AB69002B0FD00026EB6A2B
:100A900080229C4630022100604452001CF000FF7E
:100AA000AB6901340136FF34B342F0D888F31088C3
:100AB0000120BD4680BCB846F0BD0020F9E7280003
:100AC0009847DDE71A7822705A7862709A78A27097
:100AD000DA78E2701A7922715A7962719A79A27180
:100AE000DA79E2711A7A22725A7A62729A7AA27268
:100AF000DA7AE2721B7B2373A6E7C046010000107E
:100B0000BD09001010B50400FFF704FD094B802259
:100B1000083323600D2363610C3BA36123628023B0
:100B20005B0163620023A362034B52002000E26179
:100B3000E36210BDCCDA011000F07F0030B5724BDB
:100B400083B01A68541C1C60012C28D06F4B1A68A3
:100B5000541C1C60012C0ED16D4D10222800002168
:100B60000C300EF01BFB6B4B6C602B600023AB60FA
:100B7000FE239B052B61684A136801331360012B28
:100B800057D0664A136801331360012B4BD0644A77
:100B9000136801331360012B3FD003B030BD614DAA
:100BA0006149280001AAFFF7BBFC6049604801AA1F
:100BB000FFF7B6FC5F49604801AAFFF7B1FC5F4947
:100BC0005F4801AAFFF7ACFC5E495F4801AAFFF746
:100BD000A7FC5E495E4801AAFFF7A2FC5D495E489A
:100BE00001AAFFF79DFC5D495D4801AAFFF798FC4B
:100BF0005C495D4801AAFFF793FC5C495C4801AA87
:100C0000FFF78EFC5B495C4801AAFFF789FC5B4952
:100C10005B4801AAFFF784FC98E7434901AA5948B9
:100C2000FFF77EFCB9E7404901AA5748FFF778FC77
:100C3000ADE70023554C20202360A360E3602361CF
:100C40006361A361E361236263620833636013F04D
:100C50008BF8050063682060581E400880002D183E
:100C6000FC20400013F080F80300F933FF332860C4
:100C70006561E06023616562E0612362A060A0615C
:100C80007FE70B240B231B1B18245C432C19AC425D
:100C90002AD112F057FA0A24F4E70824F2E70724CD
:100CA000F0E70924EEE70624ECE70224EAE7E9E7A7
:100CB0000024E7E712F034FB12F0BCFF0424E1E764
:100CC0000524DFE70324DDE7050012F063FB2800BD
:100CD00012F026FB63682068990012F08BF900235C
:100CE0002360636012F0A6FF183C230020680833DD
:100CF0009842CCD0A368591C12F07CF9C7E712F0D7
:100D000049FB12F01FFAC046442100204021002078
:100D1000D0210020E82100203C21002034210020A7
:100D200038210020EC210020BCE7011040DA01103E
:100D300004220020C81702101C22002044DA0110EF
:100D40003422002048DA01104C2200204CDA011035
:100D50006422002050DA01107C22002054DA0110B5
:100D60009422002058DA0110AC2200205CDA011035
:100D7000C422002060DA0110DC22002064DA0110B5
:100D8000F42200209021002078210020A8210020BA
:100D90007047C04610B50400034B08330360FFF7EB
:100DA00089FB200010BDC04614DB011010B5040003
:100DB000054B08330360FFF77DFB2000142112F080
:100DC00019F9200010BDC04614DB011000B585B034
:100DD0006A46084B1B7813730123427C0093521818
:100DE00003AB5021D2B2044805F014FC6B46187BCB
:100DF00005B000BDBCE70110381600200F4BF0B560
:100E00004746CE469946002380B506000024984602
:100E1000012785B003AD4346727C2B7012192B005D
:100E200050214846D2B20097013405F0CBFB0D2C7F
:100E3000F1D105B0C0BCB946B046F0BD38160020AF
:100E400010B5040084B000200C290DD803AB1A7033
:100E5000627C064852180121D2B200914F3105F050
:100E6000B1FB431E9841C0B204B010BD381600203B
:100E700010B50400FFF74EFB034B2000083323603E
:100E80000123637410BDC04614DB011030B5724BF2
:100E900083B01A68541C1C60012C28D06F4B1A6850
:100EA000541C1C60012C0ED16D4D10222800002115
:100EB0000C300EF073F96B4B6C602B600023AB6051
:100EC000FE239B052B61684A136801331360012BD5
:100ED00057D0664A136801331360012B4BD0644A24
:100EE000136801331360012B3FD003B030BD614D57
:100EF0006149280001AAFFF713FB6049604801AA75
:100F0000FFF70EFB5F49604801AAFFF709FB5F4945
:100F10005F4801AAFFF704FB5E495F4801AAFFF79B
:100F2000FFFA5E495E4801AAFFF7FAFA5D495E489A
:100F300001AAFFF7F5FA5D495D4801AAFFF7F0FA4B
:100F40005C495D4801AAFFF7EBFA5C495C4801AADD
:100F5000FFF7E6FA5B495C4801AAFFF7E1FA5B4953
:100F60005B4801AAFFF7DCFA98E7434901AA594810
:100F7000FFF7D6FAB9E7404901AA5748FFF7D0FA78
:100F8000ADE70023554C20202360A360E36023617C
:100F90006361A361E361236263620833636012F0FB
:100FA000E3FE050063682060581E400880002D188D
:100FB000FC20400012F0D8FE0300F933FF33286014
:100FC0006561E06023616562E0612362A060A06109
:100FD0007FE70B240B231B1B18245C432C19AC420A
:100FE0002AD112F0AFF80A24F4E70824F2E7072424
:100FF000F0E70924EEE70624ECE70224EAE7E9E754
:101000000024E7E712F08CF912F014FE0424E1E763
:101010000524DFE70324DDE7050012F0BBF9280013
:1010200012F07EF963682068990011F0E3FF002355
:101030002360636012F0FEFD183C23002068083333
:101040009842CCD0A368591C11F0D4FFC7E712F026
:10105000A1F912F077F8C046442100204021002079
:10106000D0210020E82100203C2100203421002054
:1010700038210020EC210020BCE7011040DA0110EB
:1010800004220020C81702101C22002044DA01109C
:101090003422002048DA01104C2200204CDA0110E2
:1010A0006422002050DA01107C22002054DA011062
:1010B0009422002058DA0110AC2200205CDA0110E2
:1010C000C422002060DA0110DC22002064DA011062
:1010D000F42200209021002078210020A821002067
:1010E0007047C04610B503685B68984710BDC0469E
:1010F00010B50400034B0833036003F08FF82000A1
:1011000010BDC046BCDE011010B50400054B08330D
:10111000036003F083F82000042111F06BFF20002E
:1011200010BDC046BCDE01100023F0B50360436073
:101130008360154B04000E0083B0D5009D4216D885
:10114000002D0ED0280012F00FFE47192060A76076
:10115000002D0AD02A0031000EF026F8676003B097
:10116000F0BD002705608560F8E70700F6E707484F
:1011700013F0D0F82068A168091A002801D011F0F6
:1011800039FF11F0DFFFC046F8FFFF7F34DB0110AD
:10119000F0B5C646040000B5002825D01A4B1B4FF9
:1011A00098462600E068FFF7F3FFB569A468002DB4
:1011B00014D06B68013B6B60002B0FD12B689B68D0
:1011C000BB4214D1AB68013BAB60002B06D12B684E
:1011D000DA6842450ED128005B6898471C21300030
:1011E00011F008FF002CDCD180BCB846F0BD28000F
:1011F0009847E7E7280090471C21300011F0FAFEDD
:10120000002CCED1F0E7C046E5100010E110001030
:10121000F0B5DE4657464E464546E0B5834685B0B6
:10122000002800D199E05B46DB680193002B00D1D8
:1012300086E0019BDB689946002B72D04B46DB6849
:101240009A46002B60D05346DC68002C42D0E668FA
:10125000002E27D0F3689846002B2FD04346DD6838
:10126000002D44D0EF68002F10D0F868FFF7D0FFB2
:101270003B00DA69BF68100002930392FFF788FF12
:101280002C21029811F0B6FE002FEED1AF68E8696C
:10129000FFF77EFF2C21280011F0ACFE002F26D096
:1012A0003D00DFE7A568E069FFF772FF2C21200011
:1012B00011F0A0FE002D0DD02C00C8E7B568F06934
:1012C000FFF766FF2C21300011F094FE002DE9D0CD
:1012D0002E00BFE753469C68D869FFF759FF2C21C1
:1012E000504611F087FE002C0ED0A246ABE74346D5
:1012F0009D68D869FFF74CFF2C21404611F07AFE1B
:10130000002DDBD0A846A9E74B469C68D869FFF7BB
:101310003FFF2C21484611F06DFE002C01D0A14664
:101320008CE7019DEB69AC6818000193FFF730FF73
:101330002C21280011F05EFE002C01D0019478E7EA
:101340005B469C68D869FFF723FF2C21584611F0B3
:1013500051FE002C01D0A34665E705B0F0BCBB46AA
:10136000B246A946A046F0BD10B5040003F080F8CF
:10137000024B20000833236010BDC046BCDE0110C4
:10138000F0B5DE4657464E4645468B460221E0B54F
:101390009846531E8246894687B0032B04D90139EB
:1013A000D31F89460B2B3DD853002A499B189B001D
:1013B0005D180020CB5800210290039100216A683B
:1013C0000491D41A9A4236D0234B9C4236D820003E
:1013D00012F0CAFC0ACD04190290039004949942B9
:1013E00009D000225B1A84188D180832C0CDC0C401
:1013F0009A42F8D1801843460390009359464B46D1
:10140000504602AA03F03EF90298002803D004993E
:10141000091A11F0EFFD07B0F0BCBB46B246A94671
:10142000A046F0BD11000C2315398B429B410321CE
:1014300019408946B8E700240020CBE712F042FFAC
:1014400002980499091A002801D011F0D3FD11F077
:1014500079FEC04650240020F8FFFF7FF8B5CE4645
:10146000474680B51F00089B04000D003800052189
:10147000160098460CF0B8FC8946002900DDC3E050
:101480004346012229002000FFF77AFF434602224B
:1014900029002000FFF774FF182F04DD701C1821AD
:1014A0000CF0A2FC0E00002E48D00C2E46D0012ECF
:1014B00000D18CE00D2E00D189E0022E00D1FFE09A
:1014C0000E2E00D1FCE0032E00D107E10F2E00D13B
:1014D00004E1042E00D1FAE0102E00D1F7E0052E31
:1014E00000D109E1112E00D106E1062E00D10AE15A
:1014F000122E00D107E1072E00D10BE1132E00D1EF
:1015000008E1082E00D10CE1142E00D109E1092ECA
:1015100000D10DE1152E00D10AE10A2E00D10EE115
:10152000162E00D10BE10B2E01D0172E0CD1434605
:101530001F2229002000FFF723FF05E04346202259
:1015400029002000FFF71CFF7E1F132E00D880E02B
:101550003B00233B042B10D93B00193B042B42D901
:101560003B00283B132B3ED9042F42D8434603228D
:1015700029002000FFF704FF05E043460C22290064
:101580002000FFF7FDFE3B00143B042B00D890E049
:101590003B00193B042B00D87EE03B001E3B042B94
:1015A00000D87FE03B00233B042B00D874E0053BD0
:1015B000042B00D87DE0053B042B00D895E03B00D0
:1015C000323B042B5BD9373F042F50D849E04346C8
:1015D000042F5BD8212229002000FFF7D1FE3B0019
:1015E000193B042BBCD843460B2229002000FFF7EF
:1015F000C7FE3B000F3B042BC5D843460A222900F7
:101600002000FFF7BDFE32E043460F2229002000F4
:10161000FFF7B6FE4B46012B00D131E743461022BF
:1016200029002000FFF7ACFE4B46022B00D127E734
:101630004346112229002000FFF7A2FE4B46042B4F
:1016400000D01DE74346122229002000FFF798FE34
:1016500016E743460C2229002000FFF791FE042ED6
:1016600009D84346072229002000FFF789FEC0BCA5
:10167000B946B046F8BD3B000A3B042BB9D84346F7
:10168000082229002000FFF77BFEF0E71522290041
:101690002000FFF775FE57E7434607222900200088
:1016A000FFF76EFE43460D2229002000FFF768FE7B
:1016B000DDE74346092229002000FFF761FED6E757
:1016C0004346162229002000FFF75AFE3CE7434616
:1016D000182229002000FFF753FE35E74346172262
:1016E00029002000FFF74CFE2EE743460E2229007A
:1016F0002000FFF745FE80E743461922290020001D
:10170000FFF73EFE20E743461A2229002000FFF79C
:1017100037FE19E743461B2229002000FFF730FE61
:1017200012E743461C2229002000FFF729FE0BE7A1
:1017300043461D2229002000FFF722FE04E743460E
:101740001E2229002000FFF71BFEFDE6F0B5C6466D
:1017500000B5C8B0012800D18CE0374A1368013BBE
:101760001360002B14D1354C354D206800280BD068
:10177000A368191A11F03EFC23000C3BA54207D0C8
:101780001C0020680028F3D123000C3BA542F7D1B0
:101790002C4A1368013B1360002B08D12A4B2B4ABB
:1017A0001868904203D09968013111F023FC284A4F
:1017B0001368013B1360002B08D1264B264A18689A
:1017C000904203D09968013111F014FC234A136848
:1017D000013B1360002B00D1D4E2214A1368013B86
:1017E0001360002B00D1C9E21E4A1368013B13604D
:1017F000002B18D11C4C1D4D230020680833984243
:101800000DD0A368591C11F0F5FB2300183BA5422D
:1018100009D01C002300206808339842F1D123002E
:10182000183BA542F5D1124B9868FFF7F1FC48B080
:1018300080BCB846F0BDC04650210020E8250020FD
:1018400050240020382100209021002098210020E1
:101850003421002078210020802100203C2100201C
:101860004021002044210020F4220020EC2100200F
:101870008C2700200022FA4B191D1A719A605A61B8
:10188000D9601961F74B1A68551C1D60012D00D1F4
:10189000B0E2F54B1A68541C1C60012C0ED1F34DBC
:1018A0001022280000210C300DF078FCF04B6C6009
:1018B0002B600023AB60FE239B052B61ED4A136870
:1018C00001331360012B00D16CE2EB4A1368013342
:1018D0001360012B00D15FE2E84A13680133136003
:1018E000012B00D152E2E64A136801331360012B49
:1018F00005D100220421E34B1A6059609A60E24B43
:101900001A68551C1D60012D00D090E70023DF4FA1
:1019100000223B607B60BB6000233A923B93012234
:1019200000233AAC3C923D9321000132D8483894D0
:101930003992FFF7F9FBD74B98462300424643CA3A
:1019400043C343CA43C303222100D348369437928A
:10195000FFF7EAFB43462200183343CB43C243CB95
:1019600043C203222100CD4834943592FFF7DCFBBB
:1019700043462200303343CB43C243CB43C203CB65
:1019800003C204222100C64832943392FFF7CCFBF5
:101990000023FB633B647B64BB64FB643B654346A1
:1019A0002200503343CB43C243CB43C203CB03C2D9
:1019B00004222100BB4830943192FFF7B5FB464624
:1019C000220070360BCE0BC20BCE0BC20ACE0AC25F
:1019D00004222100B4482E942F92FFF7A5FBB34EAA
:1019E00038223100200010310DF0DEFB07222100EB
:1019F000AF482C942D92FFF797FB310038224831E5
:101A000020000DF0D1FB07222100AA482A942B9236
:101A1000FFF78AFBA84B98462300424643CA43C3BC
:101A200043CA43C303222100A44828942992FFF704
:101A30007BFB43462200183343CB43C243CB43C214
:101A400003CB03C2042221009D4826942792FFF76E
:101A50006BFB43462200383343CB43C243CB43C2E4
:101A600003CB03C204222100964824942592FFF759
:101A70005BFB43462200583343CB43C243CB43C2B4
:101A800003CB03C2042221008F4822942392FFF744
:101A90004BFB012300225B423A923B93210001322F
:101AA0008A4820942192FFF73FFB01230C225B42DE
:101AB0003A923B9321000B3A85481E941F92FFF700
:101AC00033FB012365225B423A923B932100643A47
:101AD00080481C941D92FFF727FB012371225B4273
:101AE0003A923B932100703A7B481A941B92FFF77D
:101AF0001BFB0023E422BB500432BB500432BB501A
:101B00000432BB500432BB5046460432BB50220064
:101B100078360BCE0BC20BCE0BC20ACE0AC2042201
:101B200021006E4818941992FFF7FEFA22006C4BC0
:101B30009846183343CB43C243CB43C203CB03C2C3
:101B400004222100674816941792FFF7EDFA4346E6
:101B50002200383343CB43C243CB43C203CB03C23F
:101B600004222100604814941592FFF7DDFA4346E1
:101B70002200583343CB43C243CB43C203CB03C2FF
:101B800004222100594812941392FFF7CDFA4646D9
:101B9000220078360BCE0BC20BCE0BC20ACE0AC285
:101BA00004222100524810941192FFF7BDFA22003E
:101BB000504B9846183343CB43C243CB43C243CB2D
:101BC00043C21B682100136005224B480E940F92FC
:101BD000FFF7AAFA43462200403343CB43C243CB2C
:101BE00043C243CB43C243CB43C2062221004348F6
:101BF0000C940D92FFF798FA4646220070360BCEF1
:101C00000BC20BCE0BC20ACE0AC2042221003C48F2
:101C10000A940B92FFF788FA22003A4B9846103349
:101C200043CB43C243CB43C203CB03C204222100B4
:101C3000354808940992FFF777FA4346220030337B
:101C400043CB43C243CB43C203CB03C20422210094
:101C50002E4806940792FFF767FA434658E0C046BD
:101C60008C2700204421002040210020D02100208A
:101C7000E82100203C2100203421002038210020D0
:101C8000482100200C230020502100205024002057
:101C90005C24002068DB01106824002074240020EC
:101CA00080240020A4240020B0240020E8DB0110C0
:101CB000BC240020C824002068DC0110D4240020AB
:101CC000E0240020EC240020F8240020042500203B
:101CD000102500201C250020282500204C25002050
:101CE000E8DC011058250020642500207025002024
:101CF0007C25002068DD0110882500209425002027
:101D0000A0250020E8DD0110AC250020B82500202A
:101D10002200503343CB43C243CB43C203222100B2
:101D2000994804940592FFF7FFF946462200683669
:101D30000BCE0BC20BCE0BC20BCE0BC233682100F5
:101D400013600522914802940392FFF7EDF92200F7
:101D50008F4B103343CB43C243CB43C203222100FA
:101D60008C4800940192FFF7DFF9CC220023520047
:101D7000BB500432BB500432BB5058E58648FEF7D6
:101D800003FC31E58548FEF739FC26E584493AAA8B
:101D90008448FEF7C5FBA6E581493AAA8248FEF7CA
:101DA000BFFB99E500237D4C20202360A360E36006
:101DB00023616361A361E36123626362083363604B
:101DC00011F0D2FF050063682060581E40088000B3
:101DD0002D18FC20400011F0C7FF0300F933FF333A
:101DE00028606561E06023616562E0612362A06054
:101DF000A0616AE56D4E3AAC220030006849FEF7FA
:101E00008FFB22006A496B48FEF78AFB22006A4971
:101E10006A48FEF785FB220069496A48FEF780FBA5
:101E2000220069496948FEF77BFB2200684969483E
:101E3000FEF776FB220068496848FEF771FB220036
:101E400067496848FEF76CFB220067496748FEF760
:101E500067FB220066496748FEF762FB220066497D
:101E60006648FEF75DFB220065496648FEF758FBB1
:101E70000FE521252224651B163C6C433C19BC420E
:101E800014D111F05FF900250B24651B0D346C4350
:101E90003419B442F5D0183C230020680833984226
:101EA000F7D0A368591C11F0A5F8F2E70C3C2068A4
:101EB000A368191A0028E2D011F09CF8DFE7E3E7E5
:101EC0000225E1E70325DFE70425DDE70525DBE75C
:101ED0000625D9E70725D7E70825D5E70925D3E75C
:101EE0000A25D1E70B25CFE711F01AFA11F0A2FE6F
:101EF000C0E70325BEE70425BCE70225BAE70500D5
:101F000011F048FA280011F00BFA63682068990074
:101F100011F070F800232360636011F08BFE05253B
:101F2000A8E70925A6E70A25A4E70B25A2E70C25C3
:101F3000A0E707259EE708259CE706259AE711F00C
:101F400029FA11F0FFF80D2594E7102592E71125E5
:101F500090E712258EE713258CE714258AE71525CF
:101F600088E7162586E7172584E7182582E71925CF
:101F700080E71A257EE71B257CE71E257AE71F25CB
:101F800078E7202576E7C046C4250020D02500202C
:101F900068DE0110DC250020D0210020A8210020CF
:101FA000BCE701109021002078210020EC210020C6
:101FB00040DA011004220020C81702101C22002061
:101FC00044DA01103422002048DA01104C220020AB
:101FD0004CDA01106422002050DA01107C2200202B
:101FE00054DA01109422002058DA0110AC220020AB
:101FF0005CDA0110C422002060DA0110DC2200202B
:1020000064DA0110F422002010B50120FFF79EFBD6
:1020100010BDC04610B50400034B0833036002F046
:10202000FDF8200010BDC046E4E1011010B5040029
:10203000054B0833036002F0F1F82000042110F092
:10204000D9FF200010BDC046E4E101100023F0B527
:10205000036043608360154B04000E0083B0D5001D
:102060009D4216D8002D0ED0280011F07DFE471994
:102070002060A760002D0AD02A0031000DF094F8EE
:10208000676003B0F0BD002705608560F8E70700D2
:10209000F6E7074812F03EF92068A168091A0028FF
:1020A00001D010F0A7FF11F04DF8C046F8FFFF7FF8
:1020B00034DB0110F0B5C646040000B5002825D079
:1020C0001A4B1B4F98462600E068FFF7F3FFB569EF
:1020D000A468002D14D06B68013B6B60002B0FD1FE
:1020E0002B689B68BB4214D1AB68013BAB60002BF3
:1020F00006D12B68DA6842450ED128005B68984704
:102100001C21300010F076FF002CDCD180BCB846DA
:10211000F0BD28009847E7E7280090471C213000D1
:1021200010F068FF002CCED1F0E7C046E51000109B
:10213000E1100010F0B5DE4657464E464546E0B584
:10214000834685B0002800D199E05B46DB680193A7
:10215000002B00D186E0019BDB689946002B72D0F2
:102160004B46DB689A46002B60D05346DC68002C57
:1021700042D0E668002E27D0F3689846002B2FD077
:102180004346DD68002D44D0EF68002F10D0F8687A
:10219000FFF7D0FF3B00DA69BF681000029303929B
:1021A000FFF788FF2C21029810F024FF002FEED1BA
:1021B000AF68E869FFF77EFF2C21280010F01AFFB6
:1021C000002F26D03D00DFE7A568E069FFF772FF2A
:1021D0002C21200010F00EFF002D0DD02C00C8E7A0
:1021E000B568F069FFF766FF2C21300010F002FFA0
:1021F000002DE9D02E00BFE753469C68D869FFF751
:1022000059FF2C21504610F0F5FE002C0ED0A246AE
:10221000ABE743469D68D869FFF74CFF2C21404649
:1022200010F0E8FE002DDBD0A846A9E74B469C68DD
:10223000D869FFF73FFF2C21484610F0DBFE002C49
:1022400001D0A1468CE7019DEB69AC6818000193B1
:10225000FFF730FF2C21280010F0CCFE002C01D01D
:10226000019478E75B469C68D869FFF723FF2C212F
:10227000584610F0BFFE002C01D0A34665E705B01C
:10228000F0BCBB46B246A946A046F0BD10B504005E
:1022900002F0EEF8024B20000833236010BDC04668
:1022A000E4E10110F0B5DE4657464E4645468B4602
:1022B0000221E0B59846531E8246894687B0022B1C
:1022C00004D90139931F89460A2B3DD853002A4966
:1022D0009B189B005D180020CB58002102900391B1
:1022E00000216A680491D41A9A4236D0234B9C424A
:1022F00036D8200011F038FD0ACD04190290039061
:102300000494994209D000225B1A84188D1808326F
:10231000C0CDC0C49A42F8D18018434603900093C0
:1023200059464B46504602AA02F0ACF902980028E2
:1023300003D00499091A10F05DFE07B0F0BCBB464B
:10234000B246A946A046F0BD11000D2313398B42B9
:102350009B41032119408946B8E700240020CBE7C0
:1023600011F0B0FF02980499091A002801D010F06A
:1023700041FE10F0E7FEC046F4250020F8FFFF7F85
:10238000F8B5CE46474680B51F00089B04000D00F7
:1023900038000521160098460BF026FD89460029D5
:1023A00000DDC9E04346012229002000FFF77AFF43
:1023B0004346022229002000FFF774FF43460C2EFB
:1023C00031DD202229002000FFF76CFF182F32DDBD
:1023D000701C18210BF008FD0E00002E02D00C2EF0
:1023E00000D0E0E043461D2229002000FFF75AFFFD
:1023F0007E1F132E00D88DE03B00233B042B57D9C2
:102400003B00193B042B00D8BBE03B00283B132BBF
:1024100000D8B6E0042F51D84346032229002000FB
:10242000FFF740FF4AE01F2229002000FFF73AFF94
:10243000182FCDDCD1E70D2E62D00E2E00D1B8E0E2
:102440000F2E00D1E1E0042E00D1E5E0102E00D1E6
:10245000E2E0052E00D1E6E0112E00D1E3E0062EE9
:1024600000D1E7E0122E00D1E4E0072E00D1E8E031
:10247000132E00D1E5E0082E00D1E9E0142E00D1A2
:10248000E6E0092E00D1EAE0152E00D1E7E00A2EA1
:1024900000D1EBE0162E00D1E8E00B2E01D0172E74
:1024A000A6D143461B2229002000FFF7FBFE9FE731
:1024B00043460C2229002000FFF7F4FE3B00143BAA
:1024C000042B00D889E03B00193B042B00D877E0AF
:1024D0003B001E3B042B00D88BE0053B042B00D8AF
:1024E0006EE0053B042B00D877E0053B042B00D8B9
:1024F0007FE0053B042B4FD9373F042F18D811E05C
:1025000043461422290020007E1FFFF7CBFE132E26
:1025100000D971E743460C2229002000FFF7C2FED4
:10252000042E35D84346082229002000FFF7BAFEC2
:10253000C0BCB946B046F8BD43460D222900200074
:10254000FFF7B0FE4B46012B00D12BE743460E228E
:1025500029002000FFF7A6FE4B46022B00D121E701
:1025600043460F2229002000FFF79CFE4B46042B18
:1025700000D017E74346102229002000FFF792FE03
:1025800010E743460A2229002000FFF78BFE95E75B
:102590003B000A3B042B27D8434609222900200090
:1025A000FFF780FEC4E7012EAAD00D2EA8D0022E80
:1025B00026D14346192229002000FFF773FE17E7B2
:1025C0004346290020000822FFF76CFE43460B22F9
:1025D00029002000FFF766FEAAE7434607222900EC
:1025E0002000FFF75FFEA3E73B000F3B042B00D961
:1025F00064E74346062229002000FFF753FE97E7D1
:102600000E2ED6D0032E00D01AE7434616222900FC
:102610002000FFF747FEEBE6434617222900200083
:10262000FFF740FEE4E64346182229002000FFF7AA
:1026300039FEDDE64346152229002000FFF732FE71
:10264000D6E643461C2229002000FFF72BFECFE6EA
:1026500043461A2229002000FFF724FEC8E643461D
:10266000132229002000FFF71DFEC1E643461E226B
:1026700029002000FFF716FEBAE6C046F0B5C646B0
:1026800000B5C6B0012800D18CE0374A1368013B81
:102690001360002B14D1354C354D206800280BD029
:1026A000A368191A10F0A6FC23000C3BA54207D022
:1026B0001C0020680028F3D123000C3BA542F7D171
:1026C0002C4A1368013B1360002B08D12A4B2B4A7C
:1026D0001868904203D09968013110F08BFC284AA9
:1026E0001368013B1360002B08D1264B264A18685B
:1026F000904203D09968013110F07CFC234A1368A2
:10270000013B1360002B00D1C4E2214A1368013B56
:102710001360002B00D1B9E21E4A1368013B13601D
:10272000002B18D11C4C1D4D230020680833984203
:102730000DD0A368591C10F05DFC2300183BA54286
:1027400009D01C002300206808339842F1D12300EF
:10275000183BA542F5D1124B9868FFF7EBFC46B049
:1027600080BCB846F0BDC046542100208027002020
:10277000F4250020382100209021002098210020FD
:102780003421002078210020802100203C210020DD
:102790004021002044210020F4220020EC210020D0
:1027A000A42700200022F94B191D1A719A605A6162
:1027B000D9601961F64B1A68551C1D60012D00D1B6
:1027C000A0E2F44B1A68541C1C60012C0ED1F24D8F
:1027D0001022280000210C300CF0E0FCEF4B6C6064
:1027E0002B600023AB60FE239B052B61EC4A136832
:1027F00001331360012B00D15CE2EA4A1368013314
:102800001360012B00D14FE2E74A136801331360D4
:10281000012B00D142E2E54A136801331360012B1A
:1028200005D100220421E24B1A6059609A60E14B05
:102830001A68551C1D60012D00D090E70023DE4F63
:1028400000223B607B60BB600023389239930122F9
:10285000002338AC3A923B9321000132D74836949A
:102860003792FFF7F3FBD64B98462300424643CA04
:1028700043C3126821001A600222D2483494359270
:10288000FFF7E4FB43462200103343CB43C243CB64
:1028900043C243CB43C243CB43C206222100CA48B2
:1028A00032943392FFF7D2FB002341463822403165
:1028B00020003B637B63BB63FB633B647B640CF086
:1028C00073FC07222100C14830943192FFF7BEFB10
:1028D0004646220078360BCE0BC20BCE0BC20BCE77
:1028E0000BC20BCE0BC206222100B9482E942F92A8
:1028F000FFF7ACFB2200B74B9846283343CB43C2CB
:1029000043CB43C203CB03C204222100B2482C9420
:102910002D92FFF79BFB43462200483343CB43C233
:1029200043CB43C203222100AC482A942B92FFF7E9
:102930008DFB43462200603343CB43C21B6821001A
:1029400013600222A64828942992FFF77FFB46468F
:10295000220070360BCE0BC20BCE0BC20ACE0AC2BF
:10296000042221009F4826942792FFF76FFB220044
:102970009D4B9846103343CB43C243CB43C203CB5A
:1029800003C204222100994824942592FFF75EFB9C
:10299000012300225B42389239932100013294488E
:1029A00022942392FFF752FB01230C225B423892C0
:1029B000399321000B3A8F4820942192FFF746FB70
:1029C000012365225B42389239932100643A8A4898
:1029D0001E941F92FFF73AFB012371225B4238924B
:1029E00039932100703A85481C941D92FFF72EFB05
:1029F0000023CC22BB500432BB500432BB50043203
:102A0000BB500432BB500432BB504346220030332B
:102A100043CB43C243CB43C203CB03C204222100B6
:102A200077481A941B92FFF711FB4346220050335C
:102A300043CB43C243CB43C20322210071481894C5
:102A40001992FFF703FB4646220068360BCE0BC2F5
:102A50000BCE0BC2032221006B4816941792FFF78E
:102A6000F5FA6A4B98462300424643CA43C343CA19
:102A700043C343CA43C3126821001A600522644855
:102A800014941592FFF7E2FA43462200283343CB11
:102A900043C243CB43C203CB03C2042221005D489F
:102AA00012941392FFF7D2FA43462200483343CBE5
:102AB00043C243CB43C203CB03C204222100564886
:102AC00010941192FFF7C2FA4646220068360BCEE8
:102AD0000BC20BCE0BC20322210050480E940F9262
:102AE000FFF7B4FA4E4B98462300424643CA43C30D
:102AF00043CA43C343CA43C3126821001A60052274
:102B000048480C940D92FFF7A1FA4346220028335F
:102B100043CB43C243CB43C243CB43C243CB43C269
:102B20000622210040480A940B92FFF78FFA46468E
:102B3000220058360BCE0BC20BCE0BC20BCE0BC2F3
:102B40003368210013600522384808940992FFF782
:102B50007DFA374B98462300424643CA43C343CAD3
:102B600043C343CA43C343CA43C306222100314877
:102B700006940792FFF76AFA43462200303343CBAC
:102B800043C243CB43C20322210055E0A4270020C7
:102B90004421002040210020D0210020E8210020F5
:102BA0003C21002034210020382100204821002031
:102BB0000C23002054210020F425002000260020B2
:102BC000D0DE01100C260020182600203C26002014
:102BD0004826002050DF01105426002060260020E7
:102BE0006C26002078260020D0DF011084260020EB
:102BF000902600209C260020A8260020B426002035
:102C0000D8260020E4260020F026002050E0011005
:102C1000FC26002008270020142700202027002061
:102C2000D0E001102C270020382700204427002066
:102C300050E1011050270020964804940592FFF7B8
:102C400005FA43462200483343CB43C21B682100A8
:102C500013600222904802940392FFF7F7F9464668
:102C60002300583607CE07C3326821001A600222BB
:102C70008A4800940192FFF7E9F9C6220023520026
:102C8000BB500432BB500432BB5068E58448FDF7AA
:102C90007BFC41E58348FDF7B1FC36E5824938AA63
:102CA0008248FDF73DFCB6E57F4938AA8048FDF72C
:102CB00037FCA9E500237B4C20202360A360E36060
:102CC00023616361A361E36123626362083363602C
:102CD00011F04AF8050063682060581E4008800023
:102CE0002D18FC20400011F03FF80300F933FF33AA
:102CF00028606561E06023616562E0612362A06035
:102D0000A0617AE56B4E38AC220030006649FDF7D1
:102D100007FC220068496948FDF702FC2200684967
:102D20006848FDF7FDFB220067496848FDF7F8FB9E
:102D3000220067496748FDF7F3FB220066496748B0
:102D4000FDF7EEFB220066496648FDF7E9FB22002D
:102D500065496648FDF7E4FB220065496548FDF7D3
:102D6000DFFB220064496548FDF7DAFB2200644975
:102D70006448FDF7D5FB220063496448FDF7D0FBAA
:102D80001FE520252124651B153C6C433C19BC42E2
:102D900021D110F0D7F900250B24651B0D346C43AD
:102DA0003419B442F5D0183C230020680833984207
:102DB000F7D0A368591C10F01DF9F2E70425EBE7E2
:102DC0000225E9E70325E7E7E6E70625E4E7052529
:102DD000E2E70725E0E70C3C2068A368191A002801
:102DE000D5D010F007F9D2E70825D5E70925D3E7B4
:102DF0000A25D1E70B25CFE710F092FA10F01AFF61
:102E0000C0E7050010F0C6FA280010F089FA6368E0
:102E10002068990010F0EEF800232360636010F042
:102E200009FF0225AEE70325ACE710F0B3FA10F076
:102E300089F90425A6E70525A4E70625A2E70725C5
:102E4000A0E708259EE709259CE70A259AE70B25B8
:102E500098E70C2596E70D2594E70E2592E71125B6
:102E600090E712258EE713258CE714258AE71525B0
:102E700088E7162586E7172584E7182582E71925B0
:102E800080E71A257EE71B257CE71E257AE71F25AC
:102E900078E7C0465C2700206827002074270020C0
:102EA000D0210020A8210020BCE7011090210020A3
:102EB00078210020EC21002040DA011004220020BB
:102EC000C81702101C22002044DA0110342200200E
:102ED00048DA01104C2200204CDA01106422002054
:102EE00050DA01107C22002054DA011094220020D4
:102EF00058DA0110AC2200205CDA0110C422002054
:102F000060DA0110DC22002064DA0110F4220020D3
:102F100010B50120FFF7B2FB10BDC04610B504008C
:102F2000034B0833036001F079F9200010BDC0465F
:102F300024E4011010B50400054B0833036001F0D0
:102F40006DF92000042110F055F8200010BDC04696
:102F500024E40110F0B5C646040000B5002825D0D1
:102F60001A4B1B4F98462600E068FFF7F3FFB56940
:102F7000A468002D14D06B68013B6B60002B0FD14F
:102F80002B689B68BB4214D1AB68013BAB60002B44
:102F900006D12B68DA6842450ED128005B68984755
:102FA0001C21300010F026F8002CDCD180BCB84683
:102FB000F0BD28009847E7E7280090471C21300023
:102FC00010F018F8002CCED1F0E7C046E510001044
:102FD000E1100010F0B5DE4657464E464546E0B5D6
:102FE000834685B0002800D199E05B46DB680193F9
:102FF000002B00D186E0019BDB689946002B72D044
:103000004B46DB689A46002B60D05346DC68002CA8
:1030100042D0E668002E27D0F3689846002B2FD0C8
:103020004346DD68002D44D0EF68002F10D0F868CB
:10303000FFF7D0FF3B00DA69BF68100002930392EC
:10304000FFF788FF2C2102980FF0D4FF002FEED15C
:10305000AF68E869FFF77EFF2C2128000FF0CAFF58
:10306000002F26D03D00DFE7A568E069FFF772FF7B
:103070002C2120000FF0BEFF002D0DD02C00C8E742
:10308000B568F069FFF766FF2C2130000FF0B2FF42
:10309000002DE9D02E00BFE753469C68D869FFF7A2
:1030A00059FF2C2150460FF0A5FF002C0ED0A24650
:1030B000ABE743469D68D869FFF74CFF2C2140469B
:1030C0000FF098FF002DDBD0A846A9E74B469C687F
:1030D000D869FFF73FFF2C2148460FF08BFF002CEB
:1030E00001D0A1468CE7019DEB69AC681800019303
:1030F000FFF730FF2C2128000FF07CFF002C01D0BF
:10310000019478E75B469C68D869FFF723FF2C2180
:1031100058460FF06FFF002C01D0A34665E705B0BD
:10312000F0BCBB46B246A946A046F0BD10B50400AF
:1031300001F09EF9024B20000833236010BDC04609
:1031400024E40110F0B5DE4657464E4645468B4610
:103150000221E0B59846531E8246894687B0032B6C
:1031600004D90139D31F8946072B3DD853002A497A
:103170009B189B005D180020CB5800210290039102
:1031800000216A680491D41A9A4236D0234B9C429B
:1031900036D8200010F0E8FD0ACD04190290039003
:1031A0000494994209D000225B1A84188D180832C1
:1031B000C0CDC0C49A42F8D1801843460390009312
:1031C00059464B46504602AA01F05CFA0298002884
:1031D00003D00499091A0FF00DFF07B0F0BCBB46ED
:1031E000B246A946A046F0BD1100072311398B4213
:1031F0009B41032119408946B8E700240020CBE712
:1032000011F060F802980499091A002801D00FF013
:10321000F1FE0FF097FFC04618230020F8FFFF7F54
:103220000023F0B5036043608360154B04000E007B
:1032300083B0D5009D4217D8002D0FD0280010F084
:1032400093FD47192060A760002D0BD02A003100A4
:103250000BF0AAFF2000676003B0F0BD00270560F7
:103260008560F7E70700F5E7064811F053F8206896
:10327000A168091A002801D00FF0BCFE0FF062FF10
:10328000F8FFFF7F34DB0110F0B5C64600B5B2B0E1
:10329000012800D18CE0374A1368013B1360002BF2
:1032A00014D1354C354D206800280BD0A368191A6D
:1032B0000FF0A0FE23000C3BA54207D01C002068A5
:1032C0000028F3D123000C3BA542F7D12C4A136808
:1032D000013B1360002B08D12A4B2B4A18689042FF
:1032E00003D0996801310FF085FE284A1368013B2D
:1032F0001360002B08D1264B264A1868904203D051
:10330000996801310FF076FE234A1368013B136080
:10331000002B00D107E2214A1368013B1360002B08
:1033200000D1FCE11E4A1368013B1360002B18D149
:103330001C4C1D4D23002068083398420DD0A36813
:10334000591C0FF057FE2300183BAC4209D01C005B
:103350002300206808339842F1D12300183BAC4287
:10336000F5D1124B9868FFF735FE32B080BCB846F5
:10337000F0BDC0464C21002044240020182300202A
:1033800038210020902100209821002034210020A5
:1033900078210020802100203C21002040210020B5
:1033A00044210020F4220020EC210020BC27002032
:1033B0000022E54B191D1A719A605A61D960196192
:1033C000E24B1A68551C1D60012D00D134E2E04B20
:1033D0001A68541C1C60012C0ED1DE4D10222800EE
:1033E00000210C300BF0DAFEDB4B6C602B6000230D
:1033F000AB60FE239B052B61D84A13680133136031
:10340000012B00D1F0E1D64A136801331360012B80
:1034100000D192E1D34A136801331360012B00D12C
:1034200085E1D14A136801331360012B05D10022D5
:103430000421CE4B1A6059609A60CD4B1A68551C16
:103440001D60012D00D090E70023CA4F00223B6091
:103450007B60BB6001232AAC5B422A922B93210044
:103460002A00C54826AB28942995FFF7D9FE0123E9
:103470000C225B422A922B9321000B3ABF4824ABCB
:1034800026942792FFF7CCFE012365225B422A9205
:103490002B932100643ABA4822AB24942592FFF77B
:1034A000BFFE012371225B422A922B932100703AC6
:1034B000B44820AB22942392FFF7B2FE0023FB63B3
:1034C0003B647B64BB64FB643B65AF4B9846230065
:1034D000424643CA43C343CA43C303CA03C3042285
:1034E0002100AA481EAB20942192FFF799FE434683
:1034F0002200203343CB43C243CB43C203CB03C29E
:1035000004222100A2481CAB1E941F92FFF788FEE4
:1035100043462200403343CB43C243CB43C203CB99
:1035200003C2042221009B481AAB1C941D92FFF792
:1035300077FE4646220060360BCE0BC20BCE0BC286
:103540000ACE0AC204222100934818AB1A941B9297
:10355000FFF766FE914B98462300424643CA43C399
:1035600043CA43C303CA03C3042221008C4816ABD9
:1035700018941992FFF754FE43462200203343CBA0
:1035800043C243CB43C203CB03C20422210085487C
:1035900014AB16941792FFF743FE434622004033C4
:1035A00043CB43C243CB43C203CB03C2042221001B
:1035B0007D4812AB14941592FFF732FE4646220066
:1035C00060360BCE0BC20BCE0BC20ACE0AC204224F
:1035D0002100764810AB12941392FFF721FE0023CE
:1035E000B422BB500432BB500432BB500432BB5037
:1035F0000432BB500432BB506D4B98462300424608
:1036000043CA43C343CA43C303CA03C304222100BA
:1036100068480EAB10941192FFF702FE4346220059
:10362000203343CB43C243CB43C203CB03C2042268
:10363000210061480CAB0E940F92FFF7F1FD434659
:103640002200403343CB43C243CB43C203CB03C22C
:103650000422210059480AAB0C940D92FFF7E0FDBB
:103660004646220060360BCE0BC20BCE0BC20ACEF2
:103670000AC204222100524808AB0A940B92FFF7B9
:10368000CFFD504B98462300424643CA43C343CA2A
:1036900043C303CA03C3042221004B4806AB08946A
:1036A0000992FFF7BDFD43462200203343CB43C2BE
:1036B00043CB43C203CB03C204222100434804ABE3
:1036C00006940792FFF7ACFD43462200403343CBFC
:1036D00043C243CB43C203CB03C2042221003C4874
:1036E00002AB04940592FFF79BFD4646220060362C
:1036F0000BCE0BC20BCE0BC20ACE0AC20422210093
:10370000344801AB02940392FFF78AFD962200230E
:103710005200BB500432BB500432BB5025E60D486A
:10372000FCF732FFFEE52C48FCF768FFF3E52B4978
:103730002AAA2B48FCF7F4FE73E628492AAA29484E
:10374000FCF7EEFE66E6C046BC27002044210020C0
:1037500040210020D0210020E82100203C21002031
:103760003421002038210020482100200C23002093
:103770004C21002018230020242300203023002087
:103780003C23002048230020F8E101106C23002096
:1037900078230020842300209023002078E2011069
:1037A0009C230020A8230020B4230020C023002055
:1037B000F8E20110E4230020F0230020FC23002085
:1037C0000824002078E30110142400202024002085
:1037D0002C24002038240020A8210020BCE7011060
:1037E000902100207821002000236F4C20202360AE
:1037F000A360E36023616361A361E36123626362A9
:103800000833636010F0B0FA050063682060581E4A
:10381000400880002D18FC20400010F0A5FA03009D
:10382000F933FF3328606561E06023616562E06120
:103830002362A060A061E6E55C4E2AAC2200300065
:103840005B49FCF76DFE22005A495B48FCF768FEB5
:1038500022005A495A48FCF763FE220059495A4847
:10386000FCF75EFE220059495948FCF759FE220038
:1038700058495948FCF754FE220058495848FCF76B
:103880004FFE220057495848FCF74AFE220057498C
:103890005748FCF745FE220056495748FCF740FEC2
:1038A000220056495648FCF73BFE2200554956482F
:1038B000FCF736FE8BE518251924651B0D3C6C437F
:1038C0003C19BC4266D10FF03DFC00250B24651B62
:1038D0000D346C433419B442F5D0183C23002068F1
:1038E00008339842F7D0A368591C0FF083FBF2E726
:1038F0000425E1E70825E9E70925E7E70A25E5E7E3
:103900000B25E3E70FF00CFD10F094F9D4E7050068
:103910000FF040FD28000FF003FD63682068990058
:103920000FF068FB00232360636010F083F9022529
:10393000C2E70325C0E70FF02DFD0FF003FC0425BF
:10394000C4E70525C2E70625C0E70725BEE702252F
:10395000BCE70325BAE7B9E70E25ADE70825ABE7D5
:103960000B25A9E70C25A7E70D25A5E70625A3E765
:103970000725A1E705259FE712259DE710259BE771
:10398000112599E70F2597E7162595E7172593E762
:10399000152591E70C3C2068A368191A002890D0DF
:1039A0000FF028FB8DE7C046A8210020EC21002065
:1039B000BCE7011040DA011004220020C8170210F1
:1039C0001C22002044DA01103422002048DA0110C1
:1039D0004C2200204CDA01106422002050DA011041
:1039E0007C22002054DA01109422002058DA0110C1
:1039F000AC2200205CDA0110C422002060DA011041
:103A0000DC22002064DA0110F422002070B50400EA
:103A1000006800280CD02369191A0FF0EBFA002275
:103A200023002100A260E260083321CB21C1226182
:103A300070BDC046F0B5C64600B594B01A9E0400ED
:103A40000D00170098460A2E00DD7FE00A2140464F
:103A50000AF0CAF9684602F053FF642140460AF0B2
:103A6000C3F908000A210AF0BFF9010005A802F015
:103A700047FF0A2138000AF0B7F90AA802F040FF10
:103A8000642138000AF0B0F908000A210AF0ACF904
:103A900001000FA802F034FF009B1B68DA0700D575
:103AA000ECE09A0700D5E0E05A0700D5D4E01B0708
:103AB00000D5CAE0059B1B68DA0700D5BCE09A0771
:103AC00000D5B0E05A0700D5A4E01B0700D59AE066
:103AD0000A9B1B68DA0700D58CE09A0700D580E0C6
:103AE0005A0700D574E01B076BD40F980368DA07F8
:103AF0005ED49A0753D45A0748D41B0721D5330004
:103B0000182229002000FFF71DFB0F98002818D16C
:103B10000A98002803D00E99091A0FF06BFA05983D
:103B2000002803D00999091A0FF064FA00980028B8
:103B300003D00499091A0FF05DFA14B080BCB8469E
:103B4000F0BD1399091A0FF055FAE1E7330001228D
:103B5000FFF7F8FA192E00DC78E73300022229007B
:103B60002000FFF7EFFA282E00DC6FE73300032276
:103B700029002000FFF7E6FA372E00DC66E7330065
:103B8000042229002000FFF7DDFA5FE73300172247
:103B900029002000FFF7D6FA0F980368ADE733003D
:103BA000162229002000FFF7CDFA0F980368A2E73C
:103BB0003300152229002000FFF7C4FA0F9803688C
:103BC00097E73300142229002000FFF7BBFA8CE7A7
:103BD0003300132229002000FFF7B4FA0A9B1B6868
:103BE00081E73300122229002000FFF7ABFA0A9B7D
:103BF0001B6875E73300112229002000FFF7A2FAA5
:103C00000A9B1B6869E733000E2229002000FFF79A
:103C100099FA5DE733000D2229002000FFF792FAA0
:103C2000059B1B6851E733000C2229002000FFF799
:103C300089FA059B1B6845E733000B222900200009
:103C4000FFF780FA059B1B6839E733000A22290039
:103C50002000FFF777FA2DE7330009222900200022
:103C6000FFF770FA009B1B6821E733000822290048
:103C70002000FFF767FA009B1B6815E73300072257
:103C800029002000FFF75EFA009B1B6809E70FA8D8
:103C9000FFF7BCFE0AA8FFF7B9FE05A8FFF7B6FEBE
:103CA0006846FFF7B3FE0FF04DFAF3E7F5E7F7E7E5
:103CB00010B50120FFF7E8FA10BDC04610B50400AA
:103CC000034B0833036000F0A9FA200010BDC04682
:103CD00060E4011010B50400054B0833036000F0E8
:103CE0009DFA200004210FF085F9200010BDC04688
:103CF00060E40110F0B5DE464E4657464546E0B555
:103D00008BB00393149B8346894602920A2B00DDF5
:103D10007DE0029B002B35D0002300269A46984672
:103D2000002706AC04AD534608202E606B60276068
:103D30006760A76010F018F8030008339C462A005B
:103D4000A36020600ACA0AC063466360149B220015
:103D5000009349460023584600F094FC2068002850
:103D600003D0A368191A0FF045F901360A2E03DDB6
:103D700001239C460026E24401239C46029BE0442A
:103D80009845D0D1039B002B3AD0002300279846BA
:103D9000093300269A4606AC04AD029742465346C4
:103DA0009B1A6B60002200230692079300230820D1
:103DB0002E60A3600FF0D8FF03002A000833A36031
:103DC000206082CA82C06360149B2200009349462F
:103DD0000123584600F056FC2068002803D0A36851
:103DE000191A0FF007F901360A2E03DD01239C464C
:103DF0000026E044029A039B013202929A42CDD1FE
:103E00000BB0F0BCBB46B246A946A046F0BD0123AC
:103E100000225B420492059300230022069207933E
:103E20000023082006ACA3600FF09EFF030004AD42
:103E30002A0008330690A36042CA42C06360149B04
:103E4000494600935846022300F01CFC06980028BF
:103E500003D0A368191A0FF0CDF8149B192B00DCBE
:103E600057E701230C225B420492059300230022B2
:103E70000692079300230820A3600FF075FF03004C
:103E80002A0008330690A36042CA42C06360149BB4
:103E90002200009349460223584600F0F3FB06989F
:103EA000002803D0A368191A0FF0A4F8149B282B3C
:103EB00000DC2EE7012365225B4204920593002378
:103EC00000220692079300230820A3600FF04CFF06
:103ED00003002A0008330690A36042CA42C0636010
:103EE000149B2200009349460223584600F0CAFB67
:103EF0000698002803D0A368191A0FF07BF8149BCA
:103F0000372B00DC05E7012371225B420492059305
:103F1000002300220692079300230820A3600FF0DD
:103F200023FF030008330690A36006CD06C063603C
:103F3000149B2200009349460223584600F0A2FB3E
:103F40000698002800D1E4E6A168091A0FF052F89B
:103F5000DFE60698A168091A002801D00FF04AF898
:103F60000FF0F0F8F5E7F4E7F3E7F2E7F1E7F0E751
:103F7000EFE7EEE7EDE7ECE7EBE7C04610B504004E
:103F800000F076FA024B20000833236010BDC046D3
:103F900060E4011000227C4B30B5191D1A719A6043
:103FA0005A61D9601961794B83B01A68541C1C603E
:103FB000012C68D0764B1A68541C1C60012C0ED161
:103FC000744D1022280000210C300BF0E7F8724BE2
:103FD0006C602B600023AB60FE239B052B616F4A56
:103FE000136801331360012B25D06D4A1368013328
:103FF0001360012B19D06B4A136801331360012B36
:104000000DD0694A136801331360012B05D10022DA
:104010000421664B1A6059609A6003B030BD644950
:1040200001AA6448FCF77CFAEBE7614901AA6248FF
:10403000FCF776FADFE70023604C20202360A360C2
:10404000E36023616361A361E36123626362083318
:1040500063600FF089FE050063682060581E400809
:1040600080002D18FC2040000FF07EFE0300F93385
:10407000FF3328606561E06023616562E06123626F
:10408000A060A061B1E74E4D4949280001AAFCF7A4
:1040900047FA4C494C4801AAFCF742FA4B494C48B4
:1040A00001AAFCF73DFA4B494B4801AAFCF738FA44
:1040B0004A494B4801AAFCF733FA4A494A4801AA3F
:1040C000FCF72EFA49494A4801AAFCF729FA49495E
:1040D000494801AAFCF724FA4849494801AAFCF7D3
:1040E0001FFA4849484801AAFCF71AFA47494848C4
:1040F00001AAFCF715FA4749474801AAFCF710FA4C
:1041000058E70FF00DF90FF095FD0B240B231B1B47
:1041100018245C432C19AC422AD10FF013F809245F
:10412000F4E70A24F2E705000FF034F928000FF055
:10413000F7F86368206899000EF05CFF00232360A5
:1041400063600FF077FD0824E0E70FF023F90EF02D
:10415000F9FF0724DAE70624D8E70324D6E7022488
:10416000D4E7D3E70024D1E70524CFE70424CDE743
:10417000183C2300206808339842CCD0A368591C0F
:104180000EF038FFC7E7C046D427002044210020A6
:1041900040210020D0210020E82100203C210020E7
:1041A0003421002038210020482100200C23002049
:1041B000BCE701109021002078210020A8210020D8
:1041C000EC21002040DA011004220020C817021060
:1041D0001C22002044DA01103422002048DA0110A9
:1041E0004C2200204CDA01106422002050DA011029
:1041F0007C22002054DA01109422002058DA0110A9
:10420000AC2200205CDA0110C422002060DA011028
:10421000DC22002064DA0110F42200207047C0463E
:1042200010B5040004210EF0E5FE200010BDC046CC
:1042300010B52B2182B0040009F0FEFDC2B2800649
:10424000801A800080188000801880008018001973
:10425000FF244300C3185B00DBB21902C91A09121C
:10426000611A0802E31A401A1902CB1A1B12E31A48
:104270001902CB1A00121B12C0B2DBB2042A36D8C4
:104280001E4992008A5897460023FF2101AA137005
:1042900050709170D3705378107891781B02184346
:1042A000D37809041B060843184302B010BD01AAC5
:1042B000FF211370002391705370D370EBE701AAB4
:1042C000FF215370002311709370D370E3E7FF2335
:1042D00001AA5370002310709370D370DBE70021A4
:1042E000FF2001AA117050709370D170D3E70023A2
:1042F00001AA147053709070D370CCE774E401106D
:10430000F0B50700083704000E0083B007600029ED
:1043100024D0080018F0AAFB050001900F280ED841
:10432000012809D13378237200222000019B2168E3
:104330006360CA5403B0F0BD0028F5D008E0002245
:10434000200001A910F0DEF90700019B2060A360A6
:104350002A00310038000AF027FFE5E701480FF096
:10436000C1FFC04614DA011030B5050083B0080063
:104370003C2109F039FD394B89009B68002B2FD176
:10438000A8002D1828012D186D18EDB22B2128003A
:1043900009F052FDFF21C2B28006801A8000801809
:1043A000800080188000801840194300C3185B000B
:1043B000DBB21802C01A0012081ACB1A0402201A23
:1043C0001C02E31A1B12CB1A1902C91A0012091295
:1043D000C0B2C9B2042A1FD8214C9300E3589F46AB
:1043E000012B07D0022B34D0032B2ED01D4B019371
:1043F00001AB05E0C8B2FFF71BFF01AB00900190D5
:10440000597818789A780902DB78120408431B0659
:104410001043184303B030BD02000021FF2001AB60
:104420009A70002218705970DA70E9E70022FF21B3
:10443000F5E70A000020FF21F1E70100FF2200203C
:10444000EDE70800FF220021E9E7074B019301ABEC
:10445000D6E7064B019301ABD2E7C0460C23002000
:1044600088E4011080808080B8733333FFFAFAFA51
:10447000014B08330360704770E5011070B505000B
:1044800082B008000C000EF09BFB00222B6800920B
:10449000210028001E680023B04720000EF0A2FB78
:1044A00002B070BD10B50C6888B00A2C1ADC4A68DE
:1044B000092A17DC93009B1858008018D3070FD5E2
:1044C000001B0A30C343DB0F0A2800DD01336228DA
:1044D00000DD01336D2800DD0133C01808B010BDC8
:1044E0000019EFE71C23002201A904AC02A80193E4
:1044F000029410F007F9019B1C220F4904930290CB
:104500000AF052FE0022019B0299039302A8CA54AA
:1045100003F0E6F80298A04203D0049901310EF0AE
:1045200069FD0020DAE70298A04203D00499013126
:104530000EF060FD0EF006FE9CE40110F0B547465B
:10454000CE4680B515001368526880460F0085B0CE
:104550009A4233D01C4A002491461C4E1AE04A4627
:104560001278002A03D00922D31A0132101A0290BD
:1045700002A940460393FFF795FF3200010038007F
:1045800000960EF055FA2B686A680134D21AD210E0
:10459000A24213D9E2009B1809CB5A1CDFD1722129
:1045A000019609F021FC320038000EF041FA2B6828
:1045B0006A680134D21AD210A242EBD805B0C0BC4E
:1045C000B946B046F0BDC0460C23002080808080F4
:1045D000F0B54E4657464546DE46E0B599461600CC
:1045E000136852688246884687B09A4240D0244A6F
:1045F0000024934620E05A461278002A03D009226C
:10460000D31A0132551B04A9504605930495FFF7B0
:1046100049FF494605000120FFF7A6FE29000200D8
:104620000090029040460EF003FA3368726801343D
:10463000D21AD210A2421BD9E2009B181D685B68F7
:104640005A1CD8D149460120FFF78EFE0700019081
:1046500003907221280009F0C7FB3A0040460EF093
:10466000E7F9336872680134D21AD210A242E3D853
:1046700007B0F0BCBB46B246A946A046F0BDC04656
:104680000C230020F0B557464E464546DE46E0B5C1
:1046900087B01F00109B14689A465368814688466D
:1046A0001600A34259D0354B00259B462DE05A46B3
:1046B0001278002A03D00922D31A0132101A04906A
:1046C00004A948460593FFF7EDFE0400032F4BD0E5
:1046D00051463800FFF748FE010A030C0390C2B2AE
:1046E000C9B2DBB2000E09021B040A431A430006DA
:1046F00002432100404601920EF09AF93468736833
:1047000001351B1BDB10AB4227D9EB00E41809CCA9
:104710005A1CCCD1722109F067FB0C00032F28D062
:1047200051463800FFF720FE010A030C0290C2B286
:10473000C9B2DBB2000E09021B040A431A43000689
:1047400002432100404600920EF072F9346873680B
:1047500001351B1BDB10AB42D7D807B0F0BCBB4602
:10476000B246A946A046F0BD802080238021802249
:10477000B9E78020802380218022DCE70C23002001
:10478000F0B5DE4657464E464546E54BE0B5994600
:1047900093B00AAC23004A460E00050083CA83C3C7
:1047A00083CA83C303CA03C320200FF0DDFA20228B
:1047B000210080460AF0F8FC002300220A920B93A5
:1047C00000232020A3600FF0CFFA20239A468244D2
:1047D0005346202241460A90A3600AF0E5FC534666
:1047E00063601C9B22000093310000232800FFF728
:1047F00049FF0A98002803D0A368191A0EF0FAFBA3
:104800004B462200203383CB83C283CB83C203CBAE
:1048100003C220200FF0A8FA2022210081460AF0CE
:10482000C3FC002300220A920B9300232020A360E4
:104830000FF09AFA20239A46824453462022494692
:104840000A90A3600AF0B0FC534622006360310076
:1048500028001C9BFFF7BCFE0A98002803D0A36821
:10486000191A0EF0C7FB0222012308200A920B93AB
:104870000FF07AFA03002200834603CA03C3002321
:1048800000220A920B9300230820A3600FF06CFA19
:1048900003005A4608330A90A36082CA82C063604C
:1048A0002200310028001C9BFFF792FE0A98002886
:1048B00003D0A368191A0EF09DFB022202230820E0
:1048C0000A920B930FF050FA03002200039003CAE0
:1048D00003C3002300220A920B9300230820A36045
:1048E0000FF042FA0300039A08330A90A36082CAC9
:1048F00082C063602200310028001C9BFFF71EFE6F
:104900000A98002803D0A368191A0EF073FB01223D
:10491000032308200A920B930FF026FA03002200CB
:10492000049003CA03C3002300220A920B930023BE
:104930000820A3600FF018FA0300049A08330A90C5
:10494000A36082CA82C063602200310028001C9BE1
:10495000FFF7F4FD0A98002803D0A368191A0EF097
:1049600049FB002200230692079300230CAA9246DB
:104970000A926C4A0893116820000C9151461279F2
:104980000A71052268496260637306AA02F02EFA72
:104990000A98504503D0A368591C0EF02BFB079BC7
:1049A000069A05939B1A302B4DD9106817F076F8AC
:1049B0000423069A0A906360079B05939B1A182BA1
:1049C00000D8B7E0906917F069F80523069AE3600C
:1049D000079BA06005939B1A302B00D898E0106BC2
:1049E00017F05CF806232061636118200FF0BCF912
:1049F0001822210082460AF0D7FB002300220A92E7
:104A00000B9300231820A3600FF0AEF918239C46E7
:104A1000844463466746182251460A90A3600AF010
:104A2000C3FB2200310028001C9B6760FFF7D0FD0C
:104A30000A98002803D0A368191A0EF0DBFA18218F
:104A400050460EF0D7FA0222072308200A920B9351
:104A50000FF08AF903002200824603CA03C3002331
:104A600000220A920B9300230820A3600FF07CF928
:104A70000300524608330A90A36082CA82C0636072
:104A80002200310028001C9BFFF758FD0A980028DF
:104A900003D0A168091A0EF0ADFA082150460EF0B5
:104AA000A9FA069C079DAC420CD02300206808336D
:104AB000984229D0A3681834591C0EF09BFAA542DD
:104AC000F3D1069D002D04D008992800491B0EF053
:104AD00091FA049808210EF08DFA039808210EF03F
:104AE00089FA584608210EF085FA484620210EF032
:104AF00081FA202140460EF07DFA13B0F0BCBB468F
:104B0000B246A946A046F0BD1834A542CDD1D8E79B
:104B1000064ADB1002215A4305480FF013FCC04639
:104B200010E50110BCE4011074190210ABAAAAAA86
:104B3000C4E401103B4ADB1001215A433A480FF00C
:104B400001FC082103980EF055FA082158460EF092
:104B500051FA202148460EF04DFA202140460EF031
:104B600049FA0EF0EFFA082150460EF043FA069C7F
:104B7000079DA5420BD106980899091A002801D073
:104B80000EF038FA082104980EF034FAD9E7230021
:104B900020680833984203D0A368591C0EF02AFA03
:104BA0001834E6E70A98A168091A0028CBD1CCE7A7
:104BB000CBE70A98A168091A0028E1D1E2E7E1E70A
:104BC0000A98A168091A0028DED1BAE70A98504568
:104BD000CDD0A16801310EF00DFAC8E70A98A1689E
:104BE000091A002801D00EF005FA182150460EF0DF
:104BF00001FABCE7BBE70A98A168091A0028AAD104
:104C0000ABE7AAE70A98A168091A0028ABD00EF012
:104C1000F1F9A8E7E9E70A98A168091A002896D1EE
:104C200097E796E7ABAAAAAAC4E40110F0B5C64676
:104C300005000C0016001F0000B5080082B00DF042
:104C4000BFFF089A2B6800921B683200984621002B
:104C50003B002800C04720000DF0C4FF02B080BC1C
:104C6000B846F0BD032901D8014B99607047C04692
:104C70000C2300200022744B70B5191D1A719A6024
:104C80005A61D9601961714B1A68541C1C60012C5F
:104C900065D06F4B1A68541C1C60012C0ED16D4DF1
:104CA0001022280000210C300AF078FA6A4B6C6060
:104CB0002B600023AB60FE239B052B61674A1368C2
:104CC00001331360012B22D0654A1368013313604E
:104CD000012B17D0634A136801331360012B0CD0EA
:104CE000614A136801331360012B05D100220421AE
:104CF0005E4B1A6059609A6070BD5D495D48FFF770
:104D0000FFFAEDE75A495C48FFF7FAFAE2E70023B9
:104D10005A4C20202360A360E36023616361A36198
:104D2000E36123626362083363600FF01DF80500DE
:104D300063682060581E400880002D18FC20400049
:104D40000FF012F80300F933FF3328606561E0606B
:104D500023616562E0612362A060A061B4E7484D11
:104D600043492800FFF7CCFA46494748FFF7C8FAFD
:104D700046494748FFF7C4FA46494748FFF7C0FA93
:104D800046494748FFF7BCFA46494748FFF7B8FA93
:104D900046494748FFF7B4FA46494748FFF7B0FA93
:104DA00046494748FFF7ACFA46494748FFF7A8FA93
:104DB00046494748FFF7A4FA46494748FFF7A0FA93
:104DC00067E70EF0ADFA0EF035FF0B240B231B1B2B
:104DD00018245C432C19AC422AD10EF0B3F90924F3
:104DE000F4E70A24F2E705000EF0D4FA28000EF0EA
:104DF00097FA6368206899000EF0FCF8002323609E
:104E000063600EF017FF0824E0E70EF0C3FA0EF01F
:104E100099F90724DAE70624D8E70324D6E7022421
:104E2000D4E7D3E70024D1E70524CFE70424CDE776
:104E3000183C2300206808339842CCD0A368591C42
:104E40000EF0D8F8C7E7C046EC2700204421002028
:104E500040210020D0210020E82100203C2100201A
:104E60003421002038210020482100200C2300207C
:104E7000BCE701109021002078210020A82100200B
:104E8000EC21002040DA011004220020C817021093
:104E90001C22002044DA01103422002048DA0110DC
:104EA0004C2200204CDA01106422002050DA01105C
:104EB0007C22002054DA01109422002058DA0110DC
:104EC000AC2200205CDA0110C422002060DA01105C
:104ED000DC22002064DA0110F42200207047C04672
:104EE00010B504000C210EF085F8200010BDC0465E
:104EF00010B502AC2478002C07D0064C41724460F7
:104F0000062482720472C37210BD41728272C3722F
:104F1000FAE7C0461600010170B50822043104000A
:104F20000AF042F9284B1B78002B31D00220A378DD
:104F30002056DA1E072A2BD803260525043B00211C
:104F4000625EA6576557052B19D9032825D00A2874
:104F50001ED1900082180320D317184080188010AB
:104F60000721013008F040FF1F227300511A9E19DB
:104F70004A00F60052187619D200B24208DBEDB2B0
:104F80006B1E58B21B0605D4182108F02DFF617165
:104F9000200070BD173568B2F6E793009A18D31752
:104FA0001840801880100721043008F01DFF1F22D0
:104FB0007300511A9E194A00F60052187619D20051
:104FC000B242E5DADBE7C04648150020014B083362
:104FD000036070471CE60110014B19707047C04612
:104FE00048150020094B10B5984209DCFA239B00B4
:104FF000984200DA10BD642108F0F6FE0800F9E7D7
:10500000FA21890008F0F0FE0800F3E70F270000FE
:10501000F0B54F464646D646C0B588B001AB984677
:105020009246424607002F4B894613CB13C213CB3F
:1050300013C2FE00F6191B88F600F6191380B200A1
:10504000B618042F31DD08250424002C10D064216B
:10505000200008F0F1FE89B200290ED19131200024
:10506000FF3108F0E9FE89B2002906D0BD4207DA17
:1050700004340435A4B2ADB2E7E70136BD42F7DB34
:105080004B464246013B5B00D25A4B46524496196E
:10509000022B16DC3000072108F0CEFE080008B015
:1050A000E0BCBA46B146A846F0BD4B464246013B7D
:1050B0005B00D25A4B4652449619022BEADD002F70
:1050C000E8DDBB07E6D16421380008F08DFE002939
:1050D00006D191313800FF3108F086FE0029D9D180
:1050E0000136D7E7F0E50110F0B5C6461C00134BBA
:1050F00005000F00904600B59C4218DCFA232600FC
:105100009B009C420DDA4146380062B2FFF780FFF7
:10511000434676B2AE80EF71AB71287280BCB84660
:10512000F0BD6421200008F05FFE0E00EBE7FA21DD
:105130002000890008F058FE0E00E4E70F27000069
:10514000F8B5CCB2E51E16001F00072D22D8043C8E
:10515000052C1DD903291FD00A291BD183001B1838
:105160000320DA171040C01880100130033908F00E
:105170003BFE1F235B1A5900C91873009B19DB0003
:10518000C900DB19C817DA0F99425041C0B200E0DC
:105190000120F8BD0020FCE783001B18D817084049
:1051A000C01880100430043108F01EFE1F235B1A63
:1051B0005900C91873009B19DB00DB190120C900D5
:1051C0009942E3DB0020C0B2E3E7C04670B5046853
:1051D00045680600AC420CD0230020680833984292
:1051E00010D0A3681834591C0DF004FFA542F3D168
:1051F0003568002D04D0B3682800591B0DF0FAFE65
:10520000300070BD1834A542E6D1F1E7F0B5C646CE
:1052100000B54B6807001600080088B0002B03D1CA
:1052200008B080BCB846F0BD00220023049205936C
:105230000023344904AA069301F0D8FD059D049C7F
:105240002B1B302B28D93B682068DB68984616F06A
:1052500025FC059B049A039344B29B1A182B3ED954
:10526000906916F01BFC059B049A039345B29B1AA8
:10527000302B3BD9106B16F011FC234A43B29045FA
:1052800025D1002E03D0214A7A6006223A727C7220
:10529000BD72049C059DFB72AC420CD023002068BB
:1052A000083398420FD0A3681834591C0DF0A2FEA1
:1052B000AC42F3D1049D002DB2D006992800491BC1
:1052C0000DF098FEACE71834AC42E7D1F2E72A00C3
:1052D000210038000096C047049C059DDCE70C4A7D
:1052E000DB1001215A430B480FF02CF8084ADB1061
:1052F00002215A4307480FF025F804A8FFF766FF7C
:105300000DF020FFD8120210F14E0010160001011E
:10531000ABAAAAAAC4E40110F0B5C64600B54B6812
:10532000060086B00800002B03D106B080BCB8464A
:10533000F0BD002200230292039300233E4902AAFB
:10534000049301F053FD039D029C2B1B302B36D997
:10535000336820685B69984616F0A0FB039B029AAD
:10536000019345B29B1A182B52D9906916F096FBFF
:10537000039B029A019347B29B1A302B4FD9106BB3
:1053800016F08CFB2D4B0400984539D12C4B9842DC
:1053900030DCFA2380469B00984203DB642108F04E
:1053A00023FD88463900280062B2FFF731FE4346EC
:1053B000F57159B2029C039DB180B7713072AC4255
:1053C0000CD023002068083398420FD0A36818340B
:1053D000591C0DF00FFEAC42F3D1029D002DA4D05C
:1053E00004992800491B0DF005FE9EE71834AC42D5
:1053F000E7D1F2E7FA21890008F0F6FC8846D1E708
:1054000003003A0029003000C047029C039DD6E704
:105410000C4ADB1001215A430B480EF093FF094A56
:10542000DB1002215A4308480EF08CFF02A8FFF758
:10543000CDFE0DF087FEC04674190210E950001031
:105440000F270000ABAAAAAAC4E40110F0B5574682
:10545000DE464E464546E0B5ADB00AAB0893D64BA6
:105460000AAA040003CB03C2198808AF11809B78F5
:10547000002093700B2300217B6000230490059192
:1054800004AA3800CD49FB74069301F0AFFC059ED9
:10549000049D731B302B00D82BE110AB0E932E68AC
:1054A0006D68002E00D119E126950F2D00D92CE151
:1054B000012D00D0A9E13821337802AA52181370C7
:1054C00010AA00230F95BE4953550EA80FF080FB7C
:1054D000002800D039E1312301259846013B9B4645
:1054E00001330393059B049A02939B1A182B00D84F
:1054F000C9E116AB14939369D6699A46002B00D183
:1055000031E126960F2E00D910E1012E00D082E164
:1055100050211B7802AA5218137016AA0023159660
:105520009355159AA74B02929A4200D1A8E1A64B37
:105530000122190014A89A460FF020FB092D00DC67
:105540006FE102211CAB2D221AA899461A930FF085
:10555000F7F81A9B092D02DDD846039A5A70424685
:105560001A70159D1B9A149B16A9A8188B4200D17E
:1055700015E11699884200D8D6E01A99494500D11C
:1055800032E11C9EB446604500D801E114A80FF03A
:10559000F5FA0822934620AB984622AB209302935B
:1055A0000368834405005B4500D117E1209343461F
:1055B00082689A6043466A685A605B462B600023A3
:1055C00042466B602B7252687E4B9A4200D154E186
:1055D0000122514640460FF0D1FA060028AB26932F
:1055E0009A46036808360500B34200D1D9E02693F5
:1055F000836828936B680499279300236B602B7250
:10560000059B2E6003935B1A302B00D850E14A6B48
:1056100026A8096B0FF0B2FA050020002E00083012
:1056200020602B680836B34200D1C0E02360AB682D
:10563000A3606B682E60636000232B7226986B60FA
:10564000504503D0289901310DF0D4FC2098029BDD
:10565000984204D04346996801310DF0CBFC1A986A
:10566000484503D01C9901310DF0C4FC149816ABC9
:10567000984203D0169901310DF0BCFC0E9810AB86
:10568000984203D0109901310DF0B4FC049D059EA1
:10569000B5420CD02B0028680833984225D0AB685F
:1056A0001835591C0DF0A6FCB542F3D1049E002E0E
:1056B00004D006993000891B0DF09CFC08980AABB9
:1056C000984203D0B96801310DF094FC20002DB050
:1056D000F0BCBB46B246A946A046F0BD1A00002D5C
:1056E00000D1EEE639480EF0FDFD1835B542D1D1B6
:1056F000DCE72000083008223549206009F054FD1D
:105700000823636000232374C2E7002226A90EA8A1
:105710000EF0F8FF269B0E9010932A00310009F03E
:1057200043FD269D0E9ACCE61A992FE7002226A962
:1057300014A80EF0E7FF269B1490169332005146F2
:1057400009F032FD269E149AE8E622490EA80FF0D1
:105750003FFA00280ED132239846023B9B46023383
:1057600002250393BEE616AA002E00D1D6E61748FE
:105770000EF0B8FD18490EA80FF02AFA002836D10D
:1057800033239846033B9B46033303250393A9E643
:105790000022002100951AA80FF02CF9F9E60F213C
:1057A000E8E610223100504609F0FEFC22E7102204
:1057B000310009F0F9FC3CE784E50110F81702100C
:1057C00090E50110FFFFFF3FD812021014DA01101C
:1057D000D8E5011094E5011098E5011059460298AA
:1057E000083209F0E1FCE5E60F26B446CBE66F4946
:1057F0000EA80FF0EDF9002815D134239846043B8C
:105800009B460433042503936CE610AA002D00D1B7
:1058100057E6100081E716AA002E00D17EE61000A0
:105820008CE701218EE662490EA80FF0D1F900281D
:1058300007D135239846053B9B4605330525039341
:1058400050E65C490EA80FF0C3F9002807D13623B3
:105850009846063B9B4606330625039342E6564987
:105860000EA80FF0B5F9002814D137239846073B4E
:105870009B4643460725039334E650480EF04AFD05
:105880004E480EF047FD4E4ADB1001215A434D4869
:105890000EF058FD4C490EA80FF09AF900280ED1D1
:1058A00038239846083B9B4643460825039319E650
:1058B000434ADB1002215A4342480EF043FD43495C
:1058C0000EA80FF085F9002807D139239846093B27
:1058D0009B4643460925039304E63D490EA80FF075
:1058E00077F9002807D13A239846093B9B46013BAC
:1058F0000A250393F6E537490EA80FF069F9002849
:1059000006D13B2398460A3B9B460B250393E9E5CA
:1059100031490EA80FF05CF9002807D13C239846C6
:105920000B3B9B4601330C250393DBE5302300251D
:1059300098469B460393D5E50E9810AB984203D04A
:10594000109901310DF056FB04A8FFF73FFC0898B1
:105950000AAB984203D0B96801310DF04BFB0DF052
:10596000F1FB1A98484503D01C9901310DF042FB18
:10597000149816AB9842DFD0169901310DF03AFB1E
:10598000DAE72098029B9842EBD0434699680131B0
:105990000DF030FBE5E7EBE7EAE726985045F0D05D
:1059A000289901310DF026FBEBE7CDE79CE50110CE
:1059B000A0E50110A4E50110A8E50110C0E5011063
:1059C000ABAAAAAAC4E40110ACE50110B0E501102D
:1059D000B4E50110B8E50110BCE5011030B589B09F
:1059E00004AC2200184B0294050003CB03C2082329
:1059F0000393002302AA13742800012202A9FFF7CF
:105A000005FC0298A04204D0049B591C01930DF0A0
:105A1000F1FA02A8FFF71AFD280002A9FFF77CFCA3
:105A20000298A04203D0049901310DF0E3FA09B0C5
:105A300030BD0298A04203D0049901310DF0DAFA8A
:105A40000DF080FBF5E7C046E4E5011010B5FFF767
:105A5000C5FF10BD10B50400034B08330360FFF70A
:105A60003DFA200010BDC04664E6011010B50400E8
:105A7000054B08330360FFF731FA20000C210DF0CD
:105A8000B9FA200010BDC04664E60110F0B51C0054
:105A900083B068460E0017000CF06CFC2000FFF786
:105AA000A1FA390062B205003000FFF7B1FA6B4687
:105AB0006DB2187168461D809F70DE700CF004FC9A
:105AC0004020002105F0E6FE03B0F0BD70B50400F3
:105AD0000CF050FC0E4B1B78002B01D1200070BD48
