:020000041000EA
:1000000000B50C4B00219960042159610A4919601F
:100010000A490B480160002159600121996001BC27
:10002000002800D0004707480749086003C880F34C
:10003000088808470000001800031F00180200038A
:10004000F40000180001001008ED00E000000000BE
:1000500000000000000000000000000000000000A0
:100060000000000000000000000000000000000090
:100070000000000000000000000000000000000080
:100080000000000000000000000000000000000070
:100090000000000000000000000000000000000060
:1000A0000000000000000000000000000000000050
:1000B0000000000000000000000000000000000040
:1000C0000000000000000000000000000000000030
:1000D0000000000000000000000000000000000020
:1000E0000000000000000000000000000000000010
:1000F0000000000000000000000000002CEC210DBA
:1001000000200420F7010010C3010010C5010010F9
:10011000C1010010C1010010C1010010C101001097
:10012000C1010010C1010010C1010010C701001081
:10013000C1010010C1010010C9010010CB01001065
:10014000CD010010CD010010CD010010CD01001037
:10015000CD010010CD010010CD010010CD01001027
:10016000CD010010CD010010CD010010CD01001017
:10017000CD010010CD010010CD010010CD01001007
:10018000CD010010CD010010CD010010CD010010F7
:10019000CD010010CD010010CD010010CD010010E7
:1001A000CD010010CD010010CD010010CD010010D7
:1001B000CD010010CD010010CD010010CD010010C7
:1001C00000BE00BE00BE00BE00BE00BE00F04BF888
:1001D000103800BEF2EB88710808021034080210D3
:1001E0003402001090A31AE700202149086006C8D5
:1001F00081F3088810471F48006800282FD10DA4FC
:100200000ECC002902D000F012F8F9E71A491B4A77
:10021000002000E001C19142FCD1194988471949E9
:1002200088471949884700BEFDE701C901C29A42C3
:10023000FBD3704734080210C0000020001F0020CC
:10024000742602100000042000000420742602100E
:1002500000100420001004200000000070470B482C
:100260000BF07EFD0047EFF30580C0B27047000041
:1002700008ED00E0000000D0001F00200436002040
:10028000ADA10010657E0010D5A2001057560000E9
:1002900006005250ABB360533CC9011006005250E7
:1002A000861C030258C90110060052505422A29D18
:1002B00064C9011005005250DE65F468742602100E
:1002C000F8B5C04610B5064C2378002B07D1054B76
:1002D000002B02D0044800E000BF0123237010BDB2
:1002E000082100200000000030AF0110044B10B5C1
:1002F000002B03D00349044800E000BF10BDC046F6
:10030000000000000C21002030AF011070B5154B2B
:100310001B782A2B03D1144B1B78182B21D01348A0
:100320000CF0CAFCEFF3108472B68021104849012A
:100330001AF0B6FD84F310880E4C0A22002120002A
:100340000CF008FA2A232370123BA372EFF31085F6
:1003500072B680222100064852001AF069FD85F32A
:10036000108870BDFCEF3F1006F03F1030AF011059
:10037000FCEF3F00C8220020014BC05C7047C04624
:10038000FCEF3F1010B5002810D00A280ED0084B03
:100390001954EFF3108472B68022190005485200F8
:1003A0001AF046FD84F31088012000E0002010BD03
:1003B000C8220020FCEF3F00F0B50600083604001C
:1003C0000D0083B00660002924D0080019F014FE47
:1003D000070001900F280CD8012807D12B78237231
:1003E000002360603354200003B0F0BD0028F7D034
:1003F00008E00022200001A911F060FC0600019B2A
:100400002060A36030003A0029000CF0A9F901989F
:100410002668E5E7014811F041FAC04664AF0110D3
:1004200070B584680600002C1FD0636A2568002B15
:1004300004D020001C30032201009847230060688C
:100440000C3398420BD0E368591C10F0AFF8302100
:10045000200010F0ABF8002D07D02C00E5E730218C
:10046000200010F0A3F8002DF7D1736800219A0046
:1004700030680CF06FF90023F360B360330030682C
:1004800018337168984202D0890010F08FF830005C
:1004900070BDC046F0B557464E46DE464546E0B50F
:1004A0008269036983B09346C269009343699046A9
:1004B000426A1F1D8146924686680193BA4212D94C
:1004C0003C682500F935FF35230020680833984241
:1004D0005AD0A3681834591C10F068F8A542F3D11B
:1004E0000437BA45ECD8019B9A4540D0009B9E4208
:1004F0000CD0330030680833984252D0B3681836B5
:10050000591C10F053F8009BB342F2D1C3450ED0F2
:1005100043461868083398423DD043469B68591CAF
:1005200010F044F818239C46E044C345F0D14B46F4
:100530001868002812D05C695B6A1D1DAC4208D2A5
:10054000FC2101CC490010F031F8A542F8D84B4607
:1005500018684B465B68990010F028F8484603B0CD
:10056000F0BCBB46B246A946A046F0BD1836B3451E
:10057000DDD03300306808339842F7D0B3681836BE
:10058000591C10F013F8F2E71834A5429CD1043737
:10059000BA4595D8A7E718239C46E044C345B7D190
:1005A000C5E7009B1836B342A3D1AFE730B5654B22
:1005B00083B01A68541C1C60012C22D0624B1A684C
:1005C000541C1C60012C0ED1604D1022280000210B
:1005D0000C300CF0BFF85E4B6C602B600023AB60FE
:1005E000FE239B052B615B4A136801331360012BCB
:1005F00041D0594A136801331360012B35D003B041
:1006000030BD564D5649280001AAFFF7D5FE554981
:10061000554801AAFFF7D0FE5449554801AAFFF7F3
:10062000CBFE5449544801AAFFF7C6FE534954482B
:1006300001AAFFF7C1FE5349534801AAFFF7BCFEC8
:100640005249534801AAFFF7B7FE5249524801AA3E
:10065000FFF7B2FE5149524801AAFFF7ADFE5149DA
:10066000514801AAFFF7A8FEA8E73D4901AA4F4853
:10067000FFF7A2FEC3E700234D4C20202360A360B8
:10068000E36023616361A361E36123626362083312
:10069000636010F045FE050063682060581E400846
:1006A00080002D18FC20400010F03AFE0300F933C2
:1006B000FF3328606561E06023616562E061236269
:1006C000A060A06195E7092409231B1B18245C4343
:1006D0002C19AC4226D110F011F80824F4E70724B5
:1006E000F2E70624F0E70224EEE7EDE70024EBE76B
:1006F00010F0F2F810F07AFD0424E5E70524E3E7B2
:100700000324E1E7050010F021F9280010F0E4F8D7
:100710006368206899000FF049FF0023236063603D
:1007200010F064FD183C2300206808339842D0D0B4
:10073000A368591C0FF03AFFCBE710F007F90FF050
:10074000DDFFC0464821002044210020BC210020BC
:10075000D4210020402100203C210020D82100206D
:100760002CD40110B0E80110F021002090AF01104E
:100770000822002094AF01102022002008EC011074
:100780003822002098AF0110502200209CAF0110A9
:1007900068220020A0AF011080220020A4AF011029
:1007A00098220020A8AF0110B02200207C21002058
:1007B000942100207047C04610B503685B689847D5
:1007C00010BDC04610B50400034B0833036007F0AA
:1007D000D5FD200010BDC04638B3011010B504008F
:1007E000054B0833036007F0C9FD200004210FF01A
:1007F000DDFE200010BDC04638B301100023F0B567
:10080000036043608360154B04000E0083B0D50085
:100810009D4216D8002D0ED0280010F081FD4719FA
:100820002060A760002D0AD02A0031000BF098FF4D
:10083000676003B0F0BD002705608560F8E707003A
:10084000F6E7074811F042F82068A168091A002865
:1008500001D00FF0ABFE0FF051FFC046F8FFFF7F55
:10086000B0AF0110F0B5C646040000B5002825D091
:100870001A4B1B4F98462600E068FFF7F3FFB56957
:10088000A468002D14D06B68013B6B60002B0FD166
:100890002B689B68BB4214D1AB68013BAB60002B5B
:1008A00006D12B68DA6842450ED128005B6898476C
:1008B0001C2130000FF07AFE002CDCD180BCB84641
:1008C000F0BD28009847E7E7280090471C2130003A
:1008D0000FF06CFE002CCED1F0E7C046B907001037
:1008E000B5070010F0B5DE4657464E464546E0B522
:1008F000834685B0002800D199E05B46DB68019310
:10090000002B00D186E0019BDB689946002B72D05A
:100910004B46DB689A46002B60D05346DC68002CBF
:1009200042D0E668002E27D0F3689846002B2FD0DF
:100930004346DD68002D44D0EF68002F10D0F868E2
:10094000FFF7D0FF3B00DA69BF6810000293039203
:10095000FFF788FF2C2102980FF028FE002FEED120
:10096000AF68E869FFF77EFF2C2128000FF01EFE1C
:10097000002F26D03D00DFE7A568E069FFF772FF92
:100980002C2120000FF012FE002D0DD02C00C8E706
:10099000B568F069FFF766FF2C2130000FF006FE06
:1009A000002DE9D02E00BFE753469C68D869FFF7B9
:1009B00059FF2C2150460FF0F9FD002C0ED0A24615
:1009C000ABE743469D68D869FFF74CFF2C214046B2
:1009D0000FF0ECFD002DDBD0A846A9E74B469C6844
:1009E000D869FFF73FFF2C2148460FF0DFFD002CB0
:1009F00001D0A1468CE7019DEB69AC68180001931A
:100A0000FFF730FF2C2128000FF0D0FD002C01D083
:100A1000019478E75B469C68D869FFF723FF2C2197
:100A200058460FF0C3FD002C01D0A34665E705B082
:100A3000F0BCBB46B246A946A046F0BD10B50400C6
:100A400007F0A6FC024B20000833236010BDC0460F
:100A500038B30110F0B5DE4657464E4645468B4644
:100A60000221E0B59846531E8246894687B0032B83
:100A700004D90139D31F89460B2B3DD853002A498D
:100A80009B189B005D180020CB5800210290039119
:100A900000216A680491D41A9A4236D0234B9C42B2
:100AA00036D8200010F03CFC0ACD041902900390C7
:100AB0000494994209D000225B1A84188D180832D8
:100AC000C0CDC0C49A42F8D1801843460390009329
:100AD00059464B46504602AA07F026FD02980028C8
:100AE00003D00499091A0FF061FD07B0F0BCBB46B2
:100AF000B246A946A046F0BD11000C2315398B4221
:100B00009B41032119408946B8E700240020CBE728
:100B100010F0B4FE02980499091A002801D00FF0D1
:100B200045FD0FF0EBFDC04608250020F8FFFF7FD4
:100B3000F8B5CE46474680B51F00089B04000D005F
:100B400038000521160098460BF03CF9894600292B
:100B500000DDC3E04346012229002000FFF77AFFB1
:100B60004346022229002000FFF774FF182F04DDFE
:100B7000701C18210BF026F90E00002E48D00C2E08
:100B800046D0012E00D18CE00D2E00D189E0022E3E
:100B900000D1FFE00E2E00D1FCE0032E00D107E1D2
:100BA0000F2E00D104E1042E00D1FAE0102E00D166
:100BB000F7E0052E00D109E1112E00D106E1062E45
:100BC00000D10AE1122E00D107E1072E00D10BE17E
:100BD000132E00D108E1082E00D10CE1142E00D113
:100BE00009E1092E00D10DE1152E00D10AE10A2EEE
:100BF00000D10EE1162E00D10BE10B2E01D0172EE5
:100C00000CD143461F2229002000FFF723FF05E0F7
:100C10004346202229002000FFF71CFF7E1F132ED1
:100C200000D880E03B00233B042B10D93B00193B4C
:100C3000042B42D93B00283B132B3ED9042F42D82A
:100C40004346032229002000FFF704FF05E0434646
:100C50000C2229002000FFF7FDFE3B00143B042B73
:100C600000D890E03B00193B042B00D87EE03B000D
:100C70001E3B042B00D87FE03B00233B042B00D815
:100C800074E0053B042B00D87DE0053B042B00D825
:100C900095E03B00323B042B5BD9373F042F50D803
:100CA00049E04346042F5BD8212229002000FFF7AA
:100CB000D1FE3B00193B042BBCD843460B22290034
:100CC0002000FFF7C7FE3B000F3B042BC5D843466F
:100CD0000A2229002000FFF7BDFE32E043460F2222
:100CE00029002000FFF7B6FE4B46012B00D131E76B
:100CF0004346102229002000FFF7ACFE4B46022B92
:100D000000D127E74346112229002000FFF7A2FE69
:100D10004B46042B00D01DE7434612222900200039
:100D2000FFF798FE16E743460C2229002000FFF744
:100D300091FE042E09D84346072229002000FFF720
:100D400089FEC0BCB946B046F8BD3B000A3B042B47
:100D5000B9D84346082229002000FFF77BFEF0E7C0
:100D6000152229002000FFF775FE57E743460722AA
:100D700029002000FFF76EFE43460D2229002000C7
:100D8000FFF768FEDDE74346092229002000FFF750
:100D900061FED6E74346162229002000FFF75AFEDF
:100DA0003CE74346182229002000FFF753FE35E7B1
:100DB0004346172229002000FFF74CFE2EE743464A
:100DC0000E2229002000FFF745FE80E74346192246
:100DD00029002000FFF73EFE20E743461A222900A3
:100DE0002000FFF737FE19E743461B2229002000A9
:100DF000FFF730FE12E743461C2229002000FFF7D0
:100E000029FE0BE743461D2229002000FFF722FEA2
:100E100004E743461E2229002000FFF71BFEFDE6E3
:100E2000F0B5C64600B5C8B0012800D176E02F4A1B
:100E30001368013B1360002B14D12D4C2D4D2068FD
:100E400000280BD0A368191A0FF0B0FB23000C3B4D
:100E5000A54207D01C0020680028F3D123000C3BDA
:100E6000A542F7D1244A1368013B1360002B08D137
:100E7000224B234A1868904203D0996801310FF041
:100E800095FB204A1368013B1360002B00D1BDE2A3
:100E90001D4A1368013B1360002B00D1BAE21B4AC4
:100EA0001368013B1360002B18D1194C194D230016
:100EB0002068083398420DD0A368591C0FF076FBC8
:100EC0002300183BA54209D01C00230020680833EA
:100ED0009842F1D12300183BA542F5D10E4B9868FA
:100EE000FFF700FD48B080BCB846F0BD542100209B
:100EF000A0260020082500203C2100207C21002085
:100F0000842100204021002044210020482100208D
:100F1000B0220020D8210020442800200022F94BD4
:100F2000191D1A719A605A61D9601961F64B1A68D5
:100F3000551C1D60012D00D170E2F44B1A68541C41
:100F40001C60012C0ED1F24D1022280000210C3023
:100F50000BF000FCEF4B6C602B600023AB60FE23BA
:100F60009B052B61EC4A136801331360012B00D100
:100F70008FE2EA4A136801331360012B00D182E249
:100F8000E74A136801331360012B04D10022E54BBB
:100F90001A6004325A60E44B1A68551C1D60012D1A
:100FA000A0D10023E14F00223B607B60BB600023A7
:100FB0003A923B93012200233AAC3C923D932100AC
:100FC0000132DB4838943992FFF718FCD94B984628
:100FD0002300424643CA43C343CA43C303222100FA
:100FE000D54836943792FFF709FC43462200183360
:100FF00043CB43C243CB43C203222100CF483494A6
:101000003592FFF7FBFB43462200303343CB43C20C
:1010100043CB43C203CB03C204222100C84832940D
:101020003392FFF7EBFB0023FB633B647B64BB6401
:10103000FB643B6543462200503343CB43C243CB62
:1010400043C203CB03C204222100BE483094319234
:10105000FFF7D4FB4646220070360BCE0BC20BCEF8
:101060000BC20ACE0AC204222100B7482E942F9246
:10107000FFF7C4FBB54E38223100200010310BF0D1
:101080006FFB07222100B2482C942D92FFF7B6FB8C
:1010900031003822483120000BF062FB072221008A
:1010A000AC482A942B92FFF7A9FBAB4B9846230040
:1010B000424643CA43C343CA43C303222100A7484D
:1010C00028942992FFF79AFB43462200183343CB1A
:1010D00043C243CB43C203CB03C204222100A04836
:1010E00026942792FFF78AFB43462200383343CBEE
:1010F00043C243CB43C203CB03C20422210099481D
:1011000024942592FFF77AFB43462200583343CBC1
:1011100043C243CB43C203CB03C204222100924803
:1011200022942392FFF76AFB012300225B423A924A
:101130003B93210001328D4820942192FFF75EFB02
:1011400001230C225B423A923B9321000B3A8848E0
:101150001E941F92FFF752FB012365225B423A92D5
:101160003B932100643A83481C941D92FFF746FB91
:10117000012371225B423A923B932100703A7E48F0
:101180001A941B92FFF73AFB0023E422BB5004326F
:10119000BB500432BB500432BB500432BB504646F5
:1011A0000432BB50220078360BCE0BC20BCE0BC2E2
:1011B0000ACE0AC204222100704818941992FFF73F
:1011C0001DFB22006E4B9846183343CB43C243CBE2
:1011D00043C203CB03C2042221006A48169417922B
:1011E000FFF70CFB43462200383343CB43C243CBCB
:1011F00043C203CB03C20422210063481494159216
:10120000FFF7FCFA43462200583343CB43C243CB9B
:1012100043C203CB03C2042221005C481294139200
:10122000FFF7ECFA4646220078360BCE0BC20BCE07
:101230000BC20ACE0AC20422210055481094119212
:10124000FFF7DCFA2200534B9846183343CB43C2D6
:1012500043CB43C243CB43C21B682100136005222A
:101260004D480E940F92FFF7C9FA434622004033CF
:1012700043CB43C243CB43C243CB43C243CB43C222
:101280000622210045480C940D92FFF7B7FA464616
:10129000220070360BCE0BC20BCE0BC20ACE0AC296
:1012A000042221003E480A940B92FFF7A7FA22007D
:1012B0003C4B9846103343CB43C243CB43C203CB92
:1012C00003C204222100384808940992FFF796FAD5
:1012D00043462200303343CB43C243CB43C203CB0C
:1012E00003C204222100314806940792FFF786FAD0
:1012F00043462200503343CB43C243CB43C2032275
:10130000210055E0442800204821002044210020ED
:10131000BC210020D4210020402100203C210020BD
:101320004C210020C8230020542100200825002043
:1013300014250020E4AF0110202500202C250020DA
:10134000382500205C2500206825002064B00110AD
:101350007425002080250020E4B001108C25002099
:1013600098250020A4250020B0250020BC250020C1
:10137000C8250020D4250020E025002004260020D8
:1013800064B10110102600201C2600202826002011
:1013900034260020E4B10110402600204C26002015
:1013A0005826002064B20110642600207026002018
:1013B0008F4804940592FFF721FA464622006836CA
:1013C0000BCE0BC20BCE0BC20BCE0BC2336821006F
:1013D00013600522874802940392FFF70FFA220058
:1013E000854B103343CB43C243CB43C2032221007E
:1013F000824800940192FFF701FACC2200235200A8
:10140000BB500432BB500432BB506BE57C48FFF745
:1014100041F83DE57B48FFF703F840E57A4E3AACEA
:10142000220030007949FEF7C7FF22007849794849
:10143000FEF7C2FF220078497848FEF7BDFF220080
:1014400077497848FEF7B8FF220077497748FEF7DA
:10145000B3FF220076497748FEF7AEFF22007649B7
:101460007648FEF7A9FF220075497648FEF7A4FFEB
:10147000220075497548FEF79FFF220074497548A0
:10148000FEF79AFF59E561493AAA7348FEF794FFBF
:1014900076E500235A4C20202360A360E36023619B
:1014A0006361A361E36123626362083363600FF0E9
:1014B00037FF050063682060581E400880002D1823
:1014C000FC2040000FF02CFF0300F933FF332860AD
:1014D0006561E06023616562E0612362A060A061F4
:1014E00047E521252224651B163C6C433C19BC4270
:1014F00019D10FF003F90FF0EFF90FF077FE0500A7
:101500000FF024FA28000FF0E7F9636820689900CB
:101510000FF04CF80023236063600FF067FE0FF0BC
:1015200015FA0FF0EBF80C3C2068A368191A002894
:10153000DDD00FF03BF8DAE700250924651B0F34F6
:101540006C433419B442D4D0183C230020680833CB
:101550009842F7D0A368591C0FF028F8F2E7ECE79F
:101560000225EAE70425E8E70525E6E70325E4E7A1
:101570000625E2E70D25B5E71025B3E71125B1E70C
:101580001225AFE71325ADE71425ABE71525A9E72D
:101590001625A7E71725A5E71825A3E71925A1E72D
:1015A0001A259FE71B259DE71E259BE71F2599E729
:1015B000202597E7052595E7062593E7072591E779
:1015C00008258FE709258DE70A258BE70B2589E795
:1015D0000C2587E786E7022584E7032582E70425B3
:1015E00080E70825A9E70925A7E70725A5E7C0465D
:1015F0007C26002088260020E4B2011094260020DA
:1016000094210020BC210020D82100202CD40110DE
:10161000B0E80110F021002090AF01100822002056
:1016200094AF01102022002008EC01103822002085
:1016300098AF0110502200209CAF011068220020BA
:10164000A0AF011080220020A4AF0110982200203A
:10165000A8AF0110B02200207C21002010B501208D
:10166000FFF7DEFB10BDC04610B50400034B083386
:10167000036006F083FE200010BDC04660B6011076
:1016800010B50400054B0833036006F077FE200018
:1016900004210EF08BFF200010BDC04660B6011083
:1016A0000023F0B5036043608360154B04000E0017
:1016B00083B0D5009D4216D8002D0ED028000FF023
:1016C0002FFE47192060A760002D0AD02A003100A4
:1016D0000BF046F8676003B0F0BD00270560856039
:1016E000F8E70700F6E7074810F0F0F82068A1686F
:1016F000091A002801D00EF059FF0EF0FFFFC04676
:10170000F8FFFF7FB0AF0110F0B5C646040000B58A
:10171000002825D01A4B1B4F98462600E068FFF79B
:10172000F3FFB569A468002D14D06B68013B6B60B2
:10173000002B0FD12B689B68BB4214D1AB68013BD7
:10174000AB60002B06D12B68DA6842450ED1280029
:101750005B6898471C2130000EF028FF002CDCD17C
:1017600080BCB846F0BD28009847E7E728009047BE
:101770001C2130000EF01AFF002CCED1F0E7C0463D
:10178000B9070010B5070010F0B5DE4657464E46C3
:101790004546E0B5834685B0002800D199E05B4618
:1017A000DB680193002B00D186E0019BDB68994642
:1017B000002B72D04B46DB689A46002B60D0534614
:1017C000DC68002C42D0E668002E27D0F3689846EB
:1017D000002B2FD04346DD68002D44D0EF68002F4A
:1017E00010D0F868FFF7D0FF3B00DA69BF6810003F
:1017F00002930392FFF788FF2C2102980EF0D6FE89
:10180000002FEED1AF68E869FFF77EFF2C2128009A
:101810000EF0CCFE002F26D03D00DFE7A568E06982
:10182000FFF772FF2C2120000EF0C0FE002D0DD01E
:101830002C00C8E7B568F069FFF766FF2C2130007F
:101840000EF0B4FE002DE9D02E00BFE753469C6891
:10185000D869FFF759FF2C2150460EF0A7FE002C47
:101860000ED0A246ABE743469D68D869FFF74CFF10
:101870002C2140460EF09AFE002DDBD0A846A9E7A9
:101880004B469C68D869FFF73FFF2C2148460EF075
:101890008DFE002C01D0A1468CE7019DEB69AC6860
:1018A00018000193FFF730FF2C2128000EF07EFE78
:1018B000002C01D0019478E75B469C68D869FFF75B
:1018C00023FF2C2158460EF071FE002C01D0A346B8
:1018D00065E705B0F0BCBB46B246A946A046F0BDE0
:1018E00010B5040006F054FD024B200008332360BD
:1018F00010BDC04660B60110F0B5DE4657464E46F4
:1019000045468B460221E0B59846531E82468946DD
:1019100087B0022B04D90139931F89460A2B3DD881
:1019200053002A499B189B005D180020CB580021CA
:101930000290039100216A680491D41A9A4236D029
:10194000234B9C4236D820000FF0EAFC0ACD041944
:10195000029003900494994209D000225B1A8418E3
:101960008D180832C0CDC0C49A42F8D180184346C1
:101970000390009359464B46504602AA06F0D4FD08
:101980000298002803D00499091A0EF00FFE07B040
:10199000F0BCBB46B246A946A046F0BD11000D23DF
:1019A00013398B429B41032119408946B8E7002433
:1019B0000020CBE70FF062FF02980499091A002873
:1019C00001D00EF0F3FD0EF099FEC046AC260020CB
:1019D000F8FFFF7FF8B5CE46474680B51F00089B4D
:1019E00004000D0038000521160098460AF0EAF9B7
:1019F0008946002900DDC9E0434601222900200074
:101A0000FFF77AFF4346022229002000FFF774FF08
:101A100043460C2E31DD202229002000FFF76CFF09
:101A2000182F32DD701C18210AF0CCF90E00002EA0
:101A300002D00C2E00D0E0E043461D2229002000F9
:101A4000FFF75AFF7E1F132E00D88DE03B00233B8B
:101A5000042B57D93B00193B042B00D8BBE03B00BB
:101A6000283B132B00D8B6E0042F51D8434603225D
:101A700029002000FFF740FF4AE01F222900200034
:101A8000FFF73AFF182FCDDCD1E70D2E62D00E2ED6
:101A900000D1B8E00F2E00D1E1E0042E00D1E5E046
:101AA000102E00D1E2E0052E00D1E6E0112E00D18B
:101AB000E3E0062E00D1E7E0122E00D1E4E0072E8D
:101AC00000D1E8E0132E00D1E5E0082E00D1E9E0D6
:101AD000142E00D1E6E0092E00D1EAE0152E00D147
:101AE000E7E00A2E00D1EBE0162E00D1E8E00B2E45
:101AF00001D0172EA6D143461B2229002000FFF754
:101B0000FBFE9FE743460C2229002000FFF7F4FE6E
:101B10003B00143B042B00D889E03B00193B042B0D
:101B200000D877E03B001E3B042B00D88BE0053B40
:101B3000042B00D86EE0053B042B00D877E0053B72
:101B4000042B00D87FE0053B042B4FD9373F042FEF
:101B500018D811E043461422290020007E1FFFF709
:101B6000CBFE132E00D971E743460C22290020003A
:101B7000FFF7C2FE042E35D8434608222900200074
:101B8000FFF7BAFEC0BCB946B046F8BD43460D22C9
:101B900029002000FFF7B0FE4B46012B00D12BE7B8
:101BA00043460E2229002000FFF7A6FE4B46022BDB
:101BB00000D121E743460F2229002000FFF79CFEB9
:101BC0004B46042B00D017E7434610222900200083
:101BD000FFF792FE10E743460A2229002000FFF794
:101BE0008BFE95E73B000A3B042B27D8434609228E
:101BF00029002000FFF780FEC4E7012EAAD00D2E99
:101C0000A8D0022E26D14346192229002000FFF732
:101C100073FE17E74346290020000822FFF76CFEF9
:101C200043460B2229002000FFF766FEAAE7434641
:101C3000072229002000FFF75FFEA3E73B000F3BD0
:101C4000042B00D964E74346062229002000FFF751
:101C500053FE97E70E2ED6D0032E00D01AE7434648
:101C6000162229002000FFF747FEEBE64346172225
:101C700029002000FFF740FEE4E643461822290031
:101C80002000FFF739FEDDE643461522290020003B
:101C9000FFF732FED6E643461C2229002000FFF75C
:101CA0002BFECFE643461A2229002000FFF724FE30
:101CB000C8E64346132229002000FFF71DFEC1E6B7
:101CC00043461E2229002000FFF716FEBAE6C04652
:101CD000F0B5C64600B5C6B0012800D176E02F4A5F
:101CE0001368013B1360002B14D12D4C2D4D20683F
:101CF00000280BD0A368191A0EF058FC23000C3BE7
:101D0000A54207D01C0020680028F3D123000C3B1B
:101D1000A542F7D1244A1368013B1360002B08D178
:101D2000224B234A1868904203D0996801310EF083
:101D30003DFC204A1368013B1360002B00D1B1E247
:101D40001D4A1368013B1360002B00D1AEE21B4A11
:101D50001368013B1360002B18D1194C194D230057
:101D60002068083398420DD0A368591C0EF01EFC61
:101D70002300183BA54209D01C002300206808332B
:101D80009842F1D12300183BA542F5D10E4B98683B
:101D9000FFF7FAFC46B080BCB846F0BD58210020E1
:101DA00038280020AC2600203C2100207C21002087
:101DB00084210020402100204421002048210020CF
:101DC000B0220020D82100205C2800200022FA4BFD
:101DD000191D1A719A605A61D9601961F74B1A6816
:101DE000551C1D60012D00D164E2F54B1A68541C8E
:101DF0001C60012C0ED1F34D1022280000210C3064
:101E00000AF0A8FCF04B6C602B600023AB60FE2353
:101E10009B052B61ED4A136801331360012B00D140
:101E200083E2EB4A136801331360012B00D176E2A1
:101E3000E84A136801331360012B04D10022E64BFA
:101E40001A6004325A60E54B1A68551C1D60012D5A
:101E5000A0D10023E24F00223B607B60BB600023E7
:101E6000389239930122002338AC3A923B932100F7
:101E70000132DC4836943792FFF712FCDA4B984671
:101E80002300424643CA43C3126821001A6002225B
:101E9000D64834943592FFF703FC434622001033B2
:101EA00043CB43C243CB43C243CB43C243CB43C2E6
:101EB00006222100CE4832943392FFF7F1FB002333
:101EC00041463822403120003B637B63BB63FB63A8
:101ED0003B647B640AF044FC07222100C54830942F
:101EE0003192FFF7DDFB4646220078360BCE0BC25F
:101EF0000BCE0BC20BCE0BC20BCE0BC206222100A7
:101F0000BD482E942F92FFF7CBFB2200BB4B984687
:101F1000283343CB43C243CB43C203CB03C2042287
:101F20002100B7482C942D92FFF7BAFB43462200BC
:101F3000483343CB43C243CB43C203222100B148C1
:101F40002A942B92FFF7ACFB43462200603343CB2D
:101F500043C21B68210013600222AB4828942992D7
:101F6000FFF79EFB4646220070360BCE0BC20BCE0F
:101F70000BC20ACE0AC204222100A448269427924A
:101F8000FFF78EFB2200A24B9846103343CB43C28F
:101F900043CB43C203CB03C2042221009D482494B7
:101FA0002592FFF77DFB012300225B423892399393
:101FB00021000132984822942392FFF771FB0123FC
:101FC0000C225B423892399321000B3A93482094BB
:101FD0002192FFF765FB012365225B42389239931A
:101FE0002100643A8E481E941F92FFF759FB01238B
:101FF00071225B42389239932100703A89481C94CF
:102000001D92FFF74DFB0023CC22BB500432BB5086
:102010000432BB500432BB500432BB500432BB50BC
:1020200043462200303343CB43C243CB43C203CBAE
:1020300003C2042221007C481A941B92FFF730FB54
:1020400043462200503343CB43C243CB43C2032217
:102050002100764818941992FFF722FB4646220089
:1020600068360BCE0BC20BCE0BC203222100704888
:1020700016941792FFF714FB6E4B984623004246C6
:1020800043CA43C343CA43C343CA43C3126821007C
:102090001A600522684814941592FFF701FB434625
:1020A0002200283343CB43C243CB43C203CB03C2FA
:1020B00004222100614812941392FFF7F1FA43467B
:1020C0002200483343CB43C243CB43C203CB03C2BA
:1020D000042221005A4810941192FFF7E1FA464673
:1020E000220068360BCE0BC20BCE0BC2032221009E
:1020F00054480E940F92FFF7D3FA534B984623009F
:10210000424643CA43C343CA43C343CA43C3126894
:1021100021001A6005224D480C940D92FFF7C0FA79
:1021200043462200283343CB43C243CB43C243CB75
:1021300043C243CB43C20622210045480A940B9276
:10214000FFF7AEFA4646220058360BCE0BC20BCE36
:102150000BC20BCE0BC233682100136005223D4831
:1021600008940992FFF79CFA3B4B9846230042469D
:1021700043CA43C343CA43C343CA43C343CA43C313
:1021800006222100354806940792FFF789FA434654
:102190002200303343CB43C243CB43C2032221004E
:1021A0002F4804940592FFF77BFA434622004833F8
:1021B00043CB43C256E0C0465C28002048210020A3
:1021C00044210020BC210020D421002040210020F7
:1021D0003C2100204C210020C82300205821002051
:1021E000AC260020B82600204CB30110C4260020E5
:1021F000D0260020F426002000270020CCB30110B8
:102200000C2700201827002024270020302700203A
:102210004CB401103C270020482700205427002000
:10222000602700206C270020902700209C2700209A
:10223000A8270020CCB40110B4270020C02700201C
:10224000CC270020D82700204CB50110E42700201F
:10225000F0270020FC270020CCB501100828002022
:10226000142800201B682100136002228548029474
:102270000392FFF715FA46462300583607CE07C3E8
:10228000326821001A6002227F4800940192FFF711
:1022900007FAC62200235200BB500432BB5004325E
:1022A000BB5077E57948FEF7F5F849E57848FEF741
:1022B000B7F84CE5774E38AC220030007649FEF78F
:1022C0007BF8220075497648FEF776F822007549BA
:1022D0007548FEF771F8220074497548FEF76CF8EE
:1022E000220074497448FEF767F822007349744865
:1022F000FEF762F8220073497348FEF75DF822008A
:1023000072497348FEF758F8220072497248FEF786
:1023100053F8220071497248FEF74EF865E55E49B0
:1023200038AA7048FEF748F882E50023574C202071
:102330002360A360E36023616361A361E3612362BF
:102340006362083363600EF0EBFF05006368206092
:10235000581E400880002D18FC2040000EF0E0FFC1
:102360000300F933FF3328606561E0602361656233
:10237000E0612362A060A06153E520252124651B54
:10238000153C6C433C19BC422CD10EF0B7F90EF051
:10239000A3FA0EF02BFF00250924651B0F346C43B4
:1023A0003419B442F1D0183C230020680833984215
:1023B000F7D0A368591C0EF0F9F8F2E705000EF00B
:1023C000C5FA28000EF088FA6368206899000EF0BC
:1023D000EDF80023236063600EF008FF0EF0B6FAFC
:1023E0000EF08CF90C3C2068A368191A0028CAD09A
:1023F0000EF0DCF8C7E7CFE70225CDE70325CBE7F2
:102400000425C9E70525C7E70625C5E70725C3E76E
:102410000825C1E70925BFE7B0E70225AEE7032598
:10242000ACE70425AAE70525A8E70625A6E70725C2
:10243000A4E70825A2E70925A0E70A259EE70B25C2
:102440009CE70C259AE70D2598E70E2596E71125C0
:1024500094E7122592E7132590E714258EE71525BA
:102460008CE716258AE7172588E7182586E71925BA
:1024700084E71A2582E71B2580E71E257EE71F25B6
:102480007CE7C046202800202C2800209421002032
:10249000BC210020D82100202CD40110B0E801106C
:1024A000F021002090AF01100822002094AF01100D
:1024B0002022002008EC01103822002098AF0110E3
:1024C000502200209CAF011068220020A0AF011014
:1024D00080220020A4AF011098220020A8AF011094
:1024E000B02200207C21002010B50120FFF7F0FB76
:1024F00010BDC04610B50400034B0833036005F05F
:102500003DFF200010BDC046A0B8011010B504006A
:10251000054B0833036005F031FF200004210EF065
:1025200045F8200010BDC046A0B80110F0B5C64661
:10253000040000B5002825D01A4B1B4F98462600F2
:10254000E068FFF7F3FFB569A468002D14D06B684D
:10255000013B6B60002B0FD12B689B68BB4214D1F1
:10256000AB68013BAB60002B06D12B68DA684245B3
:102570000ED128005B6898471C2130000EF016F839
:10258000002CDCD180BCB846F0BD28009847E7E7B6
:10259000280090471C2130000EF008F8002CCED106
:1025A000F0E7C046B9070010B5070010F0B5DE46E9
:1025B00057464E464546E0B5834685B0002800D1D3
:1025C00099E05B46DB680193002B00D186E0019B1C
:1025D000DB689946002B72D04B46DB689A46002B8D
:1025E00060D05346DC68002C42D0E668002E27D02D
:1025F000F3689846002B2FD04346DD68002D44D069
:10260000EF68002F10D0F868FFF7D0FF3B00DA69C1
:10261000BF68100002930392FFF788FF2C210298F5
:102620000DF0C4FF002FEED1AF68E869FFF77EFF21
:102630002C2128000DF0BAFF002F26D03D00DFE747
:10264000A568E069FFF772FF2C2120000DF0AEFFB6
:10265000002D0DD02C00C8E7B568F069FFF766FFC4
:102660002C2130000DF0A2FF002DE9D02E00BFE795
:1026700053469C68D869FFF759FF2C2150460DF04E
:1026800095FF002C0ED0A246ABE743469D68D86963
:10269000FFF74CFF2C2140460DF088FF002DDBD0CA
:1026A000A846A9E74B469C68D869FFF73FFF2C2155
:1026B00048460DF07BFF002C01D0A1468CE7019D20
:1026C000EB69AC6818000193FFF730FF2C2128005C
:1026D0000DF06CFF002C01D0019478E75B469C68FC
:1026E000D869FFF723FF2C2158460DF05FFF002C1F
:1026F00001D0A34665E705B0F0BCBB46B246A9468B
:10270000A046F0BD10B5040005F042FE024B2000CB
:102710000833236010BDC046A0B80110F0B5DE46F6
:1027200057464E4645468B460221E0B59846531E15
:102730008246894687B0032B04D90139D31F8946C5
:10274000072B3DD853002A499B189B005D18002099
:10275000CB5800210290039100216A680491D41A99
:102760009A4236D0234B9C4236D820000EF0D8FD3A
:102770000ACD0419029003900494994209D00022D2
:102780005B1A84188D180832C0CDC0C49A42F8D1A3
:10279000801843460390009359464B46504602AA80
:1027A00005F0C2FE0298002803D00499091A0DF022
:1027B000FDFE07B0F0BCBB46B246A946A046F0BD40
:1027C0001100072311398B429B410321194089468F
:1027D000B8E700240020CBE70FF050F802980499E6
:1027E000091A002801D00DF0E1FE0DF087FFC04668
:1027F000D0230020F8FFFF7F0023F0B50360436083
:102800008360154B04000E0083B0D5009D4217D89D
:10281000002D0FD028000EF083FD47192060A7601F
:10282000002D0BD02A00310009F09AFF20006760CC
:1028300003B0F0BD002705608560F7E70700F5E706
:1028400006480FF043F82068A168091A002801D053
:102850000DF0ACFE0DF052FFF8FFFF7FB0AF01109E
:10286000F0B5C64600B5B2B0012800D176E02F4AD7
:102870001368013B1360002B14D12D4C2D4D2068A3
:1028800000280BD0A368191A0DF090FE23000C3B12
:10289000A54207D01C0020680028F3D123000C3B80
:1028A000A542F7D1244A1368013B1360002B08D1DD
:1028B000224B234A1868904203D0996801310DF0E9
:1028C00075FE204A1368013B1360002B00D1F3E131
:1028D0001D4A1368013B1360002B00D1F0E11B4A35
:1028E0001368013B1360002B18D1194C194D2300BC
:1028F0002068083398420DD0A368591C0DF056FE8D
:102900002300183BAC4209D01C0023002068083388
:102910009842F1D12300183BAC42F5D10E4B986898
:10292000FFF744FE32B080BCB846F0BD5021002015
:10293000FC240020D02300203C2100207C2100200A
:102940008421002040210020442100204821002033
:10295000B0220020D8210020742800200022F54B4E
:10296000191D1A719A605A61D9601961F24B1A687F
:10297000551C1D60012D00D1A6E1F04B1A68541CB6
:102980001C60012C0ED1EE4D1022280000210C30CD
:1029900009F0E0FEEB4B6C602B600023AB60FE2384
:1029A0009B052B61E84A136801331360012B00D1AA
:1029B00036E2E64A136801331360012B00D129E2A5
:1029C000E34A136801331360012B04D10022E14B69
:1029D0001A6004325A60E04B1A68551C1D60012DC4
:1029E000A0D10023DD4F00223B607B60BB60012350
:1029F0002AAC5B422A922B9321002A00D84826ABAE
:102A000028942995FFF7F8FE01230C225B422A92B5
:102A10002B9321000B3AD34824AB26942792FFF73F
:102A2000EBFE012365225B422A922B932100643A3C
:102A3000CD4822AB24942592FFF7DEFE01237122BC
:102A40005B422A922B932100703AC84820AB229413
:102A50002392FFF7D1FE0023FB633B647B64BB64DE
:102A6000FB643B65C24B98462300424643CA43C3BE
:102A700043CA43C303CA03C304222100BD481EAB9B
:102A800020942192FFF7B8FE43462200203343CB27
:102A900043C243CB43C203CB03C204222100B64846
:102AA0001CAB1E941F92FFF7A7FE43462200403343
:102AB00043CB43C243CB43C203CB03C20422210016
:102AC000AE481AAB1C941D92FFF796FE46462200B4
:102AD00060360BCE0BC20BCE0BC20ACE0AC204224A
:102AE0002100A74818AB1A941B92FFF785FEA54B4F
:102AF00098462300424643CA43C343CA43C303CA5A
:102B000003C304222100A04816AB18941992FFF7C2
:102B100073FE43462200203343CB43C243CB43C220
:102B200003CB03C204222100984814AB16941792D9
:102B3000FFF762FE43462200403343CB43C243CB00
:102B400043C203CB03C204222100914812AB149468
:102B50001592FFF751FE4646220060360BCE0BC29F
:102B60000BCE0BC20ACE0AC204222100894810AB48
:102B700012941392FFF740FE0023B422BB5004329C
:102B8000BB500432BB500432BB500432BB50043241
:102B9000BB50814B98462300424643CA43C343CAB5
:102BA00043C303CA03C3042221007C480EAB109424
:102BB0001192FFF721FE43462200203343CB43C24C
:102BC00043CB43C203CB03C20422210074480CABA5
:102BD0000E940F92FFF710FE43462200403343CB82
:102BE00043C243CB43C203CB03C2042221006D483E
:102BF0000AAB0C940D92FFF7FFFD464622006036AB
:102C00000BCE0BC20BCE0BC20ACE0AC2042221008D
:102C1000654808AB0A940B92FFF7EEFD634B9846AC
:102C20002300424643CA43C343CA43C303CA03C340
:102C3000042221005E4806AB08940992FFF7DCFDF0
:102C400043462200203343CB43C243CB43C203CB92
:102C500003C204222100574804AB06940792FFF7F1
:102C6000CBFD43462200403343CB43C243CB43C258
:102C700003CB03C2042221004F4802AB0494059207
:102C8000FFF7BAFD4646220060360BCE0BC20BCED4
:102C90000BC20ACE0AC204222100484801AB0294AA
:102CA0000392FFF7A9FD962200235200BB50043285
:102CB000BB500432BB5035E64148FDF7EBFB07E65D
:102CC0001F48FDF7ADFB0AE63E4E2AAC220030005D
:102CD0003D49FDF771FB22003C493D48FDF76CFB87
:102CE00022003C493C48FDF767FB22003B493C4839
:102CF000FDF762FB22003B493B48FDF75DFB2200EC
:102D00003A493B48FDF758FB22003A493A48FDF75B
:102D100053FB220039493A48FDF74EFB220039495E
:102D20003948FDF749FB220038493948FDF744FB93
:102D300023E6C046742800204821002044210020BA
:102D4000BC210020D4210020402100203C21002073
:102D50004C210020C823002050210020D023002037
:102D6000DC230020E8230020F4230020002400209E
:102D700074B6011024240020302400203C240020BC
:102D800048240020F4B601105424002060240020C0
:102D90006C2400207824002074B701109C240020AB
:102DA000A8240020B4240020C0240020F4B701107F
:102DB000CC240020D8240020E4240020F02400208B
:102DC00094210020D82100202CD40110B0E801105B
:102DD000F021002090AF01100822002094AF0110D4
:102DE0002022002008EC01103822002098AF0110AA
:102DF000502200209CAF011068220020A0AF0110DB
:102E000080220020A4AF011098220020A8AF01105A
:102E1000B022002050492AAA5048FDF7CDFACFE54C
:102E200000234F4C20202360A360E3602361636193
:102E3000A361E36123626362083363600EF070FA9A
:102E4000050063682060581E400880002D18FC2093
:102E500040000EF065FA0300F933FF332860656126
:102E6000E06023616562E0612362A060A061A0E58B
:102E700018251924651B0D3C6C433C19BC422CD110
:102E80000DF03CFC0DF028FD0EF0B0F900250924F2
:102E9000651B0F346C433419B442F1D0183C230045
:102EA000206808339842F7D0A368591C0DF07EFBC8
:102EB000F2E705000DF04AFD28000DF00DFD6368F6
:102EC000206899000DF072FB0023236063600EF010
:102ED0008DF90DF03BFD0DF011FC0C3C2068A36852
:102EE000191A0028CAD00DF061FBC7E7CFE7022509
:102EF000CDE70325CBE70425C9E70525C7E7062568
:102F0000C5E70725C3E70825C1E70925BFE7B0E7FF
:102F10000225AEE70325ACE70425AAE70525A8E7C7
:102F20000625A6E70725A4E70825A2E70B25A0E7C5
:102F30000C259EE70D259CE70E259AE70F2598E7BF
:102F4000102596E7112594E7122592E7152590E7BD
:102F500016258EE717258CE72CD401107C21002044
:102F60009421002070B50400006800280CD023696B
:102F7000191A0DF01BFB002223002100A260E26061
:102F8000083321CB21C1226170BDC046F0B5C646D1
:102F900000B594B01A9E04000D00170098460A2E42
:102FA00000DD7FE00A21404608F00CFF684600F093
:102FB000E7FD6421404608F005FF08000A2108F0FB
:102FC00001FF010005A800F0DBFD0A21380008F030
:102FD000F9FE0AA800F0D4FD6421380008F0F2FEE2
:102FE00008000A2108F0EEFE01000FA800F0C8FD5D
:102FF000009B1B68DA0700D5ECE09A0700D5E0E0FB
:103000005A0700D5D4E01B0700D5CAE0059B1B6812
:10301000DA0700D5BCE09A0700D5B0E05A0700D522
:10302000A4E01B0700D59AE00A9B1B68DA0700D5CD
:103030008CE09A0700D580E05A0700D574E01B07A2
:103040006BD40F980368DA075ED49A0753D45A07F3
:1030500048D41B0721D53300182229002000FFF790
:103060005DFB0F98002818D10A98002803D00E990C
:10307000091A0DF09BFA0598002803D00999091A3E
:103080000DF094FA0098002803D00499091A0DF065
:103090008DFA14B080BCB846F0BD1399091A0DF032
:1030A00085FAE1E733000122FFF738FB192E00DC37
:1030B00078E73300022229002000FFF72FFB282E9B
:1030C00000DC6FE73300032229002000FFF726FB16
:1030D000372E00DC66E73300042229002000FFF7CA
:1030E0001DFB5FE73300172229002000FFF716FBC6
:1030F0000F980368ADE73300162229002000FFF780
:103100000DFB0F980368A2E7330015222900200069
:10311000FFF704FB0F98036897E733001422290098
:103120002000FFF7FBFA8CE7330013222900200070
:10313000FFF7F4FA0A9B1B6881E73300122229008B
:103140002000FFF7EBFA0A9B1B6875E7330011229A
:1031500029002000FFF7E2FA0A9B1B6869E73300A9
:103160000E2229002000FFF7D9FA5DE733000D2277
:1031700029002000FFF7D2FA059B1B6851E73300B6
:103180000C2229002000FFF7C9FA059B1B6845E7C0
:1031900033000B2229002000FFF7C0FA059B1B68B3
:1031A00039E733000A2229002000FFF7B7FA2DE79C
:1031B0003300092229002000FFF7B0FA009B1B68AA
:1031C00021E73300082229002000FFF7A7FA009B1F
:1031D0001B6815E73300072229002000FFF79EFA3D
:1031E000009B1B6809E70FA8FFF7BCFE0AA8FFF7C2
:1031F000B9FE05A8FFF7B6FE6846FFF7B3FE0DF06F
:103200007DFAF3E7F5E7F7E710B50120FFF728FBB4
:1032100010BDC04610B50400034B0833036005F031
:10322000ADF8200010BDC046DCB8011010B5040098
:10323000054B0833036005F0A1F8200004210DF0D0
:10324000B5F9200010BDC046DCB80110F0B5DE466F
:103250004E4657464546E0B58BB00393149B8346D4
:10326000894602920A2B00DD7DE0029B002B35D0BF
:10327000002300269A469846002706AC04AD534624
:1032800008202E606B6027606760A7600EF048F82A
:10329000030008339C462A00A36020600ACA0AC0C3
:1032A00063466360149B22000093494600235846FE
:1032B00005F03AF92068002803D0A368191A0DF028
:1032C00075F901360A2E03DD01239C460026E244EF
:1032D00001239C46029BE0449845D0D1039B002BE0
:1032E0003AD0002300279846093300269A4606ACB8
:1032F00004AD0297424653469B1A6B60002200239E
:1033000006920793002308202E60A3600EF008F8B1
:1033100003002A000833A360206082CA82C0636071
:10332000149B2200009349460123584605F0FCF8FF
:103330002068002803D0A368191A0DF037F9013668
:103340000A2E03DD01239C460026E044029A039BDB
:10335000013202929A42CDD10BB0F0BCBB46B246CC
:10336000A946A046F0BD012300225B4204920593CA
:1033700000230022069207930023082006ACA360D6
:103380000DF0CEFF030004AD2A0008330690A360C1
:1033900042CA42C06360149B4946009358460223C8
:1033A00005F0C2F80698002803D0A368191A0DF09A
:1033B000FDF8149B192B00DC57E701230C225B421C
:1033C000049205930023002206920793002308200D
:1033D000A3600DF0A5FF03002A0008330690A36048
:1033E00042CA42C06360149B2200009349460223F4
:1033F000584605F099F80698002803D0A368191AD2
:103400000DF0D4F8149B282B00DC2EE70123652255
:103410005B42049205930023002206920793002347
:103420000820A3600DF07CFF03002A0008330690FB
:10343000A36042CA42C06360149B220000934946C5
:103440000223584605F070F80698002803D0A368B8
:10345000191A0DF0ABF8149B372B00DC05E701239C
:1034600071225B4204920593002300220692079387
:1034700000230820A3600DF053FF030008330690DB
:10348000A36006CD06C06360149B220000934946EA
:103490000223584605F048F80698002800D1E4E6D3
:1034A000A168091A0DF082F8DFE60698A168091AEA
:1034B000002801D00DF07AF80DF020F9F5E7F4E7D7
:1034C000F3E7F2E7F1E7F0E7EFE7EEE7EDE7ECE748
:1034D000EBE7C04610B5040004F05AFF024B200091
:1034E0000833236010BDC046DCB8011000226E4BCB
:1034F00030B5191D1A719A605A61D96019616B4B08
:1035000083B01A68541C1C60012C5BD0684B1A688D
:10351000541C1C60012C0ED1664D10222800002185
:103520000C3009F017F9644B6C602B600023AB6022
:10353000FE239B052B61614A136801331360012B45
:1035400018D05F4A136801331360012B0CD05D4A19
:10355000136801331360012B04D100225A4B1A6007
:1035600004325A6003B030BD584901AA5848FCF7EC
:1035700023FFECE70023574C20202360A360E36087
:1035800023616361A361E361236263620833636063
:103590000DF0C6FE050063682060581E40088000DC
:1035A0002D18FC2040000DF0BBFE0300F933FF3363
:1035B00028606561E06023616562E0612362A0606C
:1035C000A061BEE7444D4149280001AAFCF7F4FE82
:1035D0004249434801AAFCF7EFFE4249424801AA8A
:1035E000FCF7EAFE4149424801AAFCF7E5FE4149E1
:1035F000414801AAFCF7E0FE4049414801AAFCF716
:10360000DBFE4049404801AAFCF7D6FE3F4940484E
:1036100001AAFCF7D1FE3F493F4801AAFCF7CCFEC6
:103620003E493F4801AAFCF7C7FE6FE70DF054F989
:103630000DF0DCFD092409231B1B18245C432C1905
:10364000AC4226D10DF05AF80824F4E705000DF03D
:103650007DF928000DF040F96368206899000CF0AE
:10366000A5FF0023236063600DF0C0FD0DF06EF92F
:103670000DF044F80724DEE70624DCE70324DAE74C
:103680000224D8E7D7E70024D5E70524D3E70424AC
:10369000D1E7183C2300206808339842D0D0A368B3
:1036A000591C0CF083FFCBE78C2800204821002018
:1036B00044210020BC210020D421002040210020F2
:1036C0003C2100204C210020C82300202CD40110D4
:1036D0007C21002094210020D8210020B0E8011096
:1036E000F021002090AF01100822002094AF0110BB
:1036F0002022002008EC01103822002098AF011091
:10370000502200209CAF011068220020A0AF0110C1
:1037100080220020A4AF011098220020A8AF011041
:10372000B022002030B5436889B0002B01D109B028
:1037300030BD002200230492059300233A4904AAD5
:10374000069300F093FC059D049C2B1B302B29D97C
:10375000206815F069FC059B049A019345B29B1AF9
:10376000182B41D9906915F05FFC059B049A0193D1
:1037700044B29B1A302B30D9106B15F055FC2B4BF3
:1037800002AA13802A4BD0715380002310001371BA
:10379000557194710CF074F84020002106F07AF80D
:1037A000049C059DAC420CD023002068083398424D
:1037B0000FD0A3681834591C0CF0F8FEAC42F3D1BA
:1037C000049D002DB3D006992800491B0CF0EEFE95
:1037D000ADE71834AC42E7D1F2E7164ADB1002211C
:1037E0005A4315480EF08AF8124ADB1001215A4359
:1037F00011480EF083F8049C059DA54208D1049859
:103800000699091A002801D00CF0D0FE0CF076FFC2
:10381000230020680833984203D0A368591C0CF099
:10382000C5FE1834E9E7C04618E70110E4070000B8
:1038300006050000ABAAAAAAF0B8011010B586B020
:1038400002AC0CF001F822000E4B009403CB03C233
:1038500008236A460193002368461374FFF762FF4A
:103860000098A04203D0029901310CF09FFE06B0EF
:1038700010BD0098A04203D0029901310CF096FED1
:103880000CF03CFF3CB9011010B504000CF04EF8F0
:10389000200010BD10B51C00431A0298511A001BDD
:1038A000584308F08FFA001910BDC04603001000FD
:1038B0009A4200DD1800884200DA08007047C046CE
:1038C00070B5006815000C0015F0AEFBA84200DDD5
:1038D0002800A04200DA200070BDC046F0B557466F
:1038E0004E46DE464546E0B587B002938368814682
:1038F0009C4603698A460491059201929C4500D139
:1039000071E0C368591C9B461F231C008846CA17D8
:1039100014404444D20E039164118918A4000B4052
:1039200064449B1A5CD462465146551A5A46019922
:10393000ED00521AAD1867465E468846002D14DD2C
:10394000002E33D00121013EB140002B34D00122A2
:10395000013B9A403868084220D02168013D0A4363
:103960002260002DECD1434601930123019A93403C
:10397000029A002A25D1524612689A4313005246F1
:1039800013605B461F2B24D04B46039ADA6007B0C6
:10399000F0BCBB46B246A946A046F0BD2168013D39
:1039A00091432160002DDED0002ECBD180211F2637
:1039B000043F0906002BCAD180221F23043C1206B3
:1039C000C8E7524612681343524613605B461F2BEA
:1039D000DAD100234A46D360634604339360D6E7C6
:1039E0002033043C9FE762460368D31AC268DB00B9
:1039F0009446604A6344934200D1B7E00122002B11
:103A000000D0A2E05B4B9A4200D91A001F32520943
:103A10009300180003930DF083FC4B461E68534639
:103A200083469C1BB24503D02200310017F070FA88
:103A3000220001985A44011E00DC92E05546002302
:103A4000012780460DE01468204310601F2B13D01F
:103A5000581C9C1C3B00834001399C4603000029F4
:103A600013D0380098402C680442ECD11468844389
:103A7000200010601F2BEBD1012301399C4601244B
:103A80000023043504320029EBD141461500019191
:103A90001F2B01D10024151D029B002B5DD0634616
:103AA00011680B4313604B4652469B6801989A1A63
:103AB0004B46DB68D2001B1AD218002A28DDB44618
:103AC000012156460CE047462B681F432F601F28F4
:103AD00014D001301F2C15D0013A0134002A16D021
:103AE0000F000B00A7408340B84637681F42EAD159
:103AF00043462F689F432F601F28EAD100200436D9
:103B00001F2CE9D1013A00240435002AE8D1664689
:103B1000002E0DD04B461B693000991B0CF046FD62
:103B200000234A469360D3604B46083303CB03C25D
:103B30004A46039B5B4413614B465A461A604A4609
:103B4000002395605360D46021E75A00934200D867
:103B500058E7094B180003935DE7614613688B43F0
:103B6000A0E7012315009C46012495E703480DF0CA
:103B7000ADFEC046E0FFFF7FFCFFFF0F48B901101C
:103B8000F0B5DE4657464E4645460023E0B5036095
:103B900043608360C360036108339A4683B0EB4699
:103BA00082445E4653460D0006CB06C601235A46A4
:103BB000002152682B400400FFF790FEEB0FA26833
:103BC0005B1921699B071700DB0F8A4200D114E1C2
:103BD000E06880461F2800D1F8E00130E060012055
:103BE0004646B040002B00D0A4E03B6883433B60D6
:103BF000EB1798460323464633405B195B071000DA
:103C0000DB0F8A4200D1EBE0E668B1461F2E00D1FF
:103C1000C3E001264E44E66001264F46BE40002B1D
:103C200000D0B5E00368B343036007234646334042
:103C30005B191B071000DB0F8A4200D111E1E66817
:103C4000B1461F2E00D1BCE001264E44E66001269D
:103C50004F46BE40002B00D095E00368B34303609D
:103C60000F23464633405B19DB061000DB0F8A4208
:103C700000D1E9E0E668B1461F2E00D19CE00126A4
:103C80004E44E66001264F46BE40002B00D075E052
:103C90000368B34303601F23464633405B199B060A
:103CA0001000DB0F8A4200D1C1E0E668B1461F2E4A
:103CB00000D17CE001264E44E66001264F46BE401E
:103CC000002B56D10368B34303603F23464633407D
:103CD0005B195B061000DB0F8A4200D19AE0E668B0
:103CE000B1461F2E5ED001264E44E66001264F46A7
:103CF000BE40002B26D10368B34303607F234046B8
:103D000003405B191B06DB0F8A4227D0E0681F289F
:103D100061D0411CE16001218140002B0ED013686D
:103D200019431160200003B0F0BCBB46B246A9465F
:103D3000A046F0BD3B681843386059E713688B43D1
:103D40001360EFE733000668334303607F23404688
:103D500003405B191B06DB0F8A42D7D15E465246F1
:103D600003CA03C65A46200000995268FFF7B6FD01
:103D7000D8E73300066833430360A6E733000668DC
:103D80003343036087E7330006683343036067E724
:103D9000330006683343036047E700260432E660D9
:103DA000A26039E700260432E660A2609EE70026A2
:103DB0000432E660A26080E700260432E660A2607A
:103DC00060E700260432E660A26040E7002004328B
:103DD000E060A26003E70021E160111DA1609AE7A5
:103DE0005E46524603CA03C65A46200000995268EE
:103DF000FFF774FDA268216917E75E46524603CAC1
:103E000003C65A46390020005268FFF767FDA268D2
:103E10002169EDE65E46524603CA03C65A462000B3
:103E200000995268FFF75AFDA268216966E75E466D
:103E3000524603CA03C65A46200000995268FFF74B
:103E40004DFDA268216940E75E46524603CA03C69B
:103E50005A46200000995268FFF740FDA268216988
:103E600019E75E46524603CA03C65A462000009927
:103E70005268FFF733FDA2682169F1E62068002847
:103E80000BD02369191A0CF091FB00232200514634
:103E9000A360E36021C921C223610CF02FFCC0465E
:103EA0000368F0B54E46994657464546DE4614002F
:103EB0004A464368E0B50F00991AC9108A005218A3
:103EC00098461301D2181302D2181304D3185B00BA
:103ED000624A5B18824683B0934200D1BBE0012264
:103EE000002B03D05A00934200D9A9E04B46FD1A9B
:103EF000002A00D093E01823009300239B460193EF
:103F00005D44280026002368083008362860B34244
:103F100000D19BE02B60A368AB60636826606B6098
:103F2000002363602372B9452ED04E465C464D4651
:103F3000083609E02360AB681836A3606B68183553
:103F400063601834BD4210D02000083020602B6818
:103F5000B342EFD13100102208F002FC6B68183533
:103F6000636018361834BD42EED13B004A46183B18
:103F70009B1ADA083A4B5343DB00DB0802335A0042
:103F8000D318DB005B440093B84530D03E003D00C1
:103F9000009C083609E02360AB681836A3606B68A4
:103FA000183563601834454510D020002B68083060
:103FB0002060B342EFD13100102208F0D1FB6B68D2
:103FC00018356360183618344545EED14346DF1B7B
:103FD000183F234BFF087B43DB00DB0801335A000B
:103FE000D318009ADB0094469C44634600934B46EA
:103FF000002B06D053464A469B684846991A0CF057
:10400000D5FA53465A461A60009A5A60019A9A6045
:1040100003B0F0BCBB46B246A946A046F0BD0F4B6C
:104020009A4211D85600B618F60030000DF078F913
:10403000330083465B44019318235B4400935FE79E
:104040004B46084EFD1AF0E71A00EBE7102231004C
:1040500008F086FB61E704480DF038FC555555051E
:10406000ABAAAA0AF8FFFF7F64B90110F0B5C646F3
:1040700000B500688AB08846150016F025F806AE2F
:10408000071E23D153E0012855D13A7802A90A74BA
:10409000320000210593D1546C68AB689C4233D048
:1040A000200008302060049BB34249D02360069B67
:1040B0000193A360059B636001936B6818336B6089
:1040C0004146002016F000F8071E30D03800049654
:1040D00015F092FF0400030003900F28D3D90022AB
:1040E00003A904A80DF0EAFD039B049006932200A7
:1040F000390008F035FB0021039B049A0593D15445
:104100006C68AB689C42CBD12100280004AAFFF761
:10411000C7FE0498B042D3D0069B591C01930CF003
:1041200045FA4146002015F0CFFF071ECED10AB058
:1041300080BCB846F0BD32000028AAD03000D6E7D7
:104140001022310008F00CFBB4E70498B04203D011
:10415000069901310CF02AFA0CF0D0FA10B50400DF
:104160000A49142004F09AFD2100142004F05EFD99
:10417000A20123011343064A9363002C04D0382381
:10418000526B1340034A136010BDC046D556001051
:10419000004003403450034008239C46F0B5454698
:1041A000DE4657464E4684440833E0B50500604677
:1041B0009C46AC446346ABB00593AB6000230C0057
:1041C000EB602B746B60009300220021CE4B0490B7
:1041D0000DF0ECFE002327682B700EAB9B46646845
:1041E0000C93002F00D108E124940F2C28D8012C27
:1041F00000D0C8E128213B7804AA521813705A460F
:1042000000230D9413550D9B002203935F23039904
:1042100000930CA85E3B0DF06FFE0D9B0393022BE9
:104220001ED80C98584503D00E9901310CF0BEF9F8
:1042300028002BB0F0BCBB46B246A946A046F0BD54
:1042400024AE002231000CA80DF038FD249B0C9008
:104250000E932200390008F083FA249C0C9ACFE7D1
:1042600000220023089209930023A84908AA0CA859
:104270000A93FFF7FBFE099B08990393581AC41091
:10428000A3001B191A019B181A029B181A049A18EA
:1042900052001219302800D80BE1002A00D1A2E107
:1042A00014AB129390C9002C00D1ADE024970F2FCE
:1042B00000D908E1012F00D07EE14021237804AA33
:1042C0005218137014AA00231397D355099B089A08
:1042D00003939B1A182B00D87EE197691AABD46917
:1042E0001893002F00D147E124940F2C00D9FAE055
:1042F000012C00D05AE158213B7804AA52181370BF
:104300001AAA002319941355099B089A03939B1A20
:10431000302B00D859E1176B20AB546B1E93002F44
:1043200000D121E124940F2C00D906E1012C00D00A
:1043300035E170213B7804AA5218137024AE20AAEC
:1043400000231F941355129F26AB9946139C249368
:10435000002F00D101E107940F2C00D9DEE0012CE1
:1043600000D016E14A463B7833720023746013553F
:10437000199B30001A00189903930DF0DBFE249866
:10438000484503D0B368591C0CF010F901232B7079
:1043900000235F4F98466B600DE04C4504D0B36836
:1043A0002000591C0CF002F901239C46E0444346CE
:1043B00018370A2B43D04B4633603B687C689A46DB
:1043C000002B37D007940F2C25D8012C76D14A46E4
:1043D0001B783372002374601355139A259B249C19
:1043E0009A42DAD1002A05D02100129816F000FD79
:1043F0000028D2D143466B60CFE71A00002C00D1D1
:10440000FEE644480DF04AFA1A00002F00D15AE7A0
:1044100040480DF043FA0022300007A90DF04EFC91
:10442000079B3060B3602200514608F099F9079C61
:104430003268CFE7002C00D0C4E04A46CAE70498AF
:1044400018A90DF07DFC1E9820AB984203D020994E
:1044500001310CF0ABF818981AAB984203D01A99B6
:1044600001310CF0A3F8129814AB984203D01499C0
:1044700001310CF09BF8089C099EB4420CD023003B
:1044800020680833984210D0A3681834591C0CF0E7
:104490008DF8A642F3D1089E002E00D1C1E60A99FC
:1044A0003000891B0CF082F8BBE61834A642E6D136
:1044B000F1E70C99184808F0FFFBDCE74A46002CAE
:1044C00088D04846AFE724AE0022310012A80DF094
:1044D000F5FB249B129014933A00210008F040F958
:1044E000249F129AEFE624AE0022310018A80DF0A6
:1044F000E5FB249B18901A932200390008F030F94C
:10450000249C189AFDE6C0462CD4011080B90110F5
:10451000D821002064AF011084B9011000223000BE
:1045200007A90DF0CBFB079B2490B3602200390054
:1045300008F016F9079C249A17E724AE00223100F0
:104540001EA80DF0BBFB249B1E9020932200390077
:1045500008F006F9249C1E9AF2E61A00002C00D1FD
:1045600003E749480DF09AF91A0024AE002C00D157
:10457000E6E645480DF092F91A00002C00D1C0E69D
:1045800041480DF08BF91A00002C00D138E61800D4
:104590005FE61A00002C00D1E7E61800C6E720AA63
:1045A00024AE002C00D1CBE61000CFE71AAA002CD5
:1045B00000D1A6E610009FE714AA002F00D182E6E2
:1045C000100089E730480DF069F9304ADB1002210C
:1045D0005A432F480DF092F92C4ADB1001215A431F
:1045E0002B480DF08BF9110029480DF087F9A868C8
:1045F000059B984203D0296901310BF0D7FF0CF0DD
:104600007DF8089C099EA64233D108980A99091A98
:10461000002801D00BF0CAFF0C985845E7D00E993E
:1046200001310BF0C3FFE2E718981AAB984203D0B0
:104630001A9901310BF0BAFF129814AB9842E0D0EE
:10464000149901310BF0B2FFDBE7F5E71E9820ABC0
:104650009842E9D0209901310BF0A8FFE4E72498B3
:104660004845F3D0B16801310BF0A0FFEEE7BEE79B
:10467000D2E7230020680833984203D0A368591C6E
:104680000BF094FF1834BEE764AF0110ABAAAAAADE
:10469000F0B80110D0238022962110B50A4C1B06D9
:1046A00092045A612000890105F010FD02210020CA
:1046B00004F0B6F90221012004F0B2F91023E26AF5
:1046C0009343024A136010BD004003402C50034046
:1046D000F0B5DE4657464E464546E0B50C00BBB049
:1046E000092806DD3BB0F0BCBB46B246A946A04651
:1046F000F0BD06AB04934300DE4A1818C00086588C
:1047000010184568002E00D121E234950F2D00D9F4
:10471000F4E1012D00D04DE2337802AA137406AA09
:1047200000230595535510AA914612AA10924A46A5
:1047300053601372059B4846591C03930DF094FB7C
:10474000252349460093002248464968243B0DF042
:10475000D3FB059B48461A00049903930DF0EAFC2D
:104760004A46C54B52689A4200D13EE2C34F0122ED
:10477000390048460DF0DEFC060018AB16930368BE
:1047800008360500B34200D109E2169383681893F6
:104790006B6816A8179300232E602B726B606268FB
:1047A00021680DF0C7FC06001EAB1C930368083699
:1047B0000500B34200D1ECE11C9383681E936B6843
:1047C0001D9300236B601D9A2B72AB4B2E600392DE
:1047D0009A4200D106E2012239001CA80DF0AAFC81
:1047E000060024AB22939B46036808360500B342BB
:1047F00000D1C8E12293836824936B68239300233C
:104800002E60049E6B602B722AAB059D2893002EB0
:1048100000D196E134950F2D00D983E1012D00D010
:10482000CEE1A021337802AA521813702AAB0022DD
:1048300029955A5528A806CC0DF07CFC299C002C03
:1048400000D1B4E10121289D8D4B8E4E64192A7848
:10485000100058405B08014201D073409BB25008E1
:1048600058405B08014201D073409BB29008584009
:104870005B08014201D073409BB2D00858405B08EE
:10488000014201D073409BB2100958405B080142BD
:1048900001D073409BB2500958405B08014201D0DF
:1048A00073409BB2900958405B08014201D07340AD
:1048B0009BB2D2095A405B08114201D073409BB2AF
:1048C0000135AC42C3D1DC4364BAA4B2092C00D890
:1048D0006DE1632C00D87CE1FA239B009C4200D25E
:1048E00074E1694B042605219C4200D874E130AB89
:1048F0002D222EA82E930DF0FFF92E9B0393632CEF
:104900001BD99C46614B013E98465F4B66449A46D4
:104910002000642107F07EFA20004D00642107F09A
:1049200079FA43465B195B782700737043465B5DF9
:1049300004003370023E5745EAD8092C00D8ECE059
:10494000524B64001A19527803991C5D4A70039BFC
:104950001C70239C2F9A229BA0185B4500D104E178
:104960002499884200D8DBE02E9930ADA94200D1CD
:104970001BE1309DA84200D8F0E022A80DF0DAFB40
:10498000060036AF349703680836040034ADB342EE
:1049900000D1F2E034938368AB6063686B600023FE
:1049A000636023726A68344B26609A4200D116E134
:1049B0000122280036490DF0BDFB082290460CAEBE
:1049C0000A96036880440400434500D1CFE00A936F
:1049D00083680C9363680B93434623600023237220
:1049E00034986360B84203D0A96801310BF0DEFD52
:1049F0002E9830AB984203D0309901310BF0D6FDA0
:104A000028982AAB984203D02A9901310BF0CEFDA9
:104A10002298584503D0249901310BF0C7FD1C980A
:104A20001EAB984203D01E9901310BF0BFFD1698C2
:104A300018AB984203D0189901310BF0B7FD1098CC
:104A400012AB984204D04B46996801310BF0AEFD91
:104A50000A99104808F030F90A980778002F30D0EA
:104A60000D4B0D2100255D5F002398468C46040008
:104A7000202213E0D8210020FFFFFF3F80B9011062
:104A8000FFFF00000884FFFF0F27000018BA011085
:104A900054CF0110C4B90110DC35002041467D4BD4
:104AA00000291ED1BD4223D099690A42FCD11F6062
:104AB000217801340D394F4279412778C9B2002F4E
:104AC000EED1B04203D00C9901310BF06FFD049888
:104AD00006AB984200D105E6069901310BF066FD60
:104AE00000E699690A42E2D099690A42F9D1DEE703
:104AF00099690A42FCD161461960D5E7002234A9C0
:104B000004A80DF0DBF8349B049006932A003100D2
:104B100007F026FE349D049A02E63034E4B216E72C
:104B20002E992AE7002234A928A80DF0C7F8349B53
:104B300028902A932A00310007F012FE349D289B0A
:104B400075E6002D00D172E653480CF0A7FE06AAC8
:104B5000002D00D1E4E550480CF0A0FE0022002119
:104B600000942EA80DF022FA0AE70F21F9E641463B
:104B70003000083207F0F4FD2CE710223100380035
:104B800007F0EEFD09E710223100584607F0E8FD76
:104B900033E6102231001EA807F0E2FD0FE61022D6
:104BA000310018A807F0DCFDF2E50F25E2E600264B
:104BB00001219CE606AA002D00D1B1E51000A5E771
:104BC0002AAB002D00D132E61800B3E702260321FC
:104BD0008DE6012602218AE6013E013987E62F484B
:104BE0000CF074FE2D480CF071FE2C480CF06EFE9B
:104BF0002E9830AB984203D0309901310BF0D6FC9F
:104C000028982AAB984203D02A9901310BF0CEFCA8
:104C10002298584503D0249901310BF0C7FC1C9809
:104C20001EAB984203D01E9901310BF0BFFC1698C1
:104C300018AB984203D0189901310BF0B7FC1098CB
:104C400012AB984204D04B46996801310BF0AEFC90
:104C5000049806AB984203D0069901310BF0A6FCEC
:104C60000BF04CFDCCE7DAE7E9E7E0E7E7E7C7E779
:104C7000CEE70A98B042EBD00C9901310BF096FCCC
:104C8000E6E73498B842B3D0A96801310BF08EFC46
:104C9000AEE7C0460040034064AF0110ACB901105C
:104CA000F0B5DE46454657464E46E0B5C30F9B4637
:104CB000C317B3B0C518049106925D40092D00D802
:104CC00087E2632D00D813E2FA239B009D4200D2B5
:104CD0009EE2A24B9D4200D897E2A14B2800984645
:104CE000A04B01279946A04BA04C9A4608E04E45A0
:104CF00000D81DE2564500D83BE2A64200D841E26A
:104D00009B49060007F086F8390004374645EED87F
:104D1000CE1C5C460AAB2D2208A8E1190793089324
:104D200003900CF0E9FF089A5B46944663449A4668
:104D3000771E8A4B8F4E9B46B0465744280064210D
:104D400007F068F828004C00642107F063F8434638
:104D50001B195B782E007B7043461B5D05003B7082
:104D6000023F5E45EAD8FA2334009B0046469C4247
:104D700000D3CDE13035EDB25346039A1D70526831
:104D80007D4B05929A4200D14AE27C4B01221900E8
:104D900003989A460DF0CEF9060010AB0E93036807
:104DA00008360500B34200D1F5E10E9383681093F5
:104DB0006B680F9300236B602B72049B2E60DA0FDD
:104DC0000492DA179C185440092C00D811E2632C85
:104DD00000D812E2FA239B009C4200D20FE25F4B04
:104DE0009C4200D80FE25F4B200098465E4B0125A5
:104DF00099465E4B5A4F9B4608E0464500D8A8E1CD
:104E00004E4500D8B8E15E4500D8BEE158490600DD
:104E100007F000F82B000435BE42EED8049E16AB16
:104E20002D22711914A814930CF066FF149B9C4654
:104E30006644B146632C1AD94E4E484BB0469B4649
:104E4000023D4D442000642106F0E4FF20004F00A5
:104E5000642106F0DFFF4346DB195B7826006B70A8
:104E60004346DB5D04002B70023D5E45EAD8092C09
:104E700000D83AE14A463F4E640033195B78345D0E
:104E800053704B461C700F9C159A0E9B10A9A018CE
:104E90008B4200D17BE11099884200D844E11499FB
:104EA00016ADA94200D18EE1169DA84200D852E16C
:104EB0000EA80DF03FF905001AAB9B461CAB1A93E8
:104EC0000593036808350400AB4200D175E11A93DD
:104ED0005B4682689A605B4662685A6000235A4665
:104EE000636023725268244B25609A4200D194E19A
:104EF0000122514658460DF01DF9050022AB2093C2
:104F0000036808350400AB4200D150E12093836868
:104F1000229363682193002363602372069B2560BC
:104F2000DA0F0492DA179D185540092D00D84EE18A
:104F3000632D00D85FE1FA239B009D4200D26AE115
:104F4000064B9D4200D85CE1064B28009846064B74
:104F500001249946054B024F9A461AE00F2700009C
:104F60009F8601003F420F007F969800FFE0F50505
:104F70001027000018BA0110FFFFFF3F18E70110CB
:104F8000464500D8D2E04E4500D8F7E0564500D857
:104F9000F6E0C549060006F03DFF23000434BE429A
:104FA000EED8049E28AB2D22311926A899462693C7
:104FB0000CF0A2FE269B9C4666440496632D1BD9EA
:104FC000B446BA4BBA4E9A46B046023C64442800F6
:104FD000642106F01FFF28004F00642106F01AFF2D
:104FE0004346DB195B782E0063704346DB5D0500AA
:104FF0002370023C5645EAD8092D00D88FE0AC4B0F
:105000006D005A19527804995D5D4A70049B22A97B
:105010001D70219C279A209BA0188B4200D1B8E0DC
:105020002299884200D87DE02699494500D1CCE0FC
:10503000289DA84200D895E020A80DF07BF8070035
:105040002EAE2C960368083704002CADBB4200D16D
:10505000A7E02C938368AB60636829006B60002332
:105060000120276063602372FFF732FB2C98B04267
:1050700003D0A96801310BF099FA2698484503D06E
:10508000289901310BF092FA209822AB984203D074
:10509000229901310BF08AFA1A98059B984204D0A4
:1050A0005B46996801310BF081FA149816AB98426F
:1050B00003D0169901310BF079FA0E9810AB984293
:1050C00003D0109901310BF071FA0898079B9842B0
:1050D00004D0039B996801310BF068FA33B0F0BC3F
:1050E000BB46B246A946A046F0BD3034E4B2C8E69D
:1050F0005C460AAB2D2208A8A11C079308930390D5
:105100000CF0FAFD089A5B46944663449A46684E52
:1051100052466D0073195B78755D53702CE630351F
:10512000EDB273E7269987E71499C1E65C1D38E76D
:1051300005310AAB08A82D22594407930893039020
:105140000CF0DAFD089B5C469C466444A2463E0097
:10515000EEE55D1D62E600220021009414A80CF02B
:1051600025FFA8E600220021009426A80CF01EFFCF
:1051700065E78F1D4E1DCCE59D1D4FE69C1D10E77C
:10518000DC1D0EE7CF1D8E1DC3E5DD1D46E60F219C
:1051900082E60F2145E71022310010A807F0E0FA5F
:1051A00006E610223900300007F0DAFA54E7102240
:1051B000290022A807F0D4FAABE6102229000598AE
:1051C00007F0CEFA87E60F256FE60F2531E70124B9
:1051D000E7E65C460AAB2D2208A8611C07930893FA
:1051E00003900CF089FD089A5B46944663449A4606
:1051F000C0E5012512E60224D3E602250EE60325CA
:105200000CE60424CDE6042508E60326042780E501
:10521000022603277DE50324C3E626480CF056FB4F
:1052200024480CF053FB0898079B984204D0039B3A
:10523000996801310BF0BAF90BF060FA149816ABCB
:10524000984203D0169901310BF0B0F90E9810ABCB
:105250009842E8D0109901310BF0A8F9E3E7F5E79F
:105260001A98059B9842E9D05B46996801310BF08A
:105270009DF9E3E72C98B04203D0A96801310BF007
:1052800095F92698484503D0289901310BF08EF9FD
:10529000209822AB9842E3D0229901310BF086F995
:1052A000DEE7EEE7F4E7C046102700000F27000016
:1052B00018BA0110ACB90110F0B55746DE464E469B
:1052C0004546E0B5C30F9A46C317C41889B05C4081
:1052D000092C00D899E0632C68D9FA239B009C42E2
:1052E00000D2A4E0594B9C4200D89DE0584B2000CE
:1052F0009846584B01279946574B584D9B4607E017
:1053000046456CD94E4500D879E05E4500D879E035
:105310005349060006F07EFD39000437AE42EFD84F
:10532000CD1C02AB9B46390004AB51442D2258469C
:10533000019302930CF0E0FC029B9C46E244494B33
:10534000013D9846414B554499462000642106F0A2
:1053500061FD20004E00642106F05CFD43469B1970
:105360005B7827006B7043469B5D04002B70023D09
:105370004F45EAD8FA239B009F4227D23034E4B24B
:105380005346594602201C70FFF7A2F90298019B70
:10539000984204D05B46996801310BF007F909B0D7
:1053A000F0BCBB46B246A946A046F0BD02AB9B4648
:1053B00004AB0193029353462D22991C58460CF0DE
:1053C0009BFC029B9C46274BE24498464346524630
:1053D00064001B195B78537043461C5DD0E702AB39
:1053E0009B46053104AB51442D225846019302934C
:1053F0000CF082FC029B3D009C46E2449FE78F1D1F
:105400004D1D8EE7CF1D8D1D8BE702AB9B4604AB78
:105410000193029353462D22591C58460CF06CFC04
:10542000029B9C46E244A9E70325042779E702256D
:10543000032776E70298019B984204D05B4699685F
:1054400001310BF0B3F80BF059F9C0460F270000FB
:105450003F420F007F969800FFE0F5059F86010010
:105460001027000018BA011070B5056888B004ACA8
:105470000294002D30D0280014F0BEFD06000190EB
:105480000F281AD8012813D16A462B7813742300E9
:105490000022039002A91A540320FFF719F9029879
:1054A000A04203D0049901310BF080F808B070BD20
:1054B00023000028ECD0200007E0002201A902A868
:1054C0000CF0FCFB019B029004933200290007F0D2
:1054D00047F90198029BDBE705480CF0DFF90298D9
:1054E000A04203D0049901310BF060F80BF006F9EB
:1054F00064AF0110F0B54F464646D646456AC0B582
:105500000E004169C2696F1ABB1099468369040095
:105510009B1ADB109C469A0062441301D2181302B6
:10552000D2181304D3184A465B00013A63449446E8
:1055300052006244D000821A9B18A068226982B08F
:10554000121AD210944692006244100180464244DE
:105550001002804642441004804642445200624495
:105560009A18594B9A4200D19AE02368626898468B
:10557000EB1A9B10D31A012B37D9FC2040000BF0FB
:10558000CFFE6860A76975683800083038603368F6
:105590009846002B63D001950F2D17D8012D00D010
:1055A0007AE01B783B7200237D604355636A1A1DC5
:1055B0005B6862621A00F932FF32E3612262A36122
:1055C00002B0E0BCBA46B146A846F0BD00223800A1
:1055D00001A90CF073FB019B3860BB602A004146B7
:1055E00007F0BEF8019D3868DDE74B460233994667
:1055F0005B009A4238D8951C002A00D101328023E2
:10560000AD189B059D424ED2A8000BF089FE4B467B
:105610008246EA1A5208636A9200524461699046CF
:105620001A1D914203D04046521A15F071FC63686E
:10563000206899000AF0BAFF53466560236043462C
:105640003D0063611B684544E360F933FF33236128
:105650002B686562E361F933FF3323628DE7002D28
:10566000A1D01A480CF01AF94B46D21A52089200EF
:1056700090440435414506D9A942E0D040466A1A13
:1056800015F046FCDBE7A942D9D06A1A381D801A0A
:10569000404415F03DFCD2E7002D00D183E79DE7A3
:1056A0000B480CF013F90CF0E9F80BF015F9FC219C
:1056B000636A490058680AF079FF0BF097FD0BF018
:1056C00045F90BF01BF8C0465555550564AF011060
:1056D000C8B90110F0B5DE4657464E464546E0B51E
:1056E0004C4B85B09B69DB0616D4082398464A4D7F
:1056F000A8441021474A93691942FCD11468E4B2C6
:105700000A2C24D0252C0ED0444B1B78002B0ED114
:10571000404B9B69DB06ECD505B0F0BCBB46B246FE
:10572000A946A046F0BD3D4F3B78002B3CD06B68AE
:1057300099465F1C2B68434560D0AA6897423DD8C4
:105740004A469C5400232A686F60D355E0E7344EE4
:10575000336AB469183B9C424AD020002E4F08306F
:1057600020603B689B467B689A465B46002B47D08F
:10577000534603930F2B2BD8012B47D15B461B7845
:10578000237253465246636000238354B36918332F
:10579000B36100247A68234B0021380000940CF098
:1057A00005FC1E4B1C70B3E71B48009300211D4BEA
:1057B00042680CF0FBFB01233B70A9E701230022A8
:1057C00000934946002328000CF0F4FA2B68B7E751
:1057D0000022200003A90CF071FA039B2060A36053
:1057E0005246594606F0BCFF039B20689A46C8E71C
:1057F000094F30003900FFF77DFECAE70F229DE711
:105800005346002BBDD008480CF048F8002BB8D008
:10581000E6E7C046004003407C210020F63500202A
:10582000942100202CD4011064AF0110F8B5574624
:105830004E46DE4645461400E0B506000F0001293D
:105840004BD080239B0599424ED28D0028000BF04F
:1058500067FD2A000021804606F07CFF18239B4646
:10586000B3440023B568B360002D24D099460833B3
:105870009A46B24405E0126822601B681C60002D45
:1058800019D02C003900E06A06F0C4FA8B004344BA
:105890001A682D68002AEED1B26822605246B460C0
:1058A0001A602368002B16D04B4642469B0089465F
:1058B0009C50002DE5D130687168584502D08900B0
:1058C0000AF074FE434677603360F0BCBB46B246D4
:1058D000A946A046F8BD8946D1E700238361183365
:1058E00098468044C346BCE70BF0C8FF0AF0F4FFBB
:1058F000236873610BF07AFC0BF028F80AF0FEFEC7
:10590000F0B5DE4657464E4645460B00E0B506006C
:105910006E4A87B0884603CB0BF0BEFC7368070065
:1059200019009B4606F076FA8B009A465246336879
:1059300089469B58002B0DD01C68E56AAF4252D0B7
:105940002468002C06D0E56A5946280006F062FA61
:105950008945F3D030200BF0E3FC0023040008C09D
:105960000C339946A1444B46636043461B689B46F3
:1059700043465D685B46002B00D175E004950F2D12
:1059800040D8012D00D078E01B784A46237304AB41
:1059900098460023A56053556362736931000393F1
:1059A0000123404600937268F36810310CF05EF8F2
:1059B00043461B78002B35D15346E7623768FD1804
:1059C0002B68002B41D01B6823602B681C60F36898
:1059D0000133F36020001C3007B0F0BCBB46B24678
:1059E000A946A046F0BD43465A68A3689A42A7D18B
:1059F000002AEFD043466168186815F0F9F90028CD
:105A0000E8D09DE704AB0022190098460CF056F947
:105A1000049B6060E3602A00594606F0A1FE049DE5
:105A20006268B6E743463000596803AAFFF7FEFEF6
:105A30003800716806F0EEF98B009A465346E7622B
:105A40003768FD182B68002BBDD1B368B4602360A4
:105A5000002B05D0D86A716806F0DCF98900CC51BA
:105A6000330008332B60B2E704AB4A469846002D5A
:105A700000D18EE716480BF011FF04AB4A4698465A
:105A8000002D00D185E74846C5E70AF025FF302103
:105A900020000AF08BFD0BF0A9FB636A002B04D0F9
:105AA00020001C300322010098476068814503D024
:105AB000E368591C0AF07AFD302120000AF076FDD7
:105AC0000AF01CFE0AF042FF0AF018FE07690FC731
:105AD00064AF011070B5050086B00A293AD083681A
