:020000041000EA
:1000000000B50C4B00219960042159610A4919601F
:100010000A490B480160002159600121996001BC27
:10002000002800D0004707480749086003C880F34C
:10003000088808470000001800031F00180200038A
:10004000F40000180001001008ED00E000000000BE
:1000500000000000000000000000000000000000A0
:100060000000000000000000000000000000000090
:100070000000000000000000000000000000000080
:100080000000000000000000000000000000000070
:100090000000000000000000000000000000000060
:1000A0000000000000000000000000000000000050
:1000B0000000000000000000000000000000000040
:1000C0000000000000000000000000000000000030
:1000D0000000000000000000000000000000000020
:1000E0000000000000000000000000000000000010
:1000F0000000000000000000000000002CEC210DBA
:1001000000200420F7010010C3010010C5010010F9
:10011000C1010010C1010010C1010010C101001097
:10012000C1010010C1010010C1010010C701001081
:10013000C1010010C1010010C9010010CB01001065
:10014000CD010010CD010010CD010010CD01001037
:10015000CD010010CD010010CD010010CD01001027
:10016000CD010010CD010010CD010010CD01001017
:10017000CD010010CD010010CD010010CD01001007
:10018000CD010010CD010010CD010010CD010010F7
:10019000CD010010CD010010CD010010CD010010E7
:1001A000CD010010CD010010CD010010CD010010D7
:1001B000CD010010CD010010CD010010CD010010C7
:1001C00000BE00BE00BE00BE00BE00BE00F04BF888
:1001D000103800BEF2EB8871B0530210DC530210ED
:1001E0003402001090A31AE700202149086006C8D5
:1001F00081F3088810471F48006800282FD10DA4FC
:100200000ECC002902D000F012F8F9E71A491B4A77
:10021000002000E001C19142FCD1194988471949E9
:1002200088471949884700BEFDE701C901C29A42C3
:10023000FBD37047DC530210C0000020FC1E0020DE
:10024000187202100000042000000420187202102E
:1002500000100420001004200000000070470B482C
:100260000EF080FF0047EFF30580C0B2704700003A
:1002700008ED00E0000000D0001F0020E83600205C
:10028000B1D50010B9B50010D9D6001057560000EE
:1002900006005250ABB36053500E0210060052508D
:1002A000861C0302780E0210060052505422A29DB2
:1002B000A4FC011005005250DE65F46818720210AB
:1002C000F8B5C04610B5064C2378002B07D1054B76
:1002D000002B02D0044800E000BF0123237010BDB2
:1002E000102100200000000090ED0110044B10B51B
:1002F000002B03D00349044800E000BF10BDC046F6
:10030000000000001421002090ED01107047C0464D
:10031000C82070477047C04610B50400042114F08F
:1003200061F8200010BDC046014B083303607047E0
:10033000A8ED011010B50400034B08330360FFF76C
:10034000E5FF200010BDC046E8ED011010B5040027
:10035000054B08330360FFF7D9FF20000C2114F090
:1003600041F8200010BDC046E8ED0110F0B50126AF
:10037000002785B0124D03AC2200277001232321F2
:100380002800009613F09CFA2200267001232321F6
:100390002800009613F094FA0723220023702321EB
:1003A00028000096063B13F08BFA132322002370DB
:1003B000232128000097123B13F082FA05B0F0BD0C
:1003C00038160020002330B585B0040000932321A7
:1003D0000F48023303AA13F0DBFA002814DD6B4642
:1003E000187B5B7B0002C0180FF0F2F9A568094A80
:1003F000094B64680FF05DF90FF002FA2A00210042
:1004000006F090FE05B030BD01204042FAE7C0463C
:1004100038160020CCCCCCCCCCCC0C4070B50368CA
:10042000184A9B68040084B0934225D100232321FD
:1004300000931548023303AA13F0AAFA00281DDD21
:100440006B46187B5B7B0002C0180FF0C1F9A668F1
:100450000E4A0F4B65680FF02CF90FF0D1F93200FE
:10046000290006F05FFEC823A26800936168BE3BC6
:1004700006F04CFE04B070BD9847F4E701204042FE
:10048000F1E7C046C503001038160020CCCCCCCC18
:10049000CCCC0C4010B50400FFF746FF044B200005
:1004A00008332360002363609633A36010BDC04609
:1004B000E8ED01107047C04610B50F22002104304E
:1004C00010F05CF810BDC046401800797047C04677
:1004D000002905D00E2903D0401802710120704771
:1004E0000020FCE710B50400142113F07BFF20006E
:1004F00010BDC046F0B50700083704000E0083B0F9
:100500000760002923D008001DF0A8FC0500019019
:100510000F280DD8012808D1337823720021019BC0
:1005200022686360D15403B0F0BD0028F6D008E023
:100530000022200001A915F0DDFA0700019B2060D0
:10054000A3602A003100380010F01EF8E6E70148E9
:1005500015F0C0F804EE01100368064ADB6810B518
:10056000934205D10F220021043010F007F810BD8E
:100570009847FCE7B9040010014B0833036070474B
:100580007CEE011070B584680600002C1FD0636AF1
:100590002568002B04D020001C300322010098475E
:1005A000230060680C3398420BD0E368591C13F0A9
:1005B00019FF3021200013F015FF002D07D02C006B
:1005C000E5E73021200013F00DFF002DF7D173680F
:1005D00000219A0030680FF0D1FF0023F360B36070
:1005E0003300306818337168984202D0890013F0E4
:1005F000F9FE300070BDC046F0B557464E46DE46A7
:100600004546E0B58269036983B09346C2690093A9
:1006100043699046426A1F1D81469246866801934F
:10062000BA4212D93C682500F935FF35230020680D
:10063000083398425AD0A3681834591C13F0D2FEDC
:10064000A542F3D10437BA45ECD8019B9A4540D076
:10065000009B9E420CD0330030680833984252D041
:10066000B3681836591C13F0BDFE009BB342F2D19B
:10067000C3450ED043461868083398423DD04346E0
:100680009B68591C13F0AEFE18239C46E044C345FA
:10069000F0D14B461868002812D05C695B6A1D1DBA
:1006A000AC4208D2FC2101CC490013F09BFEA542CC
:1006B000F8D84B4618684B465B68990013F092FED9
:1006C000484603B0F0BCBB46B246A946A046F0BDC2
:1006D0001836B345DDD03300306808339842F7D080
:1006E000B3681836591C13F07DFEF2E71834A542A2
:1006F0009CD10437BA4595D8A7E718239C46E04417
:10070000C345B7D1C5E7009B1836B342A3D1AFE7C5
:10071000704B70B51A68541C1C60012C27D06E4BAE
:100720001A68541C1C60012C0ED16C4D102228003C
:1007300000210C300FF022FF694B6C602B6000230E
:10074000AB60FE239B052B61664A1368013313607F
:10075000012B50D0644A136801331360012B45D03C
:10076000624A136801331360012B3AD070BD604DAB
:1007700060492800FFF7BEFE5F496048FFF7BAFEF8
:100780005F496048FFF7B6FE5F496048FFF7B2FE79
:100790005F496048FFF7AEFE5F496048FFF7AAFE79
:1007A0005F496048FFF7A6FE5F496048FFF7A2FE79
:1007B0005F496048FFF79EFE5F496048FFF79AFE79
:1007C0005F496048FFF796FE5F496048FFF792FE79
:1007D0005F496048FFF78EFE5F496048FFF78AFE79
:1007E0009DE744495E48FFF785FEBFE741495D4804
:1007F000FFF780FEB4E700235B4C20202360A3605A
:10080000E36023616361A361E36123626362083390
:10081000636014F0A1FC050063682060581E400866
:1008200080002D18FC20400014F096FC0300F933E2
:10083000FF3328606561E06023616562E0612362E7
:10084000A060A06186E70D240D231B1B18245C43C8
:100850002C19AC421CD113F06DFE0C24F4E70B24D0
:10086000F2E70A24F0E70824EEE70724ECE709247E
:10087000EAE70624E8E70524E6E70224E4E7E3E7FD
:100880000024E1E713F044FF14F0CCFB0424DBE781
:10089000183C2300206808339842DAD0A368591C1A
:1008A00013F0A0FDD5E70324CEE7050013F06AFF9F
:1008B000280013F02DFF63682068990013F092FD63
:1008C00000232360636014F0ADFB13F05BFF13F0B3
:1008D00031FEC0465421002050210020E421002098
:1008E000FC2100204C210020442100204821002030
:1008F00000220020A0FE011030EE0110182200207E
:10090000383102103022002034EE0110482200203D
:1009100038EE0110602200203CEE01107822002009
:1009200040EE01109022002044EE0110A822002089
:1009300048EE0110C02200204CEE0110D822002009
:1009400050EE0110F022002054EE01100823002088
:1009500058EE0110202300205CEE01103823002007
:10096000A42100208C210020BC2100207047C0461B
:100970000E2907D8C36AC91880235B059C466144C9
:10098000087870470020FCE710B50400034B0833DB
:100990000360FFF78FFD200010BDC046C4EE0110BC
:1009A00010B50400054B08330360FFF783FD2000FA
:1009B000302113F017FD200010BDC046C4EE011019
:1009C00070B50500EFF3108672B6036A002B0CD0E9
:1009D0000024EB6A80219C462003604449011EF0FC
:1009E0008FF92B6A0134A342F3D886F3108870BDC7
:1009F000F0B50700083704000E0083B00760002937
:100A000023D008001DF02AFA050001900F280DD808
:100A1000012808D1337823720021019B226863608A
:100A2000D15403B0F0BD0028F6D008E00022200029
:100A300001A915F05FF80700019B2060A3602A0060
:100A4000310038000FF0A0FDE6E7014814F042FE47
:100A500004EE0110F0B5C64600B504000E00904645
:100A600000AF0E2961D883691A026B469B1A9D4616
:100A700000236D462B70681C012A03DD0021013A1A
:100A80000FF07CFD80232900E26A5B05D31819432F
:100A900089074FD134498C466244AA1A022A49D99F
:100AA0001A682A605A686A609A68AA601A7B2A7370
:100AB0005A7B6A739B7B2D4AAB734346AB552368C5
:100AC000DB68934233D1EFF3108872B6236A002BB0
:100AD0000CD00026E36A80219C4630036044490123
:100AE0001EF00EF9236A0136B342F3D888F310885A
:100AF000EFF3108872B6A369002B0FD00026E36ACB
:100B000080229C4630022900604452001EF0C0F84A
:100B1000A36901350136FF35B342F0D888F3108858
:100B20000120BD4680BCB846F0BD0020F9E720009A
:100B30009847DDE71A782A705A786A709A78AA700E
:100B4000DA78EA701A792A715A796A719A79AA71EF
:100B5000DA79EA711A7A2A725A7A6A729A7AAA72D7
:100B6000DA7AEA72A2E7C04601000010C10900105B
:100B700010B50400FFF700FD094B80220833236005
:100B80000F2363610E3BA361236280235B016362D9
:100B90000023A362034B52002000E261E36210BD18
:100BA000C4EE011000F07F00704B70B51A68541C41
:100BB0001C60012C27D06E4B1A68541C1C60012C41
:100BC0000ED16C4D1022280000210C300FF0D6FC05
:100BD000694B6C602B600023AB60FE239B052B618F
:100BE000664A136801331360012B50D0644A1368BE
:100BF00001331360012B45D0624A1368013313603F
:100C0000012B3AD070BD604D60492800FFF7F0FE1F
:100C10005F496048FFF7ECFE5F496048FFF7E8FE78
:100C20005F496048FFF7E4FE5F496048FFF7E0FE78
:100C30005F496048FFF7DCFE5F496048FFF7D8FE78
:100C40005F496048FFF7D4FE5F496048FFF7D0FE78
:100C50005F496048FFF7CCFE5F496048FFF7C8FE78
:100C60005F496048FFF7C4FE5F496048FFF7C0FE78
:100C70005F496048FFF7BCFE9DE744495E48FFF7C7
:100C8000B7FEBFE741495D48FFF7B2FEB4E7002376
:100C90005B4C20202360A360E36023616361A36158
:100CA000E361236263620833636014F055FA050060
:100CB00063682060581E400880002D18FC2040000A
:100CC00014F04AFA0300F933FF3328606561E060ED
:100CD00023616562E0612362A060A06186E70D2464
:100CE0000D231B1B18245C432C19AC421CD113F0A0
:100CF00021FC0C24F4E70B24F2E70A24F0E7082493
:100D0000EEE70724ECE70924EAE70624E8E70524F0
:100D1000E6E70224E4E7E3E70024E1E713F0F8FC68
:100D200014F080F90424DBE7183C23002068083322
:100D30009842DAD0A368591C13F054FBD5E703247A
:100D4000CEE7050013F01EFD280013F0E1FC6368F8
:100D50002068990013F046FB00232360636014F0C1
:100D600061F913F00FFD13F0E5FBC046542100209C
:100D700050210020E4210020FC2100204C210020F3
:100D8000442100204821002000220020A0FE011064
:100D900030EE0110182200203831021030220020DD
:100DA00034EE01104822002038EE011060220020AD
:100DB0003CEE01107822002040EE0110902200202D
:100DC00044EE0110A822002048EE0110C0220020AD
:100DD0004CEE0110D822002050EE0110F02200202D
:100DE00054EE01100823002058EE011020230020AB
:100DF0005CEE011038230020A42100208C2100206B
:100E0000BC2100207047C04610B50400034B0833D6
:100E10000360FFF74FFB200010BDC0460CEF011030
:100E200010B50400054B08330360FFF743FB2000B7
:100E3000142113F0D7FA200010BDC0460CEF0110AA
:100E400000B585B06A46084B1B7813730123C27C3A
:100E50000093521803AB5021D2B2044806F0A2F915
:100E60006B46187B05B000BDA0FE011038160020AF
:100E70000F4BF0B54746CE469946002380B5060095
:100E800000249846012785B003AD4346F27C2B70C1
:100E900012192B0050214846D2B20097013406F0B7
:100EA00059F90F2CF1D105B0C0BCB946B046F0BD20
:100EB00038160020F0B50700083704000E0083B094
:100EC0000760002923D008001CF0C8FF050001902E
:100ED0000F280DD8012808D1337823720021019BF7
:100EE00022686360D15403B0F0BD0028F6D008E05A
:100EF0000022200001A914F0FDFD0700019B2060E5
:100F0000A3602A00310038000FF03EFBE6E70148FD
:100F100014F0E0FB04EE011010B5040084B00020D2
:100F20000E290DD803AB1A70E27C06485218012135
:100F3000D2B200914F3106F00DF9431E9841C0B274
:100F400004B010BD3816002010B50400FFF714FBE4
:100F5000034B2000083323600123E37410BDC04617
:100F60000CEF0110704B70B51A68541C1C60012CFA
:100F700027D06E4B1A68541C1C60012C0ED16C4D8E
:100F80001022280000210C300FF0F8FA694B6C6039
:100F90002B600023AB60FE239B052B61664A136820
:100FA00001331360012B50D0644A1368013313607E
:100FB000012B45D0624A136801331360012B3AD0EC
:100FC00070BD604D60492800FFF774FF5F496048BD
:100FD000FFF770FF5F496048FFF76CFF5F496048AB
:100FE000FFF768FF5F496048FFF764FF5F496048AB
:100FF000FFF760FF5F496048FFF75CFF5F496048AB
:10100000FFF758FF5F496048FFF754FF5F496048AA
:10101000FFF750FF5F496048FFF74CFF5F496048AA
:10102000FFF748FF5F496048FFF744FF5F496048AA
:10103000FFF740FF9DE744495E48FFF73BFFBFE7EE
:1010400041495D48FFF736FFB4E700235B4C2020A1
:101050002360A360E36023616361A361E3612362B2
:1010600063620833636014F077F8050063682060FA
:10107000581E400880002D18FC20400014F06CF829
:101080000300F933FF3328606561E0602361656226
:10109000E0612362A060A06186E70D240D231B1B85
:1010A00018245C432C19AC421CD113F043FA0C24D5
:1010B000F4E70B24F2E70A24F0E70824EEE707241C
:1010C000ECE70924EAE70624E8E70524E6E702243A
:1010D000E4E7E3E70024E1E713F01AFB13F0A2FFD3
:1010E0000424DBE7183C2300206808339842DAD058
:1010F000A368591C13F076F9D5E70324CEE7050061
:1011000013F040FB280013F003FB6368206899008C
:1011100013F068F900232360636013F083FF13F07A
:1011200031FB13F007FAC046542100205021002063
:10113000E4210020FC2100204C210020442100203B
:101140004821002000220020A0FE011030EE0110F6
:1011500018220020383102103022002034EE011015
:101160004822002038EE0110602200203CEE0110E1
:101170007822002040EE01109022002044EE011061
:10118000A822002048EE0110C02200204CEE0110E1
:10119000D822002050EE0110F022002054EE011061
:1011A0000823002058EE0110202300205CEE0110DF
:1011B00038230020A42100208C210020BC21002005
:1011C0007047C04610B503685B68984710BDC046BD
:1011D00010B50400034B0833036004F06BF92000E2
:1011E00010BDC046B4F2011010B50400054B083321
:1011F000036004F05FF92000042113F0F3F82000ED
:1012000010BDC046B4F201100023F0B50360436086
:101210008360154B04000E0083B0D5009D4216D8A4
:10122000002D0ED0280013F097FF47192060A7600B
:10123000002D0AD02A0031000FF0A6F9676003B034
:10124000F0BD002705608560F8E70700F6E707486E
:1012500014F058FA2068A168091A002801D013F088
:10126000C1F813F067F9C046F8FFFF7F2CEF0110BB
:10127000F0B50700083704000E0083B007600029AE
:1012800023D008001CF0EAFD050001900F280DD8BE
:10129000012808D1337823720021019B2268636002
:1012A000D15403B0F0BD0028F6D008E000222000A1
:1012B00001A914F01FFC0700019B2060A3602A0015
:1012C000310038000FF060F9E6E7014814F002FA47
:1012D00004EE0110F0B5C646040000B5002825D084
:1012E0001A4B1B4F98462600E068FFF7F3FFB569DD
:1012F000A468002D14D06B68013B6B60002B0FD1EC
:101300002B689B68BB4214D1AB68013BAB60002BE0
:1013100006D12B68DA6842450ED128005B689847F1
:101320001C21300013F05EF8002CDCD180BCB846E4
:10133000F0BD28009847E7E7280090471C213000BF
:1013400013F050F8002CCED1F0E7C046C5110010C4
:10135000C1110010F0B5DE4657464E464546E0B591
:10136000834685B0002800D199E05B46DB68019395
:10137000002B00D186E0019BDB689946002B72D0E0
:101380004B46DB689A46002B60D05346DC68002C45
:1013900042D0E668002E27D0F3689846002B2FD065
:1013A0004346DD68002D44D0EF68002F10D0F86868
:1013B000FFF7D0FF3B00DA69BF6810000293039289
:1013C000FFF788FF2C21029813F00CF8002FEED1C4
:1013D000AF68E869FFF77EFF2C21280013F002F8C0
:1013E000002F26D03D00DFE7A568E069FFF772FF18
:1013F0002C21200012F0F6FF002D0DD02C00C8E7A4
:10140000B568F069FFF766FF2C21300012F0EAFFA3
:10141000002DE9D02E00BFE753469C68D869FFF73E
:1014200059FF2C21504612F0DDFF002C0ED0A246B1
:10143000ABE743469D68D869FFF74CFF2C21404637
:1014400012F0D0FF002DDBD0A846A9E74B469C68E0
:10145000D869FFF73FFF2C21484612F0C3FF002C4C
:1014600001D0A1468CE7019DEB69AC68180001939F
:10147000FFF730FF2C21280012F0B4FF002C01D020
:10148000019478E75B469C68D869FFF723FF2C211D
:10149000584612F0A7FF002C01D0A34665E705B01F
:1014A000F0BCBB46B246A946A046F0BD10B504004C
:1014B00004F0A6F8024B20000833236010BDC0469C
:1014C000B4F20110F0B5DE4657464E4645468B460F
:1014D0000221E0B59846531E8246894687B0032B09
:1014E00004D90139D31F89460B2B3DD853002A4913
:1014F0009B189B005D180020CB580021029003919F
:1015000000216A680491D41A9A4236D0234B9C4237
:1015100036D8200013F020FE0ACD04190290039063
:101520000494994209D000225B1A84188D1808325D
:10153000C0CDC0C49A42F8D18018434603900093AE
:1015400059464B46504602AA04F0C0F802980028BB
:1015500003D00499091A12F045FF07B0F0BCBB464E
:10156000B246A946A046F0BD11000C2315398B42A6
:101570009B41032119408946B8E700240020CBE7AE
:1015800014F098F802980499091A002801D012F072
:1015900029FF12F0CFFFC04698240020F8FFFF7FFC
:1015A000F0B54F464646D646C0B51F00089B04001E
:1015B0000D0038000521160098460DF005FE8946FD
:1015C000002900DDDBE0C54B9A465B7B002B7CD11C
:1015D0004346012229002000FFF774FF4346022200
:1015E00029002000FFF76EFF182F04DD701C182162
:1015F0000DF0EAFD0E00002E48D00C2E46D0012E34
:1016000000D19EE00D2E00D19BE0022E00D12DE1F5
:101610000E2E00D12AE1032E00D135E10F2E00D18C
:1016200032E1042E00D128E1102E00D125E1052E53
:1016300000D130E1112E00D12DE1062E00D131E193
:10164000122E00D12EE1072E00D132E1132E00D14F
:101650002FE1082E00D133E1142E00D130E1092E04
:1016600000D134E1152E00D131E10A2E00D137E14D
:10167000162E00D134E10B2E01D0172E0CD143468B
:101680001F2229002000FFF71DFF05E0434620220E
:1016900029002000FFF716FF7E1F132E00D891E0CF
:1016A0003B00233B042B23D93B00193B042B55D98A
:1016B0003B00283B132B51D9042F55D84346032216
:1016C00029002000FFF7FEFE18E04346DB0700D5A7
:1016D0007EE743460F2229002000FFF7F3FE534622
:1016E0005B7B002B00D173E74346DB0751D56FE7E7
:1016F00043460C2229002000FFF7E4FE3B00143B88
:10170000042B00D8A8E03B00193B042B00D896E03E
:101710003B001E3B042B00D897E03B00233B042BEF
:1017200000D88CE0053B042B00D895E0053B042B4A
:101730001ED9053B042B00D874E0373F042F4FD847
:1017400048E04346042F00D973E0212229002000FD
:10175000FFF7B8FE3B00193B042BA9D843460B22E8
:1017600029002000FFF7AEFE3B000F3B042BC5D83D
:1017700043460A2229002000FFF7A4FE30E043463A
:101780000F2229002000FFF79DFE4B46012B00D1C0
:10179000ADE04346102229002000FFF793FE4B46A0
:1017A000022B22DD4346112229002000FFF78AFE8A
:1017B0004B46042B57D14346122229002000FFF745
:1017C00081FE05E743460C2229002000FFF77AFE40
:1017D000042E23D84346072229002000FFF772FE7B
:1017E000E0BCBA46B146A846F0BD3C4B9A465B7B8E
:1017F000002B00D1ECE64346DB0700D5E8E6434684
:10180000112229002000FFF75DFE53465B7B002B71
:1018100000D1DDE64346DB07CDD5D9E63B000A3BE8
:10182000042BA1D84346082229002000FFF74AFED6
:10183000D6E7152229002000FFF744FE2CE7434697
:10184000072229002000FFF73DFE43460D22290014
:101850002000FFF737FEC3E7434609222900200096
:10186000FFF730FEBCE71D4B9A46CEE743461622F3
:1018700029002000FFF726FE0EE743461822290024
:101880002000FFF71FFE07E743461722290020002C
:10189000FFF718FE00E74346192229002000FFF752
:1018A00011FEF9E643461A2229002000FFF70AFE3E
:1018B000F2E643461B2229002000FFF703FEEBE679
:1018C00043461C2229002000FFF7FCFDE4E64346C6
:1018D0001D2229002000FFF7F5FDDDE65023002042
:1018E00043461E2229002000FFF7ECFDD4E6014B01
:1018F0009A46F4E650230020F0B5C64600B5C8B0BD
:10190000012800D184E0334A1368013B1360002BA7
:1019100014D1314C314D206800280BD0A368191A1E
:1019200012F060FD23000C3BA54207D01C0020688C
:101930000028F3D123000C3BA542F7D1284A1368B5
:10194000013B1360002B08D1264B274A18689042B0
:1019500003D09968013112F045FD244A1368013B18
:101960001360002B08D1224B224A1868904203D002
:101970009968013112F036FD1F4A1368013B13606C
:10198000002B00D1CDE21D4A1368013B1360002BF0
:1019900000D1C2E21A4A1368013B1360002B0DD13B
:1019A000184C194D183C23002068083398420DD07C
:1019B000A368591C12F016FDAC42F3D1134B986882
:1019C000FFF7C8FC48B080BCB846F0BDAC42E9D1D6
:1019D000F4E7C04660210020302600209824002033
:1019E00048210020A4210020AC2100204421002017
:1019F0008C210020942100204C2100205021002027
:101A0000542100205023002000220020842900209F
:101A10000022F94B191D1A719A605A61D960196137
:101A2000F64B1A68541C1C60012C00D1AFE2F44B39
:101A30001A68541C1C60012C0ED1F24D1022280093
:101A400000210C300EF09AFDEF4B6C602B600023F0
:101A5000AB60FE239B052B61EC4A136801331360D6
:101A6000012B00D16BE2EA4A136801331360012BAA
:101A700000D15FE2E74A136801331360012B00D104
:101A800053E2E54A136801331360012B07D10022AA
:101A9000E24B1A605A6002329A601C329A81E04B23
:101AA0001A68551C1D60012D00D08BE70023DD4F07
:101AB00000223B607B60BB6000233A923B93012293
:101AC00000233AAC3C923D9321000132D648389431
:101AD0003992FFF799FBD54B98462300424643CAFB
:101AE00043C343CA43C303222100D14836943792EB
:101AF000FFF78AFB43462200183343CB43C243CB54
:101B000043C203222100CB4834943592FFF77CFB7B
:101B100043462200303343CB43C243CB43C203CBC3
:101B200003C204222100C44832943392FFF76CFBB5
:101B30000023FB633B647B64BB64FB643B654346FF
:101B40002200503343CB43C243CB43C203CB03C237
:101B500004222100B94830943192FFF755FB4646E4
:101B6000220070360BCE0BC20BCE0BC20ACE0AC2BD
:101B700004222100B2482E942F92FFF745FBB14E6C
:101B800038223100200010310EF0FEFC0722210027
:101B9000AD482C942D92FFF737FB310038224831A5
:101BA00020000EF0F1FC07222100A8482A942B9275
:101BB000FFF72AFBA64B98462300424643CA43C37D
:101BC00043CA43C303222100A24828942992FFF765
:101BD0001BFB43462200183343CB43C243CB43C2D3
:101BE00003CB03C2042221009B4826942792FFF7CF
:101BF0000BFB43462200383343CB43C243CB43C2A3
:101C000003CB03C204222100944824942592FFF7B9
:101C1000FBFA43462200583343CB43C243CB43C273
:101C200003CB03C2042221008D4822942392FFF7A4
:101C3000EBFA012300225B423A923B9321000132EE
:101C4000884820942192FFF7DFFA01230C225B429F
:101C50003A923B9321000B3A83481E941F92FFF760
:101C6000D3FA012365225B423A923B932100643A06
:101C70007E481C941D92FFF7C7FA012371225B4234
:101C80003A923B932100703A79481A941B92FFF7DD
:101C9000BBFA0023E422BB500432BB500432BB50D9
:101CA0000432BB500432BB5046460432BB502200C3
:101CB00078360BCE0BC20BCE0BC20ACE0AC2042260
:101CC00021006C4818941992FFF79EFA22006A4B83
:101CD0009846183343CB43C243CB43C203CB03C222
:101CE00004222100654816941792FFF78DFA4346A7
:101CF0002200383343CB43C243CB43C203CB03C29E
:101D0000042221005E4814941592FFF77DFA4346A1
:101D10002200583343CB43C243CB43C203CB03C25D
:101D200004222100574812941392FFF76DFA464699
:101D3000220078360BCE0BC20BCE0BC20ACE0AC2E3
:101D400004222100504810941192FFF75DFA2200FE
:101D50004E4B9846183343CB43C243CB43C243CB8D
:101D600043C21B6821001360052249480E940F925C
:101D7000FFF74AFA43462200403343CB43C243CBEA
:101D800043C243CB43C243CB43C206222100414856
:101D90000C940D92FFF738FA4646220070360BCEAF
:101DA0000BC20BCE0BC20ACE0AC2042221003A4853
:101DB0000A940B92FFF728FA2200384B984610330A
:101DC00043CB43C243CB43C203CB03C20422210013
:101DD000334808940992FFF717FA4346220030333C
:101DE00043CB43C243CB43C203CB03C204222100F3
:101DF0002C480694079257E08429002054210020A3
:101E000050210020E4210020FC2100204C21002052
:101E10004421002048210020582100205023002088
:101E20006021002098240020A424002060EF0110ED
:101E3000B0240020BC240020C8240020EC24002072
:101E4000F8240020E0EF01100425002010250020D8
:101E500060F001101C2500202825002034250020DA
:101E6000402500204C250020582500206425002016
:101E70007025002094250020E0F00110A02500200E
:101E8000AC250020B8250020C425002060F10110F9
:101E9000D0250020DC250020E8250020E0F10110FD
:101EA000F425002000260020FFF7AEF9434622006B
:101EB000503343CB43C243CB43C203222100984853
:101EC00004940592FFF7A0F94646220068360BCE2F
:101ED0000BC20BCE0BC20BCE0BC2336821001360BA
:101EE0000522904802940392FFF78EF922008E4B50
:101EF000103343CB43C243CB43C2032221008B4860
:101F000000940192FFF780F9CC2200235200BB50CD
:101F10000432BB500432BB5054E58548FEF732FB17
:101F200038E58448FEF768FB2DE583498348FFF7D1
:101F30009FF9A6E580498248FFF79AF99AE50023C0
:101F40007C4C20202360A360E36023616361A36174
:101F5000E361236263620833636013F0FDF80500F8
:101F600063682060581E400880002D18FC20400047
:101F700013F0F2F80300F933FF3328606561E06085
:101F800023616562E0612362A060A0616BE56D4D35
:101F900069492800FFF76CF96B496C48FFF768F94D
:101FA0006B496C48FFF764F96B496C48FFF760F9BF
:101FB0006B496C48FFF75CF96B496C48FFF758F9BF
:101FC0006B496C48FFF754F96B496C48FFF750F9BF
:101FD0006B496C48FFF74CF96B496C48FFF748F9BF
:101FE0006B496C48FFF744F96B496C48FFF740F9BF
:101FF0006B496C48FFF73CF96B496C48FFF738F9BF
:1020000015E521252224651B163C6C433C19BC4276
:1020100014D112F08FFA00240D231B1B18245C43EB
:102020002C19AC42F5D0183C2300206808339842A4
:10203000F7D0A368591C12F0D5F9F2E70C3C2068E0
:10204000A368191A0028E2D012F0CCF9DFE7E3E721
:102050000224E1E70324DFE70424DDE70524DBE7CE
:102060000624D9E70724D7E70824D5E70924D3E7CE
:102070000A24D1E70B24CFE70C24CDE70D24CBE7CE
:1020800012F046FB12F0CEFFBCE70325BAE70425A9
:10209000B8E70225B6E7050012F074FB280012F03D
:1020A00037FB63682068990012F09CF900232360D5
:1020B000636012F0B7FF0525A4E70925A2E70A250A
:1020C000A0E70B259EE70C259CE707259AE7082546
:1020D00098E7062596E712F055FB12F02BFA0D252E
:1020E00090E710258EE711258CE712258AE7132546
:1020F00088E7142586E7152584E7162582E7172546
:1021000080E718257EE719257CE71A257AE71B2545
:1021100078E71E2576E71F2574E7202572E7C0467D
:102120000C2600201826002060F201102426002032
:10213000E4210020BC210020A0FE0110A4210020E9
:102140008C2100200022002030EE011018220020F7
:10215000383102103022002034EE011048220020D5
:1021600038EE0110602200203CEE011078220020A1
:1021700040EE01109022002044EE0110A822002021
:1021800048EE0110C02200204CEE0110D8220020A1
:1021900050EE0110F022002054EE01100823002020
:1021A00058EE0110202300205CEE0110382300209F
:1021B00010B50120FFF7A0FB10BDC04610B504000C
:1021C000034B0833036003F075F9200010BDC046CF
:1021D000FCF5011010B50400054B0833036003F053
:1021E00069F92000042112F0FDF8200010BDC0465E
:1021F000FCF501100023F0B5036043608360154BCC
:1022000004000E0083B0D5009D4216D8002D0ED0DC
:10221000280012F0A1FF47192060A760002D0AD006
:102220002A0031000EF0B0F9676003B0F0BD00275E
:1022300005608560F8E70700F6E7074813F062FAE3
:102240002068A168091A002801D012F0CBF812F01A
:1022500071F9C046F8FFFF7F2CEF0110F0B50700C1
:10226000083704000E0083B00760002923D008005F
:102270001BF0F4FD050001900F280DD8012808D1AE
:10228000337823720021019B22686360D15403B02C
:10229000F0BD0028F6D008E00022200001A913F0CC
:1022A00029FC0700019B2060A3602A003100380050
:1022B0000EF06AF9E6E7014813F00CFA04EE01109B
:1022C000F0B5C646040000B5002825D01A4B1B4FB8
:1022D00098462600E068FFF7F3FFB569A468002D73
:1022E00014D06B68013B6B60002B0FD12B689B688F
:1022F000BB4214D1AB68013BAB60002B06D12B680D
:10230000DA6842450ED128005B6898471C213000EE
:1023100012F068F8002CDCD180BCB846F0BD280073
:102320009847E7E7280090471C21300012F05AF840
:10233000002CCED1F0E7C046C5110010C11100102D
:10234000F0B5DE4657464E464546E0B5834685B075
:10235000002800D199E05B46DB680193002B00D197
:1023600086E0019BDB689946002B72D04B46DB6808
:102370009A46002B60D05346DC68002C42D0E668B9
:10238000002E27D0F3689846002B2FD04346DD68F7
:10239000002D44D0EF68002F10D0F868FFF7D0FF71
:1023A0003B00DA69BF68100002930392FFF788FFD1
:1023B0002C21029812F016F8002FEED1AF68E869D0
:1023C000FFF77EFF2C21280012F00CF8002F26D0FA
:1023D0003D00DFE7A568E069FFF772FF2C212000D0
:1023E00012F000F8002D0DD02C00C8E7B568F06998
:1023F000FFF766FF2C21300011F0F4FF002DE9D02B
:102400002E00BFE753469C68D869FFF759FF2C217F
:10241000504611F0E7FF002C0ED0A246ABE7434632
:102420009D68D869FFF74CFF2C21404611F0DAFF78
:10243000002DDBD0A846A9E74B469C68D869FFF77A
:102440003FFF2C21484611F0CDFF002C01D0A146C2
:102450008CE7019DEB69AC6818000193FFF730FF32
:102460002C21280011F0BEFF002C01D0019478E748
:102470005B469C68D869FFF723FF2C21584611F072
:10248000B1FF002C01D0A34665E705B0F0BCBB4608
:10249000B246A946A046F0BD10B5040003F0B0F85E
:1024A000024B20000833236010BDC046FCF501102C
:1024B000F0B5DE4657464E4645468B460221E0B50E
:1024C0009846531E8246894687B0032B04D90139AA
:1024D000D31F89460D2B3DD853002A499B189B00DA
:1024E0005D180020CB5800210290039100216A68FA
:1024F0000491D41A9A4236D0234B9C4236D82000FD
:1025000012F02AFE0ACD0419029003900494994215
:1025100009D000225B1A84188D180832C0CDC0C4BF
:102520009A42F8D1801843460390009359464B468F
:10253000504602AA03F0CAF80298002803D0049972
:10254000091A11F04FFF07B0F0BCBB46B246A946CE
:10255000A046F0BD11000B2317398B429B4103218C
:1025600019408946B8E700240020CBE713F0A2F811
:1025700002980499091A002801D011F033FF11F0D4
:10258000D9FFC046D4270020F8FFFF7FF0B54F46A3
:102590004646D6460400C0B50D00180005219046F9
:1025A0001F000CF011FE089E8946002900DDA6E000
:1025B000B54B9A465B7B002B00D088E033000122AC
:1025C00029002000FFF774FF3300022229002000B9
:1025D000FFF76EFF3300032229002000FFF768FF9A
:1025E0004346002B48D00C2B46D0012B00D1DFE016
:1025F0000D2B00D1DCE0022B00D1E7E00E2B00D147
:10260000E4E0032B00D104E10F2B00D101E1042B06
:1026100000D105E1102B00D102E1052B00D106E12C
:10262000112B00D103E1062B00D107E1122B00D1C1
:1026300004E1072B00D108E1132B00D105E1082BA1
:1026400000D109E1142B00D106E1092B00D10AE1E8
:10265000152B00D107E10A2B00D10BE1162B00D17D
:1026600008E10B2B01D0172B0CD1330021222900BC
:102670002000FFF71DFF05E0330022222900200083
:10268000FFF716FF7B1F98461D2B5BD93B00233BB2
:10269000182B2DD93B00143B042B00D89DE03B00A8
:1026A000193B092B00D88AE03B00233B042B52D96D
:1026B000053B042B00D890E0053B042B00D898E0A4
:1026C000053B042B6DD9373F042F4AD843E0F3076D
:1026D00000D573E73300112229002000FFF7E8FE40
:1026E00053465B7B002B00D168E7F30711D565E704
:1026F0003300082229002000FFF7DAFECAE7330082
:10270000112229002000FFF7D3FE4B46012B00D1F8
:10271000B7E03300122229002000FFF7C9FE4B4624
:10272000022B23DD3300132229002000FFF7C0FE17
:102730004B46042B6AD13300142229002000FFF7F6
:10274000B7FE3BE73300072229002000FFF7B0FE69
:102750004346042B21D83300092229002000FFF72B
:10276000A7FEE0BCBA46B146A846F0BD464B9A4625
:102770005B7B002B00D121E7F30700D51EE7330078
:10278000132229002000FFF793FE53465B7B002BAA
:1027900000D113E7F307CED510E73B000A3B042B2B
:1027A00022D833000A2229002000FFF781FED8E753
:1027B0003300172229002000FFF77AFE62E733007A
:1027C0000F2229002000FFF773FECAE7330018220A
:1027D00029002000FFF76CFE54E733000C2229008B
:1027E0002000FFF765FEBCE73B000F3B042B00D940
:1027F00050E73300290020000E22FFF759FE330076
:10280000102229002000FFF753FEAAE71E4B9A462C
:10281000BBE73300192229002000FFF749FE31E70A
:1028200033001A2229002000FFF742FE2AE7330076
:102830001B2229002000FFF73BFE23E733001C2268
:1028400029002000FFF734FE1CE733001D22290079
:102850002000FFF72DFE15E733001E22290020007F
:10286000FFF726FE0EE733001F2229002000FFF7A6
:102870001FFE07E73300202229002000FFF718FE83
:1028800000E7014B9A462BE750230020F0B5C646DF
:1028900000B5C6B0012800D184E0334A1368013B7B
:1028A0001360002B14D1314C314D206800280BD01F
:1028B000A368191A11F096FD23000C3BA54207D01E
:1028C0001C0020680028F3D123000C3BA542F7D15F
:1028D000284A1368013B1360002B08D1264B274A76
:1028E0001868904203D09968013111F07BFD244AA9
:1028F0001368013B1360002B08D1224B224A186851
:10290000904203D09968013111F06CFD1F4A1368A1
:10291000013B1360002B00D1CEE21D4A1368013B3E
:102920001360002B00D1C3E21A4A1368013B136005
:10293000002B0DD1184C194D183C2300206808338A
:1029400098420DD0A368591C11F04CFDAC42F3D154
:10295000134B9868FFF7F4FC46B080BCB846F0BD56
:10296000AC42E9D1F4E7C046682100207829002074
:10297000D427002048210020A4210020AC210020E1
:10298000442100208C210020942100204C21002093
:10299000502100205421002050230020002200203C
:1029A0009C2900200022FA4B191D1A719A605A6165
:1029B000D9601961F74B1A68541C1C60012C00D1B6
:1029C000B0E2F54B1A68541C1C60012C0ED1F34D7B
:1029D0001022280000210C300DF0D0FDF04B6C606F
:1029E0002B600023AB60FE239B052B61ED4A13682F
:1029F00001331360012B00D16CE2EB4A1368013301
:102A00001360012B00D160E2E84A136801331360C0
:102A1000012B00D154E2E64A136801331360012B05
:102A200007D10022E34B1A605A6002329A601C32CE
:102A30009A81E14B1A68561C1E60012E00D08BE76C
:102A40000023DE4F38AC3B607B60BB60DC4B9846BC
:102A50002300424623CA23C323CA23C303CA03C392
:102A600004222100D74836943792FFF7C3FB434630
:102A70002200203323CB23C21B68210013600222D3
:102A8000D14834943592FFF7B5FB434622003033EA
:102A900023CB23C223CB23C203222100CB48329471
:102AA0003392FFF7A7FB00220723210038923993C6
:102AB000C748013230943192FFF79CFB002300227B
:102AC000FB633B647B64BB64FB643B6507232100C1
:102AD00038923993BF4801322E942F92FFF78AFB28
:102AE00043462200483323CB23C223CB23C203CB4C
:102AF00003C204222100B8482C942D92FFF77AFBE0
:102B00004546220068350BCD0BC20BCD0BC20BCD59
:102B10000BC20BCD0BC206222100B0482A942B9287
:102B2000FFF768FB2200AE4B9846183323CB23C235
:102B300023CB23C223CB23C21B68210013600522B1
:102B4000A84828942992FFF755FB00238422BB5004
:102B50000432BB500432BB5043462200403323CBE7
:102B600023C223CB23C223CB23C21B6821001360C3
:102B700005229D4826942792FFF73CFB00239C22C8
:102B8000BB500432BB500432BB5043462200683372
:102B900023CB23C21B682100136002229348249494
:102BA0002592FFF727FB4546220078350BCD0BC257
:102BB0000BCD0BC20BCD0BC22B682100136005227D
:102BC0008B4822942392FFF715FB2200894B9846ED
:102BD000203323CB23C223CB23C223CB23C223CB3B
:102BE00023C206222100844820942192FFF702FB91
:102BF000012300225B4238923993210001327F4841
:102C00001E941F92FFF7F6FA01230C225B423892C2
:102C1000399321000B3A7A481C941D92FFF7EAFA87
:102C2000012365225B42389239932100643A75484A
:102C30001A941B92FFF7DEFA012371225B4238924D
:102C400039932100703A704818941992FFF7D2FA1C
:102C50000023FC22BB500432BB500432BB50043270
:102C6000BB500432BB500432BB50434622005033A9
:102C700023CB23C223CB23C2032221006348169413
:102C80001792FFF7B7FA4546220068350BCD0BC205
:102C90000BCD0BC2032221005D4814941592FFF75F
:102CA000A9FA5C4B98462300424623CA23C323CA91
:102CB00023C303222100584812941392FFF79AFA73
:102CC00041463822183120000DF05EFC0722210019
:102CD000524810941192FFF78DFA45462200503564
:102CE0000BCD0BC20BCD0BC20BCD0BC20BCD0BC250
:102CF000062221004A480E940F92FFF77BFA494BB7
:102D000098462300424623CA23C323CA23C303226F
:102D1000210045480C940D92FFF76CFA43462200BF
:102D2000183323CB23C223CB23C223CB23C21B685C
:102D30002100136005223D480A940B92FFF75AFACE
:102D400043462200403323CB23C223CB23C203CBF1
:102D500003C204222100364808940992FFF74AFA78
:102D60004546220060350BCD0BC20BCD0BC20ACD00
:102D70000AC2042221002F4806940792FFF73AFA6C
:102D80002D4B98462300424623CA23C356E0C04633
:102D90009C2900205421002050210020E421002003
:102DA000FC2100204C21002044210020482100204B
:102DB000582100205023002068210020D427002023
:102DC000C8F20110E0270020EC270020F82700209F
:102DD0000428002028280020342800204028002033
:102DE00048F301104C280020642800207C28002093
:102DF00088280020C8F3011094280020A028002073
:102E0000AC280020B8280020C4280020E828002092
:102E1000F428002048F40110002900200C2900208B
:102E200018290020C8F4011024290020302900208E
:102E30003C2900204829002048F5011023CA23C35B
:102E400023CA23C3126821001A60052298480494FB
:102E50000592FFF7CFF943462200283323CB23C244
:102E600023CB23C223CB23C223CB23C206222100A0
:102E7000904802940392FFF7BDF945462200583569
:102E80000BCD0BC20BCD0BC20BCD0BC20BCD0BC2AE
:102E900006222100884800940192FFF7ABF9D22264
:102EA00000235200BB500432BB500432BB5053E5E8
:102EB0008248FDF767FB37E58148FDF79DFB2CE570
:102EC00080498148FFF7CAF9A5E57E497F48FFF7A9
:102ED000C5F999E500237A4C20202360A360E360C4
:102EE00023616361A361E36123626362083363600A
:102EF00012F032F9050063682060581E4008800017
:102F00002D18FC20400012F027F90300F933FF339D
:102F100028606561E06023616562E0612362A06012
:102F2000A0616AE56A4D67492800FFF797F969498A
:102F30006948FFF793F969496948FFF78FF96949CB
:102F40006948FFF78BF969496948FFF787F96949CB
:102F50006948FFF783F969496948FFF77FF96949CB
:102F60006948FFF77BF969496948FFF777F96949CB
:102F70006948FFF773F969496948FFF76FF96949CB
:102F80006948FFF76BF969496948FFF767F96949CB
:102F90006948FFF763F914E522262324A61B173C92
:102FA00074433C19BC4215D111F0C4FA00240D231E
:102FB0001B1B18245C432C19AC42F5D0183C230091
:102FC000206808339842F7D0A368591C11F00AFA18
:102FD000F2E7ECE70C3C2068A368191A0028E1D05E
:102FE00011F000FADEE70224E1E70324DFE704241E
:102FF000DDE70524DBE70624D9E70724D7E7082423
:10300000D5E70924D3E70A24D1E70B24CFE70C2422
:10301000CDE70D24CBE711F07BFB12F003F8BCE702
:10302000050011F0AFFB280011F072FB6368206807
:10303000990011F0D7F900232360636011F0F2FFCB
:103040000226AAE70326A8E711F09CFB11F072FA0A
:103050000426A2E70526A0E706269EE707269CE7AA
:1030600008269AE7092698E70A2696E70B2694E7AA
:103070000C2692E70F2690E710268EE711268CE7A4
:1030800012268AE7132688E7142686E7152684E7A2
:10309000172682E7192680E71A267EE71B267CE79B
:1030A0001C267AE71F2678E7202676E7212674E794
:1030B00054290020602900206C290020E4210020F0
:1030C000BC210020A0FE0110A42100208C210020A2
:1030D0000022002030EE01101822002038310210AA
:1030E0003022002034EE01104822002038EE01107A
:1030F000602200203CEE01107822002040EE0110FA
:103100009022002044EE0110A822002048EE011079
:10311000C02200204CEE0110D822002050EE0110F9
:10312000F022002054EE01100823002058EE011078
:10313000202300205CEE01103823002010B5012070
:10314000FFF7A4FB10BDC04610B50400034B0833C5
:10315000036002F0AFF9200010BDC04604F9011071
:1031600010B50400054B0833036002F0A3F92000FA
:10317000042111F037F9200010BDC04604F90110F8
:103180000023F0B5036043608360154B04000E001C
:1031900083B0D5009D4216D8002D0ED0280011F026
:1031A000DBFF47192060A760002D0AD02A003100FC
:1031B0000DF0EAF9676003B0F0BD00270560856097
:1031C000F8E70700F6E7074812F09CFA2068A168C4
:1031D000091A002801D011F005F911F0ABF9C04629
:1031E000F8FFFF7F2CEF0110F0B50700083704004F
:1031F0000E0083B00760002923D008001AF02EFECD
:10320000050001900F280DD8012808D133782372CA
:103210000021019B22686360D15403B0F0BD0028F7
:10322000F6D008E00022200001A912F063FC07009C
:10323000019B2060A3602A00310038000DF0A4F942
:10324000E6E7014812F046FA04EE0110F0B5C64672
:10325000040000B5002825D01A4B1B4F98462600C5
:10326000E068FFF7F3FFB569A468002D14D06B6820
:10327000013B6B60002B0FD12B689B68BB4214D1C4
:10328000AB68013BAB60002B06D12B68DA68424586
:103290000ED128005B6898471C21300011F0A2F87D
:1032A000002CDCD180BCB846F0BD28009847E7E789
:1032B000280090471C21300011F094F8002CCED14A
:1032C000F0E7C046C5110010C1110010F0B5DE4690
:1032D00057464E464546E0B5834685B0002800D1A6
:1032E00099E05B46DB680193002B00D186E0019BEF
:1032F000DB689946002B72D04B46DB689A46002B60
:1033000060D05346DC68002C42D0E668002E27D0FF
:10331000F3689846002B2FD04346DD68002D44D03B
:10332000EF68002F10D0F868FFF7D0FF3B00DA6994
:10333000BF68100002930392FFF788FF2C210298C8
:1033400011F050F8002FEED1AF68E869FFF77EFF6B
:103350002C21280011F046F8002F26D03D00DFE791
:10336000A568E069FFF772FF2C21200011F03AF800
:10337000002D0DD02C00C8E7B568F069FFF766FF97
:103380002C21300011F02EF8002DE9D02E00BFE7DF
:1033900053469C68D869FFF759FF2C21504611F01D
:1033A00021F8002C0ED0A246ABE743469D68D869B1
:1033B000FFF74CFF2C21404611F014F8002DDBD014
:1033C000A846A9E74B469C68D869FFF73FFF2C2128
:1033D000484611F007F8002C01D0A1468CE7019D6A
:1033E000EB69AC6818000193FFF730FF2C2128002F
:1033F00010F0F8FF002C01D0019478E75B469C6840
:10340000D869FFF723FF2C21584610F0EBFF002C62
:1034100001D0A34665E705B0F0BCBB46B246A9465D
:10342000A046F0BD10B5040002F0EAF8024B2000FF
:103430000833236010BDC04604F90110F0B5DE4624
:1034400057464E4645468B460221E0B59846531EE8
:103450008246894687B0022B04D90139931F8946D9
:103460000A2B3DD853002A499B189B005D18002069
:10347000CB5800210290039100216A680491D41A6C
:103480009A4236D0234B9C4236D8200011F064FE7D
:103490000ACD0419029003900494994209D00022A5
:1034A0005B1A84188D180832C0CDC0C49A42F8D176
:1034B000801843460390009359464B46504602AA53
:1034C00002F004F90298002803D00499091A10F0B8
:1034D00089FF07B0F0BCBB46B246A946A046F0BD86
:1034E00011000D2313398B429B410321194089465A
:1034F000B8E700240020CBE712F0DCF8029804992A
:10350000091A002801D010F06DFF11F013F8C04621
:103510003C260020F8FFFF7FF0B54F464646D646D2
:103520000400C0B50D0018000521170098460BF0E7
:103530004BFE089E8946002900DDE4E0C04B9A4618
:103540005B7B002B4BD13300012229002000FFF7C9
:1035500075FF3300022229002000FFF76FFF3300C0
:103560000C2F33DD202229002000FFF767FF4346A0
:10357000272B44DD781C18210BF026FE0F00002FAE
:1035800002D00C2F00D00AE133001E2229002000B7
:10359000FFF754FF43465F1F132F00D8A0E01E3BE8
:1035A000092B69D94346193B042B00D8CEE043468A
:1035B000283B132B00D8C9E04346042B62D83300C4
:1035C000032229002000FFF739FF5BE01F222900BA
:1035D0002000FFF733FF4346272BCBDCCFE7F30771
:1035E000B1D433000D2229002000FFF727FF5346F6
:1035F0005B7B002BA7D0F30700D48EE0A3E70D2F51
:1036000063D00E2F00D1D0E00F2F00D1FCE0042FAB
:1036100000D100E1102F00D1FDE0052F00D101E124
:10362000112F00D1FEE0062F00D102E1122F00D1B0
:10363000FFE0072F00D105E1132F00D102E1082F91
:1036400000D106E1142F00D103E1092F00D107E1D9
:10365000152F00D104E10A2F00D108E1162F00D167
:1036600005E10B2F01D0172F94D133001D22290023
:103670002000FFF7E3FE8DE733000C222900200035
:10368000FFF7DCFE4346143B042B00D8A1E0434681
:10369000193B042B00D88FE043461E3B042B00D877
:1036A00090E04346233B042B00D885E0053B042BE8
:1036B00000D88EE0053B042B00D896E0053B042B98
:1036C00066D9053B042B19D812E0330013222900D8
:1036D0002000FFF7B3FE43465F1F132F00D95EE7BC
:1036E00033000C2229002000FFF7A8FE042F4BD83E
:1036F0003300082229002000FFF7A0FEE0BCBA46F4
:10370000B146A846F0BD33000D2229002000FFF786
:1037100095FE4B46012B00D1B0E033000E2229006C
:103720002000FFF78BFE4B46022B16DD33000F22E5
:1037300029002000FFF782FE4B46042B5CD13300AA
:10374000102229002000FFF779FEFCE633000A2250
:1037500029002000FFF772FE94E7394B9A465B7B05
:10376000002B00D1EFE6F30700D5ECE633000F2283
:1037700029002000FFF762FE53465B7B002B00D13F
:10378000E1E6F307DBD5DEE643460A3B042B27D808
:103790003300092229002000FFF750FEAEE7012F79
:1037A00093D00D2F91D0022F29D13300142229005C
:1037B0002000FFF743FEEDE6330008222900200039
:1037C000FFF73CFE33000B2229002000FFF736FEF6
:1037D00094E73300072229002000FFF72FFE8DE732
:1037E00043460F3B042B00D94CE733000622290047
:1037F0002000FFF723FE81E7114B9A46BCE70E2F0E
:10380000D3D0032F00D0FFE633001522290020007B
:10381000FFF714FEBEE63300162229002000FFF752
:103820000DFEB7E63300172229002000FFF706FE41
:10383000B0E63300182229002000FFF7FFFDA9E6BB
:10384000502300203300192229002000FFF7F6FD45
:10385000A0E633001A2229002000FFF7EFFD99E6C9
:1038600033001B2229002000FFF7E8FD92E6330019
:103870001C2229002000FFF7E1FD8BE6014B9A4650
:10388000B5E6C04650230020F0B5C3B0012800D1F2
:1038900082E0324A1368013B1360002B14D1304C94
:1038A000304D206800280BD0A368191A10F09AFD3B
:1038B00023000C3BA54207D01C0020680028F3D150
:1038C00023000C3BA542F7D1274A1368013B136044
:1038D000002B08D1254B264A1868904203D09968DE
:1038E000013110F07FFD234A1368013B1360002B68
:1038F00008D1214B214A1868904203D099680131C0
:1039000010F070FD1E4A1368013B1360002B00D1BC
:10391000A8E21C4A1368013B1360002B00D19DE212
:10392000194A1368013B1360002B0DD1174C184D39
:10393000183C23002068083398420BD0A368591C18
:1039400010F050FDAC42F3D1124B9868FFF7BEFC6B
:1039500043B0F0BDAC42EBD1F6E7C0466421002095
:10396000C82700203C26002048210020A421002058
:10397000AC210020442100208C2100209421002033
:103980004C210020502100205421002050230020F1
:1039900000220020B42900200022FA4B191D1A71C0
:1039A0009A605A61D9601961F74B1A68541C1C60FF
:1039B000012C00D18CE2F54B1A68541C1C60012CC0
:1039C0000ED1F34D1022280000210C300CF0D6FD52
:1039D000F04B6C602B600023AB60FE239B052B61DA
:1039E000ED4A136801331360012B00D148E2EB4A22
:1039F000136801331360012B00D13CE2E84A1368DD
:103A000001331360012B00D130E2E64A1368013321
:103A10001360012B07D10022E34B1A605A60023277
:103A20009A601C329A81E14A136801331360012BBA
:103A300000D08DE70023DE4E002233607360B36058
:103A40000023349235930122002334AC369237930D
:103A500021000132D74832943392FFF791FBD64DC3
:103A600023002A0083CA83C3126821001A6002223D
:103A7000D24830943192FFF783FB2B0022001033A1
:103A800083CB83C283CB83C283CB83C283CB83C2EA
:103A900006222100CA482E942F92FFF771FB0023C3
:103AA000290038224031200033637363B363F3632A
:103AB000336473640CF068FD07222100C1482C9424
:103AC0002D92FFF75DFB220078350BCD0BC20BCD9D
:103AD0000BC20BCD0BC20BCD0BC206222100BA4884
:103AE0002A942B92FFF74CFBB84D22002B00283371
:103AF00083CB83C283CB83C203CB03C204222100C6
:103B0000B34828942992FFF73BFB2B00220048334F
:103B100083CB83C283CB83C203222100AD4826948A
:103B20002792FFF72DFB2B002200603383CB83C24B
:103B30001B68210013600222A74824942592FFF7F6
:103B40001FFB220070350BCD0BC20BCD0BC20ACD73
:103B50000AC204222100A14822942392FFF710FBFD
:103B60009F4D22002B00103383CB83C283CB83C2B3
:103B700003CB03C2042221009A4820942192FFF72C
:103B8000FFFA012300225B42349235932100013277
:103B900095481E941F92FFF7F3FA01230C225B4213
:103BA0003492359321000B3A90481C941D92FFF7F4
:103BB000E7FA012365225B42349235932100643A8F
:103BC0008B481A941B92FFF7DBFA012371225B42A8
:103BD000349235932100703A864818941992FFF771
:103BE000CFFA0023CC22B3500432B3500432B35086
:103BF0000432B3500432B3500432B3502B002200CD
:103C0000303383CB83C283CB83C2032221007A4823
:103C100016941792FFF7B4FA2B002200483383CB97
:103C200083C283CB83C2032221007448149415926B
:103C3000FFF7A6FA220060350BCD0BC20BCD0BC2ED
:103C40000BCD0BC22B682100136005226C48129427
:103C50001392FFF795FA6B4D22002B00083383CBAC
:103C600083C283CB83C203CB03C2042221006648F4
:103C700010941192FFF784FA2B002200283383CB93
:103C800083C283CB83C203CB03C2042221005F48DB
:103C90000E940F92FFF774FA2B002200483383CB67
:103CA00083C283CB83C20322210059480C940D9216
:103CB000FFF766FA220060350BCD0BC20BCD0BC2AD
:103CC0000BCD0BC22B6821001360052251480A94CA
:103CD0000B92FFF755FA504D22002B00083383CB8F
:103CE00083C283CB83C283CB83C21B682100136052
:103CF00005224A4808940992FFF742FA2B00220055
:103D0000303383CB83C283CB83C203CB03C2042271
:103D10002100434806940792FFF732FA2B00220055
:103D2000503383CB83C283CB83C2032221003D481F
:103D300004940592FFF724FA220068350BCD0BC2DC
:103D40000BCD0BC20BCD0BC20BCD0BC2062221003B
:103D5000354802940392FFF713FA2200334B1833CD
:103D600023CB23C223CB23C223CB23C223CB23C207
:103D7000062221002E4800940192FFF701FABA2290
:103D800058E0C046B42900205421002050210020D2
:103D9000E4210020FC2100204C21002044210020AF
:103DA00048210020582100205023002064210020B9
:103DB0003C2600204826002010F601105426002042
:103DC00060260020842600209026002090F6011016
:103DD0009C260020A8260020B4260020C026002013
:103DE00010F70110CC260020D8260020E426002061
:103DF000F0260020FC260020202700202C27002071
:103E00003827002090F70110442700205027002079
:103E10005C2700206827002010F80110742700207C
:103E2000802700208C2700209827002090F8011080
:103E3000A427002000235200B3500432B3500432B0
:103E4000B3500432B3500432B3500432B35004328E
:103E5000B3500432B3500432B35079E57E48FCF7D6
:103E600091FB5DE57D48FCF7C7FB52E57C497D4849
:103E7000FFF7BAF9C9E57A497B48FFF7B5F9BDE51F
:103E80000023764C20202360A360E36023616361FC
:103E9000A361E361236263620833636011F05CF93C
:103EA000050063682060581E400880002D18FC2023
:103EB000400011F051F90300F933FF3328606561C8
:103EC000E06023616562E0612362A060A0618EE52D
:103ED000664D63492800FFF787F965496548FFF794
:103EE00083F965496548FFF77FF965496548FFF73C
:103EF0007BF965496548FFF777F965496548FFF73C
:103F000073F965496548FFF76FF965496548FFF73B
:103F10006BF965496548FFF767F965496548FFF73B
:103F200063F965496548FFF75FF965496548FFF73B
:103F30005BF965496548FFF757F965496548FFF73B
:103F400053F938E520232124E31A153C5C43341946
:103F5000B44221D110F0EEFA00240D231B1B1824CB
:103F60005C432C19AC42F5D0183C23002068083380
:103F70009842F7D0A368591C10F034FAF2E70424F1
:103F8000EBE70224E9E70324E7E7E6E70624E4E7B2
:103F90000524E2E70724E0E70C3C2068A368191A2F
:103FA0000028D5D010F01EFAD2E70824D5E709245E
:103FB000D3E70A24D1E70B24CFE70C24CDE70D2467
:103FC000CBE710F0A5FB11F02DF80323BBE70500AC
:103FD00010F0D8FB280010F09BFB63682068990064
:103FE00010F000FA00232360636011F01BF8042333
:103FF000A9E70823A7E70923A5E70A23A3E70B23DB
:10400000A1E706239FE707239DE705239BE710F021
:10401000B9FB10F08FFA0C2395E70D2393E70E23DD
:1040200091E711238FE712238DE713238BE71423E6
:1040300089E7152387E7162385E7172383E71823E6
:1040400081E719237FE71A237DE71B237BE71E23E4
:1040500079E71F2377E7C046E4210020BC21002038
:10406000A0FE0110A42100208C21002000220020AD
:1040700030EE0110182200203831021030220020CA
:1040800034EE01104822002038EE0110602200209A
:104090003CEE01107822002040EE0110902200201A
:1040A00044EE0110A822002048EE0110C02200209A
:1040B0004CEE0110D822002050EE0110F02200201A
:1040C00054EE01100823002058EE01102023002098
:1040D0005CEE01103823002010B50120FFF7D4FB5F
:1040E00010BDC04610B50400034B0833036001F057
:1040F000E1F9200010BDC04644FB011010B50400DA
:10410000054B0833036001F0D5F92000042110F0BD
:1041100069F9200010BDC04644FB0110F0B507004E
:10412000083704000E0083B00760002923D0080080
:1041300019F094FE050001900F280DD8012808D130
:10414000337823720021019B22686360D15403B04D
:10415000F0BD0028F6D008E00022200001A911F0EF
:10416000C9FC0700019B2060A3602A0031003800D1
:104170000CF00AFAE6E7014811F0ACFA04EE01107F
:10418000F0B5C646040000B5002825D01A4B1B4FD9
:1041900098462600E068FFF7F3FFB569A468002D94
:1041A00014D06B68013B6B60002B0FD12B689B68B0
:1041B000BB4214D1AB68013BAB60002B06D12B682E
:1041C000DA6842450ED128005B6898471C21300010
:1041D00010F008F9002CDCD180BCB846F0BD2800F6
:1041E0009847E7E7280090471C21300010F0FAF8C4
:1041F000002CCED1F0E7C046C5110010C11100104F
:10420000F0B5DE4657464E464546E0B5834685B096
:10421000002800D199E05B46DB680193002B00D1B8
:1042200086E0019BDB689946002B72D04B46DB6829
:104230009A46002B60D05346DC68002C42D0E668DA
:10424000002E27D0F3689846002B2FD04346DD6818
:10425000002D44D0EF68002F10D0F868FFF7D0FF92
:104260003B00DA69BF68100002930392FFF788FFF2
:104270002C21029810F0B6F8002FEED1AF68E86953
:10428000FFF77EFF2C21280010F0ACF8002F26D07D
:104290003D00DFE7A568E069FFF772FF2C212000F1
:1042A00010F0A0F8002D0DD02C00C8E7B568F0691B
:1042B000FFF766FF2C21300010F094F8002DE9D0B4
:1042C0002E00BFE753469C68D869FFF759FF2C21A1
:1042D000504610F087F8002C0ED0A246ABE74346BC
:1042E0009D68D869FFF74CFF2C21404610F07AF802
:1042F000002DDBD0A846A9E74B469C68D869FFF79C
:104300003FFF2C21484610F06DF8002C01D0A1464B
:104310008CE7019DEB69AC6818000193FFF730FF53
:104320002C21280010F05EF8002C01D0019478E7D1
:104330005B469C68D869FFF723FF2C21584610F094
:1043400051F8002C01D0A34665E705B0F0BCBB4690
:10435000B246A946A046F0BD10B5040001F050F9E0
:10436000024B20000833236010BDC04644FB0110FF
:10437000F0B5DE4657464E4645468B460221E0B52F
:104380009846531E8246894687B0032B04D90139CB
:10439000D31F8946072B3DD853002A499B189B0001
:1043A0005D180020CB5800210290039100216A681B
:1043B0000491D41A9A4236D0234B9C4236D820001E
:1043C00010F0CAFE0ACD0419029003900494994299
:1043D00009D000225B1A84188D180832C0CDC0C4E1
:1043E0009A42F8D1801843460390009359464B46B1
:1043F000504602AA01F06AF90298002803D00499F5
:10440000091A0FF0EFFF07B0F0BCBB46B246A94651
:10441000A046F0BD1100072311398B429B410321B7
:1044200019408946B8E700240020CBE711F042F993
:1044300002980499091A002801D00FF0D3FF10F058
:1044400079F8C04660230020F8FFFF7F0023F0B515
:10445000036043608360154B04000E0083B0D500F9
:104460009D4217D8002D0FD0280010F075FE471977
:104470002060A760002D0BD02A0031000CF084F8DA
:104480002000676003B0F0BD002705608560F7E796
:104490000700F5E7064811F035F92068A168091A08
:1044A000002801D00FF09EFF10F044F8F8FFFF7FC6
:1044B0002CEF0110F0B5C64600B5B2B0012800D10E
:1044C00084E0334A1368013B1360002B14D1314C54
:1044D000314D206800280BD0A368191A0FF082FF15
:1044E00023000C3BAC4207D01C0020680028F3D10D
:1044F00023000C3BAC42F7D1284A1368013B136000
:10450000002B08D1264B274A1868904203D099689F
:1045100001310FF067FF244A1368013B1360002B41
:1045200008D1224B224A1868904203D09968013181
:104530000FF058FF1F4A1368013B1360002B00D196
:1045400001E21D4A1368013B1360002B00D1F6E124
:104550001A4A1368013B1360002B0DD1184C194DFA
:10456000183C23002068083398420DD0A368591CDA
:104570000FF038FFAC42F3D1134B9868FFF740FEC1
:1045800032B080BCB846F0BDAC42E9D1F4E7C046D9
:104590005C2100208C240020602300204821002082
:1045A000A4210020AC210020442100208C210020E7
:1045B000942100204C210020502100205421002073
:1045C0005023002000220020CC2900200022E54BAF
:1045D000191D1A719A605A61D9601961E24B1A6803
:1045E000541C1C60012C00D134E2E04B1A68541CAE
:1045F0001C60012C0ED1DE4D1022280000210C3051
:104600000BF0BCFFDB4B6C602B600023AB60FE2328
:104610009B052B61D84A136801331360012B00D12D
:10462000F0E1D64A136801331360012B00D193E106
:10463000D34A136801331360012B00D187E1D14ABB
:10464000136801331360012B07D10022CE4B1A608F
:104650005A6002329A601C329A81CC4B1A68551CFF
:104660001D60012D00D08BE70023C94F00223B6065
:104670007B60BB6001232AAC5B422A922B93210012
:104680002A00C44826AB28942995FFF7DFFE0123B2
:104690000C225B422A922B9321000B3ABE4824AB9A
:1046A00026942792FFF7D2FE012365225B422A92CD
:1046B0002B932100643AB94822AB24942592FFF74A
:1046C000C5FE012371225B422A922B932100703A8E
:1046D000B34820AB22942392FFF7B8FE0023FB637C
:1046E0003B647B64BB64FB643B65AE4B9846230034
:1046F000424643CA43C343CA43C303CA03C3042253
:104700002100A9481EAB20942192FFF79FFE43464B
:104710002200203343CB43C243CB43C203CB03C26B
:1047200004222100A1481CAB1E941F92FFF78EFEAD
:1047300043462200403343CB43C243CB43C203CB67
:1047400003C2042221009A481AAB1C941D92FFF761
:104750007DFE4646220060360BCE0BC20BCE0BC24E
:104760000ACE0AC204222100924818AB1A941B9266
:10477000FFF76CFE904B98462300424643CA43C362
:1047800043CA43C303CA03C3042221008B4816ABA8
:1047900018941992FFF75AFE43462200203343CB68
:1047A00043C243CB43C203CB03C20422210084484B
:1047B00014AB16941792FFF749FE4346220040338C
:1047C00043CB43C243CB43C203CB03C204222100E9
:1047D0007C4812AB14941592FFF738FE464622002F
:1047E00060360BCE0BC20BCE0BC20ACE0AC204221D
:1047F0002100754810AB12941392FFF727FE002397
:10480000B422BB500432BB500432BB500432BB5004
:104810000432BB500432BB506C4B984623004246D6
:1048200043CA43C343CA43C303CA03C30422210088
:1048300067480EAB10941192FFF708FE4346220022
:10484000203343CB43C243CB43C203CB03C2042236
:10485000210060480CAB0E940F92FFF7F7FD434622
:104860002200403343CB43C243CB43C203CB03C2FA
:104870000422210058480AAB0C940D92FFF7E6FD84
:104880004646220060360BCE0BC20BCE0BC20ACEC0
:104890000AC204222100514808AB0A940B92FFF788
:1048A000D5FD4F4B98462300424643CA43C343CAF3
:1048B00043C303CA03C3042221004A4806AB089439
:1048C0000992FFF7C3FD43462200203343CB43C286
:1048D00043CB43C203CB03C204222100424804ABB2
:1048E00006940792FFF7B2FD43462200403343CBC4
:1048F00043C243CB43C203CB03C2042221003B4843
:1049000002AB04940592FFF7A1FD464622006036F3
:104910000BCE0BC20BCE0BC20ACE0AC20422210060
:10492000334801AB02940392FFF790FD96220023D7
:104930005200BB500432BB500432BB5020E60C483E
:10494000FBF720FE04E62B48FBF756FEF9E52A4963
:104950002A48FFF7E3FB72E627492948FFF7DEFB09
:1049600066E6C046CC2900205421002050210020BA
:10497000E4210020FC2100204C21002044210020C3
:104980004821002058210020502300205C210020D5
:10499000602300206C230020782300208423002043
:1049A0009023002018F90110B4230020C023002018
:1049B000CC230020D823002098F90110E423002004
:1049C000F0230020FC2300200824002018FA011006
:1049D0002C240020382400204424002050240020CF
:1049E00098FA01105C240020682400207424002020
:1049F00080240020BC210020A0FE0110A421002062
:104A00008C21002000236E4C20202360A360E360F3
:104A100023616361A361E3612362636208336360BE
:104A200010F09AFB050063682060581E4008800063
:104A30002D18FC20400010F08FFB0300F933FF33EA
:104A400028606561E06023616562E0612362A060C7
:104A5000A061E6E55B4D5C492800FFF75FFB5B4921
:104A60005B48FFF75BFB5B495B48FFF757FB5B4924
:104A70005B48FFF753FB5B495B48FFF74FFB5B4924
:104A80005B48FFF74BFB5B495B48FFF747FB5B4924
:104A90005B48FFF743FB5B495B48FFF73FFB5B4924
:104AA0005B48FFF73BFB5B495B48FFF737FB5B4924
:104AB0005B48FFF733FB5B495B48FFF72FFB5B4924
:104AC0005B48FFF72BFB90E518251924651B0D3C6F
:104AD0006C433C19BC4215D10FF02CFD00240D2372
:104AE0001B1B18245C432C19AC42F5D0183C230046
:104AF000206808339842F7D0A368591C0FF072FC65
:104B0000F2E7ECE70C3C2068A368191A0028E1D012
:104B10000FF068FCDEE70224E1E70324DFE704246A
:104B2000DDE70524DBE70624D9E70724D7E70824D7
:104B3000D5E70924D3E70A24D1E70B24CFE70C24D7
:104B4000CDE70D24CBE70FF0E3FD10F06BFABCE7E7
:104B500005000FF017FE28000FF0DAFD63682068EB
:104B600099000FF03FFC00232360636010F05AFAB5
:104B70000225AAE70325A8E70FF004FE0FF0DAFCF0
:104B80000425A2E70525A0E706259EE707259CE763
:104B900008259AE70B2598E70C2596E70D2594E75D
:104BA0000E2592E70F2590E710258EE711258CE75B
:104BB00012258AE7152588E7162586E7172584E755
:104BC000BC21002000220020A0FE011030EE0110C8
:104BD00018220020383102103022002034EE01105B
:104BE0004822002038EE0110602200203CEE011027
:104BF0007822002040EE01109022002044EE0110A7
:104C0000A822002048EE0110C02200204CEE011026
:104C1000D822002050EE0110F022002054EE0110A6
:104C20000823002058EE0110202300205CEE011024
:104C30003823002070B50400006800280CD02369D8
:104C4000191A0FF0CFFB002223002100A260E260BE
:104C5000083321CB21C1226170BDC046F0B5C646E4
:104C600000B594B01A9E04000D00170098460A2E55
:104C700000DD7FE00A2140460AF0A6FA684602F00D
:104C800007FC642140460AF09FFA08000A210AF056
:104C90009BFA010005A802F0FBFB0A2138000AF08C
:104CA00093FA0AA802F0F4FB642138000AF08CFAA7
:104CB00008000A210AF088FA01000FA802F0E8FBB8
:104CC000009B1B68DA0700D5ECE09A0700D5E0E00E
:104CD0005A0700D5D4E01B0700D5CAE0059B1B6826
:104CE000DA0700D5BCE09A0700D5B0E05A0700D536
:104CF000A4E01B0700D59AE00A9B1B68DA0700D5E1
:104D00008CE09A0700D580E05A0700D574E01B07B5
:104D10006BD40F980368DA075ED49A0753D45A0706
:104D200048D41B0721D53300182229002000FFF7A3
:104D30001FFB0F98002818D10A98002803D00E995D
:104D4000091A0FF04FFB0598002803D00999091A9A
:104D50000FF048FB0098002803D00499091A0FF0BF
:104D600041FB14B080BCB846F0BD1399091A0FF08E
:104D700039FBE1E733000122FFF7FAFA192E00DCD4
:104D800078E73300022229002000FFF7F1FA282EED
:104D900000DC6FE73300032229002000FFF7E8FA68
:104DA000372E00DC66E73300042229002000FFF7DD
:104DB000DFFA5FE73300172229002000FFF7D8FA57
:104DC0000F980368ADE73300162229002000FFF793
:104DD000CFFA0F980368A2E73300152229002000BC
:104DE000FFF7C6FA0F98036897E7330014222900EB
:104DF0002000FFF7BDFA8CE73300132229002000C2
:104E0000FFF7B6FA0A9B1B6881E7330012222900DC
:104E10002000FFF7ADFA0A9B1B6875E733001122EB
:104E200029002000FFF7A4FA0A9B1B6869E73300FA
:104E30000E2229002000FFF79BFA5DE733000D22C8
:104E400029002000FFF794FA059B1B6851E7330007
:104E50000C2229002000FFF78BFA059B1B6845E711
:104E600033000B2229002000FFF782FA059B1B6804
:104E700039E733000A2229002000FFF779FA2DE7ED
:104E80003300092229002000FFF772FA009B1B68FB
:104E900021E73300082229002000FFF769FA009B70
:104EA0001B6815E73300072229002000FFF760FA8E
:104EB000009B1B6809E70FA8FFF7BCFE0AA8FFF7D5
:104EC000B9FE05A8FFF7B6FE6846FFF7B3FE0FF080
:104ED00031FBF3E7F5E7F7E710B50120FFF7EAFA52
:104EE00010BDC04610B50400034B0833036000F04A
:104EF000E1FA200010BDC04680FB011010B504008F
:104F0000054B0833036000F0D5FA200004210FF0B0
:104F100069FA200010BDC04680FB0110F0B5070003
:104F2000083704000E0083B00760002923D0080072
:104F300018F094FF050001900F280DD8012808D122
:104F4000337823720021019B22686360D15403B03F
:104F5000F0BD0028F6D008E00022200001A910F0E2
:104F6000C9FD0700019B2060A3602A0031003800C2
:104F70000BF00AFBE6E7014810F0ACFB04EE011071
:104F8000F0B5DE464E4657464546E0B58BB0039336
:104F9000149B8346894602920A2B00DD7DE0029B2A
:104FA000002B35D0002300269A469846002706ACF1
:104FB00004AD534608202E606B6027606760A760D1
:104FC00010F0CAF8030008339C462A00A360206052
:104FD0000ACA0AC063466360149B220000934946D4
:104FE0000023584600F072FB2068002803D0A36815
:104FF000191A0FF0F7F901360A2E03DD01239C463A
:105000000026E24401239C46029BE0449845D0D10F
:10501000039B002B3AD00023002798460933002633
:105020009A4606AC04AD0297424653469B1A6B6003
:105030000022002306920793002308202E60A3601D
:1050400010F08AF803002A000833A360206082CAA7
:1050500082C06360149B2200009349460123584696
:1050600000F034FB2068002803D0A368191A0FF061
:10507000B9F901360A2E03DD01239C460026E044DF
:10508000029A039B013202929A42CDD10BB0F0BC3E
:10509000BB46B246A946A046F0BD012300225B42B2
:1050A0000492059300230022069207930023082010
:1050B00006ACA36010F050F8030004AD2A000833DA
:1050C0000690A36042CA42C06360149B49460093A5
:1050D0005846022300F0FAFA0698002803D0A36885
:1050E000191A0FF07FF9149B192B00DC57E70123E5
:1050F0000C225B4204920593002300220692079340
:1051000000230820A36010F027F803002A000833CA
:105110000690A36042CA42C06360149B22000093C1
:1051200049460223584600F0D1FA0698002803D0D9
:10513000A368191A0FF056F9149B282B00DC2EE7F0
:10514000012365225B42049205930023002206920C
:10515000079300230820A3600FF0FEFF03002A003E
:1051600008330690A36042CA42C06360149B2200C9
:10517000009349460223584600F0A8FA06980028F2
:1051800003D0A368191A0FF02DF9149B372B00DCFC
:1051900005E7012371225B4204920593002300225C
:1051A0000692079300230820A3600FF0D5FF0300A9
:1051B00008330690A36006CD06C06360149B2200EE
:1051C000009349460223584600F080FA06980028CA
:1051D00000D1E4E6A168091A0FF004F9DFE60698A9
:1051E000A168091A002801D00FF0FCF80FF0A2F90D
:1051F000F5E7F4E7F3E7F2E7F1E7F0E7EFE7EEE7EB
:10520000EDE7ECE7EBE7C04610B5040000F0F8F975
:10521000024B20000833236010BDC04680FB011004
:1052200000227B4B70B5191D1A719A605A61D960C2
:105230001961784B1A68541C1C60012C67D0764B9E
:105240001A68541C1C60012C0ED1744D10222800C9
:1052500000210C300BF092F9714B6C602B60002335
:10526000AB60FE239B052B616E4A1368013313600C
:10527000012B24D06C4A136801331360012B19D021
:105280006A4A136801331360012B0ED0684A136811
:1052900001331360012B07D10022664B1A605A605C
:1052A00002329A601C329A8170BD63496348FFF7ED
:1052B00035FEEBE760496248FFF730FEE0E7002388
:1052C000604C20202360A360E36023616361A361DD
:1052D000E36123626362083363600FF03DFF050002
:1052E00063682060581E400880002D18FC20400094
:1052F0000FF032FF0300F933FF3328606561E0608F
:1053000023616562E0612362A060A061B2E74E4D57
:1053100049492800FFF702FE4C494D48FFF7FEFDC2
:105320004C494D48FFF7FAFD4C494D48FFF7F6FD53
:105330004C494D48FFF7F2FD4C494D48FFF7EEFD53
:105340004C494D48FFF7EAFD4C494D48FFF7E6FD53
:105350004C494D48FFF7E2FD4C494D48FFF7DEFD53
:105360004C494D48FFF7DAFD4C494D48FFF7D6FD53
:105370004C494D48FFF7D2FD4C494D48FFF7CEFD53
:105380005DE70FF0C5F90FF04DFE0D240D231B1B3B
:1053900018245C432C19AC421FD10FF0CBF80C241D
:1053A000F4E705000FF0EEF928000FF0B1F963689B
:1053B000206899000FF016F80023236063600FF057
:1053C00031FE0FF0DFF90FF0B5F80B24DEE70A2409
:1053D000DCE70924DAE70824D8E7183C2300206832
:1053E00008339842D7D0A368591C0EF0FBFFD2E7D0
:1053F0000724CBE70624C9E70524C7E70424C5E74B
:105400000324C3E70224C1E7C0E70024BEE7C04687
:10541000E42900205421002050210020E421002014
:10542000FC2100204C2100204421002048210020A4
:105430005821002050230020A0FE0110A4210020AC
:105440008C210020BC2100200022002030EE011021
:1054500018220020383102103022002034EE0110D2
:105460004822002038EE0110602200203CEE01109E
:105470007822002040EE01109022002044EE01101E
:10548000A822002048EE0110C02200204CEE01109E
:10549000D822002050EE0110F022002054EE01101E
:1054A0000823002058EE0110202300205CEE01109C
:1054B000382300207047C04610B5040004210EF0C8
:1054C00091FF200010BDC04610B52B2182B0040012
:1054D00009F0A2FEC2B28006801A80008018800007
:1054E0008018800080180019FF244300C3185B0057
:1054F000DBB21902C91A0912611A0802E31A401A2A
:105500001902CB1A1B12E31A1902CB1A00121B1232
:10551000C0B2DBB2042A36D81E4992008A58974698
:105520000023FF2101AA137050709170D37053783B
:10553000107891781B021843D37809041B0608439E
:10554000184302B010BD01AAFF211370002391700F
:105550005370D370EBE701AAFF2153700023117041
:105560009370D370E3E7FF2301AA537000231070F8
:105570009370D370DBE70021FF2001AA11705070F7
:105580009370D170D3E7002301AA14705370907008
:10559000D370CCE794FB0110F0B507000837040086
:1055A0000E0083B00760002924D0080018F056FCD4
:1055B000050001900F280ED8012809D133782372F5
:1055C00000222000019B21686360CA5403B0F0BD33
:1055D0000028F5D008E00022200001A910F08AFA86
:1055E0000700019B2060A3602A00310038000AF008
:1055F000CBFFE5E7014810F06DF8C04604EE01105E
:10560000014B08330360704790FC011070B5050032
:1056100082B008000C000EF0CBFC00222B68009238
:10562000210028001E680023B04720000EF0D2FCA5
:1056300002B070BD10B50C6888B00A2C1ADC4A683C
:10564000092A17DC93009B1858008018D3070FD540
:10565000001B0A30C343DB0F0A2800DD0133622838
:1056600000DD01336D2800DD0133C01808B010BD26
:105670000019EFE71C23002201A904AC02A8019342
:10568000029410F037FA019B1C220F4904930290F8
:105690000AF07AFF0022019B0299039302A8CA54E0
:1056A00002F092FE0298A04203D0049901310EF05C
:1056B00099FE0020DAE70298A04203D00499013154
:1056C0000EF090FE0EF036FFA8FB0110F0B5DE469E
:1056D0004E4645465746E0B58BB00E0093461D003A
:1056E0000590032B46D03C21149809F06DFD994B91
:1056F00089009B68002B34D1AB00ED1828012D18D0
:105700006D18EDB22B21280009F086FDC3B29A4630
:10571000FF218006C01A8000504480005044800061
:10572000504440194300C3185B00DBB21A02D21A7E
:1057300012128A1A1002821A1212CB1AD2B2140052
:105740001A02D31A1B12CB1A1A02D31A1B12DBB27B
:1057500019005346042B00D9EDE07F4A9B00D35833
:105760009F46012B00D1D7E0022B00D1B1E0032BE3
:1057700000D1E6E0802318009A4619001C005B4621
:105780005A461B685268934200D19BE00022019266
:1057900052465F468946A0468246B346049233E0AD
:1057A0006C4A1278002A03D00922D31A0132101A47
:1057B000089008A905980993FFF73CFF041E2ED016
:1057C0000C2C2CD0652C2AD0712C28D041464B466D
:1057D000624A1B020A401A436149049B0A401B04A7
:1057E0001A43534612021B06120A1A432100584656
:1057F00006920EF015FB01993B687A680131D21AC6
:105800000191D2108A425DD9019AD2009B1809CB2E
:105810005A1CC5D1722109F0D7FC0C1ED0D14D4BBA
:10582000187B09F0D5FF00224E4B09F042FF05001E
:105830000E0002000B0000204B4909F030FF00224F
:10584000002309F050FF02900391404609F0BCFF8D
:105850002A00330009F047FF029A039B09F024FF56
:1058600009F0F2FFC3B24846984609F0ADFF2A009E
:10587000330009F038FF029A039B09F015FF09F085
:10588000E3FFC3B20498994609F09EFF2A00330053
:1058900009F029FF029A039B09F006FF09F0D4FFE3
:1058A000C3B25046049309F08FFF2A00330009F079
:1058B0001AFF029A039B09F0F7FE09F0C5FFC3B275
:1058C0009A4683E70BB0F0BCBB46B246A946A04659
:1058D000F0BDFA2318009A46190005331C004EE764
:1058E00000239A46FF3319000023180047E7FF23DF
:1058F0001C00F9E7FF239A46002321001C00F3E770
:10590000FF238A46190000231C00EDE7FF239A4677
:1059100000230C001900E7E7C8B2FFF7D5FD030C20
:10592000020ADBB2C1B29A46D2B2030E0C00079053
:105930001100180023E700231900FF33A2461C00C2
:10594000D2E7332318009A464033190045331C0030
:1059500015E7C04650230020C8FB0110FF00FFFFE1
:10596000FFFF00FF000059400000F03FF0B5574630
:10597000DE464E464546EE4BE0B5994693B00AAC3E
:1059800023004A460E00050083CA83C383CA83C32B
:1059900003CA03C320200FF0DFFB20222100824630
:1059A0000AF0F2FD002300220A920B93002320202C
:1059B000A3600FF0D1FB2023984680444346202269
:1059C00051460A90A3600AF0DFFD434663601C9BCA
:1059D00022000093310000232800FFF777FE0A9889
:1059E000002803D0A368191A0EF0FCFC4F462200D1
:1059F00020370BCF0BC20BCF0BC220200ACF0AC21D
:105A00000FF0AAFB2022210083460AF0BDFD0023EF
:105A100000220A920B9300232020A3600FF09CFB2E
:105A200007002037202259460A90A7600AF0ACFDF3
:105A30001C9B676022000093310001232800FFF7C0
:105A400045FE0A98002803D0A368191A0EF0CAFC74
:105A50000122012308200A920B930FF07DFB030023
:105A60002200039003CA03C3002300220A920B936F
:105A700000230820A3600FF06FFB0300039A083394
:105A80000A90A36082CA82C063601C9B22000093BC
:105A9000310001232800FFF719FE0A98002803D0DF
:105AA000A368191A0EF09EFC0122022308200A9214
:105AB0000B930FF051FB03002200049003CA03C3B1
:105AC000002300220A920B9300230820A3600FF00A
:105AD00043FB0300049A08330A90A36082CA82C081
