:020000041000EA
:1000000000B50C4B00219960042159610A4919601F
:100010000A490B480160002159600121996001BC27
:10002000002800D0004707480749086003C880F34C
:10003000088808470000001800031F00180200038A
:10004000F40000180001001008ED00E000000000BE
:1000500000000000000000000000000000000000A0
:100060000000000000000000000000000000000090
:100070000000000000000000000000000000000080
:100080000000000000000000000000000000000070
:100090000000000000000000000000000000000060
:1000A0000000000000000000000000000000000050
:1000B0000000000000000000000000000000000040
:1000C0000000000000000000000000000000000030
:1000D0000000000000000000000000000000000020
:1000E0000000000000000000000000000000000010
:1000F0000000000000000000000000002CEC210DBA
:1001000000200420F7010010C3010010C5010010F9
:10011000C1010010C1010010C1010010C101001097
:10012000C1010010C1010010C1010010C701001081
:10013000C1010010C1010010C9010010CB01001065
:10014000CD010010CD010010CD010010CD01001037
:10015000CD010010CD010010CD010010CD01001027
:10016000CD010010CD010010CD010010CD01001017
:10017000CD010010CD010010CD010010CD01001007
:10018000CD010010CD010010CD010010CD010010F7
:10019000CD010010CD010010CD010010CD010010E7
:1001A000CD010010CD010010CD010010CD010010D7
:1001B000CD010010CD010010CD010010CD010010C7
:1001C00000BE00BE00BE00BE00BE00BE00F04BF888
:1001D000103800BEF2EB8871CCF70110F0F7011077
:1001E0003402001090A31AE700202149086006C8D5
:1001F00081F3088810471F48006800282FD10DA4FC
:100200000ECC002902D000F012F8F9E71A491B4A77
:10021000002000E001C19142FCD1194988471949E9
:1002200088471949884700BEFDE701C901C29A42C3
:10023000FBD37047F0F70110C0000020DC1D002048
:100240000C15021000000420000004200C15021000
:1002500000100420001004200000000070470B482C
:100260000AF00AFF0047EFF30580C0B270470000B4
:1002700008ED00E0000000D0E01D0020B8330020B1
:10028000C59400102D720010ED9500105756000017
:1002900006005250ABB3605358BB011006005250D9
:1002A000861C030274BB0110060052505422A29D0A
:1002B00080BB011005005250DE65F4680C15021079
:1002C000F8B5C04610B5064C2378002B07D1054B76
:1002D000002B02D0044800E000BF0123237010BDB2
:1002E000E81F00200000000028A20110044B10B5F8
:1002F000002B03D00349044800E000BF10BDC046F6
:1003000000000000EC1F002028A201107047C0462A
:1003100010B503685B68984710BDC04610B504006F
:10032000034B0833036007F0FFF9200010BDC046FF
:10033000FCA5011010B50400054B0833036007F05D
:10034000F3F9200004210FF0BDFA200010BDC046D3
:10035000FCA501100023F0B5036043608360154BDA
:1003600004000E0083B0D5009D4216D8002D0ED09B
:10037000280010F061F947192060A760002D0AD00D
:100380002A0031000BF078FB676003B0F0BD002756
:1003900005608560F8E70700F6E7074810F022FCE3
:1003A0002068A168091A002801D00FF08BFA0FF01D
:1003B00031FBC046F8FFFF7F28A20110F0B5C6460A
:1003C000040000B5002825D01A4B1B4F9846260084
:1003D000E068FFF7F3FFB569A468002D14D06B68DF
:1003E000013B6B60002B0FD12B689B68BB4214D183
:1003F000AB68013BAB60002B06D12B68DA68424545
:100400000ED128005B6898471C2130000FF05AFA83
:10041000002CDCD180BCB846F0BD28009847E7E747
:10042000280090471C2130000FF04CFA002CCED150
:10043000F0E7C046110300100D030010F0B5DE46D2
:1004400057464E464546E0B5834685B0002800D164
:1004500099E05B46DB680193002B00D186E0019BAD
:10046000DB689946002B72D04B46DB689A46002B1E
:1004700060D05346DC68002C42D0E668002E27D0BE
:10048000F3689846002B2FD04346DD68002D44D0FA
:10049000EF68002F10D0F868FFF7D0FF3B00DA6953
:1004A000BF68100002930392FFF788FF2C21029887
:1004B0000FF008FA002FEED1AF68E869FFF77EFF72
:1004C0002C2128000FF0FEF9002F26D03D00DFE799
:1004D000A568E069FFF772FF2C2120000FF0F2F908
:1004E000002D0DD02C00C8E7B568F069FFF766FF56
:1004F0002C2130000FF0E6F9002DE9D02E00BFE7E7
:1005000053469C68D869FFF759FF2C2150460FF0DD
:10051000D9F9002C0ED0A246ABE743469D68D869B6
:10052000FFF74CFF2C2140460FF0CCF9002DDBD01B
:10053000A846A9E74B469C68D869FFF73FFF2C21E6
:1005400048460FF0BFF9002C01D0A1468CE7019D71
:10055000EB69AC6818000193FFF730FF2C212800ED
:100560000FF0B0F9002C01D0019478E75B469C684D
:10057000D869FFF723FF2C2158460FF0A3F9002C70
:1005800001D0A34665E705B0F0BCBB46B246A9461C
:10059000A046F0BD10B5040007F0D0F8024B2000D3
:1005A0000833236010BDC046FCA50110F0B5DE463F
:1005B00057464E4645468B460221E0B59846531EA7
:1005C0008246894687B0032B04D90139D31F894657
:1005D0000B2B3DD853002A499B189B005D18002027
:1005E000CB5800210290039100216A680491D41A2B
:1005F0009A4236D0234B9C4236D8200010F01CF88B
:100600000ACD0419029003900494994209D0002263
:100610005B1A84188D180832C0CDC0C49A42F8D134
:10062000801843460390009359464B46504602AA11
:1006300007F050F90298002803D00499091A0FF026
:1006400041F907B0F0BCBB46B246A946A046F0BD92
:1006500011000C2315398B429B4103211940894617
:10066000B8E700240020CBE710F094FA0298049930
:10067000091A002801D00FF025F90FF0CBF9C04678
:10068000BC220020F8FFFF7FF8B5CE46474680B574
:100690001F00089B04000D00380005211600984635
:1006A0000AF01CFD8946002900DDC3E04346012213
:1006B00029002000FFF77AFF43460222290020008C
:1006C000FFF774FF182F04DD701C18210AF006FDD7
:1006D0000E00002E48D00C2E46D0012E00D18CE00A
:1006E0000D2E00D189E0022E00D1FFE00E2E00D1A8
:1006F000FCE0032E00D107E10F2E00D104E1042E0F
:1007000000D1FAE0102E00D1F7E0052E00D109E16A
:10071000112E00D106E1062E00D10AE1122E00D1E1
:1007200007E1072E00D10BE1132E00D108E1082EBE
:1007300000D10CE1142E00D109E1092E00D10DE108
:10074000152E00D10AE10A2E00D10EE1162E00D19D
:100750000BE10B2E01D0172E0CD143461F2229008E
:100760002000FFF723FF05E0434620222900200058
:10077000FFF71CFF7E1F132E00D880E03B00233BB9
:10078000042B10D93B00193B042B42D93B00283BDA
:10079000132B3ED9042F42D84346032229002000C0
:1007A000FFF704FF05E043460C2229002000FFF775
:1007B000FDFE3B00143B042B00D890E03B00193BAE
:1007C000042B00D87EE03B001E3B042B00D87FE0CA
:1007D0003B00233B042B00D874E0053B042B00D8DE
:1007E0007DE0053B042B00D895E03B00323B042B19
:1007F0005BD9373F042F50D849E04346042F5BD8DC
:10080000212229002000FFF7D1FE3B00193B042BD9
:10081000BCD843460B2229002000FFF7C7FE3B004F
:100820000F3B042BC5D843460A2229002000FFF7BE
:10083000BDFE32E043460F2229002000FFF7B6FE3E
:100840004B46012B00D131E74346102229002000FE
:10085000FFF7ACFE4B46022B00D127E7434611229F
:1008600029002000FFF7A2FE4B46042B00D01DE715
:100870004346122229002000FFF798FE16E7434660
:100880000C2229002000FFF791FE042E09D84346D0
:10089000072229002000FFF789FEC0BCB946B046F8
:1008A000F8BD3B000A3B042BB9D843460822290077
:1008B0002000FFF77BFEF0E7152229002000FFF75C
:1008C00075FE57E74346072229002000FFF76EFE1A
:1008D00043460D2229002000FFF768FEDDE743466E
:1008E000092229002000FFF761FED6E743461622C1
:1008F00029002000FFF75AFE3CE743461822290052
:100900002000FFF753FE35E7434617222900200059
:10091000FFF74CFE2EE743460E2229002000FFF78A
:1009200045FE80E74346192229002000FFF73EFEDE
:1009300020E743461A2229002000FFF737FE19E777
:1009400043461B2229002000FFF730FE12E74346F2
:100950001C2229002000FFF729FE0BE743461D2239
:1009600029002000FFF722FE04E743461E2229004B
:100970002000FFF71BFEFDE6F0B506000836040078
:100980000D0083B00660002924D0080018F0C0FCD8
:10099000070001900F280CD8012807D12B7823726B
:1009A000002360603354200003B0F0BD0028F7D06E
:1009B00008E00022200001A910F00CFB0600019BBA
:1009C0002060A36030003A0029000BF055F8019830
:1009D0002668E5E7014810F0EDF8C0465CA201107A
:1009E00070B584680600002C1FD0636A2568002B50
:1009F00004D020001C3003220100984723006068C7
:100A00000C3398420BD0E368591C0EF05BFF302189
:100A100020000EF057FF002D07D02C00E5E7302115
:100A200020000EF04FFF002DF7D1736800219A00CF
:100A300030680BF01BF80023F360B36033003068BC
:100A400018337168984202D089000EF03BFF3000E5
:100A500070BDC046F0B5C64600B5C8B0012800D18B
:100A60006EE02C4A1368013B1360002B14D12A4C12
:100A70002A4D206800280BD0A368191A0EF022FF17
:100A800023000C3BA54207D01C0020680028F3D1AE
:100A900023000C3BA542F7D1214A1368013B1360A8
:100AA000002B2DD01F4A1368013B1360002B00D18F
:100AB000B8E21D4A1368013B1360002B18D11B4C90
:100AC0001B4D23002068083398420DD0A368591CA1
:100AD0000EF0F8FE2300183BA54209D01C002300AD
:100AE000206808339842F1D12300183BA542F5D184
:100AF000104B9868FFF7A2FC48B080BCB846F0BD28
:100B00000D4B0E4A18689042CCD0996801310EF016
:100B1000D9FEC7E73020002054240020BC2200204A
:100B20001C20002020200020242000206421002000
:100B30008C200020F8250020582000206020002074
:100B40000022FA4B191D1A719A605A61D960196115
:100B5000F74B1A68551C1D60012D00D16CE2F54B56
:100B60001A68541C1C60012C0ED1F34D1022280071
:100B700000210C300AF07AFFF04B6C602B600023F0
:100B8000AB60FE239B052B61ED4A136801331360B4
:100B9000012B00D14AE2EB4A136801331360012BA9
:100BA00004D10022E84B1A6004325A60E74B1A68FD
:100BB000551C1D60012D9FD10023E54F00223B6095
:100BC0007B60BB6000233A923B93012200233AAC46
:100BD0003C923D9321000132DE4838943992FFF770
:100BE000B9FBDD4B98462300424643CA43C343CA80
:100BF00043C303222100D94836943792FFF7AAFB5A
:100C000043462200183343CB43C243CB43C20322A3
:100C10002100D34834943592FFF79CFB43462200D1
:100C2000303343CB43C243CB43C203CB03C2042282
:100C30002100CC4832943392FFF78CFB0023FB63F6
:100C40003B647B64BB64FB643B65434622005033DA
:100C500043CB43C243CB43C203CB03C20422210094
:100C6000C14830943192FFF775FB4646220070363A
:100C70000BCE0BC20BCE0BC20ACE0AC2042221003D
:100C8000BA482E942F92FFF765FBB94E38223100F7
:100C9000200010310AF0F0FE07222100B5482C9404
:100CA0002D92FFF757FB31003822483120000AF01F
:100CB000E3FE07222100B0482A942B92FFF74AFB5B
:100CC000AE4B98462300424643CA43C343CA43C37C
:100CD00003222100AA4828942992FFF73BFB4346B0
:100CE0002200183343CB43C243CB43C203CB03C2DE
:100CF00004222100A34826942792FFF72BFB4346AA
:100D00002200383343CB43C243CB43C203CB03C29D
:100D1000042221009C4824942592FFF71BFB4346A4
:100D20002200583343CB43C243CB43C203CB03C25D
:100D300004222100954822942392FFF70BFB012304
:100D400000225B423A923B9321000132904820946A
:100D50002192FFF7FFFA01230C225B423A923B9368
:100D600021000B3A8B481E941F92FFF7F3FA0123E0
:100D700065225B423A923B932100643A86481C9478
:100D80001D92FFF7E7FA012371225B423A923B93EF
:100D90002100703A81481A941B92FFF7DBFA002376
:100DA000E422BB500432BB500432BB500432BB506F
:100DB0000432BB5046460432BB50220078360BCE7C
:100DC0000BC20BCE0BC20ACE0AC204222100744809
:100DD00018941992FFF7BEFA2200724B9846183306
:100DE00043CB43C243CB43C203CB03C20422210003
:100DF0006D4816941792FFF7ADFA43462200383338
:100E000043CB43C243CB43C203CB03C204222100E2
:100E1000664814941592FFF79DFA43462200583312
:100E200043CB43C243CB43C203CB03C204222100C2
:100E30005F4812941392FFF78DFA464622007836E7
:100E40000BCE0BC20BCE0BC20ACE0AC2042221006B
:100E5000584810941192FFF77DFA2200564B98469D
:100E6000183343CB43C243CB43C243CB43C21B687B
:100E700021001360052251480E940F92FFF76AFA81
:100E800043462200403343CB43C243CB43C243CB10
:100E900043C243CB43C20622210049480C940D9221
:100EA000FFF758FA4646220070360BCE0BC20BCE27
:100EB0000BC20ACE0AC20422210042480A940B92B5
:100EC000FFF748FA2200404B9846103343CB43C209
:100ED00043CB43C203CB03C2042221003B48089406
:100EE0000992FFF737FA43462200303343CB43C21F
:100EF00043CB43C203CB03C20422210034480694EF
:100F00000792FFF727FA43462200503343CB43C2F0
:100F100043CB43C2032221002E4804940592FFF7DD
:100F200019FA46462200683656E0C046F8250020E9
:100F30002420002020200020702000208820002075
:100F40001C200020282000207C21002030200020B0
:100F5000BC220020C8220020A8A20110D422002018
:100F6000E0220020EC220020102300201C2300207F
:100F700028A301102823002034230020A8A3011057
:100F8000402300204C23002058230020642300200D
:100F9000702300207C23002088230020942300203D
:100FA000B823002028A40110C4230020D02300204F
:100FB000DC230020E8230020A8A40110F423002053
:100FC000002400200C24002028A501101824002053
:100FD00024240020302400200BCE0BC20BCE0BC2E9
:100FE0000BCE0BC2336821001360052264480294C3
:100FF0000392FFF7AFF92200624B103343CB43C299
:1010000043CB43C2032221005F4800940192FFF7C3
:10101000A1F9CC2200235200BB500432BB50043251
:10102000BB5069E55948FFF7DBFC42E558493AAA4D
:101030005848FFF7A1FCAEE5574E3AAC220030000D
:101040005349FFF799FC220054495548FFF794FC97
:10105000220054495448FFF78FFC2200534954485A
:10106000FFF78AFC220053495348FFF785FC220012
:1010700052495348FFF780FC220052495248FFF77B
:101080007BFC220051495248FFF776FC220051496F
:101090005148FFF771FC220050495148FFF76CFCA2
:1010A0005DE52224651B163C6C433C19BC4215D1FE
:1010B0000EF0B0FC00250924651B0F346C43341975
:1010C000B442F5D0183C2300206808339842F7D08A
:1010D000A368591C0EF0F6FBF2E7ECE70C3C206825
:1010E000A368191A0028E1D00EF0ECFBDEE7022518
:1010F000E1E70325DFE70425DDE70525DBE7062536
:10110000D9E70725D7E70825D5E70925D3E702253D
:10111000C7E70325C5E70425C3E70525C1E706257D
:10112000BFE70725BDE70825BBE70925B9E70A257D
:10113000B7E70B25B5E70C25B3E70D25B1E710257B
:10114000AFE71125ADE71225ABE71325A9E7142575
:10115000A7E71525A5E71625A3E71725A1E7182575
:101160009FE719259DE71A259BE71B2599E71E2573
:1011700097E71F2595E7202593E7212591E7C046AE
:101180003C240020A8A50110482400207020002045
:1011900030C60110582000208C200020B4DA011045
:1011A000A420002088A20110BC2000208CA20110E5
:1011B000D42000200CDE0110EC20002090A20110B1
:1011C0000421002094A201101C21002098A20110EB
:1011D000342100209CA201104C210020A0A201106B
:1011E0006421002010B50120FFF734FC10BDC0467B
:1011F00010B50400034B0833036006F095FA200095
:1012000010BDC04624A9011010B50400054B0833D9
:10121000036006F089FA200004210EF053FB200041
:1012200010BDC04624A901100023F0B5036043603F
:101230008360154B04000E0083B0D5009D4216D884
:10124000002D0ED028000FF0F7F947192060A76095
:10125000002D0AD02A0031000AF00EFC676003B0AE
:10126000F0BD002705608560F8E70700F6E707484E
:101270000FF0B8FC2068A168091A002801D00EF010
:1012800021FB0EF0C7FBC046F8FFFF7F28A201102C
:10129000F0B5C646040000B5002825D01A4B1B4FF8
:1012A00098462600E068FFF7F3FFB569A468002DB3
:1012B00014D06B68013B6B60002B0FD12B689B68CF
:1012C000BB4214D1AB68013BAB60002B06D12B684D
:1012D000DA6842450ED128005B6898471C2130002F
:1012E0000EF0F0FA002CDCD180BCB846F0BD28002E
:1012F0009847E7E7280090471C2130000EF0E2FAFB
:10130000002CCED1F0E7C046110300100D030010F1
:10131000F0B5DE4657464E464546E0B5834685B0B5
:10132000002800D199E05B46DB680193002B00D1D7
:1013300086E0019BDB689946002B72D04B46DB6848
:101340009A46002B60D05346DC68002C42D0E668F9
:10135000002E27D0F3689846002B2FD04346DD6837
:10136000002D44D0EF68002F10D0F868FFF7D0FFB1
:101370003B00DA69BF68100002930392FFF788FF11
:101380002C2102980EF09EFA002FEED1AF68E8698A
:10139000FFF77EFF2C2128000EF094FA002F26D0B4
:1013A0003D00DFE7A568E069FFF772FF2C21200010
:1013B0000EF088FA002D0DD02C00C8E7B568F06952
:1013C000FFF766FF2C2130000EF07CFA002DE9D0EB
:1013D0002E00BFE753469C68D869FFF759FF2C21C0
:1013E00050460EF06FFA002C0ED0A246ABE74346F3
:1013F0009D68D869FFF74CFF2C2140460EF062FA39
:10140000002DDBD0A846A9E74B469C68D869FFF7BA
:101410003FFF2C2148460EF055FA002C01D0A14682
:101420008CE7019DEB69AC6818000193FFF730FF72
:101430002C2128000EF046FA002C01D0019478E708
:101440005B469C68D869FFF723FF2C2158460EF0B5
:1014500039FA002C01D0A34665E705B0F0BCBB46C5
:10146000B246A946A046F0BD10B5040006F066F9E4
:10147000024B20000833236010BDC04624A9011090
:10148000F0B5DE4657464E4645468B460221E0B54E
:101490009846531E8246894687B0022B04D90139EB
:1014A000931F89460A2B3DD853002A499B189B005D
:1014B0005D180020CB5800210290039100216A683A
:1014C0000491D41A9A4236D0234B9C4236D820003D
:1014D0000FF0B2F80ACD04190290039004949942D7
:1014E00009D000225B1A84188D180832C0CDC0C400
:1014F0009A42F8D1801843460390009359464B46D0
:10150000504602AA06F0E6F90298002803D0049992
:10151000091A0EF0D7F907B0F0BCBB46B246A9468F
:10152000A046F0BD11000D2313398B429B410321CE
:1015300019408946B8E700240020CBE70FF02AFBCA
:1015400002980499091A002801D00EF0BBF90EF098
:1015500061FAC04660240020F8FFFF7FF8B5CE4650
:10156000474680B51F00089B04000D003800052188
:101570001600984609F0B2FD8946002900DDC9E051
:101580004346012229002000FFF77AFF434602224A
:1015900029002000FFF774FF43460C2E31DD202286
:1015A00029002000FFF76CFF182F32DD701C182176
:1015B00009F094FD0E00002E02D00C2E00D0E0E0C9
:1015C00043461D2229002000FFF75AFF7E1F132EDD
:1015D00000D88DE03B00233B042B57D93B00193B3F
:1015E000042B00D8BBE03B00283B132B00D8B6E00F
:1015F000042F51D84346032229002000FFF740FF63
:101600004AE01F2229002000FFF73AFF182FCDDC07
:10161000D1E70D2E62D00E2E00D1B8E00F2E00D1F2
:10162000E1E0042E00D1E5E0102E00D1E2E0052E2D
:1016300000D1E6E0112E00D1E3E0062E00D1E7E074
:10164000122E00D1E4E0072E00D1E8E0132E00D1E5
:10165000E5E0082E00D1E9E0142E00D1E6E0092EE5
:1016600000D1EAE0152E00D1E7E00A2E00D1EBE030
:10167000162E00D1E8E00B2E01D0172EA6D143463E
:101680001B2229002000FFF7FBFE9FE743460C22A8
:1016900029002000FFF7F4FE3B00143B042B00D888
:1016A00089E03B00193B042B00D877E03B001E3B50
:1016B000042B00D88BE0053B042B00D86EE0053BE3
:1016C000042B00D877E0053B042B00D87FE0053BD6
:1016D000042B4FD9373F042F18D811E0434614226A
:1016E000290020007E1FFFF7CBFE132E00D971E7E3
:1016F00043460C2229002000FFF7C2FE042E35D8F5
:101700004346082229002000FFF7BAFEC0BCB946B4
:10171000B046F8BD43460D2229002000FFF7B0FE79
:101720004B46012B00D12BE743460E222900200017
:10173000FFF7A6FE4B46022B00D121E743460F22BE
:1017400029002000FFF79CFE4B46042B00D017E732
:101750004346102229002000FFF792FE10E743467F
:101760000A2229002000FFF78BFE95E73B000A3B89
:10177000042B27D84346092229002000FFF780FECA
:10178000C4E7012EAAD00D2EA8D0022E26D14346A2
:10179000192229002000FFF773FE17E743462900AE
:1017A00020000822FFF76CFE43460B222900200090
:1017B000FFF766FEAAE74346072229002000FFF74D
:1017C0005FFEA3E73B000F3B042B00D964E74346D1
:1017D000062229002000FFF753FE97E70E2ED6D0F1
:1017E000032E00D01AE74346162229002000FFF7F7
:1017F00047FEEBE64346172229002000FFF740FE94
:10180000E4E64346182229002000FFF739FEDDE612
:101810004346152229002000FFF732FED6E6434654
:101820001C2229002000FFF72BFECFE643461A2298
:1018300029002000FFF724FEC8E6434613222900B2
:101840002000FFF71DFEC1E643461E2229002000AE
:10185000FFF716FEBAE6C046F0B5C64600B5C6B0FC
:10186000012800D16EE02C4A1368013B1360002B65
:1018700014D12A4C2A4D206800280BD0A368191ACD
:101880000EF020F823000C3BA54207D01C00206876
:101890000028F3D123000C3BA542F7D1214A13685D
:1018A000013B1360002B2DD01F4A1368013B1360CE
:1018B000002B00D1ABE21D4A1368013B1360002BE3
:1018C00018D11B4C1B4D23002068083398420DD0C3
:1018D000A368591C0DF0F6FF2300183BA54209D060
:1018E0001C002300206808339842F1D12300183BE4
:1018F000A542F5D1104B9868FFF70AFD46B080BCB1
:10190000B846F0BD0D4B0E4A18689042CCD099688D
:1019100001310DF0D7FFC7E734200020EC2500206F
:10192000602400201C2000202020002024200020F3
:10193000642100208C200020102600205820002048
:10194000602000200022FA4B191D1A719A605A611A
:10195000D9601961F74B1A68551C1D60012D00D123
:101960005FE2F54B1A68541C1C60012C0ED1F34D3C
:101970001022280000210C300AF078F8F04B6C603F
:101980002B600023AB60FE239B052B61ED4A13689F
:1019900001331360012B00D13DE2EB4A13680133A0
:1019A0001360012B04D10022E84B1A6004325A6004
:1019B000E74B1A68551C1D60012D9FD10023E54F90
:1019C00000223B607B60BB60002338923993012288
:1019D000002338AC3A923B9321000132DE48369422
:1019E0003792FFF721FCDD4B98462300424643CA5D
:1019F00043C3126821001A600222D94834943592F8
:101A0000FFF712FC43462200103343CB43C243CBC3
:101A100043C243CB43C243CB43C206222100D14839
:101A200032943392FFF700FC0023414638224031C4
:101A300020003B637B63BB63FB633B647B640AF016
:101A40001BF807222100C84830943192FFF7ECFBC5
:101A50004646220078360BCE0BC20BCE0BC20BCE05
:101A60000BC20BCE0BC206222100C0482E942F922F
:101A7000FFF7DAFB2200BE4B9846283343CB43C224
:101A800043CB43C203CB03C204222100B9482C94A8
:101A90002D92FFF7C9FB43462200483343CB43C294
:101AA00043CB43C203222100B3482A942B92FFF771
:101AB000BBFB43462200603343CB43C21B6821007B
:101AC00013600222AD4828942992FFF7ADFB4646E9
:101AD000220070360BCE0BC20BCE0BC20ACE0AC24E
:101AE00004222100A64826942792FFF79DFB22009E
:101AF000A44B9846103343CB43C243CB43C203CBE2
:101B000003C204222100A04824942592FFF78CFBF5
:101B1000012300225B4238923993210001329B4815
:101B200022942392FFF780FB01230C225B42389220
:101B3000399321000B3A964820942192FFF774FBC9
:101B4000012365225B42389239932100643A91481F
:101B50001E941F92FFF768FB012371225B423892AB
:101B600039932100703A8C481C941D92FFF75CFB5E
:101B70000023CC22BB500432BB500432BB50043291
:101B8000BB500432BB500432BB50434622003033BA
:101B900043CB43C243CB43C203CB03C20422210045
:101BA0007E481A941B92FFF73FFB434622005033B6
:101BB00043CB43C243CB43C203222100784818944D
:101BC0001992FFF731FB4646220068360BCE0BC256
:101BD0000BCE0BC203222100724816941792FFF716
:101BE00023FB714B98462300424643CA43C343CA72
:101BF00043C343CA43C3126821001A6005226B48DD
:101C000014941592FFF710FB43462200283343CB70
:101C100043C243CB43C203CB03C204222100644826
:101C200012941392FFF700FB43462200483343CB44
:101C300043C243CB43C203CB03C2042221005D480D
:101C400010941192FFF7F0FA4646220068360BCE48
:101C50000BC20BCE0BC20322210057480E940F92E9
:101C6000FFF7E2FA554B98462300424643CA43C366
:101C700043CA43C343CA43C3126821001A60052202
:101C80004F480C940D92FFF7CFFA434622002833B9
:101C900043CB43C243CB43C243CB43C243CB43C2F8
:101CA0000622210047480A940B92FFF7BDFA4646E8
:101CB000220058360BCE0BC20BCE0BC20BCE0BC282
:101CC00033682100136005223F4808940992FFF70A
:101CD000ABFA3E4B98462300424643CA43C343CA2D
:101CE00043C343CA43C343CA43C3062221003848FF
:101CF00006940792FFF798FA43462200303343CB0D
:101D000043C243CB43C203222100324804940592CC
:101D1000FFF78AFA43462200483343CB43C21B688D
:101D20002100136002222C480294039256E0C04620
:101D300010260020242000202020002070200020D9
:101D4000882000201C200020282000207C2100204A
:101D500034200020602400206C24002010A60110F4
:101D60007824002084240020A8240020B42400200B
:101D700090A60110C0240020CC240020D8240020EC
:101D8000E424002010A70110F0240020FC240020EF
:101D900008250020142500202025002044250020AF
:101DA000502500205C25002090A701106825002008
:101DB00074250020802500208C25002010A801100B
:101DC00098250020A4250020B025002090A801100F
:101DD000BC250020C8250020D4250020FFF724FAC8
:101DE00046462300583607CE07C3326821001A60E2
:101DF00002225C4800940192FFF716FAC6220023E3
:101E00005200BB500432BB500432BB5076E55648FA
:101E1000FEF7E6FD4FE5554938AA5548FEF7ACFDFB
:101E2000BBE5544E38AC220030005049FEF7A4FD0B
:101E3000220051495148FEF79FFD22005049514868
:101E4000FEF79AFD220050495048FEF795FD22000A
:101E50004F495048FEF790FD22004F494F48FEF78A
:101E60008BFD22004E494F48FEF786FD22004E4969
:101E70004E48FEF781FD22004D494E48FEF77CFD9D
:101E800022004D494D48FEF777FD6AE52124651B88
:101E9000153C6C433C19BC421BD10DF0BBFD022527
:101EA000F4E70325F2E700250924651B0F346C4392
:101EB0003419B442F1D0183C23002068083398420A
:101EC000F7D0A368591C0DF0FDFCF2E7ECE7042500
:101ED000DCE70C3C2068A368191A0028DBD00DF061
:101EE000F1FCD8E70225DFE70325DDE70425DBE782
:101EF0000525D9E70625D7E70725D5E70825D3E740
:101F00000925D1E70525C1E70625BFE70725BDE778
:101F10000825BBE70925B9E70A25B7E70B25B5E78B
:101F20000C25B3E70D25B1E70E25AFE71125ADE789
:101F30001225ABE71325A9E71425A7E71525A5E783
:101F40001625A3E71725A1E718259FE719259DE783
:101F50001A259BE71B2599E71E2597E71F2595E77F
:101F6000202593E7E02500207020002030C60110D6
:101F7000582000208C200020B4DA0110A42000207A
:101F800088A20110BC2000208CA20110D4200020C7
:101F90000CDE0110EC20002090A201100421002092
:101FA00094A201101C21002098A2011034210020CD
:101FB0009CA201104C210020A0A20110642100204D
:101FC00010B50120FFF748FC10BDC04610B5040055
:101FD000034B0833036005F0A7FB200010BDC0468B
:101FE00064AB011010B50400054B0833036005F025
:101FF0009BFB200004210DF065FC200010BDC046B5
:1020000064AB0110F0B5C646040000B5002825D029
:102010001A4B1B4F98462600E068FFF7F3FFB5699F
:10202000A468002D14D06B68013B6B60002B0FD1AE
:102030002B689B68BB4214D1AB68013BAB60002BA3
:1020400006D12B68DA6842450ED128005B689847B4
:102050001C2130000DF036FC002CDCD180BCB846D1
:10206000F0BD28009847E7E7280090471C21300082
:102070000DF028FC002CCED1F0E7C0461103001073
:102080000D030010F0B5DE4657464E464546E0B516
:10209000834685B0002800D199E05B46DB68019358
:1020A000002B00D186E0019BDB689946002B72D0A3
:1020B0004B46DB689A46002B60D05346DC68002C08
:1020C00042D0E668002E27D0F3689846002B2FD028
:1020D0004346DD68002D44D0EF68002F10D0F8682B
:1020E000FFF7D0FF3B00DA69BF681000029303924C
:1020F000FFF788FF2C2102980DF0E4FB002FEED1B2
:10210000AF68E869FFF77EFF2C2128000DF0DAFBAD
:10211000002F26D03D00DFE7A568E069FFF772FFDA
:102120002C2120000DF0CEFB002D0DD02C00C8E797
:10213000B568F069FFF766FF2C2130000DF0C2FB97
:10214000002DE9D02E00BFE753469C68D869FFF701
:1021500059FF2C2150460DF0B5FB002C0ED0A246A5
:10216000ABE743469D68D869FFF74CFF2C214046FA
:102170000DF0A8FB002DDBD0A846A9E74B469C68D4
:10218000D869FFF73FFF2C2148460DF09BFB002C40
:1021900001D0A1468CE7019DEB69AC681800019362
:1021A000FFF730FF2C2128000DF08CFB002C01D014
:1021B000019478E75B469C68D869FFF723FF2C21E0
:1021C00058460DF07FFB002C01D0A34665E705B013
:1021D000F0BCBB46B246A946A046F0BD10B504000F
:1021E00005F0ACFA024B20000833236010BDC04656
:1021F00064AB0110F0B5DE4657464E4645468B4669
:102200000221E0B59846531E8246894687B0032BCB
:1022100004D90139D31F8946072B3DD853002A49D9
:102220009B189B005D180020CB5800210290039161
:1022300000216A680491D41A9A4236D0234B9C42FA
:1022400036D820000EF0F8F90ACD04190290039058
:102250000494994209D000225B1A84188D18083220
:10226000C0CDC0C49A42F8D1801843460390009371
:1022700059464B46504602AA05F02CFB029800280E
:1022800003D00499091A0DF01DFB07B0F0BCBB4642
:10229000B246A946A046F0BD1100072311398B4272
:1022A0009B41032119408946B8E700240020CBE771
:1022B0000EF070FC02980499091A002801D00DF064
:1022C00001FB0DF0A7FBC04684210020F8FFFF7F33
:1022D0000023F0B5036043608360154B04000E00DB
:1022E00083B0D5009D4217D8002D0FD028000EF0E6
:1022F000A3F947192060A760002D0BD02A003100F8
:1023000009F0BAFB2000676003B0F0BD002705604C
:102310008560F7E70700F5E706480EF063FC2068E4
:10232000A168091A002801D00DF0CCFA0DF072FB5B
:10233000F8FFFF7F28A20110F0B5C64600B5B2B085
:10234000012800D16EE02C4A1368013B1360002B7A
:1023500014D12A4C2A4D206800280BD0A368191AE2
:102360000DF0B0FA23000C3BA54207D01C002068FA
:102370000028F3D123000C3BA542F7D1214A136872
:10238000013B1360002B2DD01F4A1368013B1360E3
:10239000002B00D1EDE11D4A1368013B1360002BB7
:1023A00018D11B4C1B4D23002068083398420DD0D8
:1023B000A368591C0DF086FA2300183BAC4209D0E3
:1023C0001C002300206808339842F1D12300183BF9
:1023D000AC42F5D1104B9868FFF754FE32B080BC88
:1023E000B846F0BD0D4B0E4A18689042CCD09968A3
:1023F00001310DF067FAC7E72C200020B022002041
:10240000842100201C2000202020002024200020E7
:10241000642100208C200020282600205820002045
:10242000602000200022F74B191D1A719A605A6132
:10243000D9601961F44B1A68551C1D60012D00D13B
:10244000A1E1F24B1A68541C1C60012C0ED1F04D16
:102450001022280000210C3009F008FBED4B6C60C5
:102460002B600023AB60FE239B052B61EA4A1368B7
:1024700001331360012B00D17FE1E84A1368013377
:102480001360012B04D10022E54B1A6004325A601C
:10249000E44B1A68551C1D60012D9FD10023E24FAB
:1024A00000223B607B60BB6001232AAC5B422A9226
:1024B0002B9321002A00DD4826AB28942995FFF7AD
:1024C00007FF01230C225B422A922B9321000B3A37
:1024D000D74824AB26942792FFF7FAFE0123652202
:1024E0005B422A922B932100643AD24822AB249477
:1024F0002592FFF7EDFE012371225B422A922B9376
:102500002100703ACC4820AB22942392FFF7E0FEE2
:102510000023FB633B647B64BB64FB643B65C74B8C
:1025200098462300424643CA43C343CA43C303CA2F
:1025300003C304222100C2481EAB20942192FFF75E
:10254000C7FE43462200203343CB43C243CB43C2A2
:1025500003CB03C204222100BA481CAB1E941F9275
:10256000FFF7B6FE43462200403343CB43C243CB82
:1025700043C203CB03C204222100B3481AAB1C940C
:102580001D92FFF7A5FE4646220060360BCE0BC219
:102590000BCE0BC20ACE0AC204222100AB4818ABF4
:1025A0001A941B92FFF794FEA94B984623004246CB
:1025B00043CA43C343CA43C303CA03C3042221001B
:1025C000A44816AB18941992FFF782FE43462200E6
:1025D000203343CB43C243CB43C203CB03C20422C9
:1025E00021009D4814AB16941792FFF771FE4346E5
:1025F0002200403343CB43C243CB43C203CB03C28D
:1026000004222100954812AB14941592FFF760FE46
:102610004646220060360BCE0BC20BCE0BC20ACE52
:102620000AC2042221008E4810AB12941392FFF7C5
:102630004FFE0023B422BB500432BB500432BB50C7
:102640000432BB500432BB500432BB50854B984619
:102650002300424643CA43C343CA43C303CA03C316
:102660000422210080480EAB10941192FFF730FE37
:1026700043462200203343CB43C243CB43C203CB68
:1026800003C20422210079480CAB0E940F92FFF78D
:102690001FFE43462200403343CB43C243CB43C2D9
:1026A00003CB03C20422210071480AAB0C940D92A3
:1026B000FFF70EFE4646220060360BCE0BC20BCE55
:1026C0000BC20ACE0AC2042221006A4808AB0A944F
:1026D0000B92FFF7FDFD684B98462300424643CA24
:1026E00043C343CA43C303CA03C30422210063484C
:1026F00006AB08940992FFF7EBFD43462200203316
:1027000043CB43C243CB43C203CB03C204222100C9
:102710005B4804AB06940792FFF7DAFD43462200BC
:10272000403343CB43C243CB43C203CB03C2042257
:102730002100544802AB04940592FFF7C9FD4646B8
:10274000220060360BCE0BC20BCE0BC20ACE0AC2E1
:10275000042221004C4801AB02940392FFF7B8FD1C
:10276000962200235200BB500432BB500432BB50AF
:1027700034E62748FEF734F90DE644492AAA4448CE
:10278000FEF7FAF879E6434E2AAC220030003F49C2
:10279000FEF7F2F8220040494048FEF7EDF822002B
:1027A0003F494048FEF7E8F822003F493F48FEF71E
:1027B000E3F822003E493F48FEF7DEF822003E499A
:1027C0003E48FEF7D9F822003D493E48FEF7D4F8CE
:1027D00022003D493D48FEF7CFF822003C493D48E4
:1027E000FEF7CAF822003C493C48FEF7C5F828E647
:1027F0001924651B0D3C6C433C19BC4200D08AE097
:102800000DF008F928260020242000202020002098
:1028100070200020882000201C200020282000207C
:102820007C2100202C2000208421002090210020E9
:102830009C210020A8210020B421002038A90110EB
:10284000D8210020E4210020F0210020FC210020DC
:10285000B8A9011008220020142200202022002004
:102860002C22002038AA0110502200205C220020D7
:102870006822002074220020B8AA011080220020C3
:102880008C22002098220020A422002030C60110B3
:10289000582000208C200020B4DA0110A420002051
:1028A00088A20110BC2000208CA20110D42000209E
:1028B0000CDE0110EC20002090A201100421002069
:1028C00094A201101C21002098A2011034210020A4
:1028D0009CA201104C210020A0A201106421002024
:1028E000022585E7032583E700250924651B0F34AE
:1028F0006C433419B44200D182E7183C23002068AD
:1029000008339842F6D0A368591C0CF0DBFFF1E7BE
:10291000EBE704256CE70C3C2068A368191A002833
:1029200000D16AE70CF0CEFF67E70225DDE703255B
:10293000DBE70425D9E70525D7E70625D5E70725F1
:10294000D3E70825D1E70925CFE7052550E7062578
:102950004EE707254CE708254AE70B2548E70C25F5
:1029600046E70D2544E70E2542E70F2540E71025F1
:102970003EE711253CE712253AE7152538E71625ED
:1029800036E7172534E7182532E7C04670B504004E
:10299000006800280CD02369191A0CF093FF00225C
:1029A00023002100A260E260083321CB21C1226113
:1029B00070BDC046F0B5C64600B594B01A9E04007E
:1029C0000D00170098460A2E00DD7FE00A214046E0
:1029D00008F084FB684600F09DFD6421404608F045
:1029E0007DFB08000A2108F079FB010005A800F032
:1029F00091FD0A21380008F071FB0AA800F08AFD59
:102A00006421380008F06AFB08000A2108F066FB20
:102A100001000FA800F07EFD009B1B68DA0700D5BF
:102A2000ECE09A0700D5E0E05A0700D5D4E01B0798
:102A300000D5CAE0059B1B68DA0700D5BCE09A0701
:102A400000D5B0E05A0700D5A4E01B0700D59AE0F6
:102A50000A9B1B68DA0700D58CE09A0700D580E056
:102A60005A0700D574E01B076BD40F980368DA0788
:102A70005ED49A0753D45A0748D41B0721D5330094
:102A8000182229002000FFF7B5FB0F98002818D165
:102A90000A98002803D00E99091A0CF013FF059824
:102AA000002803D00999091A0CF00CFF009800289F
:102AB00003D00499091A0CF005FF14B080BCB84685
:102AC000F0BD1399091A0CF0FDFEE1E73300012275
:102AD000FFF790FB192E00DC78E733000222290073
:102AE0002000FFF787FB282E00DC6FE7330003226E
:102AF00029002000FFF77EFB372E00DC66E733005D
:102B0000042229002000FFF775FB5FE7330017223E
:102B100029002000FFF76EFB0F980368ADE7330034
:102B2000162229002000FFF765FB0F980368A2E733
:102B30003300152229002000FFF75CFB0F98036883
:102B400097E73300142229002000FFF753FB8CE79E
:102B50003300132229002000FFF74CFB0A9B1B685F
:102B600081E73300122229002000FFF743FB0A9B74
:102B70001B6875E73300112229002000FFF73AFB9C
:102B80000A9B1B6869E733000E2229002000FFF72B
:102B900031FB5DE733000D2229002000FFF72AFBFF
:102BA000059B1B6851E733000C2229002000FFF72A
:102BB00021FB059B1B6845E733000B222900200001
:102BC000FFF718FB059B1B6839E733000A22290031
:102BD0002000FFF70FFB2DE733000922290020001A
:102BE000FFF708FB009B1B6821E733000822290040
:102BF0002000FFF7FFFA009B1B6815E73300072250
:102C000029002000FFF7F6FA009B1B6809E70FA8D0
:102C1000FFF7BCFE0AA8FFF7B9FE05A8FFF7B6FE4E
:102C20006846FFF7B3FE0CF0F5FEF3E7F5E7F7E7CC
:102C300010B50120FFF780FB10BDC04610B50400A1
:102C4000034B0833036004F06FFD200010BDC04645
:102C5000A0AB011010B50400054B0833036004F06D
:102C600063FD200004210CF02DFE200010BDC046A5
:102C7000A0AB0110F0B5DE464E4657464546E0B5DE
:102C80008BB00393149B8346894602920A2B00DD86
:102C90007DE0029B002B35D0002300269A46984603
:102CA000002706AC04AD534608202E606B602760F9
:102CB0006760A7600DF0C0FC030008339C462A0043
:102CC000A36020600ACA0AC063466360149B2200A6
:102CD000009349460023584604F0FCFD2068002874
:102CE00003D0A368191A0CF0EDFD01360A2E03DD9E
:102CF00001239C460026E24401239C46029BE044BB
:102D00009845D0D1039B002B3AD00023002798464A
:102D1000093300269A4606AC04AD02974246534654
:102D20009B1A6B6000220023069207930023082061
:102D30002E60A3600DF080FC03002A000833A3601E
:102D4000206082CA82C06360149B220000934946BF
:102D50000123584604F0BEFD2068002803D0A36874
:102D6000191A0CF0AFFD01360A2E03DD01239C4633
:102D70000026E044029A039B013202929A42CDD18E
:102D80000BB0F0BCBB46B246A946A046F0BD01233D
:102D900000225B42049205930023002206920793CF
:102DA0000023082006ACA3600DF046FC030004AD30
:102DB0002A0008330690A36042CA42C06360149B95
:102DC000494600935846022304F084FD06980028E3
:102DD00003D0A368191A0CF075FD149B192B00DCA5
:102DE00057E701230C225B42049205930023002243
:102DF0000692079300230820A3600DF01DFC03003A
:102E00002A0008330690A36042CA42C06360149B44
:102E10002200009349460223584604F05BFD0698C1
:102E2000002803D0A368191A0CF04CFD149B282B22
:102E300000DC2EE7012365225B4204920593002308
:102E400000220692079300230820A3600DF0F4FBF4
:102E500003002A0008330690A36042CA42C06360A0
:102E6000149B2200009349460223584604F032FD89
:102E70000698002803D0A368191A0CF023FD149BB0
:102E8000372B00DC05E7012371225B420492059396
:102E9000002300220692079300230820A3600DF070
:102EA000CBFB030008330690A36006CD06C0636029
:102EB000149B2200009349460223584604F00AFD61
:102EC0000698002800D1E4E6A168091A0CF0FAFC83
:102ED000DFE60698A168091A002801D00CF0F2FC80
:102EE0000CF098FDF5E7F4E7F3E7F2E7F1E7F0E738
:102EF000EFE7EEE7EDE7ECE7EBE7C04610B50400DF
:102F000004F01CFC024B20000833236010BDC046B7
:102F1000A0AB011000224B4B30B5191D1A719A60FD
:102F20005A61D9601961484B83B01A68541C1C60FF
:102F3000012C2DD0454B1A68541C1C60012C0ED15D
:102F4000434D1022280000210C3008F08FFD414B2A
:102F50006C602B600023AB60FE239B052B613E4A17
:102F6000136801331360012B0CD03C4A1368013302
:102F70001360012B04D10022394B1A6004325A60CD
:102F800003B030BD374901AA3748FDF7F5FCECE73F
:102F9000364D3449280001AAFDF7EEFC3449354886
:102FA00001AAFDF7E9FC3449344801AAFDF7E4FC25
:102FB0003349344801AAFDF7DFFC3349334801AAFD
:102FC000FDF7DAFC3249334801AAFDF7D5FC324956
:102FD000324801AAFDF7D0FC3149324801AAFDF779
:102FE000CBFC3149314801AAFDF7C6FC30493148D4
:102FF00001AAFDF7C1FC9DE7092409231B1B182426
:103000005C432C19AC4212D10CF004FD0824F4E707
:103010000724F2E70324F0E70224EEE7EDE70024BB
:10302000EBE70524E9E70424E7E70624E5E7183C95
:103030002300206808339842E4D0A368591C0CF0A0
:1030400041FCDFE740260020242000202020002033
:1030500070200020882000201C2000202820002034
:103060007C21002030C60110582000208C20002038
:10307000B4DA0110A420002088A20110BC20002096
:103080008CA20110D42000200CDE0110EC200020C6
:1030900090A201100421002094A201101C21002004
:1030A00098A20110342100209CA201104C21002084
:1030B000A0A201106421002030B5436889B0002B24
:1030C00001D109B030BD00220023049205930023F2
:1030D0003A4904AA069300F093FC059D049C2B1B1F
:1030E000302B29D9206815F02BF9059B049A019300
:1030F00045B29B1A182B41D9906915F021F9059B0F
:10310000049A019344B29B1A302B30D9106B15F0FE
:1031100017F92B4B02AA13802A4BD071538000233E
:1031200010001371557194710BF036FD4020002191
:1031300005F03CFD049C059DAC420CD023002068AA
:10314000083398420FD0A3681834591C0CF0BAFB0E
:10315000AC42F3D1049D002DB3D006992800491B41
:103160000CF0B0FBADE71834AC42E7D1F2E7164AF9
:10317000DB1002215A4315480DF04CFD124ADB10BA
:1031800001215A4311480DF045FD049C059DA542BF
:1031900008D104980699091A002801D00CF092FB76
:1031A0000CF038FC230020680833984203D0A36851
:1031B000591C0CF087FB1834E9E7C0461CD90110F4
:1031C000E407000006050000ABAAAAAAB4AB0110F0
:1031D00010B586B002AC0BF0C3FC22000E4B00947D
:1031E00003CB03C208236A46019300236846137485
:1031F000FFF762FF0098A04203D0029901310CF062
:1032000061FB06B010BD0098A04203D002990131C5
:103210000CF058FB0CF0FEFB00AC011010B50400E4
:103220000BF010FD200010BD10B51C00431A0298D1
:10323000511A001B584307F051FF001910BDC0463A
:10324000030010009A4200DD1800884200DA0800EE
:103250007047C04670B5006815000C0015F070F896
:10326000A84200DD2800A04200DA200070BDC04660
:10327000F0B557464E46DE464546E0B587B0029368
:10328000836881469C4603698A46049105920192AF
:103290009C4500D171E0C368591C9B461F231C004C
:1032A0008846CA1714404444D20E03916411891809
:1032B000A4000B4064449B1A5CD462465146551AE4
:1032C0005A460199ED00521AAD1867465E46884687
:1032D000002D14DD002E33D00121013EB140002B22
:1032E00034D00122013B9A403868084220D021683E
:1032F000013D0A432260002DECD143460193012396
:10330000019A9340029A002A25D1524612689A43A4
:103310001300524613605B461F2B24D04B46039A82
:10332000DA6007B0F0BCBB46B246A946A046F0BD85
:103330002168013D91432160002DDED0002ECBD1CC
:1033400080211F26043F0906002BCAD180221F239B
:10335000043C1206C8E752461268134352461360F3
:103360005B461F2BDAD100234A46D3606346043301
:103370009360D6E72033043C9FE762460368D31A84
:10338000C268DB009446604A6344934200D1B7E0D0
:103390000122002B00D0A2E05B4B9A4200D91A0018
:1033A0001F3252099300180003930DF045F94B4664
:1033B0001E68534683469C1BB24503D02200310051
:1033C00016F022FF220001985A44011E00DC92E010
:1033D00055460023012780460DE014682043106005
:1033E0001F2B13D0581C9C1C3B00834001399C466A
:1033F0000300002913D0380098402C680442ECD117
:1034000014688443200010601F2BEBD10123013985
:103410009C4601240023043504320029EBD14146A7
:10342000150001911F2B01D10024151D029B002BBB
:103430005DD0634611680B4313604B4652469B6850
:1034400001989A1A4B46DB68D2001B1AD218002A40
:1034500028DDB446012156460CE047462B681F4341
:103460002F601F2814D001301F2C15D0013A0134D1
:10347000002A16D00F000B00A7408340B8463768DB
:103480001F42EAD143462F689F432F601F28EAD18D
:10349000002004361F2CE9D1013A00240435002A0B
:1034A000E8D16646002E0DD04B461B693000991BB3
:1034B0000CF008FA00234A469360D3604B46083369
:1034C00003CB03C24A46039B5B4413614B465A46F7
:1034D0001A604A46002395605360D46021E75A0081
:1034E000934200D858E7094B180003935DE7614603
:1034F00013688B43A0E7012315009C46012495E740
:1035000003480DF06FFBC046E0FFFF7FFCFFFF0F9D
:103510000CAC0110F0B5DE4657464E46454600233A
:10352000E0B5036043608360C360036108339A467B
:1035300083B0EB4682445E4653460D0006CB06C67A
:1035400001235A46002152682B400400FFF790FEE9
:10355000EB0FA2685B1921699B071700DB0F8A42FA
:1035600000D114E1E06880461F2800D1F8E0013066
:10357000E06001204646B040002B00D0A4E03B684C
:1035800083433B60EB1798460323464633405B1961
:103590005B071000DB0F8A4200D1EBE0E668B14622
:1035A0001F2E00D1C3E001264E44E66001264F469F
:1035B000BE40002B00D0B5E00368B343036007238F
:1035C000464633405B191B071000DB0F8A4200D1CF
:1035D00011E1E668B1461F2E00D1BCE001264E4441
:1035E000E66001264F46BE40002B00D095E0036800
:1035F000B34303600F23464633405B19DB061000DC
:10360000DB0F8A4200D1E9E0E668B1461F2E00D107
:103610009CE001264E44E66001264F46BE40002B4A
:1036200000D075E00368B34303601F234646334070
:103630005B199B061000DB0F8A4200D1C1E0E668EF
:10364000B1461F2E00D17CE001264E44E6600126E3
:103650004F46BE40002B56D10368B34303603F235F
:10366000464633405B195B061000DB0F8A4200D1EF
:103670009AE0E668B1461F2E5ED001264E44E66011
:1036800001264F46BE40002B26D10368B34303609A
:103690007F23404603405B191B06DB0F8A4227D07D
:1036A000E0681F2861D0411CE16001218140002BAE
:1036B0000ED0136819431160200003B0F0BCBB4664
:1036C000B246A946A046F0BD3B681843386059E7AA
:1036D00013688B431360EFE73300066833430360DE
:1036E0007F23404603405B191B06DB0F8A42D7D17C
:1036F0005E46524603CA03C65A46200000995268E5
:10370000FFF7B6FDD8E73300066833430360A6E74A
:10371000330006683343036087E7330006683343AA
:10372000036067E7330006683343036047E700261A
:103730000432E660A26039E700260432E660A26047
:103740009EE700260432E660A26080E7002604328D
:10375000E660A26060E700260432E660A26040E70F
:1037600000200432E060A26003E70021E160111D47
:10377000A1609AE75E46524603CA03C65A46200035
:1037800000995268FFF774FDA268216917E75E4649
:10379000524603CA03C65A46390020005268FFF752
:1037A00067FDA2682169EDE65E46524603CA03C67C
:1037B0005A46200000995268FFF75AFDA268216915
:1037C00066E75E46524603CA03C65A462000009981
:1037D0005268FFF74DFDA268216940E75E465246F8
:1037E00003CA03C65A46200000995268FFF740FDFD
:1037F000A268216919E75E46524603CA03C65A46C3
:10380000200000995268FFF733FDA2682169F1E6B4
:10381000206800280BD02369191A0CF053F80023F4
:1038200022005146A360E36021C921C223610CF04C
:10383000F1F8C0460368F0B54E46994657464546EE
:10384000DE4614004A464368E0B50F00991AC910D5
:103850008A00521898461301D2181302D218130482
:10386000D3185B00624A5B18824683B0934200D152
:10387000BBE00122002B03D05A00934200D9A9E0FB
:103880004B46FD1A002A00D093E018230093002332
:103890009B4601935D4428002600236808300836C3
:1038A0002860B34200D19BE02B60A368AB606368E3
:1038B00026606B60002363602372B9452ED04E46AC
:1038C0005C464D46083609E02360AB681836A360B5
:1038D0006B68183563601834BD4210D02000083082
:1038E00020602B68B342EFD13100102208F0C4F8F9
:1038F0006B681835636018361834BD42EED13B0052
:103900004A46183B9B1ADA083A4B5343DB00DB0864
:1039100002335A00D318DB005B440093B84530D023
:103920003E003D00009C083609E02360AB68183675
:10393000A3606B68183563601834454510D02000CB
:103940002B6808302060B342EFD13100102208F01C
:1039500093F86B6818356360183618344545EED116
:103960004346DF1B183F234BFF087B43DB00DB088C
:1039700001335A00D318009ADB0094469C446346F6
:1039800000934B46002B06D053464A469B68484658
:10399000991A0BF097FF53465A461A60009A5A60DC
:1039A000019A9A6003B0F0BCBB46B246A946A04655
:1039B000F0BD0F4B9A4211D85600B618F6003000F1
:1039C0000CF03AFE330083465B44019318235B44BA
:1039D00000935FE74B46084EFD1AF0E71A00EBE74D
:1039E0001022310008F048F861E704480DF0FAF8B9
:1039F00055555505ABAAAA0AF8FFFF7F28AC011060
:103A0000F0B5C64600B500688AB08846150015F0C6
:103A1000E7FC06AE071E23D153E0012855D13A78C2
:103A200002A90A74320000210593D1546C68AB6876
:103A30009C4233D0200008302060049BB34249D020
:103A40002360069B0193A360059B636001936B68F1
:103A500018336B604146002015F0C2FC071E30D0C1
:103A60003800049615F054FC0400030003900F285E
:103A7000D3D9002203A904A80DF0ACFA039B04904B
:103A800006932200390007F0F7FF0021039B049AF8
:103A90000593D1546C68AB689C42CBD121002800BF
:103AA00004AAFFF7C7FE0498B042D3D0069B591C66
:103AB00001930BF007FF4146002015F091FC071E13
:103AC000CED10AB080BCB846F0BD32000028AAD0E2
:103AD0003000D6E71022310007F0CEFFB4E704989B
:103AE000B04203D0069901310BF0ECFE0BF092FFCF
:103AF00010B504000B49142004F05CFA21001420D6
:103B000004F020FAA20123011343074A9363002C17
:103B100004D03823526B1340044A1360044B1C70CA
:103B200010BDC046155500100040034034500340FE
:103B3000AB33002008239C46F0B54546DE46574689
:103B40004E4684440833E0B5050060469C46AC44CC
:103B50006346ABB00593AB6000230C00EB602B74A5
:103B60006B60009300220021CE4B04900DF0AAFB65
:103B7000002327682B700EAB9B4664680C93002FC4
:103B800000D108E124940F2C28D8012C00D0C8E1E2
:103B900028213B7804AA521813705A4600230D942A
:103BA00013550D9B002203935F23039900930CA8E8
:103BB0005E3B0DF02DFB0D9B0393022B1ED80C9842
:103BC000584503D00E9901310BF07CFE28002BB034
:103BD000F0BCBB46B246A946A046F0BD24AE0022CA
:103BE00031000CA80DF0F6F9249B0C900E932200E6
:103BF000390007F041FF249C0C9ACFE700220023F4
:103C0000089209930023A84908AA0CA80A93FFF771
:103C1000F7FE099B08990393581AC410A3001B19B7
:103C20001A019B181A029B181A049A1852001219AA
:103C3000302800D80BE1002A00D1A2E114AB129386
:103C400090C9002C00D1ADE024970F2F00D908E1D6
:103C5000012F00D07EE14021237804AA521813706E
:103C600014AA00231397D355099B089A03939B1A10
:103C7000182B00D87EE197691AABD4691893002FEE
:103C800000D147E124940F2C00D9FAE0012C00D098
:103C90005AE158213B7804AA521813701AAA00233B
:103CA00019941355099B089A03939B1A302B00D83B
:103CB00059E1176B20AB546B1E93002F00D121E10B
:103CC00024940F2C00D906E1012C00D035E170219D
:103CD0003B7804AA5218137024AE20AA00231F9424
:103CE0001355129F26AB9946139C2493002F00D1A5
:103CF00001E107940F2C00D9DEE0012C00D016E181
:103D00004A463B783372002374601355199B300088
:103D10001A00189903930DF099FB2498484503D095
:103D2000B368591C0BF0CEFD01232B7000235F4FAD
:103D300098466B600DE04C4504D0B3682000591CD8
:103D40000BF0C0FD01239C46E044434618370A2B84
:103D500043D04B4633603B687C689A46002B37D093
:103D600007940F2C25D8012C76D14A461B78337244
:103D7000002374601355139A259B249C9A42DAD130
:103D8000002A05D02100129816F0BEF90028D2D1E1
:103D900043466B60CFE71A00002C00D1FEE6444892
:103DA0000CF008FF1A00002F00D15AE740480CF031
:103DB00001FF0022300007A90DF00CF9079B3060CD
:103DC000B3602200514607F057FE079C3268CFE7E8
:103DD000002C00D0C4E04A46CAE7049818A90DF0A8
:103DE0003BF91E9820AB984203D0209901310BF08B
:103DF00069FD18981AAB984203D01A9901310BF05B
:103E000061FD129814AB984203D0149901310BF064
:103E100059FD089C099EB4420CD023002068083349
:103E2000984210D0A3681834591C0BF04BFDA642E1
:103E3000F3D1089E002E00D1C1E60A993000891BFB
:103E40000BF040FDBBE61834A642E6D1F1E70C9931
:103E5000184808F0BDF8DCE74A46002C88D04846F0
:103E6000AFE724AE0022310012A80DF0B3F8249B76
:103E7000129014933A00210007F0FEFD249F129A3D
:103E8000EFE624AE0022310018A80DF0A3F8249B21
:103E900018901A932200390007F0EEFD249C189A1E
:103EA000FDE6C04630C6011044AC01108C20002055
:103EB0005CA2011048AC01100022300007A90DF0EF
:103EC00089F8079B2490B3602200390007F0D4FDE5
:103ED000079C249A17E724AE002231001EA80DF09B
:103EE00079F8249B1E9020932200390007F0C4FD2E
:103EF000249C1E9AF2E61A00002C00D103E74948E0
:103F00000CF058FE1A0024AE002C00D1E6E645481D
:103F10000CF050FE1A00002C00D1C0E641480CF015
:103F200049FE1A00002C00D138E618005FE61A009E
:103F3000002C00D1E7E61800C6E720AA24AE002C2A
:103F400000D1CBE61000CFE71AAA002C00D1A6E6DC
:103F500010009FE714AA002F00D182E6100089E725
:103F600030480CF027FE304ADB1002215A432F481C
:103F70000CF050FE2C4ADB1001215A432B480CF068
:103F800049FE110029480CF045FEA868059B98429F
:103F900003D0296901310BF095FC0BF03BFD089C27
:103FA000099EA64233D108980A99091A002801D01F
:103FB0000BF088FC0C985845E7D00E9901310BF0B6
:103FC00081FCE2E718981AAB984203D01A990131A4
:103FD0000BF078FC129814AB9842E0D014990131A0
:103FE0000BF070FCDBE7F5E71E9820AB9842E9D0B8
:103FF000209901310BF066FCE4E724984845F3D0A2
:10400000B16801310BF05EFCEEE7BEE7D2E72300BA
:1040100020680833984203D0A368591C0BF052FC67
:104020001834BEE75CA20110ABAAAAAAB4AB011077
:10403000D0238022962110B50A4C1B0692045A61A7
:104040002000890105F0CEF90221002003F074FE62
:104050000221012003F070FE1023E26A9343024A1A
:10406000136010BD004003402C500340F0B5DE4605
:1040700057464E464546E0B50C00BBB0092806DD64
:104080003BB0F0BCBB46B246A946A046F0BD06AB6D
:1040900004934300DE4A1818C0008658101845687B
:1040A000002E00D121E234950F2D00D9F4E1012D2D
:1040B00000D04DE2337802AA137406AA00230595B6
:1040C000535510AA914612AA10924A465360137291
:1040D000059B4846591C03930DF052F82523494689
:1040E0000093002248464968243B0DF091F8059B57
:1040F00048461A00049903930DF0A8F94A46C54BA7
:1041000052689A4200D13EE2C34F0122390048462C
:104110000DF09CF9060018AB1693036808360500ED
:10412000B34200D109E21693836818936B6816A80E
:10413000179300232E602B726B60626821680DF06C
:1041400085F906001EAB1C93036808360500B342D0
:1041500000D1ECE11C9383681E936B681D930023D0
:104160006B601D9A2B72AB4B2E6003929A4200D16A
:1041700006E2012239001CA80DF068F9060024AB04
:1041800022939B46036808360500B34200D1C8E17C
:104190002293836824936B68239300232E60049EEC
:1041A0006B602B722AAB059D2893002E00D196E1FF
:1041B00034950F2D00D983E1012D00D0CEE1A0214F
:1041C000337802AA521813702AAB002229955A5547
:1041D00028A806CC0DF03AF9299C002C00D1B4E1B6
:1041E0000121289D8D4B8E4E64192A78100058406D
:1041F0005B08014201D073409BB2500858405B08F5
:10420000014201D073409BB2900858405B080142C4
:1042100001D073409BB2D00858405B08014201D0E6
:1042200073409BB2100958405B08014201D07340B3
:104230009BB2500958405B08014201D073409BB2C9
:10424000900958405B08014201D073409BB2D209EB
:104250005A405B08114201D073409BB20135AC4219
:10426000C3D1DC4364BAA4B2092C00D86DE1632C3D
:1042700000D87CE1FA239B009C4200D274E1694B98
:10428000042605219C4200D874E130AB2D222EA8D3
:104290002E930CF0BDFE2E9B0393632C1BD99C46E2
:1042A000614B013E98465F4B66449A46200064216C
:1042B00006F03CFF20004D00642106F037FF434626
:1042C0005B195B782700737043465B5D04003370B5
:1042D000023E5745EAD8092C00D8ECE0524B640066
:1042E0001A19527803991C5D4A70039B1C70239C19
:1042F0002F9A229BA0185B4500D104E124998842A3
:1043000000D8DBE02E9930ADA94200D11BE1309DF1
:10431000A84200D8F0E022A80DF098F8060036AFC9
:10432000349703680836040034ADB34200D1F2E09C
:1043300034938368AB6063686B60002363602372AF
:104340006A68344B26609A4200D116E101222800A7
:1043500036490DF07BF8082290460CAE0A960368A9
:1043600080440400434500D1CFE00A9383680C9356
:1043700063680B9343462360002323723498636081
:10438000B84203D0A96801310BF09CFA2E9830ABEB
:10439000984203D0309901310BF094FA28982AAB57
:1043A000984203D02A9901310BF08CFA2298584593
:1043B00003D0249901310BF085FA1C981EAB98426A
:1043C00003D01E9901310BF07DFA169818AB984274
:1043D00003D0189901310BF075FA109812AB98427E
:1043E00004D04B46996801310BF06CFA0A991048D9
:1043F00007F0EEFD0A980778002F30D00D4B0D2105
:1044000000255D5F002398468C460400202213E0BF
:104410008C200020FFFFFF3F44AC0110FFFF000095
:104420000884FFFF0F270000ACAC011058C1011039
:1044300088AC01109033002041467D4B00291ED1ED
:10444000BD4223D099690A42FCD11F602178013412
:104450000D394F4279412778C9B2002FEED1B042D1
:1044600003D00C9901310BF02DFA049806AB984259
:1044700000D105E6069901310BF024FA00E69969AE
:104480000A42E2D099690A42F9D1DEE799690A4203
:10449000FCD161461960D5E7002234A904A80CF0CC
:1044A00099FD349B049006932A00310007F0E4FA4A
:1044B000349D049A02E63034E4B216E72E992AE7D6
:1044C000002234A928A80CF085FD349B28902A935B
:1044D0002A00310007F0D0FA349D289B75E6002DA4
:1044E00000D172E653480CF065FB06AA002D00D1FE
:1044F000E4E550480CF05EFB0022002100942EA859
:104500000CF0E0FE0AE70F21F9E6414630000832E0
:1045100007F0B2FA2CE710223100380007F0ACFAAD
:1045200009E710223100584607F0A6FA33E61022B8
:1045300031001EA807F0A0FA0FE61022310018A8DB
:1045400007F09AFAF2E50F25E2E6002601219CE643
:1045500006AA002D00D1B1E51000A5E72AAB002D79
:1045600000D132E61800B3E7022603218DE60126CA
:1045700002218AE6013E013987E62F480CF032FB22
:104580002D480CF02FFB2C480CF02CFB2E9830AB58
:10459000984203D0309901310BF094F928982AAB56
:1045A000984203D02A9901310BF08CF92298584592
:1045B00003D0249901310BF085F91C981EAB984269
:1045C00003D01E9901310BF07DF9169818AB984273
:1045D00003D0189901310BF075F9109812AB98427D
:1045E00004D04B46996801310BF06CF9049806AB86
:1045F000984203D0069901310BF064F90BF00AFAE6
:10460000CCE7DAE7E9E7E0E7E7E7C7E7CEE70A98CC
:10461000B042EBD00C9901310BF054F9E6E7349835
:10462000B842B3D0A96801310BF04CF9AEE7C046EF
:10463000004003405CA2011070AC0110F0B5DE46F2
:10464000454657464E46E0B5C30F9B46C317B3B029
:10465000C518049106925D40092D00D887E2632DAC
:1046600000D813E2FA239B009D4200D29EE2A24BA7
:104670009D4200D897E2A14B28009846A04B012705
:104680009946A04BA04C9A4608E04E4500D81DE242
:10469000564500D83BE2A64200D841E29B490600BD
:1046A00006F044FD390004374645EED8CE1C5C4682
:1046B0000AAB2D2208A8E1190793089303900CF088
:1046C000A7FC089A5B46944663449A46771E8A4B39
:1046D0008F4E9B46B04657442800642106F026FDC5
:1046E00028004C00642106F021FD43461B195B782D
:1046F0002E007B7043461B5D05003B70023F5E450C
:10470000EAD8FA2334009B0046469C4200D3CDE110
:104710003035EDB25346039A1D7052687D4B0592B9
:104720009A4200D14AE27C4B0122190003989A4632
:104730000CF08CFE060010AB0E93036808360500E3
:10474000B34200D1F5E10E93836810936B680F9329
:1047500000236B602B72049B2E60DA0F0492DA1731
:104760009C185440092C00D811E2632C00D812E2A6
:10477000FA239B009C4200D20FE25F4B9C4200D880
:104780000FE25F4B200098465E4B012599465E4B39
:104790005A4F9B4608E0464500D8A8E14E4500D850
:1047A000B8E15E4500D8BEE15849060006F0BEFCFF
:1047B0002B000435BE42EED8049E16AB2D22711993
:1047C00014A814930CF024FC149B9C466644B14638
:1047D000632C1AD94E4E484BB0469B46023D4D4481
:1047E0002000642106F0A2FC20004F00642106F0A6
:1047F0009DFC4346DB195B7826006B704346DB5D0E
:1048000004002B70023D5E45EAD8092C00D83AE13D
:104810004A463F4E640033195B78345D53704B4613
:104820001C700F9C159A0E9B10A9A0188B4200D1EA
:104830007BE11099884200D844E1149916ADA94251
:1048400000D18EE1169DA84200D852E10EA80CF0CE
:10485000FDFD05001AAB9B461CAB1A93059303683C
:1048600008350400AB4200D175E11A935B468268BB
:104870009A605B4662685A6000235A4663602372FE
:104880005268244B25609A4200D194E1012251469E
:1048900058460CF0DBFD050022AB20930368083579
:1048A0000400AB4200D150E12093836822936368F7
:1048B0002193002363602372069B2560DA0F049224
:1048C000DA179D185540092D00D84EE1632D00D808
:1048D0005FE1FA239B009D4200D26AE1064B9D42B4
:1048E00000D85CE1064B28009846064B0124994607
:1048F000054B024F9A461AE00F2700009F860100E1
:104900003F420F007F969800FFE0F505102700005A
:10491000ACAC0110FFFFFF3F1CD90110464500D889
:10492000D2E04E4500D8F7E0564500D8F6E0C5493C
:10493000060006F0FBFB23000434BE42EED8049EC2
:1049400028AB2D22311926A8994626930CF060FB3E
:10495000269B9C4666440496632D1BD9B446BA4BED
:10496000BA4E9A46B046023C64442800642106F0E0
:10497000DDFB28004F00642106F0D8FB4346DB191D
:104980005B782E0063704346DB5D05002370023CBC
:104990005645EAD8092D00D88FE0AC4B6D005A1966
:1049A000527804995D5D4A70049B22A91D70219C78
:1049B000279A209BA0188B4200D1B8E02299884208
:1049C00000D87DE02699494500D1CCE0289DA84239
:1049D00000D895E020A80CF039FD07002EAE2C96EB
:1049E0000368083704002CADBB4200D1A7E02C932C
:1049F0008368AB60636829006B6000230120276037
:104A000063602372FFF732FB2C98B04203D0A96891
:104A100001310AF057FF2698484503D02899013103
:104A20000AF050FF209822AB984203D0229901311E
:104A30000AF048FF1A98059B984204D05B46996893
:104A400001310AF03FFF149816AB984203D0169933
:104A500001310AF037FF0E9810AB984203D010993D
:104A600001310AF02FFF0898079B984204D0039B5E
:104A7000996801310AF026FF33B0F0BCBB46B2465C
:104A8000A946A046F0BD3034E4B2C8E65C460AABA5
:104A90002D2208A8A11C0793089303900CF0B8FAE4
:104AA000089A5B46944663449A46684E52466D00A7
:104AB00073195B78755D53702CE63035EDB273E792
:104AC000269987E71499C1E65C1D38E705310AABE2
:104AD00008A82D2259440793089303900CF098FAE4
:104AE000089B5C469C466444A2463E00EEE55D1D84
:104AF00062E600220021009414A80CF0E3FBA8E673
:104B000000220021009426A80CF0DCFB65E78F1D35
:104B10004E1DCCE59D1D4FE69C1D10E7DC1D0EE7EC
:104B2000CF1D8E1DC3E5DD1D46E60F2182E60F2158
:104B300045E71022310010A806F09EFF06E610227D
:104B40003900300006F098FF54E71022290022A80F
:104B500006F092FFABE610222900059806F08CFFC4
:104B600087E60F256FE60F2531E70124E7E65C466F
:104B70000AAB2D2208A8611C0793089303900CF040
:104B800047FA089A5B46944663449A46C0E5012575
:104B900012E60224D3E602250EE603250CE60424E1
:104BA000CDE6042508E60326042780E50226032730
:104BB0007DE50324C3E626480CF014F824480CF0E5
:104BC00011F80898079B984204D0039B996801311B
:104BD0000AF078FE0AF01EFF149816AB984203D034
:104BE000169901310AF06EFE0E9810AB9842E8D08B
:104BF000109901310AF066FEE3E7F5E71A98059B84
:104C00009842E9D05B46996801310AF05BFEE3E720
:104C10002C98B04203D0A96801310AF053FE2698BF
:104C2000484503D0289901310AF04CFE209822AB68
:104C30009842E3D0229901310AF044FEDEE7EEE724
:104C4000F4E7C046102700000F270000ACAC0110AD
:104C500070AC0110F0B55746DE464E464546E0B50D
:104C6000C30F9A46C317C41889B05C40092C00D8FA
:104C700099E0632C68D9FA239B009C4200D2A4E0FF
:104C8000594B9C4200D89DE0584B20009846584B09
:104C900001279946574B584D9B4607E046456CD92E
:104CA0004E4500D879E05E4500D879E053490600CA
:104CB00006F03CFA39000437AE42EFD8CD1C02AB07
:104CC0009B46390004AB51442D2258460193029370
:104CD0000CF09EF9029B9C46E244494B013D9846EC
:104CE000414B554499462000642106F01FFA2000EC
:104CF0004E00642106F01AFA43469B195B782700A0
:104D00006B7043469B5D04002B70023D4F45EAD813
:104D1000FA239B009F4227D23034E4B253465946CF
:104D200002201C70FFF7A2F90298019B984204D060
:104D30005B46996801310AF0C5FD09B0F0BCBB467D
:104D4000B246A946A046F0BD02AB9B4604AB019318
:104D5000029353462D22991C58460CF059F9029B98
:104D60009C46274BE24498464346524664001B1932
:104D70005B78537043461C5DD0E702AB9B46053120
:104D800004AB51442D225846019302930CF040F994
:104D9000029B3D009C46E2449FE78F1D4D1D8EE720
:104DA000CF1D8D1D8BE702AB9B4604AB0193029395
:104DB00053462D22591C58460CF02AF9029B9C465A
:104DC000E244A9E70325042779E70225032776E7CC
:104DD0000298019B984204D05B46996801310AF021
:104DE00071FD0AF017FEC0460F2700003F420F007A
:104DF0007F969800FFE0F5059F86010010270000D0
:104E0000ACAC011070B5056888B004AC0294002DFC
:104E100030D0280014F07CFA060001900F281AD830
:104E2000012813D16A462B781374230000220390C3
:104E300002A91A540320FFF719F90298A04203D0DF
:104E4000049901310AF03EFD08B070BD230000282E
:104E5000ECD0200007E0002201A902A80CF0BAF86B
:104E6000019B029004933200290006F005FE019890
:104E7000029BDBE705480BF09DFE0298A04203D0A1
:104E8000049901310AF01EFD0AF0C4FD5CA2011074
:104E9000F8B557464E46DE4645461400E0B50600D6
:104EA0000F0001294BD080239B0599424ED28D00E3
:104EB00028000BF0C1FB2A000021804606F0D6FD39
:104EC00018239B46B3440023B568B360002D24D05B
:104ED000994608339A46B24405E0126822601B687E
:104EE0001C60002D19D02C003900E06A06F01EF974
:104EF0008B0043441A682D68002AEED1B268226004
:104F00005246B4601A602368002B16D04B464246C6
:104F10009B0089469C50002DE5D13068716858454A
:104F200002D089000AF0CEFC434677603360F0BCC3
:104F3000BB46B246A946A046F8BD8946D1E7002344
:104F40008361183398468044C346BCE70BF022FEC9
:104F50000AF04EFE236873610BF0D4FA0AF082FE69
:104F60000AF058FDF0B5DE4657464E4645460B0062
:104F7000E0B506006E4A87B0884603CB0BF018FBFD
:104F80007368070019009B4606F0D0F88B009A461C
:104F90005246336889469B58002B0DD01C68E56A41
:104FA000AF4252D02468002C06D0E56A594628004A
:104FB00006F0BCF88945F3D030200BF03DFB002310
:104FC000040008C00C339946A1444B466360434635
:104FD0001B689B4643465D685B46002B00D175E02D
:104FE00004950F2D40D8012D00D078E01B784A465B
:104FF000237304AB98460023A5605355636273691D
:10500000310003930123404600937268F368103126
:105010000BF0B8FE43461B78002B35D15346E762B0
:105020003768FD182B68002B41D01B6823602B6864
:105030001C60F3680133F36020001C3007B0F0BC43
:10504000BB46B246A946A046F0BD43465A68A3688F
:105050009A42A7D1002AEFD043466168186815F03C
:1050600053F80028E8D09DE704AB002219009846C9
:105070000BF0B0FF049B6060E3602A00594606F025
:10508000FBFC049D6268B6E743463000596803AAFA
:10509000FFF7FEFE3800716806F048F88B009A466C
:1050A0005346E7623768FD182B68002BBDD1B36803
:1050B000B4602360002B05D0D86A716806F036F81A
:1050C0008900CC51330008332B60B2E704AB4A4669
:1050D0009846002D00D18EE716480BF06BFD04AB0F
:1050E0004A469846002D00D185E74846C5E70AF0B4
:1050F0007FFD302120000AF0E5FB0BF003FA636A24
:10510000002B04D020001C30032201009847606867
:10511000814503D0E368591C0AF0D4FB30212000FC
:105120000AF0D0FB0AF076FC0AF09CFD0AF072FC53
:1051300007690FC75CA2011070B5050086B00A2987
:105140003AD08368002B34D00122214B21481A70B9
:105150004B005918204BC900C918FFF703FF002363
:105160000493AB6802AE0400002B07D00222290092
:1051700030009847EB68AA68059304926D463100A9
:105180000822280006F078FC3300220003CA03C37B
:10519000230006CD06C3049AA368E1680493A260C5
:1051A000059A0591E260002B03D003223100300004
:1051B0009847012006B070BD0020FBE7B368002BC4
:1051C00003D003223100300098470AF023FCC04688
:1051D000AA330020702000208C200020F0B5574614
:1051E0004E464546DE46E0B5C34B91B01F680CAD58
:1051F00004005E680A95002F38D004960F2E26D83A
:10520000012E00D02CE128213B7802AA52181370FD
:105210002B0000220B9620009A550AA9FEF78AFC63
:105220000A98A84204D00C9B591C00930AF04AFB30
:105230002378002B03D0B14B1B78002B1CD120000E
:1052400011B0F0BCBB46B246A946A046F0BD002254
:1052500004A90AA80BF0BEFE049B0A900C9332002E
:10526000390006F009FC049E0A9BD2E72B00002EB1
:10527000CFD0A3480BF09EFC626806AB04935300AA
:105280009B18A04ADB009446D75863445E68002F01
:1052900000D1CFE00A960F2E00D998E0012E00D061
:1052A000F1E03B7802AA137406AA002305969355F1
:1052B000059B954A1900049800930BF079F9934BDC
:1052C00080469B465B6819009A4605F02FFF5A46B8
:1052D00012688B009B588946002B17D01E68049BD0
:1052E000F76A0193059B0093002B7FD0230044466F
:1052F0009846BC422BD03668002E06D0F76A51463D
:10530000380005F013FF8945F3D0444662680A95DA
:1053100053009B187B4ADB009446D75863445E6871
:10532000002F00D1A8E003960F2E74D8012E00D0D4
:10533000B5E028213B7802AA521813702A000023F6
:105340000B96734893550AA906F042FE2EE0009B87
:10535000B2689342CFD11A007168019814F0D4FE5C
:105360000028C8D1584604A94446FFF7FBFDA368AE
:1053700006009846E7680A95002B77D003970F2F11
:105380005FD8012F00D084E0434628211B7802AA71
:10539000521813702A0000230B97D355B368002BC3
:1053A00000D182E03000F3680AA998470A98A84221
:1053B00003D00C9901310AF085FA049806AB9842A3
:1053C00000D13CE7069901310AF07CFA37E7002268
:1053D0000AA904A80BF0FEFD0A9B04900693320074
:1053E000390006F049FB0A9E049A5EE72300444612
:1053F0009846BC420BD03668002E86D0F76A5146DC
:10540000380005F093FE8945F3D044467EE7B36843
:10541000002BF0D1A6E7002203A90AA80BF0DAFDC1
:10542000039B0A900C933200390006F025FB039E83
:105430000A9A84E706AA002E00D136E730480BF01E
:10544000B9FB002203A90AA80BF0C4FD039B0A9034
:105450000C933A00414606F00FFB039F0A9A9AE725
:105460002B00002E00D1D4E62800F8E62A00002FF9
:1054700091D023480BF09EFB2A00002E00D15EE75E
:105480001F480BF097FB06AA002E00D10DE7100075
:10549000A5E72A00002F00D17DE72800D9E72A00E0
:1054A000002E00D14BE72800BDE70BF005FC0A9861
:1054B000A84203D00C9901310AF004FA049806AB13
:1054C000984203D0069901310AF0FCF92300A06844
:1054D0001033984203D0216901310AF0F3F90AF040
:1054E00099FAF3E70A98A842F9D00C9901310AF029
:1054F000E9F9F4E7DBE7E1E758200020AA330020D0
:105500005CA201108C20002007690FC770200020CA
:105510008CAC0110F0B5D6464F464646C0B5394D65
:105520008AB0AB69DB0626D4374B10249946374F37
:105530002200AB691A401C42FAD12E68F6B20A2E3C
:1055400033D0252E1DD07B683A009A460123534460
:1055500098463B680832934225D0BA68904518D8DF
:1055600052469E54434641467B6000233A6853545A
:10557000AB691C42DCD00AB0E0BCBA46B146A846D2
:10558000F0BD00924B46002138007A680BF09AFE7D
:10559000EEE70123002200935146002338000BF070
:1055A00095FD3B68DCE70F22D8E702A8AA63FFF766
:1055B00015FE049806AB984203D0069901310AF013
:1055C00081F9134B1A78910113010B4320210B43EE
:1055D0000C498B63002A0ED10E4A0A4B3800596BD6
:1055E00007230B401360002300930021064B7A68C9
:1055F0000BF068FEBFE738234A6B1340054A13607F
:10560000EBE7C0460040034030C6011058200020A0
:10561000AB3300203450034030B5424B83B01A689E
:10562000541C1C60012C1CD03F4B1A68541C1C607D
:10563000012C0ED13D4D1022280000210C3006F027
:1056400015FA3B4B6C602B600023AB60FE239B057F
:105650002B61384A136801331360012B35D003B036
:1056600030BD354D3549280001AAFBF785F934498D
:10567000344801AAFBF780F93349344801AAFBF703
:105680007BF93349334801AAFBF776F932493348AD
:1056900001AAFBF771F93249324801AAFBF76CF90C
:1056A0003149324801AAFBF767F93149314801AA6B
:1056B000FBF762F93049314801AAFBF75DF930493F
:1056C000304801AAFBF758F9AEE71C4901AA2E4859
:1056D000FBF752F9C3E7092409231B1B18245C4379
:1056E0002C19AC4212D10AF095F90824F4E70724EA
:1056F000F2E70324F0E70224EEE7EDE70024EBE70E
:105700000524E9E70424E7E70624E5E7183C23003D
:10571000206808339842E4D0A368591C0AF0D2F8F4
:10572000DFE7C04624200020202000207020002039
:10573000882000201C2000208C20002030C6011072
:10574000B4DA0110A420002088A20110BC2000209F
:105750008CA20110D42000200CDE0110EC200020CF
:1057600090A201100421002094A201101C2100200D
:1057700098A20110342100209CA201104C2100208D
:10578000A0A2011064210020582000207047C046CC
:10579000C06810B5002802D00368DB69984710BDC7
:1057A0000020704710B5040010210AF08BF820008B
:1057B00010BDC04610B510210AF084F810BDC046D7
:1057C00070B50400074806F003FC6368064D002B23
:1057D00000D12B60FF2200212000FDF73BFD286057
:1057E00070BDC04678AD01104C2D0020436801000B
:1057F00010B5002B00D110BD01480BF02DFCFAE7CD
:105800000420002010B50400024B03600AF072FA75
:10581000200010BDF4AF011010B50400044B03606C
:105820000AF068FA200004210AF04CF8200010BDAC
:10583000F4AF011010B50400024B036009F054FEF0
:10584000200010BDCCAF011010B50400044B036064
:1058500009F04AFE200020210AF034F8200010BD93
:10586000CCAF0110002A05D0012A06D0022A06D0AA
:1058700000207047034B0360FAE70160F8E70B680C
:105880000360F5E760AF011070B5066888B004AD3D
:1058900044680295002E26D001940F2C14D8012CB8
:1058A00027D16A46337813742B000022039402A890
:1058B0001A55FDF701FC0298A84203D00499013162
:1058C0000AF000F808B070BD002201A902A80BF090
:1058D00081FB019B029004932200310006F0CCF87A
:1058E000019C029BE1E72B00002CDED008480BF066
:1058F00061F92B00002CD8D02800EDE70298A842CF
:1059000003D00499013109F0DDFF0AF083F8C046A5
:105910005CA201100023F0B5036043608360154B67
:1059200004000E0083B0D5009D4216D8002D0ED085
:1059300028000AF081FE47192060A760002D0AD0D8
:105940002A00310006F098F8676003B0F0BD002728
:1059500005608560F8E70700F6E707480BF042F9B5
:105960002068A168091A002801D009F0ABFF0AF0ED
:1059700051F8C046F8FFFF7F28A20110F0B50E00D5
:1059800087B00B6802AD08360C0007680095B3427B
:1059900013D000938B6802936368684601930023D9
:1059A000266063602372B8470098A84203D002992A
:1059B000013109F087FF07B0F0BD10223100280047
:1059C00006F05AF8E8E70098A84203D0029901319E
:1059D00009F078FF0AF01EF8F0B507000837040058
:1059E0000E0083B00760002923D0080013F090FC5C
:1059F000050001900F280DD8012808D133782372B3
:105A00000021019B22686360D15403B0F0BD0028DF
:105A1000F6D008E00022200001A90BF0DBFA070015
:105A2000019B2060A3602A003100380006F024F8B2
:105A3000E6E701480BF0BEF85CA2011070B5041E49
:105A40001FD02600E068FFF7F9FFB569A468002DB4
:105A500011D06B68013B6B60002B0CD12B682800C8
:105A60009B689847AB68013BAB60002B03D12B6868
:105A70002800DB6898471C21300009F023FF002C28
:105A8000DFD170BDF0B5C646070000B500282ED0A6
:105A9000B846F868FFF7F6FF4346DC69BF68002C9C
:105AA0001FD02600E068FFF7C9FFB569A468002D84
:105AB00011D06B68013B6B60002B0CD12B68280068
:105AC0009B689847AB68013BAB60002B03D12B6808
:105AD0002800DB6898471C21300009F0F3FE002CF9
